00090080289053105557968     FABIO SULZBACHER                   RS3400101309      20130107210010000000017AB5A869A6AEDD9C857A9EEF157AF5AB000000025101000000025101000000000000000000000000000000000000N1301000000001                 64CE8FA2B407E326793AD1C3619F7658
00002197484117111111        EU, EU MESMO & IRENE               TO340097603       2013010721001000000002D9112D5DDD108FD3CB82A1F6D9AF2314000001519879000001519879000000000000000000000000000000000000N1301000000007                 A7B58CAF538B8D80444CF65DB46DA2F9
000647599890722039*650185   JACI MONBACH                       RS3400101120      2013010721001000000003A8466667E2860AEBC5094D6770545B7A000000007826000000007826000000000000000000000000000000000000N1301000000008                 C0C694377997AB7EB8E24731BD7CF787
00002197484117111111        EU, EU MESMO & IRENE               TO340097546       20130107210010000000040A1F76522F21B05AB63665A91370E269000000007000000000007000000000000000000000000000000000000000N1301000000009                 1BA9A8A5FD7F221AD65F9CC0923762DF
00002566074003ISENTO        ALFREDO ALBERTO KALL               RS340097854       20130107210010000000057FD9933A077D93E9D145E9639EBD29D0000000009900000000008900000000000000000000000000000000000000N1301000000010                 FAE952126EB33FB69D3F58B15350190A
000559029520342053296411    LAURI MINETTO                      RS340097762       20130107210010000000064B7EFC1FED6232881999A368312B5E86000000009900000000008900000000000000000000000000000000000000N1301000000012                 7318E23B6A80BE5B099BA71B64E0AB73
00002197484117111111        EU, EU MESMO & IRENE               TO3400101337      20130109210010000000073438B0523B46EF6B1D60C4D178C6DD63000000081500000000081500000000000000000000000000000000000000N1301000000014                 3E7AB110116AC997B3D3FFBF4CDCADBB
000023947000178108052617    JUCILEA SIDEMCIO                   RS3400101455      2013013121001000000008D6412F305410570BF0AB02CCE17ABE9B000000015800000000015800000000000000000000000000000000000000N1301000000015                 1E046CB60CA27ECB70F987FB71747D41
