000900643130344057341424    VANIA TEN KATEN ROCKEMBACH         RS3400118075      2013050221001000000001BD862B2F5476A2A87A12E277F0277AC4000000004490000000004490000000000000000000000000000000000000N1305000000001                 CD0D7B520D8474CE67DD6CED00B209CC
00090726537004ISENTO        ALTAIR JOSé LENZ                   RS3400118056      20130502210010000000020D0B0033254B4280BD75FB7402698975000000004490000000004490000000000000000000000000000000000000N1305000000002                 23155E0DCC19A61C47C476561719AB61
00088540510049ISENTO        MARISA SOLANGE KLERING             RS3400118069      2013050221001000000003AC973A11316279ECEDC23C4AF8D034B1000000004490000000004490000000000000000000000000000000000000N1305000000003                 3E182741249F0F086EE45B4943A21B66
000020176210211100957487    DANIEL AFONSO LUNKES               RS3400114208      20130502210010000000043B0878500892FEB1B008143C3C79ED5E000000006900000000006900000000000000000000000000000000000000N1305000000004                 92ECB2762B8D477013C77ACC0C334EBF
07708243000128ISENTO        RICARDO LUIS MATTIAZZI             RS1400114232      20130502210010000000050147C5C848C40FB5CF0B5E3051907B84000000004490000000004490000000000000000000000000000000000000N1305000000005                 ECD35DC8C5C71488B37607488DD52B51
00090884221091706485880     JOSé ARAMI RODRIGUES               RS3400118037      20130502210010000000062991AECA112B8C251A9386C64581461A000000004490000000004490000000000000000000000000000000000000N1305000000006                 725614E0E900A31BFC256CEC8E4F862E
01945082000100ISENTO        ABATEDOURO GALLAS                  RS1400118061      2013050221001000000007CBB7FFD61044D9CCA8AAFCE2FBAD730F000000012900000000012900000000000000000000000000000000000000N1305000000007                 10704F42D1CD34EFA26B3533C1D362C6
000441620220207033151338    ADELAR SCHAB                       RS3400118334      20130502210010000000084AF9E2117A555235E77D5BB93C0FB85E000000000290000000001038000000000000000000000000000000000000N1305000000008                 2CBBA85A90A1858C168E6F1190DEB8AB
000900643130344057341424    VANIA TEN KATEN ROCKEMBACH         RS3400114223      2013050221001000000009D190D5F8F13AB7720BD1D7BA6B9FFA6F000000004490000000004490000000000000000000000000000000000000N1305000000010                 021CED0FF1D91424F05A5C106AA3AE12
00002197484117774158        EU, EU MESMO & IRENE               TO3400118335      201305032100100000001069B52257B5AE4F7C8AFC1324DAD6E7AC000000003186000000003186000000000000000000000000000000000000N1305000000011                 C4F0E683DF89B9C4C47B834C07E27143
00002197484117774158        EU, EU MESMO & IRENE               TO3400118336      2013050321001000000011AB377E8E818075A2361EB33D528BE04E000000004490000000004490000000000000000000000000000000000000N1305000000012                 E6E0AB21D1BD88A6EE9FF137B5D89B64
00002197484117774158        EU, EU MESMO & IRENE               TO3400118337      2013050321001000000012AD974EDDBE40198BC58B437D2DF0E10E000000004490000000004490000000000000000000000000000000000000N1305000000013                 470CDF34FA7B4166E22EEB8A3C44BA0D
00017494400087ISENTO        LUCILA RUWER FRöHLICH              RS3400118073      201305042100100000001394B15397F0ADD44B2F4335009B9D016A000000004490000000004490000000000000000000000000000000000000N1305000000014                 6376C94BAB9AC04545EE644231F1DD2C
00040309757800ISENTO        ANDRE TAYLAN DA SILVA SANTOS       TO3400118339      2013050421001000000014F857E602D4C311BC27668D32837F784F000000007752000000006881000000000000000000000000000000000000N1305000000015                 40CE42812D9123F3C017578C44EB11B7
000314562510152018783891    SALETE MARIA ARENHART              RS3400118340      2013050721001000000015D4982262FF6B7D80A6317941AB18FFC3000000001531000000001531000000000000000000000000000000000000N1305000000017                 13AE4CC3D8CF7E7B9FE2BE303C60C84D
00001234567890ISENTO        NATANAEL                           TO3400118345      2013050821001000000016B0B1F0F619C290EF9F814575DD334AB5000000001448000000001448000000000000000000000000000000000000N1305000000019                 1D4B0E5FF5D155A9E692490EB7954BDF
00001234567890ISENTO        NATANAEL                           TO3400118346      20130508210010000000170DB2C5430A6C81522961B7ECF01E9624000000004490000000004490000000000000000000000000000000000000N1305000000020                 973D7D1C1B00CB06E5D0F0D05DEAECB6
00001234567890ISENTO        NATANAEL                           TO3400118347      2013050821001000000018A83B9FEBC7186515B49D4905BC9FCFF2000000004490000000004490000000000000000000000000000000000000N1305000000021                 8BC7723A55BF77B083553730FB37AFC0
00001234567890ISENTO        NATANAEL                           TO3400118348      2013050821001000000019D34543D22375D99F59634577D53DE369000000004490000000004490000000000000000000000000000000000000N1305000000022                 6300D256DE528D842483E876FABB09C2
00001234567890ISENTO        NATANAEL                           TO3400118349      20130508210010000000203709BCA6EE6D68AE8C89B7C162A3A2FC000000004490000000004490000000000000000000000000000000000000N1305000000023                 6AA9E1C2F164B3299096CF0DAE122F78
00001234567890ISENTO        NATANAEL                           TO3400118350      20130508210010000000210EB8DA21F0540774BCC5210F666B9615000000004490000000004490000000000000000000000000000000000000N1305000000024                 56C209EB171FBD28027031222C07E4D5
00001234567890ISENTO        NATANAEL                           TO3400118351      2013050821001000000022D07D7ED0DEDC0225401570AF4C687C2E000000004490000000004490000000000000000000000000000000000000N1305000000025                 0C8A569B9C525C1648E0030297A15437
00001234567890ISENTO        NATANAEL                           TO3400118352      2013050821001000000023092B3DB21B032D4B749ECEFDB6102882000000004490000000004490000000000000000000000000000000000000N1305000000026                 0F7308FD178C84BE39FEE0D9CDA2422F
00001234567890ISENTO        NATANAEL                           TO3400118353      20130508210010000000246946A5EC068EE86D8A4942ADEB298B4F000000004490000000004490000000000000000000000000000000000000N1305000000027                 157F4574CEBCD4E92057982462EE62BF
00001234567890ISENTO        NATANAEL                           TO3400118354      2013050821001000000025BF2001611E717F0A3E023667A28F55C8000000004490000000004490000000000000000000000000000000000000N1305000000028                 63060AC1AC4324506F619F541DE54BDF
00001234567890ISENTO        NATANAEL                           TO3400118355      2013050821001000000026504528BF3696B87329ED3FBCA07A558E000000004490000000004490000000000000000000000000000000000000N1305000000029                 7EF57BB5FAA869569F7C14C94B09E23D
00001234567890ISENTO        NATANAEL                           TO3400118356      201305082100100000002760574EDA95FDFC310FC120DFF9CE7500000000004490000000004490000000000000000000000000000000000000N1305000000030                 AAC72B23A5F5BBA7CA128145E61221AD
00001234567890ISENTO        NATANAEL                           TO3400118357      201305132100100000002833311E11D186C709F74D2A05332E12A5000000003042000000005238000000000000000000000000000000000000N1305000000031                 9E06FC6B2770ED6335B35F30FEA12C22
000602889060042025637162    MARLENE HAMMERSCHMITT THIELE       RS3400118489      20130528210010000000291EFBFDB94A1BCAAD7D5E4E6A55BBC5C3000000000901000000000901000000000000000000000000000000000000N1305000000035                 3154BA3A41867C334057C7B62974B2DF
000602889060042025637162    MARLENE HAMMERSCHMITT THIELE       RS3400118490      20130528210010000000300A871CCCE05A0C929D86412D5CF9E1DE000000003490000000003490000000000000000000000000000000000000N1305000000036                 CEA692B741D7FFCF6BF647A03D66BABF
000602889060042025637162    MARLENE HAMMERSCHMITT THIELE       RS3400118491      2013052821001000000031B3E91F7401D7DB8D7EA1495D7F97ED3B000000003490000000003490000000000000000000000000000000000000N1305000000037                 05F728BE389E92EEDAF8E5C64EE9D851
000602889060042025637162    MARLENE HAMMERSCHMITT THIELE       RS3400118492      20130528210010000000323FB2AC49E89981C732981220D108373D000000003490000000003490000000000000000000000000000000000000N1305000000038                 36D52968E942C356D7078202CCC1FF79
000602889060042025637162    MARLENE HAMMERSCHMITT THIELE       RS3400118493      2013052821001000000033F54CFC4D502AA4D011317C4CEF4628B2000000003490000000003490000000000000000000000000000000000000N1305000000039                 E15B844D039A2B2F383289CCB57749CD
000602889060042025637162    MARLENE HAMMERSCHMITT THIELE       RS3400118494      2013052821001000000034BF19AD8DC3CE6E8580A421BE14E9C241000000003490000000003490000000000000000000000000000000000000N1305000000040                 DEA429D0DA4E034502DE28DB74009D01
000602889060042025637162    MARLENE HAMMERSCHMITT THIELE       RS3400118495      2013052821001000000035F4D7F92F0DDB60C82A843A0F6CBFA538000000003490000000003490000000000000000000000000000000000000N1305000000041                 C492191E6863B2484A2F713C2D84213D
000602889060042025637162    MARLENE HAMMERSCHMITT THIELE       RS3400118496      2013052821001000000036BF6CC047505E8D58E8940AAF6D54E5BB000000003490000000003490000000000000000000000000000000000000N1305000000042                 1B8E8E25272BBD3D7FD3E528CB6BF64D
000602889060042025637162    MARLENE HAMMERSCHMITT THIELE       RS3400118497      2013052821001000000037DC88BBEF578C8D36C440658790492C59000000003490000000003490000000000000000000000000000000000000N1305000000043                 95E977BD7FC958EA6304D2E1FB3CFD61
000602889060042025637162    MARLENE HAMMERSCHMITT THIELE       RS3400118498      20130528210010000000389117ACC97BC4BA52F8FA4541A04BDD81000000003490000000003490000000000000000000000000000000000000N1305000000044                 1BF076ED25AE950C173C7DCFA7B35D90
000602889060042025637162    MARLENE HAMMERSCHMITT THIELE       RS3400118499      2013052821001000000039404B979A6228738B4C7D99050B1E4387000000003490000000003490000000000000000000000000000000000000N1305000000045                 E35F2661508C0DCC1EF66B5113D05D2C
000602889060042025637162    MARLENE HAMMERSCHMITT THIELE       RS3400118500      2013052821001000000040C0C6A04C81E3B787F9BB44599D6AA004000000003490000000003490000000000000000000000000000000000000N1305000000046                 A4D968AC905CAAF4EEE851A4124DEA2A
000009427630768065371455    CHARLES THIELE                     RS3400118509      2013052921001000000041FE1F5A7225878D715BFFB89239AA1BF7000000000579000000000579000000000000000000000000000000000000N1305000000047                 B0D888AE1BB5FC8AF120F69D9482B13D
000009427630768065371455    CHARLES THIELE                     RS3400118510      201305292100100000004223BE92903EE2C7E315E3892177F9886C000000004490000000004490000000000000000000000000000000000000N1305000000049                 5A8BC4377503654B5795CE4FCF55D764
000009427630768065371455    CHARLES THIELE                     RS3400118511      2013052921001000000043C31DDC9A8FA930A08783C92BDF53A5B3000000004490000000004490000000000000000000000000000000000000N1305000000050                 78ECB9817936D7D85C0626856BA19F76
000009427630768065371455    CHARLES THIELE                     RS3400118512      2013052921001000000044C9AB48F76C4E343373060DAFF7A36241000000004490000000004490000000000000000000000000000000000000N1305000000051                 9DEF883CBAFCB583970C7BEE406A4A28
000009427630768065371455    CHARLES THIELE                     RS3400118513      2013052921001000000045E148E711164D1DAC15E32669A3E1EA31000000004490000000004490000000000000000000000000000000000000N1305000000052                 7FB6080E74D5DCCF74B698BA5D8E6811
000009427630768065371455    CHARLES THIELE                     RS3400118514      20130529210010000000465D558E822E3A99DF895CD89C3ADC885B000000004490000000004490000000000000000000000000000000000000N1305000000053                 987CB51F11F146CAEA688534FA26AFE7
000009427630768065371455    CHARLES THIELE                     RS3400118515      2013052921001000000047EB655DB0AEB3E7F63D02EBFA08B48441000000004490000000004490000000000000000000000000000000000000N1305000000054                 98159DFBF352C662724FE8F381AA2148
000009427630768065371455    CHARLES THIELE                     RS3400118516      201305292100100000004853AC5F6735C8D2AA8CD475272F05C2EF000000004490000000004490000000000000000000000000000000000000N1305000000055                 BA7A04D0AB1087F281CDE2C36DF87157
000009427630768065371455    CHARLES THIELE                     RS3400118517      20130529210010000000497EC9934AFA8FE55687994445E5AEDDBA000000004490000000004490000000000000000000000000000000000000N1305000000056                 A6D0AAFCF37EFFE14FF8D1E26862B29A
000009427630768065371455    CHARLES THIELE                     RS3400118518      2013052921001000000050440DC3CA729939C84C38EFD9253AE369000000004490000000004490000000000000000000000000000000000000N1305000000057                 00D48176E52942347273F8202F2DFD3D
000009427630768065371455    CHARLES THIELE                     RS3400118519      201305292100100000005120435D55D158FE78EA79D12FF6D4F962000000004490000000004490000000000000000000000000000000000000N1305000000058                 509A221B13F344D276C8A13EA47BF35C
000009427630768065371455    CHARLES THIELE                     RS3400118520      2013052921001000000052334B0F5B533D41AE2D989BEA93821D65000000004490000000004490000000000000000000000000000000000000N1305000000059                 3A36860834FCE71695AAA85F79F2DE86
000308936400009008772767    IVO HENRIQUE THIELE                RS3400118533      201305292100100000005317671AEF795D9ADFEA9264AE6FB0FA61000000000724000000000724000000000000000000000000000000000000N1305000000060                 34632B9737C73861BF3652E14E5D78D6
000308936400009008772767    IVO HENRIQUE THIELE                RS3400118534      20130529210010000000548468D526ECB88C4A0D00861E38E904A3000000004490000000004490000000000000000000000000000000000000N1305000000061                 10038A7567D9BC34A9870ACBA7560CB0
000308936400009008772767    IVO HENRIQUE THIELE                RS3400118535      20130529210010000000556E0709F6F7EAA36372D34876DD466171000000004490000000004490000000000000000000000000000000000000N1305000000062                 7E5262F7DFF71752232A57DBA9E7D2B9
000308936400009008772767    IVO HENRIQUE THIELE                RS3400118536      20130529210010000000565117F6AE2A8CFFF24EC5D205CEAEBE24000000004490000000004490000000000000000000000000000000000000N1305000000063                 75D1627E42FD2F2C1E02A75040604DE5
000308936400009008772767    IVO HENRIQUE THIELE                RS3400118537      2013052921001000000057616140974004701D999C74FB5471F09F000000004490000000004490000000000000000000000000000000000000N1305000000064                 EA580858183556D15326528DC94A29A7
000308936400009008772767    IVO HENRIQUE THIELE                RS3400118538      2013052921001000000058F3C39FA18145FF04143531A50C2B3B8E000000004490000000004490000000000000000000000000000000000000N1305000000065                 2F169A2B4F6FD3426D322EB04B006638
000308936400009008772767    IVO HENRIQUE THIELE                RS3400118539      2013052921001000000059DB55E157C717A67684BFC73FC30B0C19000000004490000000004490000000000000000000000000000000000000N1305000000066                 FF97886416CEBD42B318E8BC8362FE25
000308936400009008772767    IVO HENRIQUE THIELE                RS3400118540      20130529210010000000605FB011E9B55156DE5A712940554BECB6000000004490000000004490000000000000000000000000000000000000N1305000000067                 4DC4F2E9E1FE174A0510366AE9F69A1A
000308936400009008772767    IVO HENRIQUE THIELE                RS3400118541      201305292100100000006194C96700A09A3A0656A7A89E33EE80C0000000004490000000004490000000000000000000000000000000000000N1305000000068                 442C2662CEA2E964C795D0C241675A20
000308936400009008772767    IVO HENRIQUE THIELE                RS3400118542      2013052921001000000062D2133AFB13427E2552A3BCCAD6C773DF000000004490000000004490000000000000000000000000000000000000N1305000000069                 0CD791530060419E7D2320BBABE4C2D0
000308936400009008772767    IVO HENRIQUE THIELE                RS3400118543      2013052921001000000063DB305E9BCA6ED6ADBE0CCC9BF19193C7000000004490000000004490000000000000000000000000000000000000N1305000000070                 03BC8E504897F6D6BF0855C0AF72A938
000308936400009008772767    IVO HENRIQUE THIELE                RS3400118544      20130529210010000000646F567C0D3D8A5ED0549ACD55DB13B4F3000000004490000000004490000000000000000000000000000000000000N1305000000071                 FABB0DBBAD3CF8764D504D09B4EF934B
000009427630768065371455    CHARLES THIELE                     RS3400118521      20130529210010000000650C00D4CC4253336732D83BE97324576B000000003058000000003058000000000000000000000000000000000000N1305000000072                 F0734C06A740CECA8C9F3BB3ED5F9A9E
000009427630768065371455    CHARLES THIELE                     RS3400118522      2013052921001000000066B8B82B079C5F9DDACBFF787510D00D8A000000004990000000004990000000000000000000000000000000000000N1305000000073                 F19B0137A1E7B35C0CBB51C480F35408
000009427630768065371455    CHARLES THIELE                     RS3400118523      2013052921001000000067B8DE5B61A052E7E1D4C59D82F6B41A4D000000004990000000004990000000000000000000000000000000000000N1305000000074                 AAEFCA7461F5A4397389CD442B57A749
000009427630768065371455    CHARLES THIELE                     RS3400118524      2013052921001000000068290F7E7864057639A24FD23CDE397CC0000000004990000000004990000000000000000000000000000000000000N1305000000075                 C40EAB49CE8D5B66734E0BC229E01D66
000009427630768065371455    CHARLES THIELE                     RS3400118525      20130529210010000000694EC0EE5AFF874F165C0A253D5A3256AE000000004990000000004990000000000000000000000000000000000000N1305000000076                 4868949E612D5E323F1EEC32352D0600
000009427630768065371455    CHARLES THIELE                     RS3400118526      201305292100100000007016103176AD2BFE2333CEF3D783C30E26000000004990000000004990000000000000000000000000000000000000N1305000000077                 522773AA2752224331DFA5270345C661
000009427630768065371455    CHARLES THIELE                     RS3400118527      2013052921001000000071E87263642B08626F356D8168C08D2FF4000000004990000000004990000000000000000000000000000000000000N1305000000078                 146BB66E9E10EBDDC782E512B410AC31
000009427630768065371455    CHARLES THIELE                     RS3400118528      20130529210010000000725894EC166EEFD06DC6EDFADB1E603941000000004990000000004990000000000000000000000000000000000000N1305000000079                 5A4E258F1EA781A1ABB673BB6D822F7F
000009427630768065371455    CHARLES THIELE                     RS3400118529      2013052921001000000073E2F8CFF3B7C50562E85F6D7653B5D465000000004990000000004990000000000000000000000000000000000000N1305000000080                 F9D66E9B83C9DE15E09D295A62DE60FD
000009427630768065371455    CHARLES THIELE                     RS3400118530      20130529210010000000743A96B48F5008810590A4947ABEA0B04C000000004990000000004990000000000000000000000000000000000000N1305000000081                 983AA0260FCB110882F26C938E7F2C78
000009427630768065371455    CHARLES THIELE                     RS3400118531      20130529210010000000751CF9729506639AF13219A57642CD72A8000000004990000000004990000000000000000000000000000000000000N1305000000082                 4B8E35CC7970B315DDE9CA90B8143606
000009427630768065371455    CHARLES THIELE                     RS3400118532      2013052921001000000076575E2729D9FE01945031E7E6F73B0C68000000004990000000004990000000000000000000000000000000000000N1305000000083                 B70337D897F0C2C07DD976D733BBE172
000951869300594070680337    DIEGO SILVEIRA SILVA               RS3400118557      20130529210010000000772258AAEF33ECE7C0AC07DB2A606C2068000000000338000000000338000000000000000000000000000000000000N1305000000084                 51D86624EF5257B4A529E0FBC3E7A535
000951869300594070680337    DIEGO SILVEIRA SILVA               RS3400118558      20130529210010000000788A7AAE5F5834057AE42CCEEC8DBE1BFF000000003258000000003258000000000000000000000000000000000000N1305000000085                 E127F3842EB933B9D00F8271CBDFA12A
000309681270533010137713    NELSON BOESING                     RS3400118545      201305292100100000007932CD80F5D469E85C0EABEC3E59819C01000000000520000000000520000000000000000000000000000000000000N1305000000086                 FFDAA7209789BDA7B20A2107420F4F60
000309681270533010137713    NELSON BOESING                     RS3400118546      2013052921001000000080923BF271FC4059285F9241B4A7EB3385000000003490000000003490000000000000000000000000000000000000N1305000000089                 DD2E995B6E559B4A33ED890BB878CAA2
000309681270533010137713    NELSON BOESING                     RS3400118547      2013052921001000000081E26993472884B09C75F41A2C0261A5F3000000003490000000003490000000000000000000000000000000000000N1305000000090                 87BB7034686A55EB258ECDC5D818DA7A
000309681270533010137713    NELSON BOESING                     RS3400118548      2013052921001000000082270F3787F89C6954C44C0B8C53D9E031000000003490000000003490000000000000000000000000000000000000N1305000000091                 9B4A8FC0BE364D63A8E9B9AE3F120919
000309681270533010137713    NELSON BOESING                     RS3400118549      20130529210010000000830152263C2253B2254D32ABD06A899657000000003490000000003490000000000000000000000000000000000000N1305000000092                 0A16BCEF9639C4704FACDC46893D623C
000309681270533010137713    NELSON BOESING                     RS3400118550      20130529210010000000842A4E1F99249AA3FCDE4696F2D1326959000000003490000000003490000000000000000000000000000000000000N1305000000093                 46ED01249E78EA2E64398BAB8FA4E844
000309681270533010137713    NELSON BOESING                     RS3400118551      2013052921001000000085B52212960B0A66FBFCEEB5C7C64AB3C1000000003490000000003490000000000000000000000000000000000000N1305000000094                 806B331A755E306FD840E50B568B895C
000309681270533010137713    NELSON BOESING                     RS3400118552      20130529210010000000863742062E57E5863D0C2D70227D2B5E9C000000003490000000003490000000000000000000000000000000000000N1305000000095                 10D8654F1A15A04175364E87A4E3D6D1
000309681270533010137713    NELSON BOESING                     RS3400118553      2013052921001000000087C12B44A969BBB44E2A0F05F7DBD69187000000003490000000003490000000000000000000000000000000000000N1305000000096                 E1F590B44A9401FF3D9AD3F2F0FDF6EC
000309681270533010137713    NELSON BOESING                     RS3400118554      2013052921001000000088458F0CB65F9E9D99077A79287F9BAA0C000000003490000000003490000000000000000000000000000000000000N1305000000097                 A1F8C909F2266E1244E2A972CB91F47C
000309681270533010137713    NELSON BOESING                     RS3400118555      20130529210010000000891680A9AA7BA30EB6FC046002B5D8F062000000003490000000003490000000000000000000000000000000000000N1305000000098                 472C084021569F0651AB7360843A4011
000309681270533010137713    NELSON BOESING                     RS3400118556      2013052921001000000090D77A5726A523AAA9B7FD303570C43DC3000000003490000000003490000000000000000000000000000000000000N1305000000099                 1E330CA4853D1DECD828E9196CE8E497
