000900643130344057341424    VANIA TEN KATEN ROCKEMBACH         RUA DOM HERMETO PINHEIRO                     00526               98960000CENTRO         SANTO CRISTO                  RS005596135550118075                         BD44666795E71EDA466B666F4BBBC5E0
00090726537004ISENTO        ALTAIR JOSÈ LENZ                   RUA MARECHAL DEODORO                         02280AP 01          98960000CENTRO         SANTO CRISTO                  RS005599320984118056                         C78933C3EC9F21E22AA37E970DCBFAF8
00088540510049ISENTO        MARISA SOLANGE KLERING             RUA OLAVO BILAC                              00232               98960000RUEDELL        SANTO CRISTO                  RS005596315585118069                         DE868E94AB1684CD0462E233FF61D137
000020176210211100957487    DANIEL AFONSO LUNKES               RUA 1∫ DE MAIO                               00400               97920000CENTRO         S„O PEDRO DO BUTI·            RS005596584339114208                         6ACF533726A86D77B81536775D171DE8
07708243000128ISENTO        RICARDO LUIS MATTIAZZI             VILA CATARINA                                00001               97940000INTERIOR       SALVADOR DAS MISSıES          RS000000000000114232                         FE6686D8D2AD7EC44F8BEC164A0B93A0
00090884221091706485880     JOSÈ ARAMI RODRIGUES               RUA PADRE JOSÈ INACIO SCHARDONG              01215               97900000CIEP           CERRO LARGO                   RS000000000000118037                         83956D2E468C3B4601562AF7AD616F40
01945082000100ISENTO        ABATEDOURO GALLAS                  RUA DOM PEDRO II                             01627               98960000CENTRO         SANTO CRISTO                  RS000000000000118061                         E2C450E1F9312971EF4B46C9AC0A9569
000441620220207033151338    ADELAR SCHAB                       LINHA TAQUARAÁU                              00001               98960000INTERIOR       SANTO CRISTO                  RS005591636179118334                         88D386228B4EC97870F99324D5BE50BE
000900643130344057341424    VANIA TEN KATEN ROCKEMBACH         RUA DOM HERMETO PINHEIRO                     00526               98960000CENTRO         SANTO CRISTO                  RS005596135550114223                         130377C5FF3AAF9195F0BAA332F9FD7C
00002197484117774158        EU, EU MESMO & IRENE               AVENIDA GOI·S                                02355               77410010SETOR CENTRAL  GURUPI                        TO006333505050118335                         BA6759BA5E0DF6DFFE738872B637D84B
00002197484117774158        EU, EU MESMO & IRENE               AVENIDA GOI·S                                02355               77410010SETOR CENTRAL  GURUPI                        TO006333505050118336                         D16037E7C8EA00A9182860BF655DBCE3
00002197484117774158        EU, EU MESMO & IRENE               AVENIDA GOI·S                                02355               77410010SETOR CENTRAL  GURUPI                        TO006333505050118337                         529982D757BF1EF4FB675AC0395EEAC7
00017494400087ISENTO        LUCILA RUWER FRˆHLICH              RUA SENO MARCOS STRACKER                     00001               97940000VILA SANTA CATASALVADOR DAS MISSıES          RS005533582031118073                         241D0BE3EE90C2DE0E792F5D2AA14C07
00040309757800ISENTO        ANDRE TAYLAN DA SILVA SANTOS       AVENIDA GOI·S                                00001               77410010SETOR CENTRAL  GURUPI                        TO006333115050118339                         8780C5DD576E650C96499383A4071738
000314562510152018783891    SALETE MARIA ARENHART              RUA TENETE JUNG                              00911               98960000CENTRO         SANTO CRISTO                  RS005535411538118340                         AA9E22BC009677B50F690DBE4E3EC67D
00001234567890ISENTO        NATANAEL                           RUA 39                                       00001               77415190PARQUE RESIDENCGURUPI                        TO006333115050118345                         817A61F48A796573E8E7314C1D56B8FC
00001234567890ISENTO        NATANAEL                           RUA 39                                       00001               77415190PARQUE RESIDENCGURUPI                        TO006333115050118346                         4DF9C0CF3FC2C3884B07D5066E052EE2
00001234567890ISENTO        NATANAEL                           RUA 39                                       00001               77415190PARQUE RESIDENCGURUPI                        TO006333115050118347                         5CF84479B87379E3733C710120D7E632
00001234567890ISENTO        NATANAEL                           RUA 39                                       00001               77415190PARQUE RESIDENCGURUPI                        TO006333115050118348                         1FAF4B0C062BF861BA8EE022F8CC5E05
00001234567890ISENTO        NATANAEL                           RUA 39                                       00001               77415190PARQUE RESIDENCGURUPI                        TO006333115050118349                         D96826EDC94633A857466EBBDFC5D413
00001234567890ISENTO        NATANAEL                           RUA 39                                       00001               77415190PARQUE RESIDENCGURUPI                        TO006333115050118350                         648EAA2A57FED60D1C5557650DE33372
00001234567890ISENTO        NATANAEL                           RUA 39                                       00001               77415190PARQUE RESIDENCGURUPI                        TO006333115050118351                         734838829E5AC36451AE22B209E928EC
00001234567890ISENTO        NATANAEL                           RUA 39                                       00001               77415190PARQUE RESIDENCGURUPI                        TO006333115050118352                         EEDAD0F1FF8734067BB91C3DB1D79A1F
00001234567890ISENTO        NATANAEL                           RUA 39                                       00001               77415190PARQUE RESIDENCGURUPI                        TO006333115050118353                         495CD531216FF81638A07D4CC63BE8F6
00001234567890ISENTO        NATANAEL                           RUA 39                                       00001               77415190PARQUE RESIDENCGURUPI                        TO006333115050118354                         0D67DD7B3EF8C6C86DE0FE85CB9CE8BD
00001234567890ISENTO        NATANAEL                           RUA 39                                       00001               77415190PARQUE RESIDENCGURUPI                        TO006333115050118355                         8213C23096CE9F346E2B367A947CD76F
00001234567890ISENTO        NATANAEL                           RUA 39                                       00001               77415190PARQUE RESIDENCGURUPI                        TO006333115050118356                         0959F82F8AC1CA18AAE31F4E8528E8D2
00001234567890ISENTO        NATANAEL                           RUA 39                                       00001               77415190PARQUE RESIDENCGURUPI                        TO006333115050118357                         2926F43DC187F58EC8C7B05411DB75D1
000602889060042025637162    MARLENE HAMMERSCHMITT THIELE       RUA MARECHAL DEODORO                         02170               98960000CENTRO         SANTO CRISTO                  RS005535411161118489                         E96E7136A4C1A9F14A12EC661D74BD56
000602889060042025637162    MARLENE HAMMERSCHMITT THIELE       RUA MARECHAL DEODORO                         02170               98960000CENTRO         SANTO CRISTO                  RS005535411161118490                         0EF06F6DFAAFBB2D0D2218FE095E8324
000602889060042025637162    MARLENE HAMMERSCHMITT THIELE       RUA MARECHAL DEODORO                         02170               98960000CENTRO         SANTO CRISTO                  RS005535411161118491                         06E27B0332473F47E80B92E6FCADC3D3
000602889060042025637162    MARLENE HAMMERSCHMITT THIELE       RUA MARECHAL DEODORO                         02170               98960000CENTRO         SANTO CRISTO                  RS005535411161118492                         56984891AA0CA26222DB84D971AFFB57
000602889060042025637162    MARLENE HAMMERSCHMITT THIELE       RUA MARECHAL DEODORO                         02170               98960000CENTRO         SANTO CRISTO                  RS005535411161118493                         4242F46EC59F928059EB0D1C93AF8F96
000602889060042025637162    MARLENE HAMMERSCHMITT THIELE       RUA MARECHAL DEODORO                         02170               98960000CENTRO         SANTO CRISTO                  RS005535411161118494                         1F40E923CB372EEB76D3F3505CEEC618
000602889060042025637162    MARLENE HAMMERSCHMITT THIELE       RUA MARECHAL DEODORO                         02170               98960000CENTRO         SANTO CRISTO                  RS005535411161118495                         0BA03FC5BC63F834499FE9DD25272D4A
000602889060042025637162    MARLENE HAMMERSCHMITT THIELE       RUA MARECHAL DEODORO                         02170               98960000CENTRO         SANTO CRISTO                  RS005535411161118496                         C95DA6066AC6CDC9D3CB86CB87C4B79F
000602889060042025637162    MARLENE HAMMERSCHMITT THIELE       RUA MARECHAL DEODORO                         02170               98960000CENTRO         SANTO CRISTO                  RS005535411161118497                         2A130B2090EFC4884C45EEE9B6C14BCE
000602889060042025637162    MARLENE HAMMERSCHMITT THIELE       RUA MARECHAL DEODORO                         02170               98960000CENTRO         SANTO CRISTO                  RS005535411161118498                         65EA234F69B19CD1A10A93D13D9F4DED
000602889060042025637162    MARLENE HAMMERSCHMITT THIELE       RUA MARECHAL DEODORO                         02170               98960000CENTRO         SANTO CRISTO                  RS005535411161118499                         EEFCED8749268920C026D20B058225A7
000602889060042025637162    MARLENE HAMMERSCHMITT THIELE       RUA MARECHAL DEODORO                         02170               98960000CENTRO         SANTO CRISTO                  RS005535411161118500                         7B64E4C625F5DC1029B040B49F42AE6E
000009427630768065371455    CHARLES THIELE                     RUA BENJAMIN CONSTANT                        02369SDFSDFDSFSDFD  98960000CENRO          SANTO CRISTO                  RS005535410717118509                         3DC2E27BBD74CC1089884B3476840CC5
000009427630768065371455    CHARLES THIELE                     RUA BENJAMIN CONSTANT                        02369SDFSDFDSFSDFD  98960000CENRO          SANTO CRISTO                  RS005535410717118510                         E9165EE9873B5074FC1B26A1891CB44E
000009427630768065371455    CHARLES THIELE                     RUA BENJAMIN CONSTANT                        02369SDFSDFDSFSDFD  98960000CENRO          SANTO CRISTO                  RS005535410717118511                         78A9FFCD0C10F161C9100C85F9853698
000009427630768065371455    CHARLES THIELE                     RUA BENJAMIN CONSTANT                        02369SDFSDFDSFSDFD  98960000CENRO          SANTO CRISTO                  RS005535410717118512                         0D098D9D64FB7470F0FE532ECF183A83
000009427630768065371455    CHARLES THIELE                     RUA BENJAMIN CONSTANT                        02369SDFSDFDSFSDFD  98960000CENRO          SANTO CRISTO                  RS005535410717118513                         0A66674732A855099A836B8E960D7A54
000009427630768065371455    CHARLES THIELE                     RUA BENJAMIN CONSTANT                        02369SDFSDFDSFSDFD  98960000CENRO          SANTO CRISTO                  RS005535410717118514                         E58304C20DFCB34716E5B79A2282412C
000009427630768065371455    CHARLES THIELE                     RUA BENJAMIN CONSTANT                        02369SDFSDFDSFSDFD  98960000CENRO          SANTO CRISTO                  RS005535410717118515                         52283AFCA8E23476D59E15CEE620ABFE
000009427630768065371455    CHARLES THIELE                     RUA BENJAMIN CONSTANT                        02369SDFSDFDSFSDFD  98960000CENRO          SANTO CRISTO                  RS005535410717118516                         AF694C6E1773E79303E1F76B938D95FC
000009427630768065371455    CHARLES THIELE                     RUA BENJAMIN CONSTANT                        02369SDFSDFDSFSDFD  98960000CENRO          SANTO CRISTO                  RS005535410717118517                         F196989A68D4AD058883BA7B922F1BC1
000009427630768065371455    CHARLES THIELE                     RUA BENJAMIN CONSTANT                        02369SDFSDFDSFSDFD  98960000CENRO          SANTO CRISTO                  RS005535410717118518                         CF4455BAB767DFD34934E4AFF4D6549F
000009427630768065371455    CHARLES THIELE                     RUA BENJAMIN CONSTANT                        02369SDFSDFDSFSDFD  98960000CENRO          SANTO CRISTO                  RS005535410717118519                         66894A6ADAEB081D8B7D25A744C53A91
000009427630768065371455    CHARLES THIELE                     RUA BENJAMIN CONSTANT                        02369SDFSDFDSFSDFD  98960000CENRO          SANTO CRISTO                  RS005535410717118520                         4EE55FA36743017584A6FB202B49353E
000308936400009008772767    IVO HENRIQUE THIELE                RUA MARECHAL DEODORO                         02170               98960000CENTRO         SANTO CRISTO                  RS005535411161118533                         E294C3E53B6828B3EE06D9B833B696D3
000308936400009008772767    IVO HENRIQUE THIELE                RUA MARECHAL DEODORO                         02170               98960000CENTRO         SANTO CRISTO                  RS005535411161118534                         7925A767DA1664886AF5A58AB15E7154
000308936400009008772767    IVO HENRIQUE THIELE                RUA MARECHAL DEODORO                         02170               98960000CENTRO         SANTO CRISTO                  RS005535411161118535                         D50BC48FEDD8FAE87D1B22FD6EA496A6
000308936400009008772767    IVO HENRIQUE THIELE                RUA MARECHAL DEODORO                         02170               98960000CENTRO         SANTO CRISTO                  RS005535411161118536                         FD1370ED4E0FC4810ED55290B6DE2D8D
000308936400009008772767    IVO HENRIQUE THIELE                RUA MARECHAL DEODORO                         02170               98960000CENTRO         SANTO CRISTO                  RS005535411161118537                         34171A7CEBEFD6091A0883B9FB0BF93F
000308936400009008772767    IVO HENRIQUE THIELE                RUA MARECHAL DEODORO                         02170               98960000CENTRO         SANTO CRISTO                  RS005535411161118538                         249B5D3E12A35AACE530C686975B743B
000308936400009008772767    IVO HENRIQUE THIELE                RUA MARECHAL DEODORO                         02170               98960000CENTRO         SANTO CRISTO                  RS005535411161118539                         2F395ECC709884AFE3553D048AFB6ED7
000308936400009008772767    IVO HENRIQUE THIELE                RUA MARECHAL DEODORO                         02170               98960000CENTRO         SANTO CRISTO                  RS005535411161118540                         3DC9A9D27C21B78DABAD0216DD6DC276
000308936400009008772767    IVO HENRIQUE THIELE                RUA MARECHAL DEODORO                         02170               98960000CENTRO         SANTO CRISTO                  RS005535411161118541                         B822005238177C218EF8DFE2AF87E426
000308936400009008772767    IVO HENRIQUE THIELE                RUA MARECHAL DEODORO                         02170               98960000CENTRO         SANTO CRISTO                  RS005535411161118542                         4347583532C0D6A85DC8A032E7E9B235
000308936400009008772767    IVO HENRIQUE THIELE                RUA MARECHAL DEODORO                         02170               98960000CENTRO         SANTO CRISTO                  RS005535411161118543                         B753F8C2C1D1755F0FC235F50CD037D8
000308936400009008772767    IVO HENRIQUE THIELE                RUA MARECHAL DEODORO                         02170               98960000CENTRO         SANTO CRISTO                  RS005535411161118544                         A0596426389DBD5D305CA9334A96A2DF
000009427630768065371455    CHARLES THIELE                     RUA BENJAMIN CONSTANT                        02369SDFSDFDSFSDFD  98960000CENRO          SANTO CRISTO                  RS005535410717118521                         EA1D985796A60405A3125768F2683C51
000009427630768065371455    CHARLES THIELE                     RUA BENJAMIN CONSTANT                        02369SDFSDFDSFSDFD  98960000CENRO          SANTO CRISTO                  RS005535410717118522                         FAD29273D96B2B8473F61AF0BD370A56
000009427630768065371455    CHARLES THIELE                     RUA BENJAMIN CONSTANT                        02369SDFSDFDSFSDFD  98960000CENRO          SANTO CRISTO                  RS005535410717118523                         931E1B17CD8D75A8A2DE5FA51638B132
000009427630768065371455    CHARLES THIELE                     RUA BENJAMIN CONSTANT                        02369SDFSDFDSFSDFD  98960000CENRO          SANTO CRISTO                  RS005535410717118524                         F6686AF7165123B6126F340D5001E0D5
000009427630768065371455    CHARLES THIELE                     RUA BENJAMIN CONSTANT                        02369SDFSDFDSFSDFD  98960000CENRO          SANTO CRISTO                  RS005535410717118525                         EE459424CE35E2C498D1FAE9D82D1CC0
000009427630768065371455    CHARLES THIELE                     RUA BENJAMIN CONSTANT                        02369SDFSDFDSFSDFD  98960000CENRO          SANTO CRISTO                  RS005535410717118526                         A7DD0241A9A9B2D1BC914F60C0A243A5
000009427630768065371455    CHARLES THIELE                     RUA BENJAMIN CONSTANT                        02369SDFSDFDSFSDFD  98960000CENRO          SANTO CRISTO                  RS005535410717118527                         D4F8A7CDD868FFF85C242A676FA0B4B4
000009427630768065371455    CHARLES THIELE                     RUA BENJAMIN CONSTANT                        02369SDFSDFDSFSDFD  98960000CENRO          SANTO CRISTO                  RS005535410717118528                         7B0AD087D4810F1B8D687016D8B91691
000009427630768065371455    CHARLES THIELE                     RUA BENJAMIN CONSTANT                        02369SDFSDFDSFSDFD  98960000CENRO          SANTO CRISTO                  RS005535410717118529                         049E495BA0C81E20618FAA3E242B722B
000009427630768065371455    CHARLES THIELE                     RUA BENJAMIN CONSTANT                        02369SDFSDFDSFSDFD  98960000CENRO          SANTO CRISTO                  RS005535410717118530                         C4E1339389FDD97CA6BD5404E92CA01E
000009427630768065371455    CHARLES THIELE                     RUA BENJAMIN CONSTANT                        02369SDFSDFDSFSDFD  98960000CENRO          SANTO CRISTO                  RS005535410717118531                         9D21E80E4DC58FBFD74EB5894538CAFA
000009427630768065371455    CHARLES THIELE                     RUA BENJAMIN CONSTANT                        02369SDFSDFDSFSDFD  98960000CENRO          SANTO CRISTO                  RS005535410717118532                         E12619BCB7C3299919F1CBEE6D8F12C4
000951869300594070680337    DIEGO SILVEIRA SILVA               RUA CLOVIS PEDROSO                           00128               98900000VILA SANTOS    SANTA ROSA                    RS005535125232118557                         DF3B1ED1EB5437872F87B3D0FB081FAB
000951869300594070680337    DIEGO SILVEIRA SILVA               RUA CLOVIS PEDROSO                           00128               98900000VILA SANTOS    SANTA ROSA                    RS005535125232118558                         C624B73515889D6E403CBB1F7453AF02
000309681270533010137713    NELSON BOESING                     RUA CASTELO BRANCO                           00989               97920000CENTRO         S„O PEDRO DO BUTI·            RS005533691153118545                         6030ADB3792F6DF2F6CF5A14B600C7A0
000309681270533010137713    NELSON BOESING                     RUA CASTELO BRANCO                           00989               97920000CENTRO         S„O PEDRO DO BUTI·            RS005533691153118546                         78EB101C8AB1BC54503123E2385D94EF
000309681270533010137713    NELSON BOESING                     RUA CASTELO BRANCO                           00989               97920000CENTRO         S„O PEDRO DO BUTI·            RS005533691153118547                         716F619E4C35D7C2FAA667BA3AA42D29
000309681270533010137713    NELSON BOESING                     RUA CASTELO BRANCO                           00989               97920000CENTRO         S„O PEDRO DO BUTI·            RS005533691153118548                         B45DB351287A5CFEA70D54E95698F5E3
000309681270533010137713    NELSON BOESING                     RUA CASTELO BRANCO                           00989               97920000CENTRO         S„O PEDRO DO BUTI·            RS005533691153118549                         8C573EAE030662E27F831FC082EA10D5
000309681270533010137713    NELSON BOESING                     RUA CASTELO BRANCO                           00989               97920000CENTRO         S„O PEDRO DO BUTI·            RS005533691153118550                         93DBAD6BE30AEE511FE520E2EC3C449C
000309681270533010137713    NELSON BOESING                     RUA CASTELO BRANCO                           00989               97920000CENTRO         S„O PEDRO DO BUTI·            RS005533691153118551                         B3BE2F3D9303B15571E4DF9E31A4E3B0
000309681270533010137713    NELSON BOESING                     RUA CASTELO BRANCO                           00989               97920000CENTRO         S„O PEDRO DO BUTI·            RS005533691153118552                         D8FC2C6BAE8F1DEB13138869862102C1
000309681270533010137713    NELSON BOESING                     RUA CASTELO BRANCO                           00989               97920000CENTRO         S„O PEDRO DO BUTI·            RS005533691153118553                         F720230152D07ECD2E08709013984DB0
000309681270533010137713    NELSON BOESING                     RUA CASTELO BRANCO                           00989               97920000CENTRO         S„O PEDRO DO BUTI·            RS005533691153118554                         2DB1983A9BEECE55D23FBC5E3C794851
000309681270533010137713    NELSON BOESING                     RUA CASTELO BRANCO                           00989               97920000CENTRO         S„O PEDRO DO BUTI·            RS005533691153118555                         D8C0F83F6E039DB3F4C4F3121E233839
000309681270533010137713    NELSON BOESING                     RUA CASTELO BRANCO                           00989               97920000CENTRO         S„O PEDRO DO BUTI·            RS005533691153118556                         CEBF6EB785C85A579BE237E319C9C6E8
