01REMESSA01COBRANCA       07560000000000                                    756BANCOOBCED     0000000000001                                                                                                                                                                                                                                                                                               000001
