01REMESSA01COBRANCA       07560000200328      PROSERVER TELECOMUNICACOES LTD756BANCOOBCED     2410120000001                                                                                                                                                                                                                                                                                               000001
