000923533200151051171261    MARIA ESTELA SCHROPFER DE AVILA    RS3400101483      201302072100100000000131E7097A1309FEBE4BDE05A12B5D3CCA000000006990000000006990000000000000000000000000000000000000N1302000000001                 77160749FBF51B443BF30AFCCC455580
00002197484117111111        EU, EU MESMO & IRENE               TO3400101492      20130207210010000000021142156EBB93123C913D2676A12EE6AB000000009000000000009000000000000000000000000000000000000000N1302000000002                 A17D24EAC336ADFA3E12FDA09A98A6D7
000020646900421075990752    JONESSA FATIMA SANAGIOTO           RS3400101276      2013020721001000000003AE95C753CAE1440E68BD9E68D68DD63F000000007670000000007670000000000000000000000000000000000000N1302000000003                 20DFEE83D1B2F00A928651F4F62AEACB
000726993450914058440886    ROSANE FEIT STRIEDER               RS3400101436      201302072100100000000491E3470BB09F12E279CC760B9437D1AC000000001492000000001492000000000000000000000000000000000000N1302000000005                 D8F1012A0F37732488DB99D55E6BB2F6
000946387990001069442687    ISMAEL BREMM                       RS3400101464      20130207210010000000059DCA6E1F6F7A12DAD8A42645D17979F0000000018000000000018000000000000000000000000000000000000000N1302000000007                 EC4C1937046E307B33A378D3BE43511A
000246334100917010027733    ADEMIR NOGARA                      RS3400101452      201302072100100000000648EDEE2BE7B789D20553F9745BB90CB9000002549474000002549474000000000000000000000000000000000000N1302000000009                 5F4442688B368916F4B4C5320F32C5B7
000441620220207033151338    ADELAR SCHAB                       RS3400101323      2013020721001000000007919444683DA0F3D3E6D8948871A4A329000000009000000000009000000000000000000000000000000000000000N1302000000011                 4A96F279D759C945C7B315AC24FE9C13
00002566074003ISENTO        ALFREDO ALBERTO KALL               RS340097855       2013020721001000000008B9E57E3521A7646A5DBBD1A9DE68980F000000009900000000008900000000000000000000000000000000000000N1302000000012                 888B0A6933AFC2F257877D6118C9D2B0
000559029520342053296411    LAURI MINETTO                      RS340097763       20130207210010000000091987D374D5863E58EE319A1BE2D229DE000000009900000000008900000000000000000000000000000000000000N1302000000014                 422845FC0B77D7F6F9BDE9C097FB90E4
000025032320601091793842    MARLISE INES GRAFF                 RS3400101491      201302072100100000001001CCCCA93DFC56FFA73F92708048E085000000060000000000060000000000000000000000000000000000000000N1302000000016                 54F870DFB8B515CF135968ECF2A7376C
00002639287133945270        NATANAEL DE ASSIS SILVA            TO3400101345      2013020721001000000011BC59012A617711FEA5D18F80141AA48E000000554677000000554677000000000000000000000000000000000000N1302000000028                 7A8D008790EA42C485A0E3E46521B9E1
00002639287133945270        NATANAEL DE ASSIS SILVA            TO3400101360      20130207210010000000121B6EB32A88CCE3E42B2345465BB97F0C000000047984000000047984000000000000000000000000000000000000N1302000000040                 FD9A3A99E7BD2B04D4CD6D7C18A1B9F5
00002197484117111111        EU, EU MESMO & IRENE               GO3400101495      20130207210010000000139B440B4A9A689288AA1E6AA0F60F1A04000000000704000000000704000000000000000000000000000000000000N1302000000041                 B18D1E360B3D33EF1F74530560B03FD8
