00090080289053105557968     FABIO SULZBACHER                   AV. S„O MIGUEL                               01383               97950000CENTRO         GUARANI DAS MISSıES           RS005596071272101309                         940785CE57763F7BB656E290FA3F01D9
00002197484117111111        EU, EU MESMO & IRENE               AVENIDA GOI·S                                00001               77410010SETOR CENTRAL  ALMAS                         TO00633311505097603                          4FD70DDA1B0B8A324E2DF7C23774F236
000647599890722039*650185   JACI MONBACH                       RUA JO„O MAGALHAES                           00336               98970000CENTRO         C‚NDIDO GODÛI                 RS005596133438101120                         A7A2F4C920602BD268F76C01F7FE8BCF
00002197484117111111        EU, EU MESMO & IRENE               AVENIDA GOI·S                                00001               77410010SETOR CENTRAL  ALMAS                         TO00633311505097546                          06278448AAAEAECE3DEDB111B68D4B5D
00002566074003ISENTO        ALFREDO ALBERTO KALL               RUA SANTA CRUZ                               00333               98950000CENTRO         ALECRIM                       RS00559957963097854                          4F50761B4CB4C9D6A52639F19140BF5E
000559029520342053296411    LAURI MINETTO                      RUA DOS IMIGRANTES                           00541               98850000CENTRO         VITÛRIA DAS MISSıES           RS00559994408797762                          EEBE2EBDD7CC57F10CA8B6A63B9BFA2F
00002197484117111111        EU, EU MESMO & IRENE               AVENIDA GOI·S                                00001               77410010SETOR CENTRAL  ALMAS                         TO006333115050101337                         BA48085B18C7A51807341BDE95A8AD4A
000023947000178108052617    JUCILEA SIDEMCIO                   RUA SALGADO FILHO QUADRA Y                   00018               98700000GERTULIO VARGASIJUÌ                          RS000000000000101455                         64D5F373B79F41872BA306A4B6E6BB98
