06031727000112ISENTO        CRESOL                             RUA ELIGIO CAVAD„O                           00613CINQUENTENARIO 98940000INTERIOR       TUPARENDI                     RS00000000000078484                          6C25973DDC121EF39C37E4CBB1FE95B2
06031727000112ISENTO        CRESOL                             RUA ELIGIO CAVAD„O                           00613CINQUENTENARIO 98940000INTERIOR       TUPARENDI                     RS00000000000078484                          6C25973DDC121EF39C37E4CBB1FE95B2
89095368000194ISENTO        COM. COMB. BERRES & KLERING LTDA   RUA DOM PEDRO II                             01897               98960000CENTRO         SANTO CRISTO                  RS00553541104978526                          A150491E29DA90FD4AB31FF2B4562AF0
89095368000194ISENTO        COM. COMB. BERRES & KLERING LTDA   RUA DOM PEDRO II                             01897               98960000CENTRO         SANTO CRISTO                  RS00553541104978526                          A150491E29DA90FD4AB31FF2B4562AF0
09631791000122ISENTO        JOSÈ EMILIO HEINEN E CIA LTDA      AV. DOM PEDRO II                             01825               98960000CENTRO         SANTO CRISTO                  RS00553541178678614                          3BE01D50CC475733EA25A9ECFF94BE16
09631791000122ISENTO        JOSÈ EMILIO HEINEN E CIA LTDA      AV. DOM PEDRO II                             01825               98960000CENTRO         SANTO CRISTO                  RS00553541178678614                          3BE01D50CC475733EA25A9ECFF94BE16
91212035000140ISENTO        MARIGEL COM. VAR. DE PROD. COSMETICRUA DOM PDRO II                              01886               98960000CENTRO         SANTO CRISTO                  RS00000000000078757                          3DD8002FBDEE21298E1E27556743E985
91212035000140ISENTO        MARIGEL COM. VAR. DE PROD. COSMETICRUA DOM PDRO II                              01886               98960000CENTRO         SANTO CRISTO                  RS00000000000078757                          3DD8002FBDEE21298E1E27556743E985
96416151000102116/0000740   SERRA FITA SEIBERT INDUSTRIA E COMERUA MARECHAL DEODORO                         01858               98960000CENTRO         SANTO CRISTO                  RS00553541120078767                          E4E692267111D6F89C19A0C6C0D93130
96416151000102116/0000740   SERRA FITA SEIBERT INDUSTRIA E COMERUA MARECHAL DEODORO                         01858               98960000CENTRO         SANTO CRISTO                  RS00553541120078767                          E4E692267111D6F89C19A0C6C0D93130
00025749986004ISENTO        DONATO HEINEN                      RUA MINAS GERAIS                             02462               98960000CENTRO         SANTO CRISTO                  RS00553541115378548                          D4763F75966DA823DC4854A4F064760E
00025749986004ISENTO        DONATO HEINEN                      RUA MINAS GERAIS                             02462               98960000CENTRO         SANTO CRISTO                  RS00553541115378548                          D4763F75966DA823DC4854A4F064760E
00096070447034ISENTO        MARCIO GERHARDT                    RUA MARECHAL FLOREANO                        01061               98960000CENTRO         SANTO CRISTO                  RS00553541130578756                          274090B303E827E52EC897F1A5E97B8E
00096070447034ISENTO        MARCIO GERHARDT                    RUA MARECHAL FLOREANO                        01061               98960000CENTRO         SANTO CRISTO                  RS00553541130578756                          274090B303E827E52EC897F1A5E97B8E
00030912300078ISENTO        SANDRA HEINEN                      RUA DOM PEDRO II                             02057AP.:01         98960000CENTRO         SANTO CRISTO                  RS00553541113178764                          A1CACF372F545D798AA74959AE95D514
00030912300078ISENTO        SANDRA HEINEN                      RUA DOM PEDRO II                             02057AP.:01         98960000CENTRO         SANTO CRISTO                  RS00553541113178764                          A1CACF372F545D798AA74959AE95D514
000884557000259036630011    IRANI ANA ROCKEMBACH               AV. CARLOS ALBERTO SCHAEDLER                 00557               98950000CENTRO         ALECRIM                       RS00000000000078599                          7BAFB54DB50E47FDF293B2073D050516
000884557000259036630011    IRANI ANA ROCKEMBACH               AV. CARLOS ALBERTO SCHAEDLER                 00557               98950000CENTRO         ALECRIM                       RS00000000000078599                          7BAFB54DB50E47FDF293B2073D050516
87612990000105ISENTO        PREFEITURA MUNICIPAL DE CERRO LARGORUA CORONEL JORGE FRANTZ                     00675               97900000CENTRO         CERRO LARGO                   RS00553359190578736                          9CBB604FB38D8674F74250186684FF66
87612990000105ISENTO        PREFEITURA MUNICIPAL DE CERRO LARGORUA CORONEL JORGE FRANTZ                     00675               97900000CENTRO         CERRO LARGO                   RS00553359190578736                          9CBB604FB38D8674F74250186684FF66
000671138340002058901949    ROSANE HANZEN DA ROSA              RUA HENRIQUE BALDOINO WEBLER                 00974               97900000BRASILIA       CERRO LARGO                   RS00553359237878814                          FEF4E3AAFA6698249EADF25BA3F872ED
000671138340002058901949    ROSANE HANZEN DA ROSA              RUA HENRIQUE BALDOINO WEBLER                 00974               97900000BRASILIA       CERRO LARGO                   RS00553359237878814                          FEF4E3AAFA6698249EADF25BA3F872ED
000994585350345069316544    JAIME SOARES PINTO                 RUA S„O PEDRO                                00199               98900000PLANALTO       SANTA ROSA                    RS00000000000078615                          999BF1EE08FDBF1EFBC5F37BCA6A429D
000994585350345069316544    JAIME SOARES PINTO                 RUA S„O PEDRO                                00199               98900000PLANALTO       SANTA ROSA                    RS00000000000078615                          999BF1EE08FDBF1EFBC5F37BCA6A429D
93592715000161ISENTO        PREFEITURA MUNICIPAL DE S„O PEDRO DRUA 7 DE SETEMBRO                            00940               97920000CENTRO         S„O PEDRO DO BUTI·            RS00553369100578738                          30C52815D1EC36415C405651421DF66E
93592715000161ISENTO        PREFEITURA MUNICIPAL DE S„O PEDRO DRUA 7 DE SETEMBRO                            00940               97920000CENTRO         S„O PEDRO DO BUTI·            RS00553369100578738                          30C52815D1EC36415C405651421DF66E
96419627000150ISENTO        SINDICATO TRABALHADORES RURAIS DE CRUA TRAV. PADRE BENEDITO MEISTER             00152               98975000CENTRO         CAMPINA DAS MISSıES           RS00000000000078768                          9781D762E730F8B3BEE1913FBD2DEA94
96419627000150ISENTO        SINDICATO TRABALHADORES RURAIS DE CRUA TRAV. PADRE BENEDITO MEISTER             00152               98975000CENTRO         CAMPINA DAS MISSıES           RS00000000000078768                          9781D762E730F8B3BEE1913FBD2DEA94
000024320040431065689695    FELIPE JUSTEN                      VILA DONA OTILIA                             00001               97973000INTERIOR       ROQUE GONZALES                RS00553884203778577                          33163B37FFBED00B9224C31EEE3BE325
000024320040431065689695    FELIPE JUSTEN                      VILA DONA OTILIA                             00001               97973000INTERIOR       ROQUE GONZALES                RS00553884203778577                          33163B37FFBED00B9224C31EEE3BE325
93535342000197ISENTO        ESCOLA MUNICIPAL DE E. F. ANTONIO CESQUINA BOA VISTA                            00001               98855000INTERIOR       ENTRE-IJUÌS                   RS00000000000078799                          82C33F465A840460A07DE86312F77C47
93535342000197ISENTO        ESCOLA MUNICIPAL DE E. F. ANTONIO CESQUINA BOA VISTA                            00001               98855000INTERIOR       ENTRE-IJUÌS                   RS00000000000078799                          82C33F465A840460A07DE86312F77C47
11445453000148ISENTO        CAMARA DE VEREADORES VITÛRIA DAS MIAV. 7 POVOS                                  00957               98850000CENTRO         VITÛRIA DAS MISSıES           RS00553614411978541                          C8F5ABE4F4F083525D9ADB4D81C2F0D5
11445453000148ISENTO        CAMARA DE VEREADORES VITÛRIA DAS MIAV. 7 POVOS                                  00957               98850000CENTRO         VITÛRIA DAS MISSıES           RS00553614411978541                          C8F5ABE4F4F083525D9ADB4D81C2F0D5
09649751000108ISENTO        BOIDEZ DISTRIBUIDORA DE ALIMENTOS LROLADOR ALTO                                 00001               98960000INTERIOR       SANTO CRISTO                  RS00553541212578524                          0431292B407AC10B77AED94CC554CB87
09649751000108ISENTO        BOIDEZ DISTRIBUIDORA DE ALIMENTOS LROLADOR ALTO                                 00001               98960000INTERIOR       SANTO CRISTO                  RS00553541212578524                          0431292B407AC10B77AED94CC554CB87
000213746510878023957262    ARI AOSANI                         DISTRITO SANTA TEREZINHA                     00001               98770000INTERIOR       CATUÌPE                       RS00553613212278519                          E6D7ABADFB891ED7A189B73A0A416CD9
000213746510878023957262    ARI AOSANI                         DISTRITO SANTA TEREZINHA                     00001               98770000INTERIOR       CATUÌPE                       RS00553613212278519                          E6D7ABADFB891ED7A189B73A0A416CD9
000093803700591023254442    ARQUILIO TREVIZAN                  RINC„O RIETH                                 00001CXP. 08        98770000INTERIOR       CATUÌPE                       RS00000000000078518                          D9E822B448ACE7C690DB40F8D4B02467
000093803700591023254442    ARQUILIO TREVIZAN                  RINC„O RIETH                                 00001CXP. 08        98770000INTERIOR       CATUÌPE                       RS00000000000078518                          D9E822B448ACE7C690DB40F8D4B02467
000043138010499002725597    LUIZ AURÌ VIZIOLI                  RINC„O DOS RIETH                             00001CXP.:26        98770000INTERIOR       CATUÌPE                       RS00000000000078659                          89761F808D37EEFE5992984949BE5017
000043138010499002725597    LUIZ AURÌ VIZIOLI                  RINC„O DOS RIETH                             00001CXP.:26        98770000INTERIOR       CATUÌPE                       RS00000000000078659                          89761F808D37EEFE5992984949BE5017
000500314650721040108837    TELMO ANTONIO AOZANI               ENGENHO VELHO                                00001               98770000INTERIOR       CATUÌPE                       RS00000000000078783                          38F41DADAC92434C9FB57A571CB58C3F
000500314650721040108837    TELMO ANTONIO AOZANI               ENGENHO VELHO                                00001               98770000INTERIOR       CATUÌPE                       RS00000000000078783                          38F41DADAC92434C9FB57A571CB58C3F
000393187290491021871741    TELMO LUIZ SFALCIN                 SANTA TEREZINHA                              00001               98770000INTERIOR       CATUÌPE                       RS00553613219078694                          0F0A5243EB2F4A7A81D75E451C8D0C20
000393187290491021871741    TELMO LUIZ SFALCIN                 SANTA TEREZINHA                              00001               98770000INTERIOR       CATUÌPE                       RS00553613219078694                          0F0A5243EB2F4A7A81D75E451C8D0C20
000463830180008036099953    VALDEZ PIEPER                      RUA COZ DAS ALMAS                            00001               98770000INTERIOR       CATUÌPE                       RS00000000000078804                          3BC63D661894DAC82F65E2708E3CD29E
000463830180008036099953    VALDEZ PIEPER                      RUA COZ DAS ALMAS                            00001               98770000INTERIOR       CATUÌPE                       RS00000000000078804                          3BC63D661894DAC82F65E2708E3CD29E
000604120540007051535421    ARI JOSE WACHEKOSKI                RUA SANTO ISIDRO                             01205               97950000CENTRO         GUARANI DAS MISSıES           RS00000000000078805                          869F2575A50209B296236E98005D6C97
000604120540007051535421    ARI JOSE WACHEKOSKI                RUA SANTO ISIDRO                             01205               97950000CENTRO         GUARANI DAS MISSıES           RS00000000000078805                          869F2575A50209B296236E98005D6C97
000367719530682024702744    SILVESTRE GURSKI SETSCHUK          RUA SANTO CRISTO                             01387               97950000SANTA TEREZA   GUARANI DAS MISSıES           RS00000000000078718                          D8831B799015E4C7DD16CD08F1C647BF
000367719530682024702744    SILVESTRE GURSKI SETSCHUK          RUA SANTO CRISTO                             01387               97950000SANTA TEREZA   GUARANI DAS MISSıES           RS00000000000078718                          D8831B799015E4C7DD16CD08F1C647BF
000881864660538054734192    CESAR ANTONIO BAZANA               RUA VINICIOS KRUEL                           01074               98860000CENTRO         EUGÍNIO DE CASTRO             RS00000000000078552                          FEEE99FAFCF44BE808C73BA2727A5636
000881864660538054734192    CESAR ANTONIO BAZANA               RUA VINICIOS KRUEL                           01074               98860000CENTRO         EUGÍNIO DE CASTRO             RS00000000000078552                          FEEE99FAFCF44BE808C73BA2727A5636
000964477450722084723457    ELISIANE DURKS                     RUA SILVÈRIO DE OLIVEIRA                     02500               98860000CENTRO         EUGÍNIO DE CASTRO             RS00000000000078554                          64CAB57D53BA4D70B9BEE65DDE74EB6E
000964477450722084723457    ELISIANE DURKS                     RUA SILVÈRIO DE OLIVEIRA                     02500               98860000CENTRO         EUGÍNIO DE CASTRO             RS00000000000078554                          64CAB57D53BA4D70B9BEE65DDE74EB6E
000032311510156004380496    OCTAVIAN GERHARDT                  RUA DR. JOAO SEBASTIANY                      00457               97900000CENTRO         CERRO LARGO                   RS00553359193978730                          77D2FBB2265694661B925DF41948006C
000032311510156004380496    OCTAVIAN GERHARDT                  RUA DR. JOAO SEBASTIANY                      00457               97900000CENTRO         CERRO LARGO                   RS00553359193978730                          77D2FBB2265694661B925DF41948006C
00047370718034ISENTO        ROMEU FRANCISCO LUNKES             RUA CASTELO BRANCO                           00633               97900000CENTRO         CERRO LARGO                   RS00000000000078734                          B6468E367B876F0C0E8D7152FA09D6D1
00047370718034ISENTO        ROMEU FRANCISCO LUNKES             RUA CASTELO BRANCO                           00633               97900000CENTRO         CERRO LARGO                   RS00000000000078734                          B6468E367B876F0C0E8D7152FA09D6D1
000179970460206018976081    ARMINDO JOSE BOLZAN                RUA 7 DE SETEMBRO                            01438               97900000CENTRO         CERRO LARGO                   RS00000000000078506                          F00DD33151B3B30A88529D9B7CAF53EC
000179970460206018976081    ARMINDO JOSE BOLZAN                RUA 7 DE SETEMBRO                            01438               97900000CENTRO         CERRO LARGO                   RS00000000000078506                          F00DD33151B3B30A88529D9B7CAF53EC
000390386530345042432459    MILTON SCHEID                      RUA HENRIQUE THOMAS                          01143               97900000ESQUINA GAUCHA CERRO LARGO                   RS00000000000078654                          E5924D1E3AFEBA7E33212A85A33B26E5
000390386530345042432459    MILTON SCHEID                      RUA HENRIQUE THOMAS                          01143               97900000ESQUINA GAUCHA CERRO LARGO                   RS00000000000078654                          E5924D1E3AFEBA7E33212A85A33B26E5
00003579379020904747854     ROQUE COLLING                      LINHA RESERVA                                00001               97900000INTERIR        CERRO LARGO                   RS00000000000078733                          96ADA3990DAAF3FA04BC53570A0206A0
00003579379020904747854     ROQUE COLLING                      LINHA RESERVA                                00001               97900000INTERIR        CERRO LARGO                   RS00000000000078733                          96ADA3990DAAF3FA04BC53570A0206A0
00024943630049ISENTO        VILSON JOSÈ REIS                   TRAVESSA EUGENIO FRANTZ                      00052               97900000FLORESTA       CERRO LARGO                   RS00000000000078735                          75B6EF400E60758A464E977759C3C222
00024943630049ISENTO        VILSON JOSÈ REIS                   TRAVESSA EUGENIO FRANTZ                      00052               97900000FLORESTA       CERRO LARGO                   RS00000000000078735                          75B6EF400E60758A464E977759C3C222
00073243981034ISENTO        ROSA MARIA DOS SANTOS FERREIRA     RUA BONIFACIO CAMıES                         00845               97900000COAB           CERRO LARGO                   RS00000000000078834                          184448B0F1BD6A244983A9046068A2A9
00073243981034ISENTO        ROSA MARIA DOS SANTOS FERREIRA     RUA BONIFACIO CAMıES                         00845               97900000COAB           CERRO LARGO                   RS00000000000078834                          184448B0F1BD6A244983A9046068A2A9
000514537030043017058672    ARACELI SALLET                     RUA SENADOR PINHEIRO MACHADO                 00563               97900000CENTRO         CERRO LARGO                   RS00000000000078500                          C4D9E736628D4F3B3D897BF057D3AF76
000514537030043017058672    ARACELI SALLET                     RUA SENADOR PINHEIRO MACHADO                 00563               97900000CENTRO         CERRO LARGO                   RS00000000000078500                          C4D9E736628D4F3B3D897BF057D3AF76
000903075420681069234233    PAULO JOSÈ KUNZ MARSCHALL          RUA JO„O TEN CATEN                           00875               97900000S„O PEDRO      CERRO LARGO                   RS00559163720078731                          531FBE35B6B866ECB29E9DF145F5A6BC
000903075420681069234233    PAULO JOSÈ KUNZ MARSCHALL          RUA JO„O TEN CATEN                           00875               97900000S„O PEDRO      CERRO LARGO                   RS00559163720078731                          531FBE35B6B866ECB29E9DF145F5A6BC
000495235110684034348559    DARCI WERLE                        RUA SANTO ERNESTO                            00103               97980000CENTRO         S„O PAULO DAS MISSıES         RS00000000000078781                          8F9CFC348B940E50A4E99B1FBBBB6CFD
000495235110684034348559    DARCI WERLE                        RUA SANTO ERNESTO                            00103               97980000CENTRO         S„O PAULO DAS MISSıES         RS00000000000078781                          8F9CFC348B940E50A4E99B1FBBBB6CFD
00005577560063ISENTO        JAIME CONSTANTINO RITT             LINHA BOA ESPERANÁA                          00001               97920000INTERIOR       S„O PEDRO DO BUTI·            RS00553369108378611                          09FB35AE45938D17A8C4937892E6BD96
00005577560063ISENTO        JAIME CONSTANTINO RITT             LINHA BOA ESPERANÁA                          00001               97920000INTERIOR       S„O PEDRO DO BUTI·            RS00553369108378611                          09FB35AE45938D17A8C4937892E6BD96
000450577290049027153312    JO„O ODIL HARTMANN LUNKES          RUA INDEPENDENCIA                            00779               97980000CENTRO         S„O PAULO DAS MISSıES         RS00000000000078605                          B25CBAEF24EF829B468DC9E58501E7F5
000450577290049027153312    JO„O ODIL HARTMANN LUNKES          RUA INDEPENDENCIA                            00779               97980000CENTRO         S„O PAULO DAS MISSıES         RS00000000000078605                          B25CBAEF24EF829B468DC9E58501E7F5
000653857210349046805363    NOELI LUCIA THOMAS PREHSSLER       RUA S„O LOURENÁO                             00234               97980000CENTRO         S„O PAULO DAS MISSıES         RS00553563133778780                          B146389209A5FA040DDE4D9BCEA39258
000653857210349046805363    NOELI LUCIA THOMAS PREHSSLER       RUA S„O LOURENÁO                             00234               97980000CENTRO         S„O PAULO DAS MISSıES         RS00553563133778780                          B146389209A5FA040DDE4D9BCEA39258
000245792540159005924338    VICENTE JO„O KUNZ                  POVOADO IPÍ                                  00001               97980000INTERIOR       S„O PAULO DAS MISSıES         RS00000000000078708                          EB6C0321AFD859CF98A371C28B7C76B6
000245792540159005924338    VICENTE JO„O KUNZ                  POVOADO IPÍ                                  00001               97980000INTERIOR       S„O PAULO DAS MISSıES         RS00000000000078708                          EB6C0321AFD859CF98A371C28B7C76B6
000105864310041004453708    ANTÙNIO JO„O LUNKES                LINHA SANTO ¬NGELO                           00001               97930000INTERIOR       CAIBATÈ                       RS00000000000078499                          DD06D59D3B133BF315377F6BD6A54761
000105864310041004453708    ANTÙNIO JO„O LUNKES                LINHA SANTO ¬NGELO                           00001               97930000INTERIOR       CAIBATÈ                       RS00000000000078499                          DD06D59D3B133BF315377F6BD6A54761
000375238050004038081685    ANTONIO THOMAS                     LINHA TREMONIA                               00001               97900000INTERIOR       CERRO LARGO                   RS00000000000078504                          068305B46D9261DE75C67E1FBA45F699
000375238050004038081685    ANTONIO THOMAS                     LINHA TREMONIA                               00001               97900000INTERIOR       CERRO LARGO                   RS00000000000078504                          068305B46D9261DE75C67E1FBA45F699
000887517080001064361387    ELVIO CARLOTO NORO                 RUA  CRUZ ALTA                               01969               97930000VILA LAGO AZUL CAIBATÈ                       RS00000000000078569                          B62A9D57C35E036F993F5F613F869379
000887517080001064361387    ELVIO CARLOTO NORO                 RUA  CRUZ ALTA                               01969               97930000VILA LAGO AZUL CAIBATÈ                       RS00000000000078569                          B62A9D57C35E036F993F5F613F869379
00025002368034ISENTO        EVANDO HERTER DA SILVA             AV. 7 DE SETEMBRO                            01419               97930000CENTRO         CAIBATÈ                       RS00553355112378570                          B85A54AEB3FC63DF1A503B872EF822C3
00025002368034ISENTO        EVANDO HERTER DA SILVA             AV. 7 DE SETEMBRO                            01419               97930000CENTRO         CAIBATÈ                       RS00553355112378570                          B85A54AEB3FC63DF1A503B872EF822C3
000309855280875008050998    ILDO JO„O ELY                      LINHA SANTO ANGELO                           00001               97930000INTERIOR       CAIBATÈ                       RS00000000000078598                          C203798797B99D2C438E8E66CEFB4B00
000309855280875008050998    ILDO JO„O ELY                      LINHA SANTO ANGELO                           00001               97930000INTERIOR       CAIBATÈ                       RS00000000000078598                          C203798797B99D2C438E8E66CEFB4B00
000126282710878023278801    JOSÈ HARRI THUM                    LINHA TAQUARAÁU                              00001               97900000INTERIOR       CERRO LARGO                   RS00000000000078618                          3D27136CC392E40AD51D6F059A9BBDEC
000126282710878023278801    JOSÈ HARRI THUM                    LINHA TAQUARAÁU                              00001               97900000INTERIOR       CERRO LARGO                   RS00000000000078618                          3D27136CC392E40AD51D6F059A9BBDEC
00019014988087ISENTO        LUIZ EVAR LUBINI                   RINCAO DA CONCEIÁAO                          00001               97930000INTERIOR       CAIBATÈ                       RS00000000000078629                          DE7EFD2648C4B5DC295D049CD2320FEC
00019014988087ISENTO        LUIZ EVAR LUBINI                   RINCAO DA CONCEIÁAO                          00001               97930000INTERIOR       CAIBATÈ                       RS00000000000078629                          DE7EFD2648C4B5DC295D049CD2320FEC
000925021800153066625851    MAURICIO PIRES DE MORAIS           RUA CAROO                                    01593               97930000CENTRO         CAIBATÈ                       RS00000000000078641                          F3304A81A6B7C3837FA39D8E36844770
000925021800153066625851    MAURICIO PIRES DE MORAIS           RUA CAROO                                    01593               97930000CENTRO         CAIBATÈ                       RS00000000000078641                          F3304A81A6B7C3837FA39D8E36844770
000500306470531039734817    MILTON BURIN                       RUA SEFRIN                                   01552               97930000CENTRO         CAIBATÈ                       RS00553505700678642                          84264DB99526785AAAC02157C58E622A
000500306470531039734817    MILTON BURIN                       RUA SEFRIN                                   01552               97930000CENTRO         CAIBATÈ                       RS00553505700678642                          84264DB99526785AAAC02157C58E622A
000543646550159034268954    NEILA VETTORAZZI KORNOWSKI         CXP:19                                       00001               97950000INTERIOR HARMONGUARANI DAS MISSıES           RS00000000000078661                          C372587E9710F7F27FA4170DB9A5076C
000543646550159034268954    NEILA VETTORAZZI KORNOWSKI         CXP:19                                       00001               97950000INTERIOR HARMONGUARANI DAS MISSıES           RS00000000000078661                          C372587E9710F7F27FA4170DB9A5076C
000164733960041026813707    NELSON BARICHELLO                  RUA DOS IMIGRANTES                           01061               98850000CENTRO         VITÛRIA DAS MISSıES           RS00553355156878668                          E199A5F71C45FC20DBC2B1378C6A0845
000164733960041026813707    NELSON BARICHELLO                  RUA DOS IMIGRANTES                           01061               98850000CENTRO         VITÛRIA DAS MISSıES           RS00553355156878668                          E199A5F71C45FC20DBC2B1378C6A0845
000003458670922090821006    NERISOM LUIZ ROHLEDER              RUA SEFRIN                                   01701               97930000CENTRO         CAIBATÈ                       RS00000000000078669                          B18BB79EBFCF8EB7CDF5B5EBB82EC8C8
000003458670922090821006    NERISOM LUIZ ROHLEDER              RUA SEFRIN                                   01701               97930000CENTRO         CAIBATÈ                       RS00000000000078669                          B18BB79EBFCF8EB7CDF5B5EBB82EC8C8
000285192640344003698778    PAULO MARIO STOFFELS               RUA 15 DE MAIO                               01519               97930000CENTRO         CAIBATÈ                       RS00553355125478713                          1B3BBD79704ED018D2D3482F55834870
000285192640344003698778    PAULO MARIO STOFFELS               RUA 15 DE MAIO                               01519               97930000CENTRO         CAIBATÈ                       RS00553355125478713                          1B3BBD79704ED018D2D3482F55834870
000943352140498073880182    RODRIGO SCHNEIDER                  LINHA PASSO NOVO                             00001               97930000INTERIOR       CAIBATÈ                       RS00000000000078715                          B2432F40454B0FC4AB97F201B0986183
000943352140498073880182    RODRIGO SCHNEIDER                  LINHA PASSO NOVO                             00001               97930000INTERIOR       CAIBATÈ                       RS00000000000078715                          B2432F40454B0FC4AB97F201B0986183
00064757358091ISENTO        VALMIR LUNKES                      RS 536 KM 01                                 00001               97930000INTERIOR       CAIBATÈ                       RS00553355100978772                          75CB43976786CDE4384F7326EB9F8B17
00064757358091ISENTO        VALMIR LUNKES                      RS 536 KM 01                                 00001               97930000INTERIOR       CAIBATÈ                       RS00553355100978772                          75CB43976786CDE4384F7326EB9F8B17
000190163100101008720681    ZILMAR SAUSEN                      RUA MON SENHOR WOLSK                         01624               97930000CENTRO         CAIBATÈ                       RS00000000000078717                          705156693A5E68CCB3ECB4A5E2ED985C
000190163100101008720681    ZILMAR SAUSEN                      RUA MON SENHOR WOLSK                         01624               97930000CENTRO         CAIBATÈ                       RS00000000000078717                          705156693A5E68CCB3ECB4A5E2ED985C
000510851350047035417232    FRANCISCO VENDRUSCOLO CEOLIN       AV GETULIO VARGAS                            01010AP. 201 BL. B  98801570SOSSEGO        SANTO ¬NGELO                  RS00559993454778580                          FC9AB0ACB10C4A52093810FD5D66C5C9
000510851350047035417232    FRANCISCO VENDRUSCOLO CEOLIN       AV GETULIO VARGAS                            01010AP. 201 BL. B  98801570SOSSEGO        SANTO ¬NGELO                  RS00559993454778580                          FC9AB0ACB10C4A52093810FD5D66C5C9
000472518080727026528302    INGOMAR GENZ NEUBUSER              LINHA DONA OTILIA                            00001               97970000INTERIOR       ROQUE GONZALES                RS00553884202778603                          A715B400E5395CC9D02AE2030BC22E23
000472518080727026528302    INGOMAR GENZ NEUBUSER              LINHA DONA OTILIA                            00001               97970000INTERIOR       ROQUE GONZALES                RS00553884202778603                          A715B400E5395CC9D02AE2030BC22E23
000309681270533010137713    NELSON BOESING                     RUA CASTELO BRANCO                           00989               97920000CENTRO         S„O PEDRO DO BUTI·            RS00553369115378665                          9AB3A294BAB3263C29B491C81472EF01
000309681270533010137713    NELSON BOESING                     RUA CASTELO BRANCO                           00989               97920000CENTRO         S„O PEDRO DO BUTI·            RS00553369115378665                          9AB3A294BAB3263C29B491C81472EF01
0003859142100017023913441   RUBEM HACKENHAAR                   RUA REINOLDO JACOBS                          00861               97920000CENTRO         S„O PEDRO DO BUTI·            RS00553369117778699                          34D90DEFBEDE6184AB151F208EDD4E5F
0003859142100017023913441   RUBEM HACKENHAAR                   RUA REINOLDO JACOBS                          00861               97920000CENTRO         S„O PEDRO DO BUTI·            RS00553369117778699                          34D90DEFBEDE6184AB151F208EDD4E5F
000356429710341011015086    ALOISIO SEIBERT                    RUA ROQUE GONZALES                           01540               97920000CENTRO         S„O PEDRO DO BUTI·            RS00000000000078539                          B6C41EDDA03E5F9EFC313E97CB5E9640
000356429710341011015086    ALOISIO SEIBERT                    RUA ROQUE GONZALES                           01540               97920000CENTRO         S„O PEDRO DO BUTI·            RS00000000000078539                          B6C41EDDA03E5F9EFC313E97CB5E9640
000245774990537008011211    ARCI GENZ BRATZ                    LINHA ESQUINA UNI„O                          00001               97920000INTERIOR       S„O PEDRO DO BUTI·            RS00000000000078493                          3D8E2D7FE991D78D61FFDE49CDD1F19F
000245774990537008011211    ARCI GENZ BRATZ                    LINHA ESQUINA UNI„O                          00001               97920000INTERIOR       S„O PEDRO DO BUTI·            RS00000000000078493                          3D8E2D7FE991D78D61FFDE49CDD1F19F
93617488000181ISENTO        LUCIA HASS                         AV. JULHO SCHWENGBER                         01681               97920000CENTRO         S„O PEDRO DO BUTI·            RS00553369105178638                          7A6DC438B55D9CE4CFF26714F245090A
93617488000181ISENTO        LUCIA HASS                         AV. JULHO SCHWENGBER                         01681               97920000CENTRO         S„O PEDRO DO BUTI·            RS00553369105178638                          7A6DC438B55D9CE4CFF26714F245090A
00005999642949ISENTO        ORLANDO JOSÈ ADANS                 ESQUINA UNI„O                                00001               97920000INTERIOR       S„O PEDRO DO BUTI·            RS00000000000078696                          F1B459B178618DF6BC57AB7B2BE5B361
00005999642949ISENTO        ORLANDO JOSÈ ADANS                 ESQUINA UNI„O                                00001               97920000INTERIOR       S„O PEDRO DO BUTI·            RS00000000000078696                          F1B459B178618DF6BC57AB7B2BE5B361
000451583980204035908468    DEONISIO TONIN                     RUA REINALDO JACOBS                          00839               97920000CENTRO         S„O PEDRO DO BUTI·            RS00553369106478545                          4B54CD51A7F555D84CF5249BA7142CB0
000451583980204035908468    DEONISIO TONIN                     RUA REINALDO JACOBS                          00839               97920000CENTRO         S„O PEDRO DO BUTI·            RS00553369106478545                          4B54CD51A7F555D84CF5249BA7142CB0
000653429090159039745733    NEI JOSÈ LOEBET                    RUA ROMILDO SCHNEIDER                        01545               97920000CENTRO         S„O PEDRO DO BUTI·            RS00000000000078664                          4BF443C05D3EA209A2BFBA3096AE5E74
000653429090159039745733    NEI JOSÈ LOEBET                    RUA ROMILDO SCHNEIDER                        01545               97920000CENTRO         S„O PEDRO DO BUTI·            RS00000000000078664                          4BF443C05D3EA209A2BFBA3096AE5E74
000702590030341038045454    JOSÈ ANTONIO SOMAVILA              ESQ. RENDIM                                  00001               98850000INTERIOR       VITÛRIA DAS MISSıES           RS00000000000078632                          C624A8388129E003C8DB47F926C724A4
000702590030341038045454    JOSÈ ANTONIO SOMAVILA              ESQ. RENDIM                                  00001               98850000INTERIOR       VITÛRIA DAS MISSıES           RS00000000000078632                          C624A8388129E003C8DB47F926C724A4
000393484660205019884823    DANIEL CASARIN                     RUA VICENTE MANUEL DE DEUS                   00031               98800000HORTENCIA      SANTO ¬NGELO                  RS00000000000078543                          627C10E17560F128AA4539849DFC96E1
000393484660205019884823    DANIEL CASARIN                     RUA VICENTE MANUEL DE DEUS                   00031               98800000HORTENCIA      SANTO ¬NGELO                  RS00000000000078543                          627C10E17560F128AA4539849DFC96E1
000892402780871062306905    ELTON ALCIONE TEIXEIRA GUEDES      AV RIO GRANDE DO SUL                         03336               98807130MISSOES        SANTO ¬NGELO                  RS00000000000078784                          9E38D61E8D2CCF9D92A73440B50C18B4
000892402780871062306905    ELTON ALCIONE TEIXEIRA GUEDES      AV RIO GRANDE DO SUL                         03336               98807130MISSOES        SANTO ¬NGELO                  RS00000000000078784                          9E38D61E8D2CCF9D92A73440B50C18B4
000920610100591049890451    GIORDANI ANDRE DEZORDI             RUA MANOEL FERNANDES                         00270               98860000CENTRO         EUGÍNIO DE CASTRO             RS00000000000078585                          5B34F0CCC13C7BC4250D5A9536645557
000920610100591049890451    GIORDANI ANDRE DEZORDI             RUA MANOEL FERNANDES                         00270               98860000CENTRO         EUGÍNIO DE CASTRO             RS00000000000078585                          5B34F0CCC13C7BC4250D5A9536645557
000005189250219085315531    MIRIAN DIVA PRETTO                 RUA LEOPOLDINA ANGST                         01974               98803230JOSE A. OLIVIERSANTO ¬NGELO                  RS00000000000078639                          4BA5B20831695291F1DC30BA27FE113C
000005189250219085315531    MIRIAN DIVA PRETTO                 RUA LEOPOLDINA ANGST                         01974               98803230JOSE A. OLIVIERSANTO ¬NGELO                  RS00000000000078639                          4BA5B20831695291F1DC30BA27FE113C
000162895440048004391689    NELSON FONSECA DE MELLO            RUA BENTO GONCALVES                          00976               98801700CENTRO         SANTO ¬NGELO                  RS00000000000078663                          4753B4F27A94A435ACA9D62E271CE36B
000162895440048004391689    NELSON FONSECA DE MELLO            RUA BENTO GONCALVES                          00976               98801700CENTRO         SANTO ¬NGELO                  RS00000000000078663                          4753B4F27A94A435ACA9D62E271CE36B
000022278090863084227028    ADRIANA DALLALIBERA                RUA S„O LUIZ                                 01860               97950000SANTA TEREZA   GUARANI DAS MISSıES           RS00000000000078819                          18BD716778E923D8D017BA1246C9CFBB
000022278090863084227028    ADRIANA DALLALIBERA                RUA S„O LUIZ                                 01860               97950000SANTA TEREZA   GUARANI DAS MISSıES           RS00000000000078819                          18BD716778E923D8D017BA1246C9CFBB
000224042100256004066401    ALCIONE MACHADO                    ESQUINA S„O MIGUEL                           00001               98865000INTERIOR       S„O MIGUEL DAS MISSıES        RS00000000000078806                          7FFC1F957412D74CF06D81D7AB694564
000224042100256004066401    ALCIONE MACHADO                    ESQUINA S„O MIGUEL                           00001               98865000INTERIOR       S„O MIGUEL DAS MISSıES        RS00000000000078806                          7FFC1F957412D74CF06D81D7AB694564
000275343240682024437374    ANTONIO DE PADUA CASTANHO NASCIMENTRUA JO„O MIGUEL                              00061               98865000CENTRO         S„O MIGUEL DAS MISSıES        RS00553381134278512                          2D90B2CCB2080926DC11B169C0506DF6
000275343240682024437374    ANTONIO DE PADUA CASTANHO NASCIMENTRUA JO„O MIGUEL                              00061               98865000CENTRO         S„O MIGUEL DAS MISSıES        RS00553381134278512                          2D90B2CCB2080926DC11B169C0506DF6
000309275790492002758361    DANIEL TEIKOWSKI                   RINC„O SANTA BARBARA                         00001               98865000INTERIOR       S„O MIGUEL DAS MISSıES        RS00553505709378549                          2A41F6FA5608211B18AD8E32DF355779
000309275790492002758361    DANIEL TEIKOWSKI                   RINC„O SANTA BARBARA                         00001               98865000INTERIOR       S„O MIGUEL DAS MISSıES        RS00553505709378549                          2A41F6FA5608211B18AD8E32DF355779
000441687300003151009974    ESPEDITO VICENTE CHIAPINOTTO       RINC„O DOS RIBAS                             00001               98865000INTERIOR       S„O MIGUEL DAS MISSıES        RS00000000000078565                          550C2188C3EC4AEFE6D82C52FA205B73
000441687300003151009974    ESPEDITO VICENTE CHIAPINOTTO       RINC„O DOS RIBAS                             00001               98865000INTERIOR       S„O MIGUEL DAS MISSıES        RS00000000000078565                          550C2188C3EC4AEFE6D82C52FA205B73
000283614400972009485448    JO„O BATISTA MARGUTTI              RUA SANTO ANGELO                             01007               98865000CENTRO         S„O MIGUEL DAS MISSıES        RS00000000000078622                          A475FED7CF2CF352B97148A7C73A6547
000283614400972009485448    JO„O BATISTA MARGUTTI              RUA SANTO ANGELO                             01007               98865000CENTRO         S„O MIGUEL DAS MISSıES        RS00000000000078622                          A475FED7CF2CF352B97148A7C73A6547
000376319180152020041171    JO„O FLAVIO DAMI„O MARCON          ESQUINA S„O MIGUEL                           00001               98865000INTERIOR       S„O MIGUEL DAS MISSıES        RS00000000000078786                          7853C3F54604970B3C7143ADBE7AF6D0
000376319180152020041171    JO„O FLAVIO DAMI„O MARCON          ESQUINA S„O MIGUEL                           00001               98865000INTERIOR       S„O MIGUEL DAS MISSıES        RS00000000000078786                          7853C3F54604970B3C7143ADBE7AF6D0
000020336630194084407388    RODRIGO PEZZINI                    RINC„O DOS RIBAS                             00001               98865000INTERIOR       S„O MIGUEL DAS MISSıES        RS00000000000078691                          DDC7271DB4814E87B1BA19CCE4CFDA36
000020336630194084407388    RODRIGO PEZZINI                    RINC„O DOS RIBAS                             00001               98865000INTERIOR       S„O MIGUEL DAS MISSıES        RS00000000000078691                          DDC7271DB4814E87B1BA19CCE4CFDA36
000312994580681054236326    SELVINO JO„O BUCHNER               RINC„O DOS CAVALHEIROS                       00001               98865000INTERIOR       S„O MIGUEL DAS MISSıES        RS00000000000078690                          E55E4697780E0960ABD1ADC6995CEE7F
000312994580681054236326    SELVINO JO„O BUCHNER               RINC„O DOS CAVALHEIROS                       00001               98865000INTERIOR       S„O MIGUEL DAS MISSıES        RS00000000000078690                          E55E4697780E0960ABD1ADC6995CEE7F
000474460130871037726518    VALDIR ELOI PHILLIPP               SERRA S„O JOSÈ                               00001               98865000INTERIOR       S„O MIGUEL DAS MISSıES        RS00000000000078688                          706760728CA804BE1682917ACE2E5EA2
000474460130871037726518    VALDIR ELOI PHILLIPP               SERRA S„O JOSÈ                               00001               98865000INTERIOR       S„O MIGUEL DAS MISSıES        RS00000000000078688                          706760728CA804BE1682917ACE2E5EA2
000105869540155027038867    ARTUR VALDI DA SILVA ISSLER        RUA SENADOR PINHEIRO MACHADO                 00370               97970000CENTRO         ROQUE GONZALES                RS00553365126678514                          FD6A6DEF9BA407FCCE87998E43EF5D3D
000105869540155027038867    ARTUR VALDI DA SILVA ISSLER        RUA SENADOR PINHEIRO MACHADO                 00370               97970000CENTRO         ROQUE GONZALES                RS00553365126678514                          FD6A6DEF9BA407FCCE87998E43EF5D3D
000332633370688006722733    ELVIO JO„O SARZI                   RUA PADRE MANOEL DE NOBREGA                  00470               97970000CENTRO         ROQUE GONZALES                RS00553365135178566                          4D2F098C287E2D3886744F9FD2DBB117
000332633370688006722733    ELVIO JO„O SARZI                   RUA PADRE MANOEL DE NOBREGA                  00470               97970000CENTRO         ROQUE GONZALES                RS00553365135178566                          4D2F098C287E2D3886744F9FD2DBB117
0002738881602040270474008   MIGUEL WELTER                      BAIRRO COTRISA                               02950               97970000COTRISA        ROQUE GONZALES                RS00000000000078779                          6A040C656AC38601BF2F6F10706A419A
0002738881602040270474008   MIGUEL WELTER                      BAIRRO COTRISA                               02950               97970000COTRISA        ROQUE GONZALES                RS00000000000078779                          6A040C656AC38601BF2F6F10706A419A
0002882425309160021418125   SILVESTRE JOSÈ SCHER               RUA INDEPENDENCIA                            00195               97970000CENTRO         ROQUE GONZALES                RS00553365120178710                          1AF5969C93B9229F9267AA4B1E08B975
0002882425309160021418125   SILVESTRE JOSÈ SCHER               RUA INDEPENDENCIA                            00195               97970000CENTRO         ROQUE GONZALES                RS00553365120178710                          1AF5969C93B9229F9267AA4B1E08B975
000308204210492001895248    ALCINDO PEDRO BORTOLINI            VISTA ALEGRE                                 00001               98770000VISTA ALEGRE   CATUÌPE                       RS00000000000078521                          9F8DED718F831518EE3298F7C5FAFF96
000308204210492001895248    ALCINDO PEDRO BORTOLINI            VISTA ALEGRE                                 00001               98770000VISTA ALEGRE   CATUÌPE                       RS00000000000078521                          9F8DED718F831518EE3298F7C5FAFF96
000388641690912029086465    ANTÙNIO GILBERTO FOLHARINI         TRES VENDAS                                  00001               98770000INTERIOR       CATUÌPE                       RS00000000000078520                          902CE26CE048A725A9F60F30C6778D8A
000388641690912029086465    ANTÙNIO GILBERTO FOLHARINI         TRES VENDAS                                  00001               98770000INTERIOR       CATUÌPE                       RS00000000000078520                          902CE26CE048A725A9F60F30C6778D8A
000991911990345041059022    CRISTIANO BERNARDI                 RUA CORONEL JOAQUIN RODRIGUES                00152               98770000CENTRO         CATUÌPE                       RS00000000000078793                          741FC26EEAD33037AB136FBF8047AA0C
000991911990345041059022    CRISTIANO BERNARDI                 RUA CORONEL JOAQUIN RODRIGUES                00152               98770000CENTRO         CATUÌPE                       RS00000000000078793                          741FC26EEAD33037AB136FBF8047AA0C
000523666930876041012615    GERSON GILMAR CARMELUTTI           RUA JOAQUIM RODRIGUES                        00984               98770000SANTA ROSA     CATUÌPE                       RS00000000000078658                          04F1B505148A32911AC54FBC5F3403C5
000523666930876041012615    GERSON GILMAR CARMELUTTI           RUA JOAQUIM RODRIGUES                        00984               98770000SANTA ROSA     CATUÌPE                       RS00000000000078658                          04F1B505148A32911AC54FBC5F3403C5
000645481120497044021135    IDOMAR FERRETTI                    SANTA TEREZA                                 00001               98770000INTERIOR       CATUÌPE                       RS00000000000078782                          A0E8844DB528D488F9B8DC2E74FBB53B
000645481120497044021135    IDOMAR FERRETTI                    SANTA TEREZA                                 00001               98770000INTERIOR       CATUÌPE                       RS00000000000078782                          A0E8844DB528D488F9B8DC2E74FBB53B
00027539229004ISENTO        ISMAEL MARCHESAN                   RUA JOAQUIM RODRIGES                         01403               98770000SANTA ROSA     CATUÌPE                       RS00553336159678607                          C28ECB28DBC9FEA33F9B2A92916245DB
00027539229004ISENTO        ISMAEL MARCHESAN                   RUA JOAQUIM RODRIGES                         01403               98770000SANTA ROSA     CATUÌPE                       RS00553336159678607                          C28ECB28DBC9FEA33F9B2A92916245DB
000011646520448094619098    JOICE OLIVEIRA DOS SANTOS          RUA INDEPENDENCIA                            00406               98770000SANTA ROSA     CATUÌPE                       RS00000000000078792                          EC84326B4420916BAB128C75DF7EA5DE
000011646520448094619098    JOICE OLIVEIRA DOS SANTOS          RUA INDEPENDENCIA                            00406               98770000SANTA ROSA     CATUÌPE                       RS00000000000078792                          EC84326B4420916BAB128C75DF7EA5DE
000494525410914039735255    ADEMIR GUSE                        RINC„O DAS CACHOERINHA                       00001ESQUINA GA˙CHA 98855000INTERIR        ENTRE-IJUÌS                   RS00000000000078517                          83349865050FF53C88D1B4756A465726
000494525410914039735255    ADEMIR GUSE                        RINC„O DAS CACHOERINHA                       00001ESQUINA GA˙CHA 98855000INTERIR        ENTRE-IJUÌS                   RS00000000000078517                          83349865050FF53C88D1B4756A465726
000152890790683024422564    ALTIDOR FLORES DE OLIVEIRA         ESQUINA GAUCHA                               00001               98855000INTERIOR       ENTRE-IJUÌS                   RS00000000000078516                          1AE98F5A069F87079BC366BFBC1373C8
000152890790683024422564    ALTIDOR FLORES DE OLIVEIRA         ESQUINA GAUCHA                               00001               98855000INTERIOR       ENTRE-IJUÌS                   RS00000000000078516                          1AE98F5A069F87079BC366BFBC1373C8
000255540930009020874336    ANTONIO FELIPIN                    BRAULIO MARIO RIBAS                          01154               98855000CENTRO         ENTRE-IJUÌS                   RS00000000000078515                          F7AA3145AD1F9F7192FE11E86ECA54EE
000255540930009020874336    ANTONIO FELIPIN                    BRAULIO MARIO RIBAS                          01154               98855000CENTRO         ENTRE-IJUÌS                   RS00000000000078515                          F7AA3145AD1F9F7192FE11E86ECA54EE
000488994100203039064633    ANTONIO MENEGHEIN JUNIOR           RUA BORGES DO CANTO                          00147               98800000PIPI           SANTO ¬NGELO                  RS00000000000078507                          21880983EE6481473634D0943181FA1D
000488994100203039064633    ANTONIO MENEGHEIN JUNIOR           RUA BORGES DO CANTO                          00147               98800000PIPI           SANTO ¬NGELO                  RS00000000000078507                          21880983EE6481473634D0943181FA1D
000897871450153062303536    CRISTIANO SIDNEI BRISSOW           RUA CLEMENTINO PIZOLOTO                      01455               98855000CENTRO         ENTRE-IJUÌS                   RS00000000000078533                          9DD326795A0E369C90A544B90BC1E5E4
000897871450153062303536    CRISTIANO SIDNEI BRISSOW           RUA CLEMENTINO PIZOLOTO                      01455               98855000CENTRO         ENTRE-IJUÌS                   RS00000000000078533                          9DD326795A0E369C90A544B90BC1E5E4
000332213830531017284041    DARI SCHULZ                        RUA FREDERICO BADE                           00267               98855000OZÛRIO         ENTRE-IJUÌS                   RS00553329139078550                          FE515DBB709C539E330ACF9819B79A25
000332213830531017284041    DARI SCHULZ                        RUA FREDERICO BADE                           00267               98855000OZÛRIO         ENTRE-IJUÌS                   RS00553329139078550                          FE515DBB709C539E330ACF9819B79A25
000279711390048013414597    ELCIRA DALMAS MENGHINI             AV ADAO FELIPE PIPPI                         00222               98807000ROSA           SANTO ¬NGELO                  RS00000000000078556                          FE064282EE4DD76024227ABB1765F28C
000279711390048013414597    ELCIRA DALMAS MENGHINI             AV ADAO FELIPE PIPPI                         00222               98807000ROSA           SANTO ¬NGELO                  RS00000000000078556                          FE064282EE4DD76024227ABB1765F28C
000654682870722032748151    ELOIR ROEHRS                       ESQUINA GA˙CHA                               00001               98855000CENTRO         ENTRE-IJUÌS                   RS00000000000078568                          50ED992B6AD89F3D92AF348247F52BDA
000654682870722032748151    ELOIR ROEHRS                       ESQUINA GA˙CHA                               00001               98855000CENTRO         ENTRE-IJUÌS                   RS00000000000078568                          50ED992B6AD89F3D92AF348247F52BDA
000368315730533016046041    ELOY GENZ                          ESQUINA GAUCHA                               00001               98855000INTERIOR       ENTRE-IJUÌS                   RS00000000000078787                          E7301421AB1B6601E5C190C51B8A74C3
000368315730533016046041    ELOY GENZ                          ESQUINA GAUCHA                               00001               98855000INTERIOR       ENTRE-IJUÌS                   RS00000000000078787                          E7301421AB1B6601E5C190C51B8A74C3
000419977430001026796886    EUGENIO WEBER                      RINC„O DOS QUEIROS                           00001               98855000INTEIROR       ENTRE-IJUÌS                   RS00000000000078820                          6CFBB077D9E1458523EE7B10FD3B026E
000419977430001026796886    EUGENIO WEBER                      RINC„O DOS QUEIROS                           00001               98855000INTEIROR       ENTRE-IJUÌS                   RS00000000000078820                          6CFBB077D9E1458523EE7B10FD3B026E
000485490020207039735357    FRANCISCO ALBERTO PRESTES          ESQUINA GAUCHA                               00001               98855000INTERIOR       ENTRE-IJUÌS                   RS00000000000078579                          CC31965D5D1FF866FD6210F67E686640
000485490020207039735357    FRANCISCO ALBERTO PRESTES          ESQUINA GAUCHA                               00001               98855000INTERIOR       ENTRE-IJUÌS                   RS00000000000078579                          CC31965D5D1FF866FD6210F67E686640
000896416980872055965848    HERCULANO CAMARGO DE OLIVEIRA      RUA INTEGRAÁAO                               00352SAL 02         98855000CENTRO         ENTRE-IJUÌS                   RS00000000000078591                          8029E348C7F9B2135DA0BC51100DD37C
000896416980872055965848    HERCULANO CAMARGO DE OLIVEIRA      RUA INTEGRAÁAO                               00352SAL 02         98855000CENTRO         ENTRE-IJUÌS                   RS00000000000078591                          8029E348C7F9B2135DA0BC51100DD37C
00077264363015ISENTO        HILMAR SCHEPKE                     ESQUINA MARCEL                               00001               98855000INTERIOR       ENTRE-IJUÌS                   RS00553329106278750                          E0390A69F940DE07799E8586F9A14B0E
00077264363015ISENTO        HILMAR SCHEPKE                     ESQUINA MARCEL                               00001               98855000INTERIOR       ENTRE-IJUÌS                   RS00553329106278750                          E0390A69F940DE07799E8586F9A14B0E
000336225400443018061956    JORGE ANTONIO DEZEM                RUA 3 DE OUTUBRO                             00679CX. POSTAL 001 98801970CENTRO         SANTO ¬NGELO                  RS00000000000078609                          F83553625159E84C8C3858CC215609FE
000336225400443018061956    JORGE ANTONIO DEZEM                RUA 3 DE OUTUBRO                             00679CX. POSTAL 001 98801970CENTRO         SANTO ¬NGELO                  RS00000000000078609                          F83553625159E84C8C3858CC215609FE
00005838444053ISENTO        LEVINO WEIDNANN                    RUA BRAULIO MARIO RIBAS                      00437               98855000CENTRO         ENTRE-IJUÌS                   RS00000000000078754                          9D587048B46274A9E5088CE1DABFDA5A
00005838444053ISENTO        LEVINO WEIDNANN                    RUA BRAULIO MARIO RIBAS                      00437               98855000CENTRO         ENTRE-IJUÌS                   RS00000000000078754                          9D587048B46274A9E5088CE1DABFDA5A
00040301842000ISENTO        SANTO LUIS PEDÛ                    RUA DOS IMIGRANTES                           00500               98801280OLIVEIRA       SANTO ¬NGELO                  RS00000000000078765                          13CA1C1BF8AD862AAA38E97FCC45393A
00040301842000ISENTO        SANTO LUIS PEDÛ                    RUA DOS IMIGRANTES                           00500               98801280OLIVEIRA       SANTO ¬NGELO                  RS00000000000078765                          13CA1C1BF8AD862AAA38E97FCC45393A
000654681630041047862303    TANIA SCHAURICH                    ESQUINA CARAGUATA                            00001               98855000INTERIOR       ENTRE-IJUÌS                   RS00559928892878712                          2719989300DF68154977B7590A3F08C6
000654681630041047862303    TANIA SCHAURICH                    ESQUINA CARAGUATA                            00001               98855000INTERIOR       ENTRE-IJUÌS                   RS00559928892878712                          2719989300DF68154977B7590A3F08C6
000043231730914017776768    AMARAL SOMAVILA                    ESQUINA EVANGÈLICA                           00001               98850000INTERIOR       VITÛRIA DAS MISSıES           RS00553614410478503                          78B949F8E5A21A3248CEE510F80B755E
000043231730914017776768    AMARAL SOMAVILA                    ESQUINA EVANGÈLICA                           00001               98850000INTERIOR       VITÛRIA DAS MISSıES           RS00553614410478503                          78B949F8E5A21A3248CEE510F80B755E
000702577870201051541223    CLAUDIO STEINHORST                 ESQ. BARICHELLO                              00001               98850000INTERIOR       VITÛRIA DAS MISSıES           RS00000000000078540                          8D6D03A3463ED666AC9150F6F31F3299
000702577870201051541223    CLAUDIO STEINHORST                 ESQ. BARICHELLO                              00001               98850000INTERIOR       VITÛRIA DAS MISSıES           RS00000000000078540                          8D6D03A3463ED666AC9150F6F31F3299
000445947390911034894814    EDEGAR MINETTO                     RUA DOS IMIGRANTES                           00693               98850000CENTRO         VITÛRIA DAS MISSıES           RS00553614415378571                          8CA66D06E26B4506FC7190A0A2CE6166
000445947390911034894814    EDEGAR MINETTO                     RUA DOS IMIGRANTES                           00693               98850000CENTRO         VITÛRIA DAS MISSıES           RS00553614415378571                          8CA66D06E26B4506FC7190A0A2CE6166
000275531400152010048491    FABIANO DOS SANTOS MOURA           RUA S„O JO„O BATISTA BR. 285 KM 512          00001               98850000ESQUINA MOURA  VITÛRIA DAS MISSıES           RS00000000000078741                          C86F3BA21F2EA10C1D27395062CC747C
000275531400152010048491    FABIANO DOS SANTOS MOURA           RUA S„O JO„O BATISTA BR. 285 KM 512          00001               98850000ESQUINA MOURA  VITÛRIA DAS MISSıES           RS00000000000078741                          C86F3BA21F2EA10C1D27395062CC747C
000559029520342053296411    LAURI MINETTO                      RUA DOS IMIGRANTES                           00541               98850000CENTRO         VITÛRIA DAS MISSıES           RS00000000000078633                          CE52D39588D1DBD785AF5C29437249ED
000559029520342053296411    LAURI MINETTO                      RUA DOS IMIGRANTES                           00541               98850000CENTRO         VITÛRIA DAS MISSıES           RS00000000000078633                          CE52D39588D1DBD785AF5C29437249ED
000449875520001034955029    NELIO MINETTO                      RUA DOS IMIGRANTES                           00567               98850000CENTRO         VITÛRIA DAS MISSıES           RS00553614419078719                          AF0A6DF97A75379F01841C4415B31118
000449875520001034955029    NELIO MINETTO                      RUA DOS IMIGRANTES                           00567               98850000CENTRO         VITÛRIA DAS MISSıES           RS00553614419078719                          AF0A6DF97A75379F01841C4415B31118
000357956540006020166887    OLINTO BURIN                       RUA 20 DE SETEMBRO                           00001               98850000CENTRO         VITÛRIA DAS MISSıES           RS00553614415178720                          45DD4EA4F0AF0764651608B81F5192AA
000357956540006020166887    OLINTO BURIN                       RUA 20 DE SETEMBRO                           00001               98850000CENTRO         VITÛRIA DAS MISSıES           RS00553614415178720                          45DD4EA4F0AF0764651608B81F5192AA
000423490280201029137112    PAULO ROBERTO COLETTO              RUA DOS IMIGRANTES                           01373               98850000CENTRO         VITÛRIA DAS MISSıES           RS00553614421478721                          08C7F1CE6888FEA7CA07ECB93F7DF00F
000423490280201029137112    PAULO ROBERTO COLETTO              RUA DOS IMIGRANTES                           01373               98850000CENTRO         VITÛRIA DAS MISSıES           RS00553614421478721                          08C7F1CE6888FEA7CA07ECB93F7DF00F
00045157910010ISENTO        ELOI BREMM                         BUTIA INFERIOR                               00001               97920000INTERIOR       S„O PEDRO DO BUTI·            RS00000000000078584                          B2BF0373AFDCD34E382108FE61472597
00045157910010ISENTO        ELOI BREMM                         BUTIA INFERIOR                               00001               97920000INTERIOR       S„O PEDRO DO BUTI·            RS00000000000078584                          B2BF0373AFDCD34E382108FE61472597
00027572609015ISENTO        ILDO JOSÈ SCHERER                  BUTI· INFERIOR                               00001               97920000INTERIOR       S„O PEDRO DO BUTI·            RS00000000000078602                          6F4DF0F0E31B66EF7D09E95B405D45BD
00027572609015ISENTO        ILDO JOSÈ SCHERER                  BUTI· INFERIOR                               00001               97920000INTERIOR       S„O PEDRO DO BUTI·            RS00000000000078602                          6F4DF0F0E31B66EF7D09E95B405D45BD
00033234361053ISENTO        RICARDO LUIS STEFFENS              VILA BUTI· INFERIOR                          00001               97920000INFERIOR       S„O PEDRO DO BUTI·            RS00000000000078701                          B4B8DE7F88753F93FAB63D6BB6AB02D5
00033234361053ISENTO        RICARDO LUIS STEFFENS              VILA BUTI· INFERIOR                          00001               97920000INFERIOR       S„O PEDRO DO BUTI·            RS00000000000078701                          B4B8DE7F88753F93FAB63D6BB6AB02D5
000705417010531064598251    PAULO CESAR ZAMIN                  TRAVESSA EDMUNDO STEIN                       00160               98955000CENTRO         NOVO MACHADO                  RS00000000000078686                          53E0C5624C55C9649098EFB8EF756D41
000705417010531064598251    PAULO CESAR ZAMIN                  TRAVESSA EDMUNDO STEIN                       00160               98955000CENTRO         NOVO MACHADO                  RS00000000000078686                          53E0C5624C55C9649098EFB8EF756D41
000034263780009026508052    BENO INACIO SCHMITT                ROLADOR ALTO                                 00001               98960000INTERIOR       SANTO CRISTO                  RS00000000000078800                          718AE12D205D21F7630CE6D2AA096E4A
000034263780009026508052    BENO INACIO SCHMITT                ROLADOR ALTO                                 00001               98960000INTERIOR       SANTO CRISTO                  RS00000000000078800                          718AE12D205D21F7630CE6D2AA096E4A
000217077580343021736586    ATILIO LUNARDI                     RUA LEONEL IEGER                             00393               98940000CENTRO         TUPARENDI                     RS00000000000078483                          4A177F9175C80786F9ADC58E4DB8E978
000217077580343021736586    ATILIO LUNARDI                     RUA LEONEL IEGER                             00393               98940000CENTRO         TUPARENDI                     RS00000000000078483                          4A177F9175C80786F9ADC58E4DB8E978
000217237100912024103489    FELIX CAPPELLARI                   RUA PEDRO BALUS                              00070               98940000CENTRO         TUPARENDI                     RS00000000000078581                          517CC83239C005C69D51EF72AE36A590
000217237100912024103489    FELIX CAPPELLARI                   RUA PEDRO BALUS                              00070               98940000CENTRO         TUPARENDI                     RS00000000000078581                          517CC83239C005C69D51EF72AE36A590
000489435500061035973955    BERNARDO ZALAMENA                  RUA HELMUTH GERLOFF                          00454               98940000INTERIOR       TUPARENDI                     RS00000000000078487                          DF0F8C6876E11CEF3DC324BCC72CCB1F
000489435500061035973955    BERNARDO ZALAMENA                  RUA HELMUTH GERLOFF                          00454               98940000INTERIOR       TUPARENDI                     RS00000000000078487                          DF0F8C6876E11CEF3DC324BCC72CCB1F
000801937060919057020613    CESAR LUIS DILLMANN                LINHA BELINHA CENTRO                         00001               98960000INTERIOR       SANTO CRISTO                  RS00000000000078527                          BE3E92BAD12CEF0F63D5B510D9327F5F
000801937060919057020613    CESAR LUIS DILLMANN                LINHA BELINHA CENTRO                         00001               98960000INTERIOR       SANTO CRISTO                  RS00000000000078527                          BE3E92BAD12CEF0F63D5B510D9327F5F
000245716600494021275948    CLAUDIO FRANCISCO DALCIN           VILA S„O ROQUE                               00001               98940000INTERIOR       TUPARENDI                     RS00000000000078531                          64B293A5AAD748325AA305219E02B7CF
000245716600494021275948    CLAUDIO FRANCISCO DALCIN           VILA S„O ROQUE                               00001               98940000INTERIOR       TUPARENDI                     RS00000000000078531                          64B293A5AAD748325AA305219E02B7CF
000460555090916044700414    IVAR DUARTE                        LAJEADO MANCHINHA                            00001               98900000INTERIOR       SANTA ROSA                    RS00000000000078788                          29DE17A6018E1CAA2CFF97EE927161CB
000460555090916044700414    IVAR DUARTE                        LAJEADO MANCHINHA                            00001               98900000INTERIOR       SANTA ROSA                    RS00000000000078788                          29DE17A6018E1CAA2CFF97EE927161CB
000441836580046034973435    MILTON JOSÈ DIEL                   LINHA ROLADOR BAIXO                          00001               98960000INTERIOR       SANTO CRISTO                  RS00000000000078810                          8B8A813F62E0F9267970FC727450AD96
000441836580046034973435    MILTON JOSÈ DIEL                   LINHA ROLADOR BAIXO                          00001               98960000INTERIOR       SANTO CRISTO                  RS00000000000078810                          8B8A813F62E0F9267970FC727450AD96
000551078180723042611933    VITOR ANTONIO CARPENEDO            VILA S„O ROQUE                               00772CXP.:2576      98940000CENTRO         TUPARENDI                     RS00000000000078726                          AFF33E99D0AEF8A231E41C614F73974F
000551078180723042611933    VITOR ANTONIO CARPENEDO            VILA S„O ROQUE                               00772CXP.:2576      98940000CENTRO         TUPARENDI                     RS00000000000078726                          AFF33E99D0AEF8A231E41C614F73974F
000523002930727044727845    DECIO RAMBO                        VILA SIRIO                                   00001               98960000INTERIOR       SANTO CRISTO                  RS00000000000078801                          640DB1EB5919834D551867D1BCC3AF4F
000523002930727044727845    DECIO RAMBO                        VILA SIRIO                                   00001               98960000INTERIOR       SANTO CRISTO                  RS00000000000078801                          640DB1EB5919834D551867D1BCC3AF4F
00044722320063ISENTO        ERALDO RAMBO                       VILA SÌRIO                                   00001               98960000INTERIOR       SANTO CRISTO                  RS00553541504878557                          691042E72FE0E8C4FD584B31C24CA057
00044722320063ISENTO        ERALDO RAMBO                       VILA SÌRIO                                   00001               98960000INTERIOR       SANTO CRISTO                  RS00553541504878557                          691042E72FE0E8C4FD584B31C24CA057
000602708880045050150621    JO„O ROQUE MADERS                  DONA BELINHA                                 00001               98960000INTERIOR       SANTO CRISTO                  RS00000000000078625                          C849CAF8F1FD9066CB5C57FBD7A5367F
000602708880045050150621    JO„O ROQUE MADERS                  DONA BELINHA                                 00001               98960000INTERIOR       SANTO CRISTO                  RS00000000000078625                          C849CAF8F1FD9066CB5C57FBD7A5367F
000962891470728056355798    ANGELA DE FARIA MARASCHIN          RUA JULIO LEOPOLDO RAUBER                    00162               98900000CENTRO         SANTA ROSA                    RS00000000000078508                          C132509A9B3313629D4D435D4F2B8861
000962891470728056355798    ANGELA DE FARIA MARASCHIN          RUA JULIO LEOPOLDO RAUBER                    00162               98900000CENTRO         SANTA ROSA                    RS00000000000078508                          C132509A9B3313629D4D435D4F2B8861
00021696624053ISENTO        ROMEU ALOISIO LOEBENS              RUA VEREADOR ASSMANN                         00585               98960000CENTRO         SANTO CRISTO                  RS00000000000078674                          FE27BBA6F2CD586D7C8299CED8CF6A80
00021696624053ISENTO        ROMEU ALOISIO LOEBENS              RUA VEREADOR ASSMANN                         00585               98960000CENTRO         SANTO CRISTO                  RS00000000000078674                          FE27BBA6F2CD586D7C8299CED8CF6A80
000438424020151026770188    SERGIO FRANCISCO CAPPELLARI        GUIA LOPES CXP.:38                           00001               98900000INTERIOR       SANTA ROSA                    RS00553513928178724                          709BC40F3EACA5DE9606D08F9D07ACBF
000438424020151026770188    SERGIO FRANCISCO CAPPELLARI        GUIA LOPES CXP.:38                           00001               98900000INTERIOR       SANTA ROSA                    RS00553513928178724                          709BC40F3EACA5DE9606D08F9D07ACBF
000332306410004009708365    VALDERINO WIELAND                  LINHA SETE DE SETEMBRO NORTE                 00001               98900000INTERIOR       SANTA ROSA                    RS00000000000078795                          EFD3B7DEF69E9537B0280F490B661D60
000332306410004009708365    VALDERINO WIELAND                  LINHA SETE DE SETEMBRO NORTE                 00001               98900000INTERIOR       SANTA ROSA                    RS00000000000078795                          EFD3B7DEF69E9537B0280F490B661D60
00033215391015ISENTO        DÈCIO BOKORNI                      LINHA SALTO                                  00055               98960000CENTRO         SANTO CRISTO                  RS00000000000078546                          98DCB1373623FED906DFBB16129E1ADC
00033215391015ISENTO        DÈCIO BOKORNI                      LINHA SALTO                                  00055               98960000CENTRO         SANTO CRISTO                  RS00000000000078546                          98DCB1373623FED906DFBB16129E1ADC
00078408555987ISENTO        MARIA INES JOHANN KULZERS          RUA 25 DE JULHO                              00133               98960000CENTRO         SANTO CRISTO                  RS00000000000078742                          2621777BA7CC4BEDB698D48E2ED7B33A
00078408555987ISENTO        MARIA INES JOHANN KULZERS          RUA 25 DE JULHO                              00133               98960000CENTRO         SANTO CRISTO                  RS00000000000078742                          2621777BA7CC4BEDB698D48E2ED7B33A
00054855020087ISENTO        MILTON BRUISMAMM                   LINHA DIVISA                                 00001               98960000INTERIOR       SANTO CRISTO                  RS00000000000078646                          149AD46A1CCA16D8AA4BC15F18DD427C
00054855020087ISENTO        MILTON BRUISMAMM                   LINHA DIVISA                                 00001               98960000INTERIOR       SANTO CRISTO                  RS00000000000078646                          149AD46A1CCA16D8AA4BC15F18DD427C
000892294870151042321933    MIRIA INES BECKER DIEL             LINHA ROLADOR BAIXO                          00001               98960000INTERIOR       SANTO CRISTO                  RS00000000000078649                          4A2B56FB6D753BAD7E0517C2BEF11FC6
000892294870151042321933    MIRIA INES BECKER DIEL             LINHA ROLADOR BAIXO                          00001               98960000INTERIOR       SANTO CRISTO                  RS00000000000078649                          4A2B56FB6D753BAD7E0517C2BEF11FC6
00044169051068ISENTO        PAULO CEZAR BOGORNI                LINHA SALTO                                  00001               98960000INTERIOR       SANTO CRISTO                  RS00000000000078673                          FB7982D2DB87FC504C5757DAF72C23AB
00044169051068ISENTO        PAULO CEZAR BOGORNI                LINHA SALTO                                  00001               98960000INTERIOR       SANTO CRISTO                  RS00000000000078673                          FB7982D2DB87FC504C5757DAF72C23AB
000309172710685069321874    ROMEU JUNG                         LINHA SALTO                                  00001               98960000INTERIOR       SANTO CRISTO                  RS00000000000078681                          27B28ABFB997A3041108DCDE4D08E15A
000309172710685069321874    ROMEU JUNG                         LINHA SALTO                                  00001               98960000INTERIOR       SANTO CRISTO                  RS00000000000078681                          27B28ABFB997A3041108DCDE4D08E15A
000411008160201026453711    ROQUE BENTO KNEBEL                 RUA AMANDAU                                  00097SALA 05        98960000CENTRO         SANTO CRISTO                  RS00000000000078682                          784AAF4A5127F1536896ED444816FC53
000411008160201026453711    ROQUE BENTO KNEBEL                 RUA AMANDAU                                  00097SALA 05        98960000CENTRO         SANTO CRISTO                  RS00000000000078682                          784AAF4A5127F1536896ED444816FC53
00036488356020ISENTO        WALDIR LUIS PETERS                 LINHA DIVISA                                 00001               98960000INTERIOR       SANTO CRISTO                  RS00000000000078679                          45F0CEE04333F1D2C78A31856650A1A8
00036488356020ISENTO        WALDIR LUIS PETERS                 LINHA DIVISA                                 00001               98960000INTERIOR       SANTO CRISTO                  RS00000000000078679                          45F0CEE04333F1D2C78A31856650A1A8
000599232700251127453206    ADELAR BERNARDI                    CINQUENTENARIO                               00001               98940000INTERIOR       TUPARENDI                     RS00000000000078481                          E6A886DF7C47295E21BEC8E7D33A6323
000599232700251127453206    ADELAR BERNARDI                    CINQUENTENARIO                               00001               98940000INTERIOR       TUPARENDI                     RS00000000000078481                          E6A886DF7C47295E21BEC8E7D33A6323
000555777170001044705984    ADELIR ROPKE                       CINQUENTENARIO                               00001               98946000INTERIOR       TUPARENDI                     RS00000000000078482                          94244616530509E8091F75250BBE67EB
000555777170001044705984    ADELIR ROPKE                       CINQUENTENARIO                               00001               98946000INTERIOR       TUPARENDI                     RS00000000000078482                          94244616530509E8091F75250BBE67EB
000438432800104035806258    ADEMAR PALAVER                     RUA RIACHUELO                                00017               98940000CIQUENTENARIO  TUPARENDI                     RS00000000000078823                          F34011DC44AB9637CD984D9942DDD06C
000438432800104035806258    ADEMAR PALAVER                     RUA RIACHUELO                                00017               98940000CIQUENTENARIO  TUPARENDI                     RS00000000000078823                          F34011DC44AB9637CD984D9942DDD06C
00030901820091ISENTO        ADELIR TRENTIN                     CINQUNETENARIO                               00001               98940000INTERIOR       TUPARENDI                     RS00000000000078778                          E515CD83EC258E23844E48F5C4E12CD7
00030901820091ISENTO        ADELIR TRENTIN                     CINQUNETENARIO                               00001               98940000INTERIOR       TUPARENDI                     RS00000000000078778                          E515CD83EC258E23844E48F5C4E12CD7
000757984920879044712819    ELAINE M¸LLER BATAGLION            CINQUENTENARIO                               00001               98946000INTERIOR       TUPARENDI                     RS00000000000078561                          DF12C733C1D80AA97798D67F2D29CAB3
000757984920879044712819    ELAINE M¸LLER BATAGLION            CINQUENTENARIO                               00001               98946000INTERIOR       TUPARENDI                     RS00000000000078561                          DF12C733C1D80AA97798D67F2D29CAB3
000757978790341052373386    ELTON ABITANTE                     CINQUENTENARIO                               00001               98940000INTERIOR       TUPARENDI                     RS00000000000078562                          91CC58281398A7CB24EF8397434A30A5
000757978790341052373386    ELTON ABITANTE                     CINQUENTENARIO                               00001               98940000INTERIOR       TUPARENDI                     RS00000000000078562                          91CC58281398A7CB24EF8397434A30A5
000273879250204024716989    HELDER MARIN                       CINQUENTENARIO                               00001               98946000INTERIOR       TUPARENDI                     RS00553595114978592                          27E87B20BACC3D21B29D0D4342FCB6FD
000273879250204024716989    HELDER MARIN                       CINQUENTENARIO                               00001               98946000INTERIOR       TUPARENDI                     RS00553595114978592                          27E87B20BACC3D21B29D0D4342FCB6FD
000387953700306012480213    IRES PERIN JASKOWIAK               CINQUENTENARIO                               00001               98940000INTERIOR       TUPARENDI                     RS00553595107478597                          6F7CC0105A329F760E4CFF8255B878FE
000387953700306012480213    IRES PERIN JASKOWIAK               CINQUENTENARIO                               00001               98940000INTERIOR       TUPARENDI                     RS00553595107478597                          6F7CC0105A329F760E4CFF8255B878FE
000387923890157022159136    IVO JO„O RIGON                     CINQUENTENARIO                               00001               98946000INTERIOR       TUPARENDI                     RS00000000000078596                          85D989EE3237C8C50EF2E363CBFEFAFC
000387923890157022159136    IVO JO„O RIGON                     CINQUENTENARIO                               00001               98946000INTERIOR       TUPARENDI                     RS00000000000078596                          85D989EE3237C8C50EF2E363CBFEFAFC
000245708690687010050099    JAIR ANTÙNIO BRUM                  VILA CINQUENTENARIO                          00001               98946000INTERIOR       TUPARENDI                     RS00553595102078620                          44F3A8C9B2834B51D6E8BB25609B66E6
000245708690687010050099    JAIR ANTÙNIO BRUM                  VILA CINQUENTENARIO                          00001               98946000INTERIOR       TUPARENDI                     RS00553595102078620                          44F3A8C9B2834B51D6E8BB25609B66E6
000937912080046068683405    JHONI FACCHINELLO                  VILA CINQUENTENARIO                          00001               98946000INTERIOR       TUPARENDI                     RS00553595106378619                          282CBF8B7A352B4A4230C1F940A96569
000937912080046068683405    JHONI FACCHINELLO                  VILA CINQUENTENARIO                          00001               98946000INTERIOR       TUPARENDI                     RS00553595106378619                          282CBF8B7A352B4A4230C1F940A96569
000493224940345012287297    JULIO CEZAR BRUN                   VILA CINQUENTENARIO                          00001               98946000INTERIOR       TUPARENDI                     RS00553595112378621                          A96BB5EDCF4EC581364E3816AE5E36D3
000493224940345012287297    JULIO CEZAR BRUN                   VILA CINQUENTENARIO                          00001               98946000INTERIOR       TUPARENDI                     RS00553595112378621                          A96BB5EDCF4EC581364E3816AE5E36D3
000938464360201018617934    LEONARDO DE CONTI                  VILA CINQUETENARIO                           00001               98946000CENTRO         TUPARENDI                     RS00000000000078636                          CCF53FCC91C5FD5C589FC79DDF710436
000938464360201018617934    LEONARDO DE CONTI                  VILA CINQUETENARIO                           00001               98946000CENTRO         TUPARENDI                     RS00000000000078636                          CCF53FCC91C5FD5C589FC79DDF710436
000387931640684019698911    LUIZ CARLOS ZAMIN                  VILA CINQUENTENARIO                          00001               98940000INTERIOR       TUPARENDI                     RS00553595105278634                          FDA75FFB8A7D6437E5A8DF98211371A6
000387931640684019698911    LUIZ CARLOS ZAMIN                  VILA CINQUENTENARIO                          00001               98940000INTERIOR       TUPARENDI                     RS00553595105278634                          FDA75FFB8A7D6437E5A8DF98211371A6
0001165847906810230186797   LUIZ PIROCCA                       VILA CINQUENTENARIO                          00001               98940000INTERIOR       TUPARENDI                     RS00553595105578635                          FCF20307D1328CEF0D7BFE625B549C9D
0001165847906810230186797   LUIZ PIROCCA                       VILA CINQUENTENARIO                          00001               98940000INTERIOR       TUPARENDI                     RS00553595105578635                          FCF20307D1328CEF0D7BFE625B549C9D
000927731840687062411595    MARCELO BIN                        CINQUENTENARIO                               00001               98946000INTERIOR       TUPARENDI                     RS00553595112978656                          0986CEF109B48948EC7646A4EE49DE69
000927731840687062411595    MARCELO BIN                        CINQUENTENARIO                               00001               98946000INTERIOR       TUPARENDI                     RS00553595112978656                          0986CEF109B48948EC7646A4EE49DE69
000946443140721073683714    MARCIO ANDRE GOLIN                 CINQUENTENARIO                               00001               98940000INTERIOR       TUPARENDI                     RS00000000000078777                          E85B9524E3902E20DBE4063147B8259C
000946443140721073683714    MARCIO ANDRE GOLIN                 CINQUENTENARIO                               00001               98940000INTERIOR       TUPARENDI                     RS00000000000078777                          E85B9524E3902E20DBE4063147B8259C
000911116760203052373391    MARCOS ANTONIO BERNARDI            S„O JOSÈ DO MAU·                             00001               98947000INTERIOR       PORTO MAU·                    RS00000000000078657                          C10F973C1281D3B6C654B88F5FA42EFA
000911116760203052373391    MARCOS ANTONIO BERNARDI            S„O JOSÈ DO MAU·                             00001               98947000INTERIOR       PORTO MAU·                    RS00000000000078657                          C10F973C1281D3B6C654B88F5FA42EFA
0001346057907280028245      OMAR BIN                           VILA CINQUENTENARIO                          00001               98946000INTERIOR       TUPARENDI                     RS00553595100178729                          8424619278ECF383DA53D7C6CA5A1ABD
0001346057907280028245      OMAR BIN                           VILA CINQUENTENARIO                          00001               98946000INTERIOR       TUPARENDI                     RS00553595100178729                          8424619278ECF383DA53D7C6CA5A1ABD
000199527160879018152257    VILI NERI MAYER HEMMIL„            RUA URUGUAIANA                               00046               98900000SULINA         SANTA ROSA                    RS00000000000078725                          16DB58143286B06EFC6B9371008B9A89
000199527160879018152257    VILI NERI MAYER HEMMIL„            RUA URUGUAIANA                               00046               98900000SULINA         SANTA ROSA                    RS00000000000078725                          16DB58143286B06EFC6B9371008B9A89
000885212570155025382135    HERTA REGINA CASSEL                RUA TOLEDO                                   00105               98900000VILA ESPERANÁA SANTA ROSA                    RS00553512387578811                          2710F55C16AE1B7ABA4BF93CABE0F779
000885212570155025382135    HERTA REGINA CASSEL                RUA TOLEDO                                   00105               98900000VILA ESPERANÁA SANTA ROSA                    RS00553512387578811                          2710F55C16AE1B7ABA4BF93CABE0F779
000275286420539011155927    MILTON CARLOS ABEGG                RUA JULIO LEOPOLDO RAUBERT                   00162               98900000CENTRO NORTE   SANTA ROSA                    RS00000000000078652                          24B21091A2EFDB6216D5EB0B857D2F8A
000275286420539011155927    MILTON CARLOS ABEGG                RUA JULIO LEOPOLDO RAUBERT                   00162               98900000CENTRO NORTE   SANTA ROSA                    RS00000000000078652                          24B21091A2EFDB6216D5EB0B857D2F8A
000664236940873051530537    ELEANDRO ALEXANDRE KOCHHANN        RUA OSVALDO CRUZ                             00225AP. 301        98900000CENTRO         SANTA ROSA                    RS00000000000078573                          A94CF91557E62543E2FF67AA343C1B46
000664236940873051530537    ELEANDRO ALEXANDRE KOCHHANN        RUA OSVALDO CRUZ                             00225AP. 301        98900000CENTRO         SANTA ROSA                    RS00000000000078573                          A94CF91557E62543E2FF67AA343C1B46
000247150340341001508041    ALFREDO JANSTCH                    RUA GUAIRA                                   00520VILA ESPERANÁA 98900000S„O FRANCISCO  SANTA ROSA                    RS00000000000078509                          96A963F21D26E21CB195A37A743A9D04
000247150340341001508041    ALFREDO JANSTCH                    RUA GUAIRA                                   00520VILA ESPERANÁA 98900000S„O FRANCISCO  SANTA ROSA                    RS00000000000078509                          96A963F21D26E21CB195A37A743A9D04
000275116000005014604903    LUIZ CARLOS BECKER                 RUA SINVAL SALDANHA                          00405               98900000PLANALTO       SANTA ROSA                    RS00553511117778624                          1E4D7F57363978A47E4B53E31C5359EC
000275116000005014604903    LUIZ CARLOS BECKER                 RUA SINVAL SALDANHA                          00405               98900000PLANALTO       SANTA ROSA                    RS00553511117778624                          1E4D7F57363978A47E4B53E31C5359EC
000212555470492009618584    LUIS FRANCISCO SCHENEIDER          LINHA PASSO NOVO                             00001               97930000INTERIOR       CAIBATÈ                       RS00000000000078630                          5EB8B28836E9AD0D2DDEBB3ABB8043BE
000212555470492009618584    LUIS FRANCISCO SCHENEIDER          LINHA PASSO NOVO                             00001               97930000INTERIOR       CAIBATÈ                       RS00000000000078630                          5EB8B28836E9AD0D2DDEBB3ABB8043BE
000460942020151034161529    LEANDRO FRIZO                      AV. BORGES DO CANTO                          00975               98865000CENTRO         S„O MIGUEL DAS MISSıES        RS00000000000078827                          A3097C02FDE4519CF3EE43E6481CD824
000460942020151034161529    LEANDRO FRIZO                      AV. BORGES DO CANTO                          00975               98865000CENTRO         S„O MIGUEL DAS MISSıES        RS00000000000078827                          A3097C02FDE4519CF3EE43E6481CD824
000828673050047083440987    SILVANA SILVEIRA DOBLER            AV BRASIL                                    00165               98801590BOA ESPERANCA  SANTO ¬NGELO                  RS00553505701878689                          612B2512452423B1FA40E9B740FCAAD8
000828673050047083440987    SILVANA SILVEIRA DOBLER            AV BRASIL                                    00165               98801590BOA ESPERANCA  SANTO ¬NGELO                  RS00553505701878689                          612B2512452423B1FA40E9B740FCAAD8
00037747010087ISENTO        GERVASIO JOSE LOFF                 RUA MATO GROSSO                              00049               98960000CENTRO         SANTO CRISTO                  RS00000000000078749                          F17B11D26D5C0DDF8F17A5541A5CCB1A
00037747010087ISENTO        GERVASIO JOSE LOFF                 RUA MATO GROSSO                              00049               98960000CENTRO         SANTO CRISTO                  RS00000000000078749                          F17B11D26D5C0DDF8F17A5541A5CCB1A
00074919008015ISENTO        JAQUELINE MIETH                    RUA MINAS GERAIS                             02490               98960000CENTRO         SANTO CRISTO                  RS00553541259678613                          4DFE28704BAB81C04DE78B704670A2F4
00074919008015ISENTO        JAQUELINE MIETH                    RUA MINAS GERAIS                             02490               98960000CENTRO         SANTO CRISTO                  RS00553541259678613                          4DFE28704BAB81C04DE78B704670A2F4
00030988667053ISENTO        AFONSO K. KUNKEL                   LINHA SANTA TEREZINHA                        00001               97920000INTERIOR       S„O PEDRO DO BUTI·            RS00000000000078490                          DD20E29BCDB374AF3A20E298681269F8
00030988667053ISENTO        AFONSO K. KUNKEL                   LINHA SANTA TEREZINHA                        00001               97920000INTERIOR       S„O PEDRO DO BUTI·            RS00000000000078490                          DD20E29BCDB374AF3A20E298681269F8
000515209400251026528371    EVANIOS GRUNDEMANN FENNER          ESQUINA FATIMA                               00001               97970000INTERIOR       ROQUE GONZALES                RS00000000000078567                          70DA32927B03A1EA5EFF000EFAD0556E
000515209400251026528371    EVANIOS GRUNDEMANN FENNER          ESQUINA FATIMA                               00001               97970000INTERIOR       ROQUE GONZALES                RS00000000000078567                          70DA32927B03A1EA5EFF000EFAD0556E
000332338880152020215195    INACIO LUIZ KIPPER HASS            VILA DONA OTILIA                             00001               97970000INTERIOR       ROQUE GONZALES                RS00000000000078604                          67A645DF981176811A232A6B158D7A39
000332338880152020215195    INACIO LUIZ KIPPER HASS            VILA DONA OTILIA                             00001               97970000INTERIOR       ROQUE GONZALES                RS00000000000078604                          67A645DF981176811A232A6B158D7A39
000357290150208022735933    JO„O AFONSO KOTZ                   ESQUINA FATIMA                               00001               97970000INTERIOR       ROQUE GONZALES                RS00000000000078606                          E1EAB271604FE86D4A424E9846649417
000357290150208022735933    JO„O AFONSO KOTZ                   ESQUINA FATIMA                               00001               97970000INTERIOR       ROQUE GONZALES                RS00000000000078606                          E1EAB271604FE86D4A424E9846649417
00000049273035ISENTO        JUNIO SCHARDONG                    RUA 25 DE JULHO                              00001               97920000INTERIOR       S„O PEDRO DO BUTI·            RS00000000000078610                          7358DC644A37541C82EC0EA4F2204C54
00000049273035ISENTO        JUNIO SCHARDONG                    RUA 25 DE JULHO                              00001               97920000INTERIOR       S„O PEDRO DO BUTI·            RS00000000000078610                          7358DC644A37541C82EC0EA4F2204C54
000457669400681039741804    LAURI HECK                         LINHA TAIP„O FRENTE                          00001               97920000INTERIOR       S„O PEDRO DO BUTI·            RS00000000000078637                          7514683370825E89A672DAE1B98C399A
000457669400681039741804    LAURI HECK                         LINHA TAIP„O FRENTE                          00001               97920000INTERIOR       S„O PEDRO DO BUTI·            RS00000000000078637                          7514683370825E89A672DAE1B98C399A
000588749920687027851976    NEDI LEONORA MAYER MATTES          RUA PEDRO THOMAS                             00702               97920000CENTRO         S„O PEDRO DO BUTI·            RS00553369111678666                          694B175A3A2FDAEB11C37A8600F2F090
000588749920687027851976    NEDI LEONORA MAYER MATTES          RUA PEDRO THOMAS                             00702               97920000CENTRO         S„O PEDRO DO BUTI·            RS00553369111678666                          694B175A3A2FDAEB11C37A8600F2F090
00030980640059ISENTO        OLANDO LIMBERGER                   TAIP„O FRENTE                                00001               97920000INTERIOR       S„O PEDRO DO BUTI·            RS00000000000078762                          6A807FA41D9CCC5E8568E978CFC4C696
00030980640059ISENTO        OLANDO LIMBERGER                   TAIP„O FRENTE                                00001               97920000INTERIOR       S„O PEDRO DO BUTI·            RS00000000000078762                          6A807FA41D9CCC5E8568E978CFC4C696
0000358569702020115832922   ROQUE ARENHART                     ROMILDO SCHNEIDER                            00910               97920000CENTRO         S„O PEDRO DO BUTI·            RS00000000000078697                          2429B123396FBB9141691899BDD7882E
0000358569702020115832922   ROQUE ARENHART                     ROMILDO SCHNEIDER                            00910               97920000CENTRO         S„O PEDRO DO BUTI·            RS00000000000078697                          2429B123396FBB9141691899BDD7882E
000372458130001035054591    ROQUE INACIO ANGNES LIMBERGER      LINHA SANTA TERESINHA                        00001               97920000INTERIOR       S„O PEDRO DO BUTI·            RS00000000000078700                          108EC4D192F87A36A9B3EF44A8D4587F
000372458130001035054591    ROQUE INACIO ANGNES LIMBERGER      LINHA SANTA TERESINHA                        00001               97920000INTERIOR       S„O PEDRO DO BUTI·            RS00000000000078700                          108EC4D192F87A36A9B3EF44A8D4587F
00043368484087ISENTO        VIRO LIMBERGER                     VILA TIP„O                                   00001               97920000INTERIOR       S„O PEDRO DO BUTI·            RS00000000000078706                          196BBC436F29A190D75CEF8A13B8A2A0
00043368484087ISENTO        VIRO LIMBERGER                     VILA TIP„O                                   00001               97920000INTERIOR       S„O PEDRO DO BUTI·            RS00000000000078706                          196BBC436F29A190D75CEF8A13B8A2A0
000523705930915014958853    ALBANO ALLES                       S„O FRANCISCO                                00001               97900000INTERIOR       CERRO LARGO                   RS00000000000078505                          7170B1157FE8A33A553E138BF5D6BD17
000523705930915014958853    ALBANO ALLES                       S„O FRANCISCO                                00001               97900000INTERIOR       CERRO LARGO                   RS00000000000078505                          7170B1157FE8A33A553E138BF5D6BD17
00030884870006ISENTO        NOLAR ALLES                        SAO FRANCISCO                                00001               97900000INTERIOR       CERRO LARGO                   RS00553505753878662                          BDFC599C00DBAAB53F30B06A0E8D1762
00030884870006ISENTO        NOLAR ALLES                        SAO FRANCISCO                                00001               97900000INTERIOR       CERRO LARGO                   RS00553505753878662                          BDFC599C00DBAAB53F30B06A0E8D1762
000331013880153017632351    ADEMIR JOSE CAPELLETI              COLONIA DAS ALMAS                            00001               98770000INTERIOR       CATUÌPE                       RS00000000000078848                          22837D4265DE8167F920BA07029EB0F1
000331013880153017632351    ADEMIR JOSE CAPELLETI              COLONIA DAS ALMAS                            00001               98770000INTERIOR       CATUÌPE                       RS00000000000078848                          22837D4265DE8167F920BA07029EB0F1
