06031727000112ISENTO        CRESOL                             RS140078484       20120701210010000000013963833195DDA2EF1DF475DAA7C75890000000009490000000009490000000000000000000000000000000000000N1207000000002                 9E54694AACFCC3EE8875603EB8611AE7
06031727000112ISENTO        CRESOL                             RS140078484       20120701210010000000013963833195DDA2EF1DF475DAA7C75890000000009490000000009490000000000000000000000000000000000000N1207000000002                 9E54694AACFCC3EE8875603EB8611AE7
89095368000194ISENTO        COM. COMB. BERRES & KLERING LTDA   RS140078526       20120701210010000000026E05537A40123788893AC3FFB877A682000000007990000000007990000000000000000000000000000000000000N1207000000004                 055F6A30F91E882E30C81104C403FC9F
89095368000194ISENTO        COM. COMB. BERRES & KLERING LTDA   RS140078526       20120701210010000000026E05537A40123788893AC3FFB877A682000000007990000000007990000000000000000000000000000000000000N1207000000004                 055F6A30F91E882E30C81104C403FC9F
09631791000122ISENTO        JOSÈ EMILIO HEINEN E CIA LTDA      RS140078614       20120701210010000000035B03913C15BEB226BEEE13A3B79E4E38000000009490000000009490000000000000000000000000000000000000N1207000000006                 2B104C1080E7925649E5A2C7E3425528
09631791000122ISENTO        JOSÈ EMILIO HEINEN E CIA LTDA      RS140078614       20120701210010000000035B03913C15BEB226BEEE13A3B79E4E38000000009490000000009490000000000000000000000000000000000000N1207000000006                 2B104C1080E7925649E5A2C7E3425528
91212035000140ISENTO        MARIGEL COM. VAR. DE PROD. COSMETICRS140078757       2012070121001000000004A59B877B5F2387CD14B1E92F66ADF1B0000000007990000000007990000000000000000000000000000000000000N1207000000008                 1C87BEB5B0465CD20B7373F8476A6A5E
91212035000140ISENTO        MARIGEL COM. VAR. DE PROD. COSMETICRS140078757       2012070121001000000004A59B877B5F2387CD14B1E92F66ADF1B0000000007990000000007990000000000000000000000000000000000000N1207000000008                 1C87BEB5B0465CD20B7373F8476A6A5E
96416151000102116/0000740   SERRA FITA SEIBERT INDUSTRIA E COMERS140078767       201207012100100000000580146714E732636151EEB085799AC346000000009490000000009490000000000000000000000000000000000000N1207000000010                 B71D1C3886343F0FDBE8BDD7A8ABFFB0
96416151000102116/0000740   SERRA FITA SEIBERT INDUSTRIA E COMERS140078767       201207012100100000000580146714E732636151EEB085799AC346000000009490000000009490000000000000000000000000000000000000N1207000000010                 B71D1C3886343F0FDBE8BDD7A8ABFFB0
00025749986004ISENTO        DONATO HEINEN                      RS340078548       20120701210010000000060D017FF034BEBBA99F3EA680DA8233C2000000003000000000003000000000000000000000000000000000000000N1207000000012                 73F5A755830077D8B1845375F54EBE5B
00025749986004ISENTO        DONATO HEINEN                      RS340078548       20120701210010000000060D017FF034BEBBA99F3EA680DA8233C2000000003000000000003000000000000000000000000000000000000000N1207000000012                 73F5A755830077D8B1845375F54EBE5B
00096070447034ISENTO        MARCIO GERHARDT                    RS340078756       20120701210010000000076416D04811555F778B41777DF647F6DC000000007990000000007990000000000000000000000000000000000000N1207000000014                 AB763512CE84DDB26D8C84B2DA0CD39D
00096070447034ISENTO        MARCIO GERHARDT                    RS340078756       20120701210010000000076416D04811555F778B41777DF647F6DC000000007990000000007990000000000000000000000000000000000000N1207000000014                 AB763512CE84DDB26D8C84B2DA0CD39D
00030912300078ISENTO        SANDRA HEINEN                      RS340078764       2012070121001000000008B396FB99217B922883BAD63A464AC78A000000005990000000005990000000000000000000000000000000000000N1207000000016                 0AA13EC93FDEFBD534964545517C0F30
00030912300078ISENTO        SANDRA HEINEN                      RS340078764       2012070121001000000008B396FB99217B922883BAD63A464AC78A000000005990000000005990000000000000000000000000000000000000N1207000000016                 0AA13EC93FDEFBD534964545517C0F30
000884557000259036630011    IRANI ANA ROCKEMBACH               RS340078599       201207012100100000000953EB04F5992F441611F8515F47F6F2F4000000007990000000007990000000000000000000000000000000000000N1207000000018                 33D4539D58714DD310F17E8ABC77A04A
000884557000259036630011    IRANI ANA ROCKEMBACH               RS340078599       201207012100100000000953EB04F5992F441611F8515F47F6F2F4000000007990000000007990000000000000000000000000000000000000N1207000000018                 33D4539D58714DD310F17E8ABC77A04A
87612990000105ISENTO        PREFEITURA MUNICIPAL DE CERRO LARGORS140078736       20120701210010000000103DFC20BBDD9F9836FF3BCA47E4BE6FE4000000028470000000028470000000000000000000000000000000000000N1207000000020                 650AFDD2570CC73D59A5B8F5C522D54A
87612990000105ISENTO        PREFEITURA MUNICIPAL DE CERRO LARGORS140078736       20120701210010000000103DFC20BBDD9F9836FF3BCA47E4BE6FE4000000028470000000028470000000000000000000000000000000000000N1207000000020                 650AFDD2570CC73D59A5B8F5C522D54A
000671138340002058901949    ROSANE HANZEN DA ROSA              RS340078814       201207012100100000001193F6619F51A304551CE15F42121A49DE000000007990000000007990000000000000000000000000000000000000N1207000000026                 9A3C8988985C4932C24EEA6CC6A14FB7
000671138340002058901949    ROSANE HANZEN DA ROSA              RS340078814       201207012100100000001193F6619F51A304551CE15F42121A49DE000000007990000000007990000000000000000000000000000000000000N1207000000026                 9A3C8988985C4932C24EEA6CC6A14FB7
000994585350345069316544    JAIME SOARES PINTO                 RS340078615       2012070121001000000012F2F4D18986652FC18241BC8B2AF0D1E6000000007990000000007990000000000000000000000000000000000000N1207000000028                 9F80EF0C6FCAB4FC430F1E316B70E32B
000994585350345069316544    JAIME SOARES PINTO                 RS340078615       2012070121001000000012F2F4D18986652FC18241BC8B2AF0D1E6000000007990000000007990000000000000000000000000000000000000N1207000000028                 9F80EF0C6FCAB4FC430F1E316B70E32B
93592715000161ISENTO        PREFEITURA MUNICIPAL DE S„O PEDRO DRS140078738       20120701210010000000139A0036A5E8CFAEDD57D4D7F7A6C871EB000000025510000000025510000000000000000000000000000000000000N1207000000030                 59B759595106E4A7AC118BFDA6687C8D
93592715000161ISENTO        PREFEITURA MUNICIPAL DE S„O PEDRO DRS140078738       20120701210010000000139A0036A5E8CFAEDD57D4D7F7A6C871EB000000025510000000025510000000000000000000000000000000000000N1207000000030                 59B759595106E4A7AC118BFDA6687C8D
96419627000150ISENTO        SINDICATO TRABALHADORES RURAIS DE CRS140078768       201207012100100000001460BB4241E646F33797FE22D2FB459E7D000000007990000000007990000000000000000000000000000000000000N1207000000040                 2427AB98D947292B2AA11816EAA47F6B
96419627000150ISENTO        SINDICATO TRABALHADORES RURAIS DE CRS140078768       201207012100100000001460BB4241E646F33797FE22D2FB459E7D000000007990000000007990000000000000000000000000000000000000N1207000000040                 2427AB98D947292B2AA11816EAA47F6B
000024320040431065689695    FELIPE JUSTEN                      RS340078577       201207012100100000001543D329CDB472B9FF8AD328207A3290EA000000007990000000007990000000000000000000000000000000000000N1207000000042                 229481C9504C826E030EDF282540E08B
000024320040431065689695    FELIPE JUSTEN                      RS340078577       201207012100100000001543D329CDB472B9FF8AD328207A3290EA000000007990000000007990000000000000000000000000000000000000N1207000000042                 229481C9504C826E030EDF282540E08B
93535342000197ISENTO        ESCOLA MUNICIPAL DE E. F. ANTONIO CRS140078799       2012070121001000000016F7DD9A9342EF06E12ECEBD4B57F633D6000000009490000000009490000000000000000000000000000000000000N1207000000044                 C9D6D61AF1A5511A0A6AC05BF37A5356
93535342000197ISENTO        ESCOLA MUNICIPAL DE E. F. ANTONIO CRS140078799       2012070121001000000016F7DD9A9342EF06E12ECEBD4B57F633D6000000009490000000009490000000000000000000000000000000000000N1207000000044                 C9D6D61AF1A5511A0A6AC05BF37A5356
11445453000148ISENTO        CAMARA DE VEREADORES VITÛRIA DAS MIRS140078541       2012070121001000000017FC6219792114FDB31CBE616D7A9C9AE6000000007990000000007990000000000000000000000000000000000000N1207000000046                 A7CEFE76E75ED5D3709C5A2959E60656
11445453000148ISENTO        CAMARA DE VEREADORES VITÛRIA DAS MIRS140078541       2012070121001000000017FC6219792114FDB31CBE616D7A9C9AE6000000007990000000007990000000000000000000000000000000000000N1207000000046                 A7CEFE76E75ED5D3709C5A2959E60656
09649751000108ISENTO        BOIDEZ DISTRIBUIDORA DE ALIMENTOS LRS140078524       2012070121001000000018126AFD8D7E7FBD102C176305AB13D513000000007990000000007990000000000000000000000000000000000000N1207000000048                 EB406F039F755D32FCBC55F19F218562
09649751000108ISENTO        BOIDEZ DISTRIBUIDORA DE ALIMENTOS LRS140078524       2012070121001000000018126AFD8D7E7FBD102C176305AB13D513000000007990000000007990000000000000000000000000000000000000N1207000000048                 EB406F039F755D32FCBC55F19F218562
000213746510878023957262    ARI AOSANI                         RS340078519       2012070121001000000019935D57DDB14556CDCC4A95413AD5CC17000000004040000000004040000000000000000000000000000000000000N1207000000050                 D838CEDFB90BCD3B5B51BCE8FBF4FC3D
000213746510878023957262    ARI AOSANI                         RS340078519       2012070121001000000019935D57DDB14556CDCC4A95413AD5CC17000000004040000000004040000000000000000000000000000000000000N1207000000050                 D838CEDFB90BCD3B5B51BCE8FBF4FC3D
000093803700591023254442    ARQUILIO TREVIZAN                  RS340078518       2012070121001000000020E506D376007309A00F5B804A0610EB29000000004040000000004040000000000000000000000000000000000000N1207000000052                 FC5DE23F8E1DF9E0EB6683FA0BD3586F
000093803700591023254442    ARQUILIO TREVIZAN                  RS340078518       2012070121001000000020E506D376007309A00F5B804A0610EB29000000004040000000004040000000000000000000000000000000000000N1207000000052                 FC5DE23F8E1DF9E0EB6683FA0BD3586F
000043138010499002725597    LUIZ AURÌ VIZIOLI                  RS340078659       2012070121001000000021E199B304F88B4B7E8A638E8F91B4838B000000005390000000005390000000000000000000000000000000000000N1207000000054                 C06AD6E465ACD17962156C16DCB643F0
000043138010499002725597    LUIZ AURÌ VIZIOLI                  RS340078659       2012070121001000000021E199B304F88B4B7E8A638E8F91B4838B000000005390000000005390000000000000000000000000000000000000N1207000000054                 C06AD6E465ACD17962156C16DCB643F0
000500314650721040108837    TELMO ANTONIO AOZANI               RS340078783       20120701210010000000225777D64D27B61AB1439EFCCA0D579E40000000004040000000004040000000000000000000000000000000000000N1207000000056                 59D1A8B1EDAA68967E9FCF178F6D7226
000500314650721040108837    TELMO ANTONIO AOZANI               RS340078783       20120701210010000000225777D64D27B61AB1439EFCCA0D579E40000000004040000000004040000000000000000000000000000000000000N1207000000056                 59D1A8B1EDAA68967E9FCF178F6D7226
000393187290491021871741    TELMO LUIZ SFALCIN                 RS340078694       20120701210010000000239498AF67CCABD98BE990E77AD2B0ABD7000000004040000000004040000000000000000000000000000000000000N1207000000058                 467A6B932D8B77BFDD6CF3DB1E97C15E
000393187290491021871741    TELMO LUIZ SFALCIN                 RS340078694       20120701210010000000239498AF67CCABD98BE990E77AD2B0ABD7000000004040000000004040000000000000000000000000000000000000N1207000000058                 467A6B932D8B77BFDD6CF3DB1E97C15E
000463830180008036099953    VALDEZ PIEPER                      RS340078804       201207012100100000002430BF1733A60C349F9123FA1C575FF9AD000000004040000000004040000000000000000000000000000000000000N1207000000060                 C8394FBF31C9C91E5D7988DF32F1C0A7
000463830180008036099953    VALDEZ PIEPER                      RS340078804       201207012100100000002430BF1733A60C349F9123FA1C575FF9AD000000004040000000004040000000000000000000000000000000000000N1207000000060                 C8394FBF31C9C91E5D7988DF32F1C0A7
000604120540007051535421    ARI JOSE WACHEKOSKI                RS340078805       2012070121001000000025E4981967DE2607CCFEA4E31CC3EB5FFD000000004040000000004040000000000000000000000000000000000000N1207000000062                 BF32695137BBEB6DFAB0C4B985A9C7F0
000604120540007051535421    ARI JOSE WACHEKOSKI                RS340078805       2012070121001000000025E4981967DE2607CCFEA4E31CC3EB5FFD000000004040000000004040000000000000000000000000000000000000N1207000000062                 BF32695137BBEB6DFAB0C4B985A9C7F0
000367719530682024702744    SILVESTRE GURSKI SETSCHUK          RS340078718       2012070121001000000026199713B8D8F037114592DBB0891E387A000000004040000000004040000000000000000000000000000000000000N1207000000064                 D771A55A9A44B4E78241D3F5343FD0BF
000367719530682024702744    SILVESTRE GURSKI SETSCHUK          RS340078718       2012070121001000000026199713B8D8F037114592DBB0891E387A000000004040000000004040000000000000000000000000000000000000N1207000000064                 D771A55A9A44B4E78241D3F5343FD0BF
000881864660538054734192    CESAR ANTONIO BAZANA               RS340078552       2012070121001000000027CF00ADBB4EF40C0968081071D8B0132A000000004040000000004040000000000000000000000000000000000000N1207000000066                 623A302506B0DB3BD15BE278DC24DDB4
000881864660538054734192    CESAR ANTONIO BAZANA               RS340078552       2012070121001000000027CF00ADBB4EF40C0968081071D8B0132A000000004040000000004040000000000000000000000000000000000000N1207000000066                 623A302506B0DB3BD15BE278DC24DDB4
000964477450722084723457    ELISIANE DURKS                     RS340078554       20120701210010000000284417960BC31AB5F6166E16FB05D3D14A000000004040000000004040000000000000000000000000000000000000N1207000000068                 6DDBA0BE21D64D82545D5201EC928C30
000964477450722084723457    ELISIANE DURKS                     RS340078554       20120701210010000000284417960BC31AB5F6166E16FB05D3D14A000000004040000000004040000000000000000000000000000000000000N1207000000068                 6DDBA0BE21D64D82545D5201EC928C30
000032311510156004380496    OCTAVIAN GERHARDT                  RS340078730       20120701210010000000295D44C89592FC404DCAEE2AA0EBEAEBCA000000004040000000004040000000000000000000000000000000000000N1207000000070                 7E69685A3A64640AA33E61BE17570D47
000032311510156004380496    OCTAVIAN GERHARDT                  RS340078730       20120701210010000000295D44C89592FC404DCAEE2AA0EBEAEBCA000000004040000000004040000000000000000000000000000000000000N1207000000070                 7E69685A3A64640AA33E61BE17570D47
00047370718034ISENTO        ROMEU FRANCISCO LUNKES             RS340078734       20120701210010000000300640E008B111D2B4827758AD834AB0CC000000004040000000004040000000000000000000000000000000000000N1207000000072                 CA9C2814321D4F12614BBEBE8EAE7602
00047370718034ISENTO        ROMEU FRANCISCO LUNKES             RS340078734       20120701210010000000300640E008B111D2B4827758AD834AB0CC000000004040000000004040000000000000000000000000000000000000N1207000000072                 CA9C2814321D4F12614BBEBE8EAE7602
000179970460206018976081    ARMINDO JOSE BOLZAN                RS340078506       20120701210010000000311BB1A9CEEF0DB61C498DFA49B04509AC000000005390000000005390000000000000000000000000000000000000N1207000000074                 B33B0548EC709D56E79A2CDAA00CB6CB
000179970460206018976081    ARMINDO JOSE BOLZAN                RS340078506       20120701210010000000311BB1A9CEEF0DB61C498DFA49B04509AC000000005390000000005390000000000000000000000000000000000000N1207000000074                 B33B0548EC709D56E79A2CDAA00CB6CB
000390386530345042432459    MILTON SCHEID                      RS340078654       2012070121001000000032BDA99219E13CD3A43D98AF8309F15BAB000000004040000000004040000000000000000000000000000000000000N1207000000076                 900937A4D497696478A7406C85EF7FAA
000390386530345042432459    MILTON SCHEID                      RS340078654       2012070121001000000032BDA99219E13CD3A43D98AF8309F15BAB000000004040000000004040000000000000000000000000000000000000N1207000000076                 900937A4D497696478A7406C85EF7FAA
00003579379020904747854     ROQUE COLLING                      RS340078733       2012070121001000000033FBE83BF48294409EBA2AB7CA41C7D59C000000004040000000004040000000000000000000000000000000000000N1207000000078                 72C83116A3430E697EC61ABAB4F2766D
00003579379020904747854     ROQUE COLLING                      RS340078733       2012070121001000000033FBE83BF48294409EBA2AB7CA41C7D59C000000004040000000004040000000000000000000000000000000000000N1207000000078                 72C83116A3430E697EC61ABAB4F2766D
00024943630049ISENTO        VILSON JOSÈ REIS                   RS340078735       2012070121001000000034E10F81E1BB17F8D38420AC2A08F0B33D000000004040000000004040000000000000000000000000000000000000N1207000000080                 DD9362560CF715749000BAB9BB841945
00024943630049ISENTO        VILSON JOSÈ REIS                   RS340078735       2012070121001000000034E10F81E1BB17F8D38420AC2A08F0B33D000000004040000000004040000000000000000000000000000000000000N1207000000080                 DD9362560CF715749000BAB9BB841945
00073243981034ISENTO        ROSA MARIA DOS SANTOS FERREIRA     RS340078834       201207012100100000003531D3185F569440DC005A15A02BAE466A000000004040000000004040000000000000000000000000000000000000N1207000000082                 6CD55CDC5A33DE8C50D98349302A032D
00073243981034ISENTO        ROSA MARIA DOS SANTOS FERREIRA     RS340078834       201207012100100000003531D3185F569440DC005A15A02BAE466A000000004040000000004040000000000000000000000000000000000000N1207000000082                 6CD55CDC5A33DE8C50D98349302A032D
000514537030043017058672    ARACELI SALLET                     RS340078500       201207012100100000003609BF36B3773D508D067C9009176FEA26000000004040000000004040000000000000000000000000000000000000N1207000000084                 75179EC42D9CDB2EDD33DA8BB9FD7543
000514537030043017058672    ARACELI SALLET                     RS340078500       201207012100100000003609BF36B3773D508D067C9009176FEA26000000004040000000004040000000000000000000000000000000000000N1207000000084                 75179EC42D9CDB2EDD33DA8BB9FD7543
000903075420681069234233    PAULO JOSÈ KUNZ MARSCHALL          RS340078731       201207012100100000003776B3E256CE252CD6C2244499A7A6FE65000000004040000000004040000000000000000000000000000000000000N1207000000086                 101FBAE1928B7C652A65748D4394FAAA
000903075420681069234233    PAULO JOSÈ KUNZ MARSCHALL          RS340078731       201207012100100000003776B3E256CE252CD6C2244499A7A6FE65000000004040000000004040000000000000000000000000000000000000N1207000000086                 101FBAE1928B7C652A65748D4394FAAA
000495235110684034348559    DARCI WERLE                        RS340078781       2012070121001000000038D85014212E23108795AA08A5CD4FF9B6000000004040000000004040000000000000000000000000000000000000N1207000000088                 E22BF96D7FD0528022C521A2960A35E2
000495235110684034348559    DARCI WERLE                        RS340078781       2012070121001000000038D85014212E23108795AA08A5CD4FF9B6000000004040000000004040000000000000000000000000000000000000N1207000000088                 E22BF96D7FD0528022C521A2960A35E2
00005577560063ISENTO        JAIME CONSTANTINO RITT             RS340078611       2012070121001000000039FEFB1BE443B944F41CA9AC638FBD609B000000004040000000004040000000000000000000000000000000000000N1207000000090                 7944B49F989AD4C9525AEB29BC7FF36D
00005577560063ISENTO        JAIME CONSTANTINO RITT             RS340078611       2012070121001000000039FEFB1BE443B944F41CA9AC638FBD609B000000004040000000004040000000000000000000000000000000000000N1207000000090                 7944B49F989AD4C9525AEB29BC7FF36D
000450577290049027153312    JO„O ODIL HARTMANN LUNKES          RS340078605       20120701210010000000407E938B5BAF12EC05B549A16DC6910291000000004040000000004040000000000000000000000000000000000000N1207000000092                 8EB3F6616ED81CEBE91A886ABEF1D6C0
000450577290049027153312    JO„O ODIL HARTMANN LUNKES          RS340078605       20120701210010000000407E938B5BAF12EC05B549A16DC6910291000000004040000000004040000000000000000000000000000000000000N1207000000092                 8EB3F6616ED81CEBE91A886ABEF1D6C0
000653857210349046805363    NOELI LUCIA THOMAS PREHSSLER       RS340078780       2012070121001000000041DCD2D25A45801D569C74FAC8D29BC70A000000004040000000004040000000000000000000000000000000000000N1207000000094                 23B58B7590B43C45EC69ECB8A686DCD5
000653857210349046805363    NOELI LUCIA THOMAS PREHSSLER       RS340078780       2012070121001000000041DCD2D25A45801D569C74FAC8D29BC70A000000004040000000004040000000000000000000000000000000000000N1207000000094                 23B58B7590B43C45EC69ECB8A686DCD5
000245792540159005924338    VICENTE JO„O KUNZ                  RS340078708       2012070121001000000042027DAAEC40B3E83795E08063F9D90868000000004040000000004040000000000000000000000000000000000000N1207000000096                 46A0C9D825EAFE1EE03792C70F1D0330
000245792540159005924338    VICENTE JO„O KUNZ                  RS340078708       2012070121001000000042027DAAEC40B3E83795E08063F9D90868000000004040000000004040000000000000000000000000000000000000N1207000000096                 46A0C9D825EAFE1EE03792C70F1D0330
000105864310041004453708    ANTÙNIO JO„O LUNKES                RS340078499       2012070121001000000043B3948E92D4929E9CA4403FFBCABFFE32000000004040000000004040000000000000000000000000000000000000N1207000000098                 02C39E390F2858CCA09B661DC08B54E9
000105864310041004453708    ANTÙNIO JO„O LUNKES                RS340078499       2012070121001000000043B3948E92D4929E9CA4403FFBCABFFE32000000004040000000004040000000000000000000000000000000000000N1207000000098                 02C39E390F2858CCA09B661DC08B54E9
000375238050004038081685    ANTONIO THOMAS                     RS340078504       2012070121001000000044CE82B21966EE52EEA34AD748E4949E87000000004040000000004040000000000000000000000000000000000000N1207000000100                 476CB7F0AD29FEACC82F443035E5F861
000375238050004038081685    ANTONIO THOMAS                     RS340078504       2012070121001000000044CE82B21966EE52EEA34AD748E4949E87000000004040000000004040000000000000000000000000000000000000N1207000000100                 476CB7F0AD29FEACC82F443035E5F861
000887517080001064361387    ELVIO CARLOTO NORO                 RS340078569       20120701210010000000456C670823C86A472DAC27E87C1930E15F000000004040000000004040000000000000000000000000000000000000N1207000000102                 C7F99011F8365B175AAB3CF94F43CF19
000887517080001064361387    ELVIO CARLOTO NORO                 RS340078569       20120701210010000000456C670823C86A472DAC27E87C1930E15F000000004040000000004040000000000000000000000000000000000000N1207000000102                 C7F99011F8365B175AAB3CF94F43CF19
00025002368034ISENTO        EVANDO HERTER DA SILVA             RS340078570       2012070121001000000046D9DCECFB56507D12A5BC0264C981A518000000004040000000004040000000000000000000000000000000000000N1207000000104                 429E8AF8AD6C1FE8CEF5CEAC9BA20149
00025002368034ISENTO        EVANDO HERTER DA SILVA             RS340078570       2012070121001000000046D9DCECFB56507D12A5BC0264C981A518000000004040000000004040000000000000000000000000000000000000N1207000000104                 429E8AF8AD6C1FE8CEF5CEAC9BA20149
000309855280875008050998    ILDO JO„O ELY                      RS340078598       20120701210010000000474A540140246281644247D85122547F53000000004040000000004040000000000000000000000000000000000000N1207000000106                 6AE77BBD2306C77F98A6622905E428DA
000309855280875008050998    ILDO JO„O ELY                      RS340078598       20120701210010000000474A540140246281644247D85122547F53000000004040000000004040000000000000000000000000000000000000N1207000000106                 6AE77BBD2306C77F98A6622905E428DA
000126282710878023278801    JOSÈ HARRI THUM                    RS340078618       2012070121001000000048CA3F663C51C5EFB21D67D58C8454BF7A000000005390000000005390000000000000000000000000000000000000N1207000000108                 D7130207CAA372D5A49947E43C98C5D2
000126282710878023278801    JOSÈ HARRI THUM                    RS340078618       2012070121001000000048CA3F663C51C5EFB21D67D58C8454BF7A000000005390000000005390000000000000000000000000000000000000N1207000000108                 D7130207CAA372D5A49947E43C98C5D2
00019014988087ISENTO        LUIZ EVAR LUBINI                   RS340078629       2012070121001000000049633AE25F24B7ADF319973D5EDE6956E8000000005390000000005390000000000000000000000000000000000000N1207000000110                 6D5CE224E6C1EDECD31B358925D1441F
00019014988087ISENTO        LUIZ EVAR LUBINI                   RS340078629       2012070121001000000049633AE25F24B7ADF319973D5EDE6956E8000000005390000000005390000000000000000000000000000000000000N1207000000110                 6D5CE224E6C1EDECD31B358925D1441F
000925021800153066625851    MAURICIO PIRES DE MORAIS           RS340078641       20120701210010000000505D7326732DFBF86593B1C26D8E4503D1000000004040000000004040000000000000000000000000000000000000N1207000000112                 5B181DCAA67885113A087752C7DFFBDD
000925021800153066625851    MAURICIO PIRES DE MORAIS           RS340078641       20120701210010000000505D7326732DFBF86593B1C26D8E4503D1000000004040000000004040000000000000000000000000000000000000N1207000000112                 5B181DCAA67885113A087752C7DFFBDD
000500306470531039734817    MILTON BURIN                       RS340078642       2012070121001000000051A0C7DD02F907D696D7A1A3E46BD99F3F000000004040000000004040000000000000000000000000000000000000N1207000000114                 32111DEBD68D7E83D88F781C604F014F
000500306470531039734817    MILTON BURIN                       RS340078642       2012070121001000000051A0C7DD02F907D696D7A1A3E46BD99F3F000000004040000000004040000000000000000000000000000000000000N1207000000114                 32111DEBD68D7E83D88F781C604F014F
000543646550159034268954    NEILA VETTORAZZI KORNOWSKI         RS340078661       201207012100100000005296F7CE1943C6226ED6C481A0A839B016000000004040000000004040000000000000000000000000000000000000N1207000000116                 1DDFB6CDE70D1C5F152D3EB1BFBD241D
000543646550159034268954    NEILA VETTORAZZI KORNOWSKI         RS340078661       201207012100100000005296F7CE1943C6226ED6C481A0A839B016000000004040000000004040000000000000000000000000000000000000N1207000000116                 1DDFB6CDE70D1C5F152D3EB1BFBD241D
000164733960041026813707    NELSON BARICHELLO                  RS340078668       2012070121001000000053BD2632A62F8EE032EC4663D782E51EE2000000009430000000009430000000000000000000000000000000000000N1207000000118                 0E4B619213DB3912A65B044C7EACB87F
000164733960041026813707    NELSON BARICHELLO                  RS340078668       2012070121001000000053BD2632A62F8EE032EC4663D782E51EE2000000009430000000009430000000000000000000000000000000000000N1207000000118                 0E4B619213DB3912A65B044C7EACB87F
000003458670922090821006    NERISOM LUIZ ROHLEDER              RS340078669       2012070121001000000054D09F45CA804E09528103207D979B9C2C000000004040000000004040000000000000000000000000000000000000N1207000000122                 B921006EB349F7D66C9AEB1A5173DAB7
000003458670922090821006    NERISOM LUIZ ROHLEDER              RS340078669       2012070121001000000054D09F45CA804E09528103207D979B9C2C000000004040000000004040000000000000000000000000000000000000N1207000000122                 B921006EB349F7D66C9AEB1A5173DAB7
000285192640344003698778    PAULO MARIO STOFFELS               RS340078713       20120701210010000000557710203533957C1B3653E455E0A75A87000000004040000000004040000000000000000000000000000000000000N1207000000124                 2F7C9A797134F588032EBF33A1F0F021
000285192640344003698778    PAULO MARIO STOFFELS               RS340078713       20120701210010000000557710203533957C1B3653E455E0A75A87000000004040000000004040000000000000000000000000000000000000N1207000000124                 2F7C9A797134F588032EBF33A1F0F021
000943352140498073880182    RODRIGO SCHNEIDER                  RS340078715       201207012100100000005620F48DB5207B0CC8F022D4D707427CC4000000004040000000004040000000000000000000000000000000000000N1207000000126                 C675C8BCB54B52CB0A12DA376F66DBF9
000943352140498073880182    RODRIGO SCHNEIDER                  RS340078715       201207012100100000005620F48DB5207B0CC8F022D4D707427CC4000000004040000000004040000000000000000000000000000000000000N1207000000126                 C675C8BCB54B52CB0A12DA376F66DBF9
00064757358091ISENTO        VALMIR LUNKES                      RS340078772       2012070121001000000057C9E505894DE4B8813150E4457EC200E8000000004040000000004040000000000000000000000000000000000000N1207000000128                 9586C986BA37D7BD14E207DCBE06649F
00064757358091ISENTO        VALMIR LUNKES                      RS340078772       2012070121001000000057C9E505894DE4B8813150E4457EC200E8000000004040000000004040000000000000000000000000000000000000N1207000000128                 9586C986BA37D7BD14E207DCBE06649F
000190163100101008720681    ZILMAR SAUSEN                      RS340078717       2012070121001000000058C09C1515ADC9D5AFB8F2576256C88AC5000000004040000000004040000000000000000000000000000000000000N1207000000130                 B9503D4FD49AA14C0589481360C4EF96
000190163100101008720681    ZILMAR SAUSEN                      RS340078717       2012070121001000000058C09C1515ADC9D5AFB8F2576256C88AC5000000004040000000004040000000000000000000000000000000000000N1207000000130                 B9503D4FD49AA14C0589481360C4EF96
000510851350047035417232    FRANCISCO VENDRUSCOLO CEOLIN       RS340078580       20120701210010000000592704A496DAA76CC4A0104A4FAD9F59AF000000008080000000008080000000000000000000000000000000000000N1207000000132                 FBE354CDE0F89606E41F080E8C64A303
000510851350047035417232    FRANCISCO VENDRUSCOLO CEOLIN       RS340078580       20120701210010000000592704A496DAA76CC4A0104A4FAD9F59AF000000008080000000008080000000000000000000000000000000000000N1207000000132                 FBE354CDE0F89606E41F080E8C64A303
000472518080727026528302    INGOMAR GENZ NEUBUSER              RS340078603       2012070121001000000060EC4EF9D07B88060952F74B5C9895B869000000004040000000004040000000000000000000000000000000000000N1207000000136                 12B89B8DBBD1B480292B86BD35BF2C01
000472518080727026528302    INGOMAR GENZ NEUBUSER              RS340078603       2012070121001000000060EC4EF9D07B88060952F74B5C9895B869000000004040000000004040000000000000000000000000000000000000N1207000000136                 12B89B8DBBD1B480292B86BD35BF2C01
000309681270533010137713    NELSON BOESING                     RS340078665       201207012100100000006161936C2F678CAD9717792DA507ADCC34000000004040000000004040000000000000000000000000000000000000N1207000000138                 3D71406387B103124F7EFE98AD4917E3
000309681270533010137713    NELSON BOESING                     RS340078665       201207012100100000006161936C2F678CAD9717792DA507ADCC34000000004040000000004040000000000000000000000000000000000000N1207000000138                 3D71406387B103124F7EFE98AD4917E3
0003859142100017023913441   RUBEM HACKENHAAR                   RS340078699       2012070121001000000062BD87B8EA0438364978765B03B0208085000000004040000000004040000000000000000000000000000000000000N1207000000140                 8DCA96B4B79FC30C8665D760EAE97794
0003859142100017023913441   RUBEM HACKENHAAR                   RS340078699       2012070121001000000062BD87B8EA0438364978765B03B0208085000000004040000000004040000000000000000000000000000000000000N1207000000140                 8DCA96B4B79FC30C8665D760EAE97794
000356429710341011015086    ALOISIO SEIBERT                    RS340078539       2012070121001000000063BE3A122FB09ACA33AE43CC965568803A000000004040000000004040000000000000000000000000000000000000N1207000000142                 DA801D9908872E24A3A55A15C86DE914
000356429710341011015086    ALOISIO SEIBERT                    RS340078539       2012070121001000000063BE3A122FB09ACA33AE43CC965568803A000000004040000000004040000000000000000000000000000000000000N1207000000142                 DA801D9908872E24A3A55A15C86DE914
000245774990537008011211    ARCI GENZ BRATZ                    RS340078493       2012070121001000000064300E095DDB295A31834014AF896A6A5C000000004040000000004040000000000000000000000000000000000000N1207000000144                 FF857B1DFB532608368E009FA08EFEF8
000245774990537008011211    ARCI GENZ BRATZ                    RS340078493       2012070121001000000064300E095DDB295A31834014AF896A6A5C000000004040000000004040000000000000000000000000000000000000N1207000000144                 FF857B1DFB532608368E009FA08EFEF8
93617488000181ISENTO        LUCIA HASS                         RS140078638       201207012100100000006583FD476671280A99279EAA671A4805E0000000004040000000004040000000000000000000000000000000000000N1207000000146                 19E8713E6B0E3DDB6FA48AB9AA0F3B01
93617488000181ISENTO        LUCIA HASS                         RS140078638       201207012100100000006583FD476671280A99279EAA671A4805E0000000004040000000004040000000000000000000000000000000000000N1207000000146                 19E8713E6B0E3DDB6FA48AB9AA0F3B01
00005999642949ISENTO        ORLANDO JOSÈ ADANS                 RS340078696       201207012100100000006634BC610703E78A594EE211488E3F1723000000004040000000004040000000000000000000000000000000000000N1207000000148                 43A2DA5361D0754D77BFD2E4A831228C
00005999642949ISENTO        ORLANDO JOSÈ ADANS                 RS340078696       201207012100100000006634BC610703E78A594EE211488E3F1723000000004040000000004040000000000000000000000000000000000000N1207000000148                 43A2DA5361D0754D77BFD2E4A831228C
000451583980204035908468    DEONISIO TONIN                     RS340078545       2012070121001000000067BE591EB0E7E551673332093E773DBAC0000000004040000000004040000000000000000000000000000000000000N1207000000150                 B63809EE17E0ECC5A66C4635F4ECE896
000451583980204035908468    DEONISIO TONIN                     RS340078545       2012070121001000000067BE591EB0E7E551673332093E773DBAC0000000004040000000004040000000000000000000000000000000000000N1207000000150                 B63809EE17E0ECC5A66C4635F4ECE896
000653429090159039745733    NEI JOSÈ LOEBET                    RS340078664       2012070121001000000068267F4B969F05F65B2EA1DC0BEC87DA26000000004040000000004040000000000000000000000000000000000000N1207000000152                 C352758A7C18A21D6E647783D65FAA8B
000653429090159039745733    NEI JOSÈ LOEBET                    RS340078664       2012070121001000000068267F4B969F05F65B2EA1DC0BEC87DA26000000004040000000004040000000000000000000000000000000000000N1207000000152                 C352758A7C18A21D6E647783D65FAA8B
000702590030341038045454    JOSÈ ANTONIO SOMAVILA              RS340078632       201207012100100000006979C7D750F1B678F2B25E9035AB7B4E31000000004040000000004040000000000000000000000000000000000000N1207000000154                 89BEF690CEF0874C4F0F8AE4D8C597A6
000702590030341038045454    JOSÈ ANTONIO SOMAVILA              RS340078632       201207012100100000006979C7D750F1B678F2B25E9035AB7B4E31000000004040000000004040000000000000000000000000000000000000N1207000000154                 89BEF690CEF0874C4F0F8AE4D8C597A6
000393484660205019884823    DANIEL CASARIN                     RS340078543       201207012100100000007089FD1EDA3194DD4625EE8842EEBF56FF000000005390000000005390000000000000000000000000000000000000N1207000000156                 7D0D6BE381BC6350DB0B212E9DBCF342
000393484660205019884823    DANIEL CASARIN                     RS340078543       201207012100100000007089FD1EDA3194DD4625EE8842EEBF56FF000000005390000000005390000000000000000000000000000000000000N1207000000156                 7D0D6BE381BC6350DB0B212E9DBCF342
000892402780871062306905    ELTON ALCIONE TEIXEIRA GUEDES      RS340078784       20120701210010000000716D1060CCC1F1D5F493F1C7ECA05B3386000000004040000000004040000000000000000000000000000000000000N1207000000158                 2CA94CDD812553B326A8E1115FA413A1
000892402780871062306905    ELTON ALCIONE TEIXEIRA GUEDES      RS340078784       20120701210010000000716D1060CCC1F1D5F493F1C7ECA05B3386000000004040000000004040000000000000000000000000000000000000N1207000000158                 2CA94CDD812553B326A8E1115FA413A1
000920610100591049890451    GIORDANI ANDRE DEZORDI             RS340078585       20120701210010000000721540EBD808F65EB064FD85E1C8561CDA000000004040000000004040000000000000000000000000000000000000N1207000000160                 9087B6DA940E715980248A67C32326C1
000920610100591049890451    GIORDANI ANDRE DEZORDI             RS340078585       20120701210010000000721540EBD808F65EB064FD85E1C8561CDA000000004040000000004040000000000000000000000000000000000000N1207000000160                 9087B6DA940E715980248A67C32326C1
000005189250219085315531    MIRIAN DIVA PRETTO                 RS340078639       20120701210010000000737BB2DA49F434DA5B6D86AAE3304D2E9D000000004040000000004040000000000000000000000000000000000000N1207000000162                 EDAB57F622CF36751DD3DC2128109186
000005189250219085315531    MIRIAN DIVA PRETTO                 RS340078639       20120701210010000000737BB2DA49F434DA5B6D86AAE3304D2E9D000000004040000000004040000000000000000000000000000000000000N1207000000162                 EDAB57F622CF36751DD3DC2128109186
000162895440048004391689    NELSON FONSECA DE MELLO            RS340078663       20120701210010000000749EA17ED21B661CBACBC3CCF81D007986000000004040000000004040000000000000000000000000000000000000N1207000000164                 AAA38941C59CBE780B0EB861D907A29D
000162895440048004391689    NELSON FONSECA DE MELLO            RS340078663       20120701210010000000749EA17ED21B661CBACBC3CCF81D007986000000004040000000004040000000000000000000000000000000000000N1207000000164                 AAA38941C59CBE780B0EB861D907A29D
000022278090863084227028    ADRIANA DALLALIBERA                RS340078819       20120701210010000000755CF29DF7FFA452CECBD7C015602C4176000000004040000000004040000000000000000000000000000000000000N1207000000166                 21961331846BE5E68F1FE8AE25A6F06D
000022278090863084227028    ADRIANA DALLALIBERA                RS340078819       20120701210010000000755CF29DF7FFA452CECBD7C015602C4176000000004040000000004040000000000000000000000000000000000000N1207000000166                 21961331846BE5E68F1FE8AE25A6F06D
000224042100256004066401    ALCIONE MACHADO                    RS340078806       201207012100100000007614E1DC89376DCEE7BDEAE0D147B61B66000000004040000000004040000000000000000000000000000000000000N1207000000168                 74D79664EE930D39A93872A183A8393E
000224042100256004066401    ALCIONE MACHADO                    RS340078806       201207012100100000007614E1DC89376DCEE7BDEAE0D147B61B66000000004040000000004040000000000000000000000000000000000000N1207000000168                 74D79664EE930D39A93872A183A8393E
000275343240682024437374    ANTONIO DE PADUA CASTANHO NASCIMENTRS340078512       2012070121001000000077B07FFDF9EB9609DABC6169292C119F9E000000004040000000004040000000000000000000000000000000000000N1207000000170                 E9E0F5120764123B3B9E560F2769B406
000275343240682024437374    ANTONIO DE PADUA CASTANHO NASCIMENTRS340078512       2012070121001000000077B07FFDF9EB9609DABC6169292C119F9E000000004040000000004040000000000000000000000000000000000000N1207000000170                 E9E0F5120764123B3B9E560F2769B406
000309275790492002758361    DANIEL TEIKOWSKI                   RS340078549       20120701210010000000787BE9054E02FC81422AAD6463E34F95ED000000005390000000005390000000000000000000000000000000000000N1207000000172                 3619B181A2E39F2ECB7FBC13A177F9DB
000309275790492002758361    DANIEL TEIKOWSKI                   RS340078549       20120701210010000000787BE9054E02FC81422AAD6463E34F95ED000000005390000000005390000000000000000000000000000000000000N1207000000172                 3619B181A2E39F2ECB7FBC13A177F9DB
000441687300003151009974    ESPEDITO VICENTE CHIAPINOTTO       RS340078565       2012070121001000000079F6C79F35188D7EE1389C0AE193C63C64000000004040000000004040000000000000000000000000000000000000N1207000000174                 B1AF62F474F8D49BF1A7800644F5EFAA
000441687300003151009974    ESPEDITO VICENTE CHIAPINOTTO       RS340078565       2012070121001000000079F6C79F35188D7EE1389C0AE193C63C64000000004040000000004040000000000000000000000000000000000000N1207000000174                 B1AF62F474F8D49BF1A7800644F5EFAA
000283614400972009485448    JO„O BATISTA MARGUTTI              RS340078622       20120701210010000000802489B9CEDE3FA42868FBEBF40668548F000000004040000000004040000000000000000000000000000000000000N1207000000176                 6BECC34211C4D34EA3299833A32E0953
000283614400972009485448    JO„O BATISTA MARGUTTI              RS340078622       20120701210010000000802489B9CEDE3FA42868FBEBF40668548F000000004040000000004040000000000000000000000000000000000000N1207000000176                 6BECC34211C4D34EA3299833A32E0953
000376319180152020041171    JO„O FLAVIO DAMI„O MARCON          RS340078786       20120701210010000000817B3C764DA89C10566A04B6884E145811000000004040000000004040000000000000000000000000000000000000N1207000000178                 83B30205A24696D1B7D36DCB7060F35E
000376319180152020041171    JO„O FLAVIO DAMI„O MARCON          RS340078786       20120701210010000000817B3C764DA89C10566A04B6884E145811000000004040000000004040000000000000000000000000000000000000N1207000000178                 83B30205A24696D1B7D36DCB7060F35E
000020336630194084407388    RODRIGO PEZZINI                    RS340078691       2012070121001000000082C56E1993CE04507EC1A54E1E1E7A89F7000000004040000000004040000000000000000000000000000000000000N1207000000180                 AE5921A3E371C211800D37D526AA11E6
000020336630194084407388    RODRIGO PEZZINI                    RS340078691       2012070121001000000082C56E1993CE04507EC1A54E1E1E7A89F7000000004040000000004040000000000000000000000000000000000000N1207000000180                 AE5921A3E371C211800D37D526AA11E6
000312994580681054236326    SELVINO JO„O BUCHNER               RS340078690       20120701210010000000833107DF5BB3304C87AAF85B9D6D9DDF18000000004040000000004040000000000000000000000000000000000000N1207000000182                 4F0209BE78895F1F512FE3D5B832EB2A
000312994580681054236326    SELVINO JO„O BUCHNER               RS340078690       20120701210010000000833107DF5BB3304C87AAF85B9D6D9DDF18000000004040000000004040000000000000000000000000000000000000N1207000000182                 4F0209BE78895F1F512FE3D5B832EB2A
000474460130871037726518    VALDIR ELOI PHILLIPP               RS340078688       2012070121001000000084BB54877F09C4A201A776AC12312E31D7000000004040000000004040000000000000000000000000000000000000N1207000000184                 AEF54C319819212A5B9A722C75A80FD3
000474460130871037726518    VALDIR ELOI PHILLIPP               RS340078688       2012070121001000000084BB54877F09C4A201A776AC12312E31D7000000004040000000004040000000000000000000000000000000000000N1207000000184                 AEF54C319819212A5B9A722C75A80FD3
000105869540155027038867    ARTUR VALDI DA SILVA ISSLER        RS340078514       20120701210010000000855FA2498A261E05AC31E0965EEA1B11D2000000004040000000004040000000000000000000000000000000000000N1207000000186                 12DE97FC67D823F43D91855178C7B3C1
000105869540155027038867    ARTUR VALDI DA SILVA ISSLER        RS340078514       20120701210010000000855FA2498A261E05AC31E0965EEA1B11D2000000004040000000004040000000000000000000000000000000000000N1207000000186                 12DE97FC67D823F43D91855178C7B3C1
000332633370688006722733    ELVIO JO„O SARZI                   RS340078566       201207012100100000008658E9FC568279FEAA491E06429A4C4A9E000000004040000000004040000000000000000000000000000000000000N1207000000188                 A0FFA7EBF19E308A95F43B3099CBC7E0
000332633370688006722733    ELVIO JO„O SARZI                   RS340078566       201207012100100000008658E9FC568279FEAA491E06429A4C4A9E000000004040000000004040000000000000000000000000000000000000N1207000000188                 A0FFA7EBF19E308A95F43B3099CBC7E0
0002738881602040270474008   MIGUEL WELTER                      RS340078779       2012070121001000000087865B37ECD25AD79E1F5189E83DA85806000000004040000000004040000000000000000000000000000000000000N1207000000190                 17F6B8A2EC560B25DB9109293CF1E513
0002738881602040270474008   MIGUEL WELTER                      RS340078779       2012070121001000000087865B37ECD25AD79E1F5189E83DA85806000000004040000000004040000000000000000000000000000000000000N1207000000190                 17F6B8A2EC560B25DB9109293CF1E513
0002882425309160021418125   SILVESTRE JOSÈ SCHER               RS340078710       20120701210010000000889951BB28B23778406902CC658D53EFDA000000005390000000005390000000000000000000000000000000000000N1207000000192                 52946BF23A4ACCFCA0CC1788DFE5EEFA
0002882425309160021418125   SILVESTRE JOSÈ SCHER               RS340078710       20120701210010000000889951BB28B23778406902CC658D53EFDA000000005390000000005390000000000000000000000000000000000000N1207000000192                 52946BF23A4ACCFCA0CC1788DFE5EEFA
000308204210492001895248    ALCINDO PEDRO BORTOLINI            RS340078521       2012070121001000000089A41DF6E9FEB2FF10BB82587B7B702AA9000000004040000000004040000000000000000000000000000000000000N1207000000194                 C0304824F40A85A20E6E9C8186C60BCC
000308204210492001895248    ALCINDO PEDRO BORTOLINI            RS340078521       2012070121001000000089A41DF6E9FEB2FF10BB82587B7B702AA9000000004040000000004040000000000000000000000000000000000000N1207000000194                 C0304824F40A85A20E6E9C8186C60BCC
000388641690912029086465    ANTÙNIO GILBERTO FOLHARINI         RS340078520       201207012100100000009071CAEB9D6B12D202B0EFE436308A05BB000000004040000000004040000000000000000000000000000000000000N1207000000196                 CEC0897AC58954C0FC7B8C8550D856FA
000388641690912029086465    ANTÙNIO GILBERTO FOLHARINI         RS340078520       201207012100100000009071CAEB9D6B12D202B0EFE436308A05BB000000004040000000004040000000000000000000000000000000000000N1207000000196                 CEC0897AC58954C0FC7B8C8550D856FA
000991911990345041059022    CRISTIANO BERNARDI                 RS340078793       20120701210010000000918D782E888B08FABA2E63784EA2C55485000000004040000000004040000000000000000000000000000000000000N1207000000198                 8A9FB9A83A5DAAA6E72AE93DFE830034
000991911990345041059022    CRISTIANO BERNARDI                 RS340078793       20120701210010000000918D782E888B08FABA2E63784EA2C55485000000004040000000004040000000000000000000000000000000000000N1207000000198                 8A9FB9A83A5DAAA6E72AE93DFE830034
000523666930876041012615    GERSON GILMAR CARMELUTTI           RS340078658       2012070121001000000092ED3194A51EBE8DD32B051C5BA5845CC7000000004040000000004040000000000000000000000000000000000000N1207000000200                 E151F0B9974F3946A7216FFABC60D27D
000523666930876041012615    GERSON GILMAR CARMELUTTI           RS340078658       2012070121001000000092ED3194A51EBE8DD32B051C5BA5845CC7000000004040000000004040000000000000000000000000000000000000N1207000000200                 E151F0B9974F3946A7216FFABC60D27D
000645481120497044021135    IDOMAR FERRETTI                    RS340078782       2012070121001000000093598AD2320A8DD2EFA7C3ABC2F5F6C635000000004040000000004040000000000000000000000000000000000000N1207000000202                 547D9E37A5AB7CBAE072A696339C34F6
000645481120497044021135    IDOMAR FERRETTI                    RS340078782       2012070121001000000093598AD2320A8DD2EFA7C3ABC2F5F6C635000000004040000000004040000000000000000000000000000000000000N1207000000202                 547D9E37A5AB7CBAE072A696339C34F6
00027539229004ISENTO        ISMAEL MARCHESAN                   RS340078607       2012070121001000000094924B996D8019D7E2CCD5251A21F25DB3000000004040000000004040000000000000000000000000000000000000N1207000000204                 E3F6F31927009AE603C1616BD4AD2204
00027539229004ISENTO        ISMAEL MARCHESAN                   RS340078607       2012070121001000000094924B996D8019D7E2CCD5251A21F25DB3000000004040000000004040000000000000000000000000000000000000N1207000000204                 E3F6F31927009AE603C1616BD4AD2204
000011646520448094619098    JOICE OLIVEIRA DOS SANTOS          RS340078792       2012070121001000000095727C49EB378E806CF36077652E8DF9D6000000004040000000004040000000000000000000000000000000000000N1207000000206                 09B21632D24B29CA8D4EA22333861265
000011646520448094619098    JOICE OLIVEIRA DOS SANTOS          RS340078792       2012070121001000000095727C49EB378E806CF36077652E8DF9D6000000004040000000004040000000000000000000000000000000000000N1207000000206                 09B21632D24B29CA8D4EA22333861265
000494525410914039735255    ADEMIR GUSE                        RS340078517       201207012100100000009627AB290F04B61137062B9108153359A4000000004040000000004040000000000000000000000000000000000000N1207000000208                 2A0865283D8204CA8D064368B2420FB9
000494525410914039735255    ADEMIR GUSE                        RS340078517       201207012100100000009627AB290F04B61137062B9108153359A4000000004040000000004040000000000000000000000000000000000000N1207000000208                 2A0865283D8204CA8D064368B2420FB9
000152890790683024422564    ALTIDOR FLORES DE OLIVEIRA         RS340078516       20120701210010000000973E672FBD538C98FD2811600E16076C40000000004040000000004040000000000000000000000000000000000000N1207000000210                 925E3AC39E143325FC3D6F0CF7DB37BB
000152890790683024422564    ALTIDOR FLORES DE OLIVEIRA         RS340078516       20120701210010000000973E672FBD538C98FD2811600E16076C40000000004040000000004040000000000000000000000000000000000000N1207000000210                 925E3AC39E143325FC3D6F0CF7DB37BB
000255540930009020874336    ANTONIO FELIPIN                    RS340078515       201207012100100000009894387A6831856F7DD002014C231909C6000000004040000000004040000000000000000000000000000000000000N1207000000212                 572E35CA457F8F23184EB3A9C71ADB9E
000255540930009020874336    ANTONIO FELIPIN                    RS340078515       201207012100100000009894387A6831856F7DD002014C231909C6000000004040000000004040000000000000000000000000000000000000N1207000000212                 572E35CA457F8F23184EB3A9C71ADB9E
000488994100203039064633    ANTONIO MENEGHEIN JUNIOR           RS340078507       2012070121001000000099BD114FEF6DCA1F6F2A9E66B39B4A83CB000000004040000000004040000000000000000000000000000000000000N1207000000214                 11E9C67E4609490030903EE84DC7FD51
000488994100203039064633    ANTONIO MENEGHEIN JUNIOR           RS340078507       2012070121001000000099BD114FEF6DCA1F6F2A9E66B39B4A83CB000000004040000000004040000000000000000000000000000000000000N1207000000214                 11E9C67E4609490030903EE84DC7FD51
000897871450153062303536    CRISTIANO SIDNEI BRISSOW           RS340078533       2012070121001000000100D394F02547E1852CD325E33B16865D54000000004040000000004040000000000000000000000000000000000000N1207000000216                 11FC06E58B42EE272150CAFB881E43C9
000897871450153062303536    CRISTIANO SIDNEI BRISSOW           RS340078533       2012070121001000000100D394F02547E1852CD325E33B16865D54000000004040000000004040000000000000000000000000000000000000N1207000000216                 11FC06E58B42EE272150CAFB881E43C9
000332213830531017284041    DARI SCHULZ                        RS340078550       201207012100100000010125676AB54136AE04B3685BFAEE037838000000004040000000004040000000000000000000000000000000000000N1207000000218                 89A07807FB02A491C1E26FD6647ABD74
000332213830531017284041    DARI SCHULZ                        RS340078550       201207012100100000010125676AB54136AE04B3685BFAEE037838000000004040000000004040000000000000000000000000000000000000N1207000000218                 89A07807FB02A491C1E26FD6647ABD74
000279711390048013414597    ELCIRA DALMAS MENGHINI             RS340078556       20120701210010000001026F41357DF39166B08D11F783CBD3A5F0000000004040000000004040000000000000000000000000000000000000N1207000000220                 D23A4CA1BEE5A9B733668594A79A3B44
000279711390048013414597    ELCIRA DALMAS MENGHINI             RS340078556       20120701210010000001026F41357DF39166B08D11F783CBD3A5F0000000004040000000004040000000000000000000000000000000000000N1207000000220                 D23A4CA1BEE5A9B733668594A79A3B44
000654682870722032748151    ELOIR ROEHRS                       RS340078568       2012070121001000000103DCF05C4EC519AB5F4867BF0E9CB169FA000000004040000000004040000000000000000000000000000000000000N1207000000222                 25E9B97A160CAAE4B9922279F1CE2687
000654682870722032748151    ELOIR ROEHRS                       RS340078568       2012070121001000000103DCF05C4EC519AB5F4867BF0E9CB169FA000000004040000000004040000000000000000000000000000000000000N1207000000222                 25E9B97A160CAAE4B9922279F1CE2687
000368315730533016046041    ELOY GENZ                          RS340078787       2012070121001000000104657749A453B378C5767E95ABAA0D7472000000004040000000004040000000000000000000000000000000000000N1207000000224                 A6E66E11B8DD0579E30E6F6DAC134132
000368315730533016046041    ELOY GENZ                          RS340078787       2012070121001000000104657749A453B378C5767E95ABAA0D7472000000004040000000004040000000000000000000000000000000000000N1207000000224                 A6E66E11B8DD0579E30E6F6DAC134132
000419977430001026796886    EUGENIO WEBER                      RS340078820       2012070121001000000105181727B24E26710106B9B4E11B4A10A0000000004040000000004040000000000000000000000000000000000000N1207000000226                 43A33781A6257650B465B18131F2CF40
000419977430001026796886    EUGENIO WEBER                      RS340078820       2012070121001000000105181727B24E26710106B9B4E11B4A10A0000000004040000000004040000000000000000000000000000000000000N1207000000226                 43A33781A6257650B465B18131F2CF40
000485490020207039735357    FRANCISCO ALBERTO PRESTES          RS340078579       2012070121001000000106BA407F98CD2B72FEEEADEB04455A5A73000000004040000000004040000000000000000000000000000000000000N1207000000228                 A67BADDDBEAE7BDB923294BB196AA49E
000485490020207039735357    FRANCISCO ALBERTO PRESTES          RS340078579       2012070121001000000106BA407F98CD2B72FEEEADEB04455A5A73000000004040000000004040000000000000000000000000000000000000N1207000000228                 A67BADDDBEAE7BDB923294BB196AA49E
000896416980872055965848    HERCULANO CAMARGO DE OLIVEIRA      RS340078591       2012070121001000000107F47147CCCB7EF0932F9C9F68E02F2944000000004040000000004040000000000000000000000000000000000000N1207000000230                 29BB9D9BDB671176B14F7AC0304B79BB
000896416980872055965848    HERCULANO CAMARGO DE OLIVEIRA      RS340078591       2012070121001000000107F47147CCCB7EF0932F9C9F68E02F2944000000004040000000004040000000000000000000000000000000000000N1207000000230                 29BB9D9BDB671176B14F7AC0304B79BB
00077264363015ISENTO        HILMAR SCHEPKE                     RS340078750       2012070121001000000108AC73BD78D10C6D176AEF9F7E2699BA9B000000004040000000004040000000000000000000000000000000000000N1207000000232                 779D04A732B163E7B0FF940D70081F1C
00077264363015ISENTO        HILMAR SCHEPKE                     RS340078750       2012070121001000000108AC73BD78D10C6D176AEF9F7E2699BA9B000000004040000000004040000000000000000000000000000000000000N1207000000232                 779D04A732B163E7B0FF940D70081F1C
000336225400443018061956    JORGE ANTONIO DEZEM                RS340078609       201207012100100000010951C3FB76D9D6EDE8C781BC27147F0C20000000004040000000004040000000000000000000000000000000000000N1207000000234                 79AA55BEDCE12B3135A30C68E608D7BB
000336225400443018061956    JORGE ANTONIO DEZEM                RS340078609       201207012100100000010951C3FB76D9D6EDE8C781BC27147F0C20000000004040000000004040000000000000000000000000000000000000N1207000000234                 79AA55BEDCE12B3135A30C68E608D7BB
00005838444053ISENTO        LEVINO WEIDNANN                    RS340078754       201207012100100000011074D91FFDCC6A478025EEE932B9DAB288000000005390000000005390000000000000000000000000000000000000N1207000000236                 AC1B5F63172032F15412168469131F7A
00005838444053ISENTO        LEVINO WEIDNANN                    RS340078754       201207012100100000011074D91FFDCC6A478025EEE932B9DAB288000000005390000000005390000000000000000000000000000000000000N1207000000236                 AC1B5F63172032F15412168469131F7A
00040301842000ISENTO        SANTO LUIS PEDÛ                    RS340078765       2012070121001000000111A798DAB0DB76E9E513B9D5F19EBF1794000000004040000000004040000000000000000000000000000000000000N1207000000238                 F08B0C2999828A572810775577B53D75
00040301842000ISENTO        SANTO LUIS PEDÛ                    RS340078765       2012070121001000000111A798DAB0DB76E9E513B9D5F19EBF1794000000004040000000004040000000000000000000000000000000000000N1207000000238                 F08B0C2999828A572810775577B53D75
000654681630041047862303    TANIA SCHAURICH                    RS340078712       2012070121001000000112F916F316B6870ADC12B0A15F02CB6B0F000000004040000000004040000000000000000000000000000000000000N1207000000240                 4037488B684D170A02955E03199D1D00
000654681630041047862303    TANIA SCHAURICH                    RS340078712       2012070121001000000112F916F316B6870ADC12B0A15F02CB6B0F000000004040000000004040000000000000000000000000000000000000N1207000000240                 4037488B684D170A02955E03199D1D00
000043231730914017776768    AMARAL SOMAVILA                    RS340078503       2012070121001000000113E10A6A6F58A32CB15634325EDD057873000000004040000000004040000000000000000000000000000000000000N1207000000242                 99AC0FA01A0D9CB330D286F12B12672F
000043231730914017776768    AMARAL SOMAVILA                    RS340078503       2012070121001000000113E10A6A6F58A32CB15634325EDD057873000000004040000000004040000000000000000000000000000000000000N1207000000242                 99AC0FA01A0D9CB330D286F12B12672F
000702577870201051541223    CLAUDIO STEINHORST                 RS340078540       2012070121001000000114318FFA5054B4401309CB8A585C8B06DA000000004040000000004040000000000000000000000000000000000000N1207000000244                 DE2219240E96858FA03334997586F9EF
000702577870201051541223    CLAUDIO STEINHORST                 RS340078540       2012070121001000000114318FFA5054B4401309CB8A585C8B06DA000000004040000000004040000000000000000000000000000000000000N1207000000244                 DE2219240E96858FA03334997586F9EF
000445947390911034894814    EDEGAR MINETTO                     RS340078571       20120701210010000001156F332A65B94C627E9752AB29511C4048000000004040000000004040000000000000000000000000000000000000N1207000000246                 76630B8D9448DFF8EEC8F8A5D77FE849
000445947390911034894814    EDEGAR MINETTO                     RS340078571       20120701210010000001156F332A65B94C627E9752AB29511C4048000000004040000000004040000000000000000000000000000000000000N1207000000246                 76630B8D9448DFF8EEC8F8A5D77FE849
000275531400152010048491    FABIANO DOS SANTOS MOURA           RS340078741       20120701210010000001168E21EDE6CC0EB6735E02C9EE2528E608000000004040000000004040000000000000000000000000000000000000N1207000000248                 8C8CC32BBC8A1C1E521011D87C5BA528
000275531400152010048491    FABIANO DOS SANTOS MOURA           RS340078741       20120701210010000001168E21EDE6CC0EB6735E02C9EE2528E608000000004040000000004040000000000000000000000000000000000000N1207000000248                 8C8CC32BBC8A1C1E521011D87C5BA528
000559029520342053296411    LAURI MINETTO                      RS340078633       2012070121001000000117A18539A1D1FF26D98F7DFDD3101A245E000000004040000000004040000000000000000000000000000000000000N1207000000250                 DD3CF7B4A9DF0495C4C993A82B5CE597
000559029520342053296411    LAURI MINETTO                      RS340078633       2012070121001000000117A18539A1D1FF26D98F7DFDD3101A245E000000004040000000004040000000000000000000000000000000000000N1207000000250                 DD3CF7B4A9DF0495C4C993A82B5CE597
000449875520001034955029    NELIO MINETTO                      RS340078719       20120701210010000001189B3B25FBB86A2B78BB37E71301FDC5AD000000004040000000004040000000000000000000000000000000000000N1207000000252                 665BF05D82E03CB67C32975CE89293DC
000449875520001034955029    NELIO MINETTO                      RS340078719       20120701210010000001189B3B25FBB86A2B78BB37E71301FDC5AD000000004040000000004040000000000000000000000000000000000000N1207000000252                 665BF05D82E03CB67C32975CE89293DC
000357956540006020166887    OLINTO BURIN                       RS340078720       201207012100100000011974CF2D0E0AA551FA9A7CFB870F89107F000000004040000000004040000000000000000000000000000000000000N1207000000254                 D2702966C199E58892F7F4FB85CA1D0C
000357956540006020166887    OLINTO BURIN                       RS340078720       201207012100100000011974CF2D0E0AA551FA9A7CFB870F89107F000000004040000000004040000000000000000000000000000000000000N1207000000254                 D2702966C199E58892F7F4FB85CA1D0C
000423490280201029137112    PAULO ROBERTO COLETTO              RS340078721       201207012100100000012040A6F4B671DF1EDC964C26B2070FF353000000005390000000005390000000000000000000000000000000000000N1207000000256                 424FAC30FBA4EF8E3A186FB67CE482B1
000423490280201029137112    PAULO ROBERTO COLETTO              RS340078721       201207012100100000012040A6F4B671DF1EDC964C26B2070FF353000000005390000000005390000000000000000000000000000000000000N1207000000256                 424FAC30FBA4EF8E3A186FB67CE482B1
00045157910010ISENTO        ELOI BREMM                         RS340078584       20120701210010000001219F38591BB16192D1E50C7B938B789A06000000004040000000004040000000000000000000000000000000000000N1207000000258                 2C8E9BF8B5DD6DA20064347B20084E5B
00045157910010ISENTO        ELOI BREMM                         RS340078584       20120701210010000001219F38591BB16192D1E50C7B938B789A06000000004040000000004040000000000000000000000000000000000000N1207000000258                 2C8E9BF8B5DD6DA20064347B20084E5B
00027572609015ISENTO        ILDO JOSÈ SCHERER                  RS340078602       201207012100100000012263AF1607671B159A9490BEE0895C0E82000000008080000000008080000000000000000000000000000000000000N1207000000260                 F05956D16B9D9C3A053CCE17ECF1D49C
00027572609015ISENTO        ILDO JOSÈ SCHERER                  RS340078602       201207012100100000012263AF1607671B159A9490BEE0895C0E82000000008080000000008080000000000000000000000000000000000000N1207000000260                 F05956D16B9D9C3A053CCE17ECF1D49C
00033234361053ISENTO        RICARDO LUIS STEFFENS              RS340078701       20120701210010000001233E42AB7AE237D5A366756D2747283198000000004040000000004040000000000000000000000000000000000000N1207000000264                 2C14A5A5D0B8CC954AB1C34FE033F278
00033234361053ISENTO        RICARDO LUIS STEFFENS              RS340078701       20120701210010000001233E42AB7AE237D5A366756D2747283198000000004040000000004040000000000000000000000000000000000000N1207000000264                 2C14A5A5D0B8CC954AB1C34FE033F278
000705417010531064598251    PAULO CESAR ZAMIN                  RS340078686       2012070121001000000124550CA264B3139D9A631DC0A8F35F2BED000000004040000000004040000000000000000000000000000000000000N1207000000266                 FC52DE3BE87129DADE23EBDD641DA9E0
000705417010531064598251    PAULO CESAR ZAMIN                  RS340078686       2012070121001000000124550CA264B3139D9A631DC0A8F35F2BED000000004040000000004040000000000000000000000000000000000000N1207000000266                 FC52DE3BE87129DADE23EBDD641DA9E0
000034263780009026508052    BENO INACIO SCHMITT                RS340078800       2012070121001000000125214D32761EB89A7ABEDA33B7521E8768000000004040000000004040000000000000000000000000000000000000N1207000000268                 28D0F188ED3411B7B0A5F40D56A9DF8F
000034263780009026508052    BENO INACIO SCHMITT                RS340078800       2012070121001000000125214D32761EB89A7ABEDA33B7521E8768000000004040000000004040000000000000000000000000000000000000N1207000000268                 28D0F188ED3411B7B0A5F40D56A9DF8F
000217077580343021736586    ATILIO LUNARDI                     RS340078483       2012070121001000000126D9161247916C2129E79D10AA2AF6F48D000000004040000000004040000000000000000000000000000000000000N1207000000270                 F1C3C9181E5A19464CA5932D84514C61
000217077580343021736586    ATILIO LUNARDI                     RS340078483       2012070121001000000126D9161247916C2129E79D10AA2AF6F48D000000004040000000004040000000000000000000000000000000000000N1207000000270                 F1C3C9181E5A19464CA5932D84514C61
000217237100912024103489    FELIX CAPPELLARI                   RS340078581       2012070121001000000127F958064E16C2AE73062A424EFF3C61DB000000004040000000004040000000000000000000000000000000000000N1207000000272                 3E6C4B7A0EE65EEF43CC99ACCBCB5EC7
000217237100912024103489    FELIX CAPPELLARI                   RS340078581       2012070121001000000127F958064E16C2AE73062A424EFF3C61DB000000004040000000004040000000000000000000000000000000000000N1207000000272                 3E6C4B7A0EE65EEF43CC99ACCBCB5EC7
000489435500061035973955    BERNARDO ZALAMENA                  RS340078487       2012070121001000000128A1B565A32BF8231A6964389DEC80B64F000000004040000000004040000000000000000000000000000000000000N1207000000274                 8F026696189C920591EC192387F6823A
000489435500061035973955    BERNARDO ZALAMENA                  RS340078487       2012070121001000000128A1B565A32BF8231A6964389DEC80B64F000000004040000000004040000000000000000000000000000000000000N1207000000274                 8F026696189C920591EC192387F6823A
000801937060919057020613    CESAR LUIS DILLMANN                RS340078527       2012070121001000000129249CE1FA6BC8663E2B8818C8F6D4A3FF000000005390000000005390000000000000000000000000000000000000N1207000000276                 0129688439DDA7901C47FFCBA436CF82
000801937060919057020613    CESAR LUIS DILLMANN                RS340078527       2012070121001000000129249CE1FA6BC8663E2B8818C8F6D4A3FF000000005390000000005390000000000000000000000000000000000000N1207000000276                 0129688439DDA7901C47FFCBA436CF82
000245716600494021275948    CLAUDIO FRANCISCO DALCIN           RS340078531       20120701210010000001301AB25B76DDA0650BE0F3933FAE37222F000000004040000000004040000000000000000000000000000000000000N1207000000278                 00D3510687E3ED8C9C9A694F52AAFD53
000245716600494021275948    CLAUDIO FRANCISCO DALCIN           RS340078531       20120701210010000001301AB25B76DDA0650BE0F3933FAE37222F000000004040000000004040000000000000000000000000000000000000N1207000000278                 00D3510687E3ED8C9C9A694F52AAFD53
000460555090916044700414    IVAR DUARTE                        RS340078788       20120701210010000001314F3F8BFAEB6D1ECFB4B822EE03324E91000000004040000000004040000000000000000000000000000000000000N1207000000280                 3248105DCA2CFBA55AF6B396D80D38AF
000460555090916044700414    IVAR DUARTE                        RS340078788       20120701210010000001314F3F8BFAEB6D1ECFB4B822EE03324E91000000004040000000004040000000000000000000000000000000000000N1207000000280                 3248105DCA2CFBA55AF6B396D80D38AF
000441836580046034973435    MILTON JOSÈ DIEL                   RS340078810       201207012100100000013288BFFB77BBB7FA2037FC6F358B75C000000000004040000000004040000000000000000000000000000000000000N1207000000282                 4281559FD3392C7D26FC79830CFF1921
000441836580046034973435    MILTON JOSÈ DIEL                   RS340078810       201207012100100000013288BFFB77BBB7FA2037FC6F358B75C000000000004040000000004040000000000000000000000000000000000000N1207000000282                 4281559FD3392C7D26FC79830CFF1921
000551078180723042611933    VITOR ANTONIO CARPENEDO            RS340078726       2012070121001000000133B6E32207356B70831C4528530066CE1D000000005390000000005390000000000000000000000000000000000000N1207000000284                 572B86976C73F3B606BE7D9EA39AF5B5
000551078180723042611933    VITOR ANTONIO CARPENEDO            RS340078726       2012070121001000000133B6E32207356B70831C4528530066CE1D000000005390000000005390000000000000000000000000000000000000N1207000000284                 572B86976C73F3B606BE7D9EA39AF5B5
000523002930727044727845    DECIO RAMBO                        RS340078801       20120701210010000001347A336E688FA7DF21CA54E26CB11F7EA8000000004040000000004040000000000000000000000000000000000000N1207000000286                 899ABC041BAC12770D3AEE5C8C1EF2BF
000523002930727044727845    DECIO RAMBO                        RS340078801       20120701210010000001347A336E688FA7DF21CA54E26CB11F7EA8000000004040000000004040000000000000000000000000000000000000N1207000000286                 899ABC041BAC12770D3AEE5C8C1EF2BF
00044722320063ISENTO        ERALDO RAMBO                       RS340078557       20120701210010000001352ED162189A73063EB077EBD27FFBABE6000000004040000000004040000000000000000000000000000000000000N1207000000288                 1D8BA3FECB70123D803B14769DB85A10
00044722320063ISENTO        ERALDO RAMBO                       RS340078557       20120701210010000001352ED162189A73063EB077EBD27FFBABE6000000004040000000004040000000000000000000000000000000000000N1207000000288                 1D8BA3FECB70123D803B14769DB85A10
000602708880045050150621    JO„O ROQUE MADERS                  RS340078625       201207012100100000013600A7DCF78647585B4C66556A8FA270C4000000004040000000004040000000000000000000000000000000000000N1207000000290                 1ECEE7AA5285FDEAC5BF3CDBAEF51C29
000602708880045050150621    JO„O ROQUE MADERS                  RS340078625       201207012100100000013600A7DCF78647585B4C66556A8FA270C4000000004040000000004040000000000000000000000000000000000000N1207000000290                 1ECEE7AA5285FDEAC5BF3CDBAEF51C29
000962891470728056355798    ANGELA DE FARIA MARASCHIN          RS340078508       201207012100100000013751B4841DA7280625AEEB6320BFDF23FE000000007190000000007190000000000000000000000000000000000000N1207000000292                 A4A9A5548BF605A195A8259144DE20E6
000962891470728056355798    ANGELA DE FARIA MARASCHIN          RS340078508       201207012100100000013751B4841DA7280625AEEB6320BFDF23FE000000007190000000007190000000000000000000000000000000000000N1207000000292                 A4A9A5548BF605A195A8259144DE20E6
00021696624053ISENTO        ROMEU ALOISIO LOEBENS              RS340078674       20120701210010000001384F0FD0DC4A7D7C5DF9E1A389DD71AF98000000004040000000004040000000000000000000000000000000000000N1207000000294                 FD6D15933C2CAC7046C04809E54C3EC3
00021696624053ISENTO        ROMEU ALOISIO LOEBENS              RS340078674       20120701210010000001384F0FD0DC4A7D7C5DF9E1A389DD71AF98000000004040000000004040000000000000000000000000000000000000N1207000000294                 FD6D15933C2CAC7046C04809E54C3EC3
000438424020151026770188    SERGIO FRANCISCO CAPPELLARI        RS340078724       201207012100100000013916077FB5731105B010909851CC2DB15F000000004040000000004040000000000000000000000000000000000000N1207000000296                 B6FBBD0770174EFD94CD4EFD32E5B0B6
000438424020151026770188    SERGIO FRANCISCO CAPPELLARI        RS340078724       201207012100100000013916077FB5731105B010909851CC2DB15F000000004040000000004040000000000000000000000000000000000000N1207000000296                 B6FBBD0770174EFD94CD4EFD32E5B0B6
000332306410004009708365    VALDERINO WIELAND                  RS340078795       2012070121001000000140568F7C005A9EA4D5CF8F980760F7D022000000004040000000004040000000000000000000000000000000000000N1207000000298                 2DBD260DB58BD19BCF195781435564CD
000332306410004009708365    VALDERINO WIELAND                  RS340078795       2012070121001000000140568F7C005A9EA4D5CF8F980760F7D022000000004040000000004040000000000000000000000000000000000000N1207000000298                 2DBD260DB58BD19BCF195781435564CD
00033215391015ISENTO        DÈCIO BOKORNI                      RS340078546       2012070121001000000141C53A3447DD37D2959503D67135EA4165000000004040000000004040000000000000000000000000000000000000N1207000000300                 423C5A07A23D2C85056717AA6662B1D6
00033215391015ISENTO        DÈCIO BOKORNI                      RS340078546       2012070121001000000141C53A3447DD37D2959503D67135EA4165000000004040000000004040000000000000000000000000000000000000N1207000000300                 423C5A07A23D2C85056717AA6662B1D6
00078408555987ISENTO        MARIA INES JOHANN KULZERS          RS340078742       2012070121001000000142D3E85D4B1FD8B64621CAEC31F77CC567000000005390000000005390000000000000000000000000000000000000N1207000000302                 94A76A624A7AF23E122F50B4B94180EE
00078408555987ISENTO        MARIA INES JOHANN KULZERS          RS340078742       2012070121001000000142D3E85D4B1FD8B64621CAEC31F77CC567000000005390000000005390000000000000000000000000000000000000N1207000000302                 94A76A624A7AF23E122F50B4B94180EE
00054855020087ISENTO        MILTON BRUISMAMM                   RS340078646       201207012100100000014375A568A601DDD8EAF40A79AC30C7E97D000000004040000000004040000000000000000000000000000000000000N1207000000304                 5AEE0A873427932C3BEE3961DDDD6DE1
00054855020087ISENTO        MILTON BRUISMAMM                   RS340078646       201207012100100000014375A568A601DDD8EAF40A79AC30C7E97D000000004040000000004040000000000000000000000000000000000000N1207000000304                 5AEE0A873427932C3BEE3961DDDD6DE1
000892294870151042321933    MIRIA INES BECKER DIEL             RS340078649       20120701210010000001440922E6C87245D5328D18CEBD02276706000000004040000000004040000000000000000000000000000000000000N1207000000306                 5AEB785DD4C0729C695715C723B726E6
000892294870151042321933    MIRIA INES BECKER DIEL             RS340078649       20120701210010000001440922E6C87245D5328D18CEBD02276706000000004040000000004040000000000000000000000000000000000000N1207000000306                 5AEB785DD4C0729C695715C723B726E6
00044169051068ISENTO        PAULO CEZAR BOGORNI                RS340078673       2012070121001000000145A6E05A26976B292FE84625CA65752473000000004040000000004040000000000000000000000000000000000000N1207000000308                 7BEC73E8A19BEB09317FABD077163FDB
00044169051068ISENTO        PAULO CEZAR BOGORNI                RS340078673       2012070121001000000145A6E05A26976B292FE84625CA65752473000000004040000000004040000000000000000000000000000000000000N1207000000308                 7BEC73E8A19BEB09317FABD077163FDB
000309172710685069321874    ROMEU JUNG                         RS340078681       2012070121001000000146C9962D1ED676E7F77017E20B1CF6C7C8000000004040000000004040000000000000000000000000000000000000N1207000000310                 4FA431D203E1CC7E174629622A383EFA
000309172710685069321874    ROMEU JUNG                         RS340078681       2012070121001000000146C9962D1ED676E7F77017E20B1CF6C7C8000000004040000000004040000000000000000000000000000000000000N1207000000310                 4FA431D203E1CC7E174629622A383EFA
000411008160201026453711    ROQUE BENTO KNEBEL                 RS340078682       2012070121001000000147E2121DFE3E57FC27B8E93A4CE41C4509000000004040000000004040000000000000000000000000000000000000N1207000000312                 8EBA2875107056BBFFFC3834A54B310D
000411008160201026453711    ROQUE BENTO KNEBEL                 RS340078682       2012070121001000000147E2121DFE3E57FC27B8E93A4CE41C4509000000004040000000004040000000000000000000000000000000000000N1207000000312                 8EBA2875107056BBFFFC3834A54B310D
00036488356020ISENTO        WALDIR LUIS PETERS                 RS340078679       20120701210010000001488423F4B3DED98C0B565021A5BC7DDB6B000000004040000000004040000000000000000000000000000000000000N1207000000314                 25B9214AB6262267AE4B3F1293493574
00036488356020ISENTO        WALDIR LUIS PETERS                 RS340078679       20120701210010000001488423F4B3DED98C0B565021A5BC7DDB6B000000004040000000004040000000000000000000000000000000000000N1207000000314                 25B9214AB6262267AE4B3F1293493574
000599232700251127453206    ADELAR BERNARDI                    RS340078481       2012070121001000000149265DDD13C2F3A219886EFAB582FA3407000000004040000000004040000000000000000000000000000000000000N1207000000316                 12A8AFF9E0ABE42B7BC7769CCD8CAEAF
000599232700251127453206    ADELAR BERNARDI                    RS340078481       2012070121001000000149265DDD13C2F3A219886EFAB582FA3407000000004040000000004040000000000000000000000000000000000000N1207000000316                 12A8AFF9E0ABE42B7BC7769CCD8CAEAF
000555777170001044705984    ADELIR ROPKE                       RS340078482       2012070121001000000150B6F7DE428FA82D0F206668CA25693535000000004040000000004040000000000000000000000000000000000000N1207000000318                 E01075DD63CD77473A5369F3A87C3B92
000555777170001044705984    ADELIR ROPKE                       RS340078482       2012070121001000000150B6F7DE428FA82D0F206668CA25693535000000004040000000004040000000000000000000000000000000000000N1207000000318                 E01075DD63CD77473A5369F3A87C3B92
000438432800104035806258    ADEMAR PALAVER                     RS340078823       201207012100100000015166A607C761FEE86AD12947BAF6941F80000000004040000000004040000000000000000000000000000000000000N1207000000320                 2D64D2A897005712410169A25AEF9558
000438432800104035806258    ADEMAR PALAVER                     RS340078823       201207012100100000015166A607C761FEE86AD12947BAF6941F80000000004040000000004040000000000000000000000000000000000000N1207000000320                 2D64D2A897005712410169A25AEF9558
00030901820091ISENTO        ADELIR TRENTIN                     RS340078778       20120701210010000001529097E019274A1DD93D6A5D7B470E3DD1000000004040000000004040000000000000000000000000000000000000N1207000000322                 27E212D83BCE4298621AE70108447F67
00030901820091ISENTO        ADELIR TRENTIN                     RS340078778       20120701210010000001529097E019274A1DD93D6A5D7B470E3DD1000000004040000000004040000000000000000000000000000000000000N1207000000322                 27E212D83BCE4298621AE70108447F67
000757984920879044712819    ELAINE M¸LLER BATAGLION            RS340078561       2012070121001000000153CD6350FAA9F7BDBFFBD9D0E60EBAC145000000004040000000004040000000000000000000000000000000000000N1207000000324                 EBFACA2CC84337D5EEC6ECFCBAFA6EBC
000757984920879044712819    ELAINE M¸LLER BATAGLION            RS340078561       2012070121001000000153CD6350FAA9F7BDBFFBD9D0E60EBAC145000000004040000000004040000000000000000000000000000000000000N1207000000324                 EBFACA2CC84337D5EEC6ECFCBAFA6EBC
000757978790341052373386    ELTON ABITANTE                     RS340078562       201207012100100000015485D857F7A711CD633ADCA0BD8CA583F1000000005390000000005390000000000000000000000000000000000000N1207000000326                 72F104007F4955D3E02AAAC0FEBF3636
000757978790341052373386    ELTON ABITANTE                     RS340078562       201207012100100000015485D857F7A711CD633ADCA0BD8CA583F1000000005390000000005390000000000000000000000000000000000000N1207000000326                 72F104007F4955D3E02AAAC0FEBF3636
000273879250204024716989    HELDER MARIN                       RS340078592       2012070121001000000155B0CF1A7F1A8D701FB12CEB1D7C04A5E8000000004040000000004040000000000000000000000000000000000000N1207000000328                 1375E5CF1522419EE051F94867887C17
000273879250204024716989    HELDER MARIN                       RS340078592       2012070121001000000155B0CF1A7F1A8D701FB12CEB1D7C04A5E8000000004040000000004040000000000000000000000000000000000000N1207000000328                 1375E5CF1522419EE051F94867887C17
000387953700306012480213    IRES PERIN JASKOWIAK               RS340078597       20120701210010000001567E6B990F8FB029CE6FC9C8F9A2687D6C000000004040000000004040000000000000000000000000000000000000N1207000000330                 B5877C8B6CC9BDFF9A911E3A53C14622
000387953700306012480213    IRES PERIN JASKOWIAK               RS340078597       20120701210010000001567E6B990F8FB029CE6FC9C8F9A2687D6C000000004040000000004040000000000000000000000000000000000000N1207000000330                 B5877C8B6CC9BDFF9A911E3A53C14622
000387923890157022159136    IVO JO„O RIGON                     RS340078596       2012070121001000000157EDE4485C575FFE355FF5908419C59BA3000000004040000000004040000000000000000000000000000000000000N1207000000332                 EE9794090209D591DDE818C0E70D607D
000387923890157022159136    IVO JO„O RIGON                     RS340078596       2012070121001000000157EDE4485C575FFE355FF5908419C59BA3000000004040000000004040000000000000000000000000000000000000N1207000000332                 EE9794090209D591DDE818C0E70D607D
000245708690687010050099    JAIR ANTÙNIO BRUM                  RS340078620       2012070121001000000158CAB3C71E631BEB0C2E3CB1B8C295AC22000000004040000000004040000000000000000000000000000000000000N1207000000334                 487D8F04959345BE6BF2CE4F0F5C3B55
000245708690687010050099    JAIR ANTÙNIO BRUM                  RS340078620       2012070121001000000158CAB3C71E631BEB0C2E3CB1B8C295AC22000000004040000000004040000000000000000000000000000000000000N1207000000334                 487D8F04959345BE6BF2CE4F0F5C3B55
000937912080046068683405    JHONI FACCHINELLO                  RS340078619       2012070121001000000159C422F1004B4F8755BCF1E0F083EDCC85000000005390000000005390000000000000000000000000000000000000N1207000000336                 A1070887BA11A6E24D5F59E17D306DAC
000937912080046068683405    JHONI FACCHINELLO                  RS340078619       2012070121001000000159C422F1004B4F8755BCF1E0F083EDCC85000000005390000000005390000000000000000000000000000000000000N1207000000336                 A1070887BA11A6E24D5F59E17D306DAC
000493224940345012287297    JULIO CEZAR BRUN                   RS340078621       2012070121001000000160F6117F530C74B0A90795FD2BC5793E77000000005390000000005390000000000000000000000000000000000000N1207000000338                 288B1CB4B51BAD5CF12A424BE07FF428
000493224940345012287297    JULIO CEZAR BRUN                   RS340078621       2012070121001000000160F6117F530C74B0A90795FD2BC5793E77000000005390000000005390000000000000000000000000000000000000N1207000000338                 288B1CB4B51BAD5CF12A424BE07FF428
000938464360201018617934    LEONARDO DE CONTI                  RS340078636       2012070121001000000161A6003F7A9E73D5047A19F85E865A3F2D000000004040000000004040000000000000000000000000000000000000N1207000000340                 1575A3E864540741F7B64030B3537762
000938464360201018617934    LEONARDO DE CONTI                  RS340078636       2012070121001000000161A6003F7A9E73D5047A19F85E865A3F2D000000004040000000004040000000000000000000000000000000000000N1207000000340                 1575A3E864540741F7B64030B3537762
000387931640684019698911    LUIZ CARLOS ZAMIN                  RS340078634       2012070121001000000162FC1FC60ED16C0B006C3A682F8072F551000000004040000000004040000000000000000000000000000000000000N1207000000342                 21F575F3025659E5DD2A5C0DB917AA05
000387931640684019698911    LUIZ CARLOS ZAMIN                  RS340078634       2012070121001000000162FC1FC60ED16C0B006C3A682F8072F551000000004040000000004040000000000000000000000000000000000000N1207000000342                 21F575F3025659E5DD2A5C0DB917AA05
0001165847906810230186797   LUIZ PIROCCA                       RS340078635       20120701210010000001634451BC0178809E95B110A42383CF6CA2000000004040000000004040000000000000000000000000000000000000N1207000000344                 4D631BB0020EF6961473203E7DA54B83
0001165847906810230186797   LUIZ PIROCCA                       RS340078635       20120701210010000001634451BC0178809E95B110A42383CF6CA2000000004040000000004040000000000000000000000000000000000000N1207000000344                 4D631BB0020EF6961473203E7DA54B83
000927731840687062411595    MARCELO BIN                        RS340078656       201207012100100000016410A156FD4B697981298A11594EA42B29000000004040000000004040000000000000000000000000000000000000N1207000000346                 EACBB05145F37F46FB652DB1EF0FD9A2
000927731840687062411595    MARCELO BIN                        RS340078656       201207012100100000016410A156FD4B697981298A11594EA42B29000000004040000000004040000000000000000000000000000000000000N1207000000346                 EACBB05145F37F46FB652DB1EF0FD9A2
000946443140721073683714    MARCIO ANDRE GOLIN                 RS340078777       201207012100100000016595BB9226AA7ECA8EC9433500DF1D6049000000005390000000005390000000000000000000000000000000000000N1207000000348                 0B1131A695BA411A59545C6ED7AD9B99
000946443140721073683714    MARCIO ANDRE GOLIN                 RS340078777       201207012100100000016595BB9226AA7ECA8EC9433500DF1D6049000000005390000000005390000000000000000000000000000000000000N1207000000348                 0B1131A695BA411A59545C6ED7AD9B99
000911116760203052373391    MARCOS ANTONIO BERNARDI            RS340078657       2012070121001000000166B13AB82C1484EAE690CDBF5E384102D1000000004040000000004040000000000000000000000000000000000000N1207000000350                 B3D73AC9BB931F782BABDB3FB414B145
000911116760203052373391    MARCOS ANTONIO BERNARDI            RS340078657       2012070121001000000166B13AB82C1484EAE690CDBF5E384102D1000000004040000000004040000000000000000000000000000000000000N1207000000350                 B3D73AC9BB931F782BABDB3FB414B145
0001346057907280028245      OMAR BIN                           RS340078729       2012070121001000000167CA0398629C8E1CBE67E3237FA89A8C7E000000004040000000004040000000000000000000000000000000000000N1207000000352                 D152E370A5498F533F9F702F96BCD207
0001346057907280028245      OMAR BIN                           RS340078729       2012070121001000000167CA0398629C8E1CBE67E3237FA89A8C7E000000004040000000004040000000000000000000000000000000000000N1207000000352                 D152E370A5498F533F9F702F96BCD207
000199527160879018152257    VILI NERI MAYER HEMMIL„            RS340078725       201207012100100000016895602C215DD04559D63237C4E8D26897000000004040000000004040000000000000000000000000000000000000N1207000000354                 73E94BE2DAD69532780B357B84931742
000199527160879018152257    VILI NERI MAYER HEMMIL„            RS340078725       201207012100100000016895602C215DD04559D63237C4E8D26897000000004040000000004040000000000000000000000000000000000000N1207000000354                 73E94BE2DAD69532780B357B84931742
000885212570155025382135    HERTA REGINA CASSEL                RS340078811       20120701210010000001693F595047969B6EE7DCD0BE6EFBCA90E9000000004040000000004040000000000000000000000000000000000000N1207000000356                 91D3764D116858E2293E1CAB21B41FE9
000885212570155025382135    HERTA REGINA CASSEL                RS340078811       20120701210010000001693F595047969B6EE7DCD0BE6EFBCA90E9000000004040000000004040000000000000000000000000000000000000N1207000000356                 91D3764D116858E2293E1CAB21B41FE9
000275286420539011155927    MILTON CARLOS ABEGG                RS340078652       2012070121001000000170E6F2972D6CAE22434BF0EBDC3DF45475000000004040000000004040000000000000000000000000000000000000N1207000000358                 C8BDE8B8F2FCA91FEF5A4F4C7DFAA26B
000275286420539011155927    MILTON CARLOS ABEGG                RS340078652       2012070121001000000170E6F2972D6CAE22434BF0EBDC3DF45475000000004040000000004040000000000000000000000000000000000000N1207000000358                 C8BDE8B8F2FCA91FEF5A4F4C7DFAA26B
000664236940873051530537    ELEANDRO ALEXANDRE KOCHHANN        RS340078573       2012070121001000000171861D3B93053BAF4CDF71E61BD7C250F1000000005390000000005390000000000000000000000000000000000000N1207000000360                 935BA9339CCA423B2D6C2AFCCA28968D
000664236940873051530537    ELEANDRO ALEXANDRE KOCHHANN        RS340078573       2012070121001000000171861D3B93053BAF4CDF71E61BD7C250F1000000005390000000005390000000000000000000000000000000000000N1207000000360                 935BA9339CCA423B2D6C2AFCCA28968D
000247150340341001508041    ALFREDO JANSTCH                    RS340078509       2012070121001000000172403115EB06F0694C0B203F42D89E0317000000004040000000004040000000000000000000000000000000000000N1207000000362                 76037516FC2D572E7C7B71DB9DC03A45
000247150340341001508041    ALFREDO JANSTCH                    RS340078509       2012070121001000000172403115EB06F0694C0B203F42D89E0317000000004040000000004040000000000000000000000000000000000000N1207000000362                 76037516FC2D572E7C7B71DB9DC03A45
000275116000005014604903    LUIZ CARLOS BECKER                 RS340078624       20120701210010000001738C459FE3F5C6CDD6D08D2C068EDB4306000000004040000000004040000000000000000000000000000000000000N1207000000364                 BD7C92FC7C9999D2D29F2D95403CFDA3
000275116000005014604903    LUIZ CARLOS BECKER                 RS340078624       20120701210010000001738C459FE3F5C6CDD6D08D2C068EDB4306000000004040000000004040000000000000000000000000000000000000N1207000000364                 BD7C92FC7C9999D2D29F2D95403CFDA3
000212555470492009618584    LUIS FRANCISCO SCHENEIDER          RS340078630       201207012100100000017420EF562D175400CB8C0042E783C88338000000004040000000004040000000000000000000000000000000000000N1207000000366                 8495185DCB3F4953F76E23F54EB82372
000212555470492009618584    LUIS FRANCISCO SCHENEIDER          RS340078630       201207012100100000017420EF562D175400CB8C0042E783C88338000000004040000000004040000000000000000000000000000000000000N1207000000366                 8495185DCB3F4953F76E23F54EB82372
000460942020151034161529    LEANDRO FRIZO                      RS340078827       201207012100100000017555F4FE9A9B47DB70BE702DFBBD464DA2000000005390000000005390000000000000000000000000000000000000N1207000000368                 0F944A700C5682A50D1C3CFBB07034C0
000460942020151034161529    LEANDRO FRIZO                      RS340078827       201207012100100000017555F4FE9A9B47DB70BE702DFBBD464DA2000000005390000000005390000000000000000000000000000000000000N1207000000368                 0F944A700C5682A50D1C3CFBB07034C0
000828673050047083440987    SILVANA SILVEIRA DOBLER            RS340078689       201207012100100000017604AA81A79D95249819511FBCDEC36094000000004040000000004040000000000000000000000000000000000000N1207000000370                 B7B4DA5266E9E945A64E3904CF906E5F
000828673050047083440987    SILVANA SILVEIRA DOBLER            RS340078689       201207012100100000017604AA81A79D95249819511FBCDEC36094000000004040000000004040000000000000000000000000000000000000N1207000000370                 B7B4DA5266E9E945A64E3904CF906E5F
00037747010087ISENTO        GERVASIO JOSE LOFF                 RS340078749       2012070121001000000177B619E918E711FCF765A3A3D11CA453E0000000007990000000007990000000000000000000000000000000000000N1207000000372                 17FB17FB84210E7215E03F46A3B6FE70
00037747010087ISENTO        GERVASIO JOSE LOFF                 RS340078749       2012070121001000000177B619E918E711FCF765A3A3D11CA453E0000000007990000000007990000000000000000000000000000000000000N1207000000372                 17FB17FB84210E7215E03F46A3B6FE70
00074919008015ISENTO        JAQUELINE MIETH                    RS340078613       20120701210010000001783E1AA2C2E3930112F72947C4D9E71B72000000004490000000004490000000000000000000000000000000000000N1207000000374                 CCD6FE4E3D50471F2B867D81FB26135F
00074919008015ISENTO        JAQUELINE MIETH                    RS340078613       20120701210010000001783E1AA2C2E3930112F72947C4D9E71B72000000004490000000004490000000000000000000000000000000000000N1207000000374                 CCD6FE4E3D50471F2B867D81FB26135F
00030988667053ISENTO        AFONSO K. KUNKEL                   RS340078490       201207012100100000017951305589E7DBEADC50B361896B4CFB19000000004040000000004040000000000000000000000000000000000000N1207000000376                 07382537DCB1A7319481960D84D562B3
00030988667053ISENTO        AFONSO K. KUNKEL                   RS340078490       201207012100100000017951305589E7DBEADC50B361896B4CFB19000000004040000000004040000000000000000000000000000000000000N1207000000376                 07382537DCB1A7319481960D84D562B3
000515209400251026528371    EVANIOS GRUNDEMANN FENNER          RS340078567       2012070121001000000180B2CC9772694A34AF79EA8D0A60AF1C0B000000004040000000004040000000000000000000000000000000000000N1207000000378                 EE01247F5426EBF279C9B3CF4C6DADDA
000515209400251026528371    EVANIOS GRUNDEMANN FENNER          RS340078567       2012070121001000000180B2CC9772694A34AF79EA8D0A60AF1C0B000000004040000000004040000000000000000000000000000000000000N1207000000378                 EE01247F5426EBF279C9B3CF4C6DADDA
000332338880152020215195    INACIO LUIZ KIPPER HASS            RS340078604       2012070121001000000181032CE89399F8718B1DA28F5FEBAB8CE7000000004040000000004040000000000000000000000000000000000000N1207000000380                 F7AC1EC48D7A33C810687B027E964C37
000332338880152020215195    INACIO LUIZ KIPPER HASS            RS340078604       2012070121001000000181032CE89399F8718B1DA28F5FEBAB8CE7000000004040000000004040000000000000000000000000000000000000N1207000000380                 F7AC1EC48D7A33C810687B027E964C37
000357290150208022735933    JO„O AFONSO KOTZ                   RS340078606       20120701210010000001822102A98102D690586506A8D939CEAEB4000000004040000000004040000000000000000000000000000000000000N1207000000382                 B55C2747805325A461F152ED065C4094
000357290150208022735933    JO„O AFONSO KOTZ                   RS340078606       20120701210010000001822102A98102D690586506A8D939CEAEB4000000004040000000004040000000000000000000000000000000000000N1207000000382                 B55C2747805325A461F152ED065C4094
00000049273035ISENTO        JUNIO SCHARDONG                    RS340078610       2012070121001000000183CF662E65AF680EEE37E198DDD365D909000000004040000000004040000000000000000000000000000000000000N1207000000384                 ADF9EC4C40AD4E7F4F16BCD95A4F5C87
00000049273035ISENTO        JUNIO SCHARDONG                    RS340078610       2012070121001000000183CF662E65AF680EEE37E198DDD365D909000000004040000000004040000000000000000000000000000000000000N1207000000384                 ADF9EC4C40AD4E7F4F16BCD95A4F5C87
000457669400681039741804    LAURI HECK                         RS340078637       2012070121001000000184053B2BDED7D0F59EC4F96C479347B412000000004040000000004040000000000000000000000000000000000000N1207000000386                 BD8B2824D55D9243C523E9366F45FCEE
000457669400681039741804    LAURI HECK                         RS340078637       2012070121001000000184053B2BDED7D0F59EC4F96C479347B412000000004040000000004040000000000000000000000000000000000000N1207000000386                 BD8B2824D55D9243C523E9366F45FCEE
000588749920687027851976    NEDI LEONORA MAYER MATTES          RS340078666       20120701210010000001851747A42D1BD2F19658595E0D47759CB3000000004040000000004040000000000000000000000000000000000000N1207000000388                 DF5F46EBF04190A5AB5E8E6D25D7C248
000588749920687027851976    NEDI LEONORA MAYER MATTES          RS340078666       20120701210010000001851747A42D1BD2F19658595E0D47759CB3000000004040000000004040000000000000000000000000000000000000N1207000000388                 DF5F46EBF04190A5AB5E8E6D25D7C248
00030980640059ISENTO        OLANDO LIMBERGER                   RS340078762       20120701210010000001865310FC6B3F39226A2F28AD77D42BB53E000000004040000000004040000000000000000000000000000000000000N1207000000390                 2576F2A5F035228D5DD4092929178856
00030980640059ISENTO        OLANDO LIMBERGER                   RS340078762       20120701210010000001865310FC6B3F39226A2F28AD77D42BB53E000000004040000000004040000000000000000000000000000000000000N1207000000390                 2576F2A5F035228D5DD4092929178856
0000358569702020115832922   ROQUE ARENHART                     RS340078697       2012070121001000000187DF3C271CB25E9EBEF98D2988C1236556000000004040000000004040000000000000000000000000000000000000N1207000000392                 DA9A2F439191EE318DD86D61E75F5AFD
0000358569702020115832922   ROQUE ARENHART                     RS340078697       2012070121001000000187DF3C271CB25E9EBEF98D2988C1236556000000004040000000004040000000000000000000000000000000000000N1207000000392                 DA9A2F439191EE318DD86D61E75F5AFD
000372458130001035054591    ROQUE INACIO ANGNES LIMBERGER      RS340078700       201207012100100000018866736B692EC0E343ABA664422BD57209000000004040000000004040000000000000000000000000000000000000N1207000000394                 4D147CB1B746DE6F0F270D1F32DB0B88
000372458130001035054591    ROQUE INACIO ANGNES LIMBERGER      RS340078700       201207012100100000018866736B692EC0E343ABA664422BD57209000000004040000000004040000000000000000000000000000000000000N1207000000394                 4D147CB1B746DE6F0F270D1F32DB0B88
00043368484087ISENTO        VIRO LIMBERGER                     RS340078706       201207012100100000018905D2E349D55679ABE079E65E784B9829000000004040000000004040000000000000000000000000000000000000N1207000000396                 2FEFDA148523D7BCCECBB22B74133F55
00043368484087ISENTO        VIRO LIMBERGER                     RS340078706       201207012100100000018905D2E349D55679ABE079E65E784B9829000000004040000000004040000000000000000000000000000000000000N1207000000396                 2FEFDA148523D7BCCECBB22B74133F55
000523705930915014958853    ALBANO ALLES                       RS340078505       201207012100100000019055B99C804384B7E418B24BCBEFE69BE0000000004040000000004040000000000000000000000000000000000000N1207000000398                 7B4E3F6AFF7329408D35649CD47C5027
000523705930915014958853    ALBANO ALLES                       RS340078505       201207012100100000019055B99C804384B7E418B24BCBEFE69BE0000000004040000000004040000000000000000000000000000000000000N1207000000398                 7B4E3F6AFF7329408D35649CD47C5027
00030884870006ISENTO        NOLAR ALLES                        RS340078662       2012070121001000000191C232C6DF861228C6D7A8BC25E029C925000000004040000000004040000000000000000000000000000000000000N1207000000400                 73920FA52CF1A387AA4B267AF30986D4
00030884870006ISENTO        NOLAR ALLES                        RS340078662       2012070121001000000191C232C6DF861228C6D7A8BC25E029C925000000004040000000004040000000000000000000000000000000000000N1207000000400                 73920FA52CF1A387AA4B267AF30986D4
000331013880153017632351    ADEMIR JOSE CAPELLETI              RS340078848       201207012100100000019261FF7CCD12A15A858C0460D2825F1236000000004040000000004040000000000000000000000000000000000000N1207000000402                 989348C6A871150E3D8CD3F7199FFD95
000331013880153017632351    ADEMIR JOSE CAPELLETI              RS340078848       201207012100100000019261FF7CCD12A15A858C0460D2825F1236000000004040000000004040000000000000000000000000000000000000N1207000000402                 989348C6A871150E3D8CD3F7199FFD95
