00002883219109ISENTO        SALOMIDH PEREIRA PASSARINHO        TO340065798       201203132100100000000136AF439A0D60BB9E4D5F88B5D435A5A7000000005000000000005000000000000000000000000000000000000000N1203000000001             9E43205C0AEB3871AF10C50AA4289989
00002883219109ISENTO        SALOMIDH PEREIRA PASSARINHO        TO340066140       201203272100100000000235044B295C9B9B6517C3B9D39F176E6E000000020000000000020000000000000000000000000000000000000000N1203000000002             66343CBF192E18ABCE4E21CC8BB48C9C
21033980000280ISENTO        ASSOCIAÁ„O DE EDUCAÁ„O, SA˙DE  E CUMG140066144       2012032821001000000003FDA301FCAC9AEACC9F1D9BF6E8C9B852000000003840000000003840000000000000000000000000000000000000N1203000000006             E9ECD3DFBC861081925D1D091910329E
21033980000280ISENTO        ASSOCIAÁ„O DE EDUCAÁ„O, SA˙DE  E CUMG140066143       2012032821001000000004D43D466DC1EC4CDE6D35E9F5C467E5D1000000003840000000003840000000000000000000000000000000000000N1203000000007             51BC1B055251A726B3D430BA8462993D
21033980000280ISENTO        ASSOCIAÁ„O DE EDUCAÁ„O, SA˙DE  E CUMG140066142       2012032821001000000005EFE34D20C40CDBEA7DF8B3C34753533A000000000991000000000991000000000000000000000000000000000000N1203000000008             142FB4938B60C58FCFD8F0FC962A9114
