00002639287133TO340020130301210010000000015301001CO7932    CONEX„O INTERNET WIRELESS AIRMAX - 2MB (0104UN    0000000001900000000019000000047500000000000000000000000000000047500000000000000000000000000000000000000N1303     157B04265571DC2334026BD466FCD591
00002639287133TO340020130301210010000000015301002CO7932    CONEX„O INTERNET WIRELESS AIRMAX - 2MB (0104UN    0000000000900000000009000000022500000000000000000000000000000022500000000000000000000000000000000000000N1303     1A2975ABDEA9A80FE479F7DC9D6CFB66
00002639287133TO340020130301210010000000025301001CO7934    CONEX„O INTERNET WIRELESS AIRMAX - 2MB (0104UN    0000000002100000000021000000052500000000000000000000000000000052500000000000000000000000000000000000000N1303     D2CBD613DC307241D232EFC75F2BB56F
00002639287133TO340020130301210010000000025301002CO7934    CONEX„O INTERNET WIRELESS AIRMAX - 2MB (0104UN    0000000000700000000007000000017500000000000000000000000000000017500000000000000000000000000000000000000N1303     82003D75B3C1467441C28011776549F0
47358536000147SP140020130304210010000000031113001CO7949    CONEX„O INTERNET WIRELESS AIRMAX - 2MB (0104UN    0000000002100000000021000000047420000000000000000000000000000047420000000000000000000000000000000000000N1303     67565E983EDA59E665A9B1798A53A5FA
47358536000147SP140020130304210010000000031113002CO7949    CONEX„O INTERNET WIRELESS AIRMAX - 2MB (0104UN    0000000001000000000010000000022580000000000000000000000000000022580000000000000000000000000000000000000N1303     B6BA9A7E782ADB30F15DBA7A72B1DD8F
00002197484117TO340020130307210010000000045301001CO7955    CONEX„O INTERNET WIRELESS 5.8GHZ DEDICAD0104DIA   0000000002800000000028000006000000000060000000000000000000000000000000000000000000000000000000000000000S1303     609A36C2880679099814CD90B4E2F3B8
00000202498883TO340020130307210010000000055301001CO7783    CONEX„O INTERNET WIRELESS AIRMAX - 2MB (0104UN    0000000003100000000031000000070000000000000000000000000000000070000000000000000000000000000000000000000N1303     3F2AA08CAF6FEF251702A22B4024605D
00028352084100TO340020130307210010000000065301001CO7816    CONEX„O INTERNET WIRELESS AIRMAX - 1,5MB0104UN    0000000003100000000031000000070000000000000000000000000000000070000000000000000000000000000000000000000N1303     2882072007F462ED7FFBE14884169357
63887756000114PA140020130307210010000000070000001DESP      DESPESAS BOLETO                         0899DIA   0000000000000000000000000000000950000000000000000000000000000000000000000000000000000000000000000950000N1303     914D2338380D56EFF8369089F7EAEC5D
00037097750197TO340020130307210010000000080000001DESP      DESPESAS BOLETO                         0899DIA   0000000000000000000000000000000950000000000000000000000000000000000000000000000000000000000000000950000N1303     4B47D62672386ED573EEB17A301186AD
00003050060883TO340020130307210010000000095301001CO3429    CONEX„O INTERNET WIRELESS - 256KBPS (DAR0104UN    0000000003100000000031000000039900000000000000000000000000000039900000000000000000000000000000000000000N1303     B585CB4D64DC7A3BA41EA83D1357FBC7
00042737826187TO340020130307210010000000105301001CO3439    CONEX„O INTERNET WIRELESS - 256KBPS (LIA0104UN    0000000003100000000031000000039900000000000000000000000000000039900000000000000000000000000000000000000N1303     5664CF17AA8C9BB8BD149CDAE1321A3D
00021252335172TO340020130307210010000000115301001CO3443    CONEX„O INTERNET WIRELESS - 256KBPS (JRA0104UN    0000000003100000000031000000039900000000000000000000000000000039900000000000000000000000000000000000000N1303     C69CE425B3D75B458042E8B2BCB86E73
00053465440110TO340020130307210010000000125301001CO3463    CONEX„O INTERNET WIRELESS - 256KBPS (ERO0104UN    0000000003100000000031000000039900000000000000000000000000000039900000000000000000000000000000000000000N1303     C8A898DFFE727BAFA9931ACC9730925E
00063456311168TO340020130307210010000000135301001CO3465    CONEX„O INTERNET WIRELESS - 256KBPS (SEY0104UN    0000000003100000000031000000039900000000000000000000000000000039900000000000000000000000000000000000000N1303     C66087D3FABFC4BF89D2299A40E52B11
00021254575120TO340020130307210010000000145301001CO3475    CONEX„O INTERNET WIRELESS - 256KBPS (AMA0104UN    0000000003100000000031000000039900000000000000000000000000000039900000000000000000000000000000000000000N1303     EFB9A922F0650DCFA773BD5AD3B2F6B4
00061839957115TO340020130307210010000000155301001CO3597    CONEX„O INTERNET WIRELESS - 256KBPS (JAK0104UN    0000000003100000000031000000039900000000000000000000000000000039900000000000000000000000000000000000000N1303     CA16F785BB8192016DE1379EC5F1CE5B
00019133057834TO340020130307210010000000165301001CO3605    CONEX„O INTERNET WIRELESS - 256KBPS (JOL0104UN    0000000003100000000031000000039900000000000000000000000000000039900000000000000000000000000000000000000N1303     A8B554B6C02B82AC9B187A9BF1745005
00038046180149TO340020130307210010000000175301001CO3610    CONEX„O INTERNET WIRELESS - 256KBPS (JBI0104UN    0000000003100000000031000000039900000000000000000000000000000039900000000000000000000000000000000000000N1303     4265F4305A7C5F7E9E776498FF44F2C3
00026806801897TO340020130307210010000000185301001CO3613    CONEX„O INTERNET WIRELESS - 256KBPS (CLA0104UN    0000000003100000000031000000039900000000000000000000000000000039900000000000000000000000000000000000000N1303     3C3008267A51CC797D9AF5B0060DF58D
00046678298187TO340020130307210010000000195301001CO3653    CONEX„O INTERNET WIRELESS - 256KBPS (SIL0104UN    0000000003100000000031000000039900000000000000000000000000000039900000000000000000000000000000000000000N1303     975203FCAA326B32A4C7EB8A8AAF82BC
00019439946172TO340020130307210010000000205301001CO3661    CONEX„O INTERNET WIRELESS - 256KBPS (MAG0104UN    0000000003100000000031000000039900000000000000000000000000000039900000000000000000000000000000000000000N1303     25A10A363611D3027296BCA69FBF904F
00093155220104TO340020130307210010000000215301001CO3707    CONEX„O INTERNET WIRELESS - 256KBPS (RFE0104UN    0000000003100000000031000000039900000000000000000000000000000039900000000000000000000000000000000000000N1303     7344225571493E11256BA5E8FA048D1D
00048600156149TO340020130307210010000000225301001CO3732    CONEX„O INTERNET WIRELESS - 256KBPS (MGL0104UN    0000000003100000000031000000039900000000000000000000000000000039900000000000000000000000000000000000000S1303     0049DAA94EEBDB49075E995557D8D3CD
00077426940187TO340020130307210010000000235301001CO3828    CONEX„O INTERNET WIRELESS - 320KBPS (ARC0104UN    0000000003100000000031000000049900000000000000000000000000000049900000000000000000000000000000000000000N1303     06C05D9D677DB84F13ECBEDE608589C7
00028085728168TO340020130307210010000000245301001CO3943    CONEX„O INTERNET WIRELESS - 200KBPS (GIL0104UN    0000000003100000000031000000040000000000000000000000000000000040000000000000000000000000000000000000000N1303     CB5D45A29B6F39098B630359588DB2F2
00049409964172TO340020130307210010000000255301001CO3985    CONEX„O INTERNET WIRELESS - 200KBPS (MAR0104UN    0000000003100000000031000000040000000000000000000000000000000040000000000000000000000000000000000000000N1303     6BE45215BBE5BD160A95B687B243D6A1
00024343684172TO340020130307210010000000265301001CO4013    CONEX„O INTERNET WIRELESS - 200KBPS (JAI0104UN    0000000003100000000031000000040000000000000000000000000000000040000000000000000000000000000000000000000N1303     C45365ABD7835FF037E6F0C1984C4482
00078932297134TO340020130307210010000000275301001CO4105    CONEX„O INTERNET WIRELESS - 200KBPS (POV0104UN    0000000003100000000031000000040000000000100000000000000000000030000000000000000000000000000000000000000N1303     A185A4AD5883D6A95CB9B5757145407D
00093255985153TO340020130307210010000000285301001CO4110    CONEX„O INTERNET WIRELESS - 200KBPS (ROS0104UN    0000000003100000000031000000040000000000000000000000000000000040000000000000000000000000000000000000000N1303     6E412369B56A604F5A7B2FE5FCB0D7A4
00091185181172TO340020130307210010000000295301001CO4132    CONEX„O INTERNET WIRELESS - 200KBPS (GRA0104UN    0000000003100000000031000000040000000000000000000000000000000040000000000000000000000000000000000000000N1303     D214FF725C85D0A58A5D986E210ECB5E
00083967796191TO340020130307210010000000305301001CO4183    CONEX„O INTERNET WIRELESS - 200KBPS (WAN0104UN    0000000003100000000031000000040000000000000000000000000000000040000000000000000000000000000000000000000N1303     29A168EB57F1159A8AC6699C5910A227
00098334085168TO340020130307210010000000315301001CO4193    CONEX„O INTERNET WIRELESS - 200KBPS (SAR0104UN    0000000003100000000031000000040000000000000000000000000000000040000000000000000000000000000000000000000N1303     ACA474FB3E1EEB0FE0B9A54F7EE40D5A
00031110630115TO340020130307210010000000325301001CO4245    CONEX„O INTERNET WIRELESS - 200KBPS (DUD0104UN    0000000001000000000010000000014290000000000000000000000000000014290000000000000000000000000000000000000N1303     DBDC35C0DCD10D1E569B69C94DC537B2
00031110630115TO340020130307210010000000325301002CO4245    CONEX„O INTERNET WIRELESS - 200KBPS (DUD0104UN    0000000003100000000031000000040000000000000000000000000000000040000000000000000000000000000000000000000N1303     9665487559C7E677D2E2E72CFEA43C56
00040184714168TO340020130307210010000000335301001CO4253    CONEX„O INTERNET WIRELESS - 200KBPS (MAR0104UN    0000000003100000000031000000040000000000000000000000000000000040000000000000000000000000000000000000000N1303     FBBEC31F23934CE4DE01C98E76F54912
00080832334987TO340020130307210010000000345301001CO4334    CONEX„O INTERNET WIRELESS - 200KBPS (LUA0104UN    0000000003100000000031000000040000000000000000000000000000000040000000000000000000000000000000000000000N1303     C600C84A21216D67EB32DED37A405A92
00034826610149TO340020130307210010000000355301001CO4355    CONEX„O INTERNET WIRELESS - 200KBPS (SCH0104UN    0000000003100000000031000000040000000000000000000000000000000040000000000000000000000000000000000000000N1303     77A6B2F7658D5A94074C0B6E74E52D8F
00048398799153TO340020130307210010000000365301001CO4366    CONEX„O INTERNET WIRELESS - 200KBPS (NEV0104UN    0000000003100000000031000000040000000000000000000000000000000040000000000000000000000000000000000000000N1303     B1D85F5158D56944EF6FFD9A1FA4736C
00040184870100TO340020130307210010000000375301001CO4430    CONEX„O INTERNET WIRELESS - 200KBPS (LUZ0104UN    0000000003100000000031000000040000000000000000000000000000000040000000000000000000000000000000000000000N1303     8D1A529A1F7B19559F0191222AF5C1E8
00019348312120TO340020130307210010000000385301001CO4498    CONEX„O INTERNET WIRELESS - 200KBPS (OTO0104UN    0000000003100000000031000000040000000000000000000000000000000040000000000000000000000000000000000000000N1303     414BF09112EE24D108A3107875AE651F
00053469542104TO340020130307210010000000395301001CO4538    CONEX„O INTERNET WIRELESS - 200KBPS (EDV0104UN    0000000003100000000031000000040000000000000000000000000000000040000000000000000000000000000000000000000N1303     6AA4331C386D67D8974BD30FF91374CF
00061781134120TO340020130307210010000000405301001CO4648    CONEX„O INTERNET WIRELESS - 200KBPS (LIS0104UN    0000000003100000000031000000040000000000000000000000000000000040000000000000000000000000000000000000000N1303     1E156C148A3A0A90BFF165226125B3AE
00003908651174TO340020130307210010000000415301001CO4706    CONEX„O INTERNET WIRELESS - 200KBPS (ROM0104UN    0000000003100000000031000000040000000000000000000000000000000040000000000000000000000000000000000000000N1303     FB50F8E7AAD3A04512F8D33164224ED8
00079546897191TO340020130307210010000000425301001CO4729    CONEX„O INTERNET WIRELESS - 200KBPS (FRA0104UN    0000000003100000000031000000040000000000000000000000000000000040000000000000000000000000000000000000000N1303     5DB67ADB6AE3182B3EAA8C670C7FADE8
00001523354127TO340020130307210010000000435301001CO4736    CONEX„O INTERNET WIRELESS - 200KBPS (OSM0104UN    0000000003100000000031000000040000000000000000000000000000000040000000000000000000000000000000000000000N1303     423E864C28BADB004CBEFE1CAA824F86
00002124605100TO340020130307210010000000445301001CO4752    CONEX„O INTERNET WIRELESS - 200KBPS (ALI0104UN    0000000003100000000031000000040000000000000000000000000000000040000000000000000000000000000000000000000N1303     F39BE63B43AEA277152D33E3BE3055BB
00043212514191TO340020130307210010000000455301001CO4794    CONEX„O INTERNET WIRELESS - 200KBPS (JOS0104UN    0000000003100000000031000000040000000000000000000000000000000040000000000000000000000000000000000000000N1303     05069CAD96ED6A3E5BB263ACB43A66D6
00073435040106TO340020130307210010000000465301001CO4816    CONEX„O INTERNET WIRELESS - 200KBPS (SUZ0104UN    0000000003100000000031000000040000000000000000000000000000000040000000000000000000000000000000000000000N1303     146A087175C317E66822363746AA1DBD
00045711046187TO340020130307210010000000475301001CO4861    CONEX„O INTERNET WIRELESS - 200KBPS (LOU0104UN    0000000003100000000031000000040000000000000000000000000000000040000000000000000000000000000000000000000N1303     8359C6EA7FC6912ECA1A4B44B908693F
00000904068188TO340020130307210010000000485301001CO4874    CONEX„O INTERNET WIRELESS - 200KBPS (BAL0104UN    0000000003100000000031000000040000000000000000000000000000000040000000000000000000000000000000000000000N1303     3DF5DA07888DF23AF7ECF1FED6B4A745
00055601120110TO340020130307210010000000495301001CO4889    CONEX„O INTERNET WIRELESS - 200KBPS (FRA0104UN    0000000003100000000031000000040000000000000000000000000000000040000000000000000000000000000000000000000N1303     7CF4094D50A9218ED055BAA529BE9D35
00001268636100TO340020130307210010000000505301001CO4890    CONEX„O INTERNET WIRELESS - 200KBPS (CAR0104UN    0000000003100000000031000000040000000000000000000000000000000040000000000000000000000000000000000000000N1303     E46412AE1315960787D517CF11263414
00012756490920TO340020130307210010000000515301001CO4450    CONEX„O INTERNET WIRELESS - 250KBPS (AMP0104UN    0000000003100000000031000000045000000000000000000000000000000045000000000000000000000000000000000000000N1303     B4F5F95C02F9E23D236F59A163593588
00049927655134TO340020130307210010000000525301001CO4974    CONEX„O INTERNET WIRELESS - 250KBPS (NRE0104UN    0000000003100000000031000000040000000000000000000000000000000040000000000000000000000000000000000000000N1303     E606020943A9DE682F9C21D0B8013710
00035914971004TO340020130307210010000000535301001CO5012    CONEX„O INTERNET WIRELESS - 250KBPS (ALT0104UN    0000000003100000000031000000040000000000000000000000000000000040000000000000000000000000000000000000000N1303     35D009AF4D844E62ABE591B43B9EF3BA
00004758229198TO340020130307210010000000545301001CO5032    CONEX„O INTERNET WIRELESS - 250KBPS (CAI0104UN    0000000003100000000031000000040000000000000000000000000000000040000000000000000000000000000000000000000N1303     BD4774886085F6EA6E6760F2090B39C2
00019855125134TO340020130307210010000000555301001CO5057    CONEX„O INTERNET WIRELESS - 250KBPS (MH)0104UN    0000000003100000000031000000040000000000000000000000000000000040000000000000000000000000000000000000000N1303     A4F352FEC995A2736D88BCA1497D7FF9
00028573293187TO340020130307210010000000565301001CO5139    CONEX„O INTERNET WIRELESS - 250KBPS (LAF0104UN    0000000003100000000031000000040000000000000000000000000000000040000000000000000000000000000000000000000N1303     92113A8A10718A2F0D1E98FA76A556FF
00083494847134TO340020130307210010000000575301001CO5176    CONEX„O INTERNET WIRELESS - 250KBPS (DEV0104UN    0000000003100000000031000000040000000000000000000000000000000040000000000000000000000000000000000000000N1303     02F6B2CFA2FF2636B0B0022509F84F22
00051386801534TO340020130307210010000000585301001CO5180    CONEX„O INTERNET WIRELESS - 250KBPS (EDN0104UN    0000000003100000000031000000040000000000000000000000000000000040000000000000000000000000000000000000000N1303     11637A55BE2A9C36EE9C3626FDFBF987
00003113057175TO340020130307210010000000595301001CO5217    CONEX„O INTERNET WIRELESS - 250KBPS (ALD0104UN    0000000003100000000031000000040000000000000000000000000000000040000000000000000000000000000000000000000N1303     C5395730C5723B0FFFBEBC3D84BA468A
00002082475131TO340020130307210010000000605301001CO5373    CONEX„O INTERNET WIRELESS - 250KBPS (SEB0104UN    0000000003100000000031000000040000000000000000000000000000000040000000000000000000000000000000000000000N1303     C68A0419A3E5B6C8292A9FB8CB9337B4
00049230093149TO340020130307210010000000615301001CO5514    CONEX„O INTERNET WIRELESS - 250KBPS (RUB0104UN    0000000003100000000031000000040000000000000000000000000000000040000000000000000000000000000000000000000N1303     07031C5ECC57A738048FE2FDB67EFE06
00059646624120TO340020130307210010000000625301001CO5526    CONEX„O INTERNET WIRELESS - 250KBPS (HEB0104UN    0000000003100000000031000000040000000000000000000000000000000040000000000000000000000000000000000000000N1303     7E6E9A6889FD0B3AABACA304C43C2AE8
00077405331149TO340020130307210010000000635301001CO5544    CONEX„O INTERNET WIRELESS - 250KBPS (SON0104UN    0000000003100000000031000000040000000000000000000000000000000040000000000000000000000000000000000000000N1303     3D73B5F6CA6E8F5058FFAB0293921CBE
00081185952187TO340020130307210010000000645301001CO5619    CONEX„O INTERNET WIRELESS - 250KBPS (IVO0104UN    0000000003100000000031000000040000000000000000000000000000000040000000000000000000000000000000000000000N1303     EAE2BBAA8B79500D366B5C8D443404CA
00085297526191TO340020130307210010000000655301001CO5729    CONEX„O INTERNET WIRELESS - 250KBPS (FFE0104UN    0000000003100000000031000000040000000000000000000000000000000040000000000000000000000000000000000000000N1303     132CA67FF5DA849BE854B27125E50438
00087741717120TO340020130307210010000000665301001CO5826    CONEX„O INTERNET WIRELESS - 250KBPS (BET0104UN    0000000003100000000031000000040000000000000000000000000000000040000000000000000000000000000000000000000N1303     B3E7B4EA18754BCCABC075FCFAA5C8F0
00085687847120TO340020130307210010000000675301001CO5852    CONEX„O INTERNET WIRELESS - 250KBPS (REG0104UN    0000000003100000000031000000040000000000000000000000000000000040000000000000000000000000000000000000000N1303     55B3D22598E1E828FAFCC9B5F710A83B
00088006336172TO340020130307210010000000685301001CO6319    CONEX„O INTERNET WIRELESS - 250KBPS (IZA0104UN    0000000003100000000031000000040000000000000000000000000000000040000000000000000000000000000000000000000N1303     6C7DC3F0EDA12453628C8C36691E0F24
00064245934115TO340020130307210010000000695301001CO6988    CONEX„O INTERNET WIRELESS - 250KBPS (SUI0104UN    0000000003100000000031000000040000000000000000000000000000000040000000000000000000000000000000000000000N1303     02C0362B7CA9E2B9AB1DD1A2E3C12BB5
00022768203149TO340020130307210010000000705301001CO7180    CONEX„O INTERNET WIRELESS - 250KBPS (ELE0104UN    0000000003100000000031000000040000000000000000000000000000000040000000000000000000000000000000000000000N1303     B540518D41D1E99DBAB4B56B665AB775
00073465011104TO340020130307210010000000715301001CO4473    CONEX„O INTERNET WIRELESS - 300KBPS (EDN0104UN    0000000003100000000031000000050000000000000000000000000000000050000000000000000000000000000000000000000N1303     1B31C9E005E0016306E83718E2FD09A6
00081182970125TO340020130307210010000000725301001CO4467    CONEX„O INTERNET WIRELESS - 350KBPS (GID0104UN    0000000003100000000031000000055000000000000000000000000000000055000000000000000000000000000000000000000N1303     57F4D49487236BE090CD0076A58B9A4C
00083618287100TO340020130307210010000000735301001CO4692    CONEX„O INTERNET WIRELESS - 350KBPS (DIA0104UN    0000000003100000000031000000055000000000000000000000000000000055000000000000000000000000000000000000000N1303     250CDC2053BD2C8EF94335BDF5B7F412
00058456783404TO340020130307210010000000745301001CO4705    CONEX„O INTERNET WIRELESS - 350KBPS (ASS0104UN    0000000003100000000031000000055000000000000000000000000000000055000000000000000000000000000000000000000N1303     738A35DCCEEF4557509CC887D683BFF6
00046324950182TO340020130307210010000000755301001CO4872    CONEX„O INTERNET WIRELESS - 350KBPS (LUC0104UN    0000000003100000000031000000055000000000000000000000000000000055000000000000000000000000000000000000000N1303     686091263F6B4572603384B21DA12353
00011802642153TO340020130307210010000000765301001CO5018    CONEX„O INTERNET WIRELESS AIRMAX - 512KB0104UN    0000000003100000000031000000050000000000000000000000000000000050000000000000000000000000000000000000000N1303     75DF1EFA522D480194F2A20503A23F90
00081954018134TO340020130307210010000000775301001CO5085    CONEX„O INTERNET WIRELESS AIRMAX - 512KB0104UN    0000000003100000000031000000050000000000000000000000000000000050000000000000000000000000000000000000000N1303     05E66801EFA7AA4CC330F2B4DF4A9A63
00002521919195TO340020130307210010000000785301001CO5094    CONEX„O INTERNET WIRELESS AIRMAX - 512KB0104UN    0000000003100000000031000000050000000000100000000000000000000040000000000000000000000000000000000000000S1303     C9D607F42CA1A4F54BA70D86732E91DD
00087343622153TO340020130307210010000000795301001CO5141    CONEX„O INTERNET WIRELESS AIRMAX - 512KB0104UN    0000000003100000000031000000050000000000000000000000000000000050000000000000000000000000000000000000000N1303     82D1FBEFAADD16615DA397653F855821
00003369570173TO340020130307210010000000805301001CO5212    CONEX„O INTERNET WIRELESS AIRMAX - 512KB0104UN    0000000003100000000031000000050000000000000000000000000000000050000000000000000000000000000000000000000N1303     AD1C0E3BAA8BF5A0F224B38454C2C1E4
00004084942634TO340020130307210010000000815301001CO5295    CONEX„O INTERNET WIRELESS AIRMAX - 512KB0104UN    0000000003100000000031000000050000000000000000000000000000000050000000000000000000000000000000000000000N1303     0F93D231685AB323B1478C02D85DF277
00086334786172TO340020130307210010000000825301001CO5311    CONEX„O INTERNET WIRELESS AIRMAX - 512KB0104UN    0000000003100000000031000000050000000000000000000000000000000050000000000000000000000000000000000000000N1303     1D1F7AF5E4434AECFABCEE6743DFC97D
00086334786172TO340020130307210010000000825301002CO6323    CONEX„O INTERNET WIRELESS AIRMAX - 512KB0104UN    0000000003100000000031000000050000000000100000000000000000000040000000000000000000000000000000000000000N1303     695F9C96CF31061C7321061284D40E66
00000286262142TO340020130307210010000000835301001CO5355    CONEX„O INTERNET WIRELESS AIRMAX - 512KB0104UN    0000000003100000000031000000050000000000000000000000000000000050000000000000000000000000000000000000000N1303     47EA1D72C32E1E9CD98A80ABCCB221AC
00033308896168TO340020130307210010000000845301001CO5369    CONEX„O INTERNET WIRELESS AIRMAX - 512KB0104UN    0000000003100000000031000000050000000000100000000000000000000040000000000000000000000000000000000000000N1303     4CD5ED943F6D792F828EE45D96D14D99
00000631729178TO340020130307210010000000855301001CO5407    CONEX„O INTERNET WIRELESS AIRMAX - 512KB0104UN    0000000003100000000031000000050000000000100000000000000000000040000000000000000000000000000000000000000N1303     21BE306BE4568B4E05E71046181F6F0D
00045717958153TO340020130307210010000000865301001CO5426    CONEX„O INTERNET WIRELESS AIRMAX - 512KB0104UN    0000000003100000000031000000050000000000000000000000000000000050000000000000000000000000000000000000000N1303     3FA86BB748C303144D3F1839BF7A5668
00080796141134TO340020130307210010000000875301001CO5481    CONEX„O INTERNET WIRELESS AIRMAX - 512KB0104UN    0000000003100000000031000000050000000000000000000000000000000050000000000000000000000000000000000000000N1303     ACA2952185D5EEAEE75488B0C12E2279
00049170104115TO340020130307210010000000885301001CO5493    CONEX„O INTERNET WIRELESS AIRMAX - 512KB0104UN    0000000003100000000031000000050000000000000000000000000000000050000000000000000000000000000000000000000N1303     87B07342F0008EDB5011F624ECEDB453
00056640250187TO340020130307210010000000895301001CO5548    CONEX„O INTERNET WIRELESS AIRMAX - 512KB0104UN    0000000003100000000031000000050000000000000000000000000000000050000000000000000000000000000000000000000N1303     83CEE00050A3B9833EEEA0E97179A667
00046406433149TO340020130307210010000000905301001CO5554    CONEX„O INTERNET WIRELESS AIRMAX - 512KB0104UN    0000000003100000000031000000050000000000100000000000000000000040000000000000000000000000000000000000000S1303     B5ADBD285B1F7519FEDA6743FB4CF50E
00097962988134TO340020130307210010000000925301001CO5903    CONEX„O INTERNET WIRELESS AIRMAX - 512KB0104UN    0000000003100000000031000000050000000000100000000000000000000040000000000000000000000000000000000000000N1303     480AA0F1AE6C59775FCC5CBB2E9F00EA
00000154317110TO340020130307210010000000935301001CO5904    CONEX„O INTERNET WIRELESS AIRMAX - 512KB0104UN    0000000003100000000031000000050000000000100000000000000000000040000000000000000000000000000000000000000N1303     DD429B7DC32F0BDB2A6107A76136E862
00021255806168TO340020130307210010000000945301001CO5932    CONEX„O INTERNET WIRELESS AIRMAX - 512KB0104UN    0000000003100000000031000000050000000000100000000000000000000040000000000000000000000000000000000000000N1303     D0F49DEAB5452A60AE1F50891AEB0F81
00099749785134TO340020130307210010000000955301001CO5970    CONEX„O INTERNET WIRELESS AIRMAX - 512KB0104UN    0000000003100000000031000000050000000000100000000000000000000040000000000000000000000000000000000000000N1303     F440FFC1D637E1DF8091589421C77783
00062605240134TO340020130307210010000000965301001CO6083    CONEX„O INTERNET WIRELESS AIRMAX - 512KB0104UN    0000000003100000000031000000050000000000100000000000000000000040000000000000000000000000000000000000000N1303     6779FE8E0DC8302E11E3C272066B3B5C
00072768550159TO340020130307210010000000975301001CO6089    CONEX„O INTERNET WIRELESS AIRMAX - 512KB0104UN    0000000003100000000031000000050000000000100000000000000000000040000000000000000000000000000000000000000N1303     BEEC69F1367812A8930A9AADB07261F4
00003759505678TO340020130307210010000000985301001CO6092    CONEX„O INTERNET WIRELESS AIRMAX - 512KB0104UN    0000000003100000000031000000050000000000100000000000000000000040000000000000000000000000000000000000000N1303     91F5E15E44FD5433EDB50704E2F00CC0
00001414132123TO340020130307210010000000995301001CO6156    CONEX„O INTERNET WIRELESS AIRMAX - 512KB0104UN    0000000003100000000031000000050000000000100000000000000000000040000000000000000000000000000000000000000N1303     B2FCD46F01B4FEB7D155D4A80E966A42
00046406433149TO340020130307210010000001005301001CO6162    CONEX„O INTERNET WIRELESS AIRMAX - 512KB0104UN    0000000003100000000031000000050000000000100000000000000000000040000000000000000000000000000000000000000N1303     98DA4AAFBDC5242F33AC4F3D8B0FE880
00043499651149TO340020130307210010000001015301001CO6177    CONEX„O INTERNET WIRELESS AIRMAX - 512KB0104UN    0000000003100000000031000000050000000000100000000000000000000040000000000000000000000000000000000000000N1303     112AB1E3BC6BEFFFE0434D1F3E000C2E
00026144271104TO340020130307210010000001025301001CO6189    CONEX„O INTERNET WIRELESS AIRMAX - 512KB0104UN    0000000003100000000031000000050000000000100000000000000000000040000000000000000000000000000000000000000N1303     B76EDF4C21F2E52883156912B6E622A9
00073377503900TO340020130307210010000001035301001CO6208    CONEX„O INTERNET WIRELESS AIRMAX - 512KB0104UN    0000000003100000000031000000050000000000100000000000000000000040000000000000000000000000000000000000000N1303     44DA7A14BF294DA22E88457433DFF2F4
00062357328134TO340020130307210010000001045301001CO6214    CONEX„O INTERNET WIRELESS AIRMAX - 512KB0104UN    0000000003100000000031000000050000000000100000000000000000000040000000000000000000000000000000000000000N1303     247E392B54CBB7302E239DD7E2F43B1F
00082482233100TO340020130307210010000001055301001CO6242    CONEX„O INTERNET WIRELESS AIRMAX - 512KB0104UN    0000000003100000000031000000050000000000100000000000000000000040000000000000000000000000000000000000000N1303     85E9579D7790DCE7F58594F57D280D31
00049926454100TO340020130307210010000001065301001CO6271    CONEX„O INTERNET WIRELESS AIRMAX - 512KB0104UN    0000000003100000000031000000050000000000100000000000000000000040000000000000000000000000000000000000000N1303     CF4FE355569B8EA0C3D74D7BB3749233
00032345283149TO340020130307210010000001075301001CO6281    CONEX„O INTERNET WIRELESS AIRMAX - 512KB0104UN    0000000003100000000031000000050000000000100000000000000000000040000000000000000000000000000000000000000N1303     DBFFE5AFD27CC897D629734D4AB3495A
00053466357187TO340020130307210010000001085301001CO6299    CONEX„O INTERNET WIRELESS AIRMAX - 512KB0104UN    0000000003100000000031000000050000000000100000000000000000000040000000000000000000000000000000000000000N1303     71930CA19A2076F24E155943F7FC4E44
00053476174115TO340020130307210010000001095301001CO6304    CONEX„O INTERNET WIRELESS AIRMAX - 512KB0104UN    0000000003100000000031000000050000000000100000000000000000000040000000000000000000000000000000000000000N1303     708AC2F030F8FD1A12E97A8170F3F192
00080287166104TO340020130307210010000001105301001CO6320    CONEX„O INTERNET WIRELESS AIRMAX - 512KB0104UN    0000000003100000000031000000050000000000100000000000000000000040000000000000000000000000000000000000000N1303     42AF46ED7E1EB340670BE2D62F90B04A
00073141828172TO340020130307210010000001115301001CO6333    CONEX„O INTERNET WIRELESS AIRMAX - 512KB0104UN    0000000003100000000031000000050000000000100000000000000000000040000000000000000000000000000000000000000N1303     9B167FF7583BD5AAC5AEFECDFD5A97D7
00026274485104TO340020130307210010000001125301001CO6348    CONEX„O INTERNET WIRELESS AIRMAX - 512KB0104UN    0000000003100000000031000000050000000000100000000000000000000040000000000000000000000000000000000000000N1303     2DCC5661F9B7102C33069CEBF56A4142
00002848547197TO340020130307210010000001135301001CO6397    CONEX„O INTERNET WIRELESS AIRMAX - 512KB0104UN    0000000003100000000031000000050000000000100000000000000000000040000000000000000000000000000000000000000N1303     C8DCCDBF800672AAE7DBFD1ED427F3C0
00077849477120TO340020130307210010000001145301001CO6410    CONEX„O INTERNET WIRELESS AIRMAX - 512KB0104UN    0000000003100000000031000000050000000000100000000000000000000040000000000000000000000000000000000000000N1303     90B2563A15EFC133A8FCB997DDEC1DA3
00000790989166TO340020130307210010000001155301001CO6423    CONEX„O INTERNET WIRELESS AIRMAX - 512KB0104UN    0000000003100000000031000000050000000000100000000000000000000040000000000000000000000000000000000000000N1303     4ED92C15FE0BFC98F57B763503C9D763
00032317174187TO340020130307210010000001165301001CO6447    CONEX„O INTERNET WIRELESS AIRMAX - 512KB0104UN    0000000003100000000031000000050000000000100000000000000000000040000000000000000000000000000000000000000N1303     3138B8011D1AD67E06D71BD877F551C0
00083735607187TO340020130307210010000001175301001CO6498    CONEX„O INTERNET WIRELESS AIRMAX - 512KB0104UN    0000000003100000000031000000050000000000100000000000000000000040000000000000000000000000000000000000000N1303     FBF0F8C58BB5B8076D607E03F22588B3
00040190935120TO340020130307210010000001185301001CO6508    CONEX„O INTERNET WIRELESS AIRMAX - 512KB0104UN    0000000003100000000031000000050000000000100000000000000000000040000000000000000000000000000000000000000N1303     B8F70426C669AECC6A23DF32F132CC9F
00001539066185TO340020130307210010000001195301001CO6516    CONEX„O INTERNET WIRELESS AIRMAX - 512KB0104UN    0000000003100000000031000000050000000000100000000000000000000040000000000000000000000000000000000000000N1303     DDC39F146A985439171D8BC840DC9A8A
00041959531115TO340020130307210010000001205301001CO6518    CONEX„O INTERNET WIRELESS AIRMAX - 512KB0104UN    0000000003100000000031000000050000000000100000000000000000000040000000000000000000000000000000000000000N1303     0A77C8FB6293F1335B91C75907EA93A5
00001971103128TO340020130307210010000001215301001CO6543    CONEX„O INTERNET WIRELESS AIRMAX - 512KB0104UN    0000000003100000000031000000050000000000100000000000000000000040000000000000000000000000000000000000000N1303     D15A7D4AF0153D5FAEAB44C27A1CFBA3
00000970390122TO340020130307210010000001225301001CO6545    CONEX„O INTERNET WIRELESS AIRMAX - 512KB0104UN    0000000003100000000031000000050000000000100000000000000000000040000000000000000000000000000000000000000N1303     B2E7B38C8E682CE950D160C4708EBFCF
00001053055102TO340020130307210010000001235301001CO6550    CONEX„O INTERNET WIRELESS AIRMAX - 512KB0104UN    0000000003100000000031000000050000000000100000000000000000000040000000000000000000000000000000000000000N1303     302D7CDB0AAB18ED8DD61961AAD4E9A6
00057675953134TO340020130307210010000001245301001CO6552    CONEX„O INTERNET WIRELESS AIRMAX - 512KB0104UN    0000000003100000000031000000050000000000100000000000000000000040000000000000000000000000000000000000000N1303     329FB7E0E2D4C5CE394AA2A60A3713D3
00093020783100TO340020130307210010000001255301001CO6587    CONEX„O INTERNET WIRELESS AIRMAX - 512KB0104UN    0000000003100000000031000000050000000000100000000000000000000040000000000000000000000000000000000000000N1303     730D0E8926FF6D63934185517147229B
00052373037300TO340020130307210010000001265301001CO6607    CONEX„O INTERNET WIRELESS AIRMAX - 512KB0104UN    0000000003100000000031000000050000000000100000000000000000000040000000000000000000000000000000000000000N1303     84F4E5884D5CF53287E6908F0B84385C
00085643602172TO340020130307210010000001275301001CO6612    CONEX„O INTERNET WIRELESS AIRMAX - 512KB0104UN    0000000003100000000031000000050000000000100000000000000000000040000000000000000000000000000000000000000N1303     19F3DCC6EFB7C6320722728B870637C4
00002883219109TO340020130307210010000001285301001CO6655    CONEX„O INTERNET WIRELESS AIRMAX - 512KB0104UN    0000000003100000000031000000050000000000100000000000000000000040000000000000000000000000000000000000000N1303     21A7EDB4D8FD0A02D2A16967AAB89881
00049925059100TO340020130307210010000001295301001CO6660    CONEX„O INTERNET WIRELESS AIRMAX - 512KB0104UN    0000000003100000000031000000050000000000100000000000000000000040000000000000000000000000000000000000000N1303     EE9EE0AF293EDE18630316C868251F97
00095656294153TO340020130307210010000001305301001CO6664    CONEX„O INTERNET WIRELESS AIRMAX - 512KB0104UN    0000000003100000000031000000050000000000100000000000000000000040000000000000000000000000000000000000000N1303     8C1898473BF67F6F2CE38BFE55B9A81B
00019607725115TO340020130307210010000001315301001CO6678    CONEX„O INTERNET WIRELESS AIRMAX - 512KB0104UN    0000000003100000000031000000050000000000100000000000000000000040000000000000000000000000000000000000000N1303     8A88E1A156BC66FAF4CF2C21ED39B06B
00000445326107TO340020130307210010000001325301001CO6685    CONEX„O INTERNET WIRELESS AIRMAX - 512KB0104UN    0000000003100000000031000000050000000000100000000000000000000040000000000000000000000000000000000000000N1303     AD68C64C487FEC1D7C052B1ADCBC839E
00077731867153TO340020130307210010000001335301001CO6700    CONEX„O INTERNET WIRELESS AIRMAX - 512KB0104UN    0000000003100000000031000000050000000000100000000000000000000040000000000000000000000000000000000000000N1303     B079F61669705ADB4FD0678F39EC57E6
00081544723172TO340020130307210010000001345301001CO6736    CONEX„O INTERNET WIRELESS AIRMAX - 512KB0104UN    0000000003100000000031000000050000000000100000000000000000000040000000000000000000000000000000000000000N1303     06EFE715D8C16CBB335A92699A1003F5
00043156150134TO340020130307210010000001355301001CO6740    CONEX„O INTERNET WIRELESS AIRMAX - 512KB0104UN    0000000003100000000031000000050000000000100000000000000000000040000000000000000000000000000000000000000N1303     6618960C41C0596FEBF4F00F3AE5F4C3
00002041321180TO340020130307210010000001365301001CO6789    CONEX„O INTERNET WIRELESS AIRMAX - 512KB0104UN    0000000003100000000031000000050000000000100000000000000000000040000000000000000000000000000000000000000N1303     18BAF9B5AA991F2F6C7618A0C9FA0920
00091741173191TO340020130307210010000001375301001CO6791    CONEX„O INTERNET WIRELESS AIRMAX - 512KB0104UN    0000000003100000000031000000050000000000100000000000000000000040000000000000000000000000000000000000000N1303     69D7E401B20FE6722DD9B9C27A5C61AD
00001890718181TO340020130307210010000001385301001CO6821    CONEX„O INTERNET WIRELESS AIRMAX - 512KB0104UN    0000000003100000000031000000050000000000100000000000000000000040000000000000000000000000000000000000000N1303     AE4837D8AA804C2B2498D83FD5FFF024
00002629823156TO340020130307210010000001395301001CO6858    CONEX„O INTERNET WIRELESS AIRMAX - 512KB0104UN    0000000003100000000031000000050000000000100000000000000000000040000000000000000000000000000000000000000N1303     60C697281DE3221E0BBE689EBACBAD32
00076754308168TO340020130307210010000001405301001CO6867    CONEX„O INTERNET WIRELESS AIRMAX - 512KB0104UN    0000000003100000000031000000050000000000100000000000000000000040000000000000000000000000000000000000000N1303     2FDDA577B7285A05C52335D52678CD90
00049167057853TO340020130307210010000001415301001CO6905    CONEX„O INTERNET WIRELESS AIRMAX - 512KB0104UN    0000000003100000000031000000050000000000100000000000000000000040000000000000000000000000000000000000000N1303     3375A991C7013651ABABB7F61E18FEBC
00042460999372TO340020130307210010000001425301001CO6923    CONEX„O INTERNET WIRELESS AIRMAX - 512KB0104UN    0000000003100000000031000000050000000000100000000000000000000040000000000000000000000000000000000000000N1303     5EDAFAA3460F087ED3670D84C5C4F875
00086178997191TO340020130307210010000001435301001CO6980    CONEX„O INTERNET WIRELESS AIRMAX - 512KB0104UN    0000000003100000000031000000050000000000100000000000000000000040000000000000000000000000000000000000000N1303     135C83B290B54E906735DDA01ECC747F
00000904125165TO340020130307210010000001445301001CO7038    CONEX„O INTERNET WIRELESS AIRMAX - 512KB0104UN    0000000003100000000031000000050000000000100000000000000000000040000000000000000000000000000000000000000N1303     CF506ACF40D46F8DBAB94C9584FF40B7
00087997029168TO340020130307210010000001455301001CO7058    CONEX„O INTERNET WIRELESS AIRMAX - 512KB0104UN    0000000003100000000031000000050000000000100000000000000000000040000000000000000000000000000000000000000N1303     061D7B7870DE1B83EE9FA8F643282D43
00072723416291TO340020130307210010000001465301001CO7067    CONEX„O INTERNET WIRELESS AIRMAX - 512KB0104UN    0000000003100000000031000000050000000000100000000000000000000040000000000000000000000000000000000000000N1303     5E18E3BA331C37BD8FB65043A059CCD0
00001306800102TO340020130307210010000001475301001CO7069    CONEX„O INTERNET WIRELESS AIRMAX - 512KB0104UN    0000000003100000000031000000050000000000100000000000000000000040000000000000000000000000000000000000000N1303     87BA547EA3570C5E92962E99B36B0BAC
00085394106134TO340020130307210010000001485301001CO7081    CONEX„O INTERNET WIRELESS AIRMAX - 512KB0104UN    0000000003100000000031000000050000000000100000000000000000000040000000000000000000000000000000000000000N1303     1CBD07366A15B2D31FB6E9873000846C
00094708550600TO340020130307210010000001495301001CO7126    CONEX„O INTERNET WIRELESS AIRMAX - 512KB0104UN    0000000003100000000031000000050000000000100000000000000000000040000000000000000000000000000000000000000N1303     F0F34122C6DA4597DE3633B16AD3E3AE
00003331661163TO340020130307210010000001505301001CO7142    CONEX„O INTERNET WIRELESS AIRMAX - 512KB0104UN    0000000003100000000031000000050000000000100000000000000000000040000000000000000000000000000000000000000N1303     404F69B4291C6E7E6353F4286FE56040
00000741615126TO340020130307210010000001515301001CO7145    CONEX„O INTERNET WIRELESS AIRMAX - 512KB0104UN    0000000003100000000031000000050000000000100000000000000000000040000000000000000000000000000000000000000N1303     DF75C22537ED3A5873D6AF9011D85791
00038047616153TO340020130307210010000001525301001CO7183    CONEX„O INTERNET WIRELESS AIRMAX - 512KB0104UN    0000000003100000000031000000050000000000100000000000000000000040000000000000000000000000000000000000000N1303     67EDC3006F8EF3502E0BD6256F390B5B
00050493825304TO340020130307210010000001535301001CO7210    CONEX„O INTERNET WIRELESS AIRMAX - 512KB0104UN    0000000003100000000031000000050000000000100000000000000000000040000000000000000000000000000000000000000N1303     0E36FF488A104C4904D400883AF6792C
00062603876104TO340020130307210010000001545301001CO7211    CONEX„O INTERNET WIRELESS AIRMAX - 512KB0104UN    0000000003100000000031000000050000000000100000000000000000000040000000000000000000000000000000000000000N1303     1FCE3AF186723288660BBA391598AC59
00023992360172TO340020130307210010000001555301001CO7232    CONEX„O INTERNET WIRELESS AIRMAX - 512KB0104UN    0000000003100000000031000000050000000000100000000000000000000040000000000000000000000000000000000000000N1303     12C2E4F7A071BED80ED2ECFF49BA0534
00038220067187TO340020130307210010000001565301001CO7274    CONEX„O INTERNET WIRELESS AIRMAX - 512KB0104UN    0000000003100000000031000000050000000000000000000000000000000050000000000000000000000000000000000000000N1303     506F49281A2C03EB54AA1475F8927DD5
00002453931105TO340020130307210010000001575301001CO7285    CONEX„O INTERNET WIRELESS AIRMAX - 512KB0104UN    0000000003100000000031000000050000000000100000000000000000000040000000000000000000000000000000000000000N1303     7C5D9BAB656CC91C76E9228FE193DFEC
00029785510115TO340020130307210010000001585301001CO7501    CONEX„O INTERNET WIRELESS AIRMAX - 512KB0104UN    0000000003100000000031000000050000000000000000000000000000000050000000000000000000000000000000000000000N1303     50DD98350511DF7FD99A94B5BD4EF337
00000241457181TO340020130307210010000001595301001CO5175    CONEX„O INTERNET WIRELESS AIRMAX - 768KB0104UN    0000000003100000000031000000060000000000000000000000000000000060000000000000000000000000000000000000000N1303     6E55FAC330365C79A17B0867A23A1D0B
00028111060149TO340020130307210010000001605301001CO5324    CONEX„O INTERNET WIRELESS AIRMAX - 768KB0104UN    0000000003100000000031000000065000000000000000000000000000000065000000000000000000000000000000000000000N1303     991159E5F4CEE58CB0A066CA73EF1A43
00001315330105TO340020130307210010000001615301001CO5442    CONEX„O INTERNET WIRELESS AIRMAX - 768KB0104UN    0000000003100000000031000000060000000000100000000000000000000050000000000000000000000000000000000000000N1303     982EC38F3B957E18CBA54328C2BF0A71
00094877181172TO340020130307210010000001625301001CO6128    CONEX„O INTERNET WIRELESS AIRMAX - 768KB0104UN    0000000003100000000031000000060000000000100000000000000000000050000000000000000000000000000000000000000N1303     20DF79D17B5795F2F2D92CC1FFC84E1A
00090516443020TO340020130307210010000001635301001CO6245    CONEX„O INTERNET WIRELESS AIRMAX - 768KB0104UN    0000000003100000000031000000060000000000100000000000000000000050000000000000000000000000000000000000000N1303     7911ABEC6689489B5F7BACB4EF32C500
00000741627132TO340020130307210010000001645301001CO6279    CONEX„O INTERNET WIRELESS AIRMAX - 768KB0104UN    0000000003100000000031000000060000000000100000000000000000000050000000000000000000000000000000000000000N1303     A55B8B4E0819CFE06FB7A2765CC582B7
00004172337104TO340020130307210010000001655301001CO6339    CONEX„O INTERNET WIRELESS AIRMAX - 768KB0104UN    0000000003100000000031000000060000000000100000000000000000000050000000000000000000000000000000000000000N1303     2327C0598E23E718462076FC1FAA4B56
00049409433134TO340020130307210010000001665301001CO6373    CONEX„O INTERNET WIRELESS AIRMAX - 768KB0104UN    0000000003100000000031000000060000000000100000000000000000000050000000000000000000000000000000000000000N1303     5729B3A97D612D665D4582F98730AA86
00076089142115TO340020130307210010000001675301001CO6636    CONEX„O INTERNET WIRELESS AIRMAX - 768KB0104UN    0000000003100000000031000000060000000000100000000000000000000050000000000000000000000000000000000000000N1303     472C48930119A17F720189ADB239F876
00071557385149TO340020130307210010000001685301001CO6669    CONEX„O INTERNET WIRELESS AIRMAX - 768KB0104UN    0000000003100000000031000000060000000000100000000000000000000050000000000000000000000000000000000000000N1303     E47EE34339613BF10F985F92867CA3DA
00047938080500TO340020130307210010000001695301001CO6709    CONEX„O INTERNET WIRELESS AIRMAX - 768KB0104UN    0000000003100000000031000000060000000000100000000000000000000050000000000000000000000000000000000000000N1303     C1490D429C3C26E26AEFBBB5D826CB8C
00000591383195TO340020130307210010000001705301001CO6715    CONEX„O INTERNET WIRELESS AIRMAX - 768KB0104UN    0000000003100000000031000000060000000000100000000000000000000050000000000000000000000000000000000000000N1303     04835A80B3CC4853C460DDF0AC8A19D5
00094626227104TO340020130307210010000001715301001CO6839    CONEX„O INTERNET WIRELESS AIRMAX - 768KB0104UN    0000000003100000000031000000060000000000100000000000000000000050000000000000000000000000000000000000000N1303     44A43B46937B9F9D68DCD617C62DC70F
00001750740117TO340020130307210010000001725301001CO6869    CONEX„O INTERNET WIRELESS AIRMAX - 768KB0104UN    0000000003100000000031000000060000000000100000000000000000000050000000000000000000000000000000000000000N1303     9A0F2DCD30C4250985A43043FE52DE38
00064102262172TO340020130307210010000001735301001CO6871    CONEX„O INTERNET WIRELESS AIRMAX - 768KB0104UN    0000000003100000000031000000060000000000100000000000000000000050000000000000000000000000000000000000000N1303     C4D8A9B7313734E2111AA4FEA1619A1E
00038979110197TO340020130307210010000001745301001CO7011    CONEX„O INTERNET WIRELESS AIRMAX - 768KB0104UN    0000000003100000000031000000060000000000100000000000000000000050000000000000000000000000000000000000000N1303     7B779C3E6E486A7D25744BA92A65C9AF
00090714270130TO340020130307210010000001755301001CO7128    CONEX„O INTERNET WIRELESS AIRMAX - 768KB0104UN    0000000003100000000031000000060000000000100000000000000000000050000000000000000000000000000000000000000N1303     7CD40D2C8B6BD2459D1EC9E4F27CF26D
00087132966120TO340020130307210010000001765301001CO7132    CONEX„O INTERNET WIRELESS AIRMAX - 768KB0104UN    0000000003100000000031000000060000000000100000000000000000000050000000000000000000000000000000000000000N1303     3B686CB8063AF255E97F4B2DF3E0B708
00094007063168TO340020130307210010000001775301001CO7136    CONEX„O INTERNET WIRELESS AIRMAX - 768KB0104UN    0000000003100000000031000000060000000000100000000000000000000050000000000000000000000000000000000000000N1303     49B43CB2DF3D1A5D26E39DDE9705B2C5
00004466228698TO340020130307210010000001785301001CO7160    CONEX„O INTERNET WIRELESS AIRMAX - 768KB0104UN    0000000003100000000031000000060000000000100000000000000000000050000000000000000000000000000000000000000N1303     494A0102DEEFD3A7C56CB67F12901C41
00000471627160TO340020130307210010000001795301001CO7164    CONEX„O INTERNET WIRELESS AIRMAX - 768KB0104UN    0000000003100000000031000000060000000000100000000000000000000050000000000000000000000000000000000000000N1303     D6606CE2E16005245DDB198BCBC8CC52
00004893738100TO340020130307210010000001805301001CO7175    CONEX„O INTERNET WIRELESS AIRMAX - 768KB0104UN    0000000003100000000031000000060000000000100000000000000000000050000000000000000000000000000000000000000N1303     57C30E3080892A80180A354B705EBE46
00081402376200TO340020130307210010000001815301001CO7191    CONEX„O INTERNET WIRELESS AIRMAX - 768KB0104UN    0000000002400000000024-00000049290000000000000000000000-00000049290000000000000000000000000000000000000N1303     2D743FBDC1A1F0FFCD0FCA4BF718223B
00081402376200TO340020130307210010000001815301002CO7851    CONEX„O INTERNET WIRELESS AIRMAX - 1,5MB0104UN    0000000002300000000023000000057500000000082100000000000000000049290000000000000000000000000000000000000N1303     F0536F38F476C4E68B0A422C9368A5B1
00081402376200TO340020130307210010000001815301003CO7851    CONEX„O INTERNET WIRELESS AIRMAX - 1,5MB0104UN    0000000003100000000031000000070000000000100000000000000000000060000000000000000000000000000000000000000N1303     DE648024E8ACC51CAC608F7AC4E1D5D0
00049350595168TO340020130307210010000001825301001CO7194    CONEX„O INTERNET WIRELESS AIRMAX - 768KB0104UN    0000000003100000000031000000060000000000100000000000000000000050000000000000000000000000000000000000000N1303     588E02CA7DC7DC757C96777028CF3A26
00001472227107TO340020130307210010000001835301001CO7233    CONEX„O INTERNET WIRELESS AIRMAX - 768KB0104UN    0000000003100000000031000000060000000000100000000000000000000050000000000000000000000000000000000000000N1303     0473E78CB122FA46B1E915579AB6875B
00004063831469TO340020130307210010000001845301001CO7267    CONEX„O INTERNET WIRELESS AIRMAX - 768KB0104UN    0000000003100000000031000000060000000000100000000000000000000050000000000000000000000000000000000000000N1303     B4B9479689685CDC46658287B23D6271
00082218099187TO340020130307210010000001855301001CO7295    CONEX„O INTERNET WIRELESS AIRMAX - 768KB0104UN    0000000003100000000031000000060000000000100000000000000000000050000000000000000000000000000000000000000N1303     8E0B87EE29550471A44B1E6E0BE7B9F6
00064535541191TO340020130307210010000001865301001CO5081    CONEX„O INTERNET WIRELESS AIRMAX - 1MB (0104UN    0000000003100000000031000000070000000000000000000000000000000070000000000000000000000000000000000000000N1303     E1D7F0850F01026484CB39A67D2E53A8
00025264455821TO340020130307210010000001875301001CO5223    CONEX„O INTERNET WIRELESS AIRMAX - 1MB (0104UN    0000000003100000000031000000080000000000000000000000000000000080000000000000000000000000000000000000000N1303     4E0E45D839DD5DC3476D9FB9C41CD835
00083618384149TO340020130307210010000001885301001CO5313    CONEX„O INTERNET WIRELESS AIRMAX - 1MB (0104UN    0000000003100000000031000000080000000000200000000000000000000060000000000000000000000000000000000000000N1303     EAF7FA1CE23CB0E64329DA99F64D17D1
00000376034181TO340020130307210010000001895301001CO5395    CONEX„O INTERNET WIRELESS AIRMAX - 1MB (0104UN    0000000003100000000031000000080000000000000000000000000000000080000000000000000000000000000000000000000N1303     8F39E961201999CBE7876DE70AEBF0CA
00001428342117TO340020130307210010000001905301001CO5458    CONEX„O INTERNET WIRELESS AIRMAX - 1MB (0104UN    0000000003100000000031000000080000000000200000000000000000000060000000000000000000000000000000000000000N1303     DBD4876004B433ECA3402D8263FBDABC
00005113128651TO340020130307210010000001915301001CO5487    CONEX„O INTERNET WIRELESS AIRMAX - 1MB (0104UN    0000000003100000000031000000080000000000000000000000000000000080000000000000000000000000000000000000000N1303     E2C2765AFA074C85998A0D7548FCAB33
00054919690100TO340020130307210010000001925301001CO5516    CONEX„O INTERNET WIRELESS AIRMAX - 1MB (0104UN    0000000003100000000031000000080000000000000000000000000000000080000000000000000000000000000000000000000N1303     B5E59E04A08348BC7E36B8564E62D2B5
00047526386300TO340020130307210010000001935301001CO5541    CONEX„O INTERNET WIRELESS AIRMAX - 1MB (0104UN    0000000003100000000031000000040000000000000000000000000000000040000000000000000000000000000000000000000N1303     33AAA1FCEA054BE048669F3D874F65B5
00087644630104TO340020130307210010000001945301001CO5542    CONEX„O INTERNET WIRELESS AIRMAX - 1MB (0104UN    0000000003100000000031000000080000000000000000000000000000000080000000000000000000000000000000000000000N1303     343FD8A0B88695F98191D3779D80D4E3
00020603720200TO340020130307210010000001955301001CO5596    CONEX„O INTERNET WIRELESS AIRMAX - 1MB (0104UN    0000000003100000000031000000080000000000200000000000000000000060000000000000000000000000000000000000000N1303     273ADCD5D7E8B304CA3C32448CCE6317
00036018279134TO340020130307210010000001965301001CO5616    CONEX„O INTERNET WIRELESS AIRMAX - 1MB (0104UN    0000000003100000000031000000080000000000200000000000000000000060000000000000000000000000000000000000000N1303     B4B3954169270513E68AD73AC23503E8
00096775130104TO340020130307210010000001975301001CO5685    CONEX„O INTERNET WIRELESS AIRMAX - 1MB (0104UN    0000000003100000000031000000080000000000200000000000000000000060000000000000000000000000000000000000000N1303     F79D1110287CF709264051A144A49481
00099625466134TO340020130307210010000001985301001CO5739    CONEX„O INTERNET WIRELESS AIRMAX - 1MB (0104UN    0000000003100000000031000000080000000000000000000000000000000080000000000000000000000000000000000000000N1303     49697C7CEAE6CA9251B6330E294C9926
00082513570120TO340020130307210010000001995301001CO5765    CONEX„O INTERNET WIRELESS AIRMAX - 1MB (0104UN    0000000003100000000031000000080000000000200000000000000000000060000000000000000000000000000000000000000N1303     EA8EF2F5C13D9905990BDEC68276E148
00000448020130TO340020130307210010000002005301001CO5777    CONEX„O INTERNET WIRELESS AIRMAX - 1MB (0104UN    0000000003100000000031000000080000000000200000000000000000000060000000000000000000000000000000000000000N1303     9ACCCED15BEAB47D20F59799EB020546
00038300273115TO340020130307210010000002015301001CO5803    CONEX„O INTERNET WIRELESS AIRMAX - 1MB (0104UN    0000000003100000000031000000080000000000200000000000000000000060000000000000000000000000000000000000000N1303     02C9ED8AC45174630140D1A145B61321
00069144915268TO340020130307210010000002025301001CO5811    CONEX„O INTERNET WIRELESS AIRMAX - 1MB (0104UN    0000000003100000000031000000080000000000200000000000000000000060000000000000000000000000000000000000000N1303     B687A8785553769DD17015D7DD2F67A0
00085043567104TO340020130307210010000002035301001CO5816    CONEX„O INTERNET WIRELESS AIRMAX - 1MB (0104UN    0000000003100000000031000000080000000000200000000000000000000060000000000000000000000000000000000000000N1303     98CAD4721539F5128908D1DB826C0C3F
00095173021187TO340020130307210010000002045301001CO5820    CONEX„O INTERNET WIRELESS AIRMAX - 1MB (0104UN    0000000003100000000031000000080000000000200000000000000000000060000000000000000000000000000000000000000N1303     59AE2EAE89E5AB2C4A6DE1FD7FD129CC
00056050151172TO340020130307210010000002055301001CO5840    CONEX„O INTERNET WIRELESS AIRMAX - 1MB (0104UN    0000000003100000000031000000080000000000200000000000000000000060000000000000000000000000000000000000000N1303     B8F8C95EE33D3CE9377FE02510C045FB
00034983457100TO340020130307210010000002065301001CO5846    CONEX„O INTERNET WIRELESS AIRMAX - 1MB (0104UN    0000000003100000000031000000080000000000200000000000000000000060000000000000000000000000000000000000000N1303     E5F5C98F2EE65688DFFDD13F71B3CCBC
00002905325151TO340020130307210010000002075301001CO5872    CONEX„O INTERNET WIRELESS AIRMAX - 1MB (0104UN    0000000003100000000031000000080000000000200000000000000000000060000000000000000000000000000000000000000N1303     C8449E696F67B28B58D5700DF4DE6660
00077558812100TO340020130307210010000002085301001CO5873    CONEX„O INTERNET WIRELESS AIRMAX - 1MB (0104UN    0000000003100000000031000000080000000000200000000000000000000060000000000000000000000000000000000000000N1303     A9586E99C849155E62F7579DA988C8AF
00052668975115TO340020130307210010000002095301001CO5918    CONEX„O INTERNET WIRELESS AIRMAX - 1MB (0104UN    0000000003100000000031000000080000000000200000000000000000000060000000000000000000000000000000000000000N1303     EAB2B863A3F7C197C8C715E4CB38F877
00088910385120TO340020130307210010000002105301001CO5951    CONEX„O INTERNET WIRELESS AIRMAX - 1MB (0104UN    0000000003100000000031000000080000000000200000000000000000000060000000000000000000000000000000000000000N1303     DDD3D6E4C943240A5D201FF8ADFCB90F
00002641947137TO340020130307210010000002115301001CO6118    CONEX„O INTERNET WIRELESS AIRMAX - 1MB (0104UN    0000000003100000000031000000080000000000200000000000000000000060000000000000000000000000000000000000000N1303     95A74A8365C7A74F9EA748206C381D61
00084998938134TO340020130307210010000002125301001CO6157    CONEX„O INTERNET WIRELESS AIRMAX - 1MB (0104UN    0000000003100000000031000000080000000000200000000000000000000060000000000000000000000000000000000000000N1303     09BD8B2419B3BDA0F9E8801D5AA7A7F4
00088571076120TO340020130307210010000002135301001CO6167    CONEX„O INTERNET WIRELESS AIRMAX - 1MB (0104UN    0000000003100000000031000000080000000000200000000000000000000060000000000000000000000000000000000000000N1303     4C6FBAF1FDC3E1A2E6BEE3B3FC7DD5A7
00003599765146TO340020130307210010000002145301001CO6219    CONEX„O INTERNET WIRELESS AIRMAX - 1MB (0104UN    0000000003100000000031000000080000000000200000000000000000000060000000000000000000000000000000000000000N1303     4049DF5001013142C15CEF06A335D093
00001450367151TO340020130307210010000002155301001CO6265    CONEX„O INTERNET WIRELESS AIRMAX - 1MB (0104UN    0000000003100000000031000000060000000000250000000000000000000035000000000000000000000000000000000000000N1303     217A7A9761283D106FEF8B125022A4AB
00052646181191TO340020130307210010000002165301001CO6266    CONEX„O INTERNET WIRELESS AIRMAX - 1MB (0104UN    0000000003100000000031000000080000000000200000000000000000000060000000000000000000000000000000000000000N1303     DC782181F3D94E4DB11BAEA6E3B4F9DF
00064245837187TO340020130307210010000002175301001CO6295    CONEX„O INTERNET WIRELESS AIRMAX - 1MB (0104UN    0000000003100000000031000000080000000000200000000000000000000060000000000000000000000000000000000000000N1303     64FBECAD14A412E6CF13EA31F4EDCB6E
00058679073172TO340020130307210010000002185301001CO6302    CONEX„O INTERNET WIRELESS AIRMAX - 1MB (0104UN    0000000003100000000031000000080000000000200000000000000000000060000000000000000000000000000000000000000N1303     0813A9B3EDA4FA77A7477F402616536C
00003828418163TO340020130307210010000002195301001CO6327    CONEX„O INTERNET WIRELESS AIRMAX - 1MB (0104UN    0000000003100000000031000000080000000000200000000000000000000060000000000000000000000000000000000000000N1303     39FB236A94DB16617AC8CD4A0210E5B0
00089854764168TO340020130307210010000002205301001CO6358    CONEX„O INTERNET WIRELESS AIRMAX - 1MB (0104UN    0000000003100000000031000000080000000000200000000000000000000060000000000000000000000000000000000000000N1303     CDB4A8969A733815141E8E9A55CA65A4
00000972588140TO340020130307210010000002215301001CO6372    CONEX„O INTERNET WIRELESS AIRMAX - 1MB (0104UN    0000000003100000000031000000080000000000200000000000000000000060000000000000000000000000000000000000000N1303     B5329263AC38357DDF4B53FD2D91E7BA
00086264524115TO340020130307210010000002225301001CO6381    CONEX„O INTERNET WIRELESS AIRMAX - 1MB (0104UN    0000000003100000000031000000080000000000200000000000000000000060000000000000000000000000000000000000000N1303     64977212B20E989B7C2300D119A9190F
00031155405072TO340020130307210010000002235301001CO6439    CONEX„O INTERNET WIRELESS AIRMAX - 1MB (0104UN    0000000003100000000031000000080000000000200000000000000000000060000000000000000000000000000000000000000N1303     87E01C61C91EDB6D88FD93826FAFAC48
00032005539104TO340020130307210010000002245301001CO6450    CONEX„O INTERNET WIRELESS AIRMAX - 1MB (0104UN    0000000003100000000031000000080000000000200000000000000000000060000000000000000000000000000000000000000N1303     F30C860A8A9FBBD84FED56F942A4B54D
00093695896191TO340020130307210010000002255301001CO6451    CONEX„O INTERNET WIRELESS AIRMAX - 1MB (0104UN    0000000003100000000031000000020000000000000000000000000000000020000000000000000000000000000000000000000N1303     82A8494042074739752D01FF2B86D0DD
00052668525187TO340020130307210010000002265301001CO6462    CONEX„O INTERNET WIRELESS AIRMAX - 1MB (0104UN    0000000003100000000031000000080000000000200000000000000000000060000000000000000000000000000000000000000N1303     8C21E80495902EE4658289CE55AFD100
00086779516104TO340020130307210010000002275301001CO6464    CONEX„O INTERNET WIRELESS AIRMAX - 1MB (0104UN    0000000003100000000031000000080000000000200000000000000000000060000000000000000000000000000000000000000N1303     2601D13101DF513B401E5C677526EE20
00038295431153TO340020130307210010000002285301001CO6466    CONEX„O INTERNET WIRELESS AIRMAX - 1MB (0104UN    0000000003100000000031000000080000000000200000000000000000000060000000000000000000000000000000000000000N1303     14A73C1B48F24187FFD6E6A00E787266
00004268908170TO340020130307210010000002295301001CO6472    CONEX„O INTERNET WIRELESS AIRMAX - 1MB (0104UN    0000000003100000000031000000080000000000200000000000000000000060000000000000000000000000000000000000000N1303     631CC7A65DDC85A78CD0FC84DF03606B
00077769880149TO340020130307210010000002305301001CO6484    CONEX„O INTERNET WIRELESS AIRMAX - 1MB (0104UN    0000000003100000000031000000080000000000200000000000000000000060000000000000000000000000000000000000000N1303     B66D9A89FCABF3D6136770E2AF180320
00004089257107TO340020130307210010000002315301001CO6554    CONEX„O INTERNET WIRELESS AIRMAX - 1MB (0104UN    0000000003100000000031000000080000000000200000000000000000000060000000000000000000000000000000000000000N1303     317ED47BC8AB722C28CBAD46FA6D3534
00097414816168TO340020130307210010000002325301001CO6572    CONEX„O INTERNET WIRELESS AIRMAX - 1MB (0104UN    0000000001500000000015000000038710000000096800000000000000000029030000000000000000000000000000000000000N1303     8E475CAB25C9775F811C8991E460126E
00002871097127TO340020130307210010000002335301001CO6627    CONEX„O INTERNET WIRELESS AIRMAX - 1MB (0104UN    0000000003100000000031000000080000000000200000000000000000000060000000000000000000000000000000000000000N1303     61F1D0E101DE45BB3DD4DC8B39A516F7
00089404106100TO340020130307210010000002345301001CO6632    CONEX„O INTERNET WIRELESS AIRMAX - 1MB (0104UN    0000000003100000000031000000080000000000200000000000000000000060000000000000000000000000000000000000000N1303     9189DD226B06C6E5AA2522C00413AD1C
00060023414120TO340020130307210010000002355301001CO6638    CONEX„O INTERNET WIRELESS AIRMAX - 1MB (0104UN    0000000003100000000031000000080000000000200000000000000000000060000000000000000000000000000000000000000N1303     3C9A04C6939684335707EA7E98A9A90B
00037137816134TO340020130307210010000002365301001CO6646    CONEX„O INTERNET WIRELESS AIRMAX - 1MB (0104UN    0000000003100000000031000000080000000000200000000000000000000060000000000000000000000000000000000000000N1303     589332DBDA165D5F152FFF62ECDD090C
00063428717104TO340020130307210010000002375301001CO6651    CONEX„O INTERNET WIRELESS AIRMAX - 1MB (0104UN    0000000003100000000031000000080000000000200000000000000000000060000000000000000000000000000000000000000N1303     63BB365DFA8356FAEDA2E2D7BC3AEC0F
00085966096104TO340020130307210010000002385301001CO6652    CONEX„O INTERNET WIRELESS AIRMAX - 1MB (0104UN    0000000003100000000031000000080000000000200000000000000000000060000000000000000000000000000000000000000N1303     0460C5278FCF4AFA84F4D49DBB4F1791
00004535274185TO340020130307210010000002395301001CO6654    CONEX„O INTERNET WIRELESS AIRMAX - 1MB (0104UN    0000000003100000000031000000080000000000200000000000000000000060000000000000000000000000000000000000000N1303     2D1E62E8F734CD8112A9C8CBE5FB8195
00001371025185TO340020130307210010000002405301001CO6679    CONEX„O INTERNET WIRELESS AIRMAX - 1MB (0104UN    0000000003100000000031000000080000000000200000000000000000000060000000000000000000000000000000000000000N1303     236077D0ECD6D02AD0E2C2A488617771
00004234996963TO340020130307210010000002415301001CO6691    CONEX„O INTERNET WIRELESS AIRMAX - 1MB (0104UN    0000000003100000000031000000080000000000200000000000000000000060000000000000000000000000000000000000000N1303     9312DD839F6C8496CC8E623949E2B751
00061303194104TO340020130307210010000002425301001CO6692    CONEX„O INTERNET WIRELESS AIRMAX - 1MB (0104UN    0000000003100000000031000000080000000000200000000000000000000060000000000000000000000000000000000000000N1303     7A3C18DDF8B92B6C7B1B8D0F4E5568C1
00000760220212TO340020130307210010000002435301001CO6697    CONEX„O INTERNET WIRELESS AIRMAX - 1MB (0104UN    0000000003100000000031000000080000000000200000000000000000000060000000000000000000000000000000000000000N1303     B0B86759BCCDEC9904CB78C312E5DB12
00002983046605TO340020130307210010000002445301001CO6705    CONEX„O INTERNET WIRELESS AIRMAX - 1MB (0104UN    0000000003100000000031000000080000000000200000000000000000000060000000000000000000000000000000000000000N1303     75A6B42CA82A8607E4B68AC17CAD5530
00002949723152TO340020130307210010000002455301001CO6706    CONEX„O INTERNET WIRELESS AIRMAX - 1MB (0104UN    0000000003100000000031000000080000000000200000000000000000000060000000000000000000000000000000000000000N1303     90CB06580D1144B0DEFEF201C75AB3DE
00001716249120TO340020130307210010000002465301001CO6714    CONEX„O INTERNET WIRELESS AIRMAX - 1MB (0104UN    0000000003100000000031000000080000000000200000000000000000000060000000000000000000000000000000000000000N1303     038EA94901A8E8AE45869A6415705612
00073255920191TO340020130307210010000002475301001CO6721    CONEX„O INTERNET WIRELESS AIRMAX - 1MB (0104UN    0000000003100000000031000000080000000000200000000000000000000060000000000000000000000000000000000000000N1303     1516E7B3B40DDCD231D5B8263DF65F20
00059108614172TO340020130307210010000002485301001CO6725    CONEX„O INTERNET WIRELESS AIRMAX - 1MB (0104UN    0000000003100000000031000000080000000000200000000000000000000060000000000000000000000000000000000000000N1303     2720A2F803108361832ED3D59058F05C
00003752219130TO340020130307210010000002495301001CO6732    CONEX„O INTERNET WIRELESS AIRMAX - 1MB (0104UN    0000000003100000000031000000080000000000200000000000000000000060000000000000000000000000000000000000000N1303     CB798E8D885CB93321DCF7BAA03374A9
00003331643181TO340020130307210010000002505301001CO6739    CONEX„O INTERNET WIRELESS AIRMAX - 1MB (0104UN    0000000003100000000031000000080000000000200000000000000000000060000000000000000000000000000000000000000N1303     39BF6F9D15D1150687A9AEEA044AE454
00000325302006TO340020130307210010000002515301001CO6765    CONEX„O INTERNET WIRELESS AIRMAX - 1MB (0104UN    0000000003100000000031000000080000000000200000000000000000000060000000000000000000000000000000000000000N1303     E5844D05DE14D81CD4E5F0479FAB1A54
00001767829159TO340020130307210010000002525301001CO6887    CONEX„O INTERNET WIRELESS AIRMAX - 1MB (0104UN    0000000003100000000031000000080000000000200000000000000000000060000000000000000000000000000000000000000N1303     D43E412880BF08DA8FDDCBF404DB253B
00080437834115TO340020130307210010000002535301001CO6891    CONEX„O INTERNET WIRELESS AIRMAX - 1MB (0104UN    0000000003100000000031000000080000000000200000000000000000000060000000000000000000000000000000000000000N1303     DA36B3D9841161216084F92B2C92099A
00089377850134TO340020130307210010000002545301001CO6960    CONEX„O INTERNET WIRELESS AIRMAX - 1MB (0104UN    0000000003100000000031000000080000000000200000000000000000000060000000000000000000000000000000000000000N1303     48338BDBAA1A3F87A1058AC5C5A4EF90
00045156441149TO340020130307210010000002555301001CO6962    CONEX„O INTERNET WIRELESS AIRMAX - 1MB (0104UN    0000000003100000000031000000080000000000200000000000000000000060000000000000000000000000000000000000000N1303     FFB78E92E4D326B44A6614A5137ABA43
00005280271152TO340020130307210010000002565301001CO7008    CONEX„O INTERNET WIRELESS AIRMAX - 1MB (0104UN    0000000003100000000031000000080000000000200000000000000000000060000000000000000000000000000000000000000N1303     EB84F5929D99E52ECBD634F5323185DF
00083307796100TO340020130307210010000002575301001CO7015    CONEX„O INTERNET WIRELESS AIRMAX - 1MB (0104UN    0000000003100000000031000000080000000000200000000000000000000060000000000000000000000000000000000000000N1303     FE2A4BA8E5711B150F5C3DD06DD3DF6B
00064444511168TO340020130307210010000002585301001CO7020    CONEX„O INTERNET WIRELESS AIRMAX - 1MB (0104UN    0000000003100000000031000000080000000000200000000000000000000060000000000000000000000000000000000000000N1303     1F0D2624C273A15E6C60E219825D06CC
00000287694143TO340020130307210010000002595301001CO7024    CONEX„O INTERNET WIRELESS AIRMAX - 1MB (0104UN    0000000003100000000031000000080000000000200000000000000000000060000000000000000000000000000000000000000N1303     6F6B451F78EF95DB313E72C9F90E9FB9
00033903719668TO340020130307210010000002605301001CO7039    CONEX„O INTERNET WIRELESS AIRMAX - 1MB (0104UN    0000000003100000000031000000080000000000200000000000000000000060000000000000000000000000000000000000000N1303     F4759F67E65B80F3D3AA51239E36A718
00002049846100TO340020130307210010000002615301001CO7044    CONEX„O INTERNET WIRELESS AIRMAX - 1MB (0104UN    0000000003100000000031000000080000000000200000000000000000000060000000000000000000000000000000000000000N1303     605146CDFAAEF77E7C98E23E28A5D28A
00084733802749TO340020130307210010000002625301001CO7051    CONEX„O INTERNET WIRELESS AIRMAX - 1MB (0104UN    0000000003100000000031000000080000000000200000000000000000000060000000000000000000000000000000000000000N1303     E2F9D20E28E0BDB67AA845E7401522D9
00004582418490TO340020130307210010000002635301001CO7070    CONEX„O INTERNET WIRELESS AIRMAX - 1MB (0104UN    0000000003100000000031000000080000000000200000000000000000000060000000000000000000000000000000000000000N1303     D18A3C9C65E25D9F3909DA23A56CF34F
00003395809170TO340020130307210010000002645301001CO7077    CONEX„O INTERNET WIRELESS AIRMAX - 1MB (0104UN    0000000003100000000031000000080000000000200000000000000000000060000000000000000000000000000000000000000N1303     1DF0166A38577D17D72C2E60AA4C9AA0
00098316125153TO340020130307210010000002655301001CO7078    CONEX„O INTERNET WIRELESS AIRMAX - 1MB (0104UN    0000000003100000000031000000080000000000200000000000000000000060000000000000000000000000000000000000000N1303     1F5078ACEE9DF7262DC2F6B2D7FB635F
00079815901168TO340020130307210010000002665301001CO7082    CONEX„O INTERNET WIRELESS AIRMAX - 1MB (0104UN    0000000003100000000031000000080000000000200000000000000000000060000000000000000000000000000000000000000N1303     E7E0719F0B56C5A88CC283689BEFEB10
00049927213115TO340020130307210010000002675301001CO7085    CONEX„O INTERNET WIRELESS AIRMAX - 1MB (0104UN    0000000003100000000031000000080000000000200000000000000000000060000000000000000000000000000000000000000N1303     86A8F9CF96039E2987F195055BA6FB03
00082585547191TO340020130307210010000002685301001CO7092    CONEX„O INTERNET WIRELESS AIRMAX - 1MB (0104UN    0000000003100000000031000000080000000000200000000000000000000060000000000000000000000000000000000000000N1303     222F114F5642073645A494676DF8262D
00064399800178TO340020130307210010000002695301001CO7093    CONEX„O INTERNET WIRELESS AIRMAX - 1MB (0104UN    0000000003100000000031000000080000000000200000000000000000000060000000000000000000000000000000000000000N1303     164D57C24CC889DA267E68C145FA7E78
00089083822168TO340020130307210010000002705301001CO7095    CONEX„O INTERNET WIRELESS AIRMAX - 1MB (0104UN    0000000003100000000031000000080000000000200000000000000000000060000000000000000000000000000000000000000N1303     C2B3E18EE68A714054DA572248E468FF
00004101119104TO340020130307210010000002715301001CO7098    CONEX„O INTERNET WIRELESS AIRMAX - 1MB (0104UN    0000000003100000000031000000080000000000200000000000000000000060000000000000000000000000000000000000000N1303     F706776D32B088046028B3529CBBC44A
00024361046115TO340020130307210010000002725301001CO7099    CONEX„O INTERNET WIRELESS AIRMAX - 1MB (0104UN    0000000003100000000031000000080000000000200000000000000000000060000000000000000000000000000000000000000N1303     47B4E698AB1991EA33C874AE0FCCD96B
00070699488168TO340020130307210010000002735301001CO7101    CONEX„O INTERNET WIRELESS AIRMAX - 1MB (0104UN    0000000003100000000031000000080000000000200000000000000000000060000000000000000000000000000000000000000N1303     14C604C7869A78F0AE48EFB4D5DC1D02
00079543839115TO340020130307210010000002745301001CO7102    CONEX„O INTERNET WIRELESS AIRMAX - 1MB (0104UN    0000000003100000000031000000080000000000200000000000000000000060000000000000000000000000000000000000000N1303     B9BA9BF033D56B41A31671FA7286D362
00005075914101TO340020130307210010000002755301001CO7105    CONEX„O INTERNET WIRELESS AIRMAX - 1MB (0104UN    0000000003100000000031000000080000000000200000000000000000000060000000000000000000000000000000000000000N1303     D95A3CB366032B4676880E166DBF7DC3
00098593994172TO340020130307210010000002765301001CO7116    CONEX„O INTERNET WIRELESS AIRMAX - 1MB (0104UN    0000000003100000000031000000080000000000200000000000000000000060000000000000000000000000000000000000000N1303     33DEA30FA71FB74DBCFF4C52793C26C3
00041959540106TO340020130307210010000002775301001CO7118    CONEX„O INTERNET WIRELESS AIRMAX - 1MB (0104UN    0000000003100000000031000000080000000000200000000000000000000060000000000000000000000000000000000000000N1303     2EB72B734C773941E0491B82B3A6FDE6
00002295069173TO340020130307210010000002785301001CO7120    CONEX„O INTERNET WIRELESS AIRMAX - 1MB (0104UN    0000000003100000000031000000080000000000200000000000000000000060000000000000000000000000000000000000000N1303     6ED65672E818FD4E50B1ADF22A00E6D3
00000778444163TO340020130307210010000002795301001CO7130    CONEX„O INTERNET WIRELESS AIRMAX - 1MB (0104UN    0000000003100000000031000000080000000000200000000000000000000060000000000000000000000000000000000000000N1303     B4C3E274A0CA35DACC4BB1EF29C856C9
00002621319190TO340020130307210010000002805301001CO7133    CONEX„O INTERNET WIRELESS AIRMAX - 1MB (0104UN    0000000003100000000031000000080000000000200000000000000000000060000000000000000000000000000000000000000N1303     8496FD736B4A0D72BB9D53D1171B6167
00077952286153TO340020130307210010000002815301001CO7138    CONEX„O INTERNET WIRELESS AIRMAX - 1MB (0104UN    0000000003100000000031000000080000000000200000000000000000000060000000000000000000000000000000000000000N1303     6F1CC2741FD8975C22577AC943A920E9
00073278394100TO340020130307210010000002825301001CO7150    CONEX„O INTERNET WIRELESS AIRMAX - 1MB (0104UN    0000000003100000000031000000080000000000200000000000000000000060000000000000000000000000000000000000000N1303     B748FF350DA57D667552D415410CE70D
00076816010159TO340020130307210010000002835301001CO7151    CONEX„O INTERNET WIRELESS AIRMAX - 1MB (0104UN    0000000003100000000031000000080000000000200000000000000000000060000000000000000000000000000000000000000N1303     3F7518BD23ED6E6BADC84C5B39E8C2B3
00061267350130TO340020130307210010000002845301001CO7153    CONEX„O INTERNET WIRELESS AIRMAX - 1MB (0104UN    0000000003100000000031000000080000000000200000000000000000000060000000000000000000000000000000000000000N1303     D3CD69D64A51921C08F58F0791FA5245
00034982256187TO340020130307210010000002855301001CO7154    CONEX„O INTERNET WIRELESS AIRMAX - 1MB (0104UN    0000000003100000000031000000080000000000200000000000000000000060000000000000000000000000000000000000000N1303     6102E0E02A7732D671D4FB261E0F30F7
00076084370144TO340020130307210010000002865301001CO7155    CONEX„O INTERNET WIRELESS AIRMAX - 1MB (0104UN    0000000003100000000031000000080000000000200000000000000000000060000000000000000000000000000000000000000N1303     149C4BF023484B11D7C6F342E163C62A
00002921694182TO340020130307210010000002875301001CO7170    CONEX„O INTERNET WIRELESS AIRMAX - 1MB (0104UN    0000000003100000000031000000080000000000200000000000000000000060000000000000000000000000000000000000000N1303     B3C9A8DE63DFA2D9C3C17F3279FDD6AD
00037094157134TO340020130307210010000002885301001CO7173    CONEX„O INTERNET WIRELESS AIRMAX - 1MB (0104UN    0000000003100000000031000000080000000000200000000000000000000060000000000000000000000000000000000000000N1303     4369C775AC835DD3080E8980CF41F37D
00002594426156TO340020130307210010000002895301001CO7176    CONEX„O INTERNET WIRELESS AIRMAX - 1MB (0104UN    0000000003100000000031000000080000000000200000000000000000000060000000000000000000000000000000000000000N1303     E974FE034F0E5F86F6D54DA40B66431C
00080575315334TO340020130307210010000002905301001CO7186    CONEX„O INTERNET WIRELESS AIRMAX - 1MB (0104UN    0000000003100000000031000000080000000000200000000000000000000060000000000000000000000000000000000000000N1303     9B35F3E755321F9320E99040E67850DF
00081987242149TO340020130307210010000002915301001CO7196    CONEX„O INTERNET WIRELESS AIRMAX - 1MB (0104UN    0000000003100000000031000000080000000000200000000000000000000060000000000000000000000000000000000000000N1303     883CB369D4DC5D822EA9A655D2FA3999
00035919973153TO340020130307210010000002925301001CO7201    CONEX„O INTERNET WIRELESS AIRMAX - 1MB (0104UN    0000000003100000000031000000080000000000200000000000000000000060000000000000000000000000000000000000000N1303     30C25A4ADDCE4D79D287BF73D1B16A5F
00000924140100TO340020130307210010000002935301001CO7208    CONEX„O INTERNET WIRELESS AIRMAX - 1MB (0104UN    0000000003100000000031000000080000000000200000000000000000000060000000000000000000000000000000000000000N1303     FE9A9BDE63854CB35F1CBF3288F48ACE
00053477146115TO340020130307210010000002945301001CO7219    CONEX„O INTERNET WIRELESS AIRMAX - 1MB (0104UN    0000000003100000000031000000080000000000200000000000000000000060000000000000000000000000000000000000000N1303     DEC7868B15086B27D91BF8E32734E167
00002887351109TO340020130307210010000002955301001CO7221    CONEX„O INTERNET WIRELESS AIRMAX - 1MB (0104UN    0000000003100000000031000000080000000000200000000000000000000060000000000000000000000000000000000000000N1303     C55E218E891D5D72E2D0EB1ACBAA4951
00042374510204TO340020130307210010000002965301001CO7229    CONEX„O INTERNET WIRELESS AIRMAX - 1MB (0104UN    0000000003100000000031000000080000000000200000000000000000000060000000000000000000000000000000000000000N1303     09BEA3E37A81A062CB7104FBD1E070A9
00033294801653TO340020130307210010000002975301001CO7231    CONEX„O INTERNET WIRELESS AIRMAX - 1MB (0104UN    0000000003100000000031000000080000000000200000000000000000000060000000000000000000000000000000000000000N1303     5254E16D4B2786E69A7B00FD60CE9FC3
00047167947334TO340020130307210010000002985301001CO7238    CONEX„O INTERNET WIRELESS AIRMAX - 1MB (0104UN    0000000003100000000031000000080000000000200000000000000000000060000000000000000000000000000000000000000N1303     FFBAE3E14A0E27667A3CF0822FE43DC8
00015938999120TO340020130307210010000002995301001CO7242    CONEX„O INTERNET WIRELESS AIRMAX - 1MB (0104UN    0000000003100000000031000000080000000000200000000000000000000060000000000000000000000000000000000000000N1303     3FD51522B877C51226559CE766AA94AC
00070586454187TO340020130307210010000003005301001CO7254    CONEX„O INTERNET WIRELESS AIRMAX - 1MB (0104UN    0000000003100000000031000000080000000000200000000000000000000060000000000000000000000000000000000000000N1303     53EB5751ACCEF8C4B34EC26B62A7C1B1
00037536966172TO340020130307210010000003015301001CO7258    CONEX„O INTERNET WIRELESS AIRMAX - 1MB (0104UN    0000000003100000000031000000080000000000200000000000000000000060000000000000000000000000000000000000000N1303     29DC115F58EBD0A9F198C8D739B9AB5E
00057701873104TO340020130307210010000003025301001CO7262    CONEX„O INTERNET WIRELESS AIRMAX - 1MB (0104UN    0000000003100000000031000000080000000000200000000000000000000060000000000000000000000000000000000000000N1303     EDC6905248567B032F986DABA29A166B
00000759506183TO340020130307210010000003035301001CO7265    CONEX„O INTERNET WIRELESS AIRMAX - 1MB (0104UN    0000000003100000000031000000080000000000200000000000000000000060000000000000000000000000000000000000000N1303     CD2A36E094DBCDA87A8F4F8953667D2F
00061780472153TO340020130307210010000003045301001CO7266    CONEX„O INTERNET WIRELESS AIRMAX - 1MB (0104UN    0000000003100000000031000000080000000000200000000000000000000060000000000000000000000000000000000000000N1303     B9D723A11A450B3E5FC0E2736CD8F9D4
00083761578172TO340020130307210010000003055301001CO7272    CONEX„O INTERNET WIRELESS AIRMAX - 1MB (0104UN    0000000003100000000031000000080000000000200000000000000000000060000000000000000000000000000000000000000N1303     64BD4CE0B3418B943449AD94028E8DFA
00003544442124TO340020130307210010000003065301001CO7277    CONEX„O INTERNET WIRELESS AIRMAX - 1MB (0104UN    0000000003100000000031000000080000000000200000000000000000000060000000000000000000000000000000000000000N1303     BA5421C0DAC691BD1D8DDC84A4BBE92F
00010057943168TO340020130307210010000003075301001CO7279    CONEX„O INTERNET WIRELESS AIRMAX - 1MB (0104UN    0000000003100000000031000000080000000000200000000000000000000060000000000000000000000000000000000000000N1303     0E8DC68EAFDC25FB28997C625C336EAD
00002557496197TO340020130307210010000003085301001CO7282    CONEX„O INTERNET WIRELESS AIRMAX - 1MB (0104UN    0000000003100000000031000000080000000000200000000000000000000060000000000000000000000000000000000000000N1303     0268A49893E1EEE57BA85831032AAE64
00013567870106TO340020130307210010000003095301001CO7283    CONEX„O INTERNET WIRELESS AIRMAX - 1MB (0104UN    0000000003100000000031000000080000000000200000000000000000000060000000000000000000000000000000000000000N1303     F972AC37839FF76386C2D3066AD0DFDE
00097514977104TO340020130307210010000003105301001CO7287    CONEX„O INTERNET WIRELESS AIRMAX - 1MB (0104UN    0000000003100000000031000000080000000000200000000000000000000060000000000000000000000000000000000000000N1303     46F8C289415CA9626B30A0377F0AA45D
00081305702115TO340020130307210010000003115301001CO7290    CONEX„O INTERNET WIRELESS AIRMAX - 1MB (0104UN    0000000003100000000031000000070000000000100000000000000000000060000000000000000000000000000000000000000N1303     D694639DA4CA99AE310002D458594D8A
00087640708168TO340020130307210010000003125301001CO7292    CONEX„O INTERNET WIRELESS AIRMAX - 1MB (0104UN    0000000003100000000031000000070000000000100000000000000000000060000000000000000000000000000000000000000N1303     26E81FF40CFD972840D7A5A48F76B590
00086004034134TO340020130307210010000003135301001CO7308    CONEX„O INTERNET WIRELESS AIRMAX - 1MB (0104UN    0000000003100000000031000000070000000000100000000000000000000060000000000000000000000000000000000000000N1303     B3E34A609024FFB70ECD2006B707B71A
00094957045100TO340020130307210010000003145301001CO7321    CONEX„O INTERNET WIRELESS AIRMAX - 1MB (0104UN    0000000003100000000031000000070000000000100000000000000000000060000000000000000000000000000000000000000N1303     032D9EB6C9426781EF5A32925BB92653
00002604313111TO340020130307210010000003155301001CO7323    CONEX„O INTERNET WIRELESS AIRMAX - 1MB (0104UN    0000000003100000000031000000070000000000100000000000000000000060000000000000000000000000000000000000000N1303     4741B5B7A8C9D93423F5BC212CEB4FA0
00000376006137TO340020130307210010000003165301001CO7329    CONEX„O INTERNET WIRELESS AIRMAX - 1MB (0104UN    0000000003100000000031000000070000000000100000000000000000000060000000000000000000000000000000000000000N1303     0C6E4BE318CD87E1D74FBD3102EE53B2
00082597723100TO340020130307210010000003175301001CO7330    CONEX„O INTERNET WIRELESS AIRMAX - 1MB (0104UN    0000000003100000000031000000070000000000100000000000000000000060000000000000000000000000000000000000000N1303     A57B6943C1F12C82DA2B5F64DE30CEDA
00071950966100TO340020130307210010000003185301001CO7335    CONEX„O INTERNET WIRELESS AIRMAX - 1MB (0104UN    0000000003100000000031000000070000000000100000000000000000000060000000000000000000000000000000000000000N1303     22D91A27E8F6E1060C221E6C6C5A0C3F
00032555210091TO340020130307210010000003195301001CO7337    CONEX„O INTERNET WIRELESS AIRMAX - 1MB (0104UN    0000000003100000000031000000070000000000100000000000000000000060000000000000000000000000000000000000000N1303     7BFC64970BAF58DCC24D3BA0946FA63C
00004342133148TO340020130307210010000003205301001CO7339    CONEX„O INTERNET WIRELESS AIRMAX - 1MB (0104UN    0000000003100000000031000000070000000000100000000000000000000060000000000000000000000000000000000000000N1303     3334FBDAFB94F44966CB17C5F0142A6E
00005130495845TO340020130307210010000003215301001CO7342    CONEX„O INTERNET WIRELESS AIRMAX - 1MB (0104UN    0000000003100000000031000000070000000000100000000000000000000060000000000000000000000000000000000000000N1303     011D39F2D73C7530EAFCE01D475FAB3E
00004027606116TO340020130307210010000003225301001CO7347    CONEX„O INTERNET WIRELESS AIRMAX - 1MB (0104UN    0000000003100000000031000000070000000000100000000000000000000060000000000000000000000000000000000000000N1303     587C2D411B7AC5EA95B0919F3D5EA1C0
00003462909100TO340020130307210010000003235301001CO7349    CONEX„O INTERNET WIRELESS AIRMAX - 1MB (0104UN    0000000003100000000031000000070000000000300000000000000000000040000000000000000000000000000000000000000N1303     F7E0172501D3052B44B136C8052CA0D8
00003462909100TO340020130307210010000003235301002CO7349    CONEX„O INTERNET WIRELESS AIRMAX - 1MB (0104UN    0000000003000000000030000000070000000000000000000000000000000070000000000000000000000000000000000000000N1303     D4FB58948598B0BB957C773A888B4FD2
00003462909100TO340020130307210010000003235301003CO7349    CONEX„O INTERNET WIRELESS AIRMAX - 1MB (0104UN    0000000003100000000031000000070000000000000000000000000000000070000000000000000000000000000000000000000N1303     72290893CE76CFA396E8987996C9F774
00026531062134TO340020130307210010000003245301001CO7366    CONEX„O INTERNET WIRELESS AIRMAX - 1MB (0104UN    0000000003100000000031000000070000000000100000000000000000000060000000000000000000000000000000000000000N1303     592F4F467C964427AB9D28C96F000B01
00085117242149TO340020130307210010000003255301001CO7367    CONEX„O INTERNET WIRELESS AIRMAX - 1MB (0104UN    0000000003100000000031000000070000000000100000000000000000000060000000000000000000000000000000000000000N1303     F1F862ED17B56053FC62F7EB9DCCEC65
00037100912172TO340020130307210010000003265301001CO7383    CONEX„O INTERNET WIRELESS AIRMAX - 1MB (0104UN    0000000003100000000031000000070000000000100000000000000000000060000000000000000000000000000000000000000N1303     C06669D1664D5EEAB1D7482417441B32
00004342132176TO340020130307210010000003275301001CO7394    CONEX„O INTERNET WIRELESS AIRMAX - 1MB (0104UN    0000000001300000000013000000032500000000155000000000000000000017000000000000000000000000000000000000000N1303     02C5F553DBF27E35957207111A40C1D3
00004342132176TO340020130307210010000003275301002CO7394    CONEX„O INTERNET WIRELESS AIRMAX - 1MB (0104UN    0000000003100000000031000000070000000000000000000000000000000070000000000000000000000000000000000000000N1303     01B2F95886093C379950A6FF0322D53E
00085103560178TO340020130307210010000003285301001CO7397    CONEX„O INTERNET WIRELESS AIRMAX - 1MB (0104UN    0000000003100000000031000000070000000000100000000000000000000060000000000000000000000000000000000000000N1303     16B7E2BAC7FF376281A53735304E5C8B
00000716161109TO340020130307210010000003295301001CO7399    CONEX„O INTERNET WIRELESS AIRMAX - 1MB (0104UN    0000000003100000000031000000070000000000100000000000000000000060000000000000000000000000000000000000000N1303     4224AD6989DADDE132598ABF69A06474
00005741796150TO340020130307210010000003305301001CO7401    CONEX„O INTERNET WIRELESS AIRMAX - 1MB (0104UN    0000000003100000000031000000070000000000100000000000000000000060000000000000000000000000000000000000000N1303     A4CF16D70F28EA0FE2F0757B67C3FBCA
00031972721100TO340020130307210010000003315301001CO7404    CONEX„O INTERNET WIRELESS AIRMAX - 1MB (0104UN    0000000003100000000031000000070000000000100000000000000000000060000000000000000000000000000000000000000N1303     7571E2D158D327C8EB4E8536FAD2ECB3
00001281588164TO340020130307210010000003325301001CO7412    CONEX„O INTERNET WIRELESS AIRMAX - 1MB (0104UN    0000000003100000000031000000070000000000100000000000000000000060000000000000000000000000000000000000000N1303     E0A359B7302FE6939E520FE6FCFB29EF
00049167618120TO340020130307210010000003335301001CO7417    CONEX„O INTERNET WIRELESS AIRMAX - 1MB (0104UN    0000000003100000000031000000070000000000100000000000000000000060000000000000000000000000000000000000000N1303     A8C7ADD8DD35034C354057856CB533AC
00085402931100TO340020130307210010000003345301001CO7421    CONEX„O INTERNET WIRELESS AIRMAX - 1MB (0104UN    0000000003100000000031000000070000000000100000000000000000000060000000000000000000000000000000000000000N1303     A6FB2A096636F92533C5C2F1DDD1AB64
00084970154104TO340020130307210010000003355301001CO7424    CONEX„O INTERNET WIRELESS AIRMAX - 1MB (0104UN    0000000003100000000031000000070000000000100000000000000000000060000000000000000000000000000000000000000N1303     54DE39298E7956CA0C64AD601DE30850
38131165000175TO140020130307210010000003365301001CO7425    CONEX„O INTERNET WIRELESS AIRMAX - 1MB (0104UN    0000000003100000000031000000070000000000100000000000000000000060000000000000000000000000000000000000000N1303     D3F0DCE58393A6BB8392EE2F0C6C13ED
00097014753134TO340020130307210010000003375301001CO7430    CONEX„O INTERNET WIRELESS AIRMAX - 1MB (0104UN    0000000003100000000031000000070000000000100000000000000000000060000000000000000000000000000000000000000N1303     10FB326C6AEFDE7A82C0FF2489C9EF8C
00099281112191TO340020130307210010000003385301001CO7435    CONEX„O INTERNET WIRELESS AIRMAX - 1MB (0104UN    0000000003100000000031000000070000000000100000000000000000000060000000000000000000000000000000000000000N1303     E3CF6EA0E0801A880F46B4D782F8DB36
00082584222191TO340020130307210010000003395301001CO7436    CONEX„O INTERNET WIRELESS AIRMAX - 1MB (0104UN    0000000003100000000031000000070000000000100000000000000000000060000000000000000000000000000000000000000N1303     05DDBD6CD2E578E8167C6B87CE9FF92A
00081561865168TO340020130307210010000003405301001CO7441    CONEX„O INTERNET WIRELESS AIRMAX - 1MB (0104UN    0000000003100000000031000000070000000000100000000000000000000060000000000000000000000000000000000000000N1303     C555524CE7571EF39C6CF0D097354EAB
00000601769201TO340020130307210010000003415301001CO7443    CONEX„O INTERNET WIRELESS AIRMAX - 1MB (0104UN    0000000003100000000031000000070000000000100000000000000000000060000000000000000000000000000000000000000N1303     269AD801778A426ACF8120263946EF8F
00006347451662TO340020130307210010000003425301001CO7459    CONEX„O INTERNET WIRELESS AIRMAX - 1MB (0104UN    0000000003100000000031000000070000000000100000000000000000000060000000000000000000000000000000000000000N1303     61938238D38D38B281359B50EBD3DEB9
00080285228153TO340020130307210010000003435301001CO7460    CONEX„O INTERNET WIRELESS AIRMAX - 1MB (0104UN    0000000003100000000031000000070000000000100000000000000000000060000000000000000000000000000000000000000N1303     4ABC84CB9979A2407F3DB03DCCD94083
00047887915104TO340020130307210010000003445301001CO7466    CONEX„O INTERNET WIRELESS AIRMAX - 1MB (0104UN    0000000003100000000031000000070000000000100000000000000000000060000000000000000000000000000000000000000N1303     D27632FFB0C14CB861417EE5526D983C
00001160364192TO340020130307210010000003455301001CO7477    CONEX„O INTERNET WIRELESS AIRMAX - 1MB (0104UN    0000000003100000000031000000070000000000100000000000000000000060000000000000000000000000000000000000000N1303     C7970C7A9E82537A3FDA6912C6BE3827
00002385426102TO340020130307210010000003465301001CO7481    CONEX„O INTERNET WIRELESS AIRMAX - 1MB (0104UN    0000000003100000000031000000070000000000100000000000000000000060000000000000000000000000000000000000000N1303     5A79670597F8C4A963D5D8F581A1A434
00043434290087TO340020130307210010000003475301001CO7483    CONEX„O INTERNET WIRELESS AIRMAX - 1MB (0104UN    0000000003100000000031000000070000000000100000000000000000000060000000000000000000000000000000000000000N1303     67153634959EF7372E114232DFCABA0E
00086767011134TO340020130307210010000003485301001CO7487    CONEX„O INTERNET WIRELESS AIRMAX - 1MB (0104UN    0000000003100000000031000000070000000000100000000000000000000060000000000000000000000000000000000000000N1303     72596B1C9A9524F132816557668D5CA2
00002564156177TO340020130307210010000003495301001CO7488    CONEX„O INTERNET WIRELESS AIRMAX - 1MB (0104UN    0000000003100000000031000000070000000000100000000000000000000060000000000000000000000000000000000000000N1303     06E0BB7AA1BE54A0D4BCCF76ED291691
00006036688954TO340020130307210010000003505301001CO7489    CONEX„O INTERNET WIRELESS AIRMAX - 1MB (0104UN    0000000003100000000031000000070000000000100000000000000000000060000000000000000000000000000000000000000N1303     C5DE265230CE3E6C39E6EA7952DEE861
00005238496648TO340020130307210010000003515301001CO7492    CONEX„O INTERNET WIRELESS AIRMAX - 1MB (0104UN    0000000003100000000031000000070000000000100000000000000000000060000000000000000000000000000000000000000N1303     3A5A9DFA8B3A3333F45049668FC44D69
00029790719191TO340020130307210010000003525301001CO5037    CONEX„O INTERNET WIRELESS - 450KBPS (STE0104UN    0000000003100000000031000000060000000000000000000000000000000060000000000000000000000000000000000000000N1303     C95532E46770090CFEF9E084CFFE2D9B
00073559938104TO340020130307210010000003535301001CO5874    CONEX„O INTERNET WIRELESS - 450KBPS (IZA0104UN    0000000003100000000031000000050000000000100000000000000000000040000000000000000000000000000000000000000N1303     65279169114F847DD9E47DDDD84C42F1
00057442576249TO340020130307210010000003545301001CO5933    CONEX„O INTERNET WIRELESS - 450KBPS (AMA0104UN    0000000003100000000031000000050000000000100000000000000000000040000000000000000000000000000000000000000N1303     5CB958F24E7A1453444E82637CA082AE
00093320116134TO340020130307210010000003555301001CO5938    CONEX„O INTERNET WIRELESS - 450KBPS (HER0104UN    0000000003100000000031000000050000000000100000000000000000000040000000000000000000000000000000000000000N1303     AAE7DFA22335A7977BF961004E4F4B2C
00043390790144TO340020130307210010000003565301001CO5992    CONEX„O INTERNET WIRELESS - 450KBPS (MOT0104UN    0000000003100000000031000000050000000000100000000000000000000040000000000000000000000000000000000000000N1303     E0130951CAA2E4FA8E837482941B5D0D
00002879932130TO340020130307210010000003575301001CO6024    CONEX„O INTERNET WIRELESS - 450KBPS (PAU0104UN    0000000003100000000031000000050000000000100000000000000000000040000000000000000000000000000000000000000N1303     BD55462C25A2B3D2DAF20770089227B6
00049169238120TO340020130307210010000003585301001CO6028    CONEX„O INTERNET WIRELESS - 450KBPS (WPR0104UN    0000000003100000000031000000050000000000100000000000000000000040000000000000000000000000000000000000000N1303     05A7348E2084CE7EE9569671954257C7
00088142728168TO340020130307210010000003595301001CO6068    CONEX„O INTERNET WIRELESS - 450KBPS (FON0104UN    0000000003100000000031000000050000000000100000000000000000000040000000000000000000000000000000000000000N1303     4B666F197811BD6650C8B106FDE1A095
00097775150149TO340020130307210010000003605301001CO6071    CONEX„O INTERNET WIRELESS - 450KBPS (ZEN0104UN    0000000003100000000031000000050000000000100000000000000000000040000000000000000000000000000000000000000N1303     7934530EF9AA85B805586AFFF25DC60D
00061882925149TO340020130307210010000003615301001CO6114    CONEX„O INTERNET WIRELESS - 450KBPS (ARA0104UN    0000000003100000000031000000050000000000100000000000000000000040000000000000000000000000000000000000000N1303     65D78FE79A8BB7859D79BF5D4637A3F6
00062603779168TO340020130307210010000003625301001CO6137    CONEX„O INTERNET WIRELESS - 450KBPS (DOR0104UN    0000000003100000000031000000050000000000100000000000000000000040000000000000000000000000000000000000000N1303     373D0EC588BFB833D322037A3E89FF5F
00061780200153TO340020130307210010000003635301001CO6178    CONEX„O INTERNET WIRELESS - 450KBPS (MAR0104UN    0000000003100000000031000000050000000000100000000000000000000040000000000000000000000000000000000000000N1303     2FB353A98B95395949D005C4D7A4B08B
00000698507126TO340020130307210010000003645301001CO6198    CONEX„O INTERNET WIRELESS - 450KBPS (VAL0104UN    0000000003100000000031000000050000000000100000000000000000000040000000000000000000000000000000000000000N1303     3124A19313BE6B438CED20609DB1E7E6
00042641560097TO340020130307210010000003655301001CO6206    CONEX„O INTERNET WIRELESS - 450KBPS (MAR0104UN    0000000003100000000031000000050000000000100000000000000000000040000000000000000000000000000000000000000N1303     0889F323D34F75E5DEF466B5DC2C88E9
00045451060134TO340020130307210010000003665301001CO6292    CONEX„O INTERNET WIRELESS - 450KBPS (PAU0104UN    0000000003100000000031000000050000000000100000000000000000000040000000000000000000000000000000000000000N1303     19F890D49A83207E8121EB20A3CA2D72
00045712352168TO340020130307210010000003675301001CO6303    CONEX„O INTERNET WIRELESS - 450KBPS (MAR0104UN    0000000003100000000031000000050000000000100000000000000000000040000000000000000000000000000000000000000N1303     007D9A341A4B2A31C0DA754101C495A9
00072775238149TO340020130307210010000003685301001CO6360    CONEX„O INTERNET WIRELESS - 450KBPS (ULI0104UN    0000000003100000000031000000050000000000100000000000000000000040000000000000000000000000000000000000000N1303     776622957C337649C45A601B2BE8415E
00074471848615TO340020130307210010000003695301001CO6459    CONEX„O INTERNET WIRELESS - 450KBPS (LON0104UN    0000000003100000000031000000050000000000100000000000000000000040000000000000000000000000000000000000000N1303     FAB015D039DB0B89A94D02EBDF63D372
00055601480168TO340020130307210010000003705301001CO6493    CONEX„O INTERNET WIRELESS - 450KBPS (ROM0104UN    0000000003100000000031000000050000000000100000000000000000000040000000000000000000000000000000000000000N1303     E431D1C2654A2FFDB25137A99432DF25
00086885936120TO340020130307210010000003715301001CO6522    CONEX„O INTERNET WIRELESS - 450KBPS (LEN0104UN    0000000003100000000031000000050000000000100000000000000000000040000000000000000000000000000000000000000N1303     46F78C44FE9209C5405B8E4CBC44D7A1
00073546437187TO340020130307210010000003725301001CO6526    CONEX„O INTERNET WIRELESS - 450KBPS (OLG0104UN    0000000003100000000031000000050000000000100000000000000000000040000000000000000000000000000000000000000N1303     C9171A6380789D39A20275FC2902FE40
00065215885320TO340020130307210010000003735301001CO6527    CONEX„O INTERNET WIRELESS - 450KBPS (BRI0104UN    0000000003100000000031000000050000000000100000000000000000000040000000000000000000000000000000000000000N1303     9ABFEBC20FCFAA54E42D182C0BEFE03D
00053473825115TO340020130307210010000003745301001CO6547    CONEX„O INTERNET WIRELESS - 450KBPS (DEU0104UN    0000000003100000000031000000050000000000100000000000000000000040000000000000000000000000000000000000000N1303     0D36E7F4C33EC3514CD1775AD11683AB
00080499953134TO340020130307210010000003755301001CO6585    CONEX„O INTERNET WIRELESS - 450KBPS (MAR0104UN    0000000003100000000031000000050000000000100000000000000000000040000000000000000000000000000000000000000N1303     A389358C06E86E4B7A1493839D08043A
00045710937134TO340020130307210010000003765301001CO6602    CONEX„O INTERNET WIRELESS - 450KBPS (VAL0104UN    0000000003100000000031000000050000000000100000000000000000000040000000000000000000000000000000000000000N1303     D9067E6F4750A5F3109EBAC8BE6FD23F
00002654074196TO340020130307210010000003775301001CO6604    CONEX„O INTERNET WIRELESS - 450KBPS (PAT0104UN    0000000003100000000031000000050000000000100000000000000000000040000000000000000000000000000000000000000N1303     49775AFFC7DCB60A64C6ACFE0258AACA
00032357290382TO340020130307210010000003785301001CO6620    CONEX„O INTERNET WIRELESS - 450KBPS (LEO0104UN    0000000003100000000031000000050000000000100000000000000000000040000000000000000000000000000000000000000N1303     0D53B6533A7937DE8A50008A096257C0
00000307268160TO340020130307210010000003795301001CO6621    CONEX„O INTERNET WIRELESS - 450KBPS (MEN0104UN    0000000003100000000031000000050000000000100000000000000000000040000000000000000000000000000000000000000N1303     63BB738405A1F0FE6848971A0D03D982
00084675748104TO340020130307210010000003805301001CO6629    CONEX„O INTERNET WIRELESS - 450KBPS (IZA0104UN    0000000003100000000031000000050000000000100000000000000000000040000000000000000000000000000000000000000N1303     FD78206AD7ACAE236F7C87DCD4A24286
00059835567115TO340020130307210010000003815301001CO6662    CONEX„O INTERNET WIRELESS - 450KBPS (LUI0104UN    0000000003100000000031000000050000000000100000000000000000000040000000000000000000000000000000000000000N1303     BD8DAC9C04CA56F695420259CA01A8C0
