00002639287133ISENTO        NATANAEL DE ASSIS SILVA            TO340085817       2013030121001000000001D93EE761F89F836E4D1C09CFD7204691000000007000000000007000000000000000000000000000000000000000N1303000000001                 AEF153CD7AA3C2B6516C7A285B7EC9C7
00002639287133ISENTO        NATANAEL DE ASSIS SILVA            TO340085818       2013030121001000000002368623054DA032B748EAF32DBE8C45E0000000007000000000007000000000000000000000000000000000000000N1303000000003                 E64CFC43CE2544B37C7B387BACAA8D29
47358536000147ISENTO        FASE EDUCAÁ„O E CULTURA LTDA       SP140085823       2013030421001000000003DA8D79E9A100F264A335F57ADE539D11000000007000000000007000000000000000000000000000000000000000N1303000000005                 463B7D31542EAD43DACAC58814D82703
0000219748411750804         EU, EU MESMO & IRENE               TO340085866       20130307210010000000043E7F0FD27FC6EEFD821E6449B435665F000000000000000000000000000000000000000000000000000000000000S1303000000007                 228761062BD6AEF842A220E06D683DB7
00000202498883ISENTO        ISABEL DA SILVA CASSEMIRO          TO340085479       20130307210010000000057EC0C2FF50E19BEC57D92BD6E9A393DA000000007000000000007000000000000000000000000000000000000000N1303000000008                 263DAF602C4DADE2E59929E0899919B7
00028352084100ISENTO        MOACIR DIAS                        TO340084913       20130307210010000000061170AD90E72D50EC5B234C24CE92DF93000000007000000000007000000000000000000000000000000000000000N1303000000009                 C6500EBA23ACE836611C00A785926742
63887756000114ISENTO        SOCIEDADE CIVIL INTEGRADA MADRE CELPA140085582       2013030721001000000007D5A25F23000E6DA76070A2E38B0EE4DB000000003385000000000000000000000000000000000000000000000095N1303000000010                 ED0AF3A356F2D8719638EB3506917517
000370977501971089102       JANE JACOMESSE JAIME               TO340085654       20130307210010000000081DB5208D62AFC3DB6E1966EB4FCE2117000000035127000000000000000000000000000000000000000000000095N1303000000011                 1DFD78213CCB90A7AC59F3374CEECD47
000030500608839808433SSPSP  DARCI PAY· GITTI                   TO340084816       2013030721001000000009E824BFAB78C3FD762DDD51BDCC7758F0000000003990000000003990000000000000000000000000000000000000N1303000000012                 5A4B079864951901B2989A3C06A467A0
000427378261872351631SSPGO  LIAMAR DE FATIMA GONTIJO ZANATTA   TO340084832       20130307210010000000102C6D0F61CE8B667A2F28750F17BF15FE000000003990000000003990000000000000000000000000000000000000N1303000000013                 D3133EF4B33799B0CB38C659F0C86D91
00021252335172686235SSPTO   JOSE RAIMUNDO PEREIRA DA SILVA     TO340084836       2013030721001000000011C416C7798AD1E87E9D6BA4B33F84AED5000000003990000000003990000000000000000000000000000000000000N1303000000014                 E25358C745013C7C4623E2F8E8A0A0C1
00053465440110318245        ENIVALDO ROSA DE ARAUJO            TO340084795       20130307210010000000128B11A61BAD6E0327430DD2CD01430D7A000000003990000000003990000000000000000000000000000000000000N1303000000015                 06EF60465E2978222C84459031380160
00063456311168109100        MARIA SEYLA OLIMPIO ARA˙JO         TO340084810       201303072100100000001332A3A1B642F4C4B1FDB6D8C1C9F31AB9000000003990000000003990000000000000000000000000000000000000N1303000000016                 3A5E9DE4D8EA336284A060130506F380
00021254575120ISENTO        APARECIDA MARIA MORAES             TO340084789       2013030721001000000014F1DF81BCC1758A43DC00AA8C19D15A78000000003990000000003990000000000000000000000000000000000000N1303000000017                 299BB4FADD5BC951A5316B18742C5C56
00061839957115109793SSPTO   JAKELINE AGUIAR MONTEL             TO340084858       2013030721001000000015AF0D85473605A08ADC099425595747D6000000003990000000003990000000000000000000000000000000000000N1303000000018                 C2263B48F16A649109E7F7F2035D8996
00019133057834537777SSPPR   JOSÈ DE OLIVEIRA PINTO             TO340084861       2013030721001000000016FF8BC137E692A658F9CCB277F3E92903000000003990000000003990000000000000000000000000000000000000N1303000000019                 9483B80C66B9A8AF5B4A9C2B2F2A88BF
00038046180149124985SSPTO   MARIA DE JESUS BISPO               TO340084863       201303072100100000001783052A71B9EEB7DE2CAF0D3597F6D65E000000003990000000003990000000000000000000000000000000000000N1303000000020                 95E1696AFA4B5F5DF632D3DE672A20E9
00026806801897297320555SSPSPCLAUDEILDA DE MORAES LUNA          TO340084865       20130307210010000000185B68D8DFCEE87709698F7634AD47F12B000000003990000000003990000000000000000000000000000000000000N1303000000021                 930A6DED97E0B07F974AB91A02E97E67
000466782981871170664SSPMA  SILVANE PEREIRA FRANCO             TO340084872       201303072100100000001913EB72C5333F28182309FC31DD38C724000000003990000000003990000000000000000000000000000000000000N1303000000022                 C43DE344434CA6EEDC09604A2AF0CDDA
00019439946172696471DGPCGO  MAGNOLIA FERREIRA COELHO BARNABE   TO340084875       2013030721001000000020E2AFE6725FB93C7AF1DEAE49379A8E51000000003990000000003990000000000000000000000000000000000000N1303000000023                 B1906FE16C601890AFCAA39A290CD3DF
00093155220104602739SSPTO   MARIA RAIMUNDA FERREIRA DA ROCHA   TO340084884       201303072100100000002172A96945B97DFEDBB4E6FC13D7CAEF84000000003990000000003990000000000000000000000000000000000000N1303000000024                 F2009162721618EFE99840D0D9077D8B
000486001561492661955SSPGO  MARIA DA GLORIA SILVA DOS SANTOS   TO340084890       2013030721001000000022838FF99C0DADB0C05D169977CAF1727E000000003990000000003990000000000000000000000000000000000000S1303000000025                 90441DDBC050F180AE6960E602333E10
00077426940187133657SSPTO   ARCILON ALVES DA LUZ               TO340084885       2013030721001000000023EF61F8CBBCDAB2C2CBA6B89BA23A66CE000000004990000000004990000000000000000000000000000000000000N1303000000026                 2207AE8E5F524CEAC2E49C5D8C64B49E
000280857281682538169SSPGO  GILDEMAR FERREIRA DE CARVALHO      TO340084905       201303072100100000002498BD12B952AFD7EF6FAD06394E43F87E000000004000000000004000000000000000000000000000000000000000N1303000000027                 F63C5C5FE26701CF83C4C84DE7E03407
00049409964172ISENTO        MARIA PEREIRA PINTO MACEDO         TO340084909       2013030721001000000025F4574DC7CEF19C917F48C4F018D94283000000004000000000004000000000000000000000000000000000000000N1303000000028                 1BC007929A33A7225358810D1BB8F849
00024343684172ISENTO        JAIDE LEDA CABRAL                  TO340084910       2013030721001000000026A3947A84F142B586A7875BA328C4369E000000004000000000004000000000000000000000000000000000000000N1303000000029                 8D254AAF76E05FCFF98FE12995D20F79
00078932297134835227SSPTO   GLEISON CARDOSO DA SILVA POVOA     TO340084818       20130307210010000000270F9366A8BB0F4E15431108CF7E02A6F5000000003000000000003000000000000000000000000000000000000000N1303000000030                 E69543AF475727797438C033953C9EED
00093255985153ISENTO        ROSADALIA ALVES ARRUDA             TO340084914       201303072100100000002841563EEE9154269AC58B6DADC8F15E27000000004000000000004000000000000000000000000000000000000000N1303000000031                 82D1A9887BA3C5D446931389297C92F2
00091185181172ISENTO        GRACIETE ALVES AGUIAR DE SOUZA     TO340084915       20130307210010000000295D094E36D93B8B1C294D197B1506D348000000004000000000004000000000000000000000000000000000000000N1303000000032                 5D8A8D2388A02C5434EF143DC4692D02
0008396779619150044         WANESSA DIAS DE MORAIS             TO340084796       2013030721001000000030782FAA7A5BC782AB8B16E13F717FEBF3000000004000000000004000000000000000000000000000000000000000N1303000000033                 FE07C2607852A357869CFEA4BEE4BEE7
00098334085168ISENTO        SARA BRITO MACHADO                 TO340084906       20130307210010000000310B613E975177534C91FCA9A93632E860000000004000000000004000000000000000000000000000000000000000N1303000000034                 596EE91F02C845771206D11E7594540D
00031110630115ISENTO        DOMINGAS GOMES MELO                TO340084326       2013030721001000000032E0BC1CA5541148F945E4EECF297124B6000000005429000000005429000000000000000000000000000000000000N1303000000035                 D9919425F0B948EC6B7F35CDE4D5A31F
00040184714168ISENTO        MARIZETE MARTINS DOS SANTOS        TO340084921       2013030721001000000033CDA75BC28C3CD980547CFCA70162C2DB000000004000000000004000000000000000000000000000000000000000N1303000000037                 A14789102BEF07CF78EC7C7BFB6EBD7B
000808323349874784754400    MARTA HELIANE GALI GONÁALVES       TO340084807       201303072100100000003465EFD51C3B54B7C8F242403038E625A5000000004000000000004000000000000000000000000000000000000000N1303000000038                 4C45F0769073063E47B21886FBE8E72A
00034826610149ISENTO        ERMITINA TELES DE DEUS SCHIMITT    TO340084928       20130307210010000000358D736554435330DE89C2EC7924C4D2D7000000004000000000004000000000000000000000000000000000000000N1303000000039                 5B6DD81226AF03E1777BF3C0E75762DC
00048398799153ISENTO        JOANES NEVES ARAUJO                TO340084931       20130307210010000000361F103C54E04A5AEF681449F300ACAA02000000004000000000004000000000000000000000000000000000000000N1303000000040                 E05BF9480A7CBAC9B59E5352BFC3F8CF
000401848701001078206SSPDF  LUZIA SABINO DE SOUZA              TO340084934       20130307210010000000374AFF153190A1890123FD5117CC2CDDFC000000004000000000004000000000000000000000000000000000000000N1303000000041                 4984B7BCB4ADC9224C3C6E9E011973F7
00019348312120435623SSPGO   EVA CATARINA DE SOUZA              TO340084841       20130307210010000000383331A39FADB76B4833414C445E120B1B000000004000000000004000000000000000000000000000000000000000N1303000000042                 3FF0EABB9030616EDC169172C42678FB
00053469542104605212SSPTO   EDIVALDO PINTO DE OLIVEIRA         TO340084853       2013030721001000000039A00F5F433D6CEBEE0580416D91D1B13F000000004000000000004000000000000000000000000000000000000000N1303000000043                 0660A8B5D5F15BE1D2DFC84F8B28DD20
00061781134120ISENTO        LISNETH SALES PEREIRA              TO340084960       20130307210010000000405BD0BF82A1C41FC1892F732E211E7B53000000004000000000004000000000000000000000000000000000000000N1303000000044                 929AB97B7B8AC918AD21036A318D55CC
00003908651174ISENTO        ROMERITO FERREIRA DE SOUZA         TO340084965       2013030721001000000041F7F2F8EF3ACEB0791B473073AF58D6E6000000004000000000004000000000000000000000000000000000000000N1303000000045                 CD61BD0A2BA6E0BD23E7547EC869E94E
00079546897191ISENTO        VALDIVINO FRANCO RIBEIRO           TO340084968       20130307210010000000422EFB7C6942C4B5F99EEE17A9FA39C3D6000000004000000000004000000000000000000000000000000000000000N1303000000046                 32DEF8BA1B05097E79EEB4E4D7497178
00001523354127ISENTO        OSMAR FERREIRA DA CRUZ             TO340084969       2013030721001000000043E4201A893F18B0139E312638B9066021000000004000000000004000000000000000000000000000000000000000N1303000000047                 5F3A2466E55A19AEA878138EB4CC4B04
00002124605100ISENTO        ALINE BARBOSA TURIBIO              TO340084857       201303072100100000004458C24722526352D8A4CE1E12087842D1000000004000000000004000000000000000000000000000000000000000N1303000000048                 93447B72B203205E13C3B686C3542417
00043212514191ISENTO        JOSE DE JESUS MILHOMEM             TO340084974       2013030721001000000045F327FAF51E9177E347178DAD47CE5EA1000000004000000000004000000000000000000000000000000000000000N1303000000049                 629EEA531BF322582629E963358AC446
00073435040106ISENTO        SUZANA SANTOS LOPES                TO340084976       2013030721001000000046D8B4C6185632D07294DA1A345B288BDB000000004000000000004000000000000000000000000000000000000000N1303000000050                 CA98F63379870E299F54BDCA2C1FB23C
00045711046187ISENTO        MARIA DE LURDES VIEIRA DIAS        TO340084983       201303072100100000004746378C5B1154FB3D9016D47875A4989C000000004000000000004000000000000000000000000000000000000000N1303000000051                 33ADF4E2DAC989EB52D582A4D0728521
00000904068188ISENTO        ALDAIR BISPO DE BRITO BALD„O       TO340084990       2013030721001000000048973FF96D028E7AF903E2D39280204381000000004000000000004000000000000000000000000000000000000000N1303000000052                 8E8FB00656B3EA0E18F79572E2F45ECB
00055601120110ISENTO        FRANCIVALDO BARBOSA DE SOUSA ( RONCTO340084991       2013030721001000000049C35CD4C89F1C935412B7B4D5C84120FF000000004000000000004000000000000000000000000000000000000000N1303000000053                 0B9BDED863CD2766C50BC3B65D0504ED
00001268636100836900SSPTO   LUCIANA RIBEIRO DE SOUZA           TO340084840       2013030721001000000050A761FC3B4985449F70E2AD0B70984C52000000004000000000004000000000000000000000000000000000000000N1303000000054                 4673C1BF790C030B819726CB55454F93
00012756490920ISENTO        AMPILIO ANTONIO ITOZ               TO340084937       20130307210010000000510A4B65A06C12D849575C59494059C1D9000000004500000000004500000000000000000000000000000000000000N1303000000055                 C0F89BC5A912F245D2AEBF2B34069864
00049927655134ISENTO        DOMINGOS NETO REIS MENDES          TO340084998       201303072100100000005214CF53A80F5EE764264BE57AF94B452D000000004000000000004000000000000000000000000000000000000000N1303000000056                 1FA86F2D5F54AD996316E5CCEDF97032
00035914971004ISENTO        ALTAIR ANDRE WEBER                 TO340085002       201303072100100000005393C1288E8666178C404E88169C4A104F000000004000000000004000000000000000000000000000000000000000N1303000000057                 A158AB2AC078A159490D8CA1B098A606
00004758229198ISENTO        CAIKE BRUNO NERES NOIA             TO340085004       20130307210010000000544A7E9CCABBB9E6C279268886C4C907BE000000004000000000004000000000000000000000000000000000000000N1303000000058                 694CC70A73EB38CFF1E57E3258ABDCE6
00019855125134ISENTO        MARIA HELENA DE OLIVEIRA MACIEL    TO340085007       201303072100100000005549BEBD6F91D0AFF3B73CD342B844BF68000000004000000000004000000000000000000000000000000000000000N1303000000059                 C1EBFECC4FB820C65EFE2F428C1365CB
00028573293187ISENTO        JOSÈ ROBERTO LAFORGA               TO340085006       20130307210010000000569467DF0EAE8B3020966B7FD96933D097000000004000000000004000000000000000000000000000000000000000N1303000000060                 23BEDEBC7BE6336BDDC498A8013506A4
00083494847134ISENTO        DEVANIA CRISTINA DE ALMEIDA        TO340085001       20130307210010000000576195A435A7C6B4B83E8F3F03972E1D30000000004000000000004000000000000000000000000000000000000000N1303000000061                 5DD0A7D742F32ABB45A94FC1843A838C
00051386801534ISENTO        EDNAIZA AGUIAR BRITO               TO340085021       2013030721001000000058F5F4148D205F89A10D025114F70A9CCF000000004000000000004000000000000000000000000000000000000000N1303000000062                 49723A73EDC1AAA3B026EBD6D785E4FF
00003113057175ISENTO        ALDEAN LORENA CAETANO FERNANDES    TO340085028       20130307210010000000590CD3B1C7C173C0756FF188830A97C22E000000004000000000004000000000000000000000000000000000000000N1303000000063                 AD0E68FC46DC627E4C7804C1B071CC35
00002082475131ISENTO        SEBASTI„O GEORGE FIGUEREDO OLIVEIRATO340084790       201303072100100000006013E9A36E395F560D6313C43B47531F66000000004000000000004000000000000000000000000000000000000000N1303000000064                 6908D370BF75C018A78B9CF32F633868
00049230093149ISENTO        OSENI MENDES MASCARENHAS           TO340084911       2013030721001000000061EA407FD89723CA82E1F7B33DAD5BC849000000004000000000004000000000000000000000000000000000000000N1303000000065                 E8BFB6CCC70D55F0B1DDD1B996B2176E
00059646624120ISENTO        HEBER CLEBER DE REZENDE            TO340084929       201303072100100000006277E5E67B0B03431B577720E206142510000000004000000000004000000000000000000000000000000000000000N1303000000066                 396B36E8E80EE6CF1C3B29F3A289EDE3
00077405331149246347        SONIA ELIETH MARTINS VIEIRA        TO340085076       2013030721001000000063DE255A260CF9DE6ECDCE4D77292057DF000000004000000000004000000000000000000000000000000000000000N1303000000067                 2AD2C85A55BFAE4DD1FCCF117CF9C49A
00081185952187ISENTO        IVONETE FRANCA DE OLIVEIRA         TO340085088       2013030721001000000064519BD791A1DED5FECF4F9E940E372CD2000000004000000000004000000000000000000000000000000000000000N1303000000068                 4D8CBCADA6141954B5191E7780D1256C
00085297526191264072SSPTO   MIRNA CLAUDIA CARVALHO             TO340084886       201303072100100000006582A568100EC94D0DC47729F47E5DEB5F000000004000000000004000000000000000000000000000000000000000N1303000000069                 AB4C8B6EE85419832469BB76F391E4F7
00087741717120ISENTO        BETANIA DA SILVA ALVES             TO340085116       2013030721001000000066006B67C8E3598D67EBFB269700F21721000000004000000000004000000000000000000000000000000000000000N1303000000070                 DCC0B44DEFA1131F91B0EBA6C7314440
00085687847120267398SSPTO   REGINA ALVES BARROS SOARES         TO340084845       2013030721001000000067F5CC2896B57BEA92256F7573FA52FFDF000000004000000000004000000000000000000000000000000000000000N1303000000071                 CD8353C0743284C4DC70D810A8D8AF62
00088006336172ISENTO        MARIA IZA CARDOSO DA SILVA         TO340084891       201303072100100000006895FF0FD31CD7880A21ACBCE07314D5DA000000004000000000004000000000000000000000000000000000000000N1303000000072                 BB561525D5847B61D84E369B14363258
00064245934115135128SSPTO   SUIANY MARA SOARES DE LIMA         TO340084835       2013030721001000000069455901039EBD1FBA55FCF015DA479D9D000000004000000000004000000000000000000000000000000000000000N1303000000073                 3DDECBDF35A46BFCD127B9DE8051A8EF
00022768203149ISENTO        MARIA ELENA DA LUZ SOUSA           TO340084916       20130307210010000000706564020DB0FC3836B882D32B64DEA271000000004000000000004000000000000000000000000000000000000000N1303000000074                 853F981EC4268514AAD7EA92CC3F97C8
00073465011104ISENTO        EDNA MARIA DA SILVA                TO340084942       20130307210010000000710C297BB145AEF084D4E2605E39591367000000005000000000005000000000000000000000000000000000000000N1303000000075                 74082BCF7941518A3A3A0D48DB304957
00081182970125ISENTO        GIDALTE DE ARAUJO BORGES           TO340084940       20130307210010000000722B40CFC621F81E6C384CF1EF0C37FF31000000005500000000005500000000000000000000000000000000000000N1303000000076                 E7C8DF346B687F613977292422F3911D
00083618287100ISENTO        DIANETES SILVA MOTA                TO340084964       201303072100100000007377EBC2B435B149B4F2564695FA0DBA94000000005500000000005500000000000000000000000000000000000000N1303000000077                 5CBA392379262A5DBA88AF41FC8F223B
0005845678340419162SPTO     FRANCISCO DE ASSIS SENHORINHO FERRETO340084813       2013030721001000000074B4A54CD02F4580CA7FF43582B1EE1979000000005500000000005500000000000000000000000000000000000000N1303000000078                 6E12382D65C38FE6B7E00F1AE5FC1BA7
00046324950182ISENTO        LUCIMAR MORAES DA SILVA            TO340084989       2013030721001000000075CC4E7B32E05DE4320531BD6376FD130C000000005500000000005500000000000000000000000000000000000000N1303000000079                 EC96DCC5B7780BB1514EFA06C0927F18
00011802642153ISENTO        DIVINO VILELA DE SOUZA             TO340084978       2013030721001000000076F64B43B7A7B90F79CBC43F72A9F08F51000000005000000000005000000000000000000000000000000000000000N1303000000080                 F1296584AC00AFCAEACBBC7B8E1028A1
000819540181343349383       BRENO DE OLIVEIRA LOPES            TO340084802       2013030721001000000077376155BDC3B1862B44CA24461A32D061000000005000000000005000000000000000000000000000000000000000N1303000000081                 8263327BDA2253FCA0A1C0DE33DD39DF
00002521919195ISENTO        MARCUS VINICIUS ALVES BARROS       TO340085014       2013030721001000000078CA7A1195FF513AD763A42862F0E1392E000000004000000000004000000000000000000000000000000000000000S1303000000082                 FB99DDA2A3135BA0099B96206502B587
00087343622153ISENTO        ANA PAULA MESSIAS ALBUQUERQUE      TO340084985       2013030721001000000079BDB387F0147540B4FDBE627A4FF09F13000000005000000000005000000000000000000000000000000000000000N1303000000083                 A2437A408C79811DF802760F29027C67
00003369570173ISENTO        DEYCIANNE SILVA BRITO              TO340085027       20130307210010000000804CE6090938F1B7E679AE5B3EB04C86F1000000005000000000005000000000000000000000000000000000000000N1303000000084                 1A57D0D25FABCAC12AA911AC73CEF0AE
00004084942634ISENTO        JOSE NASCIMENTO TELES              TO340085034       2013030721001000000081F34646705D371D16687DA24F72F5EAAD000000005000000000005000000000000000000000000000000000000000N1303000000085                 7B50345C0814BDEE0533DFE245C6E99D
00086334786172ISENTO        ALEXANDRE HENRIQUE DE LIMA TEODORO TO340085036       20130307210010000000829DFD9102B9122CA774DD650D9FD908C2000000009000000000009000000000000000000000000000000000000000N1303000000086                 5C2DAFC30346B9EC4317CF4A51F45CE7
00000286262142677098SEJSP/TOJAILTON JOSE DA ROCHA              TO340085043       201303072100100000008303E2593C501704C329FB90781DB2E672000000005000000000005000000000000000000000000000000000000000N1303000000088                 584821F2431147CA0C9E669253B6EF44
00033308896168ISENTO        RILDO DE SILVA PEDROSA             TO340085045       201303072100100000008424734B38220CB61874D41245BF038876000000004000000000004000000000000000000000000000000000000000N1303000000089                 E7AF2D3AB4788DC67B178CDBC195543A
00000631729178ISENTO        PATRICIA LUSTOSA CORREIA           TO340085047       2013030721001000000085166461AA658498A5C92341F7767C45A1000000004000000000004000000000000000000000000000000000000000N1303000000090                 7FDD5F631B4FD3F9DA4BA9CB4192721B
00045717958153ISENTO        MARLY FERREIRA DE JESUS            TO340084992       201303072100100000008646BAD51DED3FD9633F1A49C9DFFC6A07000000005000000000005000000000000000000000000000000000000000N1303000000091                 976B478FED0FD2336763490B354C8972
00080796141134ISENTO        MARCINEIDE ALVES DA SILVA          TO340085060       201303072100100000008713B2C63537484660F7AFBDBE3A205267000000005000000000005000000000000000000000000000000000000000N1303000000092                 A0B581567E36201D5DEB3028E542091A
000491701041152174590SSP/GO RENATO LUIZ RUFATO LOPES           TO340085069       2013030721001000000088D5909B281459E7F4F671E8845F46131D000000005000000000005000000000000000000000000000000000000000N1303000000093                 CBE59647AC1FF309CC3DB55090849AD9
0005664025018750546SJSPTO   VANIA CLEIA TAVARES AGUIAR         TO340085078       2013030721001000000089C51991094DF66252EDD79CAFD15B0B29000000005000000000005000000000000000000000000000000000000000N1303000000094                 DEF60A029D4EF6CDE4DFD07A6B6F92B8
000464064331491889908       PAULO SERGIO VIEIRA DE SOUZA       TO340084800       201303072100100000009036B9551DDF68DB861C10C9B38E2D8C00000000004000000000004000000000000000000000000000000000000000S1303000000095                 905800E973D39E7A74732B284A83FDC0
00047066997115ISENTO        VERA LUCIA BORGES DA SILVA         TO340085091       2013030721001000000091CA056201F58D9AC1048370D8B3807291000000005000000000005000000000000000000000000000000000000000N1303000000001                 0EF550C4549A7B40735F2824DFC77E9D
00097962988134393737        ELSON FERREIRA ARAUJO              TO340085090       2013030721001000000092A7001DA86AC6C4C5E51BF69F94B7F5B1000000004000000000004000000000000000000000000000000000000000N1303000000096                 08A3957611A2B132D73D7494619CDA98
000001543171104517596SSPGO  TANIA NUNES DE MORAIS CARDOSO      TO340085089       201303072100100000009339E3B0AB36ECBD53090FD1D0A6BBB412000000004000000000004000000000000000000000000000000000000000N1303000000097                 512C4FDBCB2AC05D27E26BEA4BF508C3
00021255806168ISENTO        JO„O RIBEIRO BORGES                TO340085125       20130307210010000000946A58D8C8A4910C92AD15091364EC220D000000004000000000004000000000000000000000000000000000000000N1303000000098                 7AD67546156D664441830F1C41EB0F64
00099749785134ISENTO        BRUNA SCHMITT MENDONÁA             TO340085130       2013030721001000000095FD9B02CB3F46FD3AD7A4A1CD09978FBB000000004000000000004000000000000000000000000000000000000000N1303000000099                 EAD1B6B299712BE37837E2A0513A1C07
00062605240134135153SSPTO   MARIA DO CARMO CARVALHO DE SOUZA   TO340085103       2013030721001000000096245783BB30397A5C12E79DBF86A8E8CA000000004000000000004000000000000000000000000000000000000000N1303000000100                 4A7E6E438382E5C4E239C14BC93AB328
00072768550159ISENTO        EVANIA DA SILVEIRA GONÁALVES       TO340085139       201303072100100000009797DD71ABD5A7297A255150EE2C114B62000000004000000000004000000000000000000000000000000000000000N1303000000101                 4166F3236222E3AAF3A50FD5C1DF657E
00003759505678ISENTO        WESTER JOSE DA SILVA               TO340085140       2013030721001000000098530BCA6314AA3C275B141F6725C30880000000004000000000004000000000000000000000000000000000000000N1303000000102                 31B0A32D90D204F4B67899D7CC0EFAE5
00001414132123ISENTO        KESLEY TERRA DE OLIVEIRA           TO340085102       20130307210010000000992B792E481440A4EF09C1E220D74FB055000000004000000000004000000000000000000000000000000000000000N1303000000103                 8792D971227BA35D200DC0E2F05AA7EB
000464064331491889908       PAULO SERGIO VIEIRA DE SOUZA       TO340084799       201303072100100000010000F050F746F55924A95BD266E721F0F1000000004000000000004000000000000000000000000000000000000000N1303000000104                 8EC4A23E588C93AB956FB2F166A56D4F
000434996511492385809       NILSIRAN FERNANDES DA COSTA MORAIS TO340084797       20130307210010000001013713C2077C14611C5DA9647B7E4028F3000000004000000000004000000000000000000000000000000000000000N1303000000105                 D78AD7B891A17256237F3336AB83717F
00026144271104ISENTO        ANTONIO PIRES NETO                 TO340085020       2013030721001000000102FF062B1E50079F1855E630B4076545BA000000004000000000004000000000000000000000000000000000000000N1303000000106                 68719ECF2DA914FC97433031EB18E93B
00073377503900ISENTO        MAURICIO RODRIGUES DA COSTA SOBRINHTO340085050       201303072100100000010370AE46DE70C77AFABF5E75D573939EB5000000004000000000004000000000000000000000000000000000000000N1303000000107                 E2BE0083DC0B8CE4E6741C539C583EA3
00062357328134ISENTO        LECIR MARIA PEREIRA AMORIM  SOARES TO340084971       20130307210010000001044697AF9BB34A173CD67120821B465EE0000000004000000000004000000000000000000000000000000000000000N1303000000108                 36B5A3C6B13D85B051DC347841C2EAB3
00082482233100ISENTO        JANETE BARBOSA VIEIRA              TO340085110       2013030721001000000105233079F5759D962D7901715ED625F652000000004000000000004000000000000000000000000000000000000000N1303000000109                 B13441794BC17224CB68B1AAEA78D101
00049926454100ISENTO        ALBERTINA NAZARE MARTINS           TO340085160       2013030721001000000106C5A48BF4D9CA80515DE252A394FEF590000000004000000000004000000000000000000000000000000000000000N1303000000110                 809058C97763668684F41402782EE4EB
00032345283149ISENTO        BENEDITO LINO                      TO340085161       2013030721001000000107A147D582AB0A1783E5DAAA581AAFB5B5000000004000000000004000000000000000000000000000000000000000N1303000000111                 D88A55922E3A752F0F0417DF56F8925B
00053466357187ISENTO        SILVANIA GOMES DA SILVA            TO340085165       2013030721001000000108998A2E3373C517CF85132868472E1FBE000000004000000000004000000000000000000000000000000000000000N1303000000112                 5A09FA10BA571BEF2194376EBC5C777D
0005347617411529280         IRAILDES RIBEIRO DOS SANTOS        TO340085166       20130307210010000001091A2505B8F60D41DC948924582B4E45B3000000004000000000004000000000000000000000000000000000000000N1303000000113                 CF53200421BD6102E1C882454FC01AA2
00080287166104280851        MARIO FRANCISCO VILARINDO DE SOUSA TO340085170       2013030721001000000110D80DB4FBD87DEF281315B366F3453DC0000000004000000000004000000000000000000000000000000000000000N1303000000114                 DFF46334917F5C29E55CCB4D027925EF
00073141828172ISENTO        HELDA FERREIRA DE BRITO            TO340085172       2013030721001000000111E61D0A9E9022A32780878494CD1F8080000000004000000000004000000000000000000000000000000000000000N1303000000115                 B06241F58AA362FB9FAB8A508BC517E5
000262744851041186089SSPGO  ARISTIDES AFONSO FERREIRA          TO340084892       20130307210010000001125EC6AE70DC406386EEB871DF893DE2FC000000004000000000004000000000000000000000000000000000000000N1303000000116                 A790EB6BC7C26EBAC93D06EE48122B6B
00002848547197ISENTO        PATRICIO RIBEIRO ROCHA GLÛRIA      TO340085183       2013030721001000000113111B47D8143E5EBB09ABFAA65DE1463D000000004000000000004000000000000000000000000000000000000000N1303000000117                 06007E35E094CDFA1117471F1FDB8526
00077849477120ISENTO        ELISANGELA DOS SANTOS BORGES       TO340085041       2013030721001000000114D07980E56045A9D80E012E4AC4337A45000000004000000000004000000000000000000000000000000000000000N1303000000118                 64297289AC3EE0C5096CA8AF84CB9496
00000790989166362470SSPTO   JACKSON BORGES DE CARVALHO         TO340084897       20130307210010000001154D7CA5E5F0632E9D1E5059E97E5946B1000000004000000000004000000000000000000000000000000000000000N1303000000119                 8BE0A2F93D7C0B956D46FC28B23AAF42
00032317174187ISENTO        ALMANIR DIAS BRITTO                TO340085189       2013030721001000000116BADA3C30AEC0350E260CF6E14100A138000000004000000000004000000000000000000000000000000000000000N1303000000120                 3C0DBC305CE9EFD1B1E2CE91B4EFE833
00083735607187ISENTO        JADEVANIA  FIGUEIRA DA SILVA CAMARATO340085066       20130307210010000001178421DFE7FC586CC6F7FE475BD910DBF9000000004000000000004000000000000000000000000000000000000000N1303000000121                 04E8B48BA7D86F3E7DC67D0C807ED57F
00040190935120ISENTO        SEVERINO COELHO DOS SANTOS NETO    TO340085204       2013030721001000000118A3324E105E91277652F62C823653BA14000000004000000000004000000000000000000000000000000000000000N1303000000122                 988540196B76B01FBDA1FD6C6FE9710E
00001539066185ISENTO        STHEFFANYA SOUSA DE ALBUQUERQUE    TO340085202       20130307210010000001193A9341217555C29DF959ED3025420660000000004000000000004000000000000000000000000000000000000000N1303000000123                 96A1B624815FCD90930A1A8923448EEF
00041959531115ISENTO        JO„O GALBERTO CABRAL LUZ           TO340085206       201303072100100000012066CD11876A69493F0C74828E9330E848000000004000000000004000000000000000000000000000000000000000N1303000000124                 8EC00E3C06BBD8947679611DD3D44ADE
00001971103128ISENTO        BEATRIZ DIAS MIRANDA               TO340085207       2013030721001000000121F31E69CDA929B01B2303BD8DD032B424000000004000000000004000000000000000000000000000000000000000N1303000000125                 AABBCA8471AA1845071CC32CFF307338
00000970390122749717        CLELIA NAZARE ALVES DE OLIVEIRA    TO340085210       2013030721001000000122597C218188589F430EB94D8A4119E704000000004000000000004000000000000000000000000000000000000000N1303000000126                 398B6D958A652EF999DA91B602AF6990
00001053055102ISENTO        NYLEIDE MARTINS VIEIRA             TO340084077       20130307210010000001231955D2EFD8A55DBC5764DD30942E678E000000004000000000004000000000000000000000000000000000000000N1303000000127                 E1BD4A476312415B30E155758B735CC3
00057675953134ISENTO        WELLINGTON FERREIRA                TO340085212       2013030721001000000124A301065D864581223345DF35EB6D4EF0000000004000000000004000000000000000000000000000000000000000N1303000000128                 996CA50847FA0EF131BAAE9EAA1711E3
00093020783100ISENTO        FRANCIVAL RODRIGUES DA SILVA       TO340085222       2013030721001000000125D6E484861447E343C2CB1951FDA30D62000000004000000000004000000000000000000000000000000000000000N1303000000129                 9EDD7B06A3710483871E39BB29FB117E
00052373037300ISENTO        ALYSSON AIRES RESENDE              TO340085223       2013030721001000000126411CA8DEA45C40FBD91B3592E5FEBEE3000000004000000000004000000000000000000000000000000000000000N1303000000130                 E40593EBE6282C968CBAF15491F8218B
00085643602172ISENTO        DJANETE ALVES PEREIRA ARAUJO       TO340085224       2013030721001000000127DD909DA6877B92B11EDBADF7064789A6000000004000000000004000000000000000000000000000000000000000N1303000000131                 FA9E0974D73CB9F112404C20537CFCFC
00002883219109ISENTO        SALOMIDH PEREIRA PASSARINHO        TO340085237       20130307210010000001281EA4C4CB9B6A88584D925892221DDBE4000000004000000000004000000000000000000000000000000000000000N1303000000132                 A3356196F406787F2758AEDCE91C0F0B
000499250591003253          DOMINGAS MOURA DO REGO SOUZA       TO340085234       2013030721001000000129E8E24E395EBBDA59B6BD16BDE0623438000000004000000000004000000000000000000000000000000000000000N1303000000133                 37DCA21BC8DAF7B065D46CBA878FF8FE
00095656294153ISENTO        CRISTINANY DOS SANTOS AGUIAR       TO340085238       201303072100100000013085CE127A33F2D55D695E325F894C8C9A000000004000000000004000000000000000000000000000000000000000N1303000000134                 2AFA022184212214C64F6BFD35FC9703
00019607725115ISENTO        JO„O AUGUSTO VIEIRA                TO340085240       2013030721001000000131E1EEB556EE879F013D5A0086EB0AFCAB000000004000000000004000000000000000000000000000000000000000N1303000000135                 5C9BB2B18FFE05469A84A32536B9F256
00000445326107617299SSPTO   ALBA L˙CIA DA CRUZ LIMA            TO340085111       2013030721001000000132A4B00A849224D2BFEBE207A1A0CBDDB2000000004000000000004000000000000000000000000000000000000000N1303000000136                 8D1637742D1AEF721AFA384F14A00F9F
00077731867153ISENTO        JO„O BATISTA BENTO SANTOS          TO340085244       20130307210010000001339189BC42162064544A66E0C4B4A8F8F4000000004000000000004000000000000000000000000000000000000000N1303000000137                 370B32CE62E99DB28B5C963039F5D455
00081544723172998035        EULINA FERREIRA DE BRITO           TO340085256       2013030721001000000134FA0947C40D56A377CB8F2985B655A032000000004000000000004000000000000000000000000000000000000000N1303000000138                 877E21C32977048C6E5EF587EC862D4B
00043156150134ISENTO        JOANA DARC PEREIRA GLORIA VIEIRA   TO340085257       20130307210010000001357648D04912BB566B441717DAC459A016000000004000000000004000000000000000000000000000000000000000N1303000000139                 FFC896C4E5261F63C8629C569A42793F
00002041321180ISENTO        DAYANNE PEREIRA MENDES             TO340085192       201303072100100000013693F1056202351B27B30F6FF7F77A0DF5000000004000000000004000000000000000000000000000000000000000N1303000000140                 62F273771EA762A61EEBF5CD47EECAAF
00091741173191287129SSPTO   GIULIANO BELTERIO DE OLIVEIRA      TO340084880       2013030721001000000137ABA8907D66D14D8F7F4FC2A003F77FC1000000004000000000004000000000000000000000000000000000000000N1303000000141                 C12D68817899E840559661932334793D
00001890718181892538SSPTO   ANA PAULA GOMES ROQUE DA SILVA     TO340085098       201303072100100000013871F6B60446B855B2BF1BE2536D6DF0A1000000004000000000004000000000000000000000000000000000000000N1303000000142                 9297386D4E0487D38029DB3C49621509
00002629823156ISENTO        RAPHAELLA DE PAULA MAIA FONSECA    TO340085012       2013030721001000000139DC6108ECD8B12461823721F22326E1DC000000004000000000004000000000000000000000000000000000000000N1303000000143                 AE0E7313A9A0B5AE893DD5A2D5442E97
00076754308168ISENTO        ODIMAR FORNARI                     TO340085269       2013030721001000000140C043DC10A65075D7F694F183FE9A3EE8000000004000000000004000000000000000000000000000000000000000N1303000000144                 3080AA7CE8977BC2DF1D381A7DE47538
00049167057853ISENTO        ROBERTO LENZI                      TO340085024       20130307210010000001417C8589624AEE4FCCBAEDC193B3E54086000000004000000000004000000000000000000000000000000000000000N1303000000145                 FBF8D31CBE314D05A9CE2727D98463DD
00042460999372ISENTO        EDILSA MARIA PEREIRA GOMES         TO340085260       2013030721001000000142792325D6C4BEA0D43371F2954F68FDAC000000004000000000004000000000000000000000000000000000000000N1303000000146                 365915796D833506B92EF131AF9293E1
00086178997191314390        RODRIGO ALVES E SILVA              TO340085281       20130307210010000001432BF136018D9C8903B1C3CE40053F81F8000000004000000000004000000000000000000000000000000000000000N1303000000147                 4B65FE78BA08D6CD4954F88CA6658FDC
00000904125165ISENTO        ANA PAULA MARTINS MAGALHAES        TO340085290       2013030721001000000144E150EFED363C5C16DCE109A4B1EC0008000000004000000000004000000000000000000000000000000000000000N1303000000148                 4942A8311BD23012334676194447B7E2
00087997029168ISENTO        KAREN ALVES DO CARMO               TO340085295       2013030721001000000145F5456AD4375BBA9C405F5D61655168BD000000004000000000004000000000000000000000000000000000000000N1303000000149                 E498A8577BA8AA0A94003093F964BDF3
00072723416291ISENTO        PEDRO FERNANDES QUEIROZ            TO340085280       2013030721001000000146BBA085038111029FCDE5A6BECF6C1A1B000000004000000000004000000000000000000000000000000000000000N1303000000150                 0C1E8DC97462DDC0046227C6DBB4F4A6
00001306800102ISENTO        ALINE SAVIA DE SOUZA SANTANA       TO340085298       201303072100100000014702E4050633086CD6D585406DBE390E90000000004000000000004000000000000000000000000000000000000000N1303000000151                 26B57D25CF38CF566A504962A3E1564A
00085394106134ISENTO        GENIVALDO DE JESUS REIS            TO340085235       2013030721001000000148B8F181B81C54E01D8AED449EE56C761B000000004000000000004000000000000000000000000000000000000000N1303000000152                 206937B228094DA51206BBCF3EF53FD9
000947085506001097743       L·ZARA MARIA SILVA SOARES          TO340085317       2013030721001000000149F8BC4C897975EC09EBDA08FF1D8372A5000000004000000000004000000000000000000000000000000000000000N1303000000153                 9E584C8A49B71C4CE0D865D0E36091B7
00003331661163ISENTO        DONAX ALVES BARBOSA                TO340085322       2013030721001000000150FA5E9AE02281090AA4454E8817CFD81F000000004000000000004000000000000000000000000000000000000000N1303000000154                 FAC6929E072E3C2CD6C22A519F10C104
00000741615126ISENTO        KLEBER DE SOUZA COELHO             TO340085323       201303072100100000015114B6E696755D1D3B48189DB3970F7822000000004000000000004000000000000000000000000000000000000000N1303000000155                 967042C158EDE0ED3737B501B1549D4F
000380476161532249423SSPTO  WILMA MENDES RAMOS                 TO340085081       201303072100100000015265FA9074AB48AFAF75537E07D16B93D8000000004000000000004000000000000000000000000000000000000000N1303000000156                 3026F43B0C6DC10DD786D954DFB2AEC0
00050493825304196698936SSPMAEMERSON PEREIRA                    TO340085338       2013030721001000000153BDFCC708CDD70767D496AADA433E680A000000004000000000004000000000000000000000000000000000000000N1303000000157                 CBE0ED66C29473CE94B9898994C7BBEF
00062603876104135400        ALEKSANDRO AMARAL DE OLIVEIRA      TO340085339       20130307210010000001549766620ABBA9340A8052D13543D9DFC6000000004000000000004000000000000000000000000000000000000000N1303000000158                 FB8F9FA70CED2B41D77396493E5AD3AB
00023992360172ISENTO        IZABEL ALVES DE OLIVEIRA           TO340085348       20130307210010000001557C77F795BD791619478B9AE4FA2A3B27000000004000000000004000000000000000000000000000000000000000N1303000000159                 399E994B991DB748C181402D7F2E50A6
00038220067187ISENTO        VILMAR MONTEIRO DA COSTA           TO340084923       2013030721001000000156631EB415771E17EDBF607A59EC0AAF37000000005000000000005000000000000000000000000000000000000000N1303000000160                 9B5D63743C41038AE04D13C0E3180091
000024539311051061930       CAROLINE VIEIRA CARVALHO           TO340085366       2013030721001000000157120F97019D101EA8D91752A94296FC2F000000004000000000004000000000000000000000000000000000000000N1303000000161                 B28A2EB82BC0D2E515F6A35180207B4D
00029785510115ISENTO        MARIA ZULMAR VIEIRA DE CARVALHO    TO340085072       2013030721001000000158CA7ABB15E331C320A3461C405CFCE71A000000005000000000005000000000000000000000000000000000000000N1303000000162                 643BE11DB6806F7E8751B0A7DD754418
00000241457181ISENTO        NHANDEYARA ALVES FREITAS           TO340085019       2013030721001000000159926FCC0BC7FC382FEE0496814D137417000000006000000000006000000000000000000000000000000000000000N1303000000163                 8A7F8AD45EC538F87E3A89918E8E632A
00028111060149ISENTO        SUELI DE MORAIS SANTOS             TO340085040       20130307210010000001606E78036AC0D7F7CF47A9D2E0208FB7EB000000006500000000006500000000000000000000000000000000000000N1303000000164                 02E073FB52D3EF4F38C8DD0B80FB7DCF
00001315330105ISENTO        GISLAYNE ROBERTO CONRADO DE SOUZA  TO340085025       2013030721001000000161384F2E19DA0C5B96B890DF2BE36ACDD0000000005000000000005000000000000000000000000000000000000000N1303000000165                 B80982BDD1EE8D3F1C79CD4864F88376
00094877181172ISENTO        LUCIRENE PEREIRA LOPES             TO340085143       2013030721001000000162D93C7AA938691FA62A7B87375EB77119000000005000000000005000000000000000000000000000000000000000N1303000000166                 8B03EB4CA3024A1CE5607549C3EFB572
00090516443020ISENTO        ADILSON BECKER                     TO340085154       2013030721001000000163A8BF6FAD8E0A62DC88752DED072F589D000000005000000000005000000000000000000000000000000000000000N1303000000167                 AB671125D4929EB72CAF4D0EF33143EE
00000741627132ISENTO        SANDRA HELENA DE JESUS VIEIRA      TO340085117       2013030721001000000164457F4DCAE2B26B60922EB24A6C842BF2000000005000000000005000000000000000000000000000000000000000N1303000000168                 6D7ECFC23297C7510B31E71752E71031
00004172337104ISENTO        JOSE GOMES DE LIRA                 TO340085173       20130307210010000001658A634FA97555B4B0865773ED61ED6C0F000000005000000000005000000000000000000000000000000000000000N1303000000169                 A8E29B298373F1E29F29E428A9984BEF
00049409433134ISENTO        JOATAN PINA DE ABREU               TO340085178       20130307210010000001669B1C2FC81B4A6A6AF44149322B7D6ECB000000005000000000005000000000000000000000000000000000000000N1303000000170                 C6E5DD79A144953AF14B128BEAE3D2D1
00076089142115ISENTO        ALDENIR JOSE BARCELOS              TO340085075       20130307210010000001676D49E0BEBD2C2F3CFDE70E6B2F816429000000005000000000005000000000000000000000000000000000000000N1303000000171                 DDC82A50670DF955B0B5013F06A63D7A
00071557385149ISENTO        MARCIO OLIVEIRA COSTA PINHEIRO     TO340084951       20130307210010000001682A136A98FF0FE502E61CEED975B43C1F000000005000000000005000000000000000000000000000000000000000N1303000000172                 F4F96FC2834CE0A821A3F9901EB47D5F
00047938080500ISENTO        DENISSON ALMEIDA JUNIOR            TO340085251       2013030721001000000169BF013DE94F9E7C845C37C3DD7D3DEC9A000000005000000000005000000000000000000000000000000000000000N1303000000173                 E8DC36797EAC1C7D2D692ED8C025BE39
00000591383195ISENTO        ANA CRISTINA FERREIRA              TO340085252       2013030721001000000170E29762A53FB380B6259D4539C8AEEABF000000005000000000005000000000000000000000000000000000000000N1303000000174                 47245C217CD6B06509F6F7E579A80510
00094626227104ISENTO        ELIA MEIRE FRANÁA MACEDO           TO340084400       2013030721001000000171E9E89BC1F92B8C81E0522FA540BFDFBF000000005000000000005000000000000000000000000000000000000000N1303000000175                 568F778EAD3927C8EC456B69D9CAEA6F
00001750740117ISENTO        MARIO ANTONIO DE FREITAS           TO340085259       2013030721001000000172F87DC107088E9D8CAE5968AEC92339F8000000005000000000005000000000000000000000000000000000000000N1303000000176                 7B95FBE13072E0EC035BF11A22FAC865
00064102262172134479SSPTO   CLEONICE DE SOUZA LINO             TO340084902       2013030721001000000173189A07C5AABFDABB6C5907D0A0A00CDE000000005000000000005000000000000000000000000000000000000000N1303000000177                 458A161A9051427F0FEBF433CFC6804E
00038979110197ISENTO        BERNARDINA RODRIGUES BRAGA         TO340085049       201303072100100000017434EAB0DFA6F37A7F4CA07A30CD17A1AB000000005000000000005000000000000000000000000000000000000000N1303000000178                 69C2D0CEFB420626929C6313B9EB23D9
00090714270130ISENTO        ELGIVAN PEREIRA DOS SANTOS         TO340085017       2013030721001000000175E30B3F61C5DA55FC184A114C0B0C65B4000000005000000000005000000000000000000000000000000000000000N1303000000179                 DE8705F7C36D35483F8148EC62F7E142
00087132966120404073        OLIVIA DOS SANTOS ABREU DE JESUS   TO340085319       2013030721001000000176108E33BD164E6C5338DD76C3301FB859000000005000000000005000000000000000000000000000000000000000N1303000000180                 9B5F837C616D55D32B4A489B6CE07D5F
00094007063168635802        ADRIANA ALVES CARVALHO             TO340085311       2013030721001000000177425890BCAA05BEFC7F73E30073AC4086000000005000000000005000000000000000000000000000000000000000N1303000000181                 828DC6FCEAE5CDE0505F8D154608EB18
0000446622869810765348SSPMG VINICIUS LACERDA SALERA            TO340085305       2013030721001000000178D1EAC9952B83054B155AD9E97E00178A000000005000000000005000000000000000000000000000000000000000N1303000000182                 50CE6EC902A75F7F4832A77EAD15D3B8
000004716271604854235       MONIQUE ROCHA CARDOSO              TO340083968       201303072100100000017901AE596F3AD40D07DF6D41FEB36FF78A000000005000000000005000000000000000000000000000000000000000N1303000000183                 04B5D03810FC24097EDB6A20A1948E57
000048937381001090771       MONICA DE JESUS REIS               TO340085331       20130307210010000001803AF044DCCA188A42F10DEFDAF9BC87FB000000005000000000005000000000000000000000000000000000000000N1303000000184                 E5C0C65319600D9CABB215F0A5173411
000814023762001304030407    MATHEUS BARRETOS DOS SANTOS        TO340084280       20130307210010000001813CE0DEAE815112C4078B701669E3449B000000006000000000006000000000000000000000000000000000000000N1303000000185                 B254725C64434F5B5ADBCA2E451EC8DD
00049350595168ISENTO        LEONORA RIBEIRO DIAS PEREIRA       TO340085335       2013030721001000000182153F7E6F9D4F8288150AB9E16D854B5F000000005000000000005000000000000000000000000000000000000000N1303000000188                 68179579D0031697FE761440D28100E7
00001472227107432519        KARLA ROBERTA MARTINS DE OLIVEIRA  TO340084987       201303072100100000018349C2425C4FC231825F39CD981B4DD036000000005000000000005000000000000000000000000000000000000000N1303000000189                 4EA9A6153C533B4DF513D06613F45A00
00004063831469ISENTO        ANA LUCIA CAVALCANTE SILVA NUNES   TO340085360       201303072100100000018470B8C18A0B07BB0C397FB6CCCAD4A126000000005000000000005000000000000000000000000000000000000000N1303000000190                 9E6D1AC12FEB729E0838A96051E381A7
0008221809918729106SSPTO    NUBIO DE BRITO NUNES               TO340084871       2013030721001000000185D87482B74BA100F0842192C9B2856396000000005000000000005000000000000000000000000000000000000000N1303000000191                 2535A039C3E7CACB0B244E0AB03910E1
00064535541191ISENTO        PAULO MARINHO SOBRINHO             TO340085009       201303072100100000018608156FF9C7F3F36499593657024BB586000000007000000000007000000000000000000000000000000000000000N1303000000192                 DF4BF3575122FE41C2E3CE1B1B699C5E
00025264455821ISENTO        MARCOS RENATO HERRERA              TO340085029       2013030721001000000187122428D45A83CF99710289DC0983A9BD000000008000000000008000000000000000000000000000000000000000N1303000000193                 E78C5A839C7F1514C171FD0CA2F131B9
00083618384149244532        ELISANGELA OLIVEIRA DE SOUZA       TO340085037       2013030721001000000188146D6D54815A5F7D82E25AE2CC9E40C1000000006000000000006000000000000000000000000000000000000000N1303000000194                 AE0F747018AFC51A934346DA84FFD0B1
00000376034181ISENTO        RONNY BARBOSA DE OLIVEIRA          TO340085046       2013030721001000000189995DAD3656713EE6D5615A19E8A546CA000000008000000000008000000000000000000000000000000000000000N1303000000195                 7920F9D9FC4C44EA3A2A7109C280133F
00001428342117ISENTO        CRISTYANE DE OLIVEIRA CARVALHO     TO340085054       20130307210010000001907045FF70977C7CDAB527ADD9D9238A07000000006000000000006000000000000000000000000000000000000000N1303000000196                 B1169B31CC397104F824837398624C69
00005113128651ISENTO        FERNANDO ELIAS FERREIRA ( ILHA BELLTO340085061       2013030721001000000191687DC3C79548B957E37FC70F732543BB000000008000000000008000000000000000000000000000000000000000N1303000000197                 D38801EE246C6CC7B92B3A5FB60FAADB
00054919690100ISENTO        SERGIO BRAGA DOS SANTOS            TO340085071       201303072100100000019236F060520332BBF3FC142311162A27A7000000008000000000008000000000000000000000000000000000000000N1303000000198                 C4D1F6D2D725A689C7949831E14C154B
00047526386300ISENTO        CLAUDIO BRAGA PINTO                TO340085077       2013030721001000000193B8C882BCD9018C6BB0A7BE406E60B413000000004000000000004000000000000000000000000000000000000000N1303000000199                 0FDE1B613E5B15E16BCA61CB9D96BDC8
00087644630104ISENTO        CYNTHIA MOTA TOLENTINO             TO340085055       201303072100100000019414A9A011640A8AE1C2B280B9B7548D3B000000008000000000008000000000000000000000000000000000000000N1303000000200                 72E9FDC2DDCE926311A10FFAA3D96BBE
0002060372020000000000      FRANCISCO VALDENIR DA SILVA        TO340085084       2013030721001000000195420D66990BD0F5BE1B291F75904B64D5000000006000000000006000000000000000000000000000000000000000N1303000000201                 4D4E5D95D6707FA078F2084972BA6419
00036018279134ISENTO        JO„O CARDOSO DA SILVA              TO340085086       20130307210010000001963A1F0D2BC7D117A175A124AD6FB403A6000000006000000000006000000000000000000000000000000000000000N1303000000202                 79CA837FA91153EAB81E93763A3DF1FE
00096775130104ISENTO        JO„O NETO PEREIRA DE FARIAS        TO340085097       2013030721001000000197C54F6FABCB0EA43AAF4B0FAC636FE7D5000000006000000000006000000000000000000000000000000000000000N1303000000203                 131EC0FCE145709E91FF54D3939F112A
00099625466134ISENTO        THYAGO RODRIGUES GAMA              TO340085105       20130307210010000001989852AC3E634A9BD8E53C6C9575A16DA1000000008000000000008000000000000000000000000000000000000000N1303000000204                 093FE94278E6AA9AA6D6B10581473D84
00082513570120229826SEJPTO  SHIRLEY ALVES DE ALMEIDA           TO340084895       20130307210010000001998146A19B0332190D4FBF4E77D35CC008000000006000000000006000000000000000000000000000000000000000N1303000000205                 6D0627D8199953937809D04677486E2F
00000448020130ISENTO        JANNIELLY NERES SARAIVA            TO340085109       2013030721001000000200B4D0AF144BFEA5E0688DCBD2E4F77E8E000000006000000000006000000000000000000000000000000000000000N1303000000206                 CFDE6F3991D9B9B85659EAB0092161AD
00038300273115ISENTO        ANA MARIA DA CUNHA REZENDE         TO340084932       2013030721001000000201886EF6B31938CA9BAC451153F3B6DA22000000006000000000006000000000000000000000000000000000000000N1303000000207                 352F6EB20AD63A878B2809E951DC807E
00069144915268ISENTO        ERICA JACINTO ROSA                 TO340085112       2013030721001000000202A9F4C09D9D2FB09D46C2383220E1C111000000006000000000006000000000000000000000000000000000000000N1303000000208                 C9131599A8EAD0297880B5493FFE4CA4
00085043567104ISENTO        CLEIDIAN BOTELHO ALVES             TO340085114       2013030721001000000203339A2A9D2EEC0B7357758F40E0B9C6EC000000006000000000006000000000000000000000000000000000000000N1303000000209                 AB9CB4FCBFE58DB51464383C46F9E8BD
00095173021187ISENTO        ARISTOTELES CAPONE                 TO340085106       2013030721001000000204EC8B24EC798803613DA05016E43A6D44000000006000000000006000000000000000000000000000000000000000N1303000000210                 3BC6ACD7A55BB1E5570B57EF19A3335B
00056050151172ISENTO        ALTAMIRA DE SOUSA LIRA             TO340084982       2013030721001000000205E9780BF61176D4795D24C1A2769453DF000000006000000000006000000000000000000000000000000000000000N1303000000211                 8B1CAF6A6F5BC507C2BB4732825FFE3B
00034983457100ISENTO        JOSE ALVES PEREIRA JUNIOR          TO340085118       2013030721001000000206B381B76113B25CCF67FC3A7EC3495FB8000000006000000000006000000000000000000000000000000000000000N1303000000212                 CDA1622B9A1217106E5FD18ED625784A
00002905325151ISENTO        KELLIENE RODRIGUES DA SILVA        TO340085079       2013030721001000000207B1849F15063264FF73E8235CB2F6BC3D000000006000000000006000000000000000000000000000000000000000N1303000000213                 990B553187FA825951CA9C56224CE07C
00077558812100ISENTO        WESLEY SUBTIL RODRIGUES            TO340085121       201303072100100000020884DF8B2B636F2B162B8726BC7D039F1A000000006000000000006000000000000000000000000000000000000000N1303000000214                 82A2862F92D22C1424F931092E021E19
00052668975115ISENTO        LUCIENE SILVA OLIVEIRA NAIMAIER    TO340085123       201303072100100000020965813B219679824A09447FCD5C825985000000006000000000006000000000000000000000000000000000000000N1303000000215                 C765A2E34799F384964FFCED5BB2F763
00088910385120ISENTO        NADYA LIVIA MESSIAS DE AMORIM      TO340085085       20130307210010000002104C79BE954A8E2FD0582F381DA44FF8C7000000006000000000006000000000000000000000000000000000000000N1303000000216                 9E693D5B7341EE511CB1F629F30AB03A
00002641947137ISENTO        EDER GONÁALVES LEMOS               TO340085141       201303072100100000021112D10B1B892D618A9882858287702D96000000006000000000006000000000000000000000000000000000000000N1303000000217                 3D73EE11508193E4B7CA616A270D2A86
00084998938134ISENTO        VANIA APARECIDA NUNES MATIAS       TO340085146       2013030721001000000212D1D5665ABE01B6CF238F9A90CA5134C9000000006000000000006000000000000000000000000000000000000000N1303000000218                 F22C65CBEF5CD35C287EB4DEBB9DA20A
00088571076120ISENTO        LIVIA POVOA MENDES                 TO340085148       2013030721001000000213B81F918D34075EF9895E8AAAC1F31D38000000006000000000006000000000000000000000000000000000000000N1303000000219                 A2041B24A60A1EC1FB3928FCE64D0700
00003599765146ISENTO        THAIS ROSA FONSECA                 TO340084332       201303072100100000021452CEDAA61257898DFCE796B188AC8CED000000006000000000006000000000000000000000000000000000000000N1303000000220                 8F59D1024ACC84CCA1F514A8472D1459
00001450367151715082SSPTO   JARDILEY DOURADO DA SILVA          TO340084833       201303072100100000021574CF2C3D3D0E9C09DF29F252BDA72A47000000003500000000003500000000000000000000000000000000000000N1303000000221                 AFA7675A6A28D131E91AA4B2E4365245
00052646181191394943        EURIPEDES FERNANDES CUNHA          TO340085159       20130307210010000002161C0C2E37302F16CC1D109E325AD96379000000006000000000006000000000000000000000000000000000000000N1303000000222                 AFC1BE0CB4C1B2E631F96CFB8E128CBE
00064245837187ISENTO        EDUCARMO AIRES DA SILVA            TO340085164       201303072100100000021701F61B0B19901C1DC05DD2249AE25C3B000000006000000000006000000000000000000000000000000000000000N1303000000223                 1A1F8086753BDDA325927110DE84478A
00058679073172ISENTO        MANOEL RAIMUNDO GOMES CIRQUEIRA    TO340085167       2013030721001000000218E4CBA5B866472EC3D205CC0A7903F668000000006000000000006000000000000000000000000000000000000000N1303000000224                 BB8C0FA02CCFBB434E5A1375A4B23DB2
00003828418163ISENTO        FRANCIELLE DE LIMA XAVIER          TO340085171       20130307210010000002190B6156695933D00F72CC240A1B4277C5000000006000000000006000000000000000000000000000000000000000N1303000000225                 B48419CE703A621C45D2D972605A4BC9
00089854764168ISENTO        SABINO PEREIRA DA SILVA NETO       TO340085174       2013030721001000000220B43F0A03F8EAC557DFE6A75F658EDE9C000000006000000000006000000000000000000000000000000000000000N1303000000226                 6957A33D7EC7FB53A7DB8D7B92B31E50
00000972588140ISENTO        FERNANDO FERREIRA JUNIOR           TO340085177       20130307210010000002211A1AC817397E252F64CB10AD8743692F000000006000000000006000000000000000000000000000000000000000N1303000000227                 2943569B3B1B455B883F56E3DA75BDDB
00086264524115ISENTO        FABIANO MESSIAS DE OLIVEIRA        TO340084936       2013030721001000000222F18D3CEE8EFB8B9D24889D01FFE90E01000000006000000000006000000000000000000000000000000000000000N1303000000228                 2E155644C1E7F8892C858B55174CF1B7
000311554050721006546111    ALEXANDRE LUIS PASQUALI            TO340085190       2013030721001000000223B5792610DDFDDC2833E7430CE9DF528C000000006000000000006000000000000000000000000000000000000000N1303000000229                 FB60197830B52369D3A3729E7091D5BA
0003200553910484020960      PAULO DEMETRIO DE PAULA NETO       TO340084798       2013030721001000000224DEA212AB547F38EC4FD07E5CA677D5E6000000006000000000006000000000000000000000000000000000000000N1303000000230                 F5875E7EDE52ABB44F47AF806F908E75
00093695896191406756        DANIEL BRUNO GOMES BARBOSA         TO340085162       2013030721001000000225D7C4E8CC93EDE6C5D85B8A59E6E6E2DA000000002000000000002000000000000000000000000000000000000000N1303000000231                 2F711E6B3B41D35591C4E9B166A3A984
00052668525187ISENTO        NEURAIR MARTINS DE CASTRO          TO340085186       201303072100100000022622A958E5CD32802962D82D33F957EBA3000000006000000000006000000000000000000000000000000000000000N1303000000232                 AC5E7909F9E720319469924B1E59DE7D
00086779516104ISENTO        LUCIENE APARECIDA SOARES DE ARA˙JO TO340085194       2013030721001000000227A396E1CDC29A784568E2598BAA45FF0C000000006000000000006000000000000000000000000000000000000000N1303000000233                 21D213F3D35C2A4AD9AB7FD92BC3EE3A
00038295431153ISENTO        CIRLENE AGUIAR DE JESUS MACIEL     TO340085195       2013030721001000000228CE40D48624F9F927366817C4A2AAE151000000006000000000006000000000000000000000000000000000000000N1303000000234                 C6812BF48B4A3B5D821291519D3958BE
00004268908170ISENTO        RAI ROCHA DA SILVA                 TO340085196       2013030721001000000229E9E314A7D8F4E84324D759B9C5ABAD5A000000006000000000006000000000000000000000000000000000000000N1303000000235                 D842EE3959F1E76045B12F59DACF04E6
00077769880149ISENTO        CRISTIANE SAMPAIO MIOTO CARUCCIO   TO340085200       20130307210010000002307A55296B2C1CCAD1667385ADF0097457000000006000000000006000000000000000000000000000000000000000N1303000000236                 F7B09A2AC0786BB876BEA5EECDBFFA54
00004089257107ISENTO        DAYANNE LEANDRO DOS SANTOS         TO340085214       20130307210010000002317640188B190835BB62CC0CE64FCCE460000000006000000000006000000000000000000000000000000000000000N1303000000237                 208D7BFF79AFF68EFE41B52F4842C3D1
00097414816168ISENTO        GIRLEY ROCHA DOS SANTOS GONÁALVES  TO340085217       2013030721001000000232789837E5A26A204C81493ACB36C69B0F000000002903000000002903000000000000000000000000000000000000N1303000000238                 5295758E45C27020D54AB7BA244F111F
00002871097127ISENTO        TAYLA BARROS QUEIROZ               TO340085226       201303072100100000023360B9733CD2286AB66286E934D9CD83E5000000006000000000006000000000000000000000000000000000000000N1303000000239                 37A29CAC62E806F0D113F1FDB8B1F706
00089404106100ISENTO        NEYHOLAM PEREIRA DA COSTA          TO340085230       2013030721001000000234E517A7D1D5BADFE1EE2E0199AD1408EF000000006000000000006000000000000000000000000000000000000000N1303000000240                 A1F65E5A1CF0B2FC061DCF86DEAAC0FD
00060023414120ISENTO        AGAMENOM BRITO GUSM„O              TO340085158       20130307210010000002352D6B85A4720FAE50156CA10F2166E492000000006000000000006000000000000000000000000000000000000000N1303000000241                 457D5DEDAE8E661FCFD79EB203B19673
00037137816134ISENTO        GOIANY DORNELES DE MELO MARCIEL    TO340085231       2013030721001000000236B58617F90A25EB86B8DC54AEF53CB1B1000000006000000000006000000000000000000000000000000000000000N1303000000242                 527946E51C3175DF9E284561A1B3EDE0
00063428717104ISENTO        ISABEL JOSE DAS CHAGAS FRANCA      TO340085233       20130307210010000002377BD428794B7923DFC6211F8249758AE2000000006000000000006000000000000000000000000000000000000000N1303000000243                 C8564C0C0A21BC3DA900F70E90B544CB
00085966096104ISENTO        CLEUSA SOARES DO CARMO             TO340085052       2013030721001000000238715D9B6F3EBEF712F3AA72F7AC95D139000000006000000000006000000000000000000000000000000000000000N1303000000244                 B1294F873BA0A31AB9669D3F08944F81
00004535274185ISENTO        JOANILSON PEREIRA DA SILVA         TO340085068       20130307210010000002399009B6EED924C22CC584A6F255E07B0B000000006000000000006000000000000000000000000000000000000000N1303000000245                 E23A977B3399F9982B07F671AED4890A
00001371025185ISENTO        WALQUIRIA PEREIRA DOS SANTOS ALVES TO340085232       2013030721001000000240710146E6B7F5C360B5773450E7CEDD6C000000006000000000006000000000000000000000000000000000000000N1303000000246                 1792E5E446F2706E61854E2B3A8AC65C
0000423499696371464954SESP/PIVAN ELITON LOURENÁO               TO340085241       2013030721001000000241EF0C8F40CC22DF70CE5164342AA08686000000006000000000006000000000000000000000000000000000000000N1303000000247                 A5974C1473248AA938C8EC45CF70B817
0006130319410495419         MARIA DE NAZARÈ VANDERLEI AMORIM VETO340085228       2013030721001000000242E3539ECF966E11016D29FED42B91B899000000006000000000006000000000000000000000000000000000000000N1303000000248                 3FFD726B0BA28E267CBDC16F7E2C061A
00000760220212ISENTO        DIEGO DA COSTA BRITO               TO340085243       2013030721001000000243AFDCDA6D3D3D67CC51CFEF075569988B000000006000000000006000000000000000000000000000000000000000N1303000000249                 3D7E4A30991A2604969C13B1BF826ADC
00002983046605ISENTO        MARCUS HENRIQUE TEIXEIRA           TO340085236       2013030721001000000244E7B5C0BE82A16D2B429BF839F8098901000000006000000000006000000000000000000000000000000000000000N1303000000250                 E9CC438F51C65E73F2CE63484186408E
00002949723152835111SSP=TO  KELLY MAYANNY IN·CIO SILVA         TO340085245       20130307210010000002450AE07C87AC15A5B5731289E903A5EA2E000000006000000000006000000000000000000000000000000000000000N1303000000251                 C751D71804125EB7D14C69E7F2A27EC4
00001716249120ISENTO        HAYNARA ALVES CERQUEIRA            TO340085248       20130307210010000002467A2B642474A0642D0174FE7B3E867016000000006000000000006000000000000000000000000000000000000000N1303000000252                 0ACB778C1B23B60C48AB07E02A09DC5A
00073255920191ISENTO        ALESSANDRA APARECIDA OLIVEIRA      TO340085247       20130307210010000002477DD78BD72FCDBCA64C24B4066D244770000000006000000000006000000000000000000000000000000000000000N1303000000253                 1863A9E68877EF3718A808B4CF98AF92
00059108614172ISENTO        VILMAR MESSIAS DE OLIVEIRA         TO340085254       2013030721001000000248D908D9C4CB2C65A9725DF64584E75313000000006000000000006000000000000000000000000000000000000000N1303000000254                 43E4C99B49880C059E036CB06188E216
00003752219130ISENTO        PAULO HENRIQUE ALVES DA SILVA      TO340085246       201303072100100000024911C32EB96F4838E29CA65500D58523A3000000006000000000006000000000000000000000000000000000000000N1303000000255                 66B17D0304BCB259BFC50192850EF5C1
00003331643181ISENTO        DANYELLE APARECIDA AMORIM          TO340084948       20130307210010000002503C996345472307BCE371948E0F2067DD000000006000000000006000000000000000000000000000000000000000N1303000000256                 493CD5CC66012AD63FD8056E3A71FC8C
000003253020069087852324    JOSÈ DALPUPO                       TO340084996       2013030721001000000251D8416013A8FD755A41A1124219221719000000006000000000006000000000000000000000000000000000000000N1303000000257                 5B1453723E655472A333248434F54B07
00001767829159ISENTO        LORENA GAMA TEIXEIRA               TO340085271       2013030721001000000252C2544D12C390AC771505568B6208FFB8000000006000000000006000000000000000000000000000000000000000N1303000000258                 6DDA6600E7125A63AB0D75FCBE327A9E
00080437834115ISENTO        CLAUDONEI DAS NEVES ROSA           TO340085039       20130307210010000002530BB46F47DCE30559860BB140DA90851F000000006000000000006000000000000000000000000000000000000000N1303000000259                 00E57C3F6875FF2537EAA89C446B657D
00089377850134357125        FLORENY RODRIGUES DOS SANTOS       TO340085279       20130307210010000002543BC3B22714334C095BFFB88751586E57000000006000000000006000000000000000000000000000000000000000N1303000000260                 A8556CBE3DF2141745D0A720C9013F67
000451564411492511631SSPGO  ANADIR GOMES DO NASCIMENTO FERREIRATO340084822       2013030721001000000255C10F25FEED4B272DA8827F377689A531000000006000000000006000000000000000000000000000000000000000N1303000000261                 9EF9A8D8DA4CFB29BF63EE78856B1BBC
00005280271152ISENTO        BRUNA RODRIGUES DE SOUZA           TO340085150       201303072100100000025660FE9754E1CBE50572DAFFFF70156FF5000000006000000000006000000000000000000000000000000000000000N1303000000262                 94F010572D6E32F5531A891EEC32A911
00083307796100ISENTO        DALILIA PEREIRA MARQUES            TO340085287       2013030721001000000257AD0A28AB24F8F7D50DAF9D8D5D000413000000006000000000006000000000000000000000000000000000000000N1303000000263                 2D97D2BE9FA9C3EE5E87619C0F87F611
0006444451116863371SSPTO    ADRIANA DA COSTA PEREIRA AGUIAR    TO340084870       2013030721001000000258710A753DBD74EAF626F54EA99623E7D7000000006000000000006000000000000000000000000000000000000000N1303000000264                 3AAE4FC4E461E5F43E9B7DC8A4CC86C1
00000287694143ISENTO        POLIANA CIRQUEIRA LOPES            TO340085273       2013030721001000000259FEC6121D7C309243C9239E9B44CDC2B4000000006000000000006000000000000000000000000000000000000000N1303000000265                 9B083BDC96A67AC5F40C1362F7849A97
00033903719668ISENTO        FRANCISCO BRAZ CAVALCANTE          TO340085291       2013030721001000000260F6C6F40339093D9B9884FF38EE4BC698000000006000000000006000000000000000000000000000000000000000N1303000000266                 91E956FA91F04A69C6AD979E79E0B512
00002049846100ISENTO        ROBERTO CARLOS AUGUSTO             TO340085188       20130307210010000002613414FBC241161326F66F9C50CCB77DE9000000006000000000006000000000000000000000000000000000000000N1303000000267                 7600EE2E05670197541B5153153B5C05
00084733802749ISENTO        JOSE ERISVALDO BARROS              TO340085293       201303072100100000026221A48E0656CF29E6FF9218D17952606C000000006000000000006000000000000000000000000000000000000000N1303000000268                 F5837A231AEE35E45468775EF882B234
00004582418490ISENTO        AURENIVIA BONIFACIO LIMA           TO340085299       2013030721001000000263A599A6F05EDD7135826EBDD136E620EE000000006000000000006000000000000000000000000000000000000000N1303000000269                 FF408F737FB74B82AA7174BB6FA8FE3B
00003395809170ISENTO        RODRIGO PEREIRA DA SILVA           TO340085300       2013030721001000000264FDCF7BB7F4AED6C7058267874947A7D1000000006000000000006000000000000000000000000000000000000000N1303000000270                 DB766CEE0AFAF99EDA6EEEF12C2AA052
00098316125153ISENTO        RODRIGO AZEVEDO FIGUEIRA DE LIMA   TO340085301       20130307210010000002652EB82FAF1DE09197F5A94853D1EB7201000000006000000000006000000000000000000000000000000000000000N1303000000271                 578C0EF099E344B58DC0D76661CBE66E
00079815901168ISENTO        CLEIDE ALVES PEREIRA DE MELO       TO340085122       201303072100100000026641A043E7973F1B63C487688A62B6A43B000000006000000000006000000000000000000000000000000000000000N1303000000272                 689B1D868ADA6989912E05D67EC04FC5
00049927213115134687SSPTO   SIMONE ROSA DA SILVA LIMA          TO340084952       2013030721001000000267FD5BCEAA539AF7DDDF30E2BF5C0DC35F000000006000000000006000000000000000000000000000000000000000N1303000000273                 ACC723DE816253F042DCE9575B2B0FEC
00082585547191248541SSPTO   SIMONEIDES RIBEIRO DOS SANTOS      TO340084894       2013030721001000000268315ADD0B09540F794151F86FB247569B000000006000000000006000000000000000000000000000000000000000N1303000000274                 F2E2D5A9EF116F714324ED5749653546
000643998001783229239SSPTO  WELLINGTON CASTILHO DE ALMEIDA     TO340085304       201303072100100000026926BAE67755F0134F71EEC02B3A9F1DD3000000006000000000006000000000000000000000000000000000000000N1303000000275                 65C47CC1B01B91D6531C812E8D69C489
00089083822168432428SSPTO   EDILENE OLIVEIRA DA  SILVA         TO340085306       201303072100100000027083A0355C0E0C1718678F84A3F63A53C2000000006000000000006000000000000000000000000000000000000000N1303000000276                 41740DA8215CE5D08E6FFCB5073007C5
000041011191041121137       LUIDI FERREIRA BRUNO               TO340085308       20130307210010000002713B430682B73ACCF8CA4B449A2D65992C000000006000000000006000000000000000000000000000000000000000N1303000000277                 15AE5E9283EBC3EF7277CBC418AF0DA1
000243610461151045174       JANIO FERREIRA PINTO               TO340084781       2013030721001000000272B5EB12FA5361CD181CB5D18FFB5439A6000000006000000000006000000000000000000000000000000000000000N1303000000278                 88BD9E94FA8A8FE335CB297743B90D78
00070699488168338792SSPTO   SILMAR DE PAULA                    TO340085309       2013030721001000000273910C19814F54F374F9286C459D16410D000000006000000000006000000000000000000000000000000000000000N1303000000279                 CC44DE6F8CA3C0EB9E1D92E96BFCDF45
00079543839115247292SSPTO   SAMUEL MUNIZ DE AMORIM             TO340085307       201303072100100000027432A84F7923F849C424A686144801E8F5000000006000000000006000000000000000000000000000000000000000N1303000000280                 BB15E60D85F8B145265769504AFE0FB9
00005075914101ISENTO        WEVERTON DIAS SANTOS               TO340085175       201303072100100000027502055A319FCF5AFE19923415A8A31558000000006000000000006000000000000000000000000000000000000000N1303000000281                 9A8A6EBD5B482275CB9A7F6CD1FEF65D
000985939941724133032       CARLA FERNANDA QUARESMA MOTA       TO340085313       20130307210010000002762FD69251629FEB0DBF3A7805B208F29E000000006000000000006000000000000000000000000000000000000000N1303000000282                 5CBB04FB254A0F739831CE0F9258A54A
00041959540106759698        MARIA DA CONCEIÁ„O FORTES          TO340085314       2013030721001000000277AA70B9CAA62CF8B1A2550F86388388E0000000006000000000006000000000000000000000000000000000000000N1303000000283                 0477D471F7D5AC4F0F46920590494314
00002295069173ISENTO        MAYRA GARCIA DE SOUZA              TO340084814       2013030721001000000278ECB3582624C1B05E88EC9719DB13BEF7000000006000000000006000000000000000000000000000000000000000N1303000000284                 4342901149680215EF31FCEDE501C074
000007784441631017585       DALINE ABREU DE SOUZA              TO340084778       20130307210010000002795B755930A5267A4A851CAA9EB5DBB10D000000006000000000006000000000000000000000000000000000000000N1303000000285                 4B2A5A6E2A9BE2E0971A1DEF9EB9DC1C
00002621319190344268        MICHELLIANE SOUZA DA CONCEIÁ„O     TO340085320       20130307210010000002803B183B540BE5BC7D4F4B22C2D6DCBA52000000006000000000006000000000000000000000000000000000000000N1303000000286                 862EC715A5BFE096365781EA8D9713C5
00077952286153162073        WILMAN CIRQUEIRA ALENCAR LOPES     TO340085318       201303072100100000028129E357CD417500F02B05501792DCFACD000000006000000000006000000000000000000000000000000000000000N1303000000287                 8812C2FE658DE5E5E5C369C916768209
00073278394100829792SSPTO   JO„O EUDES DUARTE NEVES            TO340084899       2013030721001000000282B7EB93CF3D7A60E5DBE86A7F41C7FBB8000000006000000000006000000000000000000000000000000000000000N1303000000288                 774146A8BECA3F906D12B919DBB630C6
00076816010159161991        IVAN JORGE SANTOS DAMASO           TO340085324       201303072100100000028347B77E41B6605041F70BBBB93FAE7F2E000000006000000000006000000000000000000000000000000000000000N1303000000289                 37895C9D8430975C3675EE01599B3005
00061267350130265638        ROSANE RIBEIRO DE ASSIS            TO340085035       201303072100100000028436B63421050D3A2F4959AC0ED2B5C4B9000000006000000000006000000000000000000000000000000000000000N1303000000290                 860330E15005E5B2DE019B0FF60873F1
00034982256187ISENTO        FRANCISCO NALVIN MARTINS SILVA     TO340085325       201303072100100000028559A459E5B6598FAEBE3F80A10F6268FA000000006000000000006000000000000000000000000000000000000000N1303000000291                 35D8A1E4DE9304511600E51A99A93A44
00076084370144182518        MAGDAL GOMES DE SOUZA              TO340085326       2013030721001000000286B81D6D06C8C1C555B65EB7FD92A99A89000000006000000000006000000000000000000000000000000000000000N1303000000292                 8137AA0B4EEB9FED8DA13D2BB1493FB5
00002921694182991428        NATALIA FERREIRA NEVES             TO340085328       2013030721001000000287BE25DEEC8501E24405B2375A3B69A6CF000000006000000000006000000000000000000000000000000000000000N1303000000293                 2909FA7C343F0636C4C7504C5D86B42C
00037094157134860305        SEBASTIANA ALVES DAS NEVES         TO340085329       201303072100100000028801D1931AA1F6946F05E1AB109FA5AB3E000000006000000000006000000000000000000000000000000000000000N1303000000294                 F5D34308CB888C247EE45E637730B6D2
00002594426156968625        CRISTIANE MARTINS DOS SANTOS       TO340085303       2013030721001000000289CF59C55AE86C25F02839C81FC8E0D12B000000006000000000006000000000000000000000000000000000000000N1303000000295                 74DCE508059B440F7F078AE15252450C
000805753153340625392SSPMA  NELSON CASTRO ALVES FILHO          TO340085330       20130307210010000002904C7391E6F24DC7305D2C9C55C169BC01000000006000000000006000000000000000000000000000000000000000N1303000000296                 790D49BD0DB43CBD7251162318065143
00081987242149ISENTO        MILLENE CARVALHO COSTA SILVA       TO340085296       2013030721001000000291A2B14B18844D4CFEA5194A76E7DF41BE000000006000000000006000000000000000000000000000000000000000N1303000000297                 A13E1A37C8E9577D1D95CBD96CE63780
00035919973153631573        MARIA RITA BORGES PEREIRA          TO340084806       2013030721001000000292C59615E04B6C8D7B0C17914E7F2640F4000000006000000000006000000000000000000000000000000000000000N1303000000298                 DB58659796973123E6E2CDDD60F85468
00000924140100ISENTO        RICARDO RESPLANDES DA SILVA        TO340085264       2013030721001000000293DA0AF797BCB104F984E7DDFCF91BA3D4000000006000000000006000000000000000000000000000000000000000N1303000000299                 F25749EA21D345CE80CAC40111017EE8
00053477146115003072        MONICA REGINA RORDRIGUES GOMES     TO340085342       2013030721001000000294F2D784C2039E9D285709F6B6D60BE7A7000000006000000000006000000000000000000000000000000000000000N1303000000300                 8CE92B1CB9373CD9A032DF6A0F9CB7D7
00002887351109344227        SANDRO ROCHA DA SILVA              TO340085343       20130307210010000002954BE168B6699C8395B3DB9AE0CCA62E4B000000006000000000006000000000000000000000000000000000000000N1303000000301                 BDA92AB4ED0934674DDABB9B13BB6C81
00042374510204ISENTO        EDINALVA LINO ALVES                TO340078630       2013030721001000000296D1FDA1E827AD37DAE7222A4453A8CB5C000000006000000000006000000000000000000000000000000000000000N1303000000302                 39381BD5EC38B136A518BF4A2D1D5640
000332948016533073905       RENATA NOENI VON GLEHN NOBRE       TO340085346       201303072100100000029782B8E63C812C26B8D211D9A98C5F3F82000000006000000000006000000000000000000000000000000000000000N1303000000303                 053A141F277DC25570F75D825387F9E9
000471679473340363511520022 ELENIL BARROS CORREIA DE AGUIAR    TO340085350       20130307210010000002983A4A70A10B8251A10030FFCF908895AD000000006000000000006000000000000000000000000000000000000000N1303000000304                 BCEC4C92084EA1910397C354CBAAFC0E
00015938999120135074        MARIA DALVA BARBOSA DE LENES       TO340085352       20130307210010000002992702772C0C135303F79178FD56B32986000000006000000000006000000000000000000000000000000000000000N1303000000305                 FB4F05F1FE7393C90DD2C6E759615E59
00070586454187ISENTO        ROSILENE CORDEIRO DOS ANJOS        TO340085351       201303072100100000030037C4AB757600B6D88D36AD342A380E79000000006000000000006000000000000000000000000000000000000000N1303000000306                 545E01827B4ADD66C6352A03CE18A0CC
00037536966172ISENTO        NIRCE FERNANDES DA COSTA           TO340085016       20130307210010000003017183549DCA13C543BCDF876EB0398D91000000006000000000006000000000000000000000000000000000000000N1303000000307                 2B913BD2936B2A9CDE4B81DDE0C37526
0005770187310429790         ANDREIA PINTO PREVEDELLO DE FIGUERETO340085357       201303072100100000030272CE68B7CB4F02802A15820FFDD324E6000000006000000000006000000000000000000000000000000000000000N1303000000308                 3B6377F1354CEFB12304D162D78E9439
00000759506183ISENTO        GRACILENE QUADROS CASTRO           TO340085353       20130307210010000003030E934322B7D987C73C13285E0B29ACD3000000006000000000006000000000000000000000000000000000000000N1303000000309                 455145CB4041897B55B400B103013268
00061780472153272921        PAULO LOPES DE SOUSA               TO340085347       20130307210010000003043E3B692D9775BBB5AEFDE326A3503CE5000000006000000000006000000000000000000000000000000000000000N1303000000310                 A6089ACC2ED1657CE779036450FA5EEB
00083761578172ISENTO        WELTON PEREIRA SOARES              TO340084922       20130307210010000003051E2532B33D106FECA3068C5CB45C5345000000006000000000006000000000000000000000000000000000000000N1303000000311                 CA02C2C5EE3E3FB72ED85D4D41885663
000035444421241065083       SANDRA MARIA MACHADO DA SILVA      TO340085364       2013030721001000000306259BA1744BD7883E807A5CF897891741000000006000000000006000000000000000000000000000000000000000N1303000000312                 85BC00B4929C300DC61C58C6D29FD3D5
00010057943168ISENTO        LUIZ PIMENTEL DE MORAIS            TO340085362       2013030721001000000307674669AAC06EB40E1CF36FF4AD0A6BBE000000006000000000006000000000000000000000000000000000000000N1303000000313                 DC4845B174D22BC42D8993052A14C363
00002557496197725317SSPTO   REGES DE SOUZA SOARES              TO340084817       2013030721001000000308D287D5722A11EA1280C68B7648BE3BF0000000006000000000006000000000000000000000000000000000000000N1303000000314                 E2538B30EFA4FE725B8AD0211215D668
00013567870106763968        MARIA CLEONICE PEREIRA LIMA ALVES  TO340084805       201303072100100000030983FFDA189A136DD5E427A3B6FD3E1927000000006000000000006000000000000000000000000000000000000000N1303000000315                 CC5D864A00EB7749C6D63765F0B5B0D1
00097514977104ISENTO        CLAYTON DE SOUZA DANTAS            TO340085367       20130307210010000003107C9B489EF3E95289EF7344975A8B32ED000000006000000000006000000000000000000000000000000000000000N1303000000316                 E8E83109DDD07AD9D83D24F83CBECC33
00081305702115ISENTO        LONGUIMAR DIAS DE SOUSA            TO340085191       20130307210010000003110F2FBF80FD65EBE811ADEDE05A175ECA000000006000000000006000000000000000000000000000000000000000N1303000000317                 868D955EF2FB5B36E7225C08007420AD
00087640708168ISENTO        CICELIO VIANA DE OLIVEIRA          TO340085135       2013030721001000000312D3794804DBEC615E54941628AE5A17E6000000006000000000006000000000000000000000000000000000000000N1303000000318                 C0FF41ABE8C6806433A63245D9968F9E
00086004034134ISENTO        JOSE WILLAMY AGUIAR  MIRANDA       TO340085369       20130307210010000003130B0F6816477124710A3C1FC54A0C4B6E000000006000000000006000000000000000000000000000000000000000N1303000000319                 4FF0866A79F41C30754493DA92A766F8
00094957045100401458SSPTO   JANAINA ALVES DA SILVA             TO340084904       2013030721001000000314E7203D73792AF2171D359A75A4DFC009000000006000000000006000000000000000000000000000000000000000N1303000000320                 CBFC6C3DFF0F21441643A60F09DB0DDF
00002604313111918582        NAYARA DE FREITAS LOPES            TO340085374       2013030721001000000315EE965C952952C6D2972768C0000E8D81000000006000000000006000000000000000000000000000000000000000N1303000000321                 3CCE2AC3200F709A02CFA753B40EBC44
00000376006137748086        LUZIMAR GALV„O DA SILVA            TO340085375       20130307210010000003169426D9A31E662F037FE503D7E3DF0EC1000000006000000000006000000000000000000000000000000000000000N1303000000322                 8AE2F7056A5309128B44DD51A9415FA5
0008259772310030139         FRANCISCO GILVAN BARBOSA DA SILVA  TO340085377       2013030721001000000317400C01CEC63372AABD568DE093C2763F000000006000000000006000000000000000000000000000000000000000N1303000000323                 68F1C8AD65B417342F9B8843DC6ACA98
00071950966100ISENTO        MARCELO ANTONIO RIBEIRO            TO340084783       20130307210010000003185C84BAED546CC180A68F41BE74C4917D000000006000000000006000000000000000000000000000000000000000N1303000000324                 87CD420EE52900A15125EA7D6543132D
00032555210091ISENTO        GILBERTO CARLOS PAGLIARINI         TO340084917       201303072100100000031902D50854AB5B500F77B29FB6D4C06FC4000000006000000000006000000000000000000000000000000000000000N1303000000325                 2F2B842771A97F96007695AB1FCBE44D
000043421331481105198       MICAEL MOREIRA SANTOS              TO340085380       20130307210010000003202C85615305515483A3CF5EF9D33E5116000000006000000000006000000000000000000000000000000000000000N1303000000326                 B43D5E1BD2C0E2F6378FEDFC96755878
00005130495845ISENTO        LUIZ CARLOS PINHEIRO SANTANA       TO340085381       20130307210010000003214C8BC21D2A3F9F35D70CD4B8385D5FB7000000006000000000006000000000000000000000000000000000000000N1303000000327                 9861A421137A2ECF339F37678C16C18E
00004027606116ISENTO        ANNE KAROLLINNE TEIXEIRA MONTEIRO  TO340085115       20130307210010000003229D8C9AF5CCBD1C482128A9E1186E6673000000006000000000006000000000000000000000000000000000000000N1303000000328                 DB503F1002E6BCAB0A596EBAED201172
00003462909100909482        THIAGO DE ABREU TAVARES            TO340084292       2013030721001000000323DE7FD3DF97FC1FC135D991C702C60A1B000000018000000000018000000000000000000000000000000000000000N1303000000329                 7CA90F002D5077D8B6DBD1289F1FB2FA
00026531062134770006        FILOMENA PEREIRA COSTA             TO340085386       2013030721001000000324923E83251EA14AB600DE110334381D9C000000006000000000006000000000000000000000000000000000000000N1303000000332                 5A0BD7B7EAA1B253566EDF72101D72F6
00085117242149ISENTO        NECI FERREIRA DA SILVA             TO340085506       20130307210010000003259D0815C35FD3A182497DE036303A46D3000000006000000000006000000000000000000000000000000000000000N1303000000333                 04A4E89923A8B6EDE13D3AEA7AEA4AAE
00037100912172ISENTO        MARIO CELIO MIRANDA DA SILVA       TO340085145       20130307210010000003260E60EA8FC2737572F6036D4F28B985BA000000006000000000006000000000000000000000000000000000000000N1303000000334                 01F681932B5BC1EAC3681CAADA9D1BCE
00004342132176ISENTO        THAYSA MILHOMEM DE FARIAS          TO340085532       20130307210010000003273E454D73F5D625A26F1D0C4E7A7B5579000000008700000000008700000000000000000000000000000000000000N1303000000335                 CC5AB82119A0D8704304258E6015C0CC
00085103560178ISENTO        DENILSON TAVARES DE SOUZA          TO340085253       2013030721001000000328B314D0AFD6A033367C46C96C6E882B49000000006000000000006000000000000000000000000000000000000000N1303000000337                 99CD67AD1AAF7AF447EEEAC8864EE5A6
00000716161109ISENTO        JUSCINEIA COUTINHO ALVES           TO340085510       20130307210010000003293C931D241A29953744DB9C547B13106A000000006000000000006000000000000000000000000000000000000000N1303000000338                 D3CC98AF83483C30F12C7AD8D2BFE173
00005741796150ISENTO        SAVIO SANTOS CARVALHO              TO340085284       2013030721001000000330D8B8391E5A2B3A18F091A7065AB5D761000000006000000000006000000000000000000000000000000000000000N1303000000339                 4E0E8F2865A46BA857601FC2B6080DD2
000319727211001563179       ANTÙNIO NETO PEREIRA CAVALCANTE    TO340084788       201303072100100000033134742A190B7684D1FF9FD3CDD1635A0F000000006000000000006000000000000000000000000000000000000000N1303000000340                 127819B7606450E5C2B0B24193B29672
00001281588164ISENTO        LENILSON SILVA BRAGA               TO340085514       2013030721001000000332B6E49B8D2212CB9B9D07C00733F70E9B000000006000000000006000000000000000000000000000000000000000N1303000000341                 18F2C9B50EEFB843291DAB77AE750956
00049167618120ISENTO        ROSIDALIA RIBEIRO COELHO           TO340085255       20130307210010000003334BBFA19C986420F5FE0737B5A9B36A40000000006000000000006000000000000000000000000000000000000000N1303000000342                 3BC44547D4E4DDB205D459EBE0BBE7AF
00085402931100ISENTO        MARIA BATISTA DE MOURA MARQUES     TO340085010       2013030721001000000334B05784C325E54AFD536A752B70805C21000000006000000000006000000000000000000000000000000000000000N1303000000343                 FF3743F10B608DA1CDFC910CC994FC2E
00084970154104ISENTO        MARA BEATRIZ FIEBIG                TO340085518       20130307210010000003356509EA45A05A578DA93DA704A86C4390000000006000000000006000000000000000000000000000000000000000N1303000000344                 5C70FB7417A4E796B06126BC0AE42A9F
38131165000175290489393     PALMEIRAS CONFECÁıES GURUPI LTDA - TO140079719       201303072100100000033682FE8E8501E35E06B02BF62830B70E65000000006000000000006000000000000000000000000000000000000000N1303000000345                 AFC3E3121DA82B2BB8EF88AE306026B9
00097014753134ISENTO        ALESSANDRA TEIXEIRA DE MOURA MILHOMTO340084953       20130307210010000003378CF6A5AA35538C078D577DA05AA07E66000000006000000000006000000000000000000000000000000000000000N1303000000346                 CBEC6FD59EA89DBAA895F770DF846772
00099281112191ISENTO        PEDRINA PEREIRA BORGES             TO340085051       201303072100100000033800B4EFCC9C6758DA6FF3DB64AF1E9D06000000006000000000006000000000000000000000000000000000000000N1303000000347                 7EF579593FC00CEFE59550F02BA6E5E4
0008258422219138075773      RICARDO DE ANDRADE                 TO340084966       20130307210010000003394FC99CAE29465CEECBD7CA07A01FA2EE000000006000000000006000000000000000000000000000000000000000N1303000000348                 70578DC5EA3E557EFE9455BF71D52EBC
00081561865168135325SSPTO   LUCYWALDO DO CARMO RABELO          TO340084854       20130307210010000003404194FFBE3F3941E468177395233237E0000000006000000000006000000000000000000000000000000000000000N1303000000349                 4810F2AE818EAD1124068C348F0D3FCE
0000060176920142001709SSPPA RODRIGO FALC„O MEDRADO             TO340084961       2013030721001000000341D46216D95BBB4C3BBCDA773261E37478000000006000000000006000000000000000000000000000000000000000N1303000000350                 EA647E9BC7B0C2A8DB99A38FA11D3DFF
00006347451662ISENTO        JOAQUISLANO OLIVEIRA TEIXEIRA      TO340085521       20130307210010000003426BF54CDEF8619BE3F8C9C7C502E1D662000000006000000000006000000000000000000000000000000000000000N1303000000351                 78E679F5777015959CDA5DDA7A7CBA20
00080285228153112737SSP/TO  MARIA RAIMUNDA PEREIRA ALVES       TO340085522       2013030721001000000343573B6C8A068C49CFED5B4F498B963E5B000000006000000000006000000000000000000000000000000000000000N1303000000352                 40A0511B337BD35F893CBDA556303FF9
00047887915104030253        DMARIA SOARES DOS SANTOS SILVA     TO340085526       201303072100100000034465DDD85B1B890893BF4065E29B381050000000006000000000006000000000000000000000000000000000000000N1303000000353                 99E19B571B647D0068DC9A8F971B0B91
00001160364192ISENTO        DANIELLE ANTONIA DE ARAUJO         TO340085151       2013030721001000000345D6770ABB5C411DCF0E24F9C85CAE039A000000006000000000006000000000000000000000000000000000000000N1303000000354                 8760770577D93D8E8036EEE3B831BDF6
00002385426102919867        PAULO RICARDO DA SILVA BRITO       TO340085393       2013030721001000000346B042D88D13B82742A51CE87B37907453000000006000000000006000000000000000000000000000000000000000N1303000000355                 1B3CB27495BF4F4D32C0E0E02C0905EC
00043434290087ISENTO        ELISABETE RANZI                    TO340084794       201303072100100000034767A4E152CE8435B68EA1FA6C24D5CE0A000000006000000000006000000000000000000000000000000000000000N1303000000356                 F91E2C7ED4F701328D2099861301164B
00086767011134ISENTO        IRINEU JOSÈ DA COSTA               TO340085397       20130307210010000003484AB6B282A5DD145A934CE491643AD400000000006000000000006000000000000000000000000000000000000000N1303000000357                 B404E6DDF4C0F2B4410D3D5203A5DF09
00002564156177ISENTO        MAURICIO PEREIRA MENDES            TO340085398       2013030721001000000349BC929EEB49AB1064302355D713B7F08E000000006000000000006000000000000000000000000000000000000000N1303000000358                 46908F6A26E5AB3FF9A5F14C6C7AEAEE
0000603668895494423198      MARCOS RAFAEL PEDRO BOM            TO340085399       20130307210010000003503FB6F12804DA10453F733D81B06BE556000000006000000000006000000000000000000000000000000000000000N1303000000359                 0C47B44AD7DD1E5F7A82D8E643A8E4D1
00005238496648ISENTO        MAISA BRUNA DE MORAIS TEIXEIRA     TO340085401       2013030721001000000351A8F8BC9462D7C428D8470FA2376CED99000000006000000000006000000000000000000000000000000000000000N1303000000360                 D3ED3D16C999230AB9581767BAA8504A
00029790719191ISENTO        STELA PEREIRA FIGUEIRA             TO340085005       201303072100100000035201B26C56DB25C8700B7B6DD3521A8833000000006000000000006000000000000000000000000000000000000000N1303000000361                 2C52947FA20BF2AAADCD68416107BC91
00073559938104ISENTO        ISABELLA WARDA ASSENCIO REIS       TO340085120       20130307210010000003533BE6F6D5696CD32A03F43B4914835590000000004000000000004000000000000000000000000000000000000000N1303000000362                 937B1E58042C0C12B19A6726C692C1B8
00057442576249ISENTO        KATIA CRISTINA AMADOR DA COSTA     TO340085126       201303072100100000035482468B76A21932D7C8DF3D7939FD0502000000004000000000004000000000000000000000000000000000000000N1303000000363                 6C3EDBCCD1F66FD51931FBD54E74DB88
00093320116134ISENTO        HERNANDE FERNANDES DA COSTA        TO340085127       201303072100100000035564F6F11D55A511F6950BC2788B446BB8000000004000000000004000000000000000000000000000000000000000N1303000000364                 F3F73CFABAB6D403BFC6EFCFA04253E4
00043390790144ISENTO        PAULO CESAR FERREIRA MOTA          TO340085133       20130307210010000003563E26BA030532D1AEEA902DDAD00A7A68000000004000000000004000000000000000000000000000000000000000N1303000000365                 04AC01B500BA07C048AC4A2AE7554E70
00002879932130ISENTO        MARCO VINICIUS MOREIRA ALVES       TO340085100       20130307210010000003576C890A4F4BBA7308AD32C132DA194420000000004000000000004000000000000000000000000000000000000000N1303000000366                 BFBE3BF2409550DBDA5235F31FEDF9CD
00049169238120ISENTO        WPRESLEY JORGE DE SOUSA            TO340084945       2013030721001000000358F6692416596A9602E9E6493E2F54E19A000000004000000000004000000000000000000000000000000000000000N1303000000367                 552D187D05603379BA6EA8EA85AC809A
00088142728168ISENTO        RAQUEL DA SILVA FONSECA            TO340084997       2013030721001000000359847ECB0FFB9AF4A4DFDF669E0A1CD95E000000004000000000004000000000000000000000000000000000000000N1303000000368                 F6B2F8EB1B79F55F25F1D6EBDFB9797B
00097775150149ISENTO        ZENNIA MARIA SANTOS FERNANDES      TO340085015       2013030721001000000360FAABA72FA76ECD8B77F50ACDDC0E82AF000000004000000000004000000000000000000000000000000000000000N1303000000369                 D1BD04E9B0063310C5250EBB337B73C5
0006188292514932071SSPTO    ARACI DA COSTA ANDRADE             TO340084896       2013030721001000000361C7E50EFDD6CDCDA09BB2B5F2CC622DE4000000004000000000004000000000000000000000000000000000000000N1303000000370                 1E52BFF4B6479CF6A4D4AC190487FFF9
00062603779168ISENTO        DORIZAN RODRIGUES FALC„O           TO340085138       2013030721001000000362F4CD24AF094C2065A3BD7C57C5A988E4000000004000000000004000000000000000000000000000000000000000N1303000000371                 D188384248F92A51C048F169A99A2CF8
00061780200153ISENTO        MARIOZAN RODRIGUES FALC„O          TO340084954       20130307210010000003638E01F0DDFD762FD4E27B0A000A51260B000000004000000000004000000000000000000000000000000000000000N1303000000372                 C5866D9B5E360AF1109EC69BA97745BE
00000698507126725845SSPTO   VALDILENE COUTINHO MIRANDA         TO340084973       2013030721001000000364B8952198874CC1C6DA948A624130546F000000004000000000004000000000000000000000000000000000000000N1303000000373                 1BCA021D0C441E0F2DF994C08E2A51D9
00042641560097ISENTO        ANALIA ROSANE  DOS SANTOS          TO340085048       2013030721001000000365FAECAFF8752A32B30D90588C1628D29E000000004000000000004000000000000000000000000000000000000000N1303000000374                 137EE3A1699C9467AEBD28F55DAD10A4
00045451060134ISENTO        PAULO DE OLIVEIRA MAGALH„ES        TO340085163       2013030721001000000366DBB920815369F196D9212850D09AA85A000000004000000000004000000000000000000000000000000000000000N1303000000375                 3667AA70D35DB9705D23760ED9D47FA8
00045712352168ISENTO        MARINA ALVES DE OLIVEIRA           TO340085168       2013030721001000000367A4DD9BA2B410520340D825E38FC5AF9A000000004000000000004000000000000000000000000000000000000000N1303000000376                 552F04448D54A6BCE9000E6070FD891C
00072775238149ISENTO        ULISSES AUGUSTUS ASSIS PEREIRA     TO340085073       201303072100100000036871D0CF793420BE1B22967E5EF22B8B1C000000004000000000004000000000000000000000000000000000000000N1303000000377                 837FA3DBEACAD6ECEDFE479929919304
00074471848615ISENTO        ROGERIO ROCHA DE OLIVEIRA          TO340084883       20130307210010000003690009B2DDF951E8D4174F6C611B6DC886000000004000000000004000000000000000000000000000000000000000N1303000000378                 FDF64A5F2CB4781532C737EF26237FF8
00055601480168ISENTO        ROMAN ALVES MONTEIRO               TO340084826       2013030721001000000370C2B8714853BED2F6DA89C1D90031B12F000000004000000000004000000000000000000000000000000000000000N1303000000379                 455378A797861D9556424B904B27A6C1
00086885936120ISENTO        LENILDA DE SOUZA BARROS            TO340084919       201303072100100000037188A60A257DAB1B5CC9E717C46E68B901000000004000000000004000000000000000000000000000000000000000N1303000000380                 A362409E71FA99A02FFEFBF6BC730DCB
00073546437187ISENTO        OLGA ARAUJO CAVALCANTE             TO340085208       20130307210010000003725671EA6C4A8A9229D4365A8618D1C71F000000004000000000004000000000000000000000000000000000000000N1303000000381                 F634758B36A28E3A3DDA61DB2BEC67CE
00065215885320ISENTO        RAIMUNDA RIBEIRO BRITTO            TO340085205       2013030721001000000373E19C6CFDBDD46FE4C47F5610B97B21DD000000004000000000004000000000000000000000000000000000000000N1303000000382                 3F6810B3D164C59B4C096FF9D62F5E93
00053473825115ISENTO        DEUCIMAR BEQUIMAM CARNEIRO         TO340085209       2013030721001000000374D7CE8F597D5223E6252F2C9C41C22C4D000000004000000000004000000000000000000000000000000000000000N1303000000383                 993DBAA4CEA822542AC579DEC382440B
00080499953134ISENTO        MARIA DIVINA BENTO CORREIA         TO340084946       20130307210010000003750BBB1304D985536618045ADC2AD24DC2000000004000000000004000000000000000000000000000000000000000N1303000000384                 5817AC1E03DAFF2E44DF0B520487B282
00045710937134ISENTO        VALDIMILSON RODRIGUES DE SOUSA     TO340085221       20130307210010000003760B2A688FBCC8184B95056749B9D7C751000000004000000000004000000000000000000000000000000000000000N1303000000385                 257F31971875E5F68B1CA477FD6653B4
00002654074196952544SSP/TO  PATRICIA SOARES PEREIRA            TO340084421       20130307210010000003776DB86A6E2EBF01E864A3D119077F4AD1000000004000000000004000000000000000000000000000000000000000N1303000000386                 B30BEB4E5104E16075286CA48C7D1D06
00032357290382ISENTO        LEONIZAR DUARTE CABRAL             TO340084957       2013030721001000000378437A687EB0871723DD9625D3E885C2E0000000004000000000004000000000000000000000000000000000000000N1303000000387                 A5319235D75E92BDC7DDC4BB82177813
00000307268160ISENTO        LAUDELINA REIS MENDES FERNANDES    TO340084958       20130307210010000003790901923DE1D33FC22290423AD7E0394E000000004000000000004000000000000000000000000000000000000000N1303000000388                 0C1838007B208C8DBB6CC16969A77645
00084675748104ISENTO        MARIA IZABEL DE ANDRADE JUNIOR     TO340085229       20130307210010000003804D17E1FA17432BC9D8F1C8EB7335F10F000000004000000000004000000000000000000000000000000000000000N1303000000389                 744B9B51D541BD6EA32DDE37D52153A3
0005983556711529780SSPTO    LUIZ RAIMUNDO MOURA SARAIVA        TO340084882       2013030721001000000381139B24A1A6E085EDFCECD59BDDE6307A000000004000000000004000000000000000000000000000000000000000N1303000000390                 CC4F044FF57DE83745C39E864B8D39B1
000494008601101508335       ARSENI COSTA FARIAS SOARES         TO340084784       2013030721001000000382D55A36DC392B62FDECB22DC11119F110000000004000000000004000000000000000000000000000000000000000N1303000000391                 DBD08398814E2FE4925F2C7E7BCDCE7A
00092085113168ISENTO        ADIANA FERREIRA DA COSTA SILVA     TO340084889       2013030721001000000383119518CD701CBD484364E50A39240B14000000004000000000004000000000000000000000000000000000000000N1303000000392                 9C3FD5A6EC931C9B49EC611D3970B953
00057539898100ISENTO        NILSA MARIA ALVES                  TO340085250       2013030721001000000384923EB9557A016BAEB8263E19E0CBE00C000000004000000000004000000000000000000000000000000000000000N1303000000393                 52EA83C1B8C136F4CBE147F0AA260371
