00050845306715ISENTO        CARLOS LUIZ  SOEIRO PAULO          TO340066208       2012040321001000000001DD9F0C0E7AFFE616CB2C595286592868000000011000000000010000000000000000000000000000000000000000N1204000000001             982811C0E660D970FF859828C3E0BA0D
00373298000185ISENTO        DROGARIA NOVA OPÁ„O LTDA - ME      TO140066170       2012040221001000000002088479976E8B2892D4F392F16D80DF61000000004800000000004800000000000000000000000000000000000000N1204000000003             004F6D89E46ABE4AC8050AAA1DBEF224
00373298000185ISENTO        DROGARIA NOVA OPÁ„O LTDA - ME      TO140066171       20120402210010000000031697FDD0070EAEFBB0BBD4A47577F070000000004800000000004800000000000000000000000000000000000000N1204000000004             5C2D6E60B2772B825CDD5D5B3EDE4235
00373298000185ISENTO        DROGARIA NOVA OPÁ„O LTDA - ME      TO140066172       201204022100100000000416A64DA64DE591BD74C96373A4DB88BE000000004800000000004800000000000000000000000000000000000000N1204000000005             71A99E4D8F01D648B0026DFF68B5CE3F
00373298000185ISENTO        DROGARIA NOVA OPÁ„O LTDA - ME      TO140066173       20120402210010000000054D141817F9F965A61F0DC6D50187BB2B000000004800000000004800000000000000000000000000000000000000N1204000000006             359FB04039A901D5E518F11B234A88E9
00050845306715ISENTO        CARLOS LUIZ  SOEIRO PAULO          TO340066209       2012040321001000000006CA9316398808C10FEB964F2637C149B1000000011000000000010000000000000000000000000000000000000000N1204000000007             A10A1301B69911D0C2FC538B565104B0
00001735570150ISENTO        RONNIE CLEYTON ALVES MEDEIROS      TO340066249       2012041321001000000007BD6F1F6C320D8D7E65C6A4A90A8C22D5000000003840000000003840000000000000000000000000000000000000N1204000000008             D5E6F497C2A4494103AE024BB9E9C457
00001735570150ISENTO        RONNIE CLEYTON ALVES MEDEIROS      TO340066247       2012041321001000000008C94E7BC7E53AD331EB505BAF82E83CD6000000003840000000003840000000000000000000000000000000000000N1204000000009             6BFAB1C3DC04B884760BF8CBBDF94323
00001735570150ISENTO        RONNIE CLEYTON ALVES MEDEIROS      TO340066244       20120414210010000000098BBCCFC6FF0CC2FB5F9E896789A3746E000000004000000000004000000000000000000000000000000000000000N1204000000010             264A238B7D92C49F9EF0352DF2F58CAB
00001735570150ISENTO        RONNIE CLEYTON ALVES MEDEIROS      TO340066243       2012041421001000000010C1A0ED867434A82A13F162B0F2144A13000000003840000000003840000000000000000000000000000000000000N1204000000011             F6BBE88A865E20BC3A912727D4C23C82
