220000002RS00000004317905PROSERVER PROSERVER TELECOMUNICACOES LTDA         RUA TENENTE JUNG                        0000534                              9896000008411698000140116/0019042         (55)3541-1942               NS1                    CENTRO              0055000000000030                                                                                                             
220000002RS00000004322301BERNARDO ZBERNARDO ZALAMENA                       RUA HELMUTH GERLOFF                     0000454                              9894000048943550006                                                   NN2                    INTERIOR            0000000000000030                                                                                                             
220000002RS00000004317905ALTAIR ALFALTAIR ALFONSO KUNZLER                  LINHA ROLADOR BAIXO                     0000S/N                              9896000092352790972                                                   NN2                    INTERIOR            0000000000000030                                                                                                             
220000002RS00000004317905ADELAR SCHADELAR SCHAB                            LINHA TAQUARACU                         0000S/N                              9896000044162022020                                                   NN2                    INTERIOR            0000000000000030                                                                                                             
220000002RS00000004300307ALFREDO ALALFREDO ALBERTO KALL                    RUA SANTA CRUZ                          0000333                              9895000002566074003                                                   NN2                    CENTRO              0000000000000030                                                                                                             
220000002RS00000004310207CONDOMINIOCONDOMINIO EDIFICIO ESPLANADA CENTER    RUA 15 DE NOVEMBRO                      0000097                              9870000090164369000122                    (55)33334581                NN1                    CENTRO              0055000000000030                                                                                                             
220000002RS00000004317905CINEI TERECINEI TERESINHA RIFFEL                  RUA MARECHAL DEODORO                    0002175                              9896000064627845049                       3541 1899                   NN2                    CENTRO              3541000000000030                                                                                                             
