02RETORNO01COBRANCA       0130608411698000140                               748BANSICREDI     20120502        0000139                                                                                                                                                                                                                                                                                 1.00000001
1            C0000000000                       122250293                                                    06300412          030703                    0000000004490                                                              00000000000000000000000000000000000449000000000000000000000000000                          00        20120430                                                          000002
1            C0000000000                       122250293                                                    28300412          030703                    0000000000120                                                              00000000000000000000000000000000000449000000000000000000000000000                          B3        20120430                                                          000003
1            C0000000000                       122253713                                                    06300412          030715                    0000000004490                                                              00000000000000000000000000000000000449000000000000000000000000000                          00        20120430                                                          000004
1            C0000000000                       122253713                                                    28300412          030715                    0000000000120                                                              00000000000000000000000000000000000449000000000000000000000000000                          B3        20120430                                                          000005
1            C0000000000                       122243580                                                    06300412          030703                    0000000004490                                                              00000000000000000000000000000000000449000000000000000000000000000                          00        20120430                                                          000006
1            C0000000000                       122243580                                                    28300412          030703                    0000000000120                                                              00000000000000000000000000000000000449000000000000000000000000000                          B3        20120430                                                          000007
1            C0000000000                       122256038                                                    06300412          030703                    0000000004490                                                              00000000000000000000000000000000000449000000000000000000000000000                          00        20120430                                                          000008
1            C0000000000                       122256038                                                    28300412          030703                    0000000000120                                                              00000000000000000000000000000000000449000000000000000000000000000                          B3        20120430                                                          000009
1            C0000000000                       122267986                                                    06300412          030703                    0000000005990                                                              00000000000000000000000000000000000599000000000000000000000000000                          00        20120430                                                          000010
1            C0000000000                       122267986                                                    28300412          030703                    0000000000120                                                              00000000000000000000000000000000000599000000000000000000000000000                          B3        20120430                                                          000011
1            C0000000000                       122265100                                                    06300412          030703                    0000000004490                                                              00000000000000000000000000000000000449000000000000000000000000000                          00        20120430                                                          000012
1            C0000000000                       122265100                                                    28300412          030703                    0000000000120                                                              00000000000000000000000000000000000449000000000000000000000000000                          B3        20120430                                                          000013
1            C0000000000                       122272955                                                    06300412          030703                    0000000004490                                                              00000000000000000000000000000000000449000000000000000000000000000                          00        20120430                                                          000014
1            C0000000000                       122272955                                                    28300412          030703                    0000000000120                                                              00000000000000000000000000000000000449000000000000000000000000000                          B3        20120430                                                          000015
1            C0000000000                       122273021                                                    06300412          030703                    0000000008900                                                              00000000000000000000000000000000000890000000000000000000000000000                          00        20120430                                                          000016
1            C0000000000                       122273021                                                    28300412          030703                    0000000000120                                                              00000000000000000000000000000000000890000000000000000000000000000                          B3        20120430                                                          000017
1            C0000000000                       122258219                                                    06300412          030722                    0000000004490                                                              00000000000000000000000000000000000449000000000000000000000000000                          00        20120430                                                          000018
1            C0000000000                       122258219                                                    28300412          030722                    0000000000120                                                              00000000000000000000000000000000000449000000000000000000000000000                          B3        20120430                                                          000019
1            C0000000000                       122239915                                                    06300412          030722                    0000000004040                                                              00000000000000000000000000000000000404000000000000000000000000000                          00        20120430                                                          000020
1            C0000000000                       122239915                                                    28300412          030722                    0000000000120                                                              00000000000000000000000000000000000404000000000000000000000000000                          B3        20120430                                                          000021
1            C0000000000                       122259940                                                    06300412          030736                    0000000005990                                                              00000000000000000000000000000000000599000000000000000000000000000                          00        20120430                                                          000022
1            C0000000000                       122259940                                                    28300412          030736                    0000000000120                                                              00000000000000000000000000000000000599000000000000000000000000000                          B3        20120430                                                          000023
1            C0000000000                       122276420                                                    06300412          030703                    0000000004041                                                              00000000000000000000000000000000000404100000000000000000000000000                          00        20120430                                                          000024
1            C0000000000                       122276420                                                    28300412          030703                    0000000000120                                                              00000000000000000000000000000000000404100000000000000000000000000                          B3        20120430                                                          000025
1            C0000000000                       122255538                                                    06300412          030706                    0000000004490                                                              00000000000000000000000000000000000449000000000000000000000000000                          00        20120430                                                          000026
1            C0000000000                       122255538                                                    28300412          030706                    0000000000120                                                              00000000000000000000000000000000000449000000000000000000000000000                          B3        20120430                                                          000027
1            C0000000000                       122276039                                                    06300412          030702                    0000000003900                                                              00000000000000000000000000000000000390000000000000000000000000000                          00        20120430                                                          000028
1            C0000000000                       122276039                                                    28300412          030702                    0000000000120                                                              00000000000000000000000000000000000390000000000000000000000000000                          B3        20120430                                                          000029
1            C0000000000                       122253853                                                    06300412          030703                    0000000004490                                                              00000000000000000000000000000000000449000000000000000000000000000                          00        20120430                                                          000030
1            C0000000000                       122253853                                                    28300412          030703                    0000000000120                                                              00000000000000000000000000000000000449000000000000000000000000000                          B3        20120430                                                          000031
1            C0000000000                       122247756                                                    06300412          030704                    0000000004490                                                              00000000000000000000000000000000000449000000000000000000000000000                          00        20120430                                                          000032
1            C0000000000                       122247756                                                    28300412          030704                    0000000000120                                                              00000000000000000000000000000000000449000000000000000000000000000                          B3        20120430                                                          000033
1            C0000000000                       122219418                                                    06300412          030706                    0000000004490                                                              00000000000000000000000000000000000482000000000002400000000000090                          00        20120430                                                          000034
1            C0000000000                       122219418                                                    28300412          030706                    0000000000120                                                              00000000000000000000000000000000000482000000000002400000000000090                          B3        20120430                                                          000035
1            C0000000000                       122261368                                                    06300412          030738                    0000000004490                                                              00000000000000000000000000000000000449000000000000000000000000000                          00        20120430                                                          000036
1            C0000000000                       122261368                                                    28300412          030738                    0000000000120                                                              00000000000000000000000000000000000449000000000000000000000000000                          B3        20120430                                                          000037
1            C0000000000                       122269822                                                    06300412          030703                    0000000004490                                                              00000000000000000000000000000000000449000000000000000000000000000                          00        20120430                                                          000038
1            C0000000000                       122269822                                                    28300412          030703                    0000000000120                                                              00000000000000000000000000000000000449000000000000000000000000000                          B3        20120430                                                          000039
1            C0000000000                       122247152                                                    06300412          030703                    0000000004490                                                              00000000000000000000000000000000000449000000000000000000000000000                          00        20120430                                                          000040
1            C0000000000                       122247152                                                    28300412          030703                    0000000000120                                                              00000000000000000000000000000000000449000000000000000000000000000                          B3        20120430                                                          000041
1            C0000000000                       122241588                                                    06300412          030706                    0000000004490                                                              00000000000000000000000000000000000449000000000000000000000000000                          00        20120430                                                          000042
1            C0000000000                       122241588                                                    28300412          030706                    0000000000120                                                              00000000000000000000000000000000000449000000000000000000000000000                          B3        20120430                                                          000043
1            C0000000000                       122259576                                                    06300412          030736                    0000000004490                                                              00000000000000000000000000000000000449000000000000000000000000000                          00        20120430                                                          000044
1            C0000000000                       122259576                                                    28300412          030736                    0000000000120                                                              00000000000000000000000000000000000449000000000000000000000000000                          B3        20120430                                                          000045
1            C0000000000                       122234590                                                    06300412          030735                    0000000005990                                                              00000000000000000000000000000000000643000000000003200000000000120                          00        20120430                                                          000046
1            C0000000000                       122234590                                                    28300412          030735                    0000000000120                                                              00000000000000000000000000000000000643000000000003200000000000120                          B3        20120430                                                          000047
1            C0000000000                       122201713                                                    06300412          030609                    0000000005390                                                              00000000000000000000000000000000000577800000000002800000000000108                          00        20120430                                                          000048
1            C0000000000                       122201713                                                    28300412          030609                    0000000000120                                                              00000000000000000000000000000000000577800000000002800000000000108                          B3        20120430                                                          000049
1            C0000000000                       122256682                                                    06300412          030736                    0000000004490                                                              00000000000000000000000000000000000449000000000000000000000000000                          00        20120430                                                          000050
1            C0000000000                       122256682                                                    28300412          030736                    0000000000120                                                              00000000000000000000000000000000000449000000000000000000000000000                          B3        20120430                                                          000051
1            C0000000000                       122275342                                                    06300412          030702                    0000000003900                                                              00000000000000000000000000000000000390000000000000000000000000000                          00        20120430                                                          000052
1            C0000000000                       122275342                                                    28300412          030702                    0000000000120                                                              00000000000000000000000000000000000390000000000000000000000000000                          B3        20120430                                                          000053
1            C0000000000                       122274931                                                    06300412          030735                    0000000003900                                                              00000000000000000000000000000000000390000000000000000000000000000                          00        20120430                                                          000054
1            C0000000000                       122274931                                                    28300412          030735                    0000000000120                                                              00000000000000000000000000000000000390000000000000000000000000000                          B3        20120430                                                          000055
1            C0000000000                       122228514                                                    06300412          030706                    0000000004490                                                              00000000000000000000000000000000000482000000000002400000000000090                          00        20120430                                                          000056
1            C0000000000                       122228514                                                    28300412          030706                    0000000000120                                                              00000000000000000000000000000000000482000000000002400000000000090                          B3        20120430                                                          000057
1            C0000000000                       122218853                                                    06300412          030735                    0000000004490                                                              00000000000000000000000000000000000482000000000002400000000000090                          00        20120430                                                          000058
1            C0000000000                       122218853                                                    28300412          030735                    0000000000120                                                              00000000000000000000000000000000000482000000000002400000000000090                          B3        20120430                                                          000059
1            C0000000000                       122276411                                                    06300412          030706                    0000000003510                                                              00000000000000000000000000000000000351000000000000000000000000000                          00        20120430                                                          000060
1            C0000000000                       122276411                                                    28300412          030706                    0000000000120                                                              00000000000000000000000000000000000351000000000000000000000000000                          B3        20120430                                                          000061
1            C0000000000                       122254280                                                    06300412          030727                    0000000007190                                                              00000000000000000000000000000000000719000000000000000000000000000                          00        20120430                                                          000062
1            C0000000000                       122254280                                                    28300412          030727                    0000000000120                                                              00000000000000000000000000000000000719000000000000000000000000000                          B3        20120430                                                          000063
1            C0000000000                       122239460                                                    06300412          030702                    0000000001132                                                              00000000000000000000000000000000000121500000000000600000000000023                          00        20120430                                                          000064
1            C0000000000                       122239460                                                    28300412          030702                    0000000000120                                                              00000000000000000000000000000000000121500000000000600000000000023                          B3        20120430                                                          000065
1            C0000000000                       122203007                                                    06300412          030702                    0000000004490                                                              00000000000000000000000000000000000482000000000002400000000000090                          00        20120430                                                          000066
1            C0000000000                       122203007                                                    28300412          030702                    0000000000120                                                              00000000000000000000000000000000000482000000000002400000000000090                          B3        20120430                                                          000067
1            C0000000000                       122252415                                                    06300412          030715                    0000000007990                                                              00000000000000000000000000000000000799000000000000000000000000000                          00        20120430                                                          000068
1            C0000000000                       122252415                                                    28300412          030715                    0000000000120                                                              00000000000000000000000000000000000799000000000000000000000000000                          B3        20120430                                                          000069
1            C0000000000                       122273536                                                    06300412          030715                    0000000004900                                                              00000000000000000000000000000000000490000000000000000000000000000                          00        20120430                                                          000070
1            C0000000000                       122273536                                                    28300412          030715                    0000000000120                                                              00000000000000000000000000000000000490000000000000000000000000000                          B3        20120430                                                          000071
1            C0000000000                       122266009                                                    06300412          030703                    0000000004490                                                              00000000000000000000000000000000000449000000000000000000000000000                          00        20120430                                                          000072
1            C0000000000                       122266009                                                    28300412          030703                    0000000000120                                                              00000000000000000000000000000000000449000000000000000000000000000                          B3        20120430                                                          000073
1            C0000000000                       122206022                                                    06300412          030727                    0000000004490                                                              00000000000000000000000000000000000449000000000000000000000000000                          00        20120430                                                          000074
1            C0000000000                       122206022                                                    28300412          030727                    0000000000120                                                              00000000000000000000000000000000000449000000000000000000000000000                          B3        20120430                                                          000075
1            C0000000000                       122244196                                                    06300412          030727                    0000000004490                                                              00000000000000000000000000000000000449000000000000000000000000000                          00        20120430                                                          000076
1            C0000000000                       122244196                                                    28300412          030727                    0000000000120                                                              00000000000000000000000000000000000449000000000000000000000000000                          B3        20120430                                                          000077
1            C0000000000                       122218730                                                    06300412          030715                    0000000004490                                                              00000000000000000000000000000000000449000000000000000000000000000                          00        20120430                                                          000078
1            C0000000000                       122218730                                                    28300412          030715                    0000000000120                                                              00000000000000000000000000000000000449000000000000000000000000000                          B3        20120430                                                          000079
1            C0000000000                       122244536                                                    06300412          030726                    0000000004040                                                              00000000000000000000000000000000000404000000000000000000000000000                          00        20120430                                                          000080
1            C0000000000                       122244536                                                    28300412          030726                    0000000000120                                                              00000000000000000000000000000000000404000000000000000000000000000                          B3        20120430                                                          000081
1            C0000000000                       122249180                                                    06300412          030703                    0000000004490                                                              00000000000000000000000000000000000449000000000000000000000000000                          00        20120430                                                          000082
1            C0000000000                       122249180                                                    28300412          030703                    0000000000120                                                              00000000000000000000000000000000000449000000000000000000000000000                          B3        20120430                                                          000083
1            C0000000000                       122252016                                                    06300412          030706                    0000000004490                                                              00000000000000000000000000000000000449000000000000000000000000000                          00        20120430                                                          000084
1            C0000000000                       122252016                                                    28300412          030706                    0000000000120                                                              00000000000000000000000000000000000449000000000000000000000000000                          B3        20120430                                                          000085
1            C0000000000                       122273382                                                    06300412          030717                    0000000004490                                                              00000000000000000000000000000000000449000000000000000000000000000                          00        20120430                                                          000086
1            C0000000000                       122273382                                                    28300412          030717                    0000000000120                                                              00000000000000000000000000000000000449000000000000000000000000000                          B3        20120430                                                          000087
1            C0000000000                       122257395                                                    06300412          030706                    0000000004490                                                              00000000000000000000000000000000000449000000000000000000000000000                          00        20120430                                                          000088
1            C0000000000                       122257395                                                    28300412          030706                    0000000000120                                                              00000000000000000000000000000000000449000000000000000000000000000                          B3        20120430                                                          000089
1            C0000000000                       122265754                                                    06300412          030722                    0000000004490                                                              00000000000000000000000000000000000449000000000000000000000000000                          00        20120430                                                          000090
1            C0000000000                       122265754                                                    28300412          030722                    0000000000120                                                              00000000000000000000000000000000000449000000000000000000000000000                          B3        20120430                                                          000091
1            C0000000000                       122229189                                                    06300412          030706                    0000000004490                                                              00000000000000000000000000000000000449000000000000000000000000000                          00        20120430                                                          000092
1            C0000000000                       122229189                                                    28300412          030706                    0000000000120                                                              00000000000000000000000000000000000449000000000000000000000000000                          B3        20120430                                                          000093
1            C0000000000                       122271436                                                    06300412          COMPE                     0000000004490                                                              00000000000000000000000000000000000449000000000000000000000000000                          H5        20120430                                                          000094
1            C0000000000                       122271436                                                    28300412          COMPE                     0000000000120                                                              00000000000000000000000000000000000449000000000000000000000000000                          B3        20120430                                                          000095
1            C0000000000                       122267692                                                    06300412          COMPE                     0000000004490                                                              00000000000000000000000000000000000449000000000000000000000000000                          H5        20120430                                                          000096
1            C0000000000                       122267692                                                    28300412          COMPE                     0000000000120                                                              00000000000000000000000000000000000449000000000000000000000000000                          B3        20120430                                                          000097
1            C0000000000                       122249260                                                    06300412          COMPE                     0000000004490                                                              00000000000000000000000000000000000449000000000000000000000000000                          H5        20120430                                                          000098
1            C0000000000                       122249260                                                    28300412          COMPE                     0000000000120                                                              00000000000000000000000000000000000449000000000000000000000000000                          B3        20120430                                                          000099
1            C0000000000                       122269792                                                    06300412          COMPE                     0000000004490                                                              00000000000000000000000000000000000449000000000000000000000000000                          H5        20120430                                                          000100
1            C0000000000                       122269792                                                    28300412          COMPE                     0000000000120                                                              00000000000000000000000000000000000449000000000000000000000000000                          B3        20120430                                                          000101
1            C0000000000                       122242290                                                    06300412          COMPE                     0000000003900                                                              00000000000000000000000000000000000390000000000000000000000000000                          H5        20120430                                                          000102
1            C0000000000                       122242290                                                    28300412          COMPE                     0000000000120                                                              00000000000000000000000000000000000390000000000000000000000000000                          B3        20120430                                                          000103
1            C0000000000                       122264804                                                    06300412          COMPE                     0000000005900                                                              00000000000000000000000000000000000590000000000000000000000000000                          H5        20120430                                                          000104
1            C0000000000                       122264804                                                    28300412          COMPE                     0000000000120                                                              00000000000000000000000000000000000590000000000000000000000000000                          B3        20120430                                                          000105
1            C0000000000                       122242576                                                    06300412          COMPE                     0000000005390                                                              00000000000000000000000000000000000539000000000000000000000000000                          H5        20120430                                                          000106
1            C0000000000                       122242576                                                    28300412          COMPE                     0000000000120                                                              00000000000000000000000000000000000539000000000000000000000000000                          B3        20120430                                                          000107
1            C0000000000                       122257956                                                    06300412          COMPE                     0000000008900                                                              00000000000000000000000000000000000890000000000000000000000000000                          H5        20120430                                                          000108
1            C0000000000                       122257956                                                    28300412          COMPE                     0000000000120                                                              00000000000000000000000000000000000890000000000000000000000000000                          B3        20120430                                                          000109
1            C0000000000                       122247594                                                    06300412          COMPE                     0000000004040                                                              00000000000000000000000000000000000404000000000000000000000000000                          H5        20120430                                                          000110
1            C0000000000                       122247594                                                    28300412          COMPE                     0000000000120                                                              00000000000000000000000000000000000404000000000000000000000000000                          B3        20120430                                                          000111
1            C0000000000                       122262550                                                    06300412          COMPE                     0000000004490                                                              00000000000000000000000000000000000449000000000000000000000000000                          H5        20120430                                                          000112
1            C0000000000                       122262550                                                    28300412          COMPE                     0000000000120                                                              00000000000000000000000000000000000449000000000000000000000000000                          B3        20120430                                                          000113
1            C0000000000                       122251630                                                    06300412          COMPE                     0000000005990                                                              00000000000000000000000000000000000599000000000000000000000000000                          H5        20120430                                                          000114
1            C0000000000                       122251630                                                    28300412          COMPE                     0000000000120                                                              00000000000000000000000000000000000599000000000000000000000000000                          B3        20120430                                                          000115
1            C0000000000                       122256895                                                    06300412          COMPE                     0000000004490                                                              00000000000000000000000000000000000449000000000000000000000000000                          H5        20120430                                                          000116
1            C0000000000                       122256895                                                    28300412          COMPE                     0000000000120                                                              00000000000000000000000000000000000449000000000000000000000000000                          B3        20120430                                                          000117
1            C0000000000                       122244986                                                    06300412          COMPE                     0000000004490                                                              00000000000000000000000000000000000449000000000000000000000000000                          H5        20120430                                                          000118
1            C0000000000                       122244986                                                    28300412          COMPE                     0000000000120                                                              00000000000000000000000000000000000449000000000000000000000000000                          B3        20120430                                                          000119
1            C0000000000                       122266335                                                    06300412          COMPE                     0000000004490                                                              00000000000000000000000000000000000449000000000000000000000000000                          H5        20120430                                                          000120
1            C0000000000                       122266335                                                    28300412          COMPE                     0000000000120                                                              00000000000000000000000000000000000449000000000000000000000000000                          B3        20120430                                                          000121
1            C0000000000                       122252717                                                    06300412          COMPE                     0000000004490                                                              00000000000000000000000000000000000449000000000000000000000000000                          H5        20120430                                                          000122
1            C0000000000                       122252717                                                    28300412          COMPE                     0000000000120                                                              00000000000000000000000000000000000449000000000000000000000000000                          B3        20120430                                                          000123
1            C0000000000                       122274800                                                    06300412          COMPE                     0000000009900                                                              00000000000000000000000000000000000990000000000000000000000000000                          H5        20120430                                                          000124
1            C0000000000                       122274800                                                    28300412          COMPE                     0000000000120                                                              00000000000000000000000000000000000990000000000000000000000000000                          B3        20120430                                                          000125
1            C0000000000                       122253683                                                    06300412          COMPE                     0000000004490                                                              00000000000000000000000000000000000449000000000000000000000000000                          H5        20120430                                                          000126
1            C0000000000                       122253683                                                    28300412          COMPE                     0000000000120                                                              00000000000000000000000000000000000449000000000000000000000000000                          B3        20120430                                                          000127
1            C0000000000                       122242967                                                    06300412          COMPE                     0000000004490                                                              00000000000000000000000000000000000449000000000000000000000000000                          H5        20120430                                                          000128
1            C0000000000                       122242967                                                    28300412          COMPE                     0000000000120                                                              00000000000000000000000000000000000449000000000000000000000000000                          B3        20120430                                                          000129
1            C0000000000                       122273846                                                    06300412          COMPE                     0000000004490                                                              00000000000000000000000000000000000449000000000000000000000000000                          H5        20120430                                                          000130
1            C0000000000                       122273846                                                    28300412          COMPE                     0000000000120                                                              00000000000000000000000000000000000449000000000000000000000000000                          B3        20120430                                                          000131
1            C0000000000                       122258243                                                    06300412          COMPE                     0000000004490                                                              00000000000000000000000000000000000449000000000000000000000000000                          H5        20120430                                                          000132
1            C0000000000                       122258243                                                    28300412          COMPE                     0000000000120                                                              00000000000000000000000000000000000449000000000000000000000000000                          B3        20120430                                                          000133
1            C0000000000                       122262259                                                    06300412          COMPE                     0000000004490                                                              00000000000000000000000000000000000449000000000000000000000000000                          H5        20120430                                                          000134
1            C0000000000                       122262259                                                    28300412          COMPE                     0000000000120                                                              00000000000000000000000000000000000449000000000000000000000000000                          B3        20120430                                                          000135
1            C0000000000                       122240204                                                    06300412          COMPE                     0000000004490                                                              00000000000000000000000000000000000449000000000000000000000000000                          H5        20120430                                                          000136
1            C0000000000                       122240204                                                    28300412          COMPE                     0000000000120                                                              00000000000000000000000000000000000449000000000000000000000000000                          B3        20120430                                                          000137
1            C0000000000                       122258227                                                    06300412          COMPE                     0000000004490                                                              00000000000000000000000000000000000449000000000000000000000000000                          H5        20120430                                                          000138
1            C0000000000                       122258227                                                    28300412          COMPE                     0000000000120                                                              00000000000000000000000000000000000449000000000000000000000000000                          B3        20120430                                                          000139
1            C0000000000                       122245338                                                    06300412          COMPE                     0000000004490                                                              00000000000000000000000000000000000449000000000000000000000000000                          H5        20120430                                                          000140
1            C0000000000                       122245338                                                    28300412          COMPE                     0000000000120                                                              00000000000000000000000000000000000449000000000000000000000000000                          B3        20120430                                                          000141
1            C0000000000                       122266319                                                    06300412          COMPE                     0000000004490                                                              00000000000000000000000000000000000449000000000000000000000000000                          H5        20120430                                                          000142
1            C0000000000                       122266319                                                    28300412          COMPE                     0000000000120                                                              00000000000000000000000000000000000449000000000000000000000000000                          B3        20120430                                                          000143
1            C0000000000                       122274001                                                    06300412          COMPE                     0000000004490                                                              00000000000000000000000000000000000449000000000000000000000000000                          H5        20120430                                                          000144
1            C0000000000                       122274001                                                    28300412          COMPE                     0000000000120                                                              00000000000000000000000000000000000449000000000000000000000000000                          B3        20120430                                                          000145
1            C0000000000                       122277337                                                    06300412          COMPE                     0000000001646                                                              00000000000000000000000000000000000164600000000000000000000000000                          H5        20120430                                                          000146
1            C0000000000                       122277337                                                    28300412          COMPE                     0000000000120                                                              00000000000000000000000000000000000164600000000000000000000000000                          B3        20120430                                                          000147
1            C0000000000                       122197945                                                    06300412          COMPE                     0000000003094                                                              00000000000000000000000000000000000309400000000000000000000000000                          H5        20120430                                                          000148
1            C0000000000                       122197945                                                    28300412          COMPE                     0000000000120                                                              00000000000000000000000000000000000309400000000000000000000000000                          B3        20120430                                                          000149
1            C0000000000                       122234263                                                    06300412          COMPE                     0000000004181                                                              00000000000000000000000000000000000418100000000000000000000000000                          H5        20120430                                                          000150
1            C0000000000                       122234263                                                    28300412          COMPE                     0000000000120                                                              00000000000000000000000000000000000418100000000000000000000000000                          B3        20120430                                                          000151
1            C0000000000                       122228875                                                    06300412          COMPE                     0000000005253                                                              00000000000000000000000000000000000525300000000000000000000000000                          H5        20120430                                                          000152
1            C0000000000                       122228875                                                    28300412          COMPE                     0000000000120                                                              00000000000000000000000000000000000525300000000000000000000000000                          B3        20120430                                                          000153
1            C0000000000                       122250870                                                    06300412          COMPE                     0000000005390                                                              00000000000000000000000000000000000539000000000000000000000000000                          H5        20120430                                                          000154
1            C0000000000                       122250870                                                    28300412          COMPE                     0000000000120                                                              00000000000000000000000000000000000539000000000000000000000000000                          B3        20120430                                                          000155
1            C0000000000                       122271940                                                    06300412          COMPE                     0000000005990                                                              00000000000000000000000000000000000599000000000000000000000000000                          H5        20120430                                                          000156
1            C0000000000                       122271940                                                    28300412          COMPE                     0000000000120                                                              00000000000000000000000000000000000599000000000000000000000000000                          B3        20120430                                                          000157
1            C0000000000                       122248078                                                    06300412          COMPE                     0000000004490                                                              00000000000000000000000000000000000449000000000000000000000000000                          H5        20120430                                                          000158
1            C0000000000                       122248078                                                    28300412          COMPE                     0000000000120                                                              00000000000000000000000000000000000449000000000000000000000000000                          B3        20120430                                                          000159
1            C0000000000                       122240301                                                    06300412          COMPE                     0000000004490                                                              00000000000000000000000000000000000449000000000000000000000000000                          H5        20120430                                                          000160
1            C0000000000                       122240301                                                    28300412          COMPE                     0000000000120                                                              00000000000000000000000000000000000449000000000000000000000000000                          B3        20120430                                                          000161
1            C0000000000                       122242428                                                    06300412          COMPE                     0000000004040                                                              00000000000000000000000000000000000404000000000000000000000000000                          H5        20120430                                                          000162
1            C0000000000                       122242428                                                    28300412          COMPE                     0000000000120                                                              00000000000000000000000000000000000404000000000000000000000000000                          B3        20120430                                                          000163
1            C0000000000                       122267978                                                    06300412          COMPE                     0000000004490                                                              00000000000000000000000000000000000449000000000000000000000000000                          H5        20120430                                                          000164
1            C0000000000                       122267978                                                    28300412          COMPE                     0000000000120                                                              00000000000000000000000000000000000449000000000000000000000000000                          B3        20120430                                                          000165
1            C0000000000                       122254884                                                    06300412          COMPE                     0000000004490                                                              00000000000000000000000000000000000449000000000000000000000000000                          H5        20120430                                                          000166
1            C0000000000                       122254884                                                    28300412          COMPE                     0000000000120                                                              00000000000000000000000000000000000449000000000000000000000000000                          B3        20120430                                                          000167
1            C0000000000                       122259746                                                    06300412          COMPE                     0000000004490                                                              00000000000000000000000000000000000449000000000000000000000000000                          H5        20120430                                                          000168
1            C0000000000                       122259746                                                    28300412          COMPE                     0000000000120                                                              00000000000000000000000000000000000449000000000000000000000000000                          B3        20120430                                                          000169
1            C0000000000                       122249767                                                    06300412          COMPE                     0000000004040                                                              00000000000000000000000000000000000404000000000000000000000000000                          H5        20120430                                                          000170
1            C0000000000                       122249767                                                    28300412          COMPE                     0000000000120                                                              00000000000000000000000000000000000404000000000000000000000000000                          B3        20120430                                                          000171
1            C0000000000                       122259487                                                    06300412          COMPE                     0000000004490                                                              00000000000000000000000000000000000449000000000000000000000000000                          H5        20120430                                                          000172
1            C0000000000                       122259487                                                    28300412          COMPE                     0000000000120                                                              00000000000000000000000000000000000449000000000000000000000000000                          B3        20120430                                                          000173
1            C0000000000                       122269261                                                    06300412          COMPE                     0000000004490                                                              00000000000000000000000000000000000449000000000000000000000000000                          H5        20120430                                                          000174
1            C0000000000                       122269261                                                    28300412          COMPE                     0000000000120                                                              00000000000000000000000000000000000449000000000000000000000000000                          B3        20120430                                                          000175
1            C0000000000                       122267498                                                    06300412          COMPE                     0000000007990                                                              00000000000000000000000000000000000799000000000000000000000000000                          H5        20120430                                                          000176
1            C0000000000                       122267498                                                    28300412          COMPE                     0000000000120                                                              00000000000000000000000000000000000799000000000000000000000000000                          B3        20120430                                                          000177
1            C0000000000                       122252385                                                    06300412          COMPE                     0000000004490                                                              00000000000000000000000000000000000449000000000000000000000000000                          H5        20120430                                                          000178
1            C0000000000                       122252385                                                    28300412          COMPE                     0000000000120                                                              00000000000000000000000000000000000449000000000000000000000000000                          B3        20120430                                                          000179
1            C0000000000                       122250005                                                    06300412          COMPE                     0000000004490                                                              00000000000000000000000000000000000449000000000000000000000000000                          H5        20120430                                                          000180
1            C0000000000                       122250005                                                    28300412          COMPE                     0000000000120                                                              00000000000000000000000000000000000449000000000000000000000000000                          B3        20120430                                                          000181
1            C0000000000                       122246989                                                    06300412          COMPE                     0000000004490                                                              00000000000000000000000000000000000449000000000000000000000000000                          H5        20120430                                                          000182
1            C0000000000                       122246989                                                    28300412          COMPE                     0000000000120                                                              00000000000000000000000000000000000449000000000000000000000000000                          B3        20120430                                                          000183
1            C0000000000                       122246881                                                    06300412          COMPE                     0000000004490                                                              00000000000000000000000000000000000449000000000000000000000000000                          H5        20120430                                                          000184
1            C0000000000                       122246881                                                    28300412          COMPE                     0000000000120                                                              00000000000000000000000000000000000449000000000000000000000000000                          B3        20120430                                                          000185
1            C0000000000                       122246903                                                    06300412          COMPE                     0000000004490                                                              00000000000000000000000000000000000449000000000000000000000000000                          H5        20120430                                                          000186
1            C0000000000                       122246903                                                    28300412          COMPE                     0000000000120                                                              00000000000000000000000000000000000449000000000000000000000000000                          B3        20120430                                                          000187
1            C0000000000                       122240271                                                    06300412          COMPE                     0000000004490                                                              00000000000000000000000000000000000449000000000000000000000000000                          H5        20120430                                                          000188
1            C0000000000                       122240271                                                    28300412          COMPE                     0000000000120                                                              00000000000000000000000000000000000449000000000000000000000000000                          B3        20120430                                                          000189
1            C0000000000                       122263476                                                    06300412          COMPE                     0000000004490                                                              00000000000000000000000000000000000449000000000000000000000000000                          H5        20120430                                                          000190
1            C0000000000                       122263476                                                    28300412          COMPE                     0000000000120                                                              00000000000000000000000000000000000449000000000000000000000000000                          B3        20120430                                                          000191
1            C0000000000                       122241600                                                    06300412          COMPE                     0000000004040                                                              00000000000000000000000000000000000404000000000000000000000000000                          H5        20120430                                                          000192
1            C0000000000                       122241600                                                    28300412          COMPE                     0000000000120                                                              00000000000000000000000000000000000404000000000000000000000000000                          B3        20120430                                                          000193
1            C0000000000                       122267749                                                    06300412          COMPE                     0000000004490                                                              00000000000000000000000000000000000449000000000000000000000000000                          H5        20120430                                                          000194
1            C0000000000                       122267749                                                    28300412          COMPE                     0000000000120                                                              00000000000000000000000000000000000449000000000000000000000000000                          B3        20120430                                                          000195
1            C0000000000                       122259355                                                    06300412          COMPE                     0000000004490                                                              00000000000000000000000000000000000449000000000000000000000000000                          H5        20120430                                                          000196
1            C0000000000                       122259355                                                    28300412          COMPE                     0000000000120                                                              00000000000000000000000000000000000449000000000000000000000000000                          B3        20120430                                                          000197
1            C0000000000                       122254205                                                    06300412          COMPE                     0000000004490                                                              00000000000000000000000000000000000449000000000000000000000000000                          H5        20120430                                                          000198
1            C0000000000                       122254205                                                    28300412          COMPE                     0000000000120                                                              00000000000000000000000000000000000449000000000000000000000000000                          B3        20120430                                                          000199
1            C0000000000                       122260086                                                    06300412          COMPE                     0000000004040                                                              00000000000000000000000000000000000404000000000000000000000000000                          H5        20120430                                                          000200
1            C0000000000                       122260086                                                    28300412          COMPE                     0000000000120                                                              00000000000000000000000000000000000404000000000000000000000000000                          B3        20120430                                                          000201
1            C0000000000                       122267188                                                    06300412          COMPE                     0000000004490                                                              00000000000000000000000000000000000449000000000000000000000000000                          H5        20120430                                                          000202
1            C0000000000                       122267188                                                    28300412          COMPE                     0000000000120                                                              00000000000000000000000000000000000449000000000000000000000000000                          B3        20120430                                                          000203
1            C0000000000                       122269296                                                    06300412          COMPE                     0000000004040                                                              00000000000000000000000000000000000404000000000000000000000000000                          H5        20120430                                                          000204
1            C0000000000                       122269296                                                    28300412          COMPE                     0000000000120                                                              00000000000000000000000000000000000404000000000000000000000000000                          B3        20120430                                                          000205
1            C0000000000                       122244471                                                    06300412          COMPE                     0000000004490                                                              00000000000000000000000000000000000449000000000000000000000000000                          H5        20120430                                                          000206
1            C0000000000                       122244471                                                    28300412          COMPE                     0000000000120                                                              00000000000000000000000000000000000449000000000000000000000000000                          B3        20120430                                                          000207
1            C0000000000                       122257476                                                    06300412          COMPE                     0000000004490                                                              00000000000000000000000000000000000449000000000000000000000000000                          H5        20120430                                                          000208
1            C0000000000                       122257476                                                    28300412          COMPE                     0000000000120                                                              00000000000000000000000000000000000449000000000000000000000000000                          B3        20120430                                                          000209
1            C0000000000                       122258120                                                    06300412          COMPE                     0000000004490                                                              00000000000000000000000000000000000449000000000000000000000000000                          H5        20120430                                                          000210
1            C0000000000                       122258120                                                    28300412          COMPE                     0000000000120                                                              00000000000000000000000000000000000449000000000000000000000000000                          B3        20120430                                                          000211
1            C0000000000                       122256950                                                    06300412          COMPE                     0000000004490                                                              00000000000000000000000000000000000449000000000000000000000000000                          H5        20120430                                                          000212
1            C0000000000                       122256950                                                    28300412          COMPE                     0000000000120                                                              00000000000000000000000000000000000449000000000000000000000000000                          B3        20120430                                                          000213
1            C0000000000                       122264278                                                    06300412          COMPE                     0000000004490                                                              00000000000000000000000000000000000449000000000000000000000000000                          H5        20120430                                                          000214
1            C0000000000                       122264278                                                    28300412          COMPE                     0000000000120                                                              00000000000000000000000000000000000449000000000000000000000000000                          B3        20120430                                                          000215
1            C0000000000                       122253730                                                    06300412          COMPE                     0000000004490                                                              00000000000000000000000000000000000449000000000000000000000000000                          H5        20120430                                                          000216
1            C0000000000                       122253730                                                    28300412          COMPE                     0000000000120                                                              00000000000000000000000000000000000449000000000000000000000000000                          B3        20120430                                                          000217
1            C0000000000                       122240620                                                    06300412          COMPE                     0000000004490                                                              00000000000000000000000000000000000449000000000000000000000000000                          H5        20120430                                                          000218
1            C0000000000                       122240620                                                    28300412          COMPE                     0000000000120                                                              00000000000000000000000000000000000449000000000000000000000000000                          B3        20120430                                                          000219
1            C0000000000                       122247276                                                    06300412          COMPE                     0000000004490                                                              00000000000000000000000000000000000449000000000000000000000000000                          H5        20120430                                                          000220
1            C0000000000                       122247276                                                    28300412          COMPE                     0000000000120                                                              00000000000000000000000000000000000449000000000000000000000000000                          B3        20120430                                                          000221
1            C0000000000                       122247454                                                    06300412          COMPE                     0000000004040                                                              00000000000000000000000000000000000404000000000000000000000000000                          H5        20120430                                                          000222
1            C0000000000                       122247454                                                    28300412          COMPE                     0000000000120                                                              00000000000000000000000000000000000404000000000000000000000000000                          B3        20120430                                                          000223
1            C0000000000                       122253250                                                    06300412          COMPE                     0000000003310                                                              00000000000000000000000000000000000331000000000000000000000000000                          H5        20120430                                                          000224
1            C0000000000                       122253250                                                    28300412          COMPE                     0000000000120                                                              00000000000000000000000000000000000331000000000000000000000000000                          B3        20120430                                                          000225
1            C0000000000                       122247080                                                    06300412          COMPE                     0000000002020                                                              00000000000000000000000000000000000202000000000000000000000000000                          H5        20120430                                                          000226
1            C0000000000                       122247080                                                    28300412          COMPE                     0000000000120                                                              00000000000000000000000000000000000202000000000000000000000000000                          B3        20120430                                                          000227
1            C0000000000                       122264790                                                    06300412          COMPE                     0000000004490                                                              00000000000000000000000000000000000449000000000000000000000000000                          H5        20120430                                                          000228
1            C0000000000                       122264790                                                    28300412          COMPE                     0000000000120                                                              00000000000000000000000000000000000449000000000000000000000000000                          B3        20120430                                                          000229
1            C0000000000                       122249651                                                    06300412          COMPE                     0000000004490                                                              00000000000000000000000000000000000449000000000000000000000000000                          H5        20120430                                                          000230
1            C0000000000                       122249651                                                    28300412          COMPE                     0000000000120                                                              00000000000000000000000000000000000449000000000000000000000000000                          B3        20120430                                                          000231
1            C0000000000                       122254116                                                    06300412          COMPE                     0000000004490                                                              00000000000000000000000000000000000449000000000000000000000000000                          H5        20120430                                                          000232
1            C0000000000                       122254116                                                    28300412          COMPE                     0000000000120                                                              00000000000000000000000000000000000449000000000000000000000000000                          B3        20120430                                                          000233
1            C0000000000                       122267005                                                    06300412          COMPE                     0000000005990                                                              00000000000000000000000000000000000599000000000000000000000000000                          H5        20120430                                                          000234
1            C0000000000                       122267005                                                    28300412          COMPE                     0000000000120                                                              00000000000000000000000000000000000599000000000000000000000000000                          B3        20120430                                                          000235
1            C0000000000                       122256941                                                    06300412          COMPE                     0000000004490                                                              00000000000000000000000000000000000449000000000000000000000000000                          H5        20120430                                                          000236
1            C0000000000                       122256941                                                    28300412          COMPE                     0000000000120                                                              00000000000000000000000000000000000449000000000000000000000000000                          B3        20120430                                                          000237
1            C0000000000                       122268923                                                    06300412          COMPE                     0000000004490                                                              00000000000000000000000000000000000449000000000000000000000000000                          H5        20120430                                                          000238
1            C0000000000                       122268923                                                    28300412          COMPE                     0000000000120                                                              00000000000000000000000000000000000449000000000000000000000000000                          B3        20120430                                                          000239
1            C0000000000                       122269695                                                    06300412          COMPE                     0000000004490                                                              00000000000000000000000000000000000449000000000000000000000000000                          H5        20120430                                                          000240
1            C0000000000                       122269695                                                    28300412          COMPE                     0000000000120                                                              00000000000000000000000000000000000449000000000000000000000000000                          B3        20120430                                                          000241
1            C0000000000                       122250765                                                    06300412          COMPE                     0000000004490                                                              00000000000000000000000000000000000449000000000000000000000000000                          H5        20120430                                                          000242
1            C0000000000                       122250765                                                    28300412          COMPE                     0000000000120                                                              00000000000000000000000000000000000449000000000000000000000000000                          B3        20120430                                                          000243
1            C0000000000                       122254213                                                    06300412          COMPE                     0000000004490                                                              00000000000000000000000000000000000449000000000000000000000000000                          H5        20120430                                                          000244
1            C0000000000                       122254213                                                    28300412          COMPE                     0000000000120                                                              00000000000000000000000000000000000449000000000000000000000000000                          B3        20120430                                                          000245
1            C0000000000                       122250340                                                    06300412          COMPE                     0000000004490                                                              00000000000000000000000000000000000449000000000000000000000000000                          H5        20120430                                                          000246
1            C0000000000                       122250340                                                    28300412          COMPE                     0000000000120                                                              00000000000000000000000000000000000449000000000000000000000000000                          B3        20120430                                                          000247
1            C0000000000                       122254060                                                    06300412          COMPE                     0000000004490                                                              00000000000000000000000000000000000449000000000000000000000000000                          H5        20120430                                                          000248
