06031727000112ISENTO        CRESOL                             RUA ELIGIO CAVAD„O                           00613CINQUENTENARIO 98940000INTERIOR       TUPARENDI                     RS00000000000079677                          5AF587E1E4E98B2EEC66314149660A92
89095368000194ISENTO        COM. COMB. BERRES & KLERING LTDA   RUA DOM PEDRO II                             01897               98960000CENTRO         SANTO CRISTO                  RS00553541104979720                          0361283853EE3A3F7E2DE29F783507DF
09631791000122ISENTO        JOSÈ EMILIO HEINEN E CIA LTDA      AV. DOM PEDRO II                             01825               98960000CENTRO         SANTO CRISTO                  RS00553541178679808                          030183F1D6F950A5204A51477C0696B4
91212035000140ISENTO        MARIGEL COM. VAR. DE PROD. COSMETICRUA DOM PDRO II                              01886               98960000CENTRO         SANTO CRISTO                  RS00000000000079951                          7368A9201BC44B79FABE40665E88CEF1
96416151000102116/0000740   SERRA FITA SEIBERT INDUSTRIA E COMERUA MARECHAL DEODORO                         01858               98960000CENTRO         SANTO CRISTO                  RS00553541120079961                          6346D702FA9A5CC6B2BF58E715378B8E
00025749986004ISENTO        DONATO HEINEN                      RUA MINAS GERAIS                             02462               98960000CENTRO         SANTO CRISTO                  RS00553541115379742                          5F56A66860D172587BD5704375B90598
00096070447034ISENTO        MARCIO GERHARDT                    RUA MARECHAL FLOREANO                        01061               98960000CENTRO         SANTO CRISTO                  RS00553541130579950                          234FBE4CAE09A0D58DD47B774C26B24B
00030912300078ISENTO        SANDRA HEINEN                      RUA DOM PEDRO II                             02057AP.:01         98960000CENTRO         SANTO CRISTO                  RS00553541113179958                          78CCF9EA191C5237E58070ACBB1EC684
000884557000259036630011    IRANI ANA ROCKEMBACH               AV. CARLOS ALBERTO SCHAEDLER                 00557               98950000CENTRO         ALECRIM                       RS00000000000079793                          75C34FEFA4299D9ACC552277F6170BBD
87612990000105ISENTO        PREFEITURA MUNICIPAL DE CERRO LARGORUA CORONEL JORGE FRANTZ                     00675               97900000CENTRO         CERRO LARGO                   RS00553359190579930                          26B6E9214B115E9DF89AC2F89AC33A70
000671138340002058901949    ROSANE HANZEN DA ROSA              RUA HENRIQUE BALDOINO WEBLER                 00974               97900000BRASILIA       CERRO LARGO                   RS00553359237880008                          251AB01185C3F7F55D370AB95FF5E4A6
000994585350345069316544    JAIME SOARES PINTO                 RUA S„O PEDRO                                00199               98900000PLANALTO       SANTA ROSA                    RS00000000000079809                          66B3D546C06B9AD2AC35BDF1D2A3FB43
93592715000161ISENTO        PREFEITURA MUNICIPAL DE S„O PEDRO DRUA 7 DE SETEMBRO                            00940               97920000CENTRO         S„O PEDRO DO BUTI·            RS00553369100579932                          530460606748DD7C4E71C3BD80BE0451
96419627000150ISENTO        SINDICATO TRABALHADORES RURAIS DE CRUA TRAV. PADRE BENEDITO MEISTER             00152               98975000CENTRO         CAMPINA DAS MISSıES           RS00000000000079962                          9C8DCA2E17031098652F5E3EE1EF433B
000024320040431065689695    FELIPE JUSTEN                      VILA DONA OTILIA                             00001               97973000INTERIOR       ROQUE GONZALES                RS00553884203779771                          614ED8EECB77CF20C1C47848FDA025D7
93535342000197ISENTO        ESCOLA MUNICIPAL DE E. F. ANTONIO CESQUINA BOA VISTA                            00001               98855000INTERIOR       ENTRE-IJUÌS                   RS00000000000079993                          A31CEEFAA5F559EB82F10BA8BB5BEDEE
11445453000148ISENTO        CAMARA DE VEREADORES VITÛRIA DAS MIAV. 7 POVOS                                  00957               98850000CENTRO         VITÛRIA DAS MISSıES           RS00553614411979735                          60EF28669C338C95C67A5A51C216181B
09649751000108ISENTO        BOIDEZ DISTRIBUIDORA DE ALIMENTOS LROLADOR ALTO                                 00001               98960000INTERIOR       SANTO CRISTO                  RS00553541212579718                          2C795607CAAEFEBE29AFA3FC04D031D4
000213746510878023957262    ARI AOSANI                         DISTRITO SANTA TEREZINHA                     00001               98770000INTERIOR       CATUÌPE                       RS00553613212279713                          37DED7A55AF0C949AD94752ED4915EF0
000093803700591023254442    ARQUILIO TREVIZAN                  RINC„O RIETH                                 00001CXP. 08        98770000INTERIOR       CATUÌPE                       RS00000000000079712                          1AB81B4DFB51049305178C9CCC936825
000043138010499002725597    LUIZ AURÌ VIZIOLI                  RINC„O DOS RIETH                             00001CXP.:26        98770000INTERIOR       CATUÌPE                       RS00000000000079853                          11361F59F15B099886331E0A23658F8A
000500314650721040108837    TELMO ANTONIO AOZANI               ENGENHO VELHO                                00001               98770000INTERIOR       CATUÌPE                       RS00000000000079977                          0990AF043FDD56E66F8D403A5F36EAFA
000393187290491021871741    TELMO LUIZ SFALCIN                 SANTA TEREZINHA                              00001               98770000INTERIOR       CATUÌPE                       RS00553613219079888                          130B1E31F082D118E6294263F9EE0000
000463830180008036099953    VALDEZ PIEPER                      RUA COZ DAS ALMAS                            00001               98770000INTERIOR       CATUÌPE                       RS00000000000079998                          A7ECF17EEA4661B2919B0AC85D18E68C
000604120540007051535421    ARI JOSE WACHEKOSKI                RUA SANTO ISIDRO                             01205               97950000CENTRO         GUARANI DAS MISSıES           RS00000000000079999                          7BA9F7C1DD10AD42607FF7DB71191847
000367719530682024702744    SILVESTRE GURSKI SETSCHUK          RUA SANTO CRISTO                             01387               97950000SANTA TEREZA   GUARANI DAS MISSıES           RS00000000000079912                          3972863634045C587CBA0BE747F45912
000881864660538054734192    CESAR ANTONIO BAZANA               RUA VINICIOS KRUEL                           01074               98860000CENTRO         EUGÍNIO DE CASTRO             RS00000000000079746                          5D492321F7F12FF7BA713B89A50F05F6
000964477450722084723457    ELISIANE DURKS                     RUA SILVÈRIO DE OLIVEIRA                     02500               98860000CENTRO         EUGÍNIO DE CASTRO             RS00000000000079748                          9AE3853E6EC7C7ACAF2FFA97B0F40BD3
000032311510156004380496    OCTAVIAN GERHARDT                  RUA DR. JOAO SEBASTIANY                      00457               97900000CENTRO         CERRO LARGO                   RS00553359193979924                          960DD46F4F4DA14922EC5F78F1B8EF8E
00047370718034ISENTO        ROMEU FRANCISCO LUNKES             RUA CASTELO BRANCO                           00633               97900000CENTRO         CERRO LARGO                   RS00000000000079928                          45A2A8D5771BB585C501735E910F1C0F
000179970460206018976081    ARMINDO JOSE BOLZAN                RUA 7 DE SETEMBRO                            01438               97900000CENTRO         CERRO LARGO                   RS00000000000079700                          CDB185B312B3E26B226D175FEC1FA034
000390386530345042432459    MILTON SCHEID                      RUA HENRIQUE THOMAS                          01143               97900000ESQUINA GAUCHA CERRO LARGO                   RS00000000000079848                          781ABA02EEFCA067FAC55DB25043E402
00003579379020904747854     ROQUE COLLING                      LINHA RESERVA                                00001               97900000INTERIR        CERRO LARGO                   RS00000000000079927                          D0FC04443B442A3AC27BDC5A45DAC039
00024943630049ISENTO        VILSON JOSÈ REIS                   TRAVESSA EUGENIO FRANTZ                      00052               97900000FLORESTA       CERRO LARGO                   RS00000000000079929                          79965B0DD6609FC5EC5EDBD3B17F7410
00073243981034ISENTO        ROSA MARIA DOS SANTOS FERREIRA     RUA BONIFACIO CAMıES                         00845               97900000COAB           CERRO LARGO                   RS00000000000080028                          CB3C59D965F347D17A8C7D517B49D85F
000514537030043017058672    ARACELI SALLET                     RUA SENADOR PINHEIRO MACHADO                 00563               97900000CENTRO         CERRO LARGO                   RS00000000000079694                          139B2196715771564D8764BC897EEC13
000903075420681069234233    PAULO JOSÈ KUNZ MARSCHALL          RUA JO„O TEN CATEN                           00875               97900000S„O PEDRO      CERRO LARGO                   RS00559163720079925                          73A7D93DBD2969C555D8CB446A308951
000495235110684034348559    DARCI WERLE                        RUA SANTO ERNESTO                            00103               97980000CENTRO         S„O PAULO DAS MISSıES         RS00000000000079975                          D4451B16E63F31139A01EEF706794885
00005577560063ISENTO        JAIME CONSTANTINO RITT             LINHA BOA ESPERANÁA                          00001               97920000INTERIOR       S„O PEDRO DO BUTI·            RS00553369108379805                          97EA53E4F2C9DAC599B249E6B0C2E4E2
000450577290049027153312    JO„O ODIL HARTMANN LUNKES          RUA INDEPENDENCIA                            00779               97980000CENTRO         S„O PAULO DAS MISSıES         RS00000000000079799                          88347465F9A81C50E4D2FDA1B12782E1
000653857210349046805363    NOELI LUCIA THOMAS PREHSSLER       RUA S„O LOURENÁO                             00234               97980000CENTRO         S„O PAULO DAS MISSıES         RS00553563133779974                          7BD32717E6D5848B8F0FA246B6061813
000245792540159005924338    VICENTE JO„O KUNZ                  POVOADO IPÍ                                  00001               97980000INTERIOR       S„O PAULO DAS MISSıES         RS00000000000079902                          5D475978489B88090AEDE8FB7706832F
000105864310041004453708    ANTÙNIO JO„O LUNKES                LINHA SANTO ¬NGELO                           00001               97930000INTERIOR       CAIBATÈ                       RS00000000000079693                          3E1704BF5A99B9D452AFA55684C32099
000375238050004038081685    ANTONIO THOMAS                     LINHA TREMONIA                               00001               97900000INTERIOR       CERRO LARGO                   RS00000000000079698                          8F5A9AE4E90709D0155D52527ED43C8D
000887517080001064361387    ELVIO CARLOTO NORO                 RUA  CRUZ ALTA                               01969               97930000VILA LAGO AZUL CAIBATÈ                       RS00000000000079763                          7EFA3764D2AD37AA8085AAB764A82986
00025002368034ISENTO        EVANDO HERTER DA SILVA             AV. 7 DE SETEMBRO                            01419               97930000CENTRO         CAIBATÈ                       RS00553355112379764                          82333154E106454249567780F0AA5199
000309855280875008050998    ILDO JO„O ELY                      LINHA SANTO ANGELO                           00001               97930000INTERIOR       CAIBATÈ                       RS00000000000079792                          CC5DA0588B059B1C72211F4FD66123D4
000126282710878023278801    JOSÈ HARRI THUM                    LINHA TAQUARAÁU                              00001               97900000INTERIOR       CERRO LARGO                   RS00000000000079812                          04C7D164099BA27C13DDDCB43A505EF3
00019014988087ISENTO        LUIZ EVAR LUBINI                   RINCAO DA CONCEIÁAO                          00001               97930000INTERIOR       CAIBATÈ                       RS00000000000079823                          5EC4A98819A31C0B10D3AF8DCC5CE091
000925021800153066625851    MAURICIO PIRES DE MORAIS           RUA CAROO                                    01593               97930000CENTRO         CAIBATÈ                       RS00000000000079835                          1C82997F012F046CDD70BF73D7DCD3C1
000500306470531039734817    MILTON BURIN                       RUA SEFRIN                                   01552               97930000CENTRO         CAIBATÈ                       RS00553505700679836                          07E540B5842CBBF5891777AE8ED3C1C6
000543646550159034268954    NEILA VETTORAZZI KORNOWSKI         CXP:19                                       00001               97950000INTERIOR HARMONGUARANI DAS MISSıES           RS00000000000079855                          F79CBABDA137B6C6DE8140B1BA82CAE5
000164733960041026813707    NELSON BARICHELLO                  RUA DOS IMIGRANTES                           01061               98850000CENTRO         VITÛRIA DAS MISSıES           RS00553355156879862                          3D39B0A3FF5082580D3CFF1ADAA6FEF7
000003458670922090821006    NERISOM LUIZ ROHLEDER              RUA SEFRIN                                   01701               97930000CENTRO         CAIBATÈ                       RS00000000000079863                          FD330D44FADB8C9DEADF8693AA847AA9
000285192640344003698778    PAULO MARIO STOFFELS               RUA 15 DE MAIO                               01519               97930000CENTRO         CAIBATÈ                       RS00553355125479907                          8EAD60DB1DF7517E717EEE269D122B9C
000943352140498073880182    RODRIGO SCHNEIDER                  LINHA PASSO NOVO                             00001               97930000INTERIOR       CAIBATÈ                       RS00000000000079909                          AA78700376088E6C165F1F0502B823D9
00064757358091ISENTO        VALMIR LUNKES                      RS 536 KM 01                                 00001               97930000INTERIOR       CAIBATÈ                       RS00553355100979966                          49AD613705652DBA8F40FD4DA96CA5AD
000190163100101008720681    ZILMAR SAUSEN                      RUA MON SENHOR WOLSK                         01624               97930000CENTRO         CAIBATÈ                       RS00000000000079911                          3A6D05DE32347CCB7980CA169FC3857A
000510851350047035417232    FRANCISCO VENDRUSCOLO CEOLIN       AV GETULIO VARGAS                            01010AP. 201 BL. B  98801570SOSSEGO        SANTO ¬NGELO                  RS00559993454779774                          F036507E7CA24A52088157034B246415
000472518080727026528302    INGOMAR GENZ NEUBUSER              LINHA DONA OTILIA                            00001               97970000INTERIOR       ROQUE GONZALES                RS00553884202779797                          640F382BE6043A62C52FB9121B95B034
000309681270533010137713    NELSON BOESING                     RUA CASTELO BRANCO                           00989               97920000CENTRO         S„O PEDRO DO BUTI·            RS00553369115379859                          64F29990DAD8087A2369F96BF02405D9
0003859142100017023913441   RUBEM HACKENHAAR                   RUA REINOLDO JACOBS                          00861               97920000CENTRO         S„O PEDRO DO BUTI·            RS00553369117779893                          0D17339A91B2DD189605C0E903A7C019
000356429710341011015086    ALOISIO SEIBERT                    RUA ROQUE GONZALES                           01540               97920000CENTRO         S„O PEDRO DO BUTI·            RS00000000000079733                          3ED48AF753FFDE7F86EC9021BED7C701
000245774990537008011211    ARCI GENZ BRATZ                    LINHA ESQUINA UNI„O                          00001               97920000INTERIOR       S„O PEDRO DO BUTI·            RS00000000000079686                          BB326A6FAC1E3F955961ACD6507F3168
93617488000181ISENTO        LUCIA HASS                         AV. JULHO SCHWENGBER                         01681               97920000CENTRO         S„O PEDRO DO BUTI·            RS00553369105179832                          FF5FFE46C6E2BF89CDEB01099374153A
00005999642949ISENTO        ORLANDO JOSÈ ADANS                 ESQUINA UNI„O                                00001               97920000INTERIOR       S„O PEDRO DO BUTI·            RS00000000000079890                          157EAA7B42F82AA50DEB0734C81B75BE
000451583980204035908468    DEONISIO TONIN                     RUA REINALDO JACOBS                          00839               97920000CENTRO         S„O PEDRO DO BUTI·            RS00553369106479739                          A02D061EF79E4BD2B217A7439651ADCF
000653429090159039745733    NEI JOSÈ LOEBET                    RUA ROMILDO SCHNEIDER                        01545               97920000CENTRO         S„O PEDRO DO BUTI·            RS00000000000079858                          9847087DE30B1587BF5ED819EF9D446E
000702590030341038045454    JOSÈ ANTONIO SOMAVILA              ESQ. RENDIM                                  00001               98850000INTERIOR       VITÛRIA DAS MISSıES           RS00000000000079826                          7056DAD4AFCFA7B5F30C48DFD888AF04
000393484660205019884823    DANIEL CASARIN                     RUA VICENTE MANUEL DE DEUS                   00031               98800000HORTENCIA      SANTO ¬NGELO                  RS00000000000079737                          0DC70980E1AEC57F8BA0ED143D87C19B
000892402780871062306905    ELTON ALCIONE TEIXEIRA GUEDES      AV RIO GRANDE DO SUL                         03336               98807130MISSOES        SANTO ¬NGELO                  RS00000000000079978                          5D2CACA0B009A96672D0AD62D7A5A447
000920610100591049890451    GIORDANI ANDRE DEZORDI             RUA MANOEL FERNANDES                         00270               98860000CENTRO         EUGÍNIO DE CASTRO             RS00000000000079779                          83F4FEA52B5323A6D7F3DF6716E177ED
000005189250219085315531    MIRIAN DIVA PRETTO                 RUA LEOPOLDINA ANGST                         01974               98803230JOSE A. OLIVIERSANTO ¬NGELO                  RS00000000000079833                          330C567B900507B433D33C02AA111280
000162895440048004391689    NELSON FONSECA DE MELLO            RUA BENTO GONCALVES                          00976               98801700CENTRO         SANTO ¬NGELO                  RS00000000000079857                          3A59491145F35EABE17A6A4C71654BF6
000022278090863084227028    ADRIANA DALLALIBERA                RUA S„O LUIZ                                 01860               97950000SANTA TEREZA   GUARANI DAS MISSıES           RS00000000000080013                          CC2A698352B5198D7E9DBA1DE852C796
000224042100256004066401    ALCIONE MACHADO                    ESQUINA S„O MIGUEL                           00001               98865000INTERIOR       S„O MIGUEL DAS MISSıES        RS00000000000080000                          51813985071AED16D4A00C6DE3A5FA46
000275343240682024437374    ANTONIO DE PADUA CASTANHO NASCIMENTRUA JO„O MIGUEL                              00061               98865000CENTRO         S„O MIGUEL DAS MISSıES        RS00553381134279706                          CA90E71A13BAD430EC7A1C773BD7C0E9
000309275790492002758361    DANIEL TEIKOWSKI                   RINC„O SANTA BARBARA                         00001               98865000INTERIOR       S„O MIGUEL DAS MISSıES        RS00553505709379743                          DCD0A0E59C9D5BA73CB9A58310001387
000441687300003151009974    ESPEDITO VICENTE CHIAPINOTTO       RINC„O DOS RIBAS                             00001               98865000INTERIOR       S„O MIGUEL DAS MISSıES        RS00000000000079759                          05ED806592E25A953D6224539C0B1D60
000283614400972009485448    JO„O BATISTA MARGUTTI              RUA SANTO ANGELO                             01007               98865000CENTRO         S„O MIGUEL DAS MISSıES        RS00000000000079816                          E729730B05B0E53E2F513BDA977AD3FC
000376319180152020041171    JO„O FLAVIO DAMI„O MARCON          ESQUINA S„O MIGUEL                           00001               98865000INTERIOR       S„O MIGUEL DAS MISSıES        RS00000000000079980                          068EEFE8EF3B0F84C160DC9F97BB18D6
000020336630194084407388    RODRIGO PEZZINI                    RINC„O DOS RIBAS                             00001               98865000INTERIOR       S„O MIGUEL DAS MISSıES        RS00000000000079885                          4219D10216B2C961D423E03B9AACDAFF
000312994580681054236326    SELVINO JO„O BUCHNER               RINC„O DOS CAVALHEIROS                       00001               98865000INTERIOR       S„O MIGUEL DAS MISSıES        RS00000000000079884                          03CA4D8ADE86DAB37473D19D27C5BB1A
000474460130871037726518    VALDIR ELOI PHILLIPP               SERRA S„O JOSÈ                               00001               98865000INTERIOR       S„O MIGUEL DAS MISSıES        RS00000000000079882                          DA499B8B72292EC73685D967F67BA414
000105869540155027038867    ARTUR VALDI DA SILVA ISSLER        RUA SENADOR PINHEIRO MACHADO                 00370               97970000CENTRO         ROQUE GONZALES                RS00553365126679708                          C9F7EEC9EF87702D27D7937124E49FCB
000332633370688006722733    ELVIO JO„O SARZI                   RUA PADRE MANOEL DE NOBREGA                  00470               97970000CENTRO         ROQUE GONZALES                RS00553365135179760                          A5F73826C7E545C370935242AD5EE20F
0002738881602040270474008   MIGUEL WELTER                      BAIRRO COTRISA                               02950               97970000COTRISA        ROQUE GONZALES                RS00000000000079973                          56CF0C2306E082FC36B88BC042B0E55C
0002882425309160021418125   SILVESTRE JOSÈ SCHER               RUA INDEPENDENCIA                            00195               97970000CENTRO         ROQUE GONZALES                RS00553365120179904                          0425B67F34189B27FA9DBC0425E5D382
000308204210492001895248    ALCINDO PEDRO BORTOLINI            VISTA ALEGRE                                 00001               98770000VISTA ALEGRE   CATUÌPE                       RS00000000000079715                          AE658CFDCA7E3F7CCAC6EECDDA0E6573
000388641690912029086465    ANTÙNIO GILBERTO FOLHARINI         TRES VENDAS                                  00001               98770000INTERIOR       CATUÌPE                       RS00000000000079714                          B59169B4797C75B30F9CCF44609F54D0
000991911990345041059022    CRISTIANO BERNARDI                 RUA CORONEL JOAQUIN RODRIGUES                00152               98770000CENTRO         CATUÌPE                       RS00000000000079987                          72FBEF96A678FAFD325FEFE33197C385
000523666930876041012615    GERSON GILMAR CARMELUTTI           RUA JOAQUIM RODRIGUES                        00984               98770000SANTA ROSA     CATUÌPE                       RS00000000000079852                          50AB8F1D921794D0A0692A792A137485
000645481120497044021135    IDOMAR FERRETTI                    SANTA TEREZA                                 00001               98770000INTERIOR       CATUÌPE                       RS00000000000079976                          10E91C36EEF90414839AF1CC14F899A3
00027539229004ISENTO        ISMAEL MARCHESAN                   RUA JOAQUIM RODRIGES                         01403               98770000SANTA ROSA     CATUÌPE                       RS00553336159679801                          2C0D8881A27C2F68168BCD22EEDEDA0C
000011646520448094619098    JOICE OLIVEIRA DOS SANTOS          RUA INDEPENDENCIA                            00406               98770000SANTA ROSA     CATUÌPE                       RS00000000000079986                          0F2C5DC5094B35530DECFA19A2D88A23
000494525410914039735255    ADEMIR GUSE                        RINC„O DAS CACHOERINHA                       00001ESQUINA GA˙CHA 98855000INTERIR        ENTRE-IJUÌS                   RS00000000000079711                          A2BB31A1955A23AE7CB6A13E2CF8EC70
000152890790683024422564    ALTIDOR FLORES DE OLIVEIRA         ESQUINA GAUCHA                               00001               98855000INTERIOR       ENTRE-IJUÌS                   RS00000000000079710                          56A12760CB8C3BDC9DD3E5830766D50E
000255540930009020874336    ANTONIO FELIPIN                    BRAULIO MARIO RIBAS                          01154               98855000CENTRO         ENTRE-IJUÌS                   RS00000000000079709                          E9249D71CF63745D5EE3140CE858140F
000488994100203039064633    ANTONIO MENEGHEIN JUNIOR           RUA BORGES DO CANTO                          00147               98800000PIPI           SANTO ¬NGELO                  RS00000000000079701                          C80C704A61C91CBD566D5C331231C383
000897871450153062303536    CRISTIANO SIDNEI BRISSOW           RUA CLEMENTINO PIZOLOTO                      01455               98855000CENTRO         ENTRE-IJUÌS                   RS00000000000079727                          B4AAE1F75EC4EC57DD12DA330DEC1D56
000332213830531017284041    DARI SCHULZ                        RUA FREDERICO BADE                           00267               98855000OZÛRIO         ENTRE-IJUÌS                   RS00553329139079744                          961E935C6B1E8C5C5D8BFA6EC0243385
000279711390048013414597    ELCIRA DALMAS MENGHINI             AV ADAO FELIPE PIPPI                         00222               98807000ROSA           SANTO ¬NGELO                  RS00000000000079750                          9256998B240F983DDA0185E4338F4F82
000654682870722032748151    ELOIR ROEHRS                       ESQUINA GA˙CHA                               00001               98855000CENTRO         ENTRE-IJUÌS                   RS00000000000079762                          05801866655DFA833092362C60652022
000368315730533016046041    ELOY GENZ                          ESQUINA GAUCHA                               00001               98855000INTERIOR       ENTRE-IJUÌS                   RS00000000000079981                          D3CEBFD9BBCF91D7D03D2FC71132E812
000419977430001026796886    EUGENIO WEBER                      RINC„O DOS QUEIROS                           00001               98855000INTEIROR       ENTRE-IJUÌS                   RS00000000000080014                          1881D5ECA5D414AC0D3F585E3AFC60FE
000485490020207039735357    FRANCISCO ALBERTO PRESTES          ESQUINA GAUCHA                               00001               98855000INTERIOR       ENTRE-IJUÌS                   RS00000000000079773                          0340E95204380DC5EBF63FD7C42170B9
000896416980872055965848    HERCULANO CAMARGO DE OLIVEIRA      RUA INTEGRAÁAO                               00352SAL 02         98855000CENTRO         ENTRE-IJUÌS                   RS00000000000079785                          3A7FBC7A62ACA55ED9C70244D11F85F6
00077264363015ISENTO        HILMAR SCHEPKE                     ESQUINA MARCEL                               00001               98855000INTERIOR       ENTRE-IJUÌS                   RS00553329106279944                          871185BCBE9914EF68792F666FCDA057
000336225400443018061956    JORGE ANTONIO DEZEM                RUA 3 DE OUTUBRO                             00679CX. POSTAL 001 98801970CENTRO         SANTO ¬NGELO                  RS00000000000079803                          3A8D37B26A14474E6E89F58CF18F19E7
00005838444053ISENTO        LEVINO WEIDNANN                    RUA BRAULIO MARIO RIBAS                      00437               98855000CENTRO         ENTRE-IJUÌS                   RS00000000000079948                          A8DA1AEB1F9A11BC90B3C0562577270C
00040301842000ISENTO        SANTO LUIS PEDÛ                    RUA DOS IMIGRANTES                           00500               98801280OLIVEIRA       SANTO ¬NGELO                  RS00000000000079959                          5555E5DF062A6D3F852CE2E1C53AFD53
000654681630041047862303    TANIA SCHAURICH                    ESQUINA CARAGUATA                            00001               98855000INTERIOR       ENTRE-IJUÌS                   RS00559928892879906                          4199C13B6090F99B84C845F08A1979E7
000043231730914017776768    AMARAL SOMAVILA                    ESQUINA EVANGÈLICA                           00001               98850000INTERIOR       VITÛRIA DAS MISSıES           RS00553614410479697                          001653555C346E24DD46530A269146E1
000702577870201051541223    CLAUDIO STEINHORST                 ESQ. BARICHELLO                              00001               98850000INTERIOR       VITÛRIA DAS MISSıES           RS00000000000079734                          AF8B3AFBFDE3592BE730542BAAAC03DC
000445947390911034894814    EDEGAR MINETTO                     RUA DOS IMIGRANTES                           00693               98850000CENTRO         VITÛRIA DAS MISSıES           RS00553614415379765                          23CB5B272845400994F6AFA5D5C0DB7C
000275531400152010048491    FABIANO DOS SANTOS MOURA           RUA S„O JO„O BATISTA BR. 285 KM 512          00001               98850000ESQUINA MOURA  VITÛRIA DAS MISSıES           RS00000000000079935                          526D51F75428066B93B317012D496EE6
000559029520342053296411    LAURI MINETTO                      RUA DOS IMIGRANTES                           00541               98850000CENTRO         VITÛRIA DAS MISSıES           RS00000000000079827                          F92F44AF73333AAFE1B0D9EA6484B2B7
000449875520001034955029    NELIO MINETTO                      RUA DOS IMIGRANTES                           00567               98850000CENTRO         VITÛRIA DAS MISSıES           RS00553614419079913                          5F854FA87546016D563DF6BCDFE1E891
000357956540006020166887    OLINTO BURIN                       RUA 20 DE SETEMBRO                           00001               98850000CENTRO         VITÛRIA DAS MISSıES           RS00553614415179914                          6F9F441911FEE986814A1EFB08BCE8B1
000423490280201029137112    PAULO ROBERTO COLETTO              RUA DOS IMIGRANTES                           01373               98850000CENTRO         VITÛRIA DAS MISSıES           RS00553614421479915                          80D26DFDF3B4C9858624BD99F7627D7C
00045157910010ISENTO        ELOI BREMM                         BUTIA INFERIOR                               00001               97920000INTERIOR       S„O PEDRO DO BUTI·            RS00000000000079778                          B4C1D3670EDF583ED9229646A9A9EE53
00027572609015ISENTO        ILDO JOSÈ SCHERER                  BUTI· INFERIOR                               00001               97920000INTERIOR       S„O PEDRO DO BUTI·            RS00000000000079796                          7E962790880AC75FF29B9A0A39725791
00033234361053ISENTO        RICARDO LUIS STEFFENS              VILA BUTI· INFERIOR                          00001               97920000INFERIOR       S„O PEDRO DO BUTI·            RS00000000000079895                          02C38AE579445A8D58F58DE1D0C3F4D4
000705417010531064598251    PAULO CESAR ZAMIN                  TRAVESSA EDMUNDO STEIN                       00160               98955000CENTRO         NOVO MACHADO                  RS00000000000079880                          AC17F0C2F258B85C983DCAE40B244771
000034263780009026508052    BENO INACIO SCHMITT                ROLADOR ALTO                                 00001               98960000INTERIOR       SANTO CRISTO                  RS00000000000079994                          BC097EA40BD989E8C85A1A19AD530ACA
000217077580343021736586    ATILIO LUNARDI                     RUA LEONEL IEGER                             00393               98940000CENTRO         TUPARENDI                     RS00000000000079676                          FF558742495EDB774452A3D5D5387B51
000217237100912024103489    FELIX CAPPELLARI                   RUA PEDRO BALUS                              00070               98940000CENTRO         TUPARENDI                     RS00000000000079775                          4329F2BE4782CA85E1753E5CEFA7B130
000489435500061035973955    BERNARDO ZALAMENA                  RUA HELMUTH GERLOFF                          00454               98940000INTERIOR       TUPARENDI                     RS00000000000079680                          31494831DEC3EE0ABED8D0A4AF4BC0A7
000801937060919057020613    CESAR LUIS DILLMANN                LINHA BELINHA CENTRO                         00001               98960000INTERIOR       SANTO CRISTO                  RS00000000000079721                          B544435398D348141C918FCE25E1E692
000245716600494021275948    CLAUDIO FRANCISCO DALCIN           VILA S„O ROQUE                               00001               98940000INTERIOR       TUPARENDI                     RS00000000000079725                          6BDB644C99CD658272965CD283B7FF7C
000460555090916044700414    IVAR DUARTE                        LAJEADO MANCHINHA                            00001               98900000INTERIOR       SANTA ROSA                    RS00000000000079982                          350CD7A035CB4E47A74D7A12EBDE9A61
000441836580046034973435    MILTON JOSÈ DIEL                   LINHA ROLADOR BAIXO                          00001               98960000INTERIOR       SANTO CRISTO                  RS00000000000080004                          51A0648CFF0071ACB5AC598B9C07EE19
000551078180723042611933    VITOR ANTONIO CARPENEDO            VILA S„O ROQUE                               00772CXP.:2576      98940000CENTRO         TUPARENDI                     RS00000000000079920                          22D9226BFF1E28E9FB211A4591CFC098
000523002930727044727845    DECIO RAMBO                        VILA SIRIO                                   00001               98960000INTERIOR       SANTO CRISTO                  RS00000000000079995                          5281E6E2777B06826A251173830AB996
00044722320063ISENTO        ERALDO RAMBO                       VILA SÌRIO                                   00001               98960000INTERIOR       SANTO CRISTO                  RS00553541504879751                          F5B20307CEEDB30AD4491C900BECB5DD
000602708880045050150621    JO„O ROQUE MADERS                  DONA BELINHA                                 00001               98960000INTERIOR       SANTO CRISTO                  RS00000000000079819                          A907C727871F6F813893A65F0EC30E1B
000962891470728056355798    ANGELA DE FARIA MARASCHIN          RUA JULIO LEOPOLDO RAUBER                    00162               98900000CENTRO         SANTA ROSA                    RS00000000000079702                          2910AFEA56CB51BE4E811E3DB066C2BF
00021696624053ISENTO        ROMEU ALOISIO LOEBENS              RUA VEREADOR ASSMANN                         00585               98960000CENTRO         SANTO CRISTO                  RS00000000000079868                          8F657656EB312686428688C54FCAEA4C
000438424020151026770188    SERGIO FRANCISCO CAPPELLARI        GUIA LOPES CXP.:38                           00001               98900000INTERIOR       SANTA ROSA                    RS00553513928179918                          5146189AA860C530633A3E7308939B1E
000332306410004009708365    VALDERINO WIELAND                  LINHA SETE DE SETEMBRO NORTE                 00001               98900000INTERIOR       SANTA ROSA                    RS00000000000079989                          77F4FAFBFC2D3B00645321A5E13B045C
00033215391015ISENTO        DÈCIO BOKORNI                      LINHA SALTO                                  00055               98960000CENTRO         SANTO CRISTO                  RS00000000000079740                          A8E937C267D6376F5FA3D0567A436ABD
00078408555987ISENTO        MARIA INES JOHANN K¸LZER           RUA 25 DE JULHO                              00133               98960000CENTRO         SANTO CRISTO                  RS00000000000079936                          4FD3390D5C275E4FC38482AB9C5F1BBB
00054855020087ISENTO        MILTON BRUISMAMM                   LINHA DIVISA                                 00001               98960000INTERIOR       SANTO CRISTO                  RS00000000000079840                          746549F723B1310E36E8BBACF2F85CB4
000892294870151042321933    MIRIA INES BECKER DIEL             LINHA ROLADOR BAIXO                          00001               98960000INTERIOR       SANTO CRISTO                  RS00000000000079843                          EAF47F18B3530A48AC47D5C297EDC686
00044169051068ISENTO        PAULO CEZAR BOGORNI                LINHA SALTO                                  00001               98960000INTERIOR       SANTO CRISTO                  RS00000000000079867                          C3C72ECAAEEE196D1174FE498500078A
000309172710685069321874    ROMEU JUNG                         LINHA SALTO                                  00001               98960000INTERIOR       SANTO CRISTO                  RS00000000000079875                          BA5331AE54C7EC3CACBC5158E37C6070
000411008160201026453711    ROQUE BENTO KNEBEL                 RUA AMANDAU                                  00097SALA 05        98960000CENTRO         SANTO CRISTO                  RS00000000000079876                          9BC205DFFABBDAB37FFF5FF74DDABB66
00036488356020ISENTO        WALDIR LUIS PETERS                 LINHA DIVISA                                 00001               98960000INTERIOR       SANTO CRISTO                  RS00000000000079873                          6F8512CBAE3E5C7DC67DC7C454DCFD29
000599232700251127453206    ADELAR BERNARDI                    CINQUENTENARIO                               00001               98940000INTERIOR       TUPARENDI                     RS00000000000079674                          258E481D17E99AF2867A2C6AF4245CFD
000555777170001044705984    ADELIR ROPKE                       CINQUENTENARIO                               00001               98946000INTERIOR       TUPARENDI                     RS00000000000079675                          2EC1648791586EAF888C5C61B61A72E5
000438432800104035806258    ADEMAR PALAVER                     RUA RIACHUELO                                00017               98940000CIQUENTENARIO  TUPARENDI                     RS00000000000080017                          A26E0484B7E3B37A22C6D2F74A4C83D2
00030901820091ISENTO        ADELIR TRENTIN                     CINQUNETENARIO                               00001               98940000INTERIOR       TUPARENDI                     RS00000000000079972                          0D30DE8047FC1BDA8BD8B0B88042C6CF
000757984920879044712819    ELAINE M¸LLER BATAGLION            CINQUENTENARIO                               00001               98946000INTERIOR       TUPARENDI                     RS00000000000079755                          1DD8B39749D7650330E3E1CB4A955A0D
000757978790341052373386    ELTON ABITANTE                     CINQUENTENARIO                               00001               98940000INTERIOR       TUPARENDI                     RS00000000000079756                          53CF9C4D84F769BCFAF030F2CD6F158F
000273879250204024716989    HELDER MARIN                       CINQUENTENARIO                               00001               98946000INTERIOR       TUPARENDI                     RS00553595114979786                          223FE94A59B20E7CC113E66A66254053
000387953700306012480213    IRES PERIN JASKOWIAK               CINQUENTENARIO                               00001               98940000INTERIOR       TUPARENDI                     RS00553595107479791                          FC78AA07E68CE5A28B4EBADBD7764873
000387923890157022159136    IVO JO„O RIGON                     CINQUENTENARIO                               00001               98946000INTERIOR       TUPARENDI                     RS00000000000079790                          ED0D31AB66046AB9B1C4702F478029BF
000245708690687010050099    JAIR ANTÙNIO BRUM                  VILA CINQUENTENARIO                          00001               98946000INTERIOR       TUPARENDI                     RS00553595102079814                          33EE708F65D4095E55F5173315035D85
000937912080046068683405    JHONI FACCHINELLO                  VILA CINQUENTENARIO                          00001               98946000INTERIOR       TUPARENDI                     RS00553595106379813                          ADBF37FA1D7813CEC26BD3D980455C70
000493224940345012287297    JULIO CEZAR BRUN                   VILA CINQUENTENARIO                          00001               98946000INTERIOR       TUPARENDI                     RS00553595112379815                          9D33E5DCFF3FF0C07352D625483890E8
000938464360201018617934    LEONARDO DE CONTI                  VILA CINQUETENARIO                           00001               98946000CENTRO         TUPARENDI                     RS00000000000079830                          6EE35D9A33997C18E1A027B58862F472
000387931640684019698911    LUIZ CARLOS ZAMIN                  VILA CINQUENTENARIO                          00001               98940000INTERIOR       TUPARENDI                     RS00553595105279828                          5868B3D322C4EBC7C9CA45905CBFDA93
0001165847906810230186797   LUIZ PIROCCA                       VILA CINQUENTENARIO                          00001               98940000INTERIOR       TUPARENDI                     RS00553595105579829                          181C5EA938276FE7DCAEDA40C1904482
000927731840687062411595    MARCELO BIN                        CINQUENTENARIO                               00001               98946000INTERIOR       TUPARENDI                     RS00553595112979850                          37CAE288C6278E5AE5BE8D570DD3EDF5
000946443140721073683714    MARCIO ANDRE GOLIN                 CINQUENTENARIO                               00001               98940000INTERIOR       TUPARENDI                     RS00000000000079971                          3058D57575026B5E8589D53B914D06C6
000911116760203052373391    MARCOS ANTONIO BERNARDI            S„O JOSÈ DO MAU·                             00001               98947000INTERIOR       PORTO MAU·                    RS00000000000079851                          45DD9EAB915279DA8741A80D1F79DE70
0001346057907280028245      OMAR BIN                           VILA CINQUENTENARIO                          00001               98946000INTERIOR       TUPARENDI                     RS00553595100179923                          FE2C740986CD6922F6BEADE6599BDCBB
000199527160879018152257    VILI NERI MAYER HEMMIL„            RUA URUGUAIANA                               00046               98900000SULINA         SANTA ROSA                    RS00000000000079919                          CAA4925947618365BC2BB5AF9BF0784B
000885212570155025382135    HERTA REGINA CASSEL                RUA TOLEDO                                   00105               98900000VILA ESPERANÁA SANTA ROSA                    RS00553512387580005                          A7C9A19B41180910803270D39038EA9D
000275286420539011155927    MILTON CARLOS ABEGG                RUA JULIO LEOPOLDO RAUBERT                   00162               98900000CENTRO NORTE   SANTA ROSA                    RS00000000000079846                          155C5BB921AAEFA2B90804A25EF27C91
000664236940873051530537    ELEANDRO ALEXANDRE KOCHHANN        RUA OSVALDO CRUZ                             00225AP. 301        98900000CENTRO         SANTA ROSA                    RS00000000000079767                          7AB66F1263DEB90D265E89FED173B344
000247150340341001508041    ALFREDO JANSTCH                    RUA GUAIRA                                   00520VILA ESPERANÁA 98900000S„O FRANCISCO  SANTA ROSA                    RS00000000000079703                          1D6EA9260022763C6662BDE90B983CF1
000275116000005014604903    LUIZ CARLOS BECKER                 RUA SINVAL SALDANHA                          00405               98900000PLANALTO       SANTA ROSA                    RS00553511117779818                          2148C028583FB6FE1EF1D2F37FDF04E2
000212555470492009618584    LUIS FRANCISCO SCHENEIDER          LINHA PASSO NOVO                             00001               97930000INTERIOR       CAIBATÈ                       RS00000000000079824                          0A8652C1E13E49D152A19AB57BE9693D
000460942020151034161529    LEANDRO FRIZO                      AV. BORGES DO CANTO                          00975               98865000CENTRO         S„O MIGUEL DAS MISSıES        RS00000000000080021                          C93A0D67D948D9B4A3095F55C9A0EACB
000828673050047083440987    SILVANA SILVEIRA DOBLER            AV BRASIL                                    00165               98801590BOA ESPERANCA  SANTO ¬NGELO                  RS00553505701879883                          5121DAD3EF1E57FE3D0560C12FF0B18E
00037747010087ISENTO        GERVASIO JOSE LOFF                 RUA MATO GROSSO                              00049               98960000CENTRO         SANTO CRISTO                  RS00000000000079943                          A239BAF0BE5C30179588619E94A82E4A
00074919008015ISENTO        JAQUELINE MIETH                    RUA MINAS GERAIS                             02490               98960000CENTRO         SANTO CRISTO                  RS00553541259679807                          6E73ED428C170DF2D00C3AA18A022FE6
00030988667053ISENTO        AFONSO K. KUNKEL                   LINHA SANTA TEREZINHA                        00001               97920000INTERIOR       S„O PEDRO DO BUTI·            RS00000000000079683                          A9D6C2BE5BD69F2DA8D5189C61E823BF
000515209400251026528371    EVANIOS GRUNDEMANN FENNER          ESQUINA FATIMA                               00001               97970000INTERIOR       ROQUE GONZALES                RS00000000000079761                          1107CE533B9A799CA61FDC7C6B33C5CA
000332338880152020215195    INACIO LUIZ KIPPER HASS            VILA DONA OTILIA                             00001               97970000INTERIOR       ROQUE GONZALES                RS00000000000079798                          F2C3EAB835BC52C7D57C9DDD9D8F55CE
000357290150208022735933    JO„O AFONSO KOTZ                   ESQUINA FATIMA                               00001               97970000INTERIOR       ROQUE GONZALES                RS00000000000079800                          F00D3B824E175D7DD564263BC36E8EF7
00000049273035ISENTO        JUNIO SCHARDONG                    RUA 25 DE JULHO                              00001               97920000INTERIOR       S„O PEDRO DO BUTI·            RS00000000000079804                          088733AD1EFCE56E2AAEDE88395B5BCF
000457669400681039741804    LAURI HECK                         LINHA TAIP„O FRENTE                          00001               97920000INTERIOR       S„O PEDRO DO BUTI·            RS00000000000079831                          79EECF7D247F57CAB4BF5D0587CDAAA3
000588749920687027851976    NEDI LEONORA MAYER MATTES          RUA PEDRO THOMAS                             00702               97920000CENTRO         S„O PEDRO DO BUTI·            RS00553369111679860                          BC583D081BFD219BD723C93773585B28
00030980640059ISENTO        OLANDO LIMBERGER                   TAIP„O FRENTE                                00001               97920000INTERIOR       S„O PEDRO DO BUTI·            RS00000000000079956                          951EAD2865CF8D01FBCF053E833BB005
0000358569702020115832922   ROQUE ARENHART                     ROMILDO SCHNEIDER                            00910               97920000CENTRO         S„O PEDRO DO BUTI·            RS00000000000079891                          049A8DFE5171A99F03CD3D4E9DF45BD3
000372458130001035054591    ROQUE INACIO ANGNES LIMBERGER      LINHA SANTA TERESINHA                        00001               97920000INTERIOR       S„O PEDRO DO BUTI·            RS00000000000079894                          A3E6689ABA568B983D7A9C71B7B0078F
00043368484087ISENTO        VIRO LIMBERGER                     VILA TIP„O                                   00001               97920000INTERIOR       S„O PEDRO DO BUTI·            RS00000000000079900                          06253464FE67108B6010A1913C40D5B2
000523705930915014958853    ALBANO ALLES                       S„O FRANCISCO                                00001               97900000INTERIOR       CERRO LARGO                   RS00000000000079699                          56CB27642F6AC18C7F25E113FFF870C5
00030884870006ISENTO        NOLAR ALLES                        SAO FRANCISCO                                00001               97900000INTERIOR       CERRO LARGO                   RS00553505753879856                          44CBF358EACCC35363393CBB97D2694F
000331013880153017632351    ADEMIR JOSE CAPELLETI              COLONIA DAS ALMAS                            00001               98770000INTERIOR       CATUÌPE                       RS00000000000080042                          8C7CCF2AD790C5FC58262C0F0F20497D
000035384860343023099033    ELCIR ANTONIO BRAIDA               RUA JOSÈ MOTTA                               00981               98770000BAIRRO OPER·RIOCATUÌPE                       RS00000000000080037                          5AE658B6D5241FA088705961B4B579ED
000232095770725001328813    JOSE ANTONIO PAZE                  COLONIA DAS ALMAS                            00001               98770000INTERIOR       CATUÌPE                       RS00000000000080035                          E75B1E423727555197459F2B154E7386
000705474830158055833688    JOSE ROQUE GERLACH                 RUA LAUARDA                                  00235               98900000WINKELMANN     SANTA ROSA                    RS00000000000080029                          6180D6F174E837DBEF04E1E4EF7BEEDA
01945082000100ISENTO        ABATEDOURO GALLAS                  RUA DOM PEDRO II                             01627               98960000CENTRO         SANTO CRISTO                  RS00000000000079741                          571B5820177708B1D3C1411ACAA06C6D
87685459000154ISENTO        SINDICATO TRABALHADORES RURAIS DE ARUA MARQUES DO HERVAL                        00255               98950000CENTRO         ALECRIM                       RS00000000000079964                          619DC2AB24E3D90BEDBF665EFFD15007
03017098000188ISENTO        CAMARA MUN. DE VEREADORES CANDIDO GRUA SEPE TIARAJU                             00057               98970000CENTRO         C‚NDIDO GODÛI                 RS00553548153180062                          B58B16B7A9C0D4BC90357FE4C40FE865
93845519000151ISENTO        PREFEITURA  MUNICIPAL DE PORTO MAUARUA URUGUAI                                  00155               98947000CENTRO         PORTO MAU·                    RS00553545114680039                          8C06EED977E37F82B570CB9C50C31391
000460836420005027156511    RODOLFO SCHONS                     VILA SANTA CATARINA                          00001               97940000INTERIOR       SALVADOR DAS MISSıES          RS00000000000079889                          D9BA1952A69304D4CD5B4D7B017469F0
000986977140871074624915    ADRIANO LUIZ LUNARDI HECKLER       RUA EDGAR ARTHUR ANDERSON                    02250SEDE COTRISA   97950000CENTRO         GUARANI DAS MISSıES           RS00000000000079985                          62AC66B866876C7F34420D9A73AF7E96
000002649600334065371439    ROBERTO THIELE                     RUA MARECHAL DEODORO                         02170               98960000CENTRO         SANTO CRISTO                  RS00553541116179671                          969149FEB5F2733CD77EEAD19478658C
00080541704087V138243VRNE   GERHARD JANOCHA                    RUA 7 NORTE                                  00058CXP. 181       989000007 DE SETEMBRO  SANTA ROSA                    RS00553513204280051                          09787EA1D56875B0156ECF76476F9FC9
000472516700205035104545    ANTONIO NIESEIUR NETO              AV ALVORADA                                  00231               98970000CIDADE         C‚NDIDO GODÛI                 RS00000000000079704                          A4DCCB4A7E7C9A6916D3D9FF8CEB0352
00018988270010ISENTO        GABRIEL HORN                       LINHA TAQUARAÁU                              00001               98960000INTERIOR       SANTO CRISTO                  RS00000000000079941                          77955F2E0F66649B09D91B8075E1DEF5
00099965631034ISENTO        GEOLAR SCHNEIDER                   RUA MARECHAL DEODORO                         02371               98960000CENTRO         SANTO CRISTO                  RS00000000000079781                          4D7913CF991850506B763BC2C480FEBA
000671187710151042692572    ILMO ELOI DILLMAN                  LINHA DONA BELINHA                           00001               98960000INTERIOR       SANTO CRISTO                  RS00000000000079795                          64C25FE5403ED880199B5EEFB9377C44
00068566271068ISENTO        PAULO ROBERTO CONRAD               RUA OLAVO BILACK                             00480               98960000CENTRO         SANTO CRISTO                  RS00000000000080006                          EC629D3F2F68DA822A0E26F08F259BA2
000685668400201050398666    VALMIR JOSÈ STEFFENS               RUA DOM PEDRO II                             02606               98960000CENTRO         SANTO CRISTO                  RS00000000000079871                          167740160464EC3C4C6104671F5E37EF
00000879661070ISENTO        VANDERLISE INÍS ANGST              LINHA ALMA                                   00001               98960000INTERIOR       SANTO CRISTO                  RS00000000000079870                          F0F8F22680FB76DEA85A97422055A535
00063799138072ISENTO        VANILSON FROELICH                  RUA INOCENCIO GALLAS                         00765               98960000S„O CRISTOV„O  SANTO CRISTO                  RS00000000000079967                          BF163EA88B7296EA3D69EC3D551D522B
000332233430919013302279    JO„O JORGE BORCOWSKI               VILA SANTA TEREZA                            00001               98975000INTERIOR       CAMPINA DAS MISSıES           RS00000000000079806                          B6DFF7D46B62E9981D48A90993A97F5E
000727001060917029620106    LEONORA GLECI GROSMANN             AV. PINDORAMA                                00230               98970000CENTRO         C‚NDIDO GODÛI                 RS00000000000079821                          927625B85FCB4F29A6DE51B4AC17489C
000812712120721076085347    ANDRE RODRIGO HELDT                RUA TRAVESSA GEISS                           00082               98802490GEIS           SANTO ¬NGELO                  RS00000000000079990                          B229F7ED43436EA58BB3D36AB5A7D880
000043855780871023891136    ATILIO ROQUE REISDOERFER           AV. JULHO SCHWENGBER                         00645               97200000CENTRO         S„O PEDRO DO BUTI·            RS00553369112079685                          DFDA803CC1C8081095FDC0568906D14C
000997418900441083572048    CLEBER BIRMANN                     RUA BELMIRA TERRA                            00045               98770000CENTRO         CATUÌPE                       RS00000000000079722                          0FB21DA05BB1CF2EF332C4612C558369
000332392070877051732878    JURACI LUIS BIRCK                  ESQUINA SANDRI MOSCOU                        00001               97900000INTERIOR       CERRO LARGO                   RS00000000000079811                          DCBC7EFC13E657AE3B4249F15A030E05
00035350636049ISENTO        NEILA TERESINHA LEAL SCHLOTEFELDT  RUA MONSENHOR                                01239               97930000CENTRO         CAIBATÈ                       RS00000000000079864                          D3A71632660D803E6DC5809A744470BE
000224032210154014777488    VALMIR FELIPO ROSSO                RUA IJUI                                     00082               98770000SANTA ROSA     CATUÌPE                       RS00000000000079887                          B1B5EC2BDFB5869943B3688835D1C2DA
000375240970343024608238    JANDIR INACIO HIPPLER              RUA S„O LEOPOLDO                             00950               97935000CENTRO         MATO QUEIMADO                 RS00000000000079984                          9C8CB4D74BACDE0ACF21A61AF689BF06
000367182110875023963641    ADEMIR LUIZ FELIPIM                RUA CAP. OSORIO HILGENFRITZ                  00405               98770000CENTRO         CATUÌPE                       RS00553336157580057                          446837413EDFAABCF839B0225EE7480E
000578278180725042018796    ANTONIO BENETTI MORISSO            VISTA ALEGRE                                 00001               98770000INTERIOR       CATUÌPE                       RS00000000000080058                          69AB95FEA1560DBE59A4DA7563C2EAC1
000693310730207038738725    MARCOS DE SOUZA BOAVENTURA         RUA DAS MAGNÛLIAS                            00473AP. 06         98900000OURO VERDE     SANTA ROSA                    RS00000000000080045                          8256A3451CAD24412DB854E2C38B7A33
00081244282049ISENTO        GABRIEL WERNER KNAPP               AV. DOM PEDRO II                             02163CXP 14         98960000CENTRO         SANTO CRISTO                  RS00000000000079942                          AEA7592419AAACBE83163E415CC07472
00046634029091204229921     LUIZ CARLOS GERAHARDT              ROLADOR BAIXO                                00001               98960000INTERIOR       SANTO CRISTO                  RS00000000000080074                          60F522765CCCC5B2A065DD8826FEC971
00076677150097ISENTO        MARCOS MAYER                       LINHA THOMAS                                 00001               97935000INTERIOR       MATO QUEIMADO                 RS00000000000080069                          293B92EABFFD523762889F99D5D811F8
87612818000143ISENTO        MUNICIPIO DE SANTO CRISTO          RUA 25 DE JULHO                              00133               98960000CENTRO         SANTO CRISTO                  RS00000000000080847                          A663887FA67B2FF101143430CF4A3B1B
93592731000154ISENTO        PREFEITURA MUNICIPAL DE SALVADOR DAAV. INDEPENDENCIA                            01131               97940000CENTRO         SALVADOR DAS MISSıES          RS00553358110180858                          80219F18459FC9ADB3D7C3C01364D880
89504179000128ISENTO        ESCOLA MUNICIPAL E. F. S„O PAULO   ESQUINA GAUCHA                               00001               98855000INTERIOR       ENTRE-IJUÌS                   RS00553329400079992                          92C6DD43DC049C9E8DA020F86E26F104
000460411760879026468216    NELSON ZIMMER                      LINHA REVOLTA                                00001               98960000INTERIOR       SANTO CRISTO                  RS00000000000079988                          6876F8F00EE1B7C6155402D37CC60E35
000370150950687036324262    EUGENIO SLODKOWSKI                 LINHA HARMONIA SUL                           00001               97950000INTERIOR       GUARANI DAS MISSıES           RS00000000000080075                          C3F8C90E4B94CBF954135CCD842B6D45
000384782260876014901141    JOAO WILMAR BACKES                 LINHA ROLADOR BAIXO                          00001               98960000INTERIOR       SANTO CRISTO                  RS00000000000080077                          EEEC53CA0F08E7710263A1B52AC24269
000158205480002032539336    JOAO PIVOTO TABILE                 LINHA HERVAL NOVO                            00001               98960000INTERIOR       SANTO CRISTO                  RS00000000000080078                          F03191748CAE416742085BD3361F9B74
87613006000112ISENTO        PREFEITURA MUNICIPAL DE CAIBATE    AV. PADRE REUS                               01582               97930000CENTRO         CAIBATÈ                       RS00553355130080016                          99CFE103BA1FBDE36DCD47ABBD164D8B
89971782000110ISENTO        PREFEITURA MUNICIPAL DE ENTRE-IJUISRUA FRANCISCO RICHTER                        00601               98855000CENTRO         ENTRE-IJUÌS                   RS00553329115579933                          9A2AA8EF5A22D0EBCB9ACD1AF6A46DB3
000646273900258042692254    ADEMIR LUIS DE OLIVEIRA            RUA PRESIDENTE COSTA E SILVA                 01420               98960000INTERIOR       SANTO CRISTO                  RS00000000000079691                          FF8B66B4460D6D9AB31457E982E8FB6B
000332596070724017573801    INES PERIN                         RS 344 KM 38                                 00481               98947000INTERIOR       PORTO MAU·                    RS00000000000080079                          18FA4ED04E7CB59D368CD84E9B0461FA
000230422900006022939869    IRIO KAFER                         LINHA CASTOR                                 00001               98960000INTERIOR       SANTO CRISTO                  RS00000000000080056                          8AE37453AF4D789DBD286C24AD458990
000006741430351076459872    JAQUIELI OLIVEIRA SANTOS           AV. URUGUAI                                  02660               98940000CENTRO         TUPARENDI                     RS00000000000080038                          344FBC08E63D8DC3D28BA7FAC9F413BB
000249966020152019594429    JOSÈ CELSO PHUL                    DONA BELINHA                                 00001               98960000INTERIOR       SANTO CRISTO                  RS00553541194080012                          06A620B45338E33FB714A1074F280778
000557650760684032356273    LUIZ ROMEU CHRISTOPH               LINHA LARANJEIRA                             00062               98960000INTERIOR       SANTO CRISTO                  RS00000000000080049                          7935B80FF38DE31F3D75FA7C23353562
000464637120003031423696    MAURI MOLINARI                     CINQUENTENARIO                               00001               98940000INTERIOR       TUPARENDI                     RS00553525108580044                          4AEF9EA761422E9B6E5185E49255B255
000557651300201042282405    VALDEMIR JOSÈ ULLMANN              LINHA ALMA                                   00001               98960000INTERIOR       SANTO CRISTO                  RS00000000000079996                          1459A16D7A61FBB9CBDD06FA250E88B3
000309167710917010652431    WALDIR JOSE ASSMANN                LINHA DONA BELINHA                           00001               98960000INTERIOR       SANTO CRISTO                  RS00000000000080072                          3EAF3A70024D6D131FA0E6FB111A57B0
000357021090151030469521    HILARIO JACOB ENGELMANN            LINHA DONA BELINHA                           00001               98960000INTERIOR       SANTO CRISTO                  RS00553541194080061                          D169C4F65D2949E0D41F5A542448A280
000473707500002201035088    ADEMIR VENZKE BERVALDT             VILA DONA OTILIA                             05600               97973000CENTRO         ROQUE GONZALES                RS00000000000080054                          08DF6307CB7D5FBDD853805769522336
000330974880497041028866    ALMERI VICENTE GAITA               AV. THODOMIRO LUCIANO DE SOUZA               00131               98770000CENTRO         CATUÌPE                       RS00000000000080041                          F6D76F54EBB0BAFC7DB6AABEA94371DF
000822835910156064339333    ANDERSON OLIVEIRA BAPTISTA         CARAJAZINHO                                  00001               98855000INTERIOR       ENTRE-IJUÌS                   RS00000000000080053                          2E90E0BCBAB35F921C5821A3F706B69B
000116220670532025891835    ARMELINDO ROSIN                    VILA DONA OTILIA                             00001               97970000INTERIOR       ROQUE GONZALES                RS00000000000080019                          F34B8B1A71CC9778D1CF34B8F3639332
000424845370349030194519    CARLOS EDGAR CAUDURO               COLONIA DAS ALMAS                            00001               98770000INTERIOR       CATUÌPE                       RS00000000000080036                          6A0B53FBA58A6CE99E04AF11BCEE34FB
000289098600497009735197    CELSO JOSÈ SCHONS                  RUA 25 DE JULLHO                             01331               97920000INTERIOR       S„O PEDRO DO BUTI·            RS00553369120279723                          0495990BC59C996C698DDF7EA3654CE5
000308226450684014599148    ELIO DAMBRÛS                       RINC„O DOS DAMBROS                           00001CXP. 09        98770000INTERIOR       CATUÌPE                       RS00553305723279747                          2903E278B2FDE483E721C5590AFC8E7F
000003861210015084720647    JAMIR DA SILVA MORAIS              R QUINZE DE NOVEMBRO                         00488APTO 301 - BLOC98801620CENTRO         SANTO ¬NGELO                  RS00000000000080065                          6D387B3F9F3F3995A51D971997BD1383
000227302570041029033551    JO„O BATISTA SPIES                 RUA SETE DE SETEMBRO                         01181               97920000CENTRO         S„O PEDRO DO BUTI·            RS00000000000080055                          FEB8C1EF9C2F17A3E36FF460C95E3290
000162887690531024466136    JOSE ANTONIO KAPP                  RUA VILARIM RODRIGUES                        00446               98770000CENTRO         CATUÌPE                       RS00000000000080024                          622D639C2D776E03D8D9E326F697A8F9
000898707430728051543448    LETICIA SULIS ZWEIGLE              BR 285 KM 496                                00001               98865000INTERIOR       ENTRE-IJUÌS                   RS00000000000080026                          EDDC05BFE3A6090C0D6745B3BAF26825
000309256220872023025378    MANUEL FANFA DO AMARAL             RUA PE. CRISTOV„O DE MENDONÁA                00920               98865000CENTRO         S„O MIGUEL DAS MISSıES        RS00553381138380046                          77A3AC4B55C7AE94FE71E64621BCEF5F
000434428890493027044688    MAURO JOSE HARTMANN                RUA S„O LEOPOLDO                             01145               97935000CENTRO         MATO QUEIMADO                 RS00000000000080040                          ADB873AA209136BFCB243B40A8F5B0B8
000009126840038066538656    MAURO JOSE SALAPATA                AV. BORGES DO CANTO                          02675               98865000ALVORADA       S„O MIGUEL DAS MISSıES        RS00000000000080060                          AB4A12DA3A66FC5ACE4ECAD8A8D33D14
000343321700911019501021    NILO HORN                          LINHA SANTA TEREZINHA                        00001               97920000INTERIOR       S„O PEDRO DO BUTI·            RS00000000000080027                          81F6E54ABB201534531F0AE654944FA7
00014553767015ISENTO        ORLANDO MARTINS DA SILVEIRA        RUA OZORIO RIBEIRO NARDES                    00467               98770000CENTRO         CATUÌPE                       RS00000000000080023                          0125A6933C9F5D4E49BC2D1F88F8E5CC
000727053700305063353014    ROBERTO LUIS HASS ARENHARDT        VILA DONA OTILIA                             00001               97900000INTERIOR       ROQUE GONZALES                RS00000000000080050                          F92DB7A4918540C8814A36674D912847
000638419670001046809743    ROGERIO RAMOS                      AV. PIRAPÛ                                   02320               97970000CENTRO         ROQUE GONZALES                RS00000000000079903                          327EFFAFE1947D0E7497BE5902A823F2
000765948150919065676571    RODRIGO RAMOS (GRANJA)             LINHA PORTAO                                 00001               97970000INTERIOR       ROQUE GONZALES                RS00000000000080015                          135CF5F7F3DDEBEBDD2216C73271E81F
000247365620726008997221    SERGIO ADAMS                       AV. RENATO CASTELAN                          00500               97935000CENTRO         MATO QUEIMADO                 RS00000000000079983                          B2CD6E23760B77952AC73082BA320FA1
000234601640346003505853    ZILMAR PRESTES DO NASCIMENTO       ESQUINA GAUCHA                               00001               98855000INTERIOR       ENTRE-IJUÌS                   RS00000000000079905                          D1650B605B0F3E74DEC5E3F71C623E3C
000661205350041030605602    ANSELMO FRANCISCO SARZI            LINHA PORT„O                                 00001               97970000INTERIOR       ROQUE GONZALES                RS00000000000079707                          A6FBAE8EA8D9B2C9DE74616A9602882B
000903722390727031629335    JOSE AUGUSTO THUM                  RUA MONSENHOR VOLSKI                         01230               97935000CENTRO         MATO QUEIMADO                 RS00000000000080081                          CCF19D1DBF914E7236B807FEB43EC227
000475240730201042443216    NEILA ROSANI DA SILVA GARCIA       RUA CASTANHO                                 00500               98865000CENTRO         S„O MIGUEL DAS MISSıES        RS00558119644080059                          66F79DE10EAAE0192D3593E7691CC0E0
000538672460689050149344    AFONSO JUNG                        LINHA ROLADOR ALTO                           00001               98960000INTERIOR       SANTO CRISTO                  RS00000000000080084                          135968C83B237E5DBEEB850E44993811
000309704820004011489053    MARIO JACO HAAS                    LINHA BONITA                                 00001               97920000INTERIOR       S„O PEDRO DO BUTI·            RS00000000000080085                          13FC47C35D342877201E084368925451
000892551350154035853417    CLARICE CELIA OSTWALD              LINHA SANTA TEREZINHA                        00001               97920000INTERIOR       S„O PEDRO DO BUTI·            RS00000000000080080                          20C74277752E12583D986F7B7EAB4D8C
00015796981072ISENTO        SILDO ROQUE BERWANGER              RUA 25 DE JULHO                              00270               97920000CENTRO         S„O PEDRO DO BUTI·            RS00553369118180083                          067F5F3EC2284EACC035FF735C021DB7
000396090220499022423538    OLIVIO LUIZ ELY                    RUA SAO LUIS                                 01115               97935000CENTRO         MATO QUEIMADO                 RS00000000000080082                          5DD1B2281120ABFE8170497E4EB4037B
000006404620658075657166    ANA PAULA LISENFELD                RUA TENENTE JUNG                             00582               98960000CENTRO         SANTO CRISTO                  RS00000000000080091                          197B974C1B396F8C1B240603CE2DE2C2
000441641140531034644839    VALTERLEI ROYER                    LINHA CASTOR                                 00001               98960000INTERIOR       SANTO CRISTO                  RS00000000000080093                          2F183576B4C8DC705BAC76C241CB279A
000475790300635026468339    JAIR INACIO MALLMANN               AV. INDEPENDENCIA                            01215               98955000CENTRO         NOVO MACHADO                  RS00000000000080094                          85168079EB9E353E280BBBAD28152C18
000232870800591006969164    MARINO MUSSIO                      RESSACA DO URUBUCAR˙                         00001               98850000INTERIOR       VITÛRIA DAS MISSıES           RS00553614421280070                          DD85AFEDB6A33738BCB5BEDF5A46319B
000008276870601076285749    ANDRE LUIZ WEBER                   ESQ. GAUCHA                                  00001               98855000INTERIOR       ENTRE-IJUÌS                   RS00000000000080098                          66865FECF38457EFFEB6236917CF8953
000016891540551090427301    DOUGLAS POSSELT                    RUA JOAO GOERGEN FILHO                       01001               98860000CENTRO         EUGÍNIO DE CASTRO             RS00000000000080100                          CBFF0280875B1D814A9351FE63543BAA
89895957000157ISENTO        MUSKOPF METAL WORKS METAL. MEC. LTDRODOVIA BR472 KM 07                          01200CXP.: 359      98900000CASCATA SANTO CSANTA ROSA                    RS00559962329679845                          175FED500FA7FE9E7E0BA4FAE26626E1
000085948050046024454123    EMILIO DE SOUZA                    RUA PADRE ADOLFO GALLAS                      00167               98960000CENTRO         SANTO CRISTO                  RS00000000000080103                          AE6A7C58B71F219A5E0232847BECF957
00033208980000ISENTO        ARCADIO ARNOLD                     RUA PRESIDENTE CASTELO BRANCO                00360               98970000CENTRO         C‚NDIDO GODÛI                 RS00553548106079705                          420D3D5A0DBF3A2E88FA233ABC2FE4C6
000638292230723031390663    LORI ANA ULLRICH                   LINHA ALMA                                   00001CXP66          98960000INTERIOR       SANTO CRISTO                  RS00000000000080108                          53F039623C031C55E5FF3ACD36A0AACF
000882213180006058958973    INES SCHNEIDER                     RUA LA SALLE                                 00035               98960000CENTRO         SANTO CRISTO                  RS00000000000080109                          15372AEC1FD62B02C5583F8CF0F1CD5D
000001389790069085573278    ELIZETE MANKOWFKI                  RUA SANTO CRISTO                             01506               97950000SANTA TERESA   GUARANI DAS MISSıES           RS00000000000080101                          086E2F6D279B30632992405D5A4AE825
000309570010533011058496    ALOISIO PIETROWISKI                RUA JOAO AMERSKI FILHO                       00987               97950000SANTA TEREZA   GUARANI DAS MISSıES           RS00000000000080105                          FDEB499DEE4B49D7ED476FB6D7CA5FB3
000309692630151058192616    JOAO HILARIO KLEIN                 AVENIDA ALBINO WELTER                        00600               97935000CENTRO         MATO QUEIMADO                 RS00000000000080104                          E2AE70FBEF6893C039F107FCD9C80D50
00000793731003ISENTO        CLEONICE ZIMPEL                    AV. EXPEDICIONARIO WEBER                     02820               98900000CRUZEIRO       SANTA ROSA                    RS00000000000080111                          1BA0EAFFAE7B97D9D908033B156EC032
000357183580871023210295    VILMAR KOWALSKI                    S„O JOAO VELHO                               00001               98855000INTERIOR       ENTRE-IJUÌS                   RS00000000000080114                          2CAD02C4B6A971D3DD06EA004230D2E2
000619655290201054346232    MILTON JOSE LAUXEN                 RUA DAS MISSOES                              00360               98900000CENTRO         SANTA ROSA                    RS00000000000080064                          06CC971002AAE101D7CE060CED69F27E
00068572840087ISENTO        NOEMIA CECÌLIA VIER                VILA CATARINA                                00001               97940000INTERIOR       SALVADOR DAS MISSıES          RS00000000000079955                          F28D074098821FD7FCA02990C5F39619
87613030000151ISENTO        PREFEITURA MUNICIPAL DE GUARANI DASRUA BOA VISTA                                00265               97950000CENTRO         GUARANI DAS MISSıES           RS00553353120079991                          9B1BF2E58AA4B07F8CEB579BCC8C9668
000035386800008001982753    HERMILIO BRUNO SCHMIDT             COLONIA DAS ALMAS                            00001               98770000INTERIOR       CATUÌPE                       RS00000000000080030                          8D354F0663B4C7AE8ED37E9A8BA11AD5
000025899070872022423863    JOSE WILLIBALDO KUNZ               RUA SANTO HERNESTO                           00035               97980000CENTRO         S„O PAULO DAS MISSıES         RS00000000000080116                          0240F58553221C754DC9396CD99540CB
000332649530727019807721    MARIA ELIZABETE RAMOS RIGODANZO    ESQUINA FATIMA                               00001               97970000INTERIOR       ROQUE GONZALES                RS00000000000080073                          247E072C9C7CF3FD270ABC49C9BA2025
000597864690203051528119    IGIDIO JORGE DARUY                 RUA FRANCISCO SILVERIO RENZ                  00749               98870000SANTA FÈ       GIRU·                         RS00000000000080123                          CC23171A9E0051B5DA511F4560EE44B4
000213760260151023225137    ARI TSCHIEDEL                      ESQUINA SANDRO MOSCOM                        00001               97900000INTERIOR       CERRO LARGO                   RS00000000000080122                          B4535B7CC1F4FA5E9B03243A5745BA7A
000608989500824050688672    NILSON BELTER                      RUA LUIS TRESSEL                             00139               98940000INTERIOR       TUPARENDI                     RS00000000000080121                          604EDEE8BDAC9109D701EF5B0BED9777
000332153240911038163737    OTAVIO LEOPOLDO TEVVEZ             RUA GUSTAVO  JUVER                           00701               98960000SAO CRISTOVAO  SANTO CRISTO                  RS00000000000080118                          DE6A0B22295A95129E8194B78C125117
000725047810913064345491    MIGUEL OLÌVIO KAPELINSKI           RUA S„O LUIZ                                 00555               97950000PAMPA          GUARANI DAS MISSıES           RS00000000000080126                          7C944293E911AC7BDB348AE2278F52D2
87612859000130ISENTO        PREFEITURA MUNICIPAL DE CAMPINA DASAV. SANTA TEREZA                             00283               98975000CENTRO         CAMPINA DAS MISSıES           RS00553567112080853                          0AA03ABAAE579C892DBAE6EB237AFE6A
00047067985072ISENTO        LUIZ FERNANDO FOLHARIM             DISTRITO TRÍS VENDAS                         00001               98770000INTERIOR       CATUÌPE                       RS00000000000080117                          EBF57A776B76B0F594FC40AAF8EC4D8D
082953460001761830009220    MATHIAS WILHELN E CIA LTDA         AV. PINDORAMA                                00461               98970000CENTRO         C‚NDIDO GODÛI                 RS00553548124579837                          AFFE12BBCB17BDAAC024420D2EC5D2BA
000474396530688004377589    JURACI JOAO PIECHO                 RUA 25 DE JULHO                              00001               98950000INTERIOR       S„O PEDRO DO BUTI·            RS00000000000080113                          A3226E60B3DB27C16BD7016DF52DCD3E
000496575260001161037850    LUIZ BOGORNI                       RUA MARECHAL FLOREANO                        02933CENTRO         98960000CENTRO         SANTO CRISTO                  RS00000000000080133                          072F73DD1AE28E1EE5D0107DC76B65F6
000388107270531030949042    JOAO CESAR SCHUQUEL DE ANDRADE     RUA PEDRO SCHER                              00562               97920000CENTRO         S„O PEDRO DO BUTI·            RS00000000000080129                          64396422DBFD873A01E4EA72D722D113
000519549400251028356739    AUREO LUIZ ZANBONEGUI              SANTA TEREZA                                 00001               98770000INTERIOR       CATUÌPE                       RS00000000000080130                          52228B0561074EA6F5A45B8E95353309
000896676460681062135205    MARCOS ROGERIO ANTERO DA SILVA     SANTA CRUZ                                   00001               98770000INTERIOR       CATUÌPE                       RS00000000000080127                          D101BBAA6F1725C3CE90C6A6BB66DD45
000948092400537064371482    MARIA ERMINIA DOMANSKI KOVALSKI    SAO JO„O VELHO                               00001               98855000INTERIOR       ENTRE-IJUÌS                   RS00000000000080134                          FC9958FE84AA82D013B758B92708AAA6
000416683240913029239781    HORACIO MORAIS DA SILVA            RUA PORSIRIO DUTRA                           00346               98865000CENTRO         S„O MIGUEL DAS MISSıES        RS00000000000080022                          1DCBE5AD409558EFFC915F5DF7BDC8AB
000309805340204014737508    RONI MIGUEL JACOBS                 RUA DALTRO FILHO                             01044               97900000CENTRO         CERRO LARGO                   RS00553359142479926                          1B62CAEC58D49A589F2CFE2EC85C8C27
000013041090038092269921    ANDERSON RODRIGO PHILIPPSEN        RUA EMILIO RIFFEL                            00572               98960000LA SALLE       SANTO CRISTO                  RS00000000000080138                          85646FD321155747A3AA1E3BE008FBA9
000176869890209005804753    ARI BARBOSA LOPES                  RUA GERSON LUNARDI                           00314               98900000TIMBAUVA       SANTA ROSA                    RS00000000000080139                          EDA16A80FBCA8C5882D9A256A639D3F9
00036622176000ISENTO        LUIS VANDERLEI ADAMS               DR. JO„O SEBASTIANI                          00500               97900000CENTRO         CERRO LARGO                   RS00000000000079825                          F514EC7F03AFD0B313BA65582BF94E4E
000685725220345049644387    CLECI LEICHTWEIS CAGLIARI          PONT„O DO IJUÌ                               00001               97935000INTERIOR       MATO QUEIMADO                 RS00000000000080140                          532FE445F312AF692BBDBF5897867F38
000332120070878015547527    RUBEN ARNOLD                       RUA S„O BENTO                                00115               98900000ESPERANÁA      SANTA ROSA                    RS00000000000080142                          450806DEA293CFFB04D777362501C008
000699133150345042285832    ARNEDIO CANOVA                     RUA REINBOLDO DRESSEL                        00034               98940000CENTRO         TUPARENDI                     RS00000000000079682                          028928CD32D7AF5CF9A1E9183519B754
000910961380349071615794    ILGA MARIA ADAMS                   LINHA LUIZENTHAL                             00001               97980000INTERIOR       S„O PAULO DAS MISSıES         RS00000000000080137                          B9495D3B4FF3B7C0F9F8FC4088515568
02264217000134315/0002909   HOTEL E CHURRASCARIA BARRICHELLO   AV. BORGES DO CANTO                          01555               98865000CENTRO         S„O MIGUEL DAS MISSıES        RS00553381127280148                          A914165548F3342F536FFE9CE6444B7F
000351223900537026774534    GILMOR FRANCISCO BUSMELLO          COLÙNIA DAS ALMAS                            00001               98770000INTERIOR       CATUÌPE                       RS00553336136380146                          2064D64691819B7A81251F59CDAB61D5
000930401640157065680808    GEOVANIR ERON NYARI                RONDINHA                                     00001               97935000INTERIOR       MATO QUEIMADO                 RS00000000000080152                          E5E600D873003D93AE06F8CEE78C0DAD
000523675500001039001662    GIOVANI BENETTI                    VISTA ALEGRE                                 00001               98770000INTERIOR       CATUÌPE                       RS00553613220080150                          5CBB94505DA9B10748D69DCDA6FEBDE1
000434425870345027452027    JAIME IN·CIO BIRCK                 AV. RENATO CAPEL„                            00300               97935000INTERIOR       MATO QUEIMADO                 RS00000000000080153                          3615EE5C8992C9F2ADEBFCBE43BB39D2
000596150360723036618126    OT·VIO LIESENFELD                  LINHA DONA BELINHA                           00001               98960000INTERIOR       SANTO CRISTO                  RS00000000000080151                          3ECF896EF6254B3D7F56E04EB4F9887D
000411198780049030550091    EGON WEISS                         RUA JOSE ALFREDO NEDEL                       00850               98900000VILA SETE SETEMSANTA ROSA                    RS00553513300580154                          CA68C1A786134DA52A9C7BD40A2BDDB4
000762909990871060886511    JAIME JOSE SIEBEN                  L∞ PASSO NOVO                                00001               97930000INTERIOR       CAIBATÈ                       RS00000000000080149                          9E956737D5A64479BC102179A35686CC
000391264200151029395694    JURACI ZORZO                       LINHA ENCANTADA                              00001               97900000INTERIOR       CERRO LARGO                   RS00553359245280157                          A77C2F21CE14269D3FE48899639ADDD5
000358282770492019117296    PAULINO REIS                       LINHA LUIZENTHAL                             00001               97980000INTERIOR       S„O PAULO DAS MISSıES         RS00000000000080136                          1467FD46DF81F799539B9A1D76AAAFB9
000602712210201050400371    MILDA KUFELD                       RUA JOAO STEFFENS                            00129               98960000LA SALLE       SANTO CRISTO                  RS00000000000080158                          2EB61C567CB22D1829D815781E0E7B44
000021259590385090423665    ANDERSON LUIZ UTZIG                RUA HELMUTH SCMHITT                          01020               97900000CENTRO         CERRO LARGO                   RS00553359338880160                          27629F2B60A63CB4914A97CC48790BFB
00089298667000ISENTO        NEUSA LEDUR                        AV. CARLOS ALBERTO SCHAEDLER                 00726               98950000CENTRO         ALECRIM                       RS00000000000079953                          DC431613A0FF31ACA8DFB887C6111861
000500486780152042559837    HARDI JASTER                       RUA SANTA ROSA                               00336               98955000CENTRO         NOVO MACHADO                  RS00553544109680164                          4350B5B83EA84D5D9E9445371003AB23
000929609600689054048229    LAERTE JOSE SCHER                  AV. JULIO SCHWEMGBER                         01555               97920000CENTRO         S„O PEDRO DO BUTI·            RS00000000000080112                          5A4B0BEC499286A2E25D2864483A769C
000012564180059084731703    JONAS FROHLICH SCHERF              RUA CASTELO BRANCO                           00975               97920000CENTRO         S„O PEDRO DO BUTI·            RS00000000000080086                          1628431E3D8052E24664067E8211793A
000451118120914025308299    CELSO LIMBERGER                    TAIP„O FRENTE                                00001               97920000INTERIOR       S„O PEDRO DO BUTI·            RS00000000000080110                          5D016F1DF6573629C08F28DB143AE9E7
000411070550919038163631    DIRCE TEREZINHA HENZ               RUA 1∫ DE MAIO                               00588               98960000LA SALLE       SANTO CRISTO                  RS00000000000080166                          CF9329A16D76C2E6D32337ED172E888C
000158126770342029486459    WILMAR FERRAZZO                    RUA EUGENIO CORREIA DO NASCIMENTO            00180               98770000OPERARIO       CATUÌPE                       RS00000000000080096                          D3FEBC60C1FA485E3EF58082FD4C4396
00030891485015ISENTO        VANDERLEI MATIAZZI                 LINHA CASTOR                                 00001               98960000INTERIOR       SANTO CRISTO                  RS00000000000080071                          8E73A18D5CD9512264063C3C9F16B8FF
000751161620874014722609    LIBANIA BOUFLER LANGER             RUA PRESIDENTE VARGAS                        00264               97980000CENTRO         S„O PAULO DAS MISSıES         RS00000000000080165                          7D5C894AEB5DF8DD09469947AEF9D601
000001131990902014875484    CRISTIANE ALMEIDA JUNGES           RUA SETE DE SETEMBRO                         00067               98960000FLORESTA       CERRO LARGO                   RS00553359275780170                          54E5500D869CC548D9035ED8E0E2F586
000004028710654041054547    RODRIGO JOSÈ TONETTO               RUA JO„O LANOT                               00066               98770000CENTRO         CATUÌPE                       RS00000000000080171                          984D3ACAA2C9E8119B1CD9076E0022E8
000447234820911036840211    ELTON LUIZ RENGER                  DONA BELINHA                                 00001               98960000INTERIOR       SANTO CRISTO                  RS00000000000080174                          4CAD44705B8D93C3B03DBC4B5CD44AE4
000014913330818077651629    RICARDO SPIES                      LINHA BEIJA FLOR                             00001               97920000INTERIOR       S„O PEDRO DO BUTI·            RS00000000000079892                          0D7B0D2DFEFF07A2208FEF5F49861BE5
000339629950726009741271    NELSON HENTZ                       RUA SETE DE SETEMBRO                         00960               97935000CENTRO         MATO QUEIMADO                 RS00553613817180172                          8F15B7255D4383AF2F2487BB18B039DD
000703678920491069329066    IOLANDA DLUZNIEWSKI KLIDZIO        LINHA BOTOCUDOS                              00001               97950000INTERIOR       GUARANI DAS MISSıES           RS00000000000080175                          C1332602509414288957E440377936E7
87612784000197ISENTO        PREFEITURA MUNICIPAL DE ALECRIM    RUA NICOLAU JOSE SCHADLER                    00042               98950000CENTRO         ALECRIM                       RS00553546130079731                          F94F06D4A33F56B2F666BD157F443057
000278692290911042942738    HELIO JOSE SEFRIM                  RUA DOS IMIGRANTES                           00338               98850000CENTRO         VITÛRIA DAS MISSıES           RS00553614426780180                          775C630861D187B69DE01E4C21CE1FEB
000715149290155037251858    LEONICE MAYER                      TRAVESSA TUIUTI                              00009               97900000CENTRO         CERRO LARGO                   RS00000000000080183                          3A7868127404CA5CE09A31CEF36C4DD0
118728720001660300041772    AGRO COXILHA COMERCIO DE INSUMOS AGRUA CORONEL NECO JENUARIO                    00950               97900000CENTRO         CERRO LARGO                   RS00553359323280184                          370751B6B36F2D79F458D6C9258E8D52
000102220650879029252203    JO„O ROQUE BATIROLA                ESQUINA IPIRANGA                             00001               98895000INTERIOR       SENADOR SALGADO FILHO         RS00559633273080163                          1620A8F35B63AB5F3FD545F368808BC1
000988421370491069329686    DIRLAINE INÍS MOMBACH              AV. CORONEL JORGE FRANTZ                     00245               97900000CENTRO         CERRO LARGO                   RS00000000000079736                          DD580FCF78098E5115CD725D4CCC85EA
000174943460151031140922    JOAO MENIN                         RUA PRESIDENTE VARGAS                        00283               97980000CENTRO         S„O PAULO DAS MISSıES         RS00553563136980177                          5DC5BC5E33D1F4F44C9F2CC97B877691
000434183250682034188959    MARCOS MANICA                      RUA CIRILO ORTIZ                             00323               98770000CENTRO         CATUÌPE                       RS00000000000080192                          219CDDAE2D115672D0DD128650BD4D42
88546890000182ISENTO        PREFEITURA MUNICIPAL DE SANTA ROSA AV. EXPEDICIONARIO WEBER                     02983               98900000CENTRO         SANTA ROSA                    RS00553511519980863                          29CD4108FB105C813321066A98E23581
000897430080044069229005    DENILTO CASTANHO DA SILVA          LINHA SANTO ANGELO                           00001               97930000INTERIOR       CAIBATÈ                       RS00000000000080052                          45D5C19FFFBAC9DD620AB39F297E593D
09485696000168ISENTO        CEREALISTA CERRO ALTO LTDA         CERRO ALTO                                   00001               98940000INTERIOR       TUPARENDI                     RS00553512635079726                          4E9DB21B59E15B590091318184B79A9C
00076072711049604103041     EVANDRO VICENTINI                  RUA SERGIPE                                  00235               98770000PRÛ MORAR      CATUÌPE                       RS00000000000080010                          44E38F59DB9C76400F06A5A80F691A8F
000275441680341005742349    GILBERTO MARCHESAN                 RUA SANTO ANTONIO                            00014APTO. 02       98770000CENTRO         CATUÌPE                       RS00553336137880182                          42B37EA86003049A0C8F411C55219E14
00021853452068ISENTO        JO„O IN·CIO WENZEL                 LINHA CARAGUATA                              00001               97940000INTERIOR       SALVADOR DAS MISSıES          RS00000000000079802                          CE95F7B4282086F9E96DCBA75796612B
000729531360534055570602    ODAIR ANTONIO MUMBACH              AV. CORONEL JORGE FRANTZ                     00074               97900000PARQUE DO MOINHCERRO LARGO                   RS00000000000080190                          BDEC71D4DB1B5103CBFBB5353BCFC517
000144460060531023611881    SINÈSIO ELY                        RUA INDEPENDENCIA                            00001               97940000INTERIOR       SALVADOR DAS MISSıES          RS00000000000080198                          55CC21BE251C2528E2F5F17B64C02631
000357322290008035739195    CARLOS LUIS LUNKES                 LINHA SALVADOR                               00001               97940000INTERIOR       SALVADOR DAS MISSıES          RS00000000000080199                          25F6A2227F5AE3AA252E36FFE92B8BF4
000021149230298094155317    ARIEL CANTARELLI                   MATO GRANDE                                  00001               98870000INTERIOR       GIRU·                         RS00000000000080201                          F79F4D21BEB95EA7B83A6416CB6AC993
000698994280008055394525    LENARA LUISA WEBER                 AV. AMERICA                                  00300AP. 305        98900000CENTRO         SANTA ROSA                    RS00000000000080090                          F039159C89B0C3FCFB6AB6A08FEFA17D
000353504230534017159054    JOSE MARCOS STEIN                  L∞ KLERING                                   00001               97935000INTERIOR       MATO QUEIMADO                 RS00000000000080203                          6D8E33BAA557292B0649E5CB48987779
06031727000112ISENTO        CRESOL                             RUA JO„O MAGALHıES                           00175XXX            98970000CENTRO         C‚NDIDO GODÛI                 RS00000000000079679                          6C2E5CDFC37FFF25DAF26FFB48F82A35
000011212090333089596492    JOSÈ AUGUSTO PIRIS MACHADO         RUA JO„O ZIMERMANN                           00031               98770000SANTA LUCIA    CATUÌPE                       RS00000000000080197                          0A5823FD0D77A2D7FF92A42A5F4B1A4E
00074984748087ISENTO        LONI REICHERT                      AV. JULIO SCHWENGBER                         00745               97920000CENTRO         S„O PEDRO DO BUTI·            RS00553369100880204                          666D7AD59E2B1287B2B2B6F470FD0FDA
000035790000631023537713    OLI PEDRO LENZ                     LINHA SANTA TEREZINHA                        00001               97920000INTERIOR       S„O PEDRO DO BUTI·            RS00000000000080202                          902BD203B53F820A7681BD078662527E
000453425980875030951973    LAURO BECKER                       RUA VILARINHO RODRIGUE                       00535               98770000CENTRO         CATUÌPE                       RS00000000000080188                          BF937E7A1F926BCAEE04765EB4E0C7B9
000309809680201009769504    PEDRO BOESING                      LINHA BONITA                                 00001               97920000INTERIOR       S„O PEDRO DO BUTI·            RS00000000000080195                          4F552F6CD4B7D543A66E07CA1595A896
000492812910533028939464    ANTONIA MARIA KUNZ SCHER           RUA ROMILDO SCHNEIDER                        00700               97920000CENTRO         S„O PEDRO DO BUTI·            RS00000000000080205                          DFB8E0D54C55481848E6B4DC1D760A37
000354886970047017356507    JO„O MINETTO RUBERT                RUA CONCEIÁ„O PAZ MACIEL                     00134               98850000COABE          VITÛRIA DAS MISSıES           RS00000000000080187                          BEEC1511DC62F8ED6B7F17E649B65D0B
00003382702053ISENTO        MARIO ADOLFO KLEIN                 AV. PINDORAMA                                00530               98970000CENTRO         C‚NDIDO GODÛI                 RS00000000000079838                          B77679F5416C6312CEE6473CDA9B1101
000683544440153058906391    FL·VIO BITENCURT MACHADO           MATO GRANDE                                  00001               98870000INTERIOR       GIRU·                         RS00000000000080128                          A5CF17DD486429C6EE130796C2E9CD0F
000511683590151055568214    LAURI FOLLMANN                     RUA ALZINO HARTMANN                          00001               97935000CENTRO         MATO QUEIMADO                 RS00000000000080185                          6D9C2200C651B33986A46FD332293382
00083323988000ISENTO        MAGNUS ODERLEI OLEINIZAK           COIMBRA                                      00001               98865000INTERIOR       S„O MIGUEL DAS MISSıES        RS00000000000080089                          E73B7E66327B80421B7C945F7EC52B2E
000144464210344026794521    SILVINO WILLCHEN                   RUA 7 DE SETEMBRO                            01211               97920000CENTRO         S„O PEDRO DO BUTI·            RS00000000000079896                          553EF1A18CF644E1C22D8502CBA62959
000309911370006011554042    VALDIR REICHERT                    RUA JULIO SCHWENGBER                         00715               97920000CENTRO         S„O PEDRO DO BUTI·            RS00553369100879898                          42D45D6E9513DC64887BAC9604C55B2E
000287583740001029101589    PAULO CAVALLI                      VILA CINQUENTENARIO                          00001               98946000INTERIOR       TUPARENDI                     RS00000000000079922                          7BF46496BF36D81D2C5C00E597089268
000690241620681051873014    ELTON JAIR MINIKEL                 RUA MINAS GERAIS                             00320AP. 403        98900000CENTRO         SANTA ROSA                    RS00000000000079768                          E64B3268391B7B95D047C24177F50CB9
000557652030003042688691    VALDECI JOSE BECKER                LINHA BELINHA CENTRO                         00001               98960000INTERIOR       SANTO CRISTO                  RS00000000000080191                          06FDA5AAD6846712052A93C1F6BEFB1C
000466334800911161042994    PEDRO AGOSTINHO HOLZ               LINHA DIVISA                                 00001               98960000INTERIOR       SANTO CRISTO                  RS00000000000080145                          A47F938EF530304B057DF83A2DCC872E
