06031727000112ISENTO        CRESOL                             RS140079677       20120801210010000000013963833195DDA2EF1DF475DAA7C75890000000009490000000009490000000000000000000000000000000000000N1208000000001                 3A0252993157C8D305E047EF2E30F307
89095368000194ISENTO        COM. COMB. BERRES & KLERING LTDA   RS140079720       20120801210010000000026E05537A40123788893AC3FFB877A682000000007990000000007990000000000000000000000000000000000000N1208000000001                 AC018E082E2A0E6D77612D539B9126B4
09631791000122ISENTO        JOSÈ EMILIO HEINEN E CIA LTDA      RS140079808       20120801210010000000035B03913C15BEB226BEEE13A3B79E4E38000000009490000000009490000000000000000000000000000000000000N1208000000001                 3A0F8484B26EA2FF90403DC214D513CB
91212035000140ISENTO        MARIGEL COM. VAR. DE PROD. COSMETICRS140079951       2012080121001000000004A59B877B5F2387CD14B1E92F66ADF1B0000000007990000000007990000000000000000000000000000000000000N1208000000001                 8DB5F2F7EF9F4DBCBEA9622435D099B3
96416151000102116/0000740   SERRA FITA SEIBERT INDUSTRIA E COMERS140079961       201208012100100000000580146714E732636151EEB085799AC346000000009490000000009490000000000000000000000000000000000000N1208000000001                 955BC13DAD133CCB3807FD74087C3A56
00025749986004ISENTO        DONATO HEINEN                      RS340079742       20120801210010000000060D017FF034BEBBA99F3EA680DA8233C2000000003000000000003000000000000000000000000000000000000000N1208000000001                 D5A86B21588541CA50DC46FAFDA6783F
00096070447034ISENTO        MARCIO GERHARDT                    RS340079950       20120801210010000000076416D04811555F778B41777DF647F6DC000000007990000000007990000000000000000000000000000000000000N1208000000001                 9DA086EAAE28DD8C9F9DC9E1E278B7AB
00030912300078ISENTO        SANDRA HEINEN                      RS340079958       2012080121001000000008B396FB99217B922883BAD63A464AC78A000000005990000000005990000000000000000000000000000000000000N1208000000001                 655516B303469C55554CF7DEE0ABA29F
000884557000259036630011    IRANI ANA ROCKEMBACH               RS340079793       201208012100100000000953EB04F5992F441611F8515F47F6F2F4000000007990000000007990000000000000000000000000000000000000N1208000000001                 AB1E5992C1F52AD12FD4DA4A9D27076B
87612990000105ISENTO        PREFEITURA MUNICIPAL DE CERRO LARGORS140079930       20120801210010000000103DFC20BBDD9F9836FF3BCA47E4BE6FE4000000028470000000028470000000000000000000000000000000000000N1208000000001                 46EE61D195F0795BA0229DF5632CB2E5
000671138340002058901949    ROSANE HANZEN DA ROSA              RS340080008       201208012100100000001193F6619F51A304551CE15F42121A49DE000000007990000000007990000000000000000000000000000000000000N1208000000001                 1F3CBF96D9EAF52B1DE0EA3573ED3E99
000994585350345069316544    JAIME SOARES PINTO                 RS340079809       2012080121001000000012F2F4D18986652FC18241BC8B2AF0D1E6000000007990000000007990000000000000000000000000000000000000N1208000000001                 C93C8700C412E4083CEDF1EF2C4CE19E
93592715000161ISENTO        PREFEITURA MUNICIPAL DE S„O PEDRO DRS140079932       20120801210010000000139A0036A5E8CFAEDD57D4D7F7A6C871EB000000025510000000025510000000000000000000000000000000000000N1208000000001                 DBEDB62088F9905C87DA59A26AE67D4F
96419627000150ISENTO        SINDICATO TRABALHADORES RURAIS DE CRS140079962       201208012100100000001460BB4241E646F33797FE22D2FB459E7D000000007990000000007990000000000000000000000000000000000000N1208000000001                 9BB43ABFE69B2F7A37FF775A8BE5308F
000024320040431065689695    FELIPE JUSTEN                      RS340079771       201208012100100000001543D329CDB472B9FF8AD328207A3290EA000000007990000000007990000000000000000000000000000000000000N1208000000001                 84A3F2820907A60A41FD1AE084AB9284
93535342000197ISENTO        ESCOLA MUNICIPAL DE E. F. ANTONIO CRS140079993       2012080121001000000016F7DD9A9342EF06E12ECEBD4B57F633D6000000009490000000009490000000000000000000000000000000000000N1208000000001                 EBDCD151871239E56F5BCCDED05A56C9
11445453000148ISENTO        CAMARA DE VEREADORES VITÛRIA DAS MIRS140079735       2012080121001000000017FC6219792114FDB31CBE616D7A9C9AE6000000007990000000007990000000000000000000000000000000000000N1208000000001                 31B79FA04C62CF8540C7C1E915486C7E
09649751000108ISENTO        BOIDEZ DISTRIBUIDORA DE ALIMENTOS LRS140079718       2012080121001000000018126AFD8D7E7FBD102C176305AB13D513000000007990000000007990000000000000000000000000000000000000N1208000000001                 052E4D049A595A9B5B0172F60813A717
000213746510878023957262    ARI AOSANI                         RS340079713       2012080121001000000019935D57DDB14556CDCC4A95413AD5CC17000000004040000000004040000000000000000000000000000000000000N1208000000001                 78F7177DCF9DB353ED49A2502A64D7BD
000093803700591023254442    ARQUILIO TREVIZAN                  RS340079712       2012080121001000000020E506D376007309A00F5B804A0610EB29000000004040000000004040000000000000000000000000000000000000N1208000000001                 CA511904FB9A7A2B24EC8B5550A65723
000043138010499002725597    LUIZ AURÌ VIZIOLI                  RS340079853       2012080121001000000021E199B304F88B4B7E8A638E8F91B4838B000000005390000000005390000000000000000000000000000000000000N1208000000001                 5E260549E378D4D025A764A813870FA2
000500314650721040108837    TELMO ANTONIO AOZANI               RS340079977       20120801210010000000225777D64D27B61AB1439EFCCA0D579E40000000004040000000004040000000000000000000000000000000000000N1208000000001                 23516C3D4FBAD75DA0F47332A507E94E
000393187290491021871741    TELMO LUIZ SFALCIN                 RS340079888       20120801210010000000239498AF67CCABD98BE990E77AD2B0ABD7000000004040000000004040000000000000000000000000000000000000N1208000000001                 A39628B7554C0C16125CB61891FEDF67
000463830180008036099953    VALDEZ PIEPER                      RS340079998       201208012100100000002430BF1733A60C349F9123FA1C575FF9AD000000004040000000004040000000000000000000000000000000000000N1208000000001                 B44A99F6F8906518D9A0E502F529C049
000604120540007051535421    ARI JOSE WACHEKOSKI                RS340079999       2012080121001000000025E4981967DE2607CCFEA4E31CC3EB5FFD000000004040000000004040000000000000000000000000000000000000N1208000000001                 870AF397A7DAA36D34AB695285E4219B
000367719530682024702744    SILVESTRE GURSKI SETSCHUK          RS340079912       2012080121001000000026199713B8D8F037114592DBB0891E387A000000004040000000004040000000000000000000000000000000000000N1208000000001                 FA05A64E667844B4AD590D3E8C1B1CF4
000881864660538054734192    CESAR ANTONIO BAZANA               RS340079746       2012080121001000000027CF00ADBB4EF40C0968081071D8B0132A000000004040000000004040000000000000000000000000000000000000N1208000000001                 027F87E31E26DCBEA607124457B640B7
000964477450722084723457    ELISIANE DURKS                     RS340079748       20120801210010000000284417960BC31AB5F6166E16FB05D3D14A000000004040000000004040000000000000000000000000000000000000N1208000000001                 E6A67BEC3AB58A8785E616D620AA2C4B
000032311510156004380496    OCTAVIAN GERHARDT                  RS340079924       20120801210010000000295D44C89592FC404DCAEE2AA0EBEAEBCA000000004040000000004040000000000000000000000000000000000000N1208000000001                 DAFE8C167893F79255324184B02B2D84
00047370718034ISENTO        ROMEU FRANCISCO LUNKES             RS340079928       20120801210010000000300640E008B111D2B4827758AD834AB0CC000000004040000000004040000000000000000000000000000000000000N1208000000001                 76AA100E83317664B12827215C82AD09
000179970460206018976081    ARMINDO JOSE BOLZAN                RS340079700       20120801210010000000311BB1A9CEEF0DB61C498DFA49B04509AC000000005390000000005390000000000000000000000000000000000000N1208000000001                 24387DB18276F27F3F5FE89DC3F96AE1
000390386530345042432459    MILTON SCHEID                      RS340079848       2012080121001000000032BDA99219E13CD3A43D98AF8309F15BAB000000004040000000004040000000000000000000000000000000000000N1208000000001                 32E4AF9EB25FD6AA5BFD0EEC5877913B
00003579379020904747854     ROQUE COLLING                      RS340079927       2012080121001000000033FBE83BF48294409EBA2AB7CA41C7D59C000000004040000000004040000000000000000000000000000000000000N1208000000001                 138FD136ED57AA4DCD15F80AF2B4295A
00024943630049ISENTO        VILSON JOSÈ REIS                   RS340079929       2012080121001000000034E10F81E1BB17F8D38420AC2A08F0B33D000000004040000000004040000000000000000000000000000000000000N1208000000001                 A1410048DC5E768278959164541A8AA2
00073243981034ISENTO        ROSA MARIA DOS SANTOS FERREIRA     RS340080028       201208012100100000003531D3185F569440DC005A15A02BAE466A000000004040000000004040000000000000000000000000000000000000N1208000000001                 C485DF91BABE2F529872A2EF75CE4953
000514537030043017058672    ARACELI SALLET                     RS340079694       201208012100100000003609BF36B3773D508D067C9009176FEA26000000004040000000004040000000000000000000000000000000000000N1208000000001                 128DC6CF0AD8879F0C06194915CBEB89
000903075420681069234233    PAULO JOSÈ KUNZ MARSCHALL          RS340079925       201208012100100000003776B3E256CE252CD6C2244499A7A6FE65000000004040000000004040000000000000000000000000000000000000N1208000000001                 4BC2D3745E8B64CE10DD2ACA30974E5B
000495235110684034348559    DARCI WERLE                        RS340079975       2012080121001000000038D85014212E23108795AA08A5CD4FF9B6000000004040000000004040000000000000000000000000000000000000N1208000000001                 F81D7CC5317C394AFBB9979E30FEF96C
00005577560063ISENTO        JAIME CONSTANTINO RITT             RS340079805       2012080121001000000039FEFB1BE443B944F41CA9AC638FBD609B000000004040000000004040000000000000000000000000000000000000N1208000000001                 022FE364E4A16C74BF6E36F1F2D96BF5
000450577290049027153312    JO„O ODIL HARTMANN LUNKES          RS340079799       20120801210010000000407E938B5BAF12EC05B549A16DC6910291000000004040000000004040000000000000000000000000000000000000N1208000000001                 F7DEAB83BAFD350BA2806F6E39A1468F
000653857210349046805363    NOELI LUCIA THOMAS PREHSSLER       RS340079974       2012080121001000000041DCD2D25A45801D569C74FAC8D29BC70A000000004040000000004040000000000000000000000000000000000000N1208000000001                 A8313C07FBF9986ECE0D19830210BE8A
000245792540159005924338    VICENTE JO„O KUNZ                  RS340079902       2012080121001000000042027DAAEC40B3E83795E08063F9D90868000000004040000000004040000000000000000000000000000000000000N1208000000001                 72E85241E59D7342FB44491B3435FE96
000105864310041004453708    ANTÙNIO JO„O LUNKES                RS340079693       2012080121001000000043B3948E92D4929E9CA4403FFBCABFFE32000000004040000000004040000000000000000000000000000000000000N1208000000001                 18A8AFC788E9D153CDB2D50731505141
000375238050004038081685    ANTONIO THOMAS                     RS340079698       2012080121001000000044CE82B21966EE52EEA34AD748E4949E87000000004040000000004040000000000000000000000000000000000000N1208000000001                 B6B98A96AC497BCDD78905EA7D4EF9C4
000887517080001064361387    ELVIO CARLOTO NORO                 RS340079763       20120801210010000000456C670823C86A472DAC27E87C1930E15F000000004040000000004040000000000000000000000000000000000000N1208000000001                 A7DF21C250FB6E051B1C04AD9DA46DF8
00025002368034ISENTO        EVANDO HERTER DA SILVA             RS340079764       2012080121001000000046D9DCECFB56507D12A5BC0264C981A518000000004040000000004040000000000000000000000000000000000000N1208000000001                 BC12E5D14FAF63BB4FF8CFF114D87471
000309855280875008050998    ILDO JO„O ELY                      RS340079792       20120801210010000000474A540140246281644247D85122547F53000000004040000000004040000000000000000000000000000000000000N1208000000001                 10D54F5153FC9B3709B4D28A96911A2E
000126282710878023278801    JOSÈ HARRI THUM                    RS340079812       2012080121001000000048CA3F663C51C5EFB21D67D58C8454BF7A000000005390000000005390000000000000000000000000000000000000N1208000000001                 18471B1E8224FD27343DE1EF2F33C8FC
00019014988087ISENTO        LUIZ EVAR LUBINI                   RS340079823       2012080121001000000049633AE25F24B7ADF319973D5EDE6956E8000000005390000000005390000000000000000000000000000000000000N1208000000001                 41D773B67FC54BFF83D8D2BB1A43F2AD
000925021800153066625851    MAURICIO PIRES DE MORAIS           RS340079835       20120801210010000000505D7326732DFBF86593B1C26D8E4503D1000000004040000000004040000000000000000000000000000000000000N1208000000001                 45BAFFA752D303AD9FCF9E62F77692B8
000500306470531039734817    MILTON BURIN                       RS340079836       2012080121001000000051A0C7DD02F907D696D7A1A3E46BD99F3F000000004040000000004040000000000000000000000000000000000000N1208000000001                 840117883E837B157CA2AD878445218A
000543646550159034268954    NEILA VETTORAZZI KORNOWSKI         RS340079855       201208012100100000005296F7CE1943C6226ED6C481A0A839B016000000004040000000004040000000000000000000000000000000000000N1208000000001                 AB15491B2B7DD15E2E45A490E4D04D54
000164733960041026813707    NELSON BARICHELLO                  RS340079862       2012080121001000000053BD2632A62F8EE032EC4663D782E51EE2000000009430000000009430000000000000000000000000000000000000N1208000000001                 90B3F71AB6EB717A21BED07BCA09FD5B
000003458670922090821006    NERISOM LUIZ ROHLEDER              RS340079863       2012080121001000000054D09F45CA804E09528103207D979B9C2C000000004040000000004040000000000000000000000000000000000000N1208000000001                 1CBEADD7CB3A129AD9163652CA27CA50
000285192640344003698778    PAULO MARIO STOFFELS               RS340079907       20120801210010000000557710203533957C1B3653E455E0A75A87000000004040000000004040000000000000000000000000000000000000N1208000000001                 C2435BF5A65238EA808A4E32E557E424
000943352140498073880182    RODRIGO SCHNEIDER                  RS340079909       201208012100100000005620F48DB5207B0CC8F022D4D707427CC4000000004040000000004040000000000000000000000000000000000000N1208000000001                 1BAA076EB2753D7BB1C07E8D24AB183B
00064757358091ISENTO        VALMIR LUNKES                      RS340079966       2012080121001000000057C9E505894DE4B8813150E4457EC200E8000000004040000000004040000000000000000000000000000000000000N1208000000001                 73C2D7F4F92429453050BC41177EB1A5
000190163100101008720681    ZILMAR SAUSEN                      RS340079911       2012080121001000000058C09C1515ADC9D5AFB8F2576256C88AC5000000004040000000004040000000000000000000000000000000000000N1208000000001                 EE31EB6E1B2A7300B0ED4288EF7D2859
000510851350047035417232    FRANCISCO VENDRUSCOLO CEOLIN       RS340079774       20120801210010000000592704A496DAA76CC4A0104A4FAD9F59AF000000008080000000008080000000000000000000000000000000000000N1208000000001                 33D5EED19E08A5757095816BEBE45959
000472518080727026528302    INGOMAR GENZ NEUBUSER              RS340079797       2012080121001000000060EC4EF9D07B88060952F74B5C9895B869000000004040000000004040000000000000000000000000000000000000N1208000000001                 A4D18967F2066F9A5C385B71273C0815
000309681270533010137713    NELSON BOESING                     RS340079859       201208012100100000006161936C2F678CAD9717792DA507ADCC34000000004040000000004040000000000000000000000000000000000000N1208000000001                 C10BE967BC45A11568AB8FE5C4EDE623
0003859142100017023913441   RUBEM HACKENHAAR                   RS340079893       2012080121001000000062BD87B8EA0438364978765B03B0208085000000004040000000004040000000000000000000000000000000000000N1208000000001                 4B8C809A8A1392EB4BB0476C8DEA9249
000356429710341011015086    ALOISIO SEIBERT                    RS340079733       2012080121001000000063BE3A122FB09ACA33AE43CC965568803A000000004040000000004040000000000000000000000000000000000000N1208000000001                 2987F92CA3B38A88C343D727A8A19BD4
000245774990537008011211    ARCI GENZ BRATZ                    RS340079686       2012080121001000000064300E095DDB295A31834014AF896A6A5C000000004040000000004040000000000000000000000000000000000000N1208000000001                 5564C4A3F779BDDD8E891AD35C5124C1
93617488000181ISENTO        LUCIA HASS                         RS140079832       201208012100100000006583FD476671280A99279EAA671A4805E0000000004040000000004040000000000000000000000000000000000000N1208000000001                 4CD2B553BF7A6F4CF63F66BD30A24A7E
00005999642949ISENTO        ORLANDO JOSÈ ADANS                 RS340079890       201208012100100000006634BC610703E78A594EE211488E3F1723000000004040000000004040000000000000000000000000000000000000N1208000000001                 ECD8752EE787060EF240D982FD8A7DA3
000451583980204035908468    DEONISIO TONIN                     RS340079739       2012080121001000000067BE591EB0E7E551673332093E773DBAC0000000004040000000004040000000000000000000000000000000000000N1208000000001                 CCE9FF75BDFA48BC5C15BE569B292842
000653429090159039745733    NEI JOSÈ LOEBET                    RS340079858       2012080121001000000068267F4B969F05F65B2EA1DC0BEC87DA26000000004040000000004040000000000000000000000000000000000000N1208000000001                 F7157D58272D47944D1AF46D21FCF024
000702590030341038045454    JOSÈ ANTONIO SOMAVILA              RS340079826       201208012100100000006979C7D750F1B678F2B25E9035AB7B4E31000000004040000000004040000000000000000000000000000000000000N1208000000001                 A72E931721D8499A705DC194C4B58A9C
000393484660205019884823    DANIEL CASARIN                     RS340079737       201208012100100000007089FD1EDA3194DD4625EE8842EEBF56FF000000005390000000005390000000000000000000000000000000000000N1208000000001                 4E6BA63FC2D9E4DE0745AA8C5244E048
000892402780871062306905    ELTON ALCIONE TEIXEIRA GUEDES      RS340079978       20120801210010000000716D1060CCC1F1D5F493F1C7ECA05B3386000000004040000000004040000000000000000000000000000000000000N1208000000001                 CD7A38644D6FCB9FDFF001DB6CD5AF2E
000920610100591049890451    GIORDANI ANDRE DEZORDI             RS340079779       20120801210010000000721540EBD808F65EB064FD85E1C8561CDA000000004040000000004040000000000000000000000000000000000000N1208000000001                 DF927569B1A5A515AB661E41AB9D96CF
000005189250219085315531    MIRIAN DIVA PRETTO                 RS340079833       20120801210010000000737BB2DA49F434DA5B6D86AAE3304D2E9D000000004040000000004040000000000000000000000000000000000000N1208000000001                 9DF9F9DF0AEFBAD7B498036E2D87D1AE
000162895440048004391689    NELSON FONSECA DE MELLO            RS340079857       20120801210010000000749EA17ED21B661CBACBC3CCF81D007986000000004040000000004040000000000000000000000000000000000000N1208000000001                 829F5F27BF5F0277D7F44EA1FDBE8CDC
000022278090863084227028    ADRIANA DALLALIBERA                RS340080013       20120801210010000000755CF29DF7FFA452CECBD7C015602C4176000000004040000000004040000000000000000000000000000000000000N1208000000001                 FA4BE03B45FADE2CBD42703994125CB1
000224042100256004066401    ALCIONE MACHADO                    RS340080000       201208012100100000007614E1DC89376DCEE7BDEAE0D147B61B66000000004040000000004040000000000000000000000000000000000000N1208000000001                 B9650759FA1CD7CD1ABC4C869D0E77BE
000275343240682024437374    ANTONIO DE PADUA CASTANHO NASCIMENTRS340079706       2012080121001000000077B07FFDF9EB9609DABC6169292C119F9E000000004040000000004040000000000000000000000000000000000000N1208000000001                 C61C20FD8A23C08545CFE978B1D91E7A
000309275790492002758361    DANIEL TEIKOWSKI                   RS340079743       20120801210010000000787BE9054E02FC81422AAD6463E34F95ED000000005390000000005390000000000000000000000000000000000000N1208000000001                 5E41DBDE360257C87E16FC661894E1AB
000441687300003151009974    ESPEDITO VICENTE CHIAPINOTTO       RS340079759       2012080121001000000079F6C79F35188D7EE1389C0AE193C63C64000000004040000000004040000000000000000000000000000000000000N1208000000001                 BE44EFCB51826AEF0FCDBC5FF20529CD
000283614400972009485448    JO„O BATISTA MARGUTTI              RS340079816       20120801210010000000802489B9CEDE3FA42868FBEBF40668548F000000004040000000004040000000000000000000000000000000000000N1208000000001                 3772FB7968396797935D9B6ADAAF02AA
000376319180152020041171    JO„O FLAVIO DAMI„O MARCON          RS340079980       20120801210010000000817B3C764DA89C10566A04B6884E145811000000004040000000004040000000000000000000000000000000000000N1208000000001                 77A35B760C413D969785E2F19B207EF8
000020336630194084407388    RODRIGO PEZZINI                    RS340079885       2012080121001000000082C56E1993CE04507EC1A54E1E1E7A89F7000000004040000000004040000000000000000000000000000000000000N1208000000001                 3C5E43BE95CE5929750C24080FEB70AC
000312994580681054236326    SELVINO JO„O BUCHNER               RS340079884       20120801210010000000833107DF5BB3304C87AAF85B9D6D9DDF18000000004040000000004040000000000000000000000000000000000000N1208000000001                 BDB1E02958A4C11309C0FCD3E78EC6D2
000474460130871037726518    VALDIR ELOI PHILLIPP               RS340079882       2012080121001000000084BB54877F09C4A201A776AC12312E31D7000000004040000000004040000000000000000000000000000000000000N1208000000001                 3EB1198D01E480DB6312DBCEF048AB26
000105869540155027038867    ARTUR VALDI DA SILVA ISSLER        RS340079708       20120801210010000000855FA2498A261E05AC31E0965EEA1B11D2000000004040000000004040000000000000000000000000000000000000N1208000000001                 AEDF542E4A0916924B9FCBC20A04B23D
000332633370688006722733    ELVIO JO„O SARZI                   RS340079760       201208012100100000008658E9FC568279FEAA491E06429A4C4A9E000000004040000000004040000000000000000000000000000000000000N1208000000001                 68731F57A96ED6426FD00AABD76FB794
0002738881602040270474008   MIGUEL WELTER                      RS340079973       2012080121001000000087865B37ECD25AD79E1F5189E83DA85806000000004040000000004040000000000000000000000000000000000000N1208000000001                 3FEEBD0A98438CE5A8CCA6DC0FE8FAAC
0002882425309160021418125   SILVESTRE JOSÈ SCHER               RS340079904       20120801210010000000889951BB28B23778406902CC658D53EFDA000000005390000000005390000000000000000000000000000000000000N1208000000001                 1C40CFA0D2189EBCF1E2C58DFC770CAA
000308204210492001895248    ALCINDO PEDRO BORTOLINI            RS340079715       2012080121001000000089A41DF6E9FEB2FF10BB82587B7B702AA9000000004040000000004040000000000000000000000000000000000000N1208000000001                 2A89F290024237D0F8122AA72E0CC40A
000388641690912029086465    ANTÙNIO GILBERTO FOLHARINI         RS340079714       201208012100100000009071CAEB9D6B12D202B0EFE436308A05BB000000004040000000004040000000000000000000000000000000000000N1208000000001                 8F399563120B9FD7942FAA3718956336
000991911990345041059022    CRISTIANO BERNARDI                 RS340079987       20120801210010000000918D782E888B08FABA2E63784EA2C55485000000004040000000004040000000000000000000000000000000000000N1208000000001                 6790C73049C93EFF97EBFA41DC736974
000523666930876041012615    GERSON GILMAR CARMELUTTI           RS340079852       2012080121001000000092ED3194A51EBE8DD32B051C5BA5845CC7000000004040000000004040000000000000000000000000000000000000N1208000000001                 E23FB51B02B6DC67ED173E47283B16E3
000645481120497044021135    IDOMAR FERRETTI                    RS340079976       2012080121001000000093598AD2320A8DD2EFA7C3ABC2F5F6C635000000004040000000004040000000000000000000000000000000000000N1208000000001                 5A2EDD0D846DC699365E19C81826B965
00027539229004ISENTO        ISMAEL MARCHESAN                   RS340079801       2012080121001000000094924B996D8019D7E2CCD5251A21F25DB3000000004040000000004040000000000000000000000000000000000000N1208000000001                 0AE3CFF480F684785690B824F77E4EC2
000011646520448094619098    JOICE OLIVEIRA DOS SANTOS          RS340079986       2012080121001000000095727C49EB378E806CF36077652E8DF9D6000000004040000000004040000000000000000000000000000000000000N1208000000001                 FB9BFCA3C12BCC39FD3E68125306E1FD
000494525410914039735255    ADEMIR GUSE                        RS340079711       201208012100100000009627AB290F04B61137062B9108153359A4000000004040000000004040000000000000000000000000000000000000N1208000000001                 4F02F646A86D0058A9E82E355F34DF34
000152890790683024422564    ALTIDOR FLORES DE OLIVEIRA         RS340079710       20120801210010000000973E672FBD538C98FD2811600E16076C40000000004040000000004040000000000000000000000000000000000000N1208000000001                 8CE693E7A73127A3D4E5FD955864BA2E
000255540930009020874336    ANTONIO FELIPIN                    RS340079709       201208012100100000009894387A6831856F7DD002014C231909C6000000004040000000004040000000000000000000000000000000000000N1208000000001                 3C60B063A5AFDB3F7CB0A909DE39E550
000488994100203039064633    ANTONIO MENEGHEIN JUNIOR           RS340079701       2012080121001000000099BD114FEF6DCA1F6F2A9E66B39B4A83CB000000004040000000004040000000000000000000000000000000000000N1208000000001                 FFD3C140BC47073E645CF7C33C59D5B6
000897871450153062303536    CRISTIANO SIDNEI BRISSOW           RS340079727       2012080121001000000100D394F02547E1852CD325E33B16865D54000000004040000000004040000000000000000000000000000000000000N1208000000001                 7038BEE9138C269B8556EDFF4098CD2C
000332213830531017284041    DARI SCHULZ                        RS340079744       201208012100100000010125676AB54136AE04B3685BFAEE037838000000004040000000004040000000000000000000000000000000000000N1208000000001                 94CC531AD162BB61326E09C357BC9CB3
000279711390048013414597    ELCIRA DALMAS MENGHINI             RS340079750       20120801210010000001026F41357DF39166B08D11F783CBD3A5F0000000004040000000004040000000000000000000000000000000000000N1208000000001                 A35735548913AF8C3C11043384C240A0
000654682870722032748151    ELOIR ROEHRS                       RS340079762       2012080121001000000103DCF05C4EC519AB5F4867BF0E9CB169FA000000004040000000004040000000000000000000000000000000000000N1208000000001                 F306FACF08827990541A98C9C9CF8024
000368315730533016046041    ELOY GENZ                          RS340079981       2012080121001000000104657749A453B378C5767E95ABAA0D7472000000004040000000004040000000000000000000000000000000000000N1208000000001                 5A567742B5B7FE70E369F5ECC9C5613E
000419977430001026796886    EUGENIO WEBER                      RS340080014       2012080121001000000105181727B24E26710106B9B4E11B4A10A0000000004040000000004040000000000000000000000000000000000000N1208000000001                 4BBBA1BE6053543C752BDB74FA4DDCF9
000485490020207039735357    FRANCISCO ALBERTO PRESTES          RS340079773       2012080121001000000106BA407F98CD2B72FEEEADEB04455A5A73000000004040000000004040000000000000000000000000000000000000N1208000000001                 3AC07FD84B83812A5C4836ABE6580852
000896416980872055965848    HERCULANO CAMARGO DE OLIVEIRA      RS340079785       2012080121001000000107F47147CCCB7EF0932F9C9F68E02F2944000000004040000000004040000000000000000000000000000000000000N1208000000001                 AEB35010C9F0D93FA8399775F05CE70B
00077264363015ISENTO        HILMAR SCHEPKE                     RS340079944       2012080121001000000108AC73BD78D10C6D176AEF9F7E2699BA9B000000004040000000004040000000000000000000000000000000000000N1208000000001                 816BA9E196A5F0269F1419A1AA014077
000336225400443018061956    JORGE ANTONIO DEZEM                RS340079803       201208012100100000010951C3FB76D9D6EDE8C781BC27147F0C20000000004040000000004040000000000000000000000000000000000000N1208000000001                 7F40DED83FF5075F1FF783775B645F20
00005838444053ISENTO        LEVINO WEIDNANN                    RS340079948       201208012100100000011074D91FFDCC6A478025EEE932B9DAB288000000005390000000005390000000000000000000000000000000000000N1208000000001                 CB8C63AE2B28326A45AE355575E52988
00040301842000ISENTO        SANTO LUIS PEDÛ                    RS340079959       2012080121001000000111A798DAB0DB76E9E513B9D5F19EBF1794000000004040000000004040000000000000000000000000000000000000N1208000000001                 6B3FB2D23B859DA62711D4DC705E1135
000654681630041047862303    TANIA SCHAURICH                    RS340079906       2012080121001000000112F916F316B6870ADC12B0A15F02CB6B0F000000004040000000004040000000000000000000000000000000000000N1208000000001                 F4824BB43E878A4D2EBBD7E38D034AA5
000043231730914017776768    AMARAL SOMAVILA                    RS340079697       2012080121001000000113E10A6A6F58A32CB15634325EDD057873000000004040000000004040000000000000000000000000000000000000N1208000000001                 2E1525F9B76C97F25D703A8A57E5B96D
000702577870201051541223    CLAUDIO STEINHORST                 RS340079734       2012080121001000000114318FFA5054B4401309CB8A585C8B06DA000000004040000000004040000000000000000000000000000000000000N1208000000001                 2A2CE9845D02899758CE98F0A3151C59
000445947390911034894814    EDEGAR MINETTO                     RS340079765       20120801210010000001156F332A65B94C627E9752AB29511C4048000000004040000000004040000000000000000000000000000000000000N1208000000001                 F559BD4EC6DBBEEBAACF745D976DFE5A
000275531400152010048491    FABIANO DOS SANTOS MOURA           RS340079935       20120801210010000001168E21EDE6CC0EB6735E02C9EE2528E608000000004040000000004040000000000000000000000000000000000000N1208000000001                 F034280CFA70D62BD0136E7A5A60C4D6
000559029520342053296411    LAURI MINETTO                      RS340079827       2012080121001000000117A18539A1D1FF26D98F7DFDD3101A245E000000004040000000004040000000000000000000000000000000000000N1208000000001                 4C81EADC1733AA5E7F7114252A48F41B
000449875520001034955029    NELIO MINETTO                      RS340079913       20120801210010000001189B3B25FBB86A2B78BB37E71301FDC5AD000000004040000000004040000000000000000000000000000000000000N1208000000001                 CCCC0886C4C206145D1FE03965F79AF1
000357956540006020166887    OLINTO BURIN                       RS340079914       201208012100100000011974CF2D0E0AA551FA9A7CFB870F89107F000000004040000000004040000000000000000000000000000000000000N1208000000001                 3C8C8229D5F3F313E325B83F59221911
000423490280201029137112    PAULO ROBERTO COLETTO              RS340079915       201208012100100000012040A6F4B671DF1EDC964C26B2070FF353000000005390000000005390000000000000000000000000000000000000N1208000000001                 1AE198BA785E3E8A065E69D52DD4DE3A
00045157910010ISENTO        ELOI BREMM                         RS340079778       20120801210010000001219F38591BB16192D1E50C7B938B789A06000000004040000000004040000000000000000000000000000000000000N1208000000001                 B5B28A7C8CF12D5B42486A9345A79E7F
00027572609015ISENTO        ILDO JOSÈ SCHERER                  RS340079796       201208012100100000012263AF1607671B159A9490BEE0895C0E82000000008080000000008080000000000000000000000000000000000000N1208000000001                 DAEF743738267E06C049F11C6ECF2515
00033234361053ISENTO        RICARDO LUIS STEFFENS              RS340079895       20120801210010000001233E42AB7AE237D5A366756D2747283198000000004040000000004040000000000000000000000000000000000000N1208000000001                 A12BADC684E91DA1CF08B360AE4F9076
000705417010531064598251    PAULO CESAR ZAMIN                  RS340079880       2012080121001000000124550CA264B3139D9A631DC0A8F35F2BED000000004040000000004040000000000000000000000000000000000000N1208000000001                 C19E68ADA3FB28055BEC853A0707CB19
000034263780009026508052    BENO INACIO SCHMITT                RS340079994       2012080121001000000125214D32761EB89A7ABEDA33B7521E8768000000004040000000004040000000000000000000000000000000000000N1208000000001                 234356055D769C94688DFDA4660DEF07
000217077580343021736586    ATILIO LUNARDI                     RS340079676       2012080121001000000126D9161247916C2129E79D10AA2AF6F48D000000004040000000004040000000000000000000000000000000000000N1208000000001                 03A8FB19A9D7243FCF0413957AD26215
000217237100912024103489    FELIX CAPPELLARI                   RS340079775       2012080121001000000127F958064E16C2AE73062A424EFF3C61DB000000004040000000004040000000000000000000000000000000000000N1208000000001                 A42084101279158C0DC92C7F96A34D88
000489435500061035973955    BERNARDO ZALAMENA                  RS340079680       2012080121001000000128A1B565A32BF8231A6964389DEC80B64F000000004040000000004040000000000000000000000000000000000000N1208000000001                 C9292AC90C56CE3E85B69148C805E49F
000801937060919057020613    CESAR LUIS DILLMANN                RS340079721       2012080121001000000129249CE1FA6BC8663E2B8818C8F6D4A3FF000000005390000000005390000000000000000000000000000000000000N1208000000001                 A86F89799FC08E1BA57A726E137F4E9C
000245716600494021275948    CLAUDIO FRANCISCO DALCIN           RS340079725       20120801210010000001301AB25B76DDA0650BE0F3933FAE37222F000000004040000000004040000000000000000000000000000000000000N1208000000001                 28193C8744D1D198E491A6ABB439CA90
000460555090916044700414    IVAR DUARTE                        RS340079982       20120801210010000001314F3F8BFAEB6D1ECFB4B822EE03324E91000000004040000000004040000000000000000000000000000000000000N1208000000001                 694F59C543D9152C1B3169B9E0C5BF34
000441836580046034973435    MILTON JOSÈ DIEL                   RS340080004       201208012100100000013288BFFB77BBB7FA2037FC6F358B75C000000000004040000000004040000000000000000000000000000000000000N1208000000001                 409EB0F1A08EBCAC9196675682ED3FC5
000551078180723042611933    VITOR ANTONIO CARPENEDO            RS340079920       2012080121001000000133B6E32207356B70831C4528530066CE1D000000005390000000005390000000000000000000000000000000000000N1208000000001                 A4B8DA76690D32D58B508792001987C1
000523002930727044727845    DECIO RAMBO                        RS340079995       20120801210010000001347A336E688FA7DF21CA54E26CB11F7EA8000000004040000000004040000000000000000000000000000000000000N1208000000001                 C9E56DEF5240DA730B9CC632DE325643
00044722320063ISENTO        ERALDO RAMBO                       RS340079751       20120801210010000001352ED162189A73063EB077EBD27FFBABE6000000004040000000004040000000000000000000000000000000000000N1208000000001                 3E94D0B7377C9348FBA9A505FE69C1B8
000602708880045050150621    JO„O ROQUE MADERS                  RS340079819       201208012100100000013600A7DCF78647585B4C66556A8FA270C4000000004040000000004040000000000000000000000000000000000000N1208000000001                 0743922BA6F7D1E4386DBE4A901F2578
000962891470728056355798    ANGELA DE FARIA MARASCHIN          RS340079702       201208012100100000013751B4841DA7280625AEEB6320BFDF23FE000000007190000000007190000000000000000000000000000000000000N1208000000001                 FFC7599CE6A982CD2D6C2910F5D9A17C
00021696624053ISENTO        ROMEU ALOISIO LOEBENS              RS340079868       20120801210010000001384F0FD0DC4A7D7C5DF9E1A389DD71AF98000000004040000000004040000000000000000000000000000000000000N1208000000001                 8E4F22C0647F2EB464389C5A7A34E9F7
000438424020151026770188    SERGIO FRANCISCO CAPPELLARI        RS340079918       201208012100100000013916077FB5731105B010909851CC2DB15F000000004040000000004040000000000000000000000000000000000000N1208000000001                 ECD6597606F0B56C1841481EBBB01987
000332306410004009708365    VALDERINO WIELAND                  RS340079989       2012080121001000000140568F7C005A9EA4D5CF8F980760F7D022000000004040000000004040000000000000000000000000000000000000N1208000000001                 D2898F30C3C3DB3D69B18B814201C8B4
00033215391015ISENTO        DÈCIO BOKORNI                      RS340079740       2012080121001000000141C53A3447DD37D2959503D67135EA4165000000004040000000004040000000000000000000000000000000000000N1208000000001                 0B7DD81413FB0BE0C33AFF51031E740B
00078408555987ISENTO        MARIA INES JOHANN K¸LZER           RS340079936       2012080121001000000142D3E85D4B1FD8B64621CAEC31F77CC567000000005390000000005390000000000000000000000000000000000000N1208000000001                 6FC4C3E7C0C2B9E93ECB8AA4B418C1F9
00054855020087ISENTO        MILTON BRUISMAMM                   RS340079840       201208012100100000014375A568A601DDD8EAF40A79AC30C7E97D000000004040000000004040000000000000000000000000000000000000N1208000000001                 4CE6DFDE40C0750D3351BC43D92DD1F4
000892294870151042321933    MIRIA INES BECKER DIEL             RS340079843       20120801210010000001440922E6C87245D5328D18CEBD02276706000000004040000000004040000000000000000000000000000000000000N1208000000001                 FE7DFC8A5FB4585B6AC7647C319697AB
00044169051068ISENTO        PAULO CEZAR BOGORNI                RS340079867       2012080121001000000145A6E05A26976B292FE84625CA65752473000000004040000000004040000000000000000000000000000000000000N1208000000001                 B39D1678AF3412A3323E01DE223B7E9A
000309172710685069321874    ROMEU JUNG                         RS340079875       2012080121001000000146C9962D1ED676E7F77017E20B1CF6C7C8000000004040000000004040000000000000000000000000000000000000N1208000000001                 203DB0C2AAD15AAC21CE3CB787483595
000411008160201026453711    ROQUE BENTO KNEBEL                 RS340079876       2012080121001000000147E2121DFE3E57FC27B8E93A4CE41C4509000000004040000000004040000000000000000000000000000000000000N1208000000001                 FAC723E622D5FEC4EEB24465E633D3B8
00036488356020ISENTO        WALDIR LUIS PETERS                 RS340079873       20120801210010000001488423F4B3DED98C0B565021A5BC7DDB6B000000004040000000004040000000000000000000000000000000000000N1208000000001                 2D277F6BC70A4538F2A3A49378494B34
000599232700251127453206    ADELAR BERNARDI                    RS340079674       2012080121001000000149265DDD13C2F3A219886EFAB582FA3407000000004040000000004040000000000000000000000000000000000000N1208000000001                 30CEDE8CEBA65C983E146D9768C8EB85
000555777170001044705984    ADELIR ROPKE                       RS340079675       2012080121001000000150B6F7DE428FA82D0F206668CA25693535000000004040000000004040000000000000000000000000000000000000N1208000000001                 379E6E525B89C77CFEBDEE9F3E68FC48
000438432800104035806258    ADEMAR PALAVER                     RS340080017       201208012100100000015166A607C761FEE86AD12947BAF6941F80000000004040000000004040000000000000000000000000000000000000N1208000000001                 74F750C877F627109F9DD6C4C59B05B1
00030901820091ISENTO        ADELIR TRENTIN                     RS340079972       20120801210010000001529097E019274A1DD93D6A5D7B470E3DD1000000004040000000004040000000000000000000000000000000000000N1208000000001                 000C6BD4A3A8FB6DD5862BFC5E94356A
000757984920879044712819    ELAINE M¸LLER BATAGLION            RS340079755       2012080121001000000153CD6350FAA9F7BDBFFBD9D0E60EBAC145000000004040000000004040000000000000000000000000000000000000N1208000000001                 5FA4AC404388DD377AFC015F6581A62C
000757978790341052373386    ELTON ABITANTE                     RS340079756       201208012100100000015485D857F7A711CD633ADCA0BD8CA583F1000000005390000000005390000000000000000000000000000000000000N1208000000001                 CB503F6AC42BA1F95EFE58ABD71968AD
000273879250204024716989    HELDER MARIN                       RS340079786       2012080121001000000155B0CF1A7F1A8D701FB12CEB1D7C04A5E8000000004040000000004040000000000000000000000000000000000000N1208000000001                 3926D1427CBF995D4508D8E5797F40A6
000387953700306012480213    IRES PERIN JASKOWIAK               RS340079791       20120801210010000001567E6B990F8FB029CE6FC9C8F9A2687D6C000000004040000000004040000000000000000000000000000000000000N1208000000001                 BDE113D613DEF79C676FEF8785F203D1
000387923890157022159136    IVO JO„O RIGON                     RS340079790       2012080121001000000157EDE4485C575FFE355FF5908419C59BA3000000004040000000004040000000000000000000000000000000000000N1208000000001                 72DE39E0F724BEB14BB9621D65838387
000245708690687010050099    JAIR ANTÙNIO BRUM                  RS340079814       2012080121001000000158CAB3C71E631BEB0C2E3CB1B8C295AC22000000004040000000004040000000000000000000000000000000000000N1208000000001                 0E13FD31DF710C203046CFBA1E082121
000937912080046068683405    JHONI FACCHINELLO                  RS340079813       2012080121001000000159C422F1004B4F8755BCF1E0F083EDCC85000000005390000000005390000000000000000000000000000000000000N1208000000001                 3F14CC09C684A9D20275A3DD65DE7E8F
000493224940345012287297    JULIO CEZAR BRUN                   RS340079815       2012080121001000000160F6117F530C74B0A90795FD2BC5793E77000000005390000000005390000000000000000000000000000000000000N1208000000001                 B6340E437FE9A6A4CE6A7D9EE6926ACE
000938464360201018617934    LEONARDO DE CONTI                  RS340079830       2012080121001000000161A6003F7A9E73D5047A19F85E865A3F2D000000004040000000004040000000000000000000000000000000000000N1208000000001                 1F181EB7F512EA10EF56E22CDCBC57D8
000387931640684019698911    LUIZ CARLOS ZAMIN                  RS340079828       2012080121001000000162FC1FC60ED16C0B006C3A682F8072F551000000004040000000004040000000000000000000000000000000000000N1208000000001                 A10B56E9ABA9FC3881542D787BBBD36C
0001165847906810230186797   LUIZ PIROCCA                       RS340079829       20120801210010000001634451BC0178809E95B110A42383CF6CA2000000004040000000004040000000000000000000000000000000000000N1208000000001                 D846AB9A57B0F4A240814FB2886CD8FB
000927731840687062411595    MARCELO BIN                        RS340079850       201208012100100000016410A156FD4B697981298A11594EA42B29000000004040000000004040000000000000000000000000000000000000N1208000000001                 4CCCD52CB384F2F70322E73D183A5CF5
000946443140721073683714    MARCIO ANDRE GOLIN                 RS340079971       201208012100100000016595BB9226AA7ECA8EC9433500DF1D6049000000005390000000005390000000000000000000000000000000000000N1208000000001                 D20326FAFF2F973559DE621B507BFE9B
000911116760203052373391    MARCOS ANTONIO BERNARDI            RS340079851       2012080121001000000166B13AB82C1484EAE690CDBF5E384102D1000000004040000000004040000000000000000000000000000000000000N1208000000001                 1917A1939782298F621CA3B555FC9433
0001346057907280028245      OMAR BIN                           RS340079923       2012080121001000000167CA0398629C8E1CBE67E3237FA89A8C7E000000004040000000004040000000000000000000000000000000000000N1208000000001                 202E3A1FF29D763A27272C459812337B
000199527160879018152257    VILI NERI MAYER HEMMIL„            RS340079919       201208012100100000016895602C215DD04559D63237C4E8D26897000000004040000000004040000000000000000000000000000000000000N1208000000001                 04A62D835BC9FB0A0CA14223F333AC69
000885212570155025382135    HERTA REGINA CASSEL                RS340080005       20120801210010000001693F595047969B6EE7DCD0BE6EFBCA90E9000000004040000000004040000000000000000000000000000000000000N1208000000001                 F5014AC6278E3160401525CA16A135B4
000275286420539011155927    MILTON CARLOS ABEGG                RS340079846       2012080121001000000170E6F2972D6CAE22434BF0EBDC3DF45475000000004040000000004040000000000000000000000000000000000000N1208000000001                 37C8D826CAA56B2A890C7DD414E7645D
000664236940873051530537    ELEANDRO ALEXANDRE KOCHHANN        RS340079767       2012080121001000000171861D3B93053BAF4CDF71E61BD7C250F1000000005390000000005390000000000000000000000000000000000000N1208000000001                 A494FFD3EF146B5AB2C41FB71F6896D6
000247150340341001508041    ALFREDO JANSTCH                    RS340079703       2012080121001000000172403115EB06F0694C0B203F42D89E0317000000004040000000004040000000000000000000000000000000000000N1208000000001                 D61BDAA1718CD7A81A6C5BEAAB89636A
000275116000005014604903    LUIZ CARLOS BECKER                 RS340079818       20120801210010000001738C459FE3F5C6CDD6D08D2C068EDB4306000000004040000000004040000000000000000000000000000000000000N1208000000001                 CF30C91C42CCDAF2FD6A284759B40960
000212555470492009618584    LUIS FRANCISCO SCHENEIDER          RS340079824       201208012100100000017420EF562D175400CB8C0042E783C88338000000004040000000004040000000000000000000000000000000000000N1208000000001                 6E8BF593674218E7AC9435E2A6D3EBAC
000460942020151034161529    LEANDRO FRIZO                      RS340080021       201208012100100000017555F4FE9A9B47DB70BE702DFBBD464DA2000000005390000000005390000000000000000000000000000000000000N1208000000001                 6AE8FFDA589E1434B661CA252DFD2D69
000828673050047083440987    SILVANA SILVEIRA DOBLER            RS340079883       201208012100100000017604AA81A79D95249819511FBCDEC36094000000004040000000004040000000000000000000000000000000000000N1208000000001                 013CAD46F704D7CF546286526EC9CBBD
00037747010087ISENTO        GERVASIO JOSE LOFF                 RS340079943       2012080121001000000177B619E918E711FCF765A3A3D11CA453E0000000007990000000007990000000000000000000000000000000000000N1208000000001                 C34FB2DA0CFA8F13D1118F16A9250724
00074919008015ISENTO        JAQUELINE MIETH                    RS340079807       20120801210010000001783E1AA2C2E3930112F72947C4D9E71B72000000004490000000004490000000000000000000000000000000000000N1208000000001                 66CBBC0A0C21EC9C72B055168D3A3BF3
00030988667053ISENTO        AFONSO K. KUNKEL                   RS340079683       201208012100100000017951305589E7DBEADC50B361896B4CFB19000000004040000000004040000000000000000000000000000000000000N1208000000001                 B56C3D005E72AEE6397CBC7F3EB62540
000515209400251026528371    EVANIOS GRUNDEMANN FENNER          RS340079761       2012080121001000000180B2CC9772694A34AF79EA8D0A60AF1C0B000000004040000000004040000000000000000000000000000000000000N1208000000001                 A870B14DF4BF69C7AF72F43DB9F68FDA
000332338880152020215195    INACIO LUIZ KIPPER HASS            RS340079798       2012080121001000000181032CE89399F8718B1DA28F5FEBAB8CE7000000004040000000004040000000000000000000000000000000000000N1208000000001                 5ABD80B1E16925C39AF9F982D4F24435
000357290150208022735933    JO„O AFONSO KOTZ                   RS340079800       20120801210010000001822102A98102D690586506A8D939CEAEB4000000004040000000004040000000000000000000000000000000000000N1208000000001                 D3D266B98C19EF73066C0FF80ADE41AE
00000049273035ISENTO        JUNIO SCHARDONG                    RS340079804       2012080121001000000183CF662E65AF680EEE37E198DDD365D909000000004040000000004040000000000000000000000000000000000000N1208000000001                 FE6AF55D7AC52BF32039195C70DE93B6
000457669400681039741804    LAURI HECK                         RS340079831       2012080121001000000184053B2BDED7D0F59EC4F96C479347B412000000004040000000004040000000000000000000000000000000000000N1208000000001                 043D1C92AFBF5E498550338C96117EE6
000588749920687027851976    NEDI LEONORA MAYER MATTES          RS340079860       20120801210010000001851747A42D1BD2F19658595E0D47759CB3000000004040000000004040000000000000000000000000000000000000N1208000000001                 9D29CD8B294204F8638B4C6AA0709737
00030980640059ISENTO        OLANDO LIMBERGER                   RS340079956       20120801210010000001865310FC6B3F39226A2F28AD77D42BB53E000000004040000000004040000000000000000000000000000000000000N1208000000001                 E3FF4D780C1D50CE469BA21F47A21E9E
0000358569702020115832922   ROQUE ARENHART                     RS340079891       2012080121001000000187DF3C271CB25E9EBEF98D2988C1236556000000004040000000004040000000000000000000000000000000000000N1208000000001                 BBDC9D1BD888814C96B2BFAAE6E905BB
000372458130001035054591    ROQUE INACIO ANGNES LIMBERGER      RS340079894       201208012100100000018866736B692EC0E343ABA664422BD57209000000004040000000004040000000000000000000000000000000000000N1208000000001                 5492B403004E6494805C9A0D67BA0C2E
00043368484087ISENTO        VIRO LIMBERGER                     RS340079900       201208012100100000018905D2E349D55679ABE079E65E784B9829000000004040000000004040000000000000000000000000000000000000N1208000000001                 F9DD90F210580229ECDD9E7095E5B5C0
000523705930915014958853    ALBANO ALLES                       RS340079699       201208012100100000019055B99C804384B7E418B24BCBEFE69BE0000000004040000000004040000000000000000000000000000000000000N1208000000001                 25E9EB0D3D018AF3F4A3B0DEC5FBAAA5
00030884870006ISENTO        NOLAR ALLES                        RS340079856       2012080121001000000191C232C6DF861228C6D7A8BC25E029C925000000004040000000004040000000000000000000000000000000000000N1208000000001                 95F4EF2D46DC09C819512A95FE5F2DC1
000331013880153017632351    ADEMIR JOSE CAPELLETI              RS340080042       201208012100100000019261FF7CCD12A15A858C0460D2825F1236000000004040000000004040000000000000000000000000000000000000N1208000000001                 27AF5CB593E5046D876FD4F9127F689B
000035384860343023099033    ELCIR ANTONIO BRAIDA               RS340080037       201208012100100000019368847A5041BFD45E9E5596355B90E594000000004040000000004040000000000000000000000000000000000000N1208000000001                 4ACB6FCCD31584B63EFA87F18350D860
000232095770725001328813    JOSE ANTONIO PAZE                  RS340080035       201208012100100000019499DB321A35DEB1A517303B1EDC1B15E8000000004040000000004040000000000000000000000000000000000000N1208000000001                 17F0FC18837D2ACC15460342AD076A69
000705474830158055833688    JOSE ROQUE GERLACH                 RS340080029       2012080121001000000195DF95AC2E4ACD3AF03C745DB43D43EC1A000000004040000000004040000000000000000000000000000000000000N1208000000001                 261A341E914A65E5AEA3A423ECAB1C6A
01945082000100ISENTO        ABATEDOURO GALLAS                  RS140079741       2012080121001000000196C2C19B82494C03BCABD627C555A6DEFB000000007990000000007990000000000000000000000000000000000000N1208000000001                 DEE96C4A05A9B425FD6AD7B3CEF60A54
87685459000154ISENTO        SINDICATO TRABALHADORES RURAIS DE ARS140079964       201208012100100000019740CD264434DC5548AA03E423C91DAB71000000007990000000007990000000000000000000000000000000000000N1208000000001                 F8D5F026439285E47AEADEC5655AB126
03017098000188ISENTO        CAMARA MUN. DE VEREADORES CANDIDO GRS140080062       201208012100100000019839849A55DDD92A050792CCF409E4BD35000000007490000000007490000000000000000000000000000000000000N1208000000001                 A5B4B4C206DAE878ED55F01792B8C1CF
93845519000151ISENTO        PREFEITURA  MUNICIPAL DE PORTO MAUARS140080039       2012080121001000000199B18045D72AB468E80FAAD1C2E44F7B5C000000113408000000113408000000000000000000000000000000000000N1208000000001                 01BB1B3292202D7FF00E8986E4A12879
000460836420005027156511    RODOLFO SCHONS                     RS340079889       20120801210010000002004F3E7D61823612DE4008CD2D0964FF9C000000004040000000004040000000000000000000000000000000000000N1208000000001                 EC4176FBAFB832F386AE62643F2460AC
000986977140871074624915    ADRIANO LUIZ LUNARDI HECKLER       RS340079985       20120801210010000002013F43A18C1B17E9F3529122E52C1EF9CE000000003995000000003995000000000000000000000000000000000000N1208000000001                 458E4ED963E7DA1B435CF626CA1FFF49
000002649600334065371439    ROBERTO THIELE                     RS340079671       20120801210010000002023BF4FED88557C460F9494963C6056E2F000000025090000000025090000000000000000000000000000000000000N1208000000001                 5C34B5DF93AEF517A580EE4B4F1ABF85
00080541704087V138243VRNE   GERHARD JANOCHA                    RS340080051       2012080121001000000203833B4E3C285B0A61DDEAD074A40CC439000000007990000000007990000000000000000000000000000000000000N1208000000001                 584C3BEA4FF97C3F8D67F44C2C209776
000472516700205035104545    ANTONIO NIESEIUR NETO              RS340079704       201208012100100000020447896EEF4D8C57C331BE59C474610AF5000000004040000000004040000000000000000000000000000000000000N1208000000001                 F688BCC3CE3BDECD736283E29DFAB7F7
00018988270010ISENTO        GABRIEL HORN                       RS340079941       2012080121001000000205127B711CF891412F664C5913F6E32BF9000000004040000000004040000000000000000000000000000000000000N1208000000001                 79E129DDD9BFF1F37D573C90C432930D
00099965631034ISENTO        GEOLAR SCHNEIDER                   RS340079781       201208012100100000020612B08181B08EF184D7CFBCB2BE5E8F4E000000004040000000004040000000000000000000000000000000000000N1208000000001                 09A84203F7576B12524DB93C7F359D30
000671187710151042692572    ILMO ELOI DILLMAN                  RS340079795       2012080121001000000207481FCEB370357F41913AA9E37AF2D830000000004040000000004040000000000000000000000000000000000000N1208000000001                 687988447665E06F4A5D56EA2115ECA1
00068566271068ISENTO        PAULO ROBERTO CONRAD               RS340080006       20120801210010000002081289C52FC37FBCD1AD25F44510248762000000004040000000004040000000000000000000000000000000000000N1208000000001                 F1A1CD2FE3E5B7D2DFAC7E690137E03F
000685668400201050398666    VALMIR JOSÈ STEFFENS               RS340079871       2012080121001000000209DEDAC84387F697B8686F69C8BF3A28C8000000004040000000004040000000000000000000000000000000000000N1208000000001                 801875AE7D3C2853B7A5E342CF49817C
00000879661070ISENTO        VANDERLISE INÍS ANGST              RS340079870       2012080121001000000210247581D771C3A9B90DA2171F262C23D1000000004040000000004040000000000000000000000000000000000000N1208000000001                 78462E77BCD9A3EFB97E637B2F9FA020
00063799138072ISENTO        VANILSON FROELICH                  RS340079967       2012080121001000000211E371FDB01E5E6B59DEF457592F8452E1000000004040000000004040000000000000000000000000000000000000N1208000000001                 778A2FA771EC4D91ABC7699D4C3E21F9
000332233430919013302279    JO„O JORGE BORCOWSKI               RS340079806       20120801210010000002127FBE68F78E18B3B258A9B60C8BFA9B9C000000005390000000005390000000000000000000000000000000000000N1208000000001                 20E5F8210496B9C78199067A5214FCFE
000727001060917029620106    LEONORA GLECI GROSMANN             RS340079821       2012080121001000000213CD010D8FCA1ADD78B9A74F9E5CE50BDB000000005390000000005390000000000000000000000000000000000000N1208000000001                 A46CAD7CE60836A90646628F0DE53F4C
000812712120721076085347    ANDRE RODRIGO HELDT                RS340079990       2012080121001000000214A186415DF6A089A9AD3A1148BE4F9506000000004040000000004040000000000000000000000000000000000000N1208000000001                 D3E097CE6F53CD269825F60F6EAFA7E8
000043855780871023891136    ATILIO ROQUE REISDOERFER           RS340079685       201208012100100000021586F50C55B34F5BAA9E2C221CE06A05CC000000004040000000004040000000000000000000000000000000000000N1208000000001                 513828099B86D9FB715ABFB147B7B78D
000997418900441083572048    CLEBER BIRMANN                     RS340079722       20120801210010000002160B3B02FCD2BFCA767A0A015AD4F34D2C000000004040000000004040000000000000000000000000000000000000N1208000000001                 9486E7F32172C156C2F8306F7BE56F72
000332392070877051732878    JURACI LUIS BIRCK                  RS340079811       2012080121001000000217D36DB32BF3E72D7F5634AC521D121751000000004040000000004040000000000000000000000000000000000000N1208000000001                 3F908EEA504460FA0FB39C44E315F6E8
00035350636049ISENTO        NEILA TERESINHA LEAL SCHLOTEFELDT  RS340079864       201208012100100000021814E78DB0B3E42525499E16738B048EC9000000005390000000005390000000000000000000000000000000000000N1208000000001                 E3E1999E3DA0A2B3844F296FAD596B48
000224032210154014777488    VALMIR FELIPO ROSSO                RS340079887       201208012100100000021980823375DD299C6E8AF5A1448E5BE98A000000005390000000005390000000000000000000000000000000000000N1208000000001                 A555EC1ACB20D3A7526C5FDFFAEC4E7F
000375240970343024608238    JANDIR INACIO HIPPLER              RS340079984       201208012100100000022012E7365A497E3FCE366324E5AB769F01000000004040000000004040000000000000000000000000000000000000N1208000000001                 5FC3AD3D598DA3C32D4B6AB8CC752252
000367182110875023963641    ADEMIR LUIZ FELIPIM                RS340080057       20120801210010000002214190382C9DE00C6A7E98A1F0D40BADC1000000004040000000004040000000000000000000000000000000000000N1208000000001                 BD663D5A79EB5C3B6794808C8AE80C26
000578278180725042018796    ANTONIO BENETTI MORISSO            RS340080058       2012080121001000000222368745DF6D904E1A17E44C3CB81552BC000000004040000000004040000000000000000000000000000000000000N1208000000001                 879E76EF99C97FFF3815C74B5BCE6388
000693310730207038738725    MARCOS DE SOUZA BOAVENTURA         RS340080045       2012080121001000000223D7E5500CAEC23AD5C2172914CEB38BDC000000007990000000007990000000000000000000000000000000000000N1208000000001                 63CDD54E4C284E482E669FEE2E9FEE09
00081244282049ISENTO        GABRIEL WERNER KNAPP               RS340079942       2012080121001000000224BCBE0E1D2AF0E0CB2FDF0EE5150E967A000000007990000000007990000000000000000000000000000000000000N1208000000001                 195EAE7DD6C3E3C2825708B109CC3F4A
00046634029091204229921     LUIZ CARLOS GERAHARDT              RS340080074       201208012100100000022523C221F000BC708DFBC1ABDEE569A819000000004040000000004040000000000000000000000000000000000000N1208000000001                 D76CCE4803DA48C40B94183F99C67AEE
00076677150097ISENTO        MARCOS MAYER                       RS340080069       20120801210010000002260A67A63F5BD1607E91930E90ADEEB1B1000000004040000000004040000000000000000000000000000000000000N1208000000001                 1E58ED1D289955ECC0A08D0411BC2AAE
87612818000143ISENTO        MUNICIPIO DE SANTO CRISTO          RS140080847       2012080121001000000227DBA216FB9E9801C15FA4CC05279EB4B9000000033648000000033648000000000000000000000000000000000000N1208000000001                 D76A5368404740B2BC16B355C36F5091
93592731000154ISENTO        PREFEITURA MUNICIPAL DE SALVADOR DARS140080858       20120801210010000002281033586562B00322F06765782D127FC0000000007490000000007490000000000000000000000000000000000000N1208000000001                 778127222D90CF1E2C05BB025A73490D
89504179000128ISENTO        ESCOLA MUNICIPAL E. F. S„O PAULO   RS140079992       2012080121001000000229AEAA423CF322FEB9C80CC59564268DDE000000009490000000009490000000000000000000000000000000000000N1208000000001                 481774AAF06E35C1701CD479ECDBA829
000460411760879026468216    NELSON ZIMMER                      RS340079988       20120801210010000002308F0EB9DBCF7BE5E44AAF47C6C51B228D000000004040000000004040000000000000000000000000000000000000N1208000000001                 5056D566472C1DAA0E7601DFD558B260
000370150950687036324262    EUGENIO SLODKOWSKI                 RS340080075       2012080121001000000231790B573B52B54F6DD294F0A23CFA1350000000004040000000004040000000000000000000000000000000000000N1208000000001                 B80F5201586BABDA0C4D1ABCA39EA72A
000384782260876014901141    JOAO WILMAR BACKES                 RS340080077       201208012100100000023297D66A634D61EE525E62FBE8D23B7B17000000005390000000005390000000000000000000000000000000000000N1208000000001                 3AD6B430398CB63AB70CC296C9BAD88B
000158205480002032539336    JOAO PIVOTO TABILE                 RS340080078       2012080121001000000233DC1D4FB4581DF81CF9FB9191FB57010F000000007990000000007990000000000000000000000000000000000000N1208000000001                 BAC31B39CB400DA0DC360B5C0C026D47
87613006000112ISENTO        PREFEITURA MUNICIPAL DE CAIBATE    RS140080016       2012080121001000000234C2566B72E1C0FB37EA26EE5B257601BF000000009600000000009600000000000000000000000000000000000000N1208000000001                 AEADFA4DE6CD661827A0028D50B0CE65
89971782000110ISENTO        PREFEITURA MUNICIPAL DE ENTRE-IJUISRS140079933       2012080121001000000235ABC0A4CCE62D9981507C6E5C4C223994000000009490000000009490000000000000000000000000000000000000N1208000000001                 43ABF2CA2FB9D01A230F27CE8CBA14B9
000646273900258042692254    ADEMIR LUIS DE OLIVEIRA            RS340079691       201208012100100000023655C6B3F19B2A0F8F9AA9CCC268CD9DDC000000004040000000004040000000000000000000000000000000000000N1208000000001                 73C39F824D827BFB02A4225ACF33C02F
000332596070724017573801    INES PERIN                         RS340080079       20120801210010000002376CA958DAAE70F28BE33116C82F3A6E0E000000004040000000004040000000000000000000000000000000000000N1208000000001                 98F5E00D2EF681D67B16749062721A44
000230422900006022939869    IRIO KAFER                         RS340080056       20120801210010000002385CD4BDB68E795B7D2B0B6FD7DA908121000000004040000000004040000000000000000000000000000000000000N1208000000001                 F3C52D20B81EEA7F789E5AD80B26F2CC
000006741430351076459872    JAQUIELI OLIVEIRA SANTOS           RS340080038       201208012100100000023942A05A5F255B54B9FCAECCC78AF6EB69000000004040000000004040000000000000000000000000000000000000N1208000000001                 2921A7E04AD69423E8B71255C2E55C95
000249966020152019594429    JOSÈ CELSO PHUL                    RS340080012       201208012100100000024069A246AE1391B22FA68E73D76ED20779000000004040000000004040000000000000000000000000000000000000N1208000000001                 A81497B21D19FB84E8BD45E175FFBF80
000557650760684032356273    LUIZ ROMEU CHRISTOPH               RS340080049       2012080121001000000241CDB2B90FC30C97C65A3394EE3522F336000000004040000000004040000000000000000000000000000000000000N1208000000001                 B72F38A010FC4FB7F96D0D0BF4EB6CA8
000464637120003031423696    MAURI MOLINARI                     RS340080044       2012080121001000000242244C3F1152ACA459FC9D05B3A6C4AF1E000000004040000000004040000000000000000000000000000000000000N1208000000001                 DAD4B601C4F2894845B092803D6CA990
000557651300201042282405    VALDEMIR JOSÈ ULLMANN              RS340079996       2012080121001000000243257A005D63F7DE489F8D38294DA02E97000000004040000000004040000000000000000000000000000000000000N1208000000001                 3B95084002C9A001257CB40C8CE061B2
000309167710917010652431    WALDIR JOSE ASSMANN                RS340080072       20120801210010000002449059D4AC668EBBA22308AF398F06C8A9000000004040000000004040000000000000000000000000000000000000N1208000000001                 C4DC48B4665C3244ABEEA9CF87EF15F8
000357021090151030469521    HILARIO JACOB ENGELMANN            RS340080061       2012080121001000000245E5CDDC44B6CC6333390843F4DEBFDD51000000005390000000005390000000000000000000000000000000000000N1208000000001                 546DC1008839FDBA84EB30131D7BEE0E
000473707500002201035088    ADEMIR VENZKE BERVALDT             RS340080054       2012080121001000000246482EC8F51D1B1D0B609476D0FCC19220000000004040000000004040000000000000000000000000000000000000N1208000000001                 E8C51F15F49A78C77EB6221E128D370E
000330974880497041028866    ALMERI VICENTE GAITA               RS340080041       201208012100100000024793E211B573A7E760449C47A3EC856D53000000004040000000004040000000000000000000000000000000000000N1208000000001                 51F525A0FC45FF43B71000B97238DA83
000822835910156064339333    ANDERSON OLIVEIRA BAPTISTA         RS340080053       20120801210010000002482D0525B8C94DD3CEF384AEE583FBFF2F000000004040000000004040000000000000000000000000000000000000N1208000000001                 FCD19803102E9953223F033010B06C69
000116220670532025891835    ARMELINDO ROSIN                    RS340080019       2012080121001000000249E8303144FD2013CBB276CDDD7AE9E01C000000004040000000004040000000000000000000000000000000000000N1208000000001                 485A27F43E6DF7C6DBE127768FD6112C
000424845370349030194519    CARLOS EDGAR CAUDURO               RS340080036       201208012100100000025034351D399224151893993D100119A6F8000000004040000000004040000000000000000000000000000000000000N1208000000001                 4D1DD5B71531FD9FD81F512C40718199
000289098600497009735197    CELSO JOSÈ SCHONS                  RS340079723       20120801210010000002518357BF60221F6D4D933C0C00B192AD5A000000004040000000004040000000000000000000000000000000000000N1208000000001                 54A4C416A2CDC1171B7B9C178D84A36B
000308226450684014599148    ELIO DAMBRÛS                       RS340079747       2012080121001000000252F705D174D40C484AC1D4AF00E9EF0997000000004040000000004040000000000000000000000000000000000000N1208000000001                 A2D2C337AE8807F580679CEFE3201264
000003861210015084720647    JAMIR DA SILVA MORAIS              RS340080065       201208012100100000025312C2E7D695CE9CA2F86BA0B49C4CB7EE000000004040000000004040000000000000000000000000000000000000N1208000000001                 CF8131A42A100877D77383DA0067B094
000227302570041029033551    JO„O BATISTA SPIES                 RS340080055       20120801210010000002548E6419E1F12150D82E8E96B865505C48000000004040000000004040000000000000000000000000000000000000N1208000000001                 CDE051A6C7E2E58C326E82EDDAEB5D53
000162887690531024466136    JOSE ANTONIO KAPP                  RS340080024       20120801210010000002550FAD9A6073F6A365DADEA596F4DB4E23000000004040000000004040000000000000000000000000000000000000N1208000000001                 3E1ABCD9E66B43A550FEB7C9F94F13A4
000898707430728051543448    LETICIA SULIS ZWEIGLE              RS340080026       2012080121001000000256C2B1ECCF764DC8C0289C493FC7F50E0C000000004040000000004040000000000000000000000000000000000000N1208000000001                 D350DFB488AB1363CCF46CF018789F8E
000309256220872023025378    MANUEL FANFA DO AMARAL             RS340080046       201208012100100000025739D2F67B8E1B0206196EC40CA36EA36B000000004040000000004040000000000000000000000000000000000000N1208000000001                 BA1E862E288E9711B2C62A8366568CAB
000434428890493027044688    MAURO JOSE HARTMANN                RS340080040       201208012100100000025833B3A7781036D9DC54D8134A5123BE90000000004040000000004040000000000000000000000000000000000000N1208000000001                 3CE63A8FF8E4236C357D93B1337D5693
000009126840038066538656    MAURO JOSE SALAPATA                RS340080060       201208012100100000025982F8CF0F702C3DE0F9C7F75F9151811C000000004040000000004040000000000000000000000000000000000000N1208000000001                 4D17A54A585202F3783443A8203AD193
000343321700911019501021    NILO HORN                          RS340080027       2012080121001000000260526E9F29EF62AF062342B86400F5C77E000000004040000000004040000000000000000000000000000000000000N1208000000001                 B30C7619B3ADDCAD7CC285EAB63B3249
00014553767015ISENTO        ORLANDO MARTINS DA SILVEIRA        RS340080023       2012080121001000000261C1F8729A2224E9454E00C6E8769D7E56000000004040000000004040000000000000000000000000000000000000N1208000000001                 263D65CEFE78EA0C45813B7A48DDBD85
000727053700305063353014    ROBERTO LUIS HASS ARENHARDT        RS340080050       20120801210010000002624C018363E5AC2DE960C1F74561EAA4D7000000004040000000004040000000000000000000000000000000000000N1208000000001                 CA8690EEF7FAF629F912E3CCD3000384
000638419670001046809743    ROGERIO RAMOS                      RS340079903       2012080121001000000263276B87467CBE73AB3532F88C6AC23248000000004040000000004040000000000000000000000000000000000000N1208000000001                 FAB05B16709A3D0AB49E564FA9621A65
000765948150919065676571    RODRIGO RAMOS (GRANJA)             RS340080015       201208012100100000026425420B64CF846B8F7AAFA2F856CFAC68000000004040000000004040000000000000000000000000000000000000N1208000000001                 A46BD3C0837F29C8E1707BAFF69199B6
000247365620726008997221    SERGIO ADAMS                       RS340079983       2012080121001000000265AE4C519A45AA6779FACAD7DD08E0BF6C000000004040000000004040000000000000000000000000000000000000N1208000000001                 AE557A7CF69E1A816FB96D8CE705B413
000234601640346003505853    ZILMAR PRESTES DO NASCIMENTO       RS340079905       201208012100100000026697ED63F1EEAAA86155E1A05BA5BEFD46000000004040000000004040000000000000000000000000000000000000N1208000000001                 47ADADA39EF354D39AC9DFC54D0EEA8A
000661205350041030605602    ANSELMO FRANCISCO SARZI            RS340079707       2012080121001000000267542174FA709CFB5A0573DB65FB01A69C000000005390000000005390000000000000000000000000000000000000N1208000000001                 7C0AE78E00C4C180FFFF363DA189C6C8
000903722390727031629335    JOSE AUGUSTO THUM                  RS340080081       2012080121001000000268B8228A31834E4E5D085C33B204E2A5E2000000005390000000005390000000000000000000000000000000000000N1208000000001                 ABA9165EA3BEAA1F3E80D9E57816E377
000475240730201042443216    NEILA ROSANI DA SILVA GARCIA       RS340080059       2012080121001000000269F5A40B1B5D38F0067588F10D42C7FE2F000000005390000000005390000000000000000000000000000000000000N1208000000001                 4AFA48C0220A022C41D24F4AF251DBA8
000538672460689050149344    AFONSO JUNG                        RS340080084       20120801210010000002709121C18A2D81F83733DF15EDE1503DB3000000004040000000004040000000000000000000000000000000000000N1208000000001                 66CA72ACB9FC86F8D37203E082EF7C57
000309704820004011489053    MARIO JACO HAAS                    RS340080085       2012080121001000000271E152A2C97F286CC77387D382FA85819D000000004040000000004040000000000000000000000000000000000000N1208000000001                 5D0BCA51E7FEE2F821274A982153C1E8
000892551350154035853417    CLARICE CELIA OSTWALD              RS340080080       201208012100100000027251B7305170D54542D36ED50269FE799C000000004040000000004040000000000000000000000000000000000000N1208000000001                 179AB1FA2F97AD84099C51EBCEF8AD2A
00015796981072ISENTO        SILDO ROQUE BERWANGER              RS340080083       2012080121001000000273FF289579E76682A88EC6BB32123CF250000000004040000000004040000000000000000000000000000000000000N1208000000001                 CA57D78A27DDF0B3966A1AA8148C5E98
000396090220499022423538    OLIVIO LUIZ ELY                    RS340080082       2012080121001000000274A4A956DA98D6B8B830951A2589EA1CDA000000004040000000004040000000000000000000000000000000000000N1208000000001                 F1203B40A0C8B76CEA941BAD52DF68D3
000006404620658075657166    ANA PAULA LISENFELD                RS340080091       2012080121001000000275F1EB4B1F481FFEF6A5AE3104D5B02448000000007990000000007990000000000000000000000000000000000000N1208000000001                 DC775DBF1695332084D20A6702C01C47
000441641140531034644839    VALTERLEI ROYER                    RS340080093       201208012100100000027618297D5C50C73E971D5A310DF32AC481000000004040000000004040000000000000000000000000000000000000N1208000000001                 B9CC1552D38A6E4F29940E6E7AA15606
000475790300635026468339    JAIR INACIO MALLMANN               RS340080094       201208012100100000027787E7AEE69F1F3AD5D2B192400603FBFC000000007190000000007190000000000000000000000000000000000000N1208000000001                 DE206A469C8C0840C60FDFA9D9464EE9
000232870800591006969164    MARINO MUSSIO                      RS340080070       2012080121001000000278CA979039C8DD325BD8C43A9FE21AF34C000000004040000000004040000000000000000000000000000000000000N1208000000001                 7C7D0473A155F595165731F5D87D0619
000008276870601076285749    ANDRE LUIZ WEBER                   RS340080098       2012080121001000000279B783D64703A03F1DB3EF20A6A68AD664000000004040000000004040000000000000000000000000000000000000N1208000000001                 4640FB499C7CAA088FEED2CF2F13D0BD
000016891540551090427301    DOUGLAS POSSELT                    RS340080100       201208012100100000028028A549458AC9878F6E17B58B2F47DC01000000004040000000004040000000000000000000000000000000000000N1208000000001                 608760B40BBF9250C81BE1521F149A78
89895957000157ISENTO        MUSKOPF METAL WORKS METAL. MEC. LTDRS140079845       20120801210010000002817E620788A49173D8C2774DB5B88DB69F000000140000000000140000000000000000000000000000000000000000N1208000000001                 AB3B6FF8B87AD76C84ED2D1B03384F9D
000085948050046024454123    EMILIO DE SOUZA                    RS340080103       201208012100100000028251E160EF358756292413EE89AB4B7C97000000009490000000009490000000000000000000000000000000000000N1208000000001                 3E03B0A8996F2E14BC561E3243E17DF9
00033208980000ISENTO        ARCADIO ARNOLD                     RS340079705       201208012100100000028332775A55B253CBF09D734BF5EC29EDEF000000007990000000007990000000000000000000000000000000000000N1208000000001                 BDBA064F6867147AC7F1FC084D879636
000638292230723031390663    LORI ANA ULLRICH                   RS340080108       2012080121001000000284B1F008CBC5CE70492D9D70D878FC003F000000004040000000004040000000000000000000000000000000000000N1208000000001                 3516DC27138DD263E5FC477721C8EDDB
000882213180006058958973    INES SCHNEIDER                     RS340080109       2012080121001000000285373A12297A94ECBECAFCF6F2FAE8E80B000000004040000000004040000000000000000000000000000000000000N1208000000001                 C1BA762A6002E3795F5C42BCC8B76211
000001389790069085573278    ELIZETE MANKOWFKI                  RS340080101       201208012100100000028631ADC900745C6863D9B3FA1407FCC473000000004040000000004040000000000000000000000000000000000000N1208000000001                 600BD5B93407A700E56A0B6FDD229559
000309570010533011058496    ALOISIO PIETROWISKI                RS340080105       20120801210010000002875036DDF76372BF48E4EECFE9EB131511000000004040000000004040000000000000000000000000000000000000N1208000000001                 72F4AD86C16032FA7F4D870EE4F7A1CF
000309692630151058192616    JOAO HILARIO KLEIN                 RS340080104       20120801210010000002884A9B80657D1FC766F5DAF9C785E0A751000000004040000000004040000000000000000000000000000000000000N1208000000001                 D2ECA4276B26219288A00A4A0CFCC475
00000793731003ISENTO        CLEONICE ZIMPEL                    RS340080111       2012080121001000000289C8B7979AB8FF5C5CB7F7CEECF6CD6D2E000000004040000000004040000000000000000000000000000000000000N1208000000001                 2C7F59506C515F8C80C1F4D17DF458CF
000357183580871023210295    VILMAR KOWALSKI                    RS340080114       20120801210010000002907083AB7B647B189548E04CC6025A79B2000000004040000000004040000000000000000000000000000000000000N1208000000001                 6B23244CBEA984C07CC650B67D42EC99
000619655290201054346232    MILTON JOSE LAUXEN                 RS340080064       20120801210010000002912991FCE8EC3067501C9380A2077EE92F000000007990000000007990000000000000000000000000000000000000N1208000000001                 6A023FB856C2F2BF77151BF4F2B5F291
00068572840087ISENTO        NOEMIA CECÌLIA VIER                RS340079955       20120801210010000002929F7A3AF2CECDE3052291BB3C9A6C7B90000000007990000000007990000000000000000000000000000000000000N1208000000001                 20924C96FD74D924FD9BF51D00B94438
87613030000151ISENTO        PREFEITURA MUNICIPAL DE GUARANI DASRS140079991       2012080121001000000293BC0D6CD271EB4A5EF9E2ABCC89D9A9DF000000018980000000018980000000000000000000000000000000000000N1208000000001                 4A1F28AA0666EB72A5D2DFBA906E6B7B
000035386800008001982753    HERMILIO BRUNO SCHMIDT             RS340080030       201208012100100000029469611B69405F0B39CFF0C88F856BA02A000000005390000000005390000000000000000000000000000000000000N1208000000001                 4294FAA687F4AB41A3A8C63626F10140
000025899070872022423863    JOSE WILLIBALDO KUNZ               RS340080116       2012080121001000000295CCE2A768F4622A3B82847D63DE7780C5000000004040000000004040000000000000000000000000000000000000N1208000000001                 8298D1ACF19BD6D359A21183999D33A7
000332649530727019807721    MARIA ELIZABETE RAMOS RIGODANZO    RS340080073       20120801210010000002968AEA611FE21AF37D9D3077FE11AB0DD3000000005390000000005390000000000000000000000000000000000000N1208000000001                 5C9DED60FB305B8B9FC7A8B629103193
000597864690203051528119    IGIDIO JORGE DARUY                 RS340080123       2012080121001000000297C0DD355F8E03086411F0337BBC204845000000004040000000004040000000000000000000000000000000000000N1208000000001                 8064624883E0219B32AF12001CBC98A1
000213760260151023225137    ARI TSCHIEDEL                      RS340080122       20120801210010000002986011C850FB6E9495C17B66B4ECAC2DF4000000004040000000004040000000000000000000000000000000000000N1208000000001                 4D18097C55667694B87FFBAD60C3DA4E
000608989500824050688672    NILSON BELTER                      RS340080121       20120801210010000002992CAC969420CD3689F2CE8A00556DC0A6000000004040000000004040000000000000000000000000000000000000N1208000000001                 7A5321AEA75C592AD548DDE70AB041CA
000332153240911038163737    OTAVIO LEOPOLDO TEVVEZ             RS340080118       201208012100100000030042CFC63C2A9EB883F039934F15F7BB28000000004040000000004040000000000000000000000000000000000000N1208000000001                 8A52FA58F77B26EE3DA1F707F1B5E937
000725047810913064345491    MIGUEL OLÌVIO KAPELINSKI           RS340080126       201208012100100000030138B1D0DAAC444EBB4B8E26321F3E4812000000004040000000004040000000000000000000000000000000000000N1208000000001                 F10D47ED8ADF044ACDCBCD01137E81CC
87612859000130ISENTO        PREFEITURA MUNICIPAL DE CAMPINA DASRS140080853       201208012100100000030257151D60088E5F7B642171F75745529B000000009490000000009490000000000000000000000000000000000000N1208000000001                 C9A9D1E41EFFDA5F7C334BBA84040D63
00047067985072ISENTO        LUIZ FERNANDO FOLHARIM             RS340080117       20120801210010000003039B4732DFF9CC5A8A8591A4AE95903A4D000000004040000000004040000000000000000000000000000000000000N1208000000001                 F93D61410E50B5FF383F565E362DB395
082953460001761830009220    MATHIAS WILHELN E CIA LTDA         RS140079837       201208012100100000030494F06BC937E5BCAB333A820898C4F3F4000000007990000000007990000000000000000000000000000000000000N1208000000001                 0764880B97EAA088D086F215408EF97C
000474396530688004377589    JURACI JOAO PIECHO                 RS340080113       2012080121001000000305AEC75242542B4B40B322FDD0629C0A75000000004040000000004040000000000000000000000000000000000000N1208000000001                 0561A5B3E0FAC27D3E41AF2AFDC0AFA4
000496575260001161037850    LUIZ BOGORNI                       RS340080133       2012080121001000000306D10C2583DC8B1895C7EC320D400F82F9000000004040000000004040000000000000000000000000000000000000N1208000000001                 3AD017ACF7CDF249331A0D1C41CCC185
000388107270531030949042    JOAO CESAR SCHUQUEL DE ANDRADE     RS340080129       20120801210010000003078FFB815E8B7A48A07455408DB928904E000000004040000000004040000000000000000000000000000000000000N1208000000001                 2C3CDE8998A6829E6EA938666C5FC882
000519549400251028356739    AUREO LUIZ ZANBONEGUI              RS340080130       2012080121001000000308C5ED47DDDE66607F60E2923B3A958DED000000004040000000004040000000000000000000000000000000000000N1208000000001                 552C6EE89EFBF8BC1202FE5E568CA1F5
000896676460681062135205    MARCOS ROGERIO ANTERO DA SILVA     RS340080127       20120801210010000003098E4F20E35694855286F8CAAF8356FB3F000000004040000000004040000000000000000000000000000000000000N1208000000001                 9234B624A234050121D4D342C239FE53
000948092400537064371482    MARIA ERMINIA DOMANSKI KOVALSKI    RS340080134       201208012100100000031011F1A87B8E88F489730279F70B2B4BB7000000004040000000004040000000000000000000000000000000000000N1208000000001                 6BE064CEA0CF2A3C0A6FAB8E6DBD36F2
000416683240913029239781    HORACIO MORAIS DA SILVA            RS340080022       2012080121001000000311B5C77F63FF0E4AB6C32CF07934128341000000007190000000007190000000000000000000000000000000000000N1208000000001                 527E8E54ECA2DB2285DF8117510594D6
000309805340204014737508    RONI MIGUEL JACOBS                 RS340079926       2012080121001000000312E276DDE862EC18EA357C94EF49F87433000000007990000000007990000000000000000000000000000000000000N1208000000001                 6C180C002EF23FBD0F529253CE62204E
000013041090038092269921    ANDERSON RODRIGO PHILIPPSEN        RS340080138       2012080121001000000313D545CF0367DDBDFAD9D1083FE8731BC1000000004040000000004040000000000000000000000000000000000000N1208000000001                 8B7776D2DD3490A2A473E2284C97C7C3
000176869890209005804753    ARI BARBOSA LOPES                  RS340080139       20120801210010000003145FB886AB13BDF6617240A250E0C30851000000004040000000004040000000000000000000000000000000000000N1208000000001                 E332D3C0D42DDAF0C0BB09AD4F731704
00036622176000ISENTO        LUIS VANDERLEI ADAMS               RS340079825       20120801210010000003152297CB6DFF8426D5C893C9445FC42C17000000007990000000007990000000000000000000000000000000000000N1208000000001                 E2EC4D5FD99549515CBF6E361D9888AE
000685725220345049644387    CLECI LEICHTWEIS CAGLIARI          RS340080140       20120801210010000003166B179E3E9D84316098ADE1B4784D3901000000004040000000004040000000000000000000000000000000000000N1208000000001                 D7F1B4AC5D35C6E7F2E26243BFF2CA18
000332120070878015547527    RUBEN ARNOLD                       RS340080142       2012080121001000000317B63EC4BA405AC86DB147DF3FB69CEAD3000000004040000000004040000000000000000000000000000000000000N1208000000001                 A755C69556A67D73CC6DFDDB9C0D7F37
000699133150345042285832    ARNEDIO CANOVA                     RS340079682       2012080121001000000318A242AAF81455E03A72BF58733CC2AEA6000000004040000000004040000000000000000000000000000000000000N1208000000001                 60AE5105CD741FBDDAD8AC1AC0CDB282
000910961380349071615794    ILGA MARIA ADAMS                   RS340080137       201208012100100000031941FCB775F87D016AB5CE224924F14C95000000004040000000004040000000000000000000000000000000000000N1208000000001                 0482B491EC8868DB123BC1444C0CC644
02264217000134315/0002909   HOTEL E CHURRASCARIA BARRICHELLO   RS140080148       20120801210010000003201C3325C02528D1B82F143EC644527FA3000000007990000000007990000000000000000000000000000000000000N1208000000001                 FA6EF7AA33F7F04B3DC31ED0DB873AE2
000351223900537026774534    GILMOR FRANCISCO BUSMELLO          RS340080146       20120801210010000003216CAC5B86CD5A2F02B7FE1BF0FE0ACECB000000004040000000004040000000000000000000000000000000000000N1208000000001                 4BE8FC78191945310CC1E7007BB6D01F
000930401640157065680808    GEOVANIR ERON NYARI                RS340080152       2012080121001000000322C23B3BAA46332B764ACDBA0F9FE677C8000000004040000000004040000000000000000000000000000000000000N1208000000001                 D455A2A4E8029DDA6E77B2B60BA50631
000523675500001039001662    GIOVANI BENETTI                    RS340080150       201208012100100000032303CE83CBB5C6213F8472DC8DCC77EF03000000004040000000004040000000000000000000000000000000000000N1208000000001                 D0EB239B3A2A8504DF6BA58C0ABE1149
000434425870345027452027    JAIME IN·CIO BIRCK                 RS340080153       2012080121001000000324784944446E706B0EE0B1DB2D0C25D0DE000000004040000000004040000000000000000000000000000000000000N1208000000001                 C60778361A32E118EDA27A8904FB6440
000596150360723036618126    OT·VIO LIESENFELD                  RS340080151       201208012100100000032550AE63C1767E0DB960D5231827CEF17D000000004040000000004040000000000000000000000000000000000000N1208000000001                 0192F15163E4BD60FFAF34178007303E
000411198780049030550091    EGON WEISS                         RS340080154       2012080121001000000326D31D34B12614835F8026C9014C5195F7000000004040000000004040000000000000000000000000000000000000N1208000000001                 C0AD37EE29A74C17A196D3887DE57753
000762909990871060886511    JAIME JOSE SIEBEN                  RS340080149       20120801210010000003278F71D0E6AC3A2027B856A747D3DD4861000000004040000000004040000000000000000000000000000000000000N1208000000001                 EEC4AEA78D33BD007D38B4292E6048B3
000391264200151029395694    JURACI ZORZO                       RS340080157       20120801210010000003284155E1C959C50F0DFCF34CADD3D780FC000000004040000000004040000000000000000000000000000000000000N1208000000001                 6B64F1019EDF8194B606A38372FD44CE
000358282770492019117296    PAULINO REIS                       RS340080136       2012080121001000000329B49FE498D90102D48594392CBFC9263E000000004040000000004040000000000000000000000000000000000000N1208000000001                 6BCDE3B654F913B1A55687EAE797AC22
000602712210201050400371    MILDA KUFELD                       RS340080158       20120801210010000003308656380C3DE67394655D123120BA5C6C000000004040000000004040000000000000000000000000000000000000N1208000000001                 AE59680C0B5630A1B0A4ED0A745C556D
000021259590385090423665    ANDERSON LUIZ UTZIG                RS340080160       2012080121001000000331FD21D1BC1970D4DD67538C3383576072000000007990000000007990000000000000000000000000000000000000N1208000000001                 99550DAAB8041DC302A77694BE4A7B61
00089298667000ISENTO        NEUSA LEDUR                        RS340079953       20120801210010000003329750603CFF81A05729B8EDAC41DAA7E4000000007990000000007990000000000000000000000000000000000000N1208000000001                 269B1521BF3272ADE9BA2EA7BD78B08B
000500486780152042559837    HARDI JASTER                       RS340080164       201208012100100000033392B84CB76ECC9D0B929E1DADA61849AE000000004040000000004040000000000000000000000000000000000000N1208000000001                 4475C574EA614CB404E1B8CF7D38E0FF
000929609600689054048229    LAERTE JOSE SCHER                  RS340080112       2012080121001000000334B4510D1C8AF174D398FBF333DEEFF08E000000004040000000004040000000000000000000000000000000000000N1208000000001                 219F9ADE7B85B8F5F671BD2FC970939F
000012564180059084731703    JONAS FROHLICH SCHERF              RS340080086       20120801210010000003355833AE2D78B540FB327644B6AAEBF4AC000000004040000000004040000000000000000000000000000000000000N1208000000001                 8121020DCC4B663DE678FCFE5A4C04BF
000451118120914025308299    CELSO LIMBERGER                    RS340080110       2012080121001000000336BBC7A782C13AA3D2047362A91D084AC4000000004040000000004040000000000000000000000000000000000000N1208000000001                 22219074D3CE088FF44373DD8DF81069
000411070550919038163631    DIRCE TEREZINHA HENZ               RS340080166       2012080121001000000337FC7B20932582205C22BD7237A62C36E5000000004040000000004040000000000000000000000000000000000000N1208000000001                 9303F48C73BDC6A3F3D3E0AF650E59CE
000158126770342029486459    WILMAR FERRAZZO                    RS340080096       201208012100100000033867D6892B178261E6B39066560B66B785000000005390000000005390000000000000000000000000000000000000N1208000000001                 B70D3BFA7A710A2E155FF840880A5FAA
00030891485015ISENTO        VANDERLEI MATIAZZI                 RS340080071       201208012100100000033959A53AA8453DDAB9C198230D9DDBA489000000004490000000004490000000000000000000000000000000000000N1208000000001                 169229362191BFDEA801681EE74367DD
000751161620874014722609    LIBANIA BOUFLER LANGER             RS340080165       20120801210010000003401C078327E3205F447ACB961A4A9F5F70000000004040000000004040000000000000000000000000000000000000N1208000000001                 C16497C35D319639E97FE42BFF41F176
000001131990902014875484    CRISTIANE ALMEIDA JUNGES           RS340080170       20120801210010000003411775A13D89D299B04CF8F943D29142CC000000007990000000007990000000000000000000000000000000000000N1208000000001                 EB3059271AF24BD10DAE95E5EF67A213
000004028710654041054547    RODRIGO JOSÈ TONETTO               RS340080171       2012080121001000000342FB46EE8974F37046A0C876E1EE84C262000000004040000000004040000000000000000000000000000000000000N1208000000001                 D7838C06072124FCABE9DF72413AE89E
000447234820911036840211    ELTON LUIZ RENGER                  RS340080174       2012080121001000000343AD1F931029763455798AB68A32AC3C35000000004040000000004040000000000000000000000000000000000000N1208000000001                 244A061E7464197BADC9287963353794
000014913330818077651629    RICARDO SPIES                      RS340079892       20120801210010000003442D0A6C1E4E19F0CE1D1E318189994CFC000000004040000000004040000000000000000000000000000000000000N1208000000001                 6F1F9255810370CB2357EFD71718793C
000339629950726009741271    NELSON HENTZ                       RS340080172       2012080121001000000345FAAA7E69EDAE49F20B8C950B4220415D000000004040000000004040000000000000000000000000000000000000N1208000000001                 95CE0F8206FFBFFE4B15FF27D94E09CC
000703678920491069329066    IOLANDA DLUZNIEWSKI KLIDZIO        RS340080175       20120801210010000003469E6497F20130361403CFB2022BE471B6000000004040000000004040000000000000000000000000000000000000N1208000000001                 DE3A4328B754D071C1D9A6691541C79F
87612784000197ISENTO        PREFEITURA MUNICIPAL DE ALECRIM    RS140079731       20120801210010000003479ECA7F90B1FC816C5E8B3B5508098120000000043715000000043715000000000000000000000000000000000000N1208000000001                 6296FA1997CE76E82A6F5B9102BCF81F
000278692290911042942738    HELIO JOSE SEFRIM                  RS340080180       2012080121001000000348CB05A8F8BC5C7A52EB6B42F92129BF78000000004040000000004040000000000000000000000000000000000000N1208000000001                 C2F50001BBCD4261C37D400A744E2D4B
000715149290155037251858    LEONICE MAYER                      RS340080183       2012080121001000000349D05D7E000E91F6CB88DA1A9407B25F5F000000004040000000004040000000000000000000000000000000000000N1208000000001                 3F99DF3E59BDA568A361D000E2F78592
118728720001660300041772    AGRO COXILHA COMERCIO DE INSUMOS AGRS140080184       201208012100100000035083B6EB2B35A3F992A99575E91C050AD2000000007490000000007490000000000000000000000000000000000000N1208000000001                 484C464A003DBEAE424B8E51FB208ED7
000102220650879029252203    JO„O ROQUE BATIROLA                RS340080163       201208012100100000035170206D173614B8696A5218EE46B43C2E000000008080000000008080000000000000000000000000000000000000N1208000000001                 F31793DD701513B3CE187CA526E3545F
000988421370491069329686    DIRLAINE INÍS MOMBACH              RS340079736       2012080121001000000352F5ABDF213CD58CF20729621E290F68F7000000005390000000005390000000000000000000000000000000000000N1208000000001                 0F2728C06895560240BB1F8F1F6153D9
000174943460151031140922    JOAO MENIN                         RS340080177       2012080121001000000353F6EB4147BB466DF30DD90FB0C1982F9F000000004040000000004040000000000000000000000000000000000000N1208000000001                 7D94EA46F26E138540ADD146BA25CBA3
000434183250682034188959    MARCOS MANICA                      RS340080192       2012080121001000000354B754018EE0F580FA987A66C76763E562000000007990000000007990000000000000000000000000000000000000N1208000000001                 781CB7BD7F41D75BD9E92439AAA4330A
88546890000182ISENTO        PREFEITURA MUNICIPAL DE SANTA ROSA RS140080863       2012080121001000000355233C846836F89CC92C48CD6BA6E71D99000000344000000000344000000000000000000000000000000000000000N1208000000001                 B9722F7DC6A73AA41699701FC6962517
000897430080044069229005    DENILTO CASTANHO DA SILVA          RS340080052       20120801210010000003568C003A686E455F753347897E4618D8BF000000005390000000005390000000000000000000000000000000000000N1208000000001                 E7662E36230067DF679944F5CC5BAC95
09485696000168ISENTO        CEREALISTA CERRO ALTO LTDA         RS140079726       20120801210010000003579E24B3C436DA41595B762ED63DE0A2BE000000007990000000007990000000000000000000000000000000000000N1208000000001                 B6415B7E1804B2BFEA9344F87587BF9A
00076072711049604103041     EVANDRO VICENTINI                  RS340080010       201208012100100000035829F0B2F5F4D5EF8D447A0BC5659E93FB000000005390000000005390000000000000000000000000000000000000N1208000000001                 EF8D1AA7FFEFF8BD7662A973E5241C58
000275441680341005742349    GILBERTO MARCHESAN                 RS340080182       201208012100100000035950651F27BC1F6FF5D47BACD238D989BB000000004040000000004040000000000000000000000000000000000000N1208000000001                 167FECF3F54B19BB8A26AFAF60AA907A
00021853452068ISENTO        JO„O IN·CIO WENZEL                 RS340079802       2012080121001000000360F24712DC151859AAF1828C9634EBB3AB000000007990000000007990000000000000000000000000000000000000N1208000000001                 2AE501DB5E9E0A29D93712E047DE236B
000729531360534055570602    ODAIR ANTONIO MUMBACH              RS340080190       2012080121001000000361E04FC447EC7778DE69C09CF45B4C46C4000000004040000000004040000000000000000000000000000000000000N1208000000001                 CEC6CC43D65707FAA04B2DB16D9506BF
000144460060531023611881    SINÈSIO ELY                        RS340080198       2012080121001000000362F6387F7F65E89049E8FD34C33C7BEA9E000000004040000000004040000000000000000000000000000000000000N1208000000001                 604361B1DD00BA6B93D1E70801EC2525
000357322290008035739195    CARLOS LUIS LUNKES                 RS340080199       2012080121001000000363B0076148A56C460E0FBDCFC7D8A680EA000000004040000000004040000000000000000000000000000000000000N1208000000001                 C7F4A836DFABD698FCD7572E8127A5A5
000021149230298094155317    ARIEL CANTARELLI                   RS340080201       2012080121001000000364F56127FF277E38A71A53FC286622BD68000000004040000000004040000000000000000000000000000000000000N1208000000001                 5B2536779FEE75305203DFC9E3FEB444
000698994280008055394525    LENARA LUISA WEBER                 RS340080090       2012080121001000000365370EC9CA24FD7657D2EDBF8D2DD27DE5000000005390000000005390000000000000000000000000000000000000N1208000000001                 691BB6D9A2A7E0676E5D7FC714410B27
000353504230534017159054    JOSE MARCOS STEIN                  RS340080203       20120801210010000003663468591BD4CE66773C356B73E5D175B8000000004040000000004040000000000000000000000000000000000000N1208000000001                 D74268B287B563725E4BFB996EE03957
06031727000112ISENTO        CRESOL                             RS140079679       2012080121001000000367B687AC4BFF58EE3AE8D644DF5BFDDA63000000009490000000009490000000000000000000000000000000000000N1208000000001                 7D3591E0CE4D1D257BA594811021D0C8
000011212090333089596492    JOSÈ AUGUSTO PIRIS MACHADO         RS340080197       20120801210010000003685D3B897EC8BA8DC1ABA67595C5AE7189000000004040000000004040000000000000000000000000000000000000N1208000000001                 F7D9158754BD12F71A999CD93098C7BC
00074984748087ISENTO        LONI REICHERT                      RS340080204       201208012100100000036903AA35C50716DD31248754E4AAFF6D10000000004040000000004040000000000000000000000000000000000000N1208000000001                 9A70E7F14BBC48795719A855C628BE1C
000035790000631023537713    OLI PEDRO LENZ                     RS340080202       2012080121001000000370777A760A88485B551DADFFB15042BFC5000000004040000000004040000000000000000000000000000000000000N1208000000001                 C5B01DD93741DF8F686C0A3D80E94A23
000453425980875030951973    LAURO BECKER                       RS340080188       201208012100100000037189B9565B8E7988EC316DBF8D33CE48FF000000004040000000004040000000000000000000000000000000000000N1208000000001                 F6EA18381CCB242020EC5665414C5C78
000309809680201009769504    PEDRO BOESING                      RS340080195       2012080121001000000372CC7FAA4576731E4492D21EDD26146232000000004040000000004040000000000000000000000000000000000000N1208000000001                 0894672FB025CAA992D7764D6CB3EE3A
000492812910533028939464    ANTONIA MARIA KUNZ SCHER           RS340080205       20120801210010000003739E864F920FC2CF04A53F7A8A75C293B9000000004040000000004040000000000000000000000000000000000000N1208000000001                 D66148F605EBC0EF40975D5FDEF70C11
000354886970047017356507    JO„O MINETTO RUBERT                RS340080187       2012080121001000000374C34097B11196360812DA82D42CE1C1D1000000004040000000004040000000000000000000000000000000000000N1208000000001                 1A45A75FFD993489D4928E892777CA39
00003382702053ISENTO        MARIO ADOLFO KLEIN                 RS340079838       201208012100100000037589B35C8731458E4E385B7F0CECAB582D000000007190000000007190000000000000000000000000000000000000N1208000000001                 F3FFFBFFC6A911A553CEEA412B0DF94E
000683544440153058906391    FL·VIO BITENCURT MACHADO           RS340080128       201208012100100000037681EEBB9A27B2D15D3A155C562B072280000000004040000000004040000000000000000000000000000000000000N1208000000001                 5CE91C25DBE8858066AB778FDBEB6929
000511683590151055568214    LAURI FOLLMANN                     RS340080185       2012080121001000000377642EE6C44FC98A91724A8A21CB76CAD4000000004040000000004040000000000000000000000000000000000000N1208000000001                 C5D7081CAE01638D9D7468D0AD9A764F
00083323988000ISENTO        MAGNUS ODERLEI OLEINIZAK           RS340080089       20120801210010000003781A25EB711A3E0CD6F52DA7D0C01A83DB000000004040000000004040000000000000000000000000000000000000N1208000000001                 88C89041DD81522169E215664A236C02
000144464210344026794521    SILVINO WILLCHEN                   RS340079896       2012080121001000000379A901878F433F80A5604434EAC17C7E37000000004040000000004040000000000000000000000000000000000000N1208000000001                 480945A709EF8AEDAE8110D0D5AB2588
000309911370006011554042    VALDIR REICHERT                    RS340079898       20120801210010000003804D494AF4AF794B7A2863068E4A6F1801000000004040000000004040000000000000000000000000000000000000N1208000000001                 5D36674090403278E733E7B94677EF97
000287583740001029101589    PAULO CAVALLI                      RS340079922       2012080121001000000381F34694D01005375A1665E9ED80937985000000005390000000005390000000000000000000000000000000000000N1208000000001                 B4FFA8DD92ECE409B4484407055A04D1
000690241620681051873014    ELTON JAIR MINIKEL                 RS340079768       20120801210010000003825F6D03041CBCFBA885899EE3B0AA6F0D000000005390000000005390000000000000000000000000000000000000N1208000000001                 42C500E658FF23171F70BFA6B240B5C6
000557652030003042688691    VALDECI JOSE BECKER                RS340080191       201208012100100000038372CC6851EC82473D8C6ACA5BA6755427000000004040000000004040000000000000000000000000000000000000N1208000000001                 B99348AD81667561104341E780219D38
000466334800911161042994    PEDRO AGOSTINHO HOLZ               RS340080145       20120801210010000003842B599D92C55C841276FB321CAEECB69A000000004040000000004040000000000000000000000000000000000000N1208000000001                 AA0952AED63E4C282E5DE4A3858857E4
