88546890000182ISENTO        PREFEITURA MUNICIPAL DE SANTA ROSA AV. EXPEDICIONARIO WEBER                     02983               98900000CENTRO         SANTA ROSA                    RS00553511519987973                          246CC1594845F160CF4DFB981B37A254
08949975000172ISENTO        VALUPI IND. E COM. DE ALIMENTOS LTDRUA DOM PEDRO II                             01953               98960000CENTRO         SANTO CRISTO                  RS00553541166987961                          89425B6BF33C64D5D8B477ADC7DB9F4F
000888178140919055936064    CARMEN SCHAEFER                    VILA LARANJEIRA                              00001               98960000INTERIOR       SANTO CRISTO                  RS00000000000087969                          7C3ACD8FEB9B6622494049852F16A614
00095138056034ISENTO        EMERSON FERNANDO BERNARDI          VILA LARANJEIRA                              00001               98960000INTERIOR       SANTO CRISTO                  RS00553541074587972                          F42CF6EA4B92C28476140DADF42FCFDA
000780711600596050149101    ELSON JOSÈ SCHMITT                 LINHA LARANJEIRA                             00759               98960000INTERIOR       SANTO CRISTO                  RS00000000000087963                          95E1712BFEDF0C66AB4AF4CCD42FF285
000034166310729010651157    JACOB ORLANDO HENZ                 LINHA LARANJEIRA                             00001               98960000INTERIOR       SANTO CRISTO                  RS00000000000087968                          DD1367A0C5777369F92DEC89D2D63645
000912599910918071387297    SUELI WEBER NEUBERGER              VILA LARANJEIRA                              00607               98960000INTERIOR       SANTO CRISTO                  RS00000000000087966                          379A02B54AE9401C6D74226727B06013
000132295830006018678786    JOSÈ ERNI NEUBERGER                VILA LARANJEIRA                              00856               98960000INTERIOR       SANTO CRISTO                  RS00000000000087964                          01483BC5EE5EFED336A94B1DB0F5244D
000654052770534051755298    VITOR WEBER                        VILA LARANJEIRA                              00637               98960000INTERIOR       SANTO CRISTO                  RS00553541074687965                          1A65E7BCFD42335DD5522DDF9DB30F9A
000760792360879032695943    ELINA WEBER                        VILA LARANJEIRA                              00549               98960000INTERIOR       SANTO CRISTO                  RS00553541073287967                          C27C161FCA4D31AAF8A00CB40116FDBC
92207117000169ISENTO        ANTONIO HAMMERSCHMITT              RUA MARECHAL FLOREANO                        03202               98960000CENTRO         SANTO CRISTO                  RS00000000000087958                          B45C42D6C0E2CDE5EEBDC3107C83C096
000055680300061026506665    SILFREDO MEINEART                  VILA LARANJEIRA                              00001               98960000INTERIOR       SANTO CRISTO                  RS00000000000087970                          5AE5157CB77B667865926258656DE3F9
000460413620341032459842    TABAJARA MEINEART                  RUA 25 DE JULHO                              00133PREFEITURA     98960000CENTRO         SANTO CRISTO                  RS00000000000087960                          9DD1A034FE1FB79D545002E1D3D6A86D
11756860000176ISENTO        BMD IND. DE PRODUTOS INOXIDAVEIS LTLINHA ROLADOR ALTO BR 472 KM 184             00001               98960000INTERIOR       SANTO CRISTO                  RS00559641009487962                          17072DB927D0D7F6A4E1D6A8E636F629
01945082000100ISENTO        ABATEDOURO GALLAS                  RUA DOM PEDRO II                             01627               98960000CENTRO         SANTO CRISTO                  RS00000000000087957                          016B29ADB101C00D858C461285709801
000055680300061026506665    SILFREDO MEINEART                  VILA LARANJEIRA                              00001               98960000INTERIOR       SANTO CRISTO                  RS00000000000087971                          7FD067C69F34ED9E11CF0CD7DA23D38E
00081244282049ISENTO        GABRIEL WERNER KNAPP               AV. DOM PEDRO II                             02163CXP 14         98960000CENTRO         SANTO CRISTO                  RS00000000000087959                          402B4EAB677A03BC352FD8BF365B02BF
000884336090689053614682    FABIO AMILTON DE PAULA             RUA URUGUAINA                                00162               98900000SULINA         SANTA ROSA                    RS00558127722887977                          6F209C49E0C458EB1ABCA934B0E1392D
03843541000170ISENTO        JAIRO ANTONIO ZANATTA              RUA S„O BORJA                                00960               97950000CENTRO         IJUÌ                          RS00553353107087978                          CEF60219E33CCDC24B7E1C01FE879EB5
000642602910684043732884    VILMAR JOSÈ MICHEN                 RUA 7 DE SETEMBRO                            00059               97900000FLORESTA       CERRO LARGO                   RS00000000000087979                          E95E7650C21755AFA4901C944893BFA0
000488198240005039142426    MARIO JOSÈ ULLMANN                 RUA BAHIA                                    01085               98960000CENTRO         SANTO CRISTO                  RS00559653787987976                          27B96EC4A21D85DE29C32A1CB6FF8919
00065667484072ISENTO        AIRTON COLARES                     RUA OLAVO BILAC                              00874               98960000CENTRO         SANTO CRISTO                  RS00000000000088397                          358A74B95A0C0950D6A4CE15C8E2B66C
00018980449020ISENTO        ELOÌ F¸HR                          RUA DOM HERMETO PINHEIRO                     00556               98960000CENTRO         SANTO CRISTO                  RS00000000000088198                          4B47D01FC085248CC8AC96BA723EF132
00005555140053ISENTO        GUIDO LAURENTINO STEIN             RUA AMANDAU                                  00067               98960000CENTRO         SANTO CRISTO                  RS00000000000088830                          417BF6CD483847822C19CFB5CD515982
90088204000119ISENTO        LOTÈRICA SANTO CRISTO LTDA         RUA TENENTE JUNG                             00471               98960000CENTRO         SANTO CRISTO                  RS00553541228188401                          A521C4D1071F98190848D6FDFC0FA8F7
00068839910000ISENTO        NELCI TERESINHA SCHEFFER KAFCZINSKIRUA DR. RONCHI                               00901               98960000S„O CRISTOV„O  SANTO CRISTO                  RS00553541170288804                          38B6A95ED7D1241044A7885DA2434628
00058533818068ISENTO        PAULO CESAR MADERS                 RUA AMANDAU                                  00119               98960000CENTRO         SANTO CRISTO                  RS00553541279788607                          F077E8AB82D6CF828F74F50DC7B9AE7C
00090678656053ISENTO        VANDERLEIA FROHLICH                RUA PAULO SCLUTER                            00037               98960000CENTRO         SANTO CRISTO                  RS00558115064488886                          FA96711664DA0B8339D1F831FE51C667
00057584460097ISENTO        NELSON FRANCESCHINI                RUA OLAVO BILAC                              00570               98960000CENTRO         SANTO CRISTO                  RS00553541136288560                          E998FEB4CB04793AAB374793BE4F8A84
00061245887068ISENTO        BENTO JOSÈ PUHL                    LINHA ALMA                                   00001CXP.12         98960000INTERIOR       SANTO CRISTO                  RS00559911776388080                          024DD824E556E299B449748AEF429C42
00052958736091ISENTO        CELINO JOSÈ BOTH                   RUA DR. RONCHI                               00877               98960000CENTRO         SANTO CRISTO                  RS00559971601488095                          204E80029F697982FC17154D9B81CBA9
000275119870879026517442    DARI ROQUE MALDANER                RUA VENDELINO HOLS                           00526               98960000CENTRO         SANTO CRISTO                  RS00558123453988171                          DBFD9A17E12C74CEB7A979B80D0C4586
00001420349082ISENTO        DULCE RAMBO                        RUA VENDELINO HOLZ                           00335               98960000CENTRO         SANTO CRISTO                  RS00559151874588163                          926674897A6993A240528C874E279E5F
000006140260598079563501    ELIANE JACINTA BECKER              RUA DOM PEDRO II                             02291APT-102        98960000CENTRO         SANTO CRISTO                  RS00559945545888199                          377C79072ED2710B41F1E60308A946F2
053508050001891160017120    JR MOLDURAÁıES                     RUA PARAN·                                   00585               98960000CENTRO         SANTO CRISTO                  RS00000000000088365                          CA6196D413538409FE223382086322E5
00047776765015ISENTO        PAULO SCHONS                       RUA DR. RONCHI                               00812               98960000CENTRO         SANTO CRISTO                  RS00553541213288606                          36EAA22D1F7F48DD3714011DF88B0FEB
00016981774020ISENTO        WANICE DROGEMOLLER                 RUA BAHIA                                    00465               98960000CENTRO         SANTO CRISTO                  RS00559908959088889                          4402D6A92EB548EC27378C0B433AE667
00001701733056ISENTO        EDUARDO THIELE                     RUA HENRIQUE THIELE                          00619               98960000CENTRO         SANTO CRISTO                  RS00000000000088201                          AC096810EFC854F1E04D15096EA46820
00082049467087ISENTO        GLADIS MARIA GASS                  RUA GOIAS                                    00489               98960000CENTRO         SANTO CRISTO                  RS00000000000088276                          9C56F10458C1C9DA5954ABDC3006BEF2
000015846380363092770878    JEAN CARLOS DOS SANTOS MIRANDA     RUA MARECHAL FLORIANO                        01051               98960000LA SALLE       SANTO CRISTO                  RS00553541240988363                          9D3BB7F882C82A35F00D477BCD52632E
00090621131091ISENTO        MARCIO FABIANO JEHLE               RUA DR. RONCHI                               01376               98960000ESPERANÁA      SANTO CRISTO                  RS00558112221288487                          F4C2201117754D40D10F08757A8C84CA
00046032754049ISENTO        MARIA MELITA SCHMITT MUNCHEN       RUA MARECHAL FLOREANO                        01561               98960000CENTRO         SANTO CRISTO                  RS00553541230788484                          4483230076A49B0EFD59B12D6E458ABD
000829489680208074529011    MARLA DIONE SCHOTT                 RUA ERMILIO JOSÈ RIFFEL                      00315               98960000ESPERANÁA      SANTO CRISTO                  RS00559957404688476                          DB4D873AA6F0870FDA178E8EEFF64EEE
00017843650091ISENTO        MARLENE KNORTS                     RUA DR RONCHI                                01299               98960000CENTRO         SANTO CRISTO                  RS00559911191888491                          E7EAA1087664F25009439B5168F21875
00054837537987ISENTO        PAULO HENRIQUE RIBEIRO BRANCO      RUA BAHIA                                    01174               98960000CENTRO         SANTO CRISTO                  RS00000000000088584                          4D21C7058F65A69808D94EB8843F5768
00064782140010ISENTO        SUELI MARIA SCHAEFFER              RUA MARECHAL DEODORO                         01668               98960000CENTRO         SANTO CRISTO                  RS00553541217588614                          2BF43091377DAE893BCA448864BBBEF5
000011495070983073693305    ANDRÈ NYSTRON NEUBERGER            RUA MARECHAL FLORIANO                        02400               98960000CENTRO         SANTO CRISTO                  RS00559962133188008                          31EBDBA7F82739EA8EC0073D95308045
000715430400631054347305    CATARINA ELVIRA NICODEN            RUA JACOB SANDRI                             03223               98960000MORADA DO SOL  SANTO CRISTO                  RS00559672728388096                          B6FBE8AA5E51E404EF1078B27E17DD31
00063829266049ISENTO        ELTON AIRTON GIEHL                 RUA TRAVESSA ELISABETE                       00165               98960000CENTRO         SANTO CRISTO                  RS00559627387388209                          40BAD7DDD5BDEBB96C03922923F2BBA7
00062837087068ISENTO        GILNEI RODRIGO SCHAEFER            RUA MARECHAL FLOREANO                        01930               98960000CENTRO         SANTO CRISTO                  RS00000000000088829                          977DF388A1A51BAF484562F428D0E563
000543936390494042693971    NERI GIEHL                         RUA LA SALLE                                 00047               98960000CENTRO         SANTO CRISTO                  RS00559626797288561                          699CE74BEECBBC2530354CF08B57EADE
000357089300635055378532    SOLANGE MARIA ENGEL ANGST          RUA DOM PEDRO II                             02291APT 301        98960000CENTRO         SANTO CRISTO                  RS00000000000088617                          A116DBF260731F8D1B63FB29D53037F3
000943201950007064715886    MARCIO ANTONIO LAUXEN              RUA ESPEDICIONARIO VENDELINO VOGT            00266               98960000MORADA DO SOL  SANTO CRISTO                  RS00000000000088475                          7EE03A769E7838A2891DFAAF491E0B67
000411101610342026540332    MARIA HELENA KLEIN                 AV. DOM PEDRO II                             02542               98960000CENTRO         SANTO CRISTO                  RS00559626878688470                          44BDD1126BC09971E96775B734CCD2D5
00088540510049ISENTO        MARISA SOLANGE KLERING             RUA OLAVO BILAC                              00232               98960000RUEDELL        SANTO CRISTO                  RS00559631558588463                          AD53744473EEA7EEAAAD9FE835B01FC3
00066631238072ISENTO        MERI TEREZINHA BEUREN              RUA PEDRO WILIBALDO                          00074               98960000VILA PHILIPSSENSANTO CRISTO                  RS00559620591288462                          DBD2EB1FD4F418B3E8F874A333BE2225
00013083694091ISENTO        RICARDO PHILIPSEN                  RUA DOM PEDRO II                             02346               98960000CENTRO         SANTO CRISTO                  RS00553541103788869                          7F5357903B80AAEB213090CABE894217
00048926647072ISENTO        RODRIGO S. DILLMANN                RUA ALFREDO PHILIPPSEN                       00120               98960000VILA PHILIPPSENSANTO CRISTO                  RS00558126264088583                          B52E46DD201A425524AAAF6FBE2AE683
000693836000634048774535    JANETE MARIA KARLING BUTTEMBENDER  RUA MARECHAL DEODORO                         02811               98960000CENTRO         SANTO CRISTO                  RS00553541734588364                          A9C4459765AC5C2A4CE102C4DE484D36
000275077000977008844677    JOSÈ CARLOS KOCH                   RUA VEREADOR PAULO BANDERÛ                   00142               98960000CENTRO         SANTO CRISTO                  RS00553541125288924                          BA533DD6B68293D415A2F0A05DCB783C
000485588770681036407631    MARCELO INACIO RADEMANN            RUA MINAS GERAIS                             02550               98960000CENTRO         SANTO CRISTO                  RS00553541156688657                          2E1BE004DA9683735893B2DBA016E305
00001968926003ISENTO        MARLUCI AMES                       RUA MINAS GERAIS                             02261               98960000CENTRO         SANTO CRISTO                  RS00553541156888482                          3E35B52EA8F42B7BBD103065B4390C9D
000012945530034073692867    VOLMIR JOSÈ PEREIRA                RUA MARECHAL DEODORO                         01974               98960000CENTRO         SANTO CRISTO                  RS00559901774588656                          B31A93D9E15C644ED27912DA6D71D6C4
00035701773000ISENTO        ADEUM A. WEBER                     RUA VER. MEURER                              00181               98960000CENTRO         SANTO CRISTO                  RS00553541154188010                          EC214DEB173A5D3A61B5583CF784611A
00091863074015ISENTO        AIRTON TRAESEL                     RUA MARECHAL DEODORO                         02706               98960000CENTRO         SANTO CRISTO                  RS00559973350288797                          D3B56085DEEB39BEC615564AF0E35D43
00000964701006ISENTO        CATIA HAMMERSCHMITT                RUA MARECHAL DEODORO                         02618               98960000CENTRO         SANTO CRISTO                  RS00553541207488480                          84A83427E56EF44C6C30B285D22EFB9D
00047296780010ISENTO        IRINEU KNORST                      RUA MINAS GERAIS                             02058               98960000CENTRO         SANTO CRISTO                  RS00000000000088836                          6A654538665ADE954B64F8631F016ECE
000688404540043056057007    WANDERLEI JUNGES                   RUA SETE DE SETEMBRO                         00750               98960000CENTRO         SANTO CRISTO                  RS00559156367988629                          D358BCACA664F2388D2C1A313F79BC89
07467460000173ISENTO        WERNER AUTO PEÁAS                  RUA LEOPLD OST                               00031               98960000CENTRO         SANTO CRISTO                  RS00553541104688628                          65489E59EAE1A8DD21B1749F6782854A
03790832000147ISENTO        DELMAR LUIZ SCHNEIDER              RUA PADRE. AUGUSTO                           00444               98960000CENTRO         SANTO CRISTO                  RS00000000000088811                          4613AD353DE839C1A1821805D440A818
082179310001581160018925    FARMACIA CONFIANÁA                 RUA AMANDAU                                  00079               98960000CENTRO         SANTO CRISTO                  RS00553541105188255                          7066495FCD9DD67C73AE068E350B558F
000502966200681042320381    OPTICA RELOJOARIA ASSOCIADA        RUA PADRE AUGUSTO                            00019               98960000CENTRO         SANTO CRISTO                  RS00559622542988605                          B16741FC3F64BB2F570A8C73EA9D94C4
00001211207080ISENTO        ALINE FRANSCIELE ANGST             AV DOM PEDRO  II ,                           01897               98960000CENTRO         SANTO CRISTO                  RS00559641010388012                          8A3B417402C380EE43A0392BC3EC6850
05620718000102ISENTO        IRMAıS BUTZEN LTDA                 RUA BAHIA                                    00034               98960000CENTRO         SANTO CRISTO                  RS00000000000088837                          56355527FA2667594F84CCBEC2A3DA27
000958100210341063597726    CARMEN KNORST                      TRAVESSA MARIA LUISA                         00177               98960000CENTRO         SANTO CRISTO                  RS00559917713488097                          49FCE6A9FCBF4BE38A2539B613453747
000347491440531012705909    DELMIR SCHAEFER                    RUA BEIJAMIN CONSTANT                        01920               98960000CENTRO         SANTO CRISTO                  RS00553541246388172                          8F9D04F90CD343EC4020B0AB65E0CA0C
000769782060911042692614    DIRCE MARIA SCHREINER              TRAVESSA MARIA LUIZA                         00058               98960000CENTRO         SANTO CRISTO                  RS00559622269588168                          15748B1FEC62DC53416389D9BF606AE2
000838656750341078261912    GABRIEL JOSE HAAB                  RUA JO„O RODOLFO KIST                        00264               98960000VILA ESPERANÁA SANTO CRISTO                  RS00559653732188274                          BA8C00DE79FFC0224885016CE0FAB530
000308912210341010651071    JACINTA RUEDELL                    RUA BAHIA                                    00422               98960000CENTRO         SANTO CRISTO                  RS00553541119788581                          3D48AB06A4F98DD8D651119E221DC379
000529589490873035958275    JOSÈ HOLZBACH                      RUA DR. RONCHI                               01065               98960000ESPERANÁA      SANTO CRISTO                  RS00558407869788925                          709D0522ADFDAC59C98C4C4FBF6E0EA0
00033225389072ISENTO        JOSÈ SCHOFFEN                      RUA PREFEITO HARTMANN                        00782               98960000S„O CRISTOV„O  SANTO CRISTO                  RS00559906046688357                          C3E2021EC08286DEE5709A0A27EDAA36
00046034714087ISENTO        LAURO ADOLFO THIELE                RUA HENRIQUE THIELE                          00659               98960000CENTRO         SANTO CRISTO                  RS00000000000088843                          E21E776457C97F1BB68B6231C04AF37E
00059614536004ISENTO        LURDES MARIA STEFFEN               AV. CELSO ANTONIO HARTMANN                   00222               98960000CENTRO         SANTO CRISTO                  RS00559916595288399                          9AB66BE7FA764C044016CE8474F2CBFA
0009337318008202938025103   MARISA TERESINHA ERTEL HEINEN      AV. DOM PEDRO II                             01825               98960000CENTRO         SANTO CRISTO                  RS00553541219788488                          655EF0FDD98996052F7B20FE20913B7D
00037203010015ISENTO        NERI FERREIRA ROQUE                RUA GOIAS                                    00351               98960000CENTRO         SANTO CRISTO                  RS00000000000088011                          74A5C47BF7CBDCC42F84E4C7EAC964DC
00099780623000ISENTO        SANDRA BRAND                       RUA JO„O RODOLFO KIST                        00099               98960000ESPERANÁA      SANTO CRISTO                  RS00559614162288479                          BCE87B2A371433518932C5C6343CEABE
000377537620871026508067    BERNADETE MARIA KREUTZ SCHNEIDER   RUA MARECHAL FLORIANIO                       01755               98960000CENTRO         SANTO CRISTO                  RS00559927548488016                          B6250A645F788B6EA4E614321DED3468
00041108736068ISENTO        GERSON VICENTE F¸HR                RUA BEIJAMIN CONSTANT                        01343               98960000CENTRO         SANTO CRISTO                  RS00000000000088272                          2D2B5BDCD7BDE6D8A558D4FA584D16B3
0005610237203410462794991   JUÁARA FREITAS LEITES HENSING      RUA BEIJAMIN CONSTANT                        01993               98960000CENTRO         SANTO CRISTO                  RS00000000000088356                          8E680AE670D2D06CC2F6A0E7F8123F65
00092665012049ISENTO        MARCO ANTONIO LENZ                 RUA PRINCESA IZABEL                          01150AP 301         98900000CENTRO         SANTA ROSA                    RS00558127946388483                          601BBBD62A23C820C887860799B4F4B2
00048338079049ISENTO        MILTON LUIS SH‰FER                 RUA MARECHAL DEODORO                         01791               98960000CENTRO         SANTO CRISTO                  RS00559966880088471                          7115FE20E7CDE1A3E3B038461D593A52
00025321676020ISENTO        GRANJA REICHERT                    RUA JO„O RODOLFO KIST                        00099               98960000ESPERANÁA      SANTO CRISTO                  RS00553505834488273                          41D28504327536F0B0B18C38755315CF
00068566751000ISENTO        REGIS LUIS REICHERT                ROLADOR ALTO                                 00001               98960000INTERIOR       SANTO CRISTO                  RS00000000000088866                          A829793E8A61E9AF62CE5571B3E9F9BC
000618954310349044724772    ALMIRO BULLERT                     JOAO FELIPE DOS SANTOS                       00473               98900000SULINA         SANTA ROSA                    RS00559647924888524                          4DAD7C03732B611667FAC96F13F41B43
00055165850072ISENTO        CLAUDETE TERESINHA MULLER MASCHIO  GUIA LOPES                                   00001               98900000INTERIOR       SANTA ROSA                    RS00559967600988127                          BA55C875E48FD6565620F27EC99B2D5F
000674756630006054046336    EVANDRO KUTTI TEUSCHEL             ESQUINA GUIA LOPES                           00001               98900000INTERIOR       SANTA ROSA                    RS00559979191088232                          3F5BE2A3E9815E8760B0B9E8166082E2
00000058387030ISENTO        FERNANDO LUÌS DIEL                 RUA DOM PEDRO II                             02119SALA 02        98960000CENTRO         SANTO CRISTO                  RS00553541130188253                          AA2830EA1D734D7ABBB9ABEE13B2A42D
000332091620349014247069    IRIA MARIA LUNKES                  TRAVESSA LEOPOLDO MEINERTZ                   00110               98900000SULINA         SANTA ROSA                    RS00559975362888317                          7415D8A9E3A64ACEC7E1D82E887DA2A5
000027906920097061941031    DARLEI ALCIDES WERLANG             BOM PRINCIPIO BAIXO                          00770               98960000INTERIOR       SANTO CRISTO                  RS00559676993689014                          0C570D0573A37D4BB2D44B9BE17E42A4
00058879277049ISENTO        ELENIR MARIA ENGEL                 BOM PRINCIPIO BAIXO                          00001               98960000INTERIOR       SANTO CRISTO                  RS00559682221288818                          9B1D2F77659F7A692F0DB7F2C2B4DF51
00033131309091ISENTO        ERNANI PAULO STREDA                BOM PRINCIPIO ALTO                           00001CXP.:60        98960000INTERIOR       SANTO CRISTO                  RS00000000000088206                          2C0F4DD657893B009A7287445FF8A1BD
000287278940536011511745    IRINEU LOFF                        BOM PRINCIPIO BAIXO                          00001               98960000INTERIOR       SANTO CRISTO                  RS00553541102489020                          8BF613568B1AC53ADE634E8F628B7F61
00093345674068ISENTO        MAURO ¡NDRE WEBER                  LINHA BOM FIM                                00001               98960000INTERIOR       SANTO CRISTO                  RS00559603768288473                          DA0387B11D29096FC3C2F18BBE7BF29E
00062836960078ISENTO        MARCOS EDUARDO FROELICH            RUA BOM PRINCIPIO ALTO                       00001CXP.:60        98960000INTERIOR       SANTO CRISTO                  RS00559122152888467                          D102D3EBBBCD175A5C345DDE3F3B7EE9
000955341640341058501683    JACKSON EVANDRO THIELE             BOM PRINCIPIO BAIXO                          00001               98960000INTERIOR       SANTO CRISTO                  RS00559106863189021                          D48B5115D86EF4F9A7BA165056174C2D
0000051528312611763370      LIDIANE BIANCA BUTNER              RUA CASTELO BRANCO BNH                       00185AP.:203 BLOCO D98900000CENTRO         SANTA ROSA                    RS00559649050688383                          06BD219AA15ACC5577C7E2DD2E3BA7AD
000653333900105051622412    RUBESMAR ANTONIO GOEBEL            RUA MAGNOLIA                                 00332               98900000OURO VARDE     SANTA ROSA                    RS00559159459888756                          5690EC6430B74E9701180E2C10193729
000004637680194039649373    GABRIEL ROGERIO GOLING             RUA ESTRELA GUIA                             00535               98800000EXPLANADA      SANTA ROSA                    RS00559999366088336                          82C7D3B234E124FE0F2F6463FC7EC199
000645053750727030916841    ALDINO HASPER                      RUA MARTIN LUTERO                            00237VILA SETE DE SE98900000INTERIOR       SANTA ROSA                    RS00559156354188968                          B205F7CC10AE0CEABC46702868EF7452
000332071940875012455779    AMELIA WISNIEWSKI VOGEL            VILA SIRIO                                   00768               98960000INTERIOR       SANTO CRISTO                  RS00559907069788976                          704E32A83032744A811648BC1A7194F8
00002228047007ISENTO        ANDERSON MATIAS KONZEN             RUA S„O LUIZ                                 00068               98900000CENTRO         SANTA ROSA                    RS00553541504988019                          D2F374E1A3C6589E4673CC423DA80860
00000881140074ISENTO        ARIETE VANESSA DIERINGS            VILA SIRIO                                   00001               98960000INTERIOR       SANTO CRISTO                  RS00553541500988007                          A1E50739F4116B3C00FF3E354B032E05
00000569743028ISENTO        DEISE MARIA SCHALLEMBERGER         VILA SIRIO                                   00555               98960000INTERIOR       SANTO CRISTO                  RS00559918916088165                          93860EB2AD43AF4E660E355CE122F1E3
000019375170471088223407    FERNANDO JOEL MEINERTZ             BOM PRINCIPIO BAIXO                          00203               98960000INTERIOR       SANTO CRISTO                  RS00559624307188987                          797DD1A7EB558203D0FE247DDDDC9D2C
00093338112068ISENTO        GILBERTO WEBER                     VILA SIRIO                                   00412               98960000INTERIOR       SANTO CRISTO                  RS00553541504288271                          C29E8A2E3484D396FF33C5D1A7C3E8DD
00033215600030ISENTO        JOSÈ BIRCK                         RUA JUCELINO KUBITCHECH                      00373               98960000VILA SIRIO     SANTO CRISTO                  RS00559956525488359                          45B29D17B5C3149D1F1F0A3B8A52B152
000309041290042013473067    JOSÈ OLMIRO PHILIPPSEN             DONA BELINHA                                 00001               98960000INTERIOR       SANTO CRISTO                  RS00559623466388478                          AA72697179E1D34EEC4C5718919DEA2C
000255552940341018545441    LEO LUDWIG                         LINHA DONA BELINHA                           00001               98960000INTERIOR       SANTO CRISTO                  RS00559908173688977                          7D6C54A6D6A11FC2FDD7ABE7A5B5D97E
00044180489015ISENTO        LEOPOLDO ANDREJEWSKI               VILA SIRIO                                   00001               98960000INTERIOR       SANTO CRISTO                  RS00559101867688395                          DFECD538AA5E1577BBA5654ACFA9F215
000022184640983092763899    MARCO MIGUEL STEFFENS              LINHA REVOLTA                                00001               98960000INTERIOR       SANTO CRISTO                  RS00559144526088485                          4D8A13DA4D15E7C4FE9544661FDEF144
00082898820091ISENTO        RODRIGO HUBER                      VILA SIRIO                                   00001               98960000INTERIOR       SANTO CRISTO                  RS00553541502588608                          8D00A3B1279C033D1EEAB72CFBF5F88A
00035711752049ISENTO        SINÈSIO JORGE KIST                 VILA SIRIO                                   00001               98960000INTERIOR       SANTO CRISTO                  RS00553541502788594                          4F032E5CFB72DB08696B45CB33834D4E
000055719870493005179993    AFFONSO SEIBERT                    RUA PRINCESA ISABEL                          00595               98950000CENTRO         ALECRIM                       RS00553546132088031                          C67450594E5B30F36DB8278BADD19FE2
000585710190538051252784    AIRTON EDGAR PHILIPPSEN            RUA AUGUSTO BORDIN                           00277               98950000CENTRO         ALECRIM                       RS00553546102388030                          F131FE00F59BF4801953478B81DC477C
000384892010721023165747    CLAIR KREUTZ COLETTO               RUA CASTELO BRANCO                           00414               98950000CENTRO         ALECRIM                       RS00559158538788138                          3240721F95DBA4C3F2FE613ABEEA4227
000703745380342029091036    DERCI TERESINHA SIMON              RUA CASTELO BRANCO                           00911               98950000CENTRO         ALECRIM                       RS00553546103988175                          FEDFFC0CE64E8E4E5030AC99854E00A8
000372061920681019348547    DIRCEU INACIO KOHLER               RUA PRINCEZA ISABEL                          00567               98950000CENTRO         ALECRIM                       RS00558402453488176                          BE8F39786657D76C22CC9655281F87BD
000562767100911042321537    EDSON RUBEM DUARTE SANTIAGO        RUA ACIRIO JO„O BERNARDO                     00066               98950000NOVA ESPERANÁA ALECRIM                       RS00559984073288227                          07B56F4D164A8A27E9620DFD469065A7
000522239140043039748551    ELTON LUIS CAGLIARI                RUA MARQUES DO ERVAL                         00079               98950000CENTRO         ALECRIM                       RS00553546138488228                          7CB48D0DEF7B77FE3DDDCFD917B0B2D6
000014000550163086088857    FABIO JUNIOR MULLER                RUA VEREADOR TEOBALDO J. HAMMES              00074               98950000CENTRO         ALECRIM                       RS00559188481188913                          260B1EE4716FA0477B3925ACBD8630F7
00024922870091ISENTO        GILMAR JORGE KUHN                  RUA PRESIDENTE VARGAS                        00467               98950000CENTRO         ALECRIM                       RS00559968139488267                          AC24FC3E08D74D05F57507A558E03193
0006474483300460512531633   GIRNEI LUIS DIERNGS                RUA PRESIDENTE KENEDI                        00703               98950000VILA CANELA    ALECRIM                       RS00559906890588268                          B5402D1EDFB52D5BAC4D843F88DC31EF
000900086000826058507341    IVANETE SCHALEMBERGER SCHIRMANN    AV. CARLOS ALBERTO SCHAEDLER                 00245               98950000CENTRO         ALECRIM                       RS00553546107088303                          A32A50F1C61133AACAB0BE4434CF53EF
000329712300151008582841    JO„O LUIZ DIAS                     RUA JACOBS HANSEN                            00275               98950000CENTRO         ALECRIM                       RS00559603195488916                          AE0096D243DA56CF9A6E5BB839004432
082468540001641630007819    LOJA ECOLAR                        AV. PREFEITO JOSÈ EUGENIO RAUBERT            01021               98950000CENTRO         ALECRIM                       RS00000000000088416                          9CC3ECDA526A4CE1DD6D821C601DD8D6
000585718170491038428213    MARISTELA KOWALSKI                 RUA PRESIDENTE VARGAS                        00582               98950000CENTRO         ALECRIM                       RS00558137628688445                          53B31A55C500313E31F473E761C90035
000408782520531026823813    MARLI LUDWIG                       AV. CARLOS ALBERTO SCHOEDLER                 00860               98950000CENTRO         ALECRIM                       RS00558131854088448                          252B40FE04EF470CA44515A751F4A586
000978908120001068686201    MICHELLE DE OLIVEIRA COLOSSI       RUA MARQUES ERVAL                            00485               98950000CENTRO         ALECRIM                       RS00559635714988446                          73C70C10B23D5AA2D3ADF17FE7C89E8D
000532594670683044573446    MILTON LUIZ HAHN                   RUA SANTA CRUZ                               01178               98950000CENTRO         ALECRIM                       RS00559615058288447                          71551394C2B951A8C7746EF361FF2C88
00044165340006ISENTO        MOISES N. DOS SANTOS               RUA PRESIDENTE KENNEDY                       00183               98950000CENTRO         ALECRIM                       RS00000000000088855                          FD83AE32F8D9B7D221857EEF0FC57021
000489266390531028926564    PLAUTO ANTONIO FEYH                RUA MARQUES DO HERVAL                        01123               98950000CENTRO         ALECRIM                       RS00559909532088721                          A2097386A1BD59EA555DA4763DFE55B9
00001840808004ISENTO        RODRIGO RAFAEL KREUTZ              RUA ANTONIO BORDIN NETO                      00656               98950000CENTRO         ALECRIM                       RS00559904217388723                          7FBD9F7EAFC7A130D44D7F4151431D40
000189853000911017735199    EGON TADEU RAUBER REICHERT         POVOADO IPE                                  00001               97980000INTERIOR       S„O PAULO DAS MISSıES         RS00559935964388219                          3E16DBEBDF712D33F6432876FE7D7696
0000110874005702999833714   ISMAEL FRANKE                      LINHA BOA ESPERANÁA                          00001               97920000INTERIOR       S„O PEDRO DO BUTI·            RS00558112324288313                          67442C83D44F4417FB362F14AD52922E
00034330879034ISENTO        JOSÈ BREMM                         LINHA LUIZENTHAL                             00001               97980000INTERIOR       S„O PAULO DAS MISSıES         RS00559903462288407                          9D0AB32C45CB12458BBF54D32999762A
000208503440344009707557    LUIZ CLEMENTE GVOZO                LINHA BURITI                                 00001               98975000INTERIOR       CAMPINA DAS MISSıES           RS00559961443688386                          20D216A5B493695A51597B024B07A9FE
000388117900343010866725    MARLI BACK                         RUA INDEPENDENCIA                            00978               97980000CENTRO         S„O PAULO DAS MISSıES         RS00553563117888992                          D6B0201ACAA82D2D0E1C540A321FFCDB
000688182030539042418062    ANA MARLI JUNG MOTA                RUA 15 DE MAIO                               01519               97930000CENTRO         CAIBATÈ                       RS00559613000588027                          A4151B185F3B324E04A67C9FAF2E0601
000434429350916037797732    ANSELMO PAULO KLEIN                RUA AD„O SCHNEIDER                           01533               97930000CENTRO         CAIBATÈ                       RS00553355102288026                          757492D0356A22E592F09A07731E6A5A
00040736172068ISENTO        CARLOS NEI BASTOS VIEIRA           RUA G                                        01509               97930000ASSUNÁ„O       CAIBATÈ                       RS00553355145988136                          1ACF6C76575E835B766D2FD07E778D21
000364625510207015687077    CARMEN SCHNEIDER SALLET            LINHA BATUCU DO SUL                          00001               97950000INTERIOR       GUARANI DAS MISSıES           RS00000000000088137                          1C3258EB5DAA25B8DB5579E16260A97F
000189999300251017825272    EDÌLSON PERSON                     RUA  URUQUA                                  00001CAIXA POSTAL 1097930000INTERIOR       CAIBATÈ                       RS00559983504588223                          9C0F7915853E2B8AC3C2FAF2600C0060
00090080289053105557968     FABIO SULZBACHER                   AV. S„O MIGUEL                               01383               97950000CENTRO         GUARANI DAS MISSıES           RS00559607127288244                          33D402630FB004D20350F1755C606649
00054093546053ISENTO        JANDIRA LEIRIA DA SILVA            RUA JACOB WELTER                             01393               97930000VILA ASSUNÁ„O  CAIBATÈ                       RS00553355138488339                          FCB3B3BE1AD4A90BBE2014DA90E183D7
000275650410681010118113    JO„O CARLOS BARTH                  RUA CEFRIM                                   02126               97930000VILA LAGO AZUL CAIBATÈ                       RS00553355159388338                          58B276DF65AE024FFAA72131F3ABCEA5
00039125939068ISENTO        MAURO JOSE WASTOWSKI               AV. DR. RODOLFO HENRIQUE FRANTZ              01588               97900000EXPLANADA      CERRO LARGO                   RS00559626197388451                          352C9913C86CE91EF1A140327EB0C848
000529697380151042342798    NEIVA PAZZE RUDEK                  HARMONIA CENTRO                              00001               97950000INTERIOR       GUARANI DAS MISSıES           RS00559998339888552                          7A313660B7DB39EE7AB431044AF2003E
000144459640342027765847    ROQUE ANGST                        VILA RONDINHA                                00001               97935000INTERIOR       MATO QUEIMADO                 RS00559932759688931                          6B439CF361459E43386EB6D352AD781A
000043843770537065683232    VILDO DA SILVA                     LINHA SANTO ANGELO                           00001               97930000INTERIOR       CAIBATÈ                       RS00559906942688715                          A862E60FFED68F17A9D5502E1016048F
000555057830159026592932    ADOLAR ORTIZ                       RUA MARECHAL FLOREANO                        00983               97900000CENTRO         CERRO LARGO                   RS00553359248188146                          21708BD2020888BCF428C262ED92E6B8
000600894310493043728751    ANENCIR JOSE ROGOSKI               RUA TIRADENTES                               00338               97900000CENTRO         CERRO LARGO                   RS00559603909388036                          E0DF0E8036E92A91DD9B87929C75B22D
00005986656920ISENTO        ARNO RENATO ZENZEN                 RUA JO„O WAGNER                              00257               97900000SANTO ¬NTONIO  CERRO LARGO                   RS00553359169588044                          B7656F15D173C7EA4B02EB34189264EA
000909510260201069330981    CARLOS EDUARDO SPOHR               RUA TIRADENTES                               00260               97900000CENTRO         CERRO LARGO                   RS00559973908188118                          E3FB04DC56EE7638677583C5C0753C79
00046960970059ISENTO        CELSO LUIS HENRICH                 RUA IRM„O AUGUSTO                            01441               97900000IRM„O GABRIEL  CERRO LARGO                   RS00553359275488116                          F297F55722A5348700EA40CD2D789F3A
00043424554049ISENTO        CLECI MARIA FOLMANN DE LIMA        RUA MAJOR ANTONIO CARDOSO                    01665               97900000SANTO ANTONIO  CERRO LARGO                   RS00553359146988893                          F88BAA81C38BB4053126262CEA7E1842
000574227610915032840452    DIRCEU OLMES AUTISSIMO             RUA TIRADENTES                               00397               97900000SANTO ANTONIO  CERRO LARGO                   RS00558138499988210                          6A718C39B63E256A3DBF04AA9995297C
87612990000105ISENTO        PREFEITURA MUNICIPAL DE CERRO LARGORUA CORONEL JORGE FRANTZ                     00675               97900000CENTRO         CERRO LARGO                   RS00553359190588788                          DE4AC895AD03EA281827A264C96AF0C2
00090955528020ISENTO        FLAVIA TEN KATEN                   RUA MAJOR ANTONIO CARDOSO                    01570               97900000SANTO  ANTONIO CERRO LARGO                   RS00000000000088824                          D4F7629BF9249E8EFE4E369A53EFA722
000575072520006037532857    ILDO FRANCISCO VOGT                RUA JO„O WAGNER                              00166               97900000SANTO ANTONIO  CERRO LARGO                   RS00000000000088294                          B3FFDE6874A3B21C8386E7CFC9A11E4D
0002756363405330080103551   LUCIA CATARINA LUNKES              RUA 7 DE SETEMBRO                            00965               97900000CENTRO         CERRO LARGO                   RS00000000000088422                          5E70AD9EBB562D229F85D7171B364BA5
00000656907029ISENTO        LUCIANE CRISTINA SCHUSTER          RUA IRM„O AUGUSTO                            01871               97900000IRM„O GABRIEL  CERRO LARGO                   RS00559988173489026                          FC248F2AB54F026D406CAE62217C4180
000647752830491032753696    MARIA LENI MULLER KREWER           RUA PADRE JOSÈ SCHARDON                      01017VILA INDUSTRIAL97900000CIEP           CERRO LARGO                   RS00000000000088507                          8FD6DB6428E30AAA3CFC8F9058052758
000227306640681037913934    MARIO ELY                          RUA JACOB REINALDO HAUPENTAL                 02150               97900000SANTO ¬NTONIO  CERRO LARGO                   RS00553359404588506                          F27C970085B108A1AB07578B4BC68897
000000293910085075304856    PAULO ROBERTO WELTER               RUA SALGADO FILHO                            00128               97900000SANTA MARIA    CERRO LARGO                   RS00558136714488774                          2C511B633A44D0AD466E2DDDF23A32AC
000374110040496011489231    PAULO WAGNER                       RUA CORONEL JORGE FRANTZ                     01340               97900000CENTRO         CERRO LARGO                   RS00553359118188773                          D7DB97DF7A70BEC36E7B7674EE0872D3
00002039751033ISENTO        RICARDO JO„O SCHER                 RUA S„O FERNANDO                             00344               97900000CENTRO         CERRO LARGO                   RS00558117035188953                          C2A2D38CAFBFDAE900044BC6D1C22AD0
000557344720347031673697    ROSANGELA IRENE FRANZEN            RUA S„O FERNANDO                             00470               97900000S„O FERNANDO   CERRO LARGO                   RS00553359279288778                          6A52D4B676453191FA93A06BBF219604
000950744810151057340877    SERGIO MOACIR MORSCHBACHER KRAMER  RUA JO„O WAGNER                              00555               97900000SANTO ¬NTONIO  CERRO LARGO                   RS00559969661988781                          1C7DC036352B77C2A24CD1DAC8E8C243
00049470043049ISENTO        T‚NIA ROSANE PORSCH                RUA DR. JO„O SEBASTIAN                       00454APT.: 101      97900000CENTRO         CERRO LARGO                   RS00559936204888883                          D78C6C1D1ADCAA8ED3B7EAD71D57FC85
000015390060189085570191    VANDERLEI FRANTZ                   RUA J„O WAGNER                               00327               97900000SANTO ANTONIO  CERRO LARGO                   RS00558118672088786                          FD1920AD94E18FAEEB37D22F9A0CABF0
000394398360912025068673    MARIA ANGELINA SCHNS DONEL         RUA TIRADENTES                               00800               97900000SANTO ANTONIO  CERRO LARGO                   RS00559138856088512                          CB7C2EF1C77ACF3020947B98584C827C
000288933280201003910922    ALDINO BOHN                        RUA DR. OTTO FLACH                           00138               97900000CENTRO         CERRO LARGO                   RS00000000000088038                          CC1080436064C15639B975A9BA093057
00025506145004ISENTO        ALFREDO GOTZE                      RUA CORONEL JORGE FRANTZ                     00947               97900000CENTRO         CERRO LARGO                   RS00553359116688037                          FD4E5C67911D7BD9F65D5F3E660019EB
000469606600251035472123    ALVARO THOMAS                      RUA ALOISIO SANDER                           00079               98900000CENTRO         CERRO LARGO                   RS00559973047788042                          AE55091F5AFBAF3925D57B9A4E4E3AA3
0003413158201502086164250   CARLOS ALBERTO ASSMANN             RUA MAJOR ANTONIO CAROOSO                    01545               97900000SANTO ANTONIO  CERRO LARGO                   RS00553359222288117                          2231321264C2241FA22F3DB1846B5552
000460844010159035839878    CLECI TERESINHA EDIT CASTRO        RUA NEREU RAMOS                              00850               97900000SANTO ANTONIO  CERRO LARGO                   RS00559642689588114                          7F4AA45515B4A689E91F5B134AF195A7
000571141450049037251395    DENISE MARIA MAYER                 RUA 7 DE SETEMBRO                            01278               97900000CENTRO         CERRO LARGO                   RS00000000000088152                          A8B5ED387FDA50E05D5814E32F40CDEE
000018235050903069329226    JAQUELINE MAYER DAPPER             RUA CORONEL JORGE FRANTZ                     01296               97940000IRM„O GABRIEL  CERRO LARGO                   RS00553359220389008                          617FACBE30EB23FF253452E5AC9205F9
00090884221091706485880     JOSÈ ARAMI RODRIGUES               RUA PADRE JOSÈ INACIO SCHARDONG              01215               97900000CIEP           CERRO LARGO                   RS00000000000088367                          3D8C2880B490C04E4192052BFB43341B
000442863250916030433971    LUCIO JOSÈ DILLEMBURG              RUA 7 DE SETEMBRO                            01383               97900000CENTRO         CERRO LARGO                   RS00559623067488425                          585CFE531FE87DBEB41FC105E6816F07
000773176700069014934278    LURDES CLAUDETE WEBLER             RUA PADRE MAXIMILHANO VONLAS BERG            00852               97900000CENTRO         CERRO LARGO                   RS00553359295588424                          D4CFD97382A82B14FD2837A5F6D1261D
000001188620069083449588    MARCELO SCHWEING                   RUA PADRE JOSÈ INACIO SCHARDOM               01302               97900000CIEP           CERRO LARGO                   RS00559629461588509                          F02243B749A37EDEA83F1861522E319D
00046961089020ISENTO        CIRLENE SAUSEN                     RUA CASTELO BRANCO                           00660               97900000CENTRO         CERRO LARGO                   RS00000000000088783                          C2B9F2BA0D5119972E66880CE9775756
000286384410538011509166    VIRO ANTONIO BIEGER                RUA 7 DE SETEMBRO                            01310               97900000CENTRO         CERRO LARGO                   RS00553359268288787                          749316D1103C0A6ED2419E991F8B6764
00042674140682111329221     ADILSON DOS SANTOS IRINEU          RUA 7 DE SETEMBRO                            00119               97900000FLORESTA       CERRO LARGO                   RS00559905424288041                          57C69245CA0677059F626F16F52A9F5D
000457668780871004332043    ALDERINO GIORDANE                  RUA TENENTE ASUNSS„O                         01207               97900000ESPLANADA      CERRO LARGO                   RS00553359344388039                          C63E345A8636C00DB6CD83955A1E182E
00000343591090369392486     ANGELA TERESINHA GLASSMANN         RUA PROF. NICOLAU HARTMANN                   00282               97900000BRASILIA       CERRO LARGO                   RS00559191077288035                          8F3304C5C720F0BA0B0B0D9A4913957A
000002667720212065703833    CARLOS LENZ ROHDEN                 RUA CERRO AZUL                               01801               97900000INTERIOR       CERRO LARGO                   RS00559158454588150                          6CBBA53B12B919C46623C5BD7F118C08
000006076600071084635109    CHEILA ESPINOLA                    RUA PADRE JOSÈ INACIO SCHARDON               01080               97900000CIEP           CERRO LARGO                   RS00000000000088124                          8C83B2066231DAD4A63E9CA81A9A064F
000357104890348028744401    DELFOR EBERHARDT                   RUA PADRE MAX                                00155               97900000CENTRO         CERRO LARGO                   RS00000000000088174                          A5691595BC96118320796E2FF7D44057
000591769380347031731693    EVA LUBSCHINSKI                    RUA PADRE WOLTER                             00297               97900000ESPLANADA      CERRO LARGO                   RS00553359139988279                          69B0A9B18F49873EECE25FBA1E3F37D9
000013733730241089175366    GEOVANE LUNKES                     RUA CERRO AZUL                               00615               97900000CENTRO         CERRO LARGO                   RS00559929859688277                          66E56E8A6AA51A9F4D591962E2523B70
000892768500821039213028    JO„O ARI RAMBO SCHEUER             RUA PEDRE JOSÈ INACIO SCHARDONG              01060               97900000CIEP           CERRO LARGO                   RS00559604432788368                          EEEA123ECF1A1FCC2AC19EF0E9C8FC8F
000010587980064069364737    LARISSA JUNG WELTER                RUA PADRE WOLTER                             00349               97900000BRASILIA       CERRO LARGO                   RS00559655419588423                          96F87AED8966E0B98BFFAADAFCA55ABE
00096490470004ISENTO        LEONARDO MOMBACH                   RUA SETE DE SETEMBRO                         00164               97900000CENTRO         CERRO LARGO                   RS00000000000088844                          8C9BEE405F7A2728CEEF919EEC3CF9CE
000581190430492009673365    LIANE MARIA JOHN                   RUA 7 DE SETEMBRO                            00109               97900000FLORESTA       CERRO LARGO                   RS00000000000088426                          C9E75AC077CEB07925B2437913A22BB1
000902091760917064342343    MARIA DE FATIMA NAUTE DE MATOS     RUA REPUBLICA                                00355               97900000ESPLANADA      CERRO LARGO                   RS00558143212688508                          D3A0D92C632891E7013D6A2B7E6E3E78
00002402462094ISENTO        NATAN HISTRE DE OLIVEIRA           RUA HENRIQUE THOMAS                          01100               97900000ESQUINA UNI„O  CERRO LARGO                   RS00000000000088858                          BEA66B83046F83DE49F90F9E90DD9C36
00000257011005ISENTO        ROSANE TERESINHA SKUTIEN           RUA JOSE INACIO SCHARDONG                    00459               97900000PAULINO        CERRO LARGO                   RS00000000000088872                          5D48CC112F543164E24BD90D1273F396
00068319452015ISENTO        SANDRA MINIKEL                     AV. 20 DE SETEMBRO                           00946               97900000CENTRO         CERRO LARGO                   RS00000000000088875                          8F24CBA7B5D1F31C860B789AAE56D8DF
000013323930639083439415    CHEILA LEAL                        RUA PADRE JOSE SCHARDONG                     00292               97900000PAULINO MOSCON CERRO LARGO                   RS00000000000089028                          76CF83BF9F699A5A23DCCAFF5DD05EDD
000361476990911024094731    BERNARDO JO„O TEN CATHEN           RUA PEDRO MASCOM                             00111               97900000BRASILIA       CERRO LARGO                   RS00559961700588082                          BECCC894D0610169E6E175514A1789FA
000016771720021090562388    CAROLINE LUISA KNOB WILLE          RUA PROF. NICOLAU OSCAR HARTMANN             00421               97900000ESPLANADA      CERRO LARGO                   RS00553359173688394                          3F810DC2899AA7ABAA08DFC00FBC769B
000998785260205056820359    CATIA ADRIANA THUN                 RUA MARECHAL FLORIANO                        00033               97900000ESQUINA GAUCHA CERRO LARGO                   RS00559933873289010                          FDEA910F742BA8B26245B6F2C48F6982
000025176600422099947919    EVERTON BORTOLATO KIRSCH           RUA PADRE WOLTER                             00336               97900000ESPLANADA      CERRO LARGO                   RS00559649001788951                          BBB0B2D28AE38DEB6A16958A2A5E8488
000016873580601062317746    LETICIA TAMIE ODA                  RUA PADRE WALTER                             00115               97900000BRASILIA       CERRO LARGO                   RS00553359181988917                          BE87663D324FC18D57C19D38E242B577
00096384999072ISENTO        MARCIA DENISE MARTINY              AV. S„O LUIZ                                 00300               97900000CENTRO         CERRO LARGO                   RS00000000000088850                          A91EEC52F48C99DAF64EFC17F8C78105
000963881450001039747009    MARIA CLEONICE DA SILVA SOUZA      RUA INDEPENDENCIA                            00425               97900000ESPLANADA      CERRO LARGO                   RS00558131385788949                          ED46A7E9A2D6B760EC0F08E1A3D29B48
000590616850877042257481    MARLI DA SILVA DE MATTOS           RUA S„O FRANCISCO                            00986               97900000BRASILIA       CERRO LARGO                   RS00559168653988948                          62B061403C2568E4D6E8B0C0A483202C
000894497970727033390894    SILVIA CRISTINA WELLER SIVIRIS     RUA TENENTE ASSUNÁ„O                         00940               97900000ESPLANADA      CERRO LARGO                   RS00559613888188991                          D5BC6D30523246592FBD5B9D6FC55F9C
000628435240918014820636    ZAIDA FROHLICH                     TRAV. MARIA MATILDE EDIT                     00041               97900000CENTRO         CERRO LARGO                   RS00553359128988997                          58B1F5E0DB3F5E59E640D59259F7302D
000519543030687031413061    GILMAR MONTEIRO                    RUA PRIMEIRO DE MAIO                         00448               98770000NEVES          CATUÌPE                       RS00553336155888265                          E17D47DC802FE2C1BA27DC28C2D14D55
000986449470871041047711    JOCIANO LUIS DALROS                RUA JOSE MARIA DE MELLO                      00354               98770000SANTA FÈ       CATUÌPE                       RS00000000000089031                          25105826AE519CB6067D9F0AFCEC85EF
000977383950871069339181    JOEL DE AGUIAR                     RUA VILARIN RODRIGUES                        00115               98770000CENTRO         CATUÌPE                       RS00559138841388941                          9248380399A008B86310953F67C03107
000021340840654103210409    LARINE DALLA CORTE BERNARDI        RUA IJUI                                     00282               98770000SANTA ROSA     CATUÌPE                       RS00559147437988523                          DDEE5A80E8431128C6D7D06AB4C3811C
00000492581096ISENTO        VINICIUS ANDREI DA SILVA           RUA CIRILO ORTIS                             00064               98970000CENTRO         CATUÌPE                       RS00000000000088888                          0993CFE44D2AC19FD99B0CF4E471BC82
000152959740499018350851    EMILIANO AMILTON PIMENTEL DE PAULA RUA PIRAPÛ                                   00338               98900000ALTO PETROPOLISSANTA ROSA                    RS00553512232088969                          EBA52C314D412B3AF577EB3831CEDA32
000647599970919051600551    GRISELDA MARIA SCHMIDT ALLES       RUA IPÍ                                      00460               98900000NOVO HORIZONTE SANTA ROSA                    RS00553512832689004                          B7455B0D2CCA07E50DE117797F016979
000715429490688058028227    MARISTELA FOLLMAN                  RUA INES PERINI                              00115               98900000NOVO HORIZONTE SANTA ROSA                    RS00559155155888502                          81F333F1275B05ED74D46294B46C1753
000642896640918044699091    SILVIA CIECORSKI ZANCAN            RUA TIMBAUVA                                 00040               98900000TIMBAUVA       SANTA ROSA                    RS00553511175588939                          0FFA43A1008CC0C6AB76AAF9C6442126
00061245950010ISENTO        JADIR JOSÈ THEISEN                 RUA TENENTE JUNG                             00433               98960000CENTRO         SANTO CRISTO                  RS00553541249288352                          38DA053DA0C49EDAE44EC021B21AB260
00089823435049ISENTO        MARCOS AURELIO BOLZAN              AV. TUPARANDI                                02096BLOCO.:04 AP.:198900000CENTRO         SANTA ROSA                    RS00558419689088501                          E33E289A02F948A094BCD508EA94F3E2
000745620290721031072151    JANINHA APARECIDA MAUZAKIO         RUA BEIJAMIM MENZEL                          00103               98900000PLANALTO       SANTA ROSA                    RS00559168675189019                          1EEDD5E2AF03A0A28061785AB7ADF685
000003590310481058508092    ROCHELLI COLOSSI                   AV. INHACORA                                 00611AP.:101        98900000CENTRO         SANTA ROSA                    RS00558127789488758                          39D10159558F2AF41405650AE8DB7451
000548766720912055592758    ANTONIO ALMEIDA DA CUNHA           RUA FIDENCIO GONSALVEZ DIAS                  00451               98870000MUCHA          GIRU·                         RS00558402160488047                          FAC6228AE5F7A74CB993F08C4A062661
000712888640001052930672    VERA BEATRIZ ANTUNES DOS SANTOS    AV. CORONEL BRAULIO OLIVEIRA                 01318               98870000CENTRO         GIRU·                         RS00553361118288580                          3605E22221F3E2F90F99FBCDE641D6B6
000006758540086084720736    ANDERSON SOMAVILA MACIEL           ESQUINA REDIM                                00001               98850000INTERIROR      VITÛRIA DAS MISSıES           RS00559644436088033                          8A7F6386EC0710575F63A595264A75AB
000014907190671089037343    MAIQUEL TADEU THUME                RUA GENERAL ANTONIO NETO                     00227AP 403 BL. A   98801670CENTRO         SANTO ¬NGELO                  RS00559935474088435                          937F671CD84CDCA9930D4C8ED9CD5F19
000897206100003042337034    NARA REGINA BATISTA VIEIRA         RUA NOVA                                     01096               98800000AGUIAR         SANTO ¬NGELO                  RS00559975981788542                          7B17C4303878C5FE4C0EF7E2D004E8FF
000043194190491022082224    VILMAR PRESTES RODRIGUES           AV SAGRADA FAMILIA                           01305               98805000PIPPI          SANTO ¬NGELO                  RS00559603074988673                          8FF6EB10383F3607B5672459C91DC481
00098241001053ISENTO        JANINHA HASS                       AV. JULIO SCHWEMGBER                         01531               97920000CENTRO         S„O PEDRO DO BUTI·            RS00553369118088335                          ACBFB318DBE9D4D1CAA0770C922949AB
00001724438069ISENTO        RICARDO ROHDEN                     RUA ROQUE GONZALVES                          00635               97920000CENTRO         S„O PEDRO DO BUTI·            RS00553369129888685                          CFE73C2316F7639C343256BD99FE659C
00001824320094ISENTO        ANA LUISA JUSTEN                   AV. JULHO SCHWENGBERN                        01996               97920000CENTRO         S„O PEDRO DO BUTI·            RS00553369135287996                          568798FC549BE8A32EEF560E4625626B
93592715000161ISENTO        PREFEITURA MUNICIPAL DE S„O PEDRO DRUA 7 DE SETEMBRO                            00940               97920000CENTRO         S„O PEDRO DO BUTI·            RS00553369100588790                          9713F31B87CEB17EECA4638BAC9BE4E9
00093357427087ISENTO        CLEBER HECKLER                     AV. ROMILDO SCHNEIDER                        01215               97920000CENTRO         S„O PEDRO DO BUTI·            RS00000000000088808                          866AF864DDC0B43CFDFC54FACEE2B0A2
000886671380533037922699    DARLEIA JUSTEN                     RUA PREFEITO HAUFENTHAL                      00649               97920000CENTRO         S„O PEDRO DO BUTI·            RS00553369130888159                          65074342E08460CDCB73D6E9748BB37F
000314515000688014688091    EVA MARIA HILGERT                  AV. JULIO SCHWENGBER                         00780               97920000CENTRO         S„O PEDRO DO BUTI·            RS00553369106588258                          1D7B150E6E53E75D58C7E964EE7B9CC9
000602593610206026528353    GILBERTO CARLOS STEFFENS           RUA PADRE REINALDO JACOBS                    00817               97920000CENTRO         S„O PEDRO DO BUTI·            RS00553369105988264                          6B7010CDB73B70BF7B20DE17D800C3D6
000010716890108075599641    JAQUELINE MEINHART                 RUA PEDRO SCHER                              00484               97920000CENTRO         S„O PEDRO DO BUTI·            RS00553369116288430                          5A22DAE59F5956D9B922E6F1C51FA7FC
00002819551076ISENTO        JÈSSICA MARIA DA SILVA FENGLER     RUA PEDRO THOMAS                             00514               97920000CENTRO         S„O PEDRO DO BUTI·            RS00559101437288919                          A26260DAEBF272249C3086C63B09A6B7
000021759250308079651769    MAGALI RAMONI LENZ                 RUA JO„O ALBINO HILGERT                      00925               97920000CENTRO         S„O PEDRO DO BUTI·            RS00553369138888439                          1B6BE3DA4CA5B85D854C1C479D0A0871
000891653220534023891155    MARLISE RAUBER BOCHLKE             AV. EUGENIO FRANTZ                           00671               97920000CENTRO         S„O PEDRO DO BUTI·            RS00000000000088441                          C0E766ABEC8DE3574C68BA88184DC4D5
000905094040491026527877    NAIR ZARNOTT WOHLFART              RUA SETE DE SETEMBRO                         01163               97920000CENTRO         S„O PEDRO DO BUTI·            RS00553369135488544                          57FD9CC31A3C56E922DFC23DDFBFBE89
00001978479000ISENTO        NARDELE JO„O HILGERT               AV, JULIO SCHWENGBER                         02044               97920000CENTRO         S„O PEDRO DO BUTI·            RS00553369126488674                          F3397B1A8672CC5F29CA126B50C81BBC
000893016090532055567818    OT·VIO FROEHLICH                   RUA PADRE SCHER                              00640               97920000CENTRO         S„O PEDRO DO BUTI·            RS00559137768688676                          07D29F98F84F01CFAAC41F0E1C2BBFC2
00061157783015ISENTO        PAULO CEZAR REBOLHO                RUA JO„O  ALBINO HILGERT                     00001               97920000CENTRO         S„O PEDRO DO BUTI·            RS00000000000088677                          9728A7093B72B835E641491C3E548384
000961060180499014852637    RICARDO ANDRE HILGERT              RUA REINALDO JACOBS                          00728               97920000CENTRO         S„O PEDRO DO BUTI·            RS00000000000088682                          3435C3A0CA0C6C9AD5642978DACC3B00
00046961259049ISENTO        RONI MIGUEL CAGLIARI               RUA PEDRO THOMAS                             00456               97920000CENTRO         S„O PEDRO DO BUTI·            RS00553369125188687                          823E2CD1C3485CA9C28A565EF0209EA3
95082251000179ISENTO        STAR MODAS                         AV. JULIO SCHNVENGLER                        01432               97920000CENTRO         S„O PEDRO DO BUTI·            RS00553369117088692                          DCC76888D5ADC97C9AF10916BA60471D
00000815533071ISENTO        VALESCA MACHADO                    RUA REINOLDO JACOBS                          00555               97920000CENTRO         S„O PEDRO DO BUTI·            RS00553369107688699                          7826DA2B71A21CD61832003BE737EED9
000001512450961054732456    VERA TEREZINHA PEIXOTO             AV. JULIO SCHWENGBER                         02032               97920000CENTRO         S„O PEDRO DO BUTI·            RS00559147182488696                          083B9C09A2A73565A4BD8B1C80D037DF
00054477255004ISENTO        NELCI SCHLEGEL                     RUA CASTELO BRANCO                           00368               97920000CENTRO         S„O PEDRO DO BUTI·            RS00559163648188546                          C1D1167576C091F58BB7B6F958D97888
00000900161060ISENTO        ESTEVAN TEN CATEN MARTINS          AV. JULHO SCHWENGBER                         00740               97920000CENTRO         S„O PEDRO DO BUTI·            RS00553369107188794                          5A8C42E8054314FB09389F285C684606
000533217740203036049157    CESLAU MARIO WARPECHOWSKI          RUA S„O NICOLAU                              00744               97950000CENTRO         GUARANI DAS MISSıES           RS00559631807388262                          2086C6928090E2C28D6B31BCCE448C56
88506993000119ISENTO        COOGUARAMANO                       RUA MIGUEL KAMINSKI                          00001               97950000SANTA TEREZA   GUARANI DAS MISSıES           RS00553353101188263                          50796CB010A3A243FEC372D3B2633C7B
00043332986015ISENTO        EUGENIO N.WARPECHOWSKI             AV. CASTELO BRANCO                           01322               97950000SANTA TEREZA   GUARANI DAS MISSıES           RS00553353174188392                          D8DE99637E66F5F138A7C188222324D0
000367365890535031239841    HILARIO V. KULIGOWSKI              RUA GERONIMO SUSKI                           00065               97950000SANTA TEREZA   GUARANI DAS MISSıES           RS00552309196188393                          61E16408EC6F892B940CFDB994C50215
000452981060725034292441    JORGE KOTLEWSKI                    RUA CLEMENTE SOLTIS                          00235               97950000SANTA FÈ       GUARANI DAS MISSıES           RS00559994517288340                          57E9CF317B61C6458BC582EE8B5ABEAD
000433335750001037119003    SERGIO JOSÈ CEGIELKA               RUA S„O LOURENÁO                             00819               97950000CENTRO         GUARANI DAS MISSıES           RS00559998593188719                          80EF32F7818686031E984DB7BDCDA8C1
000578214880201043829967    SILVESTRE WOZNIAK                  RUA MIGUEL  KAMINSKI                         00590               97950000CENTRO         GUARANI DAS MISSıES           RS00553353115988717                          E43797A1C7521FC40D3AF3B4C59AB4D6
000116181160531043823705    TADEU JABLONSKI                    TRAV. 27 DE MAIO                             00072               97950000CENTRO         GUARANI DAS MISSıES           RS00559924329788952                          D5C653231A89B589F163FCEC62516BF7
000760073910002017221603    VALMIR DA SILVA ARA˙JO             TRAVESSA 12                                  00092               97950000PAMPA          GUARANI DAS MISSıES           RS00000000000088720                          C3FAFD00155B612BD1662FD3FA6C98B4
000056224760205012340451    ANTÙNIO RUBENS VIDAL               VILA CERRO ALTO                              00001               98940000INTERIOR       TUPARENDI                     RS00559976584587984                          331FE940FA5A95CC152DFBEB4CE3D234
000635206720492050938782    CLADIS DANIE CHITOLINA PAWLAK      CERRO ALTO                                   00001               98940000INTERIOR       TUPARENDI                     RS00559614191088120                          D5C16B93B2A7ADCABE8ABF2C6C52F9B8
000020191480806092269262    ELTON FROEHLICH                    ROLADOR ALTO                                 00001               98960000INTERIOR       SANTO CRISTO                  RS00559644311888207                          6519857883012008038A7218BE502CBF
000636305320042050285317    NILSA DOS SANTOS                   VILA S„O ROQUE                               00001               98940000INTERIOR       TUPARENDI                     RS00559966458488540                          A7B9758CC675522EB19ACAC94A798A2C
000307340020689000810763    SERGIO LEONEL DALCIN               VILA S„O ROQUE                               00001               98940000INTERIOR       TUPARENDI                     RS00559613686588764                          D0B9CE2456A632AB494E4D9C85612E7E
000920266560538031277711    NELSI MARIA ROHR                   LINHA BUTIA CENTRO                           00001               98975000INTERIOR       CAMPINA DAS MISSıES           RS00559662940088565                          82CE2C018B2E5020398B2720C08E1A8D
000280906320681016991067    NILSE ARNOLD SIVERIS               RUA ROSARIO                                  00680               98975000CENTRO         CAMPINA DAS MISSıES           RS00559953315088567                          E41895D3B353DFCEE777F398F8E741FB
00046952632034ISENTO        NILSON ZIMMERMANN                  RUA URUGUAIANA                               00586               98975000CENTRO         CAMPINA DAS MISSıES           RS00559623030088570                          5372C873305F18B1A6BFD2FA7C4B768A
00033206961068ISENTO        VALDIR JUNG                        RUA PELOTAS                                  00729               98970000CENTRO         CAMPINA DAS MISSıES           RS00553567131588644                          807874090E545196544E6AF3743B8956
000330815220725015294531    ANTONIO DO AMARAL PERDONSINI       RUA ELISIO CAVEDON                           00306               98946000CINQUENTENARIO TUPARENDI                     RS00559603684587986                          75684FD8FF6B974313D69CBAFB3E2661
000988328320201057039644    CARLA LUCIANE PETERS               CINQUENTENARIO                               00001               98940000INTERIOR       TUPARENDI                     RS00559603261188122                          0FD5A2352B9984FD4B419A8FCBDF0402
000496337320347037740169    MARIVANDO ANTONIO TURRA            CAMPO ALEGRE                                 00001               98947000INTERIOR       PORTO MAU·                    RS00559904816688518                          4146943B792E641352177F842447A791
000015636420422075650339    MARLETE DA LUZ                     CINQUENTENARIO RS 344                        00001               98940000INTERIOR       TUPARENDI                     RS00559912723088515                          0BCC5FF9100D190C783454D6FEDDCAB4
00045158070059ISENTO        ELIO JOSÈ SCHERER                  RUA JO„O ANCHAU                              00358               97940000VILA CATARINA  SALVADOR DAS MISSıES          RS00000000000088819                          B6582CD89C0BE4A1141143D507AE1127
00093016905000ISENTO        ELOIDE MARIA WINTER                RUA JOSÈ GASPARI                             03287               97940000CENTRO         SALVADOR DAS MISSıES          RS00000000000088821                          B8EC61DF6D613A4627ABFCF24DE62768
00002570760005ISENTO        FRANCINE PATZOLD                   VILA CATARINA                                00001               97940000INTERIOR       SALVADOR DAS MISSıES          RS00000000000088825                          C15C176C3ECDB1AAA0CCDAD982B5B701
00071186573015ISENTO        HEDVIGES STEINMETZ LAHM            RUA PADRE OLILAN JAEGER                      00001               97940000VILA CATARINA  SALVADOR DAS MISSıES          RS00000000000088831                          5B8E62A076F86E6E8E4843464C81306D
00053144503053ISENTO        LUCIA BEATA LUNKES HORN            VILA CATARINA                                00001               97940000INTERIOR       SALVADOR DAS MISSıES          RS00000000000088848                          E3B01ADC06BF2BA83986970EA13B8F0E
00000565405071ISENTO        LUCIANE LUNKES LENZ                RUA ZENO MARCOS STRAKE                       00001               97940000VILA CATARINA  SALVADOR DAS MISSıES          RS00000000000088849                          5E70F0BA3372F6E8D188EB5D61F0FABF
00017494400087ISENTO        LUCILA RUWER FRˆHLICH              RUA SENO MARCOS STRACKER                     00001               97940000VILA SANTA CATASALVADOR DAS MISSıES          RS00553358203188534                          918E331514811BC5B1B860741F636EE9
00089492420015ISENTO        MARIA NAIR KAUFMANN                RUA SENO MARIO STRAKE                        00001               97940000VILA CATARINA  SALVADOR DAS MISSıES          RS00000000000088852                          48D3AC29DDEE1381A83B52FDA1EE4FC5
00068320965004ISENTO        NELCI TEREZINHA KONZEN SCHULTZ     VILA CATARINA                                00001               97940000INTERIOR       SALVADOR DAS MISSıES          RS00000000000088895                          5E51C09F232F41636D4F6A5C81B68CC3
00000548823030ISENTO        RAFAEL MATTIAZZI                   VILA CATARINA                                00001               97940000INTERIOR       SALVADOR DAS MISSıES          RS00000000000088864                          86EBBB86D09A7721A114553BB41363F9
00025182846991ISENTO        RICARDO ANSCHAU                    RUA SENO MARCO STRAKE                        00001               97940000VILA CATARINA  SALVADOR DAS MISSıES          RS00000000000088867                          F4100B04D92E869CD82CD5A185B3EFAD
000628439310538036210884    VERA LUCIA REIS KONZEN             VILA SANTA CATARINA                          00001               97940000INTERIOR       SALVADOR DAS MISSıES          RS00553358205388670                          75382EB38CE1ADE2D07E99EA277F5262
000466479370728024807755    ELISA MARIA KUNZ                   VILA SANTA CATARINA                          00001               97940000INTERIOR       SALVADOR DAS MISSıES          RS00559631218388194                          902F246AC491083401608AF51076DEF9
00003007599083ISENTO        ROSANE PRESTES                     VILA CATARINA                                00001               97940000INTERIOR       SALVADOR DAS MISSıES          RS00000000000088871                          2A34E1E438B260060338462949EB3EC1
000372178600918019595911    FRANCISCO GUBERT                   RUA SANTA TERESINHA                          02168               98860000CENTRO         EUGÍNIO DE CASTRO             RS00000000000088256                          C2CF6602468E3DC74B91B5919114BF8D
000772998170042065697183    LINDOMAR JOSÈ  KONZEN              RUA ERMINDO HEINDRICH                        01700               98860000CENTRO         EUGÍNIO DE CASTRO             RS00553335116688574                          7A2FA4E8D05EE3EF9FC84B6AEF3D0E10
000928720930873049890464    MARISTELA ADRIANA DEZORDI SCHNEIDERRINC„O DOS DURKS                             00001               98860000INTERIOR       EUGÍNIO DE CASTRO             RS00559613301388525                          302A0D073CBD182E9FB6E4083F9279ED
000307371170873007907649    ASILDO THIELKE                     VILA DONA OTILA                              00001               97973000INTERIOR       ROQUE GONZALES                RS00553884204388062                          166B4A6E6B11159B6A8FA9F81E4C7C94
000507454500591029864103    NILSON VENZKE                      VILA DONA OTILIA                             00001               97970000INTERIOR       ROQUE GONZALES                RS00559607248388558                          2211124CD6EF8983C19AFECBDDB50BEE
89754311000150ISENTO        PAROQUIA MARTIN LUTERO DE DONA OTILDONA OTILIA                                  00001               97970000INTERIOR       ROQUE GONZALES                RS00553884204688965                          E5A071D034AC7249D61D1C1E132EF03F
87612982000150ISENTO        PREFEITURA MUNICIPAL DE ROQUE GONZARUA PADRE ANCHIETA                           00221               97973000CENTRO         ROQUE GONZALES                RS00553365126291667                          C9CC0232DBE3F18664B7300CAA599C76
000126579800156008876978    ARTEMIO DE QUEIROZ FRANCO          ESQUINA GAUCHA                               00001               98855000INTERIOR       ENTRE-IJUÌS                   RS00559983995789003                          64CECE7C213FEA79A5EB97D2EC053E1D
000551464060491038902852    LUIZ ANTONIO GUBERT                INTERIOR                                     00001               98855000OSORIO         ENTRE-IJUÌS                   RS00000000000088410                          4F8FE60A55EE23FAFD0B6F7C1F56CA9D
00043758738091ISENTO        VERA LUCIA QUEIROZ DA FONSECA      ESQUINA GAUCHA                               00001               98855000CENTRO         ENTRE-IJUÌS                   RS00559613198488708                          0FC81EA021E09ACCDCD6AE59A8D3DF4A
0000323259693276466980      MAURICIO CEZAR DE SOUZA SAQUELLI   RUA SESQUICENTENARIO                         01111               98940000CENTRO         TUPARENDI                     RS00559968109288514                          84344AFD1423C20757032C8CA3679761
000018431570048090228381    PATRICIA SERVO                     RUA HELMUTH F. GERLOFF                       00269               98940000CENTRO         TUPARENDI                     RS00553543124688766                          E67AFEADB97ABBB7EC67DF52DC6E91E2
000011773710067075993101    KARINA MICHELLY DA SILVA JACUBOWSKIRUA LEONEL JAEGER                            00457               98940000CENTRO         TUPARENDI                     RS00000000000088760                          90C7473096FE145983AC359FE9BAC92E
000533605400344011954817    SADI JACUBOWSKI                    AV. TUCUNDUVA                                03492               98940000CENTRO         TUPARENDI                     RS00559178349688765                          CE9C7271529C517604667F3316B9FF22
000454311160537029041246    ARI AFONSO FERRARI                 RUA INDEPENDÍNCIA                            01334               98955000CENTRO         NOVO MACHADO                  RS00559622763488046                          EAD6CF53340CBBD113728E9763424C66
00047252669068ISENTO        CERENI FRANÁOES PERASSOLO          AV. PRATOS                                   00578               98955000CENTRO         NOVO MACHADO                  RS00553544120788892                          BF0293E80DE7BE96FCACD4B4C1DA9765
000018428410411100546959    DAIANE DA SILVA RIBAS              RUA DOS IMIGRANTES                           00159               98850000CENTRO         VITÛRIA DAS MISSıES           RS00558405742288177                          09E1D47A8630CD201A57476384013035
000376399190539008761752    DANIEL MORIN                       RUA IMIGRANTES                               00790               98850000CENTRO         VITÛRIA DAS MISSıES           RS00000000000088391                          446D058FDAD4C2BBBC666055B4C4EA37
000081116260534006568945    DELFIN RUDOLFO STEINHORST          ESTRADA GERAL                                00001RUA PRINCIPAL  98850000INTERIOR       VITÛRIA DAS MISSıES           RS00553614429888180                          68581C4F5EAC0342530390D890F10A56
000888310780208042449242    EBERENICE MACIEL OLIVEIRA          AV. SETE POVOS                               00101               98850000CENTRO         VITÛRIA DAS MISSıES           RS00553614413588231                          5C139747B9C1941317B39A2DB8AA4D6F
000467819430491036102431    ELEMAR NOEBERGER                   RUA DOS IMIGRANTES                           01460               98850000CENTRO         VITÛRIA DAS MISSıES           RS00558429913089024                          7124D523DA202C89B75BDA9A1F69E245
000634648020002054735002    GELSON SEGATTO                     RUA CNCEIÁ„O PAZ MACIEL                      00035               98850000COHAB          VITÛRIA DAS MISSıES           RS00559936549688974                          4CABC898254966982B5C71EA26BE5DAA
000017064450244083440919    LUIZ CLETO POZZEBON                RUA TRES DE OUTUBRO                          00410               98850000CENTRO         VITÛRIA DAS MISSıES           RS00553614413189025                          C93F86E02C879F2825467CD805247E36
000434442290207034194618    LURDES KLEIN                       RUA ERNESTO TOMAZI                           00519               98850000CENTRO         VITÛRIA DAS MISSıES           RS00559614855388421                          8D80629973A665207E7F95E3228508EE
000617846130531042428191    MARIA APARECIDA ANTUNES EBLING     AV. 7 POVOS                                  00001               98850000CENTRO         VITÛRIA DAS MISSıES           RS00559162388988443                          8A64E870A2D1193D7AB9CCF40B27928E
000008376410049034379595    MARZELI DE FATIMA MASSALAI PAULUS  RUA DOS IMIGRANTES                           01593               98850000CENTRO         VITÛRIA DAS MISSıES           RS00553614420088444                          5874D4C5A0EAEF195C4D0BC183DEE313
00975471000115ISENTO        PASTORAL DA CRIANÁA                RUA 3                                        00789               98850000CENTRO         VITÛRIA DAS MISSıES           RS00553614412788735                          FF86855A6E2FE00885E93E76B0C4DA08
000915303420156064358614    SILVIA BUZATTO                     RUA DOS IMIGRANTES                           01167               98850000CENTRO         VITÛRIA DAS MISSıES           RS00553614422788734                          C2D9B507DCD4139A642262C9DA80AF26
000018192010743079651034    DJONATAN WERLE                     BUTIA INFERIOR                               00001               97920000INTERIOR       S„O PEDRO DO BUTI·            RS00553369501988155                          0C42B314DC38F41E21120A84164D991B
00089842634000ISENTO        JOCIELI JUSTEN                     BUTIA INFERIOR                               00001               97920000INTERIOR       S„O PEDRO DO BUTI·            RS00000000000088838                          7D32D3B0C07DA4EA6AEAEBCF2ABC946E
00001940908094ISENTO        PAULO STEFFENS                     VILA BUTIA INFERIOR                          00001               97920000INFERIOR       S„O PEDRO DO BUTI·            RS00558128679188678                          539F6BAD4CF7E0908D99A4CB57151D6C
00091476909091ISENTO        ROSMERI GALLAS                     BUTIA INFERIOR                               00001               97920000INTERIOR       S„O PEDRO DO BUTI·            RS00000000000088873                          07C5A447D212B179377CCE5D3F4CEEE4
000005639400426069442661    VIVIANE BREMM                      BUTIA INFERIOR                               00001               97920000INTERIOR       S„O PEDRO DO BUTI·            RS00559956735289045                          352EE8A7F1A7C1CD5C7E6AC78997256A
000375113000491010774527    JANE REGO FUCKS                    RUA ANTONIO SASSI                            00070               97950000MUCHA          GIRU·                         RS00000000000089017                          BC37C806BDFD001B413B5E02E6F8AF21
000011471060021097418659    OZIEL BORGES CLERECI               RUA JO„O HAMERSKI FILHO                      00681               97950000STA TEREZA     GUARANI DAS MISSıES           RS00559984070989016                          DA8CE057062D573054F8FACBD6048A46
000628364390681052378112    CLÛVIS JOSE STEINMETZ              LINHA LARANJEIRA                             00001               98960000INTERIOR       SANTO CRISTO                  RS00553541141491657                          2638CBA00B1501509BC88EC4AF3E3D82
000007671260504086925403    LEANDRO JUARES NEUBERGER           VILA LARANJEIRA                              00001               98960000INTERIOR       SANTO CRISTO                  RS00553541141488400                          049B9AA3D52AE296DD23F5427D6F92C3
000441694930877031628188    VIDEU MEYER                        LARANJEIRA                                   00001               98960000INTERIOR       SANTO CRISTO                  RS00553541241488626                          771D08901B44BD9DB5F4E24CA8E417D1
00056992475053ISENTO        ADEMAR SCHMITT                     RUA AMANDAU                                  00151               98960000CENTRO         SANTO CRISTO                  RS00559984987688013                          AC3843AA3A7D9BD87C43F20C93C62F0C
000275091170203010559726    CELESTINO SEGER                    ROLADOR ALTO                                 00001               98960000INTERIOR       SANTO CRISTO                  RS00559613940088090                          B00ECDBADDA350C455D43C101510A1CF
000466335450531042319036    MARIO WEBER                        ROLADOR ALTO                                 00001               98960000INTERIOR       SANTO CRISTO                  RS00559603956788469                          906F3C931B885346E158DC44EB3436C3
000628439580912039745613    CALISTO MIGUEL PAULI               RUA ADOLFO KIST                              00132               97970000CENTRO         ROQUE GONZALES                RS00558117698388123                          4140BA44F7BC78AD1C66CFC65170BC33
000022122700899092082099    THIAGO KIST DE LIMA                RUA MARECHAL CASTELO BRANCO                  00021               97970000CENTRO         ROQUE GONZALES                RS00553365137788705                          5170DD9EEDA329F49A33CC69FD0B6C57
000489000100001038797841    MARILENE AVILA RIBAS               AV. DOS JESUITAS                             00305               98865000CENTRO         S„O MIGUEL DAS MISSıES        RS00559622376488505                          D9B8F1153C70328CBF5B9224DFBAE9E2
000948422050912069344774    NEIVO ADEMIR WYZYKONSKI            RUA RODRIGUES DE ALMEIDA                     00141               98940000CENTRO         S„O MIGUEL DAS MISSıES        RS00559953374888572                          6BCA7F7BF9A8FF8573888B29E6B26B63
000025180980383096824325    NIVEA ALINE WYZYKONSKI             RUA 29 DE ABRIL                              00246               98865000CENTRO         S„O MIGUEL DAS MISSıES        RS00558136435388573                          3DE2ADDC4CBF9547FB6C55F43045CD74
000702758230916047862641    VILSON ADELINO SCHUNKE             TRAV. ENG. CARLOS ROBERTO SOARES MACHADO     00343               98865000CENTRO         S„O MIGUEL DAS MISSıES        RS00558141226888912                          2F85328DAF2B15D1925DCCD990CB0062
000884336090689053614682    FABIO AMILTON DE PAULA             RUA URUGUAINA                                00162               98900000SULINA         SANTA ROSA                    RS00558127722889033                          41EDC6F9973F7BED07AE28A3DFC701FF
000411135860875026917079    CAMILO GOTZ                        VILA SIRIO                                   01147               98960000INTERIOR       SANTO CRISTO                  RS00553541501088978                          B18654B09720E47AD47EB668FA1953A2
000671186580492055374546    SOLANGE INES AMES                  RUA MINAS GERAIS                             02311               98960000CENTRO         SANTO CRISTO                  RS00559919287688615                          922FFCDD302F3CF3B6FC825FFF075F4D
000006082250379084467761    LEIA SUZANA MAYA                   RUA DOM PEDRO II                             01558               98960000CENTRO         SANTO CRISTO                  RS00000000000089067                          4A4B4EF33D18EC5571DD09E1611F1523
000688986900105036414786    CARMEN DEWES CORREA                AV. LIBERATO SALZANO                         00129               98970000CENTRO         C‚NDIDO GODÛI                 RS00553548153789080                          0E3086A7486BD98B5565EE7A5B5EAA18
000332288680877036713721    CLARINDA LUCIA HEIZMANN            RUA CAMıES                                   00310               98970000CENTRO         C‚NDIDO GODÛI                 RS00559911357389052                          33AC3E02B7B88CCE26E5822ED9AC9041
00000214239039ISENTO        DARI BIEGER                        LINHA NATAL                                  00001               98970000INTERIOR       C‚NDIDO GODÛI                 RS00559951500389129                          9FD736C9ACF43B920BBA95981D5B93CB
000636053920917055834092    DIRCEU BOUFLEUER                   AV. IPIRANGA                                 00001               98970000INTERIOR       C‚NDIDO GODÛI                 RS00553548105388181                          B1DBC3254065689243966AE817CE5F82
00041094557072ISENTO        ELADIO SEIBT                       LINHA NATAL                                  00001               98970000INTERIOR       C‚NDIDO GODÛI                 RS00559961364688237                          460C98E1C2574032CB93535940C553BD
000924841740046049785741    ELISA MATTE                        RUA ESPERANÁA                                00128               98970000ESPERANÁA      C‚NDIDO GODÛI                 RS00559904063488239                          9EDC448A84E24DFB42A423D8933E4339
000936369700206058440618    ILSE MARIA KREWER                  RUA TIRADENTES                               00129               98970000ESPERANÁA      C‚NDIDO GODÛI                 RS00558123892989012                          A1FD6E1C9B4100170ED0DB58E7AABD13
000273904460723015468659    IRINEU ANTONIO PADILHA             RUA CAMıES                                   00250               98970000CENTRO         C‚NDIDO GODÛI                 RS00559914055089056                          46C6EB70579F721AFDB1FA8628D45D43
000887782580496057068444    JORGE LUIZ STRIEDER                RUA CAMıES                                   00115               98970000CENTRO         C‚NDIDO GODÛI                 RS00559977119789053                          E1A5D3D8AE86AAD46CD2E763C2B6D3A5
000688979790681058439901    NARCISO SPIES                      LINHA NATAL                                  00001               98970000INTERIOR       C‚NDIDO GODÛI                 RS00559614260289079                          5685981D76702C7E37874CF087EA04BF
00013906330044ISENTO        OLIDIO ITALVINO HEICHERLT          RUA LIBERATO SALZANO                         00119               98970000CENTRO         C‚NDIDO GODÛI                 RS00553548134988736                          0CE207AD252A29A4FA47C6F0FA55B46A
000567344920871034050227    VILSON JOSE SPIES                  LINHA NATAL                                  00001               98970000INTERIOR       C‚NDIDO GODÛI                 RS00559613561689057                          C00E0B9B0CCF58483A632F5F0543ECBA
000019828470508068671737    CARLA ANDREIA ULRICH               AV. CELSO ANTONIO HARTMANN                   00472               98960000PHILLIPSEN     SANTO CRISTO                  RS00553541192589137                          48729FFB036273E101AB4098B8388311
00089785215091ISENTO        CLAUDIO FEIDEN                     RUA D. PEDRO II                              02179ESCRITORIO BELA98960000CENTRO         SANTO CRISTO                  RS00559622270388089                          08D96E5D9BB3460BF4BCAAD75AC331B0
000332211030347023919918    DAVI JOSÈ ANGST                    RUA PE. ADOLFO GALLAS                        00292SICREDI        98960000CENTRO         SANTO CRISTO                  RS00559927377788170                          D95A82079AEE8CA2D14F3545A32E048A
00022669825087ISENTO        HELMUTH SEGER                      ROLADOR ALTO                                 00001               98960000INTERIOR       SANTO CRISTO                  RS00000000000088290                          899C8C581D1BD7C7829225A7508128F9
00066632234020ISENTO        INACIO ALOISIO MOMBACH             TRAV. ERMINDO BAMBERG                        00076               98960000VILA KLERING   SANTO CRISTO                  RS00559992408088310                          A5EF932BCB55A8947B41F4E5F9CEF141
00074919008015ISENTO        JAQUELINE MIETH                    RUA MINAS GERAIS                             02490               98960000CENTRO         SANTO CRISTO                  RS00553541259688351                          58CE5B28909626EED89D621A836CFBBB
91831792000100ISENTO        JO„O DELMAR SCHREINER              AV. DOM PEDRO II                             02108               98960000CENTRO         SANTO CRISTO                  RS00000000000088354                          E094B01219B87EF337C4F0345C5ECFD7
00066140501091ISENTO        MARIA HELENA AMES                  RUA MARECHAL DEODORO                         02937               98960000CENTRO         SANTO CRISTO                  RS00553541240188481                          3CB65D79128BA7E1A153502C101B27D2
000447223700875034929744    MARILDA MARIA KRONBAUER KLERING    AV. DR. CELSO HARTMANN                       00341               98960000CENTRO         SANTO CRISTO                  RS00559633588488489                          3F7957D34094717DD962CEBC68B733BD
00001697907970ISENTO        MARLISE GIEHL KLEIN                RUA TENENTE JUNG                             00642               98960000CENTRO         SANTO CRISTO                  RS00559979193888460                          298CF7C895FDC1E2F222A1BE44004A0B
00090303628049ISENTO        MONICA REGINA BOREK SEGER          RUA MARECHAL FLORIANO                        03386               98960000VILA PHILIPPSENSANTO CRISTO                  RS00000000000088856                          C38CC93397E2396145555E67A50D6254
03941524000175ISENTO        PARTIDO PMDB SANTO CRISTO          RUA 25 DE JULHO                              00133               98960000CENTRO         SANTO CRISTO                  RS00000000000089139                          A4D86092D7FA0CF488F68F1E1F13ABA1
00049657844053ISENTO        RAQUEL BANDEIRÛ                    RUA DOM PEDRO II                             01800               98960000CENTRO         SANTO CRISTO                  RS00559957474788590                          917B0C146330B629B23819A4D704C0B4
00059004452087ISENTO        RENE LEO HEINECK                   TRAVESSA RIO DE JANEIRO                      00053               98960000CENTRO         SANTO CRISTO                  RS00559915035188589                          EBD1984AE21D5871F02B5A4B6CCE70C5
00054855306053ISENTO        VALDECIR  ARRUDA DE LIMA           RUA CASTELO BRANCO                           00240               98960000OPERARIA       SANTO CRISTO                  RS00559626796888625                          530CC4DC0C2F891E417CC2A2604EE768
00039126145049ISENTO        AFONSO LUIZ LENZ                   AV. JULHO SCHWENGBER                         00720               97920000CENTRO         S„O PEDRO DO BUTI·            RS00553369116087997                          20AD3E8F09E0D6FEAFEFB185FE6231F0
000016755640195089038607    ANA ELENA PERSCH COLLING           LINHA BONITA NORTE                           00001               97920000INTERIOR       S„O PEDRO DO BUTI·            RS00559116651187998                          C002830285209C8399202F7BB4EED8B4
000227299680912020116204    ARI AFONSO ADAMS                   BOA ESPERANÁA                                00001               97920000INTERIOR       S„O PEDRO DO BUTI·            RS00559977177087994                          D260F6A2AE1CD0FA7D8934E26FDCEB5E
000139068440724025308158    ARLINDO ANDRÈ HEKLER               LINHA TAIP„O FRENTE                          00001               97920000INTERIOR       S„O PEDRO DO BUTI·            RS00558114228987999                          A5067CFF1E2E9FE3BD3A592768F63DFF
00018201784049ISENTO        CARLOS VICENTE JAESCHKE            RUA 1∞ DE MAIO                               00680               97920000CENTRO         S„O PEDRO DO BUTI·            RS00553369109388107                          BD7E0B9D6C9A4E045BDFA97F88084F05
000627135660535050418861    CLASSI ARNOLD                      AV. JULIO SCHWEMGBER                         01534               97920000CENTRO         S„O PEDRO DO BUTI·            RS00559156680488108                          60123BCC0C3EC894607FD33AFDF9295E
00035642793004ISENTO        EDIO JOSE THOMAS                   RUA S„O PEDRO                                00479               97920000CENTRO         S„O PEDRO DO BUTI·            RS00559149746088815                          EAAB3269D7F181FE024934BC154A6269
