88546890000182ISENTO        PREFEITURA MUNICIPAL DE SANTA ROSA RS140087973       2012090521001000000001E51229D92EAC7F5797AA0036F04541E6000000757356000000757356000000000000000000000000000000000000N1209000000001                 AB16D150A19597B36B9CA2E3DAF6D32E
08949975000172ISENTO        VALUPI IND. E COM. DE ALIMENTOS LTDRS140087961       2012090521001000000002E7F3CA5F61A2D2EB4F1DCF5DB701685A000000019340000000019340000000000000000000000000000000000000N1209000000003                 904D69C828B05511DD98C35E3083F6E2
000888178140919055936064    CARMEN SCHAEFER                    RS340087969       2012090521001000000003D1BF0A58B56EAD537CD2F66B261B2834000000004154000000004154000000000000000000000000000000000000N1209000000006                 0D99CA4271F671A3F075252778FB1B52
00095138056034ISENTO        EMERSON FERNANDO BERNARDI          RS340087972       20120905210010000000044F3A5F8C1BE18B6756CAF3FB588015B2000000005356000000005356000000000000000000000000000000000000N1209000000008                 68B9B65AA6288DF270C0BC12E56EFD7B
000780711600596050149101    ELSON JOSÈ SCHMITT                 RS340087963       2012090521001000000005D82483E3564AFBB4D985E6651F41BA00000000003588000000003588000000000000000000000000000000000000N1209000000010                 F8450B37104737E050482199373EA65B
000034166310729010651157    JACOB ORLANDO HENZ                 RS340087968       20120905210010000000069A9ABBE777379BCBC465FC012F74E0EE000000003279000000003279000000000000000000000000000000000000N1209000000012                 C10E652CF1C7078426E8FDC963C8F9E7
000912599910918071387297    SUELI WEBER NEUBERGER              RS340087966       2012090521001000000007B9904FF6DFC747DE980BF259FAB8CDB6000000005457000000005457000000000000000000000000000000000000N1209000000014                 538AB46F14F5707677375B81132C3B3C
000132295830006018678786    JOSÈ ERNI NEUBERGER                RS340087964       2012090521001000000008074E42425D31E2C74B3451B16FA2B564000000006483000000006483000000000000000000000000000000000000N1209000000016                 59D8CCC9FE10D01D50F075393FCF0B2F
000654052770534051755298    VITOR WEBER                        RS340087965       201209052100100000000900FFE735A58EEFBD30D32A044FD2A7EE000000003831000000003831000000000000000000000000000000000000N1209000000018                 1CF7EE09980700A606987C41C9941CB7
000760792360879032695943    ELINA WEBER                        RS340087967       20120905210010000000104940A9C3CCCDC01FECEE2366306B2DDD000000004439000000004439000000000000000000000000000000000000S1209000000020                 6EE45F9F5956E510B2E3364A87BB64FF
92207117000169ISENTO        ANTONIO HAMMERSCHMITT              RS140087958       2012090521001000000011FD334A6C559B9377DFDBF2380C87D960000000013009000000013009000000000000000000000000000000000000N1209000000022                 261DF431C4492D9391C2975BFF50C986
000055680300061026506665    SILFREDO MEINEART                  RS340087970       2012090521001000000012FBB0B2590FF70EE2353694D07D50EED6000000000669000000000669000000000000000000000000000000000000N1209000000023                 3E72510C9BD34E20443771369FB0C5F0
000460413620341032459842    TABAJARA MEINEART                  RS340087960       2012090521001000000013676F2D764F03DA15FA74F8CC7F58A958000000005731000000005731000000000000000000000000000000000000N1209000000024                 CA78083FEC4AAADF065B9B348ED699B0
11756860000176ISENTO        BMD IND. DE PRODUTOS INOXIDAVEIS LTRS140087962       20120905210010000000141541BB139741FDAFEDF2EEF2CC0F6421000000002285000000002285000000000000000000000000000000000000N1209000000026                 BE172C31B56F937A8E7ECBB41AD71636
01945082000100ISENTO        ABATEDOURO GALLAS                  RS140087957       20120905210010000000157E9D1C2BC961DB3837FC8665C1DF1AE1000000004075000000004075000000000000000000000000000000000000N1209000000028                 81AABB07816D31EACCBEEC74E0E618ED
000055680300061026506665    SILFREDO MEINEART                  RS340087971       20120905210010000000169305617FAFA5DB877C7DBE33E330C0A8000000002900000000002900000000000000000000000000000000000000N1209000000030                 E689F8472DF47D821FEAF0DCAA629181
00081244282049ISENTO        GABRIEL WERNER KNAPP               RS340087959       2012090521001000000017C674D19D3E714F1A7DF0DBA245F99FA5000000002900000000002900000000000000000000000000000000000000N1209000000031                 5FB3CBDDA187AF7B023521E3D0AA782D
000884336090689053614682    FABIO AMILTON DE PAULA             RS340087977       2012090621001000000018AF97EADB5C9C46CE8BA468EA0C844619000000004490000000004490000000000000000000000000000000000000N1209000000032                 3B820C3D50C75F6869B397F92061FC96
03843541000170ISENTO        JAIRO ANTONIO ZANATTA              RS140087978       201209062100100000001944BE9D16D2AB50783678F72607DFF48F000000004634000000004634000000000000000000000000000000000000N1209000000033                 2045DEC155FF826C0762D3B8397BB377
000642602910684043732884    VILMAR JOSÈ MICHEN                 RS340087979       20120910210010000000204F44C40E668BCE164A32E96D994CBBC8000000003900000000003900000000000000000000000000000000000000N1209000000034                 3D36740A7D5586E2FDD0F0C9EFC9FA82
000488198240005039142426    MARIO JOSÈ ULLMANN                 RS340087976       201209112100100000002100A9FC4457A83FC76D19125BE2AE4074000000004490000000004490000000000000000000000000000000000000N1209000000035                 51AA96955C12BEE7A68289DF28EC0B91
00065667484072ISENTO        AIRTON COLARES                     RS340088397       20120915210010000000228550C02293F2192471579444E4152EEC000000010480000000010480000000000000000000000000000000000000N1209000000036                 B56DB816F86547662E1622D6BC7FC266
00018980449020ISENTO        ELOÌ F¸HR                          RS340088198       2012091521001000000023F4A419597A4D7D905991534DE62CA3E8000000008980000000008980000000000000000000000000000000000000N1209000000038                 D97E747DF3F114D78CB9CC751DBEF6AB
00005555140053ISENTO        GUIDO LAURENTINO STEIN             RS340088830       201209152100100000002429EE4D29DDB4463A9FD62AFED26D0162000000004490000000004490000000000000000000000000000000000000N1209000000040                 7261174E9D683A34246AE0264C979B75
90088204000119ISENTO        LOTÈRICA SANTO CRISTO LTDA         RS140088401       2012091521001000000025D4A05AA0DD648922FAD5B3BAF369231A000000004490000000004490000000000000000000000000000000000000N1209000000041                 1E95EFDC52E8D71F3C3A0049E3A2B040
00068839910000ISENTO        NELCI TERESINHA SCHEFFER KAFCZINSKIRS340088804       2012091521001000000026AA1322A7E16D896DF71946373D4470D3000000004490000000004490000000000000000000000000000000000000N1209000000042                 88D92CF256D40D211C818F366804370A
00058533818068ISENTO        PAULO CESAR MADERS                 RS340088607       2012091521001000000027D535FB57C021FEF4CBAAF2F4474F90F4000000004490000000004490000000000000000000000000000000000000N1209000000043                 321FDA569ED2361CF01212F2910FF565
00090678656053ISENTO        VANDERLEIA FROHLICH                RS340088886       2012091521001000000028206CF3592805435EF62F5C146C601A5A000000004490000000004490000000000000000000000000000000000000N1209000000044                 6D4CDEE924A1924206266C5F533B6AD1
00057584460097ISENTO        NELSON FRANCESCHINI                RS340088560       20120915210010000000293E9C78AEEA7CFE3AA2D1ED1FEE7DF85A000000004490000000004490000000000000000000000000000000000000N1209000000045                 86446C1D406836F2720B01D2A34CEB02
00061245887068ISENTO        BENTO JOSÈ PUHL                    RS340088080       2012091521001000000030215C9EEF73B1894EA5A2FFEF6AB8E6F7000000008980000000008980000000000000000000000000000000000000N1209000000046                 B108DC04ACB2F44225F26F47D2C87AB0
00052958736091ISENTO        CELINO JOSÈ BOTH                   RS340088095       2012091521001000000031FE13086A04A3D34C76AB15CAFD0231DA000000004490000000004490000000000000000000000000000000000000N1209000000048                 ADA3A79AA9E8DC0FD6F3E31932BC2231
000275119870879026517442    DARI ROQUE MALDANER                RS340088171       2012091521001000000032EFFAF9DDBB6770AA09044F06F1279B49000000004490000000004490000000000000000000000000000000000000N1209000000049                 64C3329132AA2D4F9D4CC57B584B4757
00001420349082ISENTO        DULCE RAMBO                        RS340088163       20120915210010000000338738F5E5528E0D4AD2CA9C6F2C938A48000000002245000000002245000000000000000000000000000000000000N1209000000050                 69AEFAF91AB1DBCEE3E8A9F80D2C6C6A
000006140260598079563501    ELIANE JACINTA BECKER              RS340088199       2012091521001000000034884484753F7F96D459188EC8FD774567000000004490000000004490000000000000000000000000000000000000N1209000000051                 7337CD7398DCF8F54223A2F28EAB0AF8
053508050001891160017120    JR MOLDURAÁıES                     RS140088365       2012091521001000000035BEF6E81A59AEA632C8B719A67F2238C8000000004490000000004490000000000000000000000000000000000000N1209000000052                 2A361E8FBB7FD0A7309290B502E2E4C5
00047776765015ISENTO        PAULO SCHONS                       RS340088606       20120915210010000000361DB6E2E2084CA95AC026AE205D695C8B000000004490000000004490000000000000000000000000000000000000N1209000000053                 FA1AEA81A12395B93A1ECE11A04E1CEB
00016981774020ISENTO        WANICE DROGEMOLLER                 RS340088889       20120915210010000000374C97B0452F0C7C19A94D661B4E674F83000000004490000000004490000000000000000000000000000000000000N1209000000054                 B317C83A10B8966862E6B4201D1C4093
00001701733056ISENTO        EDUARDO THIELE                     RS340088201       2012091521001000000038A73845F1DC74E87E53F511D3BB5169E5000000004490000000004490000000000000000000000000000000000000N1209000000055                 913EC81251E5076A2882BF77541E346B
00082049467087ISENTO        GLADIS MARIA GASS                  RS340088276       20120915210010000000399C530F3DEEDCC38B3C8076AE22ACC743000000004490000000004490000000000000000000000000000000000000N1209000000056                 C0271276EECFA37E6ED3C98E6A842B00
000015846380363092770878    JEAN CARLOS DOS SANTOS MIRANDA     RS340088363       2012091521001000000040954FDFCAA4C09C0C77D69D2E141293E0000000004490000000004490000000000000000000000000000000000000N1209000000057                 5C652101AE7BD0C3ACAD0D06432A4807
00090621131091ISENTO        MARCIO FABIANO JEHLE               RS340088487       20120915210010000000416DD15096873E46529D1E1F11662076E9000000004490000000004490000000000000000000000000000000000000N1209000000058                 75C2F6F8BE3FC69191061CF0A7568DCD
00046032754049ISENTO        MARIA MELITA SCHMITT MUNCHEN       RS340088484       2012091521001000000042DD37A1AD5C59CC8EE6D2C78D4CE4B8C4000000004490000000004490000000000000000000000000000000000000N1209000000059                 F695C805E8EA0E429C5693B3F45CE8A1
000829489680208074529011    MARLA DIONE SCHOTT                 RS340088476       20120915210010000000432C9D3AF66D31CB3FE7C6F417C09E65F8000000004490000000004490000000000000000000000000000000000000N1209000000060                 E0A31ADAF6243F495AD86437FF4CF899
00017843650091ISENTO        MARLENE KNORTS                     RS340088491       201209152100100000004453866D48C3E71C299B0E480A6FC68C67000000004490000000004490000000000000000000000000000000000000N1209000000061                 53A482FCDC2C0D1E902EEB884C108A47
00054837537987ISENTO        PAULO HENRIQUE RIBEIRO BRANCO      RS340088584       201209152100100000004543AE113C03348C1F782F4DDFF3692220000000004490000000004490000000000000000000000000000000000000N1209000000062                 12422CA856D0CE402FC6496728592729
00064782140010ISENTO        SUELI MARIA SCHAEFFER              RS340088614       201209152100100000004634CC330E9E0C7073BC49335B69B3C080000000004490000000004490000000000000000000000000000000000000N1209000000063                 1E7D7C6261AAE1EAD91D8B987966DA65
000011495070983073693305    ANDRÈ NYSTRON NEUBERGER            RS340088008       2012091521001000000047717AAB6EB192DA1A53F9101912467B8C000000004490000000004490000000000000000000000000000000000000N1209000000064                 88B6FE54C57A977ACF0C1D5502EE1D55
000715430400631054347305    CATARINA ELVIRA NICODEN            RS340088096       2012091521001000000048E1F5836C8E7E9B0ADC7556F1EA7A0401000000004490000000004490000000000000000000000000000000000000N1209000000065                 A070FD6A4A2EE2B55D594DBA0B530A6F
00063829266049ISENTO        ELTON AIRTON GIEHL                 RS340088209       20120915210010000000494D13FE1E1623004A52AAFDFE9768EDE8000000004490000000004490000000000000000000000000000000000000N1209000000066                 6392AF0066EFAA5AB4C39605D4E15604
00062837087068ISENTO        GILNEI RODRIGO SCHAEFER            RS340088829       2012091521001000000050528098E08B379927E5A6DCE7DE8757D6000000004490000000004490000000000000000000000000000000000000N1209000000067                 6BB28B85787E6D4C254AAB7E7427A998
000543936390494042693971    NERI GIEHL                         RS340088561       2012091521001000000051E4B9004DEAD01434C8B84EC20A6ADFA7000000004490000000004490000000000000000000000000000000000000N1209000000068                 B1DBE0DAA043A09D36BC64E137518F7B
000357089300635055378532    SOLANGE MARIA ENGEL ANGST          RS340088617       201209152100100000005219E4975232AD388FB6AF9302E2B7846A000000004490000000004490000000000000000000000000000000000000N1209000000069                 606AA9619403ACEA5630499446F15AE4
000943201950007064715886    MARCIO ANTONIO LAUXEN              RS340088475       2012091521001000000053778278BBB83C0E81A1A5E6A6AE25AC83000000004490000000004490000000000000000000000000000000000000N1209000000070                 962B1D2E62C1B954810547CD61FAB72B
000411101610342026540332    MARIA HELENA KLEIN                 RS340088470       2012091521001000000054310AB75C8DE63C44C26811A5ACA7A152000000004490000000004490000000000000000000000000000000000000N1209000000071                 FBA1DD9C11772815ABB01BFC7E42F681
00088540510049ISENTO        MARISA SOLANGE KLERING             RS340088463       20120915210010000000559B8051AC10341CFCC323BE271EC7E48C000000004490000000004490000000000000000000000000000000000000N1209000000072                 062942CC69DFACF2DA41FF968808D5FD
00066631238072ISENTO        MERI TEREZINHA BEUREN              RS340088462       20120915210010000000560E604581FA4658A205501D5FE1D6B300000000004490000000004490000000000000000000000000000000000000N1209000000073                 2324FE726EE2B761046EB66A1EF9E4FD
00013083694091ISENTO        RICARDO PHILIPSEN                  RS340088869       20120915210010000000572BBDFDC1609368EFB10BF3387B13653E000000004490000000004490000000000000000000000000000000000000N1209000000074                 03777C176D7EF9671E06FDEC1438EB16
00048926647072ISENTO        RODRIGO S. DILLMANN                RS340088583       201209152100100000005850B30A7DA3D25B2A3921EEAFB42D7075000000004490000000004490000000000000000000000000000000000000N1209000000075                 9D4EC7DBC4B0B2F699EE3E2CEC58885E
000693836000634048774535    JANETE MARIA KARLING BUTTEMBENDER  RS340088364       2012091521001000000059A22EBFBA4382A23CB453E09B2F44B78E000000004490000000004490000000000000000000000000000000000000N1209000000076                 711EEEE4E9A183921C3F2274F7D96600
000275077000977008844677    JOSÈ CARLOS KOCH                   RS340088924       2012091521001000000060CDACE02E2AF97EEC8585952EC339F57B000000004490000000004490000000000000000000000000000000000000N1209000000077                 CF9030207F8B6D42B337150F569D1D9F
000485588770681036407631    MARCELO INACIO RADEMANN            RS340088657       20120915210010000000615A8944BD611D4B9E27ACB485EA8F622A000000004490000000004490000000000000000000000000000000000000N1209000000078                 21382BDB2B34B042C6A6EFDE2623AA7F
00001968926003ISENTO        MARLUCI AMES                       RS340088482       2012091521001000000062C0EB42084B2FCBDC066BDA5A40F32803000000004490000000004490000000000000000000000000000000000000N1209000000079                 4AED24667F30A56DD6B11030097AC160
000012945530034073692867    VOLMIR JOSÈ PEREIRA                RS340088656       2012091521001000000063AA544636A3CDD22E896E065327A630FA000000004490000000004490000000000000000000000000000000000000N1209000000080                 D9313834B05A135A35D3419CE3FF9035
00035701773000ISENTO        ADEUM A. WEBER                     RS340088010       20120915210010000000647D91C63E58FC7C7773B3C73CB4D639AF000000004490000000004490000000000000000000000000000000000000N1209000000081                 5B9ABEA6C7DFA1A4348A67151F669381
00091863074015ISENTO        AIRTON TRAESEL                     RS340088797       20120915210010000000657ACCBA2AE1BB7F20C4B59EEE59693AE7000000004490000000004490000000000000000000000000000000000000N1209000000082                 97ACBD8EF4A3A6EDCEAB823DCC8C2A5E
00000964701006ISENTO        CATIA HAMMERSCHMITT                RS340088480       2012091521001000000066F006870E168FE9F6656B0C99A6F0E448000000004490000000004490000000000000000000000000000000000000N1209000000083                 6FBFEDA15A70E5D06118CFD1C000B02D
00047296780010ISENTO        IRINEU KNORST                      RS340088836       2012091521001000000067EE6A66A9553EE39F9F73E7ACCD2E1541000000004490000000004490000000000000000000000000000000000000N1209000000084                 88659ABDA98FC3CA2A96C434E35A97E6
000688404540043056057007    WANDERLEI JUNGES                   RS340088629       20120915210010000000684907E3EC1A5AD1CB43D1965D9490328F000000004490000000004490000000000000000000000000000000000000N1209000000085                 E9FBC8D0DC57002BD0DB8C40338BF1CC
07467460000173ISENTO        WERNER AUTO PEÁAS                  RS140088628       2012091521001000000069BDDF9A376F45156161E831D3D1D060BB000000004490000000004490000000000000000000000000000000000000N1209000000086                 C25166C7BA631381AB6C741BFCF7EF24
03790832000147ISENTO        DELMAR LUIZ SCHNEIDER              RS140088811       20120915210010000000702F12EAFDA3DC27E8C8CCD8E731166151000000004490000000004490000000000000000000000000000000000000N1209000000087                 62EE3779026E3C1B10699D0FAFBC2F96
082179310001581160018925    FARMACIA CONFIANÁA                 RS140088255       2012091521001000000071A0A43B297A7AE7A2852A310CDBB5C377000000004490000000004490000000000000000000000000000000000000N1209000000088                 B96E4D0EF3D4CC63D00EBD39ABFFBBF5
000502966200681042320381    OPTICA RELOJOARIA ASSOCIADA        RS340088605       20120915210010000000720D5DCAC971116E899AFEE886E8FDA545000000004490000000004490000000000000000000000000000000000000N1209000000089                 1D0CFB8E7A205F4E48C1CEE65545EAFF
00001211207080ISENTO        ALINE FRANSCIELE ANGST             RS340088012       2012091521001000000073213239C6C505C0EA89E1707E356B6C86000000004490000000004490000000000000000000000000000000000000N1209000000090                 D19378A0A73B8F877F27A09E47331812
05620718000102ISENTO        IRMAıS BUTZEN LTDA                 RS140088837       2012091521001000000074534C683D92F6D326FBFA21CE9C520D3B000000004490000000004490000000000000000000000000000000000000N1209000000091                 A56F95964CDF8D7E096857508A4431FB
000958100210341063597726    CARMEN KNORST                      RS340088097       2012091521001000000075AAEF080BC935B8908CA61ECBCD447D50000000004490000000004490000000000000000000000000000000000000N1209000000092                 F8A08393EBAFED98D47E32ACDFDAB926
000347491440531012705909    DELMIR SCHAEFER                    RS340088172       2012091521001000000076B0CFB9264AEA80B61F7A1D5FCFFDFA54000000004490000000004490000000000000000000000000000000000000N1209000000093                 5A57E29E8E29C08BBC51B8EC7E0A1088
000769782060911042692614    DIRCE MARIA SCHREINER              RS340088168       2012091521001000000077CA364587FA77CBC7FAB0A89AE51AA50F000000008390000000008390000000000000000000000000000000000000N1209000000094                 9A4D0BCCD0F580C61D70E527F63352E1
000838656750341078261912    GABRIEL JOSE HAAB                  RS340088274       20120915210010000000783DCFC5BD9E9E3CDA2F05A5B91CDDFBA1000000004490000000004490000000000000000000000000000000000000N1209000000096                 791DC736DBE0518161808B4CD4EEFC0D
000308912210341010651071    JACINTA RUEDELL                    RS340088581       2012091521001000000079BC472AA6F35D8953227A1BD4249451C6000000004490000000004490000000000000000000000000000000000000N1209000000097                 14A7E860A5AE2FCE01265DAF2F18620B
000529589490873035958275    JOSÈ HOLZBACH                      RS340088925       2012091521001000000080C8159B5BA66F724DA6D5D67B5BCE8F04000000004490000000004490000000000000000000000000000000000000N1209000000098                 D26A5F41392D71783BA2BDFB9A7690FF
00033225389072ISENTO        JOSÈ SCHOFFEN                      RS340088357       201209152100100000008119D9B083BFF21ECE852B3849265AE477000000004490000000004490000000000000000000000000000000000000N1209000000099                 E6F448CAAF4B2E407DA7607CB7658732
00046034714087ISENTO        LAURO ADOLFO THIELE                RS340088843       201209152100100000008275EE6D7A85FB997C6607D3E3E1A53285000000004490000000004490000000000000000000000000000000000000N1209000000100                 0C454E96F7AB2DB62C2D54D6F32F27E6
00059614536004ISENTO        LURDES MARIA STEFFEN               RS340088399       2012091521001000000083CB278F7BE4D4205FFB280C1B63D19AB1000000004490000000004490000000000000000000000000000000000000N1209000000101                 87B305FA2198F8D334704BA5360D509E
0009337318008202938025103   MARISA TERESINHA ERTEL HEINEN      RS340088488       20120915210010000000846185F238C86FC089BFE30363B49B7845000000004490000000004490000000000000000000000000000000000000N1209000000102                 E02AC91B52C1512565C1AB710FD3BBA1
00037203010015ISENTO        NERI FERREIRA ROQUE                RS340088011       201209152100100000008513F7E76006F4341FC3C5CF98325176E7000000004490000000004490000000000000000000000000000000000000N1209000000103                 44C01021976EAA8D933F2F8D4C05DA22
00099780623000ISENTO        SANDRA BRAND                       RS340088479       201209152100100000008628725F5ACAA29B6C3476411F30A2545F000000004490000000004490000000000000000000000000000000000000N1209000000104                 D8F47158496C1480E7BFA72CC2EE26DE
000377537620871026508067    BERNADETE MARIA KREUTZ SCHNEIDER   RS340088016       2012091521001000000087CDD7B94EFE0ABFF9721D9601C19CBAEC000000004490000000004490000000000000000000000000000000000000N1209000000105                 03E5E2A4C952734A32A9F3D13C3A9F1A
00041108736068ISENTO        GERSON VICENTE F¸HR                RS340088272       20120915210010000000889837220DE0DB9A95AFCC0868F06C8F72000000004490000000004490000000000000000000000000000000000000N1209000000106                 63010A3FE17C7A80CFA81BEE308B6CAD
0005610237203410462794991   JUÁARA FREITAS LEITES HENSING      RS340088356       20120915210010000000893A9DF0D3E050C9DAA0EAC11F040AE758000000004490000000004490000000000000000000000000000000000000N1209000000107                 0FAA202D4EBD62EA7FA47F9B1976DFF5
00092665012049ISENTO        MARCO ANTONIO LENZ                 RS340088483       2012091521001000000090C2406BBCA7E238EB1121A3A2ECAAFC84000000004490000000004490000000000000000000000000000000000000N1209000000108                 32DE9BABA2F3AE9B27618A57FEF1E7B1
00048338079049ISENTO        MILTON LUIS SH‰FER                 RS340088471       201209152100100000009150438936255657301C53B1920CBCA329000000004490000000004490000000000000000000000000000000000000N1209000000109                 9C53A3E7AE664C4AA1588BD298AE29A6
00025321676020ISENTO        GRANJA REICHERT                    RS340088273       2012091521001000000092EC348B711181860EAB2B41911436BE58000000004490000000004490000000000000000000000000000000000000N1209000000110                 D62ED8960B5D75F10AFAB5CD70063296
00068566751000ISENTO        REGIS LUIS REICHERT                RS340088866       201209152100100000009362AB8381F6C13DCBA53DF0B3811A9B2D000000004490000000004490000000000000000000000000000000000000N1209000000111                 13C4871CD84FC4813152004FD6556B28
000618954310349044724772    ALMIRO BULLERT                     RS340088524       20120915210010000000940B84E2C6FC59905445D35518E1D3978C000000004490000000004490000000000000000000000000000000000000N1209000000112                 34830C6923F7A38D8BA68B3652394003
00055165850072ISENTO        CLAUDETE TERESINHA MULLER MASCHIO  RS340088127       2012091521001000000095B71B0DDE47A95A5C9DE354F4F65DEC86000000004490000000004490000000000000000000000000000000000000N1209000000113                 ED93B67CF55C1082F5C4827C6EDFEFE5
000674756630006054046336    EVANDRO KUTTI TEUSCHEL             RS340088232       2012091521001000000096EE1937729FBF5F8D0E3BAED00F0772A4000000004490000000004490000000000000000000000000000000000000N1209000000114                 01EFDCA3126A539C023FD329F8DD969A
00000058387030ISENTO        FERNANDO LUÌS DIEL                 RS340088253       2012091521001000000097631E49C3E4FA75320623AFC00104A588000000008980000000008980000000000000000000000000000000000000N1209000000115                 EC963E9826FC376C43CCD7F24573DE3E
000332091620349014247069    IRIA MARIA LUNKES                  RS340088317       2012091521001000000098061652F897495EDCB60EFC7324AD2ADF000000004490000000004490000000000000000000000000000000000000N1209000000117                 87452C024A19311930AFCA3C4FE22A42
000027906920097061941031    DARLEI ALCIDES WERLANG             RS340089014       2012091521001000000099588A302A72724EC624EA8FD1426CCB46000000004490000000004490000000000000000000000000000000000000N1209000000118                 B019AAA804EA8351AB6922F24C9FE9D1
00058879277049ISENTO        ELENIR MARIA ENGEL                 RS340088818       2012091521001000000100011B5966A045E0722AC2C7698463BCCD000000004490000000004490000000000000000000000000000000000000N1209000000119                 ED6F29CAF0770E31AA4DC59C92CFF545
00033131309091ISENTO        ERNANI PAULO STREDA                RS340088206       20120915210010000001010052D6FEF638D935B72C83C0C754C752000000004490000000004490000000000000000000000000000000000000N1209000000120                 E92E64C422A7897F2E36B3DAB6B0A9BA
000287278940536011511745    IRINEU LOFF                        RS340089020       20120915210010000001025B54E205EB9F3C886EE3EA9836C1C407000000004490000000004490000000000000000000000000000000000000N1209000000121                 7A86D60155988355E898E024218630C5
00093345674068ISENTO        MAURO ¡NDRE WEBER                  RS340088473       20120915210010000001036A36F9B097FC1D07E3D9DFD37BFFF929000000004490000000004490000000000000000000000000000000000000N1209000000122                 2B0E86953BB50027E6B2E279D6B674C3
00062836960078ISENTO        MARCOS EDUARDO FROELICH            RS340088467       2012091521001000000104915D3C1D751FE0547B71498C6286AD9A000000004490000000004490000000000000000000000000000000000000N1209000000123                 E60CA29ED162C5D063585F1E8CE57E9A
000955341640341058501683    JACKSON EVANDRO THIELE             RS340089021       20120915210010000001050BE25E67C2FFB2B2E57337BDB68872B6000000004490000000004490000000000000000000000000000000000000N1209000000124                 A58B2EDBD5E2D7EE89BD6ABB070D2DD7
0000051528312611763370      LIDIANE BIANCA BUTNER              RS340088383       2012091521001000000106A33176C3490F6FCF9929C369C52EBC11000000004490000000004490000000000000000000000000000000000000N1209000000125                 5F0BBD8B71B6071BF05FB4AD025CB251
000653333900105051622412    RUBESMAR ANTONIO GOEBEL            RS340088756       2012091521001000000107EE94EDBB4B4748397D5F768D72A18D02000000004490000000004490000000000000000000000000000000000000N1209000000126                 DCB7D088296F568955A97DE49A451B6A
000004637680194039649373    GABRIEL ROGERIO GOLING             RS340088336       2012091521001000000108CF7281C03A9D8D47F2949CE4A4E14C63000000004490000000004490000000000000000000000000000000000000N1209000000127                 3709F84D2DDE7FB115F6EE876F6466A5
000645053750727030916841    ALDINO HASPER                      RS340088968       20120915210010000001094A096AB38886AB22AED0186BBF8F1897000000004490000000004490000000000000000000000000000000000000N1209000000128                 442E4FFAD2F07589D3B3427A71D6C9E6
000332071940875012455779    AMELIA WISNIEWSKI VOGEL            RS340088976       2012091521001000000110C3EB5EBD4B1A33F84BD285FBA3534D32000000004490000000004490000000000000000000000000000000000000N1209000000129                 11DC008746CB1CCFFB0EAD16B559EAFB
00002228047007ISENTO        ANDERSON MATIAS KONZEN             RS340088019       20120915210010000001118C032F22D1C1FAEFFA59F9B697D8FEA7000000004490000000004490000000000000000000000000000000000000N1209000000130                 28221BEFDEAE908CAAD00A5CD2DD1FE6
00000881140074ISENTO        ARIETE VANESSA DIERINGS            RS340088007       2012091521001000000112DA7A65E018AD7F3EF1761EAD5502CC30000000004490000000004490000000000000000000000000000000000000N1209000000131                 4BCB3768E73D71B65A96BF25597C1289
00000569743028ISENTO        DEISE MARIA SCHALLEMBERGER         RS340088165       20120915210010000001134B45F19CB152DA322629F59296B334FD000000004490000000004490000000000000000000000000000000000000N1209000000132                 196038D3DE8B6F612ACA4C5651C6A354
000019375170471088223407    FERNANDO JOEL MEINERTZ             RS340088987       201209152100100000011497898A3A88D25EBFED50EE49C38DB628000000004490000000004490000000000000000000000000000000000000N1209000000133                 202DCF1C577926494018C289F1EC6E6C
00093338112068ISENTO        GILBERTO WEBER                     RS340088271       20120915210010000001151E1B5C0E1609BE880EA9057B65598D46000000004490000000004490000000000000000000000000000000000000N1209000000134                 5E36C01FAD81DC6CB642AE13D61E40C1
00033215600030ISENTO        JOSÈ BIRCK                         RS340088359       2012091521001000000116B5BB1C9846DC15512AF59768973DF901000000004490000000004490000000000000000000000000000000000000N1209000000135                 4DB3E1A07A425D424E293896B66E9881
000309041290042013473067    JOSÈ OLMIRO PHILIPPSEN             RS340088478       2012091521001000000117FA42C5CB9F8F3E73EA998FC2EDB42A09000000004490000000004490000000000000000000000000000000000000N1209000000136                 40DDE1996B7C28BB7132B64217490FCA
000255552940341018545441    LEO LUDWIG                         RS340088977       201209152100100000011809C5C307132681E689E7CD0679DC2AD6000000004490000000004490000000000000000000000000000000000000N1209000000137                 C8B2B178AE2840A22CB6ECE4E4579341
00044180489015ISENTO        LEOPOLDO ANDREJEWSKI               RS340088395       201209152100100000011926722274F1627639FD560AF8175D2F85000000004490000000004490000000000000000000000000000000000000N1209000000138                 D0128F6C9C36A5834083CE9CE5DCCBAD
000022184640983092763899    MARCO MIGUEL STEFFENS              RS340088485       2012091521001000000120BAC4033CCD1DE5DED5DCC27367D2C377000000004490000000004490000000000000000000000000000000000000N1209000000139                 A1E21327C372BB2172519AA5CB70CDD3
00082898820091ISENTO        RODRIGO HUBER                      RS340088608       201209152100100000012116C6D46E505E9373F40D6DF05530DFE5000000004490000000004490000000000000000000000000000000000000N1209000000140                 129F5345C4D988F595A8C95E48226136
00035711752049ISENTO        SINÈSIO JORGE KIST                 RS340088594       2012091521001000000122ED9467B8AB888EC038BCAE90680750BA000000004490000000004490000000000000000000000000000000000000N1209000000141                 CDA51C5026CAF6BAF505673B5D151BB3
000055719870493005179993    AFFONSO SEIBERT                    RS340088031       20120915210010000001232774A5256852E1FFA0C37C354E869CF0000000004490000000004490000000000000000000000000000000000000N1209000000142                 C87496AD2321019C92CF8FEFED2762CF
000585710190538051252784    AIRTON EDGAR PHILIPPSEN            RS340088030       2012091521001000000124906ECE51AF3B3F29AC1BB947F14E72A3000000004490000000004490000000000000000000000000000000000000N1209000000143                 AD13C4AB26A935A9C5FD5007BFFC9446
000384892010721023165747    CLAIR KREUTZ COLETTO               RS340088138       2012091521001000000125B6D35716F8A77671CF36B97F0CD231B0000000004490000000004490000000000000000000000000000000000000N1209000000144                 D14CF3B24E22AD31696750BC3C467A94
000703745380342029091036    DERCI TERESINHA SIMON              RS340088175       2012091521001000000126DC98FBB346A105578D81F1FBFB74A638000000004490000000004490000000000000000000000000000000000000N1209000000145                 3F8AF2DB9082971554E827E92A7A2FAF
000372061920681019348547    DIRCEU INACIO KOHLER               RS340088176       201209152100100000012771AA7C5B7AA8F6966FB2EA5BB0C42558000000004490000000004490000000000000000000000000000000000000N1209000000146                 A2E74F4ABF326D92B384679A181D1C30
000562767100911042321537    EDSON RUBEM DUARTE SANTIAGO        RS340088227       201209152100100000012876EA9613ED34F12957BC1D1AF2D45D08000000004490000000004490000000000000000000000000000000000000N1209000000147                 C806F264CEA1BF0C7B291E3705553427
000522239140043039748551    ELTON LUIS CAGLIARI                RS340088228       201209152100100000012970505D2D250D5DE64595F5448118A0D7000000004490000000004490000000000000000000000000000000000000N1209000000148                 698330FFCE5F81B52521BDD5CA324B24
000014000550163086088857    FABIO JUNIOR MULLER                RS340088913       20120915210010000001304B852ABEA27B6EAD5AC02D3BFC4B5D96000000004490000000004490000000000000000000000000000000000000N1209000000149                 94A0068035BEBCBD2B11A9379038EFA4
00024922870091ISENTO        GILMAR JORGE KUHN                  RS340088267       2012091521001000000131EA10C1395750146EEB1E04312510746D000000004490000000004490000000000000000000000000000000000000N1209000000150                 A5742FEC43918CDBB32BFA6EAA635B68
0006474483300460512531633   GIRNEI LUIS DIERNGS                RS340088268       20120915210010000001328CE5A397D7D12C16F1D32AB44EA678EE000000004490000000004490000000000000000000000000000000000000N1209000000151                 A0ECD161A328DB17DDC55EECEA5277E3
000900086000826058507341    IVANETE SCHALEMBERGER SCHIRMANN    RS340088303       20120915210010000001335DF1DDE5B5F750859FCDF19A3AA7843F000000004490000000004490000000000000000000000000000000000000N1209000000152                 0D6E3CC68265B20040CCAEF33535BED9
000329712300151008582841    JO„O LUIZ DIAS                     RS340088916       201209152100100000013494954CB691F39016F3089B4243DBAA0D000000004490000000004490000000000000000000000000000000000000N1209000000153                 46D870E7553D8786899A17EF41779B21
082468540001641630007819    LOJA ECOLAR                        RS140088416       20120915210010000001358D7A7A3969BF5267530FA473800DB547000000004490000000004490000000000000000000000000000000000000N1209000000154                 9DDAC25BE17FA001F0A91375367D91C4
000585718170491038428213    MARISTELA KOWALSKI                 RS340088445       201209152100100000013613011A2D3DCDD79237FEC7BFDE5CF14F000000004490000000004490000000000000000000000000000000000000N1209000000155                 BA493245B3C233421993C46C2F38E5C3
000408782520531026823813    MARLI LUDWIG                       RS340088448       201209152100100000013730DA8B8A5B2AC6D77E8E97160DAD4D62000000004490000000004490000000000000000000000000000000000000N1209000000156                 28E41F468AD55C374A6E90B12A2EA338
000978908120001068686201    MICHELLE DE OLIVEIRA COLOSSI       RS340088446       2012091521001000000138CE1D9910C47D439F43B2B61128C34CB8000000004490000000004490000000000000000000000000000000000000N1209000000157                 40D762918C30BE90D4536013A9E12A23
000532594670683044573446    MILTON LUIZ HAHN                   RS340088447       20120915210010000001390E1E7B2CBBE74FC10D46091D23CB47DC000000004490000000004490000000000000000000000000000000000000N1209000000158                 B0604CB110F8B78DB9780AC0FD672CF7
00044165340006ISENTO        MOISES N. DOS SANTOS               RS340088855       2012091521001000000140DD34BA88EBCE4929DF8B870DA130FC56000000004490000000004490000000000000000000000000000000000000N1209000000159                 B0D87EDD0A206CB24C2F57D90EB98565
000489266390531028926564    PLAUTO ANTONIO FEYH                RS340088721       2012091521001000000141A1BB56DF197277B528197F8275DBD3DC000000004490000000004490000000000000000000000000000000000000N1209000000160                 414C5F0E1151E0C62063B89DE096FAD6
00001840808004ISENTO        RODRIGO RAFAEL KREUTZ              RS340088723       20120915210010000001426B65546C08A1ADA62BDCD3940A4BE495000000004490000000004490000000000000000000000000000000000000N1209000000161                 8BE3A88D46BC29DD7D6C3B6858E0EB21
000189853000911017735199    EGON TADEU RAUBER REICHERT         RS340088219       20120915210010000001432E770E2D0CEA5D2BB336EC805D95961C000000004490000000004490000000000000000000000000000000000000N1209000000162                 E645EBCE6E61139B1488D01D24D7EB03
0000110874005702999833714   ISMAEL FRANKE                      RS340088313       201209152100100000014498A00FB728E2FEE6D71FD774F074A638000000004490000000004490000000000000000000000000000000000000N1209000000163                 F547E7AC9E8ABA194A27724D6A05BFAD
00034330879034ISENTO        JOSÈ BREMM                         RS340088407       20120915210010000001458383F2FAD5045E784F5B7918306FE1BC000000004490000000004490000000000000000000000000000000000000N1209000000164                 0820A04BF85F49394CD3E467EC3C2413
000208503440344009707557    LUIZ CLEMENTE GVOZO                RS340088386       2012091521001000000146C8E1B3E49D247B670B7A9F665886B186000000004490000000004490000000000000000000000000000000000000N1209000000165                 B52FBBFA07586C31E571F5000A01C8B2
000388117900343010866725    MARLI BACK                         RS340088992       20120915210010000001470DD03C0D3FCB1D1523FAC7840926AA5F000000004490000000004490000000000000000000000000000000000000N1209000000166                 789BC8EF5C5377921A709262AD76FBB4
000688182030539042418062    ANA MARLI JUNG MOTA                RS340088027       20120915210010000001489D035FFEFA8C3BE69F0D7E1DC7EE2585000000004490000000004490000000000000000000000000000000000000N1209000000167                 78F87C15E0C963D858B484DB0D7354F7
000434429350916037797732    ANSELMO PAULO KLEIN                RS340088026       20120915210010000001497B8D654EB0AABD1CB6EAED61104D9F00000000004490000000004490000000000000000000000000000000000000N1209000000168                 F236D1A88DA243C226CEE0DD499511A7
00040736172068ISENTO        CARLOS NEI BASTOS VIEIRA           RS340088136       20120915210010000001509999A49CCE2F0B6469BB6CED721F448D000000004490000000004490000000000000000000000000000000000000N1209000000169                 107B6CAA7054A817C95D1B1811F446DE
000364625510207015687077    CARMEN SCHNEIDER SALLET            RS340088137       2012091521001000000151A16C7676BFB07FD8DCC51B70E5649485000000004490000000004490000000000000000000000000000000000000N1209000000170                 27327465575C34AAC5FC3B5141BEF0F3
000189999300251017825272    EDÌLSON PERSON                     RS340088223       20120915210010000001527B5286B9429195845B79884993790F60000000004490000000004490000000000000000000000000000000000000N1209000000171                 0C53FF8C6A2D642982488C0407E01754
00090080289053105557968     FABIO SULZBACHER                   RS340088244       2012091521001000000153CBCA5ABCD1AF456AEBFF85D18B4660B3000000004490000000004490000000000000000000000000000000000000N1209000000172                 3E671EC4D41271F39AA8519A41BA3FAD
00054093546053ISENTO        JANDIRA LEIRIA DA SILVA            RS340088339       2012091521001000000154B853D108DAA6DEBBB9C3A2098B9C23D1000000004490000000004490000000000000000000000000000000000000N1209000000173                 766235CB4A2F1B47A9FBCC2E9BB038C4
000275650410681010118113    JO„O CARLOS BARTH                  RS340088338       2012091521001000000155C909DCCDD10A800EB5557DE8D1B0F541000000004490000000004490000000000000000000000000000000000000N1209000000174                 D03291403E8BF02EEC031EC9FCA3005B
00039125939068ISENTO        MAURO JOSE WASTOWSKI               RS340088451       2012091521001000000156DDD203FBD0C25E7470D0E0B7F8A57FEB000000002245000000002245000000000000000000000000000000000000N1209000000175                 DD9EBB78ABA749DB3D06AA1AA909B3D5
000529697380151042342798    NEIVA PAZZE RUDEK                  RS340088552       201209152100100000015799909B1F7FE8BCCE45F9D2F54A018029000000004490000000004490000000000000000000000000000000000000N1209000000176                 9DF50E4209534917A0E6A20663741647
000144459640342027765847    ROQUE ANGST                        RS340088931       2012091521001000000158A3641176297F3F3EAE02ADB2A59E3AF7000000004490000000004490000000000000000000000000000000000000N1209000000177                 084C542426A1B5E05940A6649DC55B49
000043843770537065683232    VILDO DA SILVA                     RS340088715       201209152100100000015912184496F3C6CDF269D20AD1CB3A9A9A000000004490000000004490000000000000000000000000000000000000N1209000000178                 A3DC68311DFCE35E87EED9E017A74A28
000555057830159026592932    ADOLAR ORTIZ                       RS340088146       20120915210010000001601A347D470238A814BA17D5327A8639BB000000004490000000004490000000000000000000000000000000000000N1209000000179                 1B6110EF33F8B982ACA3CC586902BF59
000600894310493043728751    ANENCIR JOSE ROGOSKI               RS340088036       2012091521001000000161D075BA577786594A085B070CE90286AA000000004490000000004490000000000000000000000000000000000000N1209000000180                 71640E48BF187073557CC46FFC74DB27
00005986656920ISENTO        ARNO RENATO ZENZEN                 RS340088044       2012091521001000000162B69A0C73F3C6B7104B18B9441AD496C4000000004490000000004490000000000000000000000000000000000000N1209000000181                 3BA35ADEDD484DD39AD2C58B4CAE58A0
000909510260201069330981    CARLOS EDUARDO SPOHR               RS340088118       2012091521001000000163C764E125B936E9C93F8C98EA1E6B3CC8000000004490000000004490000000000000000000000000000000000000N1209000000182                 79E933A8ED227D8F35AD41755BB1DBD9
00046960970059ISENTO        CELSO LUIS HENRICH                 RS340088116       2012091521001000000164573CA2768B792E4F578E2045214BB82A000000004490000000004490000000000000000000000000000000000000N1209000000183                 FB484507CE646D78A999BFFF6FBA2CC3
00043424554049ISENTO        CLECI MARIA FOLMANN DE LIMA        RS340088893       2012091521001000000165D2866B719CA31EC3F3A4A2B8840CA461000000004490000000004490000000000000000000000000000000000000N1209000000184                 2BA398E9A5619102CE26EA6D33ED9D92
000574227610915032840452    DIRCEU OLMES AUTISSIMO             RS340088210       2012091521001000000166D7E95F0CA3785E64CE119D10AA8337CB000000004490000000004490000000000000000000000000000000000000N1209000000185                 9C56AAD6FFF9301A547E3A50CEEEDC80
87612990000105ISENTO        PREFEITURA MUNICIPAL DE CERRO LARGORS140088788       2012091521001000000167EBDFF422CE7A54DD48D659900C4D0AF6000000041940000000041940000000000000000000000000000000000000N1209000000186                 6AED617640710957F3AAE0F6C010E058
00090955528020ISENTO        FLAVIA TEN KATEN                   RS340088824       2012091521001000000168D0CE866B156A59E4A9ED025BB8F8CCEF000000004490000000004490000000000000000000000000000000000000N1209000000192                 E56C0B63B0BD3ECA1146FFFA1DA341E7
000575072520006037532857    ILDO FRANCISCO VOGT                RS340088294       2012091521001000000169A05E5B0AB0B277EBB3970AD9A697C7DB000000004490000000004490000000000000000000000000000000000000N1209000000193                 E42E49C9FABAE0CEA0A77060C87009BB
0002756363405330080103551   LUCIA CATARINA LUNKES              RS340088422       2012091521001000000170DC37A0FC8E4D86A217B94A5CECB441C2000000004490000000004490000000000000000000000000000000000000N1209000000194                 12771096D67E5A054190BB002DE70137
00000656907029ISENTO        LUCIANE CRISTINA SCHUSTER          RS340089026       20120915210010000001711F0FF1AEB8B5B686F5453AE4D1A52876000000004490000000004490000000000000000000000000000000000000N1209000000195                 BE8A4C14EE1766A17C4DFAC2876D5663
000647752830491032753696    MARIA LENI MULLER KREWER           RS340088507       20120915210010000001721C3E6B1719A70873B56E7CC188C35892000000004490000000004490000000000000000000000000000000000000N1209000000196                 1737A64CFF183A928BFA7281F0559543
000227306640681037913934    MARIO ELY                          RS340088506       201209152100100000017308FCD6BD824193EF49EAEB369F44EB15000000004490000000004490000000000000000000000000000000000000N1209000000197                 4582544BF7D08066045E240E8027B490
000000293910085075304856    PAULO ROBERTO WELTER               RS340088774       201209152100100000017472E1B710760D823BEA18DD66FB3A5C4B000000004490000000004490000000000000000000000000000000000000N1209000000198                 54E4A59F47EC976C56D4CF65D465DAB9
000374110040496011489231    PAULO WAGNER                       RS340088773       20120915210010000001751CE30F7881428086126F6F11426E21BA000000004490000000004490000000000000000000000000000000000000N1209000000199                 3F61F60224B71CC69D9F04A41BFBBE50
00002039751033ISENTO        RICARDO JO„O SCHER                 RS340088953       2012091521001000000176F7EED877F6D9D141D0979AF33694661A000000004490000000004490000000000000000000000000000000000000N1209000000200                 56BCD24AD3B80A6BE427DB57EC7A2010
000557344720347031673697    ROSANGELA IRENE FRANZEN            RS340088778       2012091521001000000177270B3CA41BE43CD91262120B11530879000000004490000000004490000000000000000000000000000000000000N1209000000201                 846F5C98FA2ABCE2D1DE9ABC03C3A7A7
000950744810151057340877    SERGIO MOACIR MORSCHBACHER KRAMER  RS340088781       2012091521001000000178A9E0A7679B62195BFDDECAB9C78347D4000000004490000000004490000000000000000000000000000000000000N1209000000202                 9D1C14964EEE468F4BD4CE2616EB864A
00049470043049ISENTO        T‚NIA ROSANE PORSCH                RS340088883       2012091521001000000179B02FA598D394C0E5DA9D7B6510E0A42E000000004490000000004490000000000000000000000000000000000000N1209000000203                 CFCE286C2DA9EC7CE072D5EC2D8332A3
000015390060189085570191    VANDERLEI FRANTZ                   RS340088786       2012091521001000000180E258D06D1363057A1391C3E8D6FD536F000000004490000000004490000000000000000000000000000000000000N1209000000204                 A2151192624FFD13FB8F1A734472960E
000394398360912025068673    MARIA ANGELINA SCHNS DONEL         RS340088512       20120915210010000001818F8E3A3E8865D1846E730EFD3F3F88B2000000004490000000004490000000000000000000000000000000000000N1209000000205                 81895EA4C1071C4A451C866C8A2DF12B
000288933280201003910922    ALDINO BOHN                        RS340088038       20120915210010000001825EC7834FAC2EBC8E4F2D2219BD175894000000004490000000004490000000000000000000000000000000000000N1209000000206                 00EBAA807B8CE890534B7554BE61F52B
00025506145004ISENTO        ALFREDO GOTZE                      RS340088037       2012091521001000000183A0454654D6245849A9A180D11C468967000000004490000000004490000000000000000000000000000000000000N1209000000207                 F6462FC0946F98B2283AB6434E6EEE5C
000469606600251035472123    ALVARO THOMAS                      RS340088042       2012091521001000000184C6EEE7696D5861011A743F6FFE9035CA000000004490000000004490000000000000000000000000000000000000N1209000000208                 04AEFF0147F250587296DA41691293E6
0003413158201502086164250   CARLOS ALBERTO ASSMANN             RS340088117       20120915210010000001857D96E28703680F4FAC8CFC410430C2B0000000004490000000004490000000000000000000000000000000000000N1209000000209                 6162C46753F849F782D61B02E0825B7F
000460844010159035839878    CLECI TERESINHA EDIT CASTRO        RS340088114       2012091521001000000186E7155E4B9A9A9B046DBB9230B1739A2F000000004490000000004490000000000000000000000000000000000000N1209000000210                 CE5F84CD98665ED59CA2972E4C6FF325
000571141450049037251395    DENISE MARIA MAYER                 RS340088152       2012091521001000000187112E2DD7DD9976585E22311D9485E6A6000000004490000000004490000000000000000000000000000000000000N1209000000211                 2B2ED08EB09BA5B31331F9B36BF0E579
000018235050903069329226    JAQUELINE MAYER DAPPER             RS340089008       2012091521001000000188B43F940F5C9AC281A9179FE6C0B894AE000000004840000000004840000000000000000000000000000000000000N1209000000212                 0A57C62E8839648FBB6EAB3B36D44109
00090884221091706485880     JOSÈ ARAMI RODRIGUES               RS340088367       2012091521001000000189E9229FF37036F7762C3AB79B9B4E622D000000004490000000004490000000000000000000000000000000000000N1209000000215                 E8AFEC006E5038E0AE49ADF67719FC82
000442863250916030433971    LUCIO JOSÈ DILLEMBURG              RS340088425       20120915210010000001906C0D53A201DFB7AEC261C9C7231946D9000000004490000000004490000000000000000000000000000000000000N1209000000216                 CC02D04580E2DA539B2F1539151A4E72
000773176700069014934278    LURDES CLAUDETE WEBLER             RS340088424       2012091521001000000191A9AA23D443834DA122B1A10735E9E2E0000000004490000000004490000000000000000000000000000000000000N1209000000217                 70FCEFA39F8DA1F25B5A4511D9007C9F
000001188620069083449588    MARCELO SCHWEING                   RS340088509       201209152100100000019242E8C7CD354C9DB2D28B40166B6EBCC8000000004490000000004490000000000000000000000000000000000000N1209000000218                 9AF19E9275DA6D4FD57568CAEC367F3C
00046961089020ISENTO        CIRLENE SAUSEN                     RS340088783       20120915210010000001931F73FB444C63AF4BC4DD3FB52C0164E2000000004490000000004490000000000000000000000000000000000000N1209000000219                 C3EB523CC2FB7811706BECB9A6FCF44B
000286384410538011509166    VIRO ANTONIO BIEGER                RS340088787       20120915210010000001941CF529802806DA19EB87F318D67F59E1000000004490000000004490000000000000000000000000000000000000N1209000000220                 DE7C6C595401BB736E5205EBEBC7F9AB
00042674140682111329221     ADILSON DOS SANTOS IRINEU          RS340088041       2012091521001000000195184AAC9DAA7C68E482F213B099744D6E000000004490000000004490000000000000000000000000000000000000N1209000000221                 84A0859743E72B74C9ED8DD996E111DC
000457668780871004332043    ALDERINO GIORDANE                  RS340088039       201209152100100000019646DFBAB9C1F2AD8C800FC10D3C78D704000000004490000000004490000000000000000000000000000000000000N1209000000222                 C86593AE79017AF2C033FB98EDC909A4
00000343591090369392486     ANGELA TERESINHA GLASSMANN         RS340088035       20120915210010000001972FDAA009E3BC5801CA0DE78680798566000000004490000000004490000000000000000000000000000000000000N1209000000223                 72E01683D8045AD9CD47B6F2E74977F2
000002667720212065703833    CARLOS LENZ ROHDEN                 RS340088150       2012091521001000000198A924E48B7BAA2497260015D2E15E09BE000000004490000000004490000000000000000000000000000000000000N1209000000224                 310EC561A0B0470DFE3950A305AD1769
000006076600071084635109    CHEILA ESPINOLA                    RS340088124       2012091521001000000199FDDA5914E6141C46C834A989083F1FD4000000004490000000004490000000000000000000000000000000000000N1209000000225                 F629FC2780D0A4B368E83B8A0C87F469
000357104890348028744401    DELFOR EBERHARDT                   RS340088174       20120915210010000002004D7C4B35FF119746EFDE2DA9ABDC3A4B000000004490000000004490000000000000000000000000000000000000N1209000000226                 129A0117655F883AB0BA681A5FEA0EF0
000591769380347031731693    EVA LUBSCHINSKI                    RS340088279       20120915210010000002014FF2BB544AA51DAF4E564181D0058C6A000000004490000000004490000000000000000000000000000000000000N1209000000227                 015A9CAC40CCA4F5D3049FCFAF9920BC
000013733730241089175366    GEOVANE LUNKES                     RS340088277       2012091521001000000202824BCA3DBAA745BA8ED9714ABBAF7185000000004490000000004490000000000000000000000000000000000000N1209000000228                 DAB56E64ACE4CD0C2C7370F08DCEC591
000892768500821039213028    JO„O ARI RAMBO SCHEUER             RS340088368       20120915210010000002033466BB93BAE1E7D3F82C8FFFDEB5895E000000004490000000004490000000000000000000000000000000000000N1209000000229                 E76DE1884A4B3C5363BEB1E9ED6B4B7F
000010587980064069364737    LARISSA JUNG WELTER                RS340088423       20120915210010000002048A69D0FDB1D76766D59D0716A1B00468000000004490000000004490000000000000000000000000000000000000N1209000000230                 3E3CE41A0CBE8AE1A8CAE2339E4E4D47
00096490470004ISENTO        LEONARDO MOMBACH                   RS340088844       2012091521001000000205127FE6D00737198971645794394973D6000000004490000000004490000000000000000000000000000000000000N1209000000231                 2F7B082CB7A510EFB798D9A476A526A0
000581190430492009673365    LIANE MARIA JOHN                   RS340088426       2012091521001000000206B818075506E0DC4FB3D54E04546BFD71000000004490000000004490000000000000000000000000000000000000N1209000000232                 85BD2C2DB71D29B1965A046033DA34C6
000902091760917064342343    MARIA DE FATIMA NAUTE DE MATOS     RS340088508       201209152100100000020794B7E07D32F77ECAA020075DBAE838F0000000004490000000004490000000000000000000000000000000000000N1209000000233                 DC35ED08F375623C0C8FF8D9943DE1EE
00002402462094ISENTO        NATAN HISTRE DE OLIVEIRA           RS340088858       20120915210010000002089E17D183D5AC70413F4ADADEE9F66A34000000004490000000004490000000000000000000000000000000000000N1209000000234                 489CDF4A917CC27179FD288FEFB074F7
00000257011005ISENTO        ROSANE TERESINHA SKUTIEN           RS340088872       2012091521001000000209B3A9131159376B2AABC41331093F2459000000004490000000004490000000000000000000000000000000000000N1209000000235                 3001C69413B21ADD1C8C189EBD42DD9A
00068319452015ISENTO        SANDRA MINIKEL                     RS340088875       20120915210010000002108647D1ED7FBA927E3AE21F5C68389C2E000000004490000000004490000000000000000000000000000000000000N1209000000236                 43EEE3216B7D4F0EAE229A60AD827B45
000013323930639083439415    CHEILA LEAL                        RS340089028       2012091521001000000211313CAD72C8A6904B39672D06E087DCC8000000004490000000004490000000000000000000000000000000000000N1209000000237                 22B701CB69C852DF004F148FD419D714
000361476990911024094731    BERNARDO JO„O TEN CATHEN           RS340088082       20120915210010000002125CB75D15887949F1819B0C26B0872FFA000000004490000000004490000000000000000000000000000000000000N1209000000238                 455A93181E796390A3EDD408EC0CF03D
000016771720021090562388    CAROLINE LUISA KNOB WILLE          RS340088394       2012091521001000000213549E1EA24181BFEA181FB047B136D68A000000004490000000004490000000000000000000000000000000000000N1209000000239                 387CD112E774A15E646EF531537E20C4
000998785260205056820359    CATIA ADRIANA THUN                 RS340089010       20120915210010000002145725C5E63831F6CFF0AEA5C516C9124F000000004490000000004490000000000000000000000000000000000000N1209000000240                 6164CBA7452AB7D87568497EF12189BB
000025176600422099947919    EVERTON BORTOLATO KIRSCH           RS340088951       20120915210010000002157458E415D2DAC1083554E0EF7CA498AA000000004490000000004490000000000000000000000000000000000000N1209000000241                 5E7DBB1E775ADA59D1A6985357AAEE2C
000016873580601062317746    LETICIA TAMIE ODA                  RS340088917       201209152100100000021670B4AF192EAB857F4D411616A9A351F4000000004490000000004490000000000000000000000000000000000000N1209000000242                 5B04622A6C3409A5CAE35BBD8795FCA5
00096384999072ISENTO        MARCIA DENISE MARTINY              RS340088850       2012091521001000000217A301939F8CE75F7AC164CABF290CE014000000004490000000004490000000000000000000000000000000000000N1209000000243                 1F87D1C62182FE201A0780E55D58D85D
000963881450001039747009    MARIA CLEONICE DA SILVA SOUZA      RS340088949       20120915210010000002184333FD2AAA2427C8248F54F76EBA0F14000000004490000000004490000000000000000000000000000000000000N1209000000244                 57D5AE5208AE459F539E525239A4A819
000590616850877042257481    MARLI DA SILVA DE MATTOS           RS340088948       2012091521001000000219F4E1376E7D5D7D55D5377C0F63F3A768000000004490000000004490000000000000000000000000000000000000N1209000000245                 B56EE1E228224431DF0C926110B6DBD1
000894497970727033390894    SILVIA CRISTINA WELLER SIVIRIS     RS340088991       2012091521001000000220093D55BD45A636F6C53D18E379FCAA7C000000004490000000004490000000000000000000000000000000000000N1209000000246                 EE64B64295BD4E533EBE3243C31897C8
000628435240918014820636    ZAIDA FROHLICH                     RS340088997       2012091521001000000221136D50D5C43DC5D49DDB7451828335AF000000004490000000004490000000000000000000000000000000000000N1209000000247                 66BA5F0FD24D30354756EAF729887B06
000519543030687031413061    GILMAR MONTEIRO                    RS340088265       20120915210010000002225F794FBF73DFC0AB301FF9037082664B000000004490000000004490000000000000000000000000000000000000N1209000000248                 A7D0788774CDD6E689C4ACFB11752D83
000986449470871041047711    JOCIANO LUIS DALROS                RS340089031       201209152100100000022367336E51145E1FABAAD9896D400FA6E0000000004490000000004490000000000000000000000000000000000000N1209000000249                 4A1E8361EEC08561FE58AE2169DBFE1F
000977383950871069339181    JOEL DE AGUIAR                     RS340088941       2012091521001000000224C36D96F0E4FB699B7E2F3398746DB891000000004490000000004490000000000000000000000000000000000000N1209000000250                 28C35F38E412FDAA3B6D7B9EF3407B81
000021340840654103210409    LARINE DALLA CORTE BERNARDI        RS340088523       201209152100100000022575801715B6B7DCC0884B755B0DBE1636000000004490000000004490000000000000000000000000000000000000N1209000000251                 B6B0B0C2FC6C0F878B7634CB6CD9BCE1
00000492581096ISENTO        VINICIUS ANDREI DA SILVA           RS340088888       2012091521001000000226084BAE20A659ED83CB265DCF8F314C3C000000004490000000004490000000000000000000000000000000000000N1209000000252                 368A692392E6D3A42CD5B3F23CA99B71
000152959740499018350851    EMILIANO AMILTON PIMENTEL DE PAULA RS340088969       2012091521001000000227669E253023A7067837CCF1EA960333A3000000004490000000004490000000000000000000000000000000000000N1209000000253                 BE6775CA9C8BFAAB79CCE4665A54C705
000647599970919051600551    GRISELDA MARIA SCHMIDT ALLES       RS340089004       201209152100100000022847545926D72A8124BFED446B7B8593CC000000004490000000004490000000000000000000000000000000000000N1209000000254                 C329B4C51E04E1820BFBAFA6408CD97A
000715429490688058028227    MARISTELA FOLLMAN                  RS340088502       20120915210010000002294164C46AB823A66EDD0FD68AA3B7A973000000004490000000004490000000000000000000000000000000000000N1209000000255                 4C4D1880142D29551462593BF695FCFD
000642896640918044699091    SILVIA CIECORSKI ZANCAN            RS340088939       2012091521001000000230C7269FD69AE11AB00D308173DA4EE7DA000000004490000000004490000000000000000000000000000000000000N1209000000256                 04EC35191CBD491F39576BA19795FBDB
00061245950010ISENTO        JADIR JOSÈ THEISEN                 RS340088352       2012091521001000000231D8F99140BFE4735142CC4FA0800C759B000000004490000000004490000000000000000000000000000000000000N1209000000257                 46B7805070E5D53975AEC001A79560D1
00089823435049ISENTO        MARCOS AURELIO BOLZAN              RS340088501       2012091521001000000232F82C4FA1E179392316C7C02FA9BCB585000000004490000000004490000000000000000000000000000000000000N1209000000258                 18DA6C0DCE35659CD2E4410EE581BFF6
000745620290721031072151    JANINHA APARECIDA MAUZAKIO         RS340089019       20120915210010000002331E1943832DF88936852F2BA6217A4A72000000004490000000004490000000000000000000000000000000000000N1209000000259                 D0AF46F9147B118DA3C10602816F0461
000003590310481058508092    ROCHELLI COLOSSI                   RS340088758       201209152100100000023420FBBA1322C12AC7873DE77AF0131ED8000000004490000000004490000000000000000000000000000000000000N1209000000260                 A41E9FB58F2B1FD466E9DB4498CE968B
000548766720912055592758    ANTONIO ALMEIDA DA CUNHA           RS340088047       20120915210010000002355EE18ACC9AD547989786B41FCF1FB6B6000000004490000000004490000000000000000000000000000000000000N1209000000261                 48ADF9384BB8C880A839671990EC9B4F
000712888640001052930672    VERA BEATRIZ ANTUNES DOS SANTOS    RS340088580       2012091521001000000236F91A3529BDEC682A0DC57C2B348ACC04000000004490000000004490000000000000000000000000000000000000N1209000000262                 9BF178E3056020B4D792B2DDE81CA8D4
000006758540086084720736    ANDERSON SOMAVILA MACIEL           RS340088033       2012091521001000000237404519870F5FCF48BEFF0C608A60D23A000000004490000000004490000000000000000000000000000000000000N1209000000263                 A7CE19202DB35E87CD2EA513818D8864
000014907190671089037343    MAIQUEL TADEU THUME                RS340088435       20120915210010000002382E04BDC1E92115294E6A4C24A0CCCF2A000000004490000000004490000000000000000000000000000000000000N1209000000264                 D98EEC6D40DF33EDB87943F50B5D5EE4
000897206100003042337034    NARA REGINA BATISTA VIEIRA         RS340088542       2012091521001000000239C0D85F0D48E1CD11D7498E469057F98D000000004490000000004490000000000000000000000000000000000000N1209000000265                 78E811F2304F3C442EC094BF122E62BF
000043194190491022082224    VILMAR PRESTES RODRIGUES           RS340088673       2012091521001000000240AF3EED96C777D711A67084BBCBC87007000000004490000000004490000000000000000000000000000000000000N1209000000266                 275446E0D9DD8DD74B45D4BFC9CD01F7
00098241001053ISENTO        JANINHA HASS                       RS340088335       201209152100100000024188B20A724759E88D0C798C9BB8A93D23000000004490000000004490000000000000000000000000000000000000N1209000000267                 79E3ED5F85FBAAF52FAC19559074F44C
00001724438069ISENTO        RICARDO ROHDEN                     RS340088685       201209152100100000024262B58C9A7B5ED887F380EA693B9CFA1B000000004490000000004490000000000000000000000000000000000000N1209000000268                 3DA6C3B9F7648DE9DBA93E7E50742632
00001824320094ISENTO        ANA LUISA JUSTEN                   RS340087996       2012091521001000000243E458084402E2F278075AFC5FA46C7C8A000000004490000000004490000000000000000000000000000000000000N1209000000269                 FF5465F4083B7C0B02AD5A8BC0215B2E
93592715000161ISENTO        PREFEITURA MUNICIPAL DE S„O PEDRO DRS140088790       2012091521001000000244A456AECDF8D998E6E2E26EF83AFF0536000000041980000000041980000000000000000000000000000000000000N1209000000270                 1CAEF8B9D876C07BF0F17A93545D55FC
00093357427087ISENTO        CLEBER HECKLER                     RS340088808       2012091521001000000245DDBD5FEAFDF932CD205CB773938A207B000000004490000000004490000000000000000000000000000000000000N1209000000278                 4741227C5B95BB953E559D83F8D099D6
000886671380533037922699    DARLEIA JUSTEN                     RS340088159       2012091521001000000246C218459614A0167CEEB21C3ADC99EDFE000000004490000000004490000000000000000000000000000000000000N1209000000279                 F8364A7215253D2336F35322900A1FC7
000314515000688014688091    EVA MARIA HILGERT                  RS340088258       2012091521001000000247806FA81956394AB29B0DA7C560351ADF000000004490000000004490000000000000000000000000000000000000N1209000000280                 7F6CB6B8DCBB36A7E4FA90A47DFA5B15
000602593610206026528353    GILBERTO CARLOS STEFFENS           RS340088264       2012091521001000000248A816FFFBE484BC05DE3A7371D0A46760000000004490000000004490000000000000000000000000000000000000N1209000000281                 A92CE3E954303AF1EFE0F6A80137DAD4
000010716890108075599641    JAQUELINE MEINHART                 RS340088430       2012091521001000000249659A68C90943CFA549F3966F8BA25049000000004490000000004490000000000000000000000000000000000000N1209000000282                 7029038C0F9CA8EF206D061D3ACD01BF
00002819551076ISENTO        JÈSSICA MARIA DA SILVA FENGLER     RS340088919       20120915210010000002503509D5B612E989489FBFE828346AA6EF000000004490000000004490000000000000000000000000000000000000N1209000000283                 8CC546932100C2C1A49112A63200522D
000021759250308079651769    MAGALI RAMONI LENZ                 RS340088439       2012091521001000000251691C5B4D92A613ACFE778F426F5249F0000000004490000000004490000000000000000000000000000000000000N1209000000284                 9738C9F7F2BD7914385C21D2B294072C
000891653220534023891155    MARLISE RAUBER BOCHLKE             RS340088441       2012091521001000000252D904B456B5748AD206522EB97DD2107E000000004490000000004490000000000000000000000000000000000000N1209000000285                 FEB01A8DBEE7BAC95B8D3BC553D93B50
000905094040491026527877    NAIR ZARNOTT WOHLFART              RS340088544       20120915210010000002536C0B718AD281E5E35DA50D51EDE787B1000000004490000000004490000000000000000000000000000000000000N1209000000286                 2A84D9DD4075D6C7480E40AD72EAF07F
00001978479000ISENTO        NARDELE JO„O HILGERT               RS340088674       20120915210010000002549F529B682DE5166F70ED5780420FBD67000000004490000000004490000000000000000000000000000000000000N1209000000287                 8A352E775E9991407A6204C3BB77CBCA
000893016090532055567818    OT·VIO FROEHLICH                   RS340088676       2012091521001000000255798216D0DD972794C5F17686C3EEA8F6000000004490000000004490000000000000000000000000000000000000N1209000000288                 CCA19F268729A740A708A23C7098D353
00061157783015ISENTO        PAULO CEZAR REBOLHO                RS340088677       20120915210010000002565EEB42D9CF56DF74B021C4BD38C299B6000000004490000000004490000000000000000000000000000000000000N1209000000289                 ACC38179FBDBF8C14B37E6736B818471
000961060180499014852637    RICARDO ANDRE HILGERT              RS340088682       2012091521001000000257702494C1BDF94C4EA869ABA57087516E000000004490000000004490000000000000000000000000000000000000N1209000000290                 72B9561B881D73476E9FFD1878B2BE34
00046961259049ISENTO        RONI MIGUEL CAGLIARI               RS340088687       201209152100100000025887002FF87DFEC42AB9FD609AB38FD6D4000000004490000000004490000000000000000000000000000000000000N1209000000291                 B980F016AE069DD08AF113D7DF848EB8
95082251000179ISENTO        STAR MODAS                         RS140088692       2012091521001000000259EBAE8E7E4C8C9EFD71C659AC5157E73A000000004490000000004490000000000000000000000000000000000000N1209000000292                 546E0BF5262028C0B49ED98EB6110286
00000815533071ISENTO        VALESCA MACHADO                    RS340088699       2012091521001000000260FCFA576D859AC170AB9A6C106756EEEE000000004490000000004490000000000000000000000000000000000000N1209000000293                 27EDD4214E5CE378EDA918C73E0F9DBC
000001512450961054732456    VERA TEREZINHA PEIXOTO             RS340088696       20120915210010000002616D1BF2519BBAC77E5CB2BAA4AA49DF64000000004490000000004490000000000000000000000000000000000000N1209000000294                 BA66DF410ECD3B0235EA8E18DC246914
00054477255004ISENTO        NELCI SCHLEGEL                     RS340088546       2012091521001000000262FA64F1C82D94AB6FE6EE5FD93D0B9089000000004490000000004490000000000000000000000000000000000000N1209000000295                 D99C6CABC711BD2D7DFDF78666A4026A
00000900161060ISENTO        ESTEVAN TEN CATEN MARTINS          RS340088794       2012091521001000000263EF44A00581DAF6B2C6053200026629A6000000004490000000004490000000000000000000000000000000000000N1209000000296                 0AE8CFB453051A09587B6275E4672FA3
000533217740203036049157    CESLAU MARIO WARPECHOWSKI          RS340088262       2012091521001000000264A6F0D17E8B1C9C4309CA56B6F4A14F49000000004490000000004490000000000000000000000000000000000000N1209000000297                 0C2A3110850F14F405B1B2E534E97DF1
88506993000119ISENTO        COOGUARAMANO                       RS140088263       2012091521001000000265EDEE4FE8991D34EC93D3445CCED09391000000004490000000004490000000000000000000000000000000000000N1209000000298                 AD7E15ACC962764CB7509A3AF6C14C6B
00043332986015ISENTO        EUGENIO N.WARPECHOWSKI             RS340088392       201209152100100000026618F5D9D5115E80015E17989122F6A71F000000013390000000013390000000000000000000000000000000000000N1209000000299                 C147A5806FBAE523865A1F09D0A7D654
000367365890535031239841    HILARIO V. KULIGOWSKI              RS340088393       20120915210010000002671EFB01A691DE0413BE5C9AA7F4A0D361000000004490000000004490000000000000000000000000000000000000N1209000000301                 382C90143D53F4C736B0A361C3242377
000452981060725034292441    JORGE KOTLEWSKI                    RS340088340       20120915210010000002689EA0A41B2D1DDD953D7768A48C70C2A6000000004490000000004490000000000000000000000000000000000000N1209000000302                 95DF5D79A6AEE06F0B0DADEF8A8235B5
000433335750001037119003    SERGIO JOSÈ CEGIELKA               RS340088719       2012091521001000000269AF713A29A6D9C4DE88118869EB8D30D9000000004490000000004490000000000000000000000000000000000000N1209000000303                 641E7516A7BEEE729123DF84E14A9765
000578214880201043829967    SILVESTRE WOZNIAK                  RS340088717       2012091521001000000270A2B64DE695C36696678274D48063DA2B000000004490000000004490000000000000000000000000000000000000N1209000000304                 12425084FBCF6DF5FCF1A230E8D20CDA
000116181160531043823705    TADEU JABLONSKI                    RS340088952       2012091521001000000271C4E0B61E8563D2A94737ACBFDE6D73DF000000004490000000004490000000000000000000000000000000000000N1209000000305                 719DBF9A53BF98B79232548D10B43EC9
000760073910002017221603    VALMIR DA SILVA ARA˙JO             RS340088720       20120915210010000002723C7C40F80D8D440D62B4A8CD2D1A126D000000004490000000004490000000000000000000000000000000000000N1209000000306                 491A3ADC45D9A4AA1AFB70F090F9146C
000056224760205012340451    ANTÙNIO RUBENS VIDAL               RS340087984       2012091521001000000273A1DC0C450BAAB3109529DB14C98509C9000000004490000000004490000000000000000000000000000000000000N1209000000307                 C499C9B4B9FA9BA64856819CD0364DBD
000635206720492050938782    CLADIS DANIE CHITOLINA PAWLAK      RS340088120       2012091521001000000274E8006867BFF5540EDF7E1780410D42CC000000004490000000004490000000000000000000000000000000000000N1209000000308                 E049074266919B7ED6C5B93491B604D0
000020191480806092269262    ELTON FROEHLICH                    RS340088207       2012091521001000000275B696B90B040BF130A7CD9DF82F0B077F000000004490000000004490000000000000000000000000000000000000N1209000000309                 CEBC5B4D9452A1E1EF09D449E44A1DBE
000636305320042050285317    NILSA DOS SANTOS                   RS340088540       2012091521001000000276E51C8632625CB8FBC736716B5B52AED6000000004490000000004490000000000000000000000000000000000000N1209000000310                 72ED052FF8D377F2CDA7D2FDBCCAEECE
000307340020689000810763    SERGIO LEONEL DALCIN               RS340088764       2012091521001000000277E52A5F68337E374994497AA4B7D04E75000000004490000000004490000000000000000000000000000000000000N1209000000311                 ECB740C369E8E980219765B4E8E5023C
000920266560538031277711    NELSI MARIA ROHR                   RS340088565       20120915210010000002782B9DB824A7FE83C6BCD1E3644AF6F4AE000000004490000000004490000000000000000000000000000000000000N1209000000312                 B490362E1A621E51EAE98F247400403C
000280906320681016991067    NILSE ARNOLD SIVERIS               RS340088567       2012091521001000000279D3D0E5986A110DAA15EA9FFD4BAF5785000000004490000000004490000000000000000000000000000000000000N1209000000313                 EEE10CF6C79A20A1770A3CC384C4A6DD
00046952632034ISENTO        NILSON ZIMMERMANN                  RS340088570       20120915210010000002809E02A8D5973B405D0982306EF381C52B000000004490000000004490000000000000000000000000000000000000N1209000000314                 1B6FC3DEFA873427C0E5296621F93786
00033206961068ISENTO        VALDIR JUNG                        RS340088644       2012091521001000000281E656A6D3ED529BD37CC20AEBE62B8C38000000004490000000004490000000000000000000000000000000000000N1209000000315                 AF827FB336F7E8704E994D50058A8245
000330815220725015294531    ANTONIO DO AMARAL PERDONSINI       RS340087986       201209152100100000028229E55FAAB3D80B6F4851E151DDF7BF47000000004490000000004490000000000000000000000000000000000000N1209000000316                 07218EFFA13D0300213A5524EEC53918
000988328320201057039644    CARLA LUCIANE PETERS               RS340088122       2012091521001000000283808D8AD6758F08A22B247CB3E7D2430C000000004490000000004490000000000000000000000000000000000000N1209000000317                 EF6EDE56FA4C694EC54F88D3BA31A303
000496337320347037740169    MARIVANDO ANTONIO TURRA            RS340088518       201209152100100000028432BF06EF2511D149D5E6D4FB0041D9DB000000004490000000004490000000000000000000000000000000000000N1209000000318                 D63C05FB8C3E5E627C234C75E7B76904
000015636420422075650339    MARLETE DA LUZ                     RS340088515       201209152100100000028566DF32E97DCBADE6A08B5ED5740E17A6000000004490000000004490000000000000000000000000000000000000N1209000000319                 41A8C0CF90372DFF75EA020D3FEE77C2
00045158070059ISENTO        ELIO JOSÈ SCHERER                  RS340088819       20120915210010000002863D6565D870C03E3309607C61FC04FDDF000000004490000000004490000000000000000000000000000000000000N1209000000320                 639B70D92F7365AB9241CD376709F206
00093016905000ISENTO        ELOIDE MARIA WINTER                RS340088821       20120915210010000002870EF5C6E31107584CCDC23EA470E1C924000000004490000000004490000000000000000000000000000000000000N1209000000321                 B5BDA5C2C6FD072B2E299710E5E8DD0D
00002570760005ISENTO        FRANCINE PATZOLD                   RS340088825       20120915210010000002882A4B1D8CD1B656B364B175830F0ED950000000004490000000004490000000000000000000000000000000000000N1209000000322                 613C0D2409A1070B342086B28B79DF2D
00071186573015ISENTO        HEDVIGES STEINMETZ LAHM            RS340088831       201209152100100000028966CAEB57F37537F9308DE4B92D9D8ACA000000004490000000004490000000000000000000000000000000000000N1209000000323                 2B952E2B8F047D7AF38AFEA4570D45C4
00053144503053ISENTO        LUCIA BEATA LUNKES HORN            RS340088848       20120915210010000002908809546808407371E734E7EDECC9C577000000004490000000004490000000000000000000000000000000000000N1209000000324                 16C9A2E8100D7B053392A184D4EA766B
00000565405071ISENTO        LUCIANE LUNKES LENZ                RS340088849       2012091521001000000291A5E41823C950D2F9845566BBF3ED7AEE000000004490000000004490000000000000000000000000000000000000N1209000000325                 F0DEE7F6CCDEEE4526C0C66E4662B9AC
00017494400087ISENTO        LUCILA RUWER FRˆHLICH              RS340088534       201209152100100000029296E2584AA5D3FC31AC9DB0C08CA968F9000000004490000000004490000000000000000000000000000000000000N1209000000326                 056EDBC8278C5FC86AF8EB0B40719D72
00089492420015ISENTO        MARIA NAIR KAUFMANN                RS340088852       201209152100100000029389E40EAB13311C59BD0594FD8BF2CA3A000000004490000000004490000000000000000000000000000000000000N1209000000327                 913B85AB6BE4E447BE84FA9948691948
00068320965004ISENTO        NELCI TEREZINHA KONZEN SCHULTZ     RS340088895       201209152100100000029464EB298A075C571300865DD7E1F623E7000000004490000000004490000000000000000000000000000000000000N1209000000328                 093F7AE61FF7C906CF7F42D739996FCA
00000548823030ISENTO        RAFAEL MATTIAZZI                   RS340088864       2012091521001000000295F9EA000C799D38114FEFF97C78640942000000004490000000004490000000000000000000000000000000000000N1209000000329                 DB76F67F85E02685F717A67B3CA33200
00025182846991ISENTO        RICARDO ANSCHAU                    RS340088867       2012091521001000000296D6B3B11DB0AEA41D786757578E0FB9E6000000004490000000004490000000000000000000000000000000000000N1209000000330                 12B41540C2BADD45EB5423F7B6A4D7DC
000628439310538036210884    VERA LUCIA REIS KONZEN             RS340088670       2012091521001000000297CB0F5548C729330144FFD9CF585FD0BD000000004490000000004490000000000000000000000000000000000000N1209000000331                 5B43AF22032CE529B6CF6B896D17B44A
000466479370728024807755    ELISA MARIA KUNZ                   RS340088194       201209152100100000029882A1EAF875E10C49C0E23AB4C4FA2CEC000000004490000000004490000000000000000000000000000000000000N1209000000332                 F0A1022A2C6F1D894B49E53EA8E1E8F4
00003007599083ISENTO        ROSANE PRESTES                     RS340088871       20120915210010000002995F385D6A542EA4C504B438647B9A1440000000004490000000004490000000000000000000000000000000000000N1209000000333                 1FE29F9B4E55DD82DE8FC34237461AFF
000372178600918019595911    FRANCISCO GUBERT                   RS340088256       2012091521001000000300FC004FE6DD45EC368874D08C2B466AA2000000004490000000004490000000000000000000000000000000000000N1209000000334                 65A3ED81B80C46DC73E0960C52080308
000772998170042065697183    LINDOMAR JOSÈ  KONZEN              RS340088574       201209152100100000030188874BCBD699E2B5263AD2FCB15D608F000000002245000000002245000000000000000000000000000000000000N1209000000335                 315958371CBC1D869AFB5996BB25823A
000928720930873049890464    MARISTELA ADRIANA DEZORDI SCHNEIDERRS340088525       20120915210010000003026D4B3A222241D3C3072E91DF07F363FD000000004490000000004490000000000000000000000000000000000000N1209000000336                 7547DC2F5AE79D1215426E9C8CD9CA18
000307371170873007907649    ASILDO THIELKE                     RS340088062       201209152100100000030369A66C9F434FCFDC29FAC10709A672E5000000004490000000004490000000000000000000000000000000000000N1209000000337                 6A915A8ACE5425CA0FA88CD2EBED1ACD
000507454500591029864103    NILSON VENZKE                      RS340088558       20120915210010000003047431CBBC062C4B945B2330E49FC2E11B000000004490000000004490000000000000000000000000000000000000N1209000000338                 8C663C5F805012A3F0B1C60F189F0634
89754311000150ISENTO        PAROQUIA MARTIN LUTERO DE DONA OTILRS140088965       201209152100100000030599C922DFD005B4033F1167B37438A5DD000000004490000000004490000000000000000000000000000000000000N1209000000339                 80578661C5BD017EEF9EF76243E9135E
87612982000150ISENTO        PREFEITURA MUNICIPAL DE ROQUE GONZARS140091667       201209152100100000030628A41D7E8BD3E4181F979209E4A25B81000000004490000000004490000000000000000000000000000000000000N1209000000340                 60B41CBD4B46EF9FB443D7E604A55E2D
000126579800156008876978    ARTEMIO DE QUEIROZ FRANCO          RS340089003       201209152100100000030781314E466FE0F79C0EA0E4872104CC5A000000004490000000004490000000000000000000000000000000000000N1209000000341                 FF4A6D24665743CF46034A04B14F7E04
000551464060491038902852    LUIZ ANTONIO GUBERT                RS340088410       20120915210010000003086B5B9C95BAF081C0336972AD27227E87000000004490000000004490000000000000000000000000000000000000N1209000000342                 B70234E98337A825C862BCF407A41638
00043758738091ISENTO        VERA LUCIA QUEIROZ DA FONSECA      RS340088708       201209152100100000030923899ED747701A89C23C3A43EC5EBFFD000000004490000000004490000000000000000000000000000000000000N1209000000343                 3468EDE1B4962EC45297D8F2174E501F
0000323259693276466980      MAURICIO CEZAR DE SOUZA SAQUELLI   RS340088514       2012091521001000000310236A0C174004770EC5FF2A88C93077DA000000004490000000004490000000000000000000000000000000000000N1209000000344                 D0BE63B9F373FDF8258CB26502020739
000018431570048090228381    PATRICIA SERVO                     RS340088766       2012091521001000000311FD8DAC467D3A2A3DC3A5DC68ED29F5C6000000004490000000004490000000000000000000000000000000000000N1209000000345                 91A6D9FB09D213A5257832F1DABEAD5D
000011773710067075993101    KARINA MICHELLY DA SILVA JACUBOWSKIRS340088760       201209152100100000031298E065C630892AC29CF6FB503C2D6256000000004490000000004490000000000000000000000000000000000000N1209000000346                 7B33020D70BBB50FF3FB633BAA0097C7
000533605400344011954817    SADI JACUBOWSKI                    RS340088765       20120915210010000003130C92DB82918382C30A5FA90A10B7E123000000004490000000004490000000000000000000000000000000000000N1209000000347                 65EE7EE98EC98F5419D13ABBBA26BEDF
000454311160537029041246    ARI AFONSO FERRARI                 RS340088046       201209152100100000031488545649A79B88A6C2B13715DC681FDD000000004490000000004490000000000000000000000000000000000000N1209000000348                 77A2659F8512FBCDCDDC4557EB8AEAC2
00047252669068ISENTO        CERENI FRANÁOES PERASSOLO          RS340088892       201209152100100000031559D404300F07668D671369781BA3EC0B000000004490000000004490000000000000000000000000000000000000N1209000000349                 7B90C7C89AE13D43E983CB198C0D8B73
000018428410411100546959    DAIANE DA SILVA RIBAS              RS340088177       2012091521001000000316FA08A8B1483A07DA70ED1C818E0442AE000000004490000000004490000000000000000000000000000000000000N1209000000350                 B157CB04B0AAB76812C5A8DC1A299967
000376399190539008761752    DANIEL MORIN                       RS340088391       20120915210010000003175EE9DC5113A9314E0C636E3C83E1573A000000004490000000004490000000000000000000000000000000000000N1209000000351                 9E18C36B57A72D783F8A76919817922C
000081116260534006568945    DELFIN RUDOLFO STEINHORST          RS340088180       20120915210010000003183F94B4BC947C935020DF9B9A985111D6000000004490000000004490000000000000000000000000000000000000N1209000000352                 10C9E556DA6F83F917DF57AF3E367D7D
000888310780208042449242    EBERENICE MACIEL OLIVEIRA          RS340088231       201209152100100000031975EE7697D086E65FD7EB8764CA3CDA14000000004490000000004490000000000000000000000000000000000000N1209000000353                 D8A290983C5C51E33D7A88A97EA4B9F3
000467819430491036102431    ELEMAR NOEBERGER                   RS340089024       2012091521001000000320E9F5F8DF1CDBC2CB0DAD2C8EC787FD8C000000008980000000008980000000000000000000000000000000000000N1209000000354                 D1A7323816B90C2B959D55282E53D4C2
000634648020002054735002    GELSON SEGATTO                     RS340088974       2012091521001000000321E427952C2EC5D003FF09D58DC9C94D4B000000004490000000004490000000000000000000000000000000000000N1209000000356                 9DB9EB2C75E3ACFD40CDB9E1B343D815
000017064450244083440919    LUIZ CLETO POZZEBON                RS340089025       2012091521001000000322DF20186422BE87A7055EB32A7C6A64F1000000004490000000004490000000000000000000000000000000000000N1209000000357                 2A46C549E281883DC4F11E48173ABC97
000434442290207034194618    LURDES KLEIN                       RS340088421       20120915210010000003238C8EBE4C3E0D1F241B173A56F0B57D65000000004490000000004490000000000000000000000000000000000000N1209000000358                 34928A3ABFA44D5A2E6266C3B81C5CD5
000617846130531042428191    MARIA APARECIDA ANTUNES EBLING     RS340088443       20120915210010000003245F76138AB646DE62F03166600A8F0459000000004490000000004490000000000000000000000000000000000000N1209000000359                 CA87FE5153245EA3BD8A1066A440B7CD
000008376410049034379595    MARZELI DE FATIMA MASSALAI PAULUS  RS340088444       20120915210010000003252E50E1B9CE90EC1350C1E14FC8727796000000004490000000004490000000000000000000000000000000000000N1209000000360                 2299B5C675A824B166C900CFB3634915
00975471000115ISENTO        PASTORAL DA CRIANÁA                RS140088735       20120915210010000003265FFEB76312CD6A1B4CD6E190B82A4A8C000000004490000000004490000000000000000000000000000000000000N1209000000361                 3BBC42035A8198ADECA3667C188AA389
000915303420156064358614    SILVIA BUZATTO                     RS340088734       20120915210010000003274F091E2F02453860EA4A917280D9E0F0000000004490000000004490000000000000000000000000000000000000N1209000000362                 404F72B0B05E28C72FBCD9AC3BA66B35
000018192010743079651034    DJONATAN WERLE                     RS340088155       20120915210010000003281262E5EFE76B46A71EF74B51B5F9F024000000004490000000004490000000000000000000000000000000000000N1209000000363                 0AEAE4108E31CA596B8BFBBA43F1BF72
00089842634000ISENTO        JOCIELI JUSTEN                     RS340088838       20120915210010000003296786553AC518003E1CB47988ABE5DD26000000004490000000004490000000000000000000000000000000000000N1209000000364                 6A0A26E347EAB84C016D97A6369A6829
00001940908094ISENTO        PAULO STEFFENS                     RS340088678       201209152100100000033026E2EE279884DB029A0819BE2AF67685000000004490000000004490000000000000000000000000000000000000N1209000000365                 EE3181EC3B88BD1082A899C0EBBC1C1D
00091476909091ISENTO        ROSMERI GALLAS                     RS340088873       2012091521001000000331FC06EA0AA52DCC09C9ED1B43C6644878000000004490000000004490000000000000000000000000000000000000N1209000000366                 7A3CC47F660E008E188DE44B51FCB4E3
000005639400426069442661    VIVIANE BREMM                      RS340089045       201209152100100000033206D3A56EC3AE4FCEB6C253E54D1BDF37000000004490000000004490000000000000000000000000000000000000N1209000000367                 AA23FBF067481DE968562D64B2CFDE0F
000375113000491010774527    JANE REGO FUCKS                    RS340089017       20120915210010000003337278A1EC372090DA73341854C817495F000000004490000000004490000000000000000000000000000000000000N1209000000368                 00AACA46E6F6150E4DFACBE83A6D782E
000011471060021097418659    OZIEL BORGES CLERECI               RS340089016       2012091521001000000334BDBB99C1E68D98ACACC772FE353C56FC000000004490000000004490000000000000000000000000000000000000N1209000000369                 AFE59CA562F4DAFD00F3F8CB4944CAE2
000628364390681052378112    CLÛVIS JOSE STEINMETZ              RS340091657       201209152100100000033570F24C05653276D72FED00C729102D49000000004490000000004490000000000000000000000000000000000000N1209000000370                 2AF791F3AEC2BF749C100843AE129520
000007671260504086925403    LEANDRO JUARES NEUBERGER           RS340088400       201209152100100000033601E247D2DFBA8F2CE06735A25E1528A4000000004490000000004490000000000000000000000000000000000000N1209000000371                 6FB0EE1F4373DB90D34C8E21348B93F8
000441694930877031628188    VIDEU MEYER                        RS340088626       20120915210010000003376D03C3059250B812E128D3171167C365000000004490000000004490000000000000000000000000000000000000N1209000000372                 DECE769CBCE5D7FCAC717DCE3E2B425F
00056992475053ISENTO        ADEMAR SCHMITT                     RS340088013       20120915210010000003380891C43B3228B32B7DD073C9133CE9C4000000002245000000002245000000000000000000000000000000000000N1209000000373                 5133C420855F7C8CF09201A48DA72AA3
000275091170203010559726    CELESTINO SEGER                    RS340088090       2012091521001000000339A5CF4970DB9DB76A2B8B33D77396B186000000004490000000004490000000000000000000000000000000000000N1209000000374                 72EE09BDE719C37F57B2BD2B9ED9645D
000466335450531042319036    MARIO WEBER                        RS340088469       2012091521001000000340F0D0C96BEBB6A0CA8838DB2AC2619DF9000000004490000000004490000000000000000000000000000000000000N1209000000375                 BE01C0B4B2AF5FF8FA85DEBD19A9CA6D
000628439580912039745613    CALISTO MIGUEL PAULI               RS340088123       2012091521001000000341C0100F384617A15435FFDCDF3268740D000000004490000000004490000000000000000000000000000000000000N1209000000376                 C77E7A3598109080A04029603D361E6C
000022122700899092082099    THIAGO KIST DE LIMA                RS340088705       2012091521001000000342E6A78EFFDD9B800FD645F7A142C98674000000004490000000004490000000000000000000000000000000000000N1209000000377                 D64B32E0E9971D7359F17B8D056C3EA8
000489000100001038797841    MARILENE AVILA RIBAS               RS340088505       20120915210010000003431010C4D9EDB8D7DE557255B707915522000000004490000000004490000000000000000000000000000000000000N1209000000378                 328CCFAA09CD7B7B36FF1E56F3AA8411
000948422050912069344774    NEIVO ADEMIR WYZYKONSKI            RS340088572       20120915210010000003440C52E56AFB21614B1C01502A210DE193000000004490000000004490000000000000000000000000000000000000N1209000000379                 69BCB1429306ECECE63032535AFD91C4
000025180980383096824325    NIVEA ALINE WYZYKONSKI             RS340088573       201209152100100000034551D43B26711B5BE8D47A1097D9CDBFFB000000004490000000004490000000000000000000000000000000000000N1209000000380                 87C75AC21D5050695F7149AD39733D34
000702758230916047862641    VILSON ADELINO SCHUNKE             RS340088912       20120915210010000003460DB6DFE337C56F0E525925E205EEAEEF000000004490000000004490000000000000000000000000000000000000N1209000000381                 F4B192EC6964A867A1F3269C79693471
000884336090689053614682    FABIO AMILTON DE PAULA             RS340089033       2012091521001000000347C607250D2AA3CC9D6C87179A5B9517C9000000004490000000004490000000000000000000000000000000000000N1209000000382                 F37EA313B4C28756AAAFD684F08564C6
000411135860875026917079    CAMILO GOTZ                        RS340088978       2012091521001000000348933615FAF48AFEA69658998E43CADE34000000004490000000004490000000000000000000000000000000000000N1209000000383                 D4113488E11E3E9E88169AB4D8B34206
000671186580492055374546    SOLANGE INES AMES                  RS340088615       201209152100100000034985E5AC84DA73ED1FD9E036B73391D3AA000000004490000000004490000000000000000000000000000000000000N1209000000384                 B9BAD945FB5F3549507286D7AA705A6C
000006082250379084467761    LEIA SUZANA MAYA                   RS340089067       20120915210010000003508EEE887993EC75B79AC84AA1F0916DC0000000004490000000004490000000000000000000000000000000000000N1209000000385                 B10044C0F51FDB2599BFC36902F6E41F
000688986900105036414786    CARMEN DEWES CORREA                RS340089080       201209152100100000035101AD8F5D1ACF0039CCB01B4B3821B45C000000004490000000004490000000000000000000000000000000000000N1209000000386                 9B292E84029BC3847B650BB41126C1E0
000332288680877036713721    CLARINDA LUCIA HEIZMANN            RS340089052       2012091521001000000352A4497F12EEE98C605A84112169DBD549000000004490000000004490000000000000000000000000000000000000N1209000000387                 5FDC69EF47970331B3EFA9E83D3AB4BA
00000214239039ISENTO        DARI BIEGER                        RS340089129       20120915210010000003530179758762E11523578EF03BA45F7700000000004490000000004490000000000000000000000000000000000000N1209000000388                 44FB23A6BE913D771868899188AADBD2
000636053920917055834092    DIRCEU BOUFLEUER                   RS340088181       201209152100100000035449C22A8BF3A4A1E196B03A31E64A7966000000004490000000004490000000000000000000000000000000000000N1209000000389                 88BE1663B3885BE05698A6644D5114DB
00041094557072ISENTO        ELADIO SEIBT                       RS340088237       2012091521001000000355F5E6D03A3BA31C4FC2493B7D4C0206CB000000004490000000004490000000000000000000000000000000000000N1209000000390                 0E6A4980CE197410B69E2709548F74B4
000924841740046049785741    ELISA MATTE                        RS340088239       2012091521001000000356F430B349A1D1608F10FDB425DE8D99E5000000004490000000004490000000000000000000000000000000000000N1209000000391                 A8D2A0A1D7A607D923A8822F64FC36B4
000936369700206058440618    ILSE MARIA KREWER                  RS340089012       2012091521001000000357DC09B0DFA38B5D6AF19236FD8E084DAD000000004490000000004490000000000000000000000000000000000000N1209000000392                 3A128ACBA56E2086604A6087F3681693
000273904460723015468659    IRINEU ANTONIO PADILHA             RS340089056       20120915210010000003587C71B12081590B16990DF39C37191681000000004490000000004490000000000000000000000000000000000000N1209000000393                 F49F908011272405EADA17000E6D3714
000887782580496057068444    JORGE LUIZ STRIEDER                RS340089053       20120915210010000003592273815B1DC4C1C8F467724F28F7BBB6000000004490000000004490000000000000000000000000000000000000N1209000000394                 164EBFF82365418ACBF89070FF968FFB
000688979790681058439901    NARCISO SPIES                      RS340089079       2012091521001000000360808809CBB2F9BDCED6A525F46D21716D000000004490000000004490000000000000000000000000000000000000N1209000000395                 AE8BA67A298451A81C9A395002EE8224
00013906330044ISENTO        OLIDIO ITALVINO HEICHERLT          RS340088736       20120915210010000003619B6A4B26F7BD4489094882C167FFD42E000000004490000000004490000000000000000000000000000000000000N1209000000396                 D507BAE82B7381BAA21BA72BC606A219
000567344920871034050227    VILSON JOSE SPIES                  RS340089057       201209152100100000036202BC3253812BD10B68672EA1A1EDF9AB000000004490000000004490000000000000000000000000000000000000N1209000000397                 4DD781C0CA2EAA81334ADFE38E57A753
000019828470508068671737    CARLA ANDREIA ULRICH               RS340089137       2012091521001000000363DBF356D5FFAB28E340DE2F0C942B0A16000000004490000000004490000000000000000000000000000000000000N1209000000398                 60015F240F75ADB2046BA7CB00FE4417
00089785215091ISENTO        CLAUDIO FEIDEN                     RS340088089       2012091521001000000364CA5A345A12B2B7E0DCCEDBB3A93EDF62000000004490000000004490000000000000000000000000000000000000N1209000000399                 5E3B6CC213BB5FE0208BFC175854BA62
000332211030347023919918    DAVI JOSÈ ANGST                    RS340088170       2012091521001000000365B1CF56C4D6E734CC11C7FCCCE87255F6000000004490000000004490000000000000000000000000000000000000N1209000000400                 81EF16900DB8CEF123EAC5C19EB5A2B0
00022669825087ISENTO        HELMUTH SEGER                      RS340088290       2012091521001000000366E963375106B21350F76FFB9B27BC607D000000004490000000004490000000000000000000000000000000000000N1209000000401                 C987A21AA5B8A2557ADC47F4D01A2E44
00066632234020ISENTO        INACIO ALOISIO MOMBACH             RS340088310       2012091521001000000367CD524E6B93D58CA4A0EC3857353F0879000000004490000000004490000000000000000000000000000000000000N1209000000402                 6BE9F4C1A9C9C739F67230C763037D31
00074919008015ISENTO        JAQUELINE MIETH                    RS340088351       2012091521001000000368BFDA3ADC3F4F484BA944212C88E9DAE9000000008980000000008980000000000000000000000000000000000000N1209000000403                 EC20AF06EABC0CDF37CC38C705324E0D
91831792000100ISENTO        JO„O DELMAR SCHREINER              RS140088354       20120915210010000003693815DC148800BEEA66BBC32C83F84550000000008980000000008980000000000000000000000000000000000000N1209000000405                 CFCD2E8829B3EDB9A66149D2064715B9
00066140501091ISENTO        MARIA HELENA AMES                  RS340088481       20120915210010000003705896557F13F988851B538C405B0C9C5B000000004490000000004490000000000000000000000000000000000000N1209000000407                 D528AEFE3C75019F0D21DAE67144147F
000447223700875034929744    MARILDA MARIA KRONBAUER KLERING    RS340088489       201209152100100000037169BA92BA31959D9B378C44E7B3B700F1000000004490000000004490000000000000000000000000000000000000N1209000000408                 73BFFC72004C91A80152A69A2A99484A
00001697907970ISENTO        MARLISE GIEHL KLEIN                RS340088460       2012091521001000000372BF9A1541E1DDCE7E2ED2BE40661BD9A3000000004490000000004490000000000000000000000000000000000000N1209000000409                 A92DC40DB692605F166BD7852A2F5392
00090303628049ISENTO        MONICA REGINA BOREK SEGER          RS340088856       2012091521001000000373634D05EA18CDF662982A8B436A70469F000000004490000000004490000000000000000000000000000000000000N1209000000410                 8F750D4FAB22B30FA25013917DF094AC
03941524000175ISENTO        PARTIDO PMDB SANTO CRISTO          RS140089139       201209152100100000037482122DD0DA13530E26E2F878414BA7A7000000004490000000004490000000000000000000000000000000000000N1209000000411                 11E53EAF7D34A2CFD6B18268E544E8F6
00049657844053ISENTO        RAQUEL BANDEIRÛ                    RS340088590       2012091521001000000375338703EA3F8AC4D914104BB171329CB0000000004490000000004490000000000000000000000000000000000000N1209000000412                 72E1957D36B20ABB60DD7489E0E8CC39
00059004452087ISENTO        RENE LEO HEINECK                   RS340088589       20120915210010000003769A567A2825444731F163F01248AC0A14000000004780000000004780000000000000000000000000000000000000N1209000000413                 29F3A60D0115805DC839C902BFD2B33D
00054855306053ISENTO        VALDECIR  ARRUDA DE LIMA           RS340088625       201209152100100000037711DC285F18B2CC6FCEDF3505042ACA0B000000004490000000004490000000000000000000000000000000000000N1209000000415                 EB4577CFA5EAE642F79F87B2D81B8CFC
00039126145049ISENTO        AFONSO LUIZ LENZ                   RS340087997       2012091521001000000378763EF7848942391273F92644F9C6E3C4000000004490000000004490000000000000000000000000000000000000N1209000000416                 73B1F27CA45DBDFCA83EBF7573452734
000016755640195089038607    ANA ELENA PERSCH COLLING           RS340087998       2012091521001000000379DFC9963C54FDBFF2B0006EA00303CEB7000000004490000000004490000000000000000000000000000000000000N1209000000417                 9AFDC74B1C18EA81D21D8610ED04F022
000227299680912020116204    ARI AFONSO ADAMS                   RS340087994       2012091521001000000380BFACBE5C7BC0826840FC5AC2D5E6DE34000000004490000000004490000000000000000000000000000000000000N1209000000418                 36AFFEC87C6370D94F844196B1523FEE
000139068440724025308158    ARLINDO ANDRÈ HEKLER               RS340087999       20120915210010000003810071866C2C99AA532A84E998847B619E000000008530000000008530000000000000000000000000000000000000N1209000000419                 4773DBB742BBE1D9480C962B34F42B57
00018201784049ISENTO        CARLOS VICENTE JAESCHKE            RS340088107       201209152100100000038206BE04FF7135CC4A21FFFA1CB88ACF63000000004490000000004490000000000000000000000000000000000000N1209000000421                 72845F7C45F972FA48B8063C9FCD3032
000627135660535050418861    CLASSI ARNOLD                      RS340088108       201209152100100000038399027AB888C7FB2E1FE45BC2190041AE000000004490000000004490000000000000000000000000000000000000N1209000000422                 E58C5053BA2B32526AAF8FEAF2663472
00035642793004ISENTO        EDIO JOSE THOMAS                   RS340088815       2012091521001000000384D29DAE5F5635CE955D5C864AA4DBFE07000000004490000000004490000000000000000000000000000000000000N1209000000423                 E5EAB0B53FE18CF804542A3BE5E24A44
