00100001R01  041 2008411698000140                    00000 000000000000  CNTSISTEMAS                                                                                                   000000011007201300000000                                 
0010001300000P 0100000 000000000000  0                   1110 1              1008201300000000000100000000 02 100720131100720130000000000000000000000000000000000000000000000000000000000000000000001                        30011  090000000000 
0010002300001Q 011000001371854050DJONATAN ELIAS WAGNER                   RUA CASTELO BRANCO                      VILA OPERARIA  98960000SANTO CRISTO   RS0000000000000000                                        0010                           
0010003300002S 01300000000000000000000000000000000000000000000000000000000000000000000000000000000000000000000000000000000000000000000000000000000000000000000000000000000000000000000000000000000000000000000000000000000                      
00100045         000004000001000000000000010000000000000000000000000000000000000000000000000000000000000000000000000                                                                                                                            
