03300000        1000019738165806035490010205590     001845527           CLAUDIO JOSE LARA             BANCO SANTANDER (BRASIL) S/A            220072012      000935040                                                                          
03356191T01  040 1000019738165806001845527           035490010205590     CLAUDIO JOSE LARA                                                                                             0000093520072012                                         
0335619300001T 06035490010205590        0000000619086261908          20072012000000000004490033379900000000000000000000061908001000088985164872ORLANDO DE JESUS DA ROCHA               00102055900000000000000000300000000                      
0335619300002U 060000000000000000000000000000000000000000000000000000000000000000000000044900000000000044900000000000000000000000000000002007201223072012000000000000000000000000000                              000                           
0335619300003T 06035490010205590        0000000619450261945          20072012000000000006490033035490000000000000000000061945001000016001562822NORYUKI OKA                             00102055900000000000000000300000000                      
0335619300004U 060000000000000000000000000000000000000000000000000000000000000000000000064900000000000064900000000000000000000000000000002007201223072012000000000000000000000000000                              000                           
0335619300005T 06035490010205590        0000000615927261592          10072012000000000004490033035490000000000000000000061592001000038391524884VANESSA CRISTIANE SOARES CASTRO         00102055900000000000000000300000000                      
0335619300006U 060000000000001050000000000000000000000000000000000000000000000000000000045950000000000045950000000000000000000000000000002007201223072012000000000000000000000000000                              000                           
0335619300007T 06035490010205590        0000000616109261610          10072012000000000004490033035490000000000000000000061610001000014009941871SELMA CRISTINA GONCALVES                00102055900000000000000000300000000                      
0335619300008U 060000000000001050000000000000000000000000000000000000000000000000000000045950000000000045950000000000000000000000000000002007201223072012000000000000000000000000000                              000                           
0335619300009T 06035490010205590        0000000616915261691          10072012000000000006490033035490000000000000000000061691001000029747571897ADRIANO PERASSOLI                       00102055900000000000000000300000000                      
0335619300010U 060000000000001510000000000000000000000000000000000000000000000000000000066410000000000066410000000000000000000000000000002007201223072012000000000000000000000000000                              000                           
0335619300011T 06035490010205590        0000000618802261880          20072012000000000004490033035490000000000000000000061880001000026724166802IVANILDA DIAS DE BARROS                 00102055900000000000000000300000000                      
0335619300012U 060000000000000000000000000000000000000000000000000000000000000000000000044900000000000044900000000000000000000000000000002007201223072012000000000000000000000000000                              000                           
0335619300013T 06035490010205590        0000000616893261689          10072012000000000004490033035490000000000000000000061689001000036057258487MARCOS SEVERINO DE SANTANA              00102055900000000000000000300000000                      
0335619300014U 060000000000001050000000000000000000000000000000000000000000000000000000045950000000000045950000000000000000000000000000002007201223072012000000000000000000000000000                              000                           
0335619300015T 06035490010205590        0000000618888261888          20072012000000000007490033035490000000000000000000061888001000029273758878CELIO  ROBERTO CONSTANTINO              00102055900000000000000000300000000                      
0335619300016U 060000000000000000000000000000000000000000000000000000000000000000000000074900000000000074900000000000000000000000000000002007201223072012000000000000000000000000000                              000                           
0335619300017T 06035490010205590        0000000615803261580          10072012000000000007490033223220000000000000000000061580001000005262128882ADEMIR FERREIRA DE MEDEIROS             00102055900000000000000000300000000                      
0335619300018U 060000000000001750000000000000000000000000000000000000000000000000000000076650000000000076650000000000000000000000000000002007201223072012000000000000000000000000000                              000                           
0335619300019T 06035490010205590        0000000619264261926          20072012000000000004490033077300000000000000000000061926001000026161725851MARINEIDE AVELINO DA SILVA              00102055900000000000000000300000000                      
0335619300020U 060000000000000000000000000000000000000000000000000000000000000000000000044900000000000044900000000000000000000000000000002007201223072012000000000000000000000000000                              000                           
0335619300021T 06035490010205590        0000000618500261850          20072012000000000014990104003420000000000000000000061850001000007280877826ARMANDO DE SOUZA FIGUEREDO JUNIOR       00102055900000000000000000400000000                      
0335619300022U 060000000000000000000000000000000000000000000000000000000000000000000000149900000000000149900000000000000000000000000000002007201223072012000000000000000000000000000                              000                           
0335619300023T 06035490010205590        0000000619663261966          20072012000000000006490104003420000000000000000000061966001000064740080400JOSE ROSARIO SANTOS SILVA               00102055900000000000000000400000000                      
0335619300024U 060000000000000000000000000000000000000000000000000000000000000000000000064900000000000064900000000000000000000000000000002007201223072012000000000000000000000000000                              000                           
0335619300025T 06035490010205590        0000000619337261933          20072012000000000007490104003420000000000000000000061933001000030587887893SELMA MARIA PEDRA BORGES                00102055900000000000000000400000000                      
0335619300026U 060000000000000000000000000000000000000000000000000000000000000000000000074900000000000074900000000000000000000000000000002007201223072012000000000000000000000000000                              000                           
0335619300027T 06035490010205590        0000000619353261935          20072012000000000006490104003120000000000000000000061935001000038644723855MARCO AURELIO PAES MACHADO              00102055900000000000000000400000000                      
0335619300028U 060000000000000000000000000000000000000000000000000000000000000000000000064900000000000064900000000000000000000000000000002007201223072012000000000000000000000000000                              000                           
0335619300029T 06035490010205590        0000000619361261936          20072012000000000004490104003120000000000000000000061936001000049744402920FATIMA ALVES DE ANDRADE                 00102055900000000000000000400000000                      
0335619300030U 060000000000000000000000000000000000000000000000000000000000000000000000044900000000000044900000000000000000000000000000002007201223072012000000000000000000000000000                              000                           
0335619300031T 06035490010205590        0000000619388261938          20072012000000000004490104003420000000000000000000061938001000042883598568MARIA DA CONCEICAO SANTANA DE SOUZA     00102055900000000000000000400000000                      
0335619300032U 060000000000000000000000000000000000000000000000000000000000000000000000044900000000000044900000000000000000000000000000002007201223072012000000000000000000000000000                              000                           
0335619300033T 06035490010205590        0000000619507261950          20072012000000000006490104003420000000000000000000061950001000014050523841ROBERTO ANTUNES FERREIRA                00102055900000000000000000400000000                      
0335619300034U 060000000000000000000000000000000000000000000000000000000000000000000000064900000000000064900000000000000000000000000000002007201223072012000000000000000000000000000                              000                           
0335619300035T 06035490010205590        0000000618616261861          20072012000000000006490104003420000000000000000000061861001000033980026841ELBA DENISE GALDINO                     00102055900000000000000000400000000                      
0335619300036U 060000000000000000000000000000000000000000000000000000000000000000000000064900000000000064900000000000000000000000000000002007201223072012000000000000000000000000000                              000                           
0335619300037T 06035490010205590        0000000618632261863          20072012000000000007490237003280000000000000000000061863001000015407277859PATRICIA SPINARDI                       00102055900000000000000000400000000                      
0335619300038U 060000000000000000000000000000000000000000000000000000000000000000000000074900000000000074900000000000000000000000000000002007201223072012000000000000000000000000000                              000                           
0335619300039T 06035490010205590        0000000618772261877          20072012000000000007490237003160000000000000000000061877001000017386234830GIANI  DO CARMO VALLE NOGUEIRA          00102055900000000000000000400000000                      
0335619300040U 060000000000000000000000000000000000000000000000000000000000000000000000074900000000000074900000000000000000000000000000002007201223072012000000000000000000000000000                              000                           
0335619300041T 06035490010205590        0000000618870261887          20072012000000000007490341001640000000000000000000061887001000037115637830FRANCIELE DORVALO DE SOUZA              00102055900000000000000000400000000                      
0335619300042U 060000000000000000000000000000000000000000000000000000000000000000000000074900000000000074900000000000000000000000000000002007201223072012000000000000000000000000000                              000                           
0335619300043T 06035490010205590        0000000619515261951          20072012000000000004490237016140000000000000000000061951001000011038813883ROSEMARY DE FATIMA AMGARTEN TORRES      00102055900000000000000000400000000                      
0335619300044U 060000000000000000000000000000000000000000000000000000000000000000000000044900000000000044900000000000000000000000000000002007201223072012000000000000000000000000000                              000                           
0335619300045T 06035490010205590        0000000619523261952          20072012000000000006490341001640000000000000000000061952001000017855590870ROSANA CRISTINA RODRIGUES PEREIRA LOPES 00102055900000000000000000400000000                      
0335619300046U 060000000000000000000000000000000000000000000000000000000000000000000000064900000000000064900000000000000000000000000000002007201223072012000000000000000000000000000                              000                           
0335619300047T 06035490010205590        0000000619531261953          20072012000000000012190104003420000000000000000000061953001000025830281899MARCO ANTONIO DA CRUZ                   00102055900000000000000000400000000                      
0335619300048U 060000000000000000000000000000000000000000000000000000000000000000000000121900000000000121900000000000000000000000000000002007201223072012000000000000000000000000000                              000                           
0335619300049T 06035490010205590        00000001285972290612505      2007201200000000001499000100977                         001000017277281810ARIANA MARIA DE BARROS                  00102055900000000000000000400000000                      
0335619300050U 060000000000000000000000000000000000000000000000000000000000000000000000149900000000000149900000000000000000000000000000002007201223072012000000000000000000000000000                              000                           
0335619300051T 06035490010205590        00000001286602290612203      2007201200000000000750410400342                         001000030836809882DIMAS NICACIO DA SILVA                  00102055900000000000000000400000000                      
0335619300052U 060000000000000000000000000000000000000000000000000000000000000000000000075040000000000075040000000000000000000000000000002007201223072012000000000000000000000000000                              000                           
0335619300053T 06035490010205590        0000000619094261909          20072012000000000004490104003420000000000000000000061909001000009919080829ANTONIO FERREIRA JUNIOR                 00102055900000000000000000400000000                      
0335619300054U 060000000000000000000000000000000000000000000000000000000000000000000000044900000000000044900000000000000000000000000000002007201223072012000000000000000000000000000                              000                           
0335619300055T 06035490010205590        0000000617008261700          10072012000000000006490341001640000000000000000000061700001000013426897806VERONICA CANDIDO                        00102055900000000000000000400000000                      
0335619300056U 060000000000001510000000000000000000000000000000000000000000000000000000066410000000000066410000000000000000000000000000002007201223072012000000000000000000000000000                              000                           
0335619300057T 06035490010205590        0000000619124261912          20072012000000000007990104003420000000000000000000061912001000030561080801MARINALVA PEREIRA DO NASCIMENTO         00102055900000000000000000400000000                      
0335619300058U 060000000000000000000000000000000000000000000000000000000000000000000000079900000000000079900000000000000000000000000000002007201223072012000000000000000000000000000                              000                           
0335619300059T 06035490010205590        0000000619248261924          20072012000000000004490001009770000000000000000000061924001000031300957808MARIA APARECIDA MARRUCHELI              00102055900000000000000000400000000                      
0335619300060U 060000000000000000000000000000000000000000000000000000000000000000000000044900000000000044900000000000000000000000000000002007201223072012000000000000000000000000000                              000                           
0335619300061T 06035490010205590        0000000619280261928          20072012000000000004490104003420000000000000000000061928001000032278439863KATIA APARECIDA MORAES                  00102055900000000000000000400000000                      
0335619300062U 060000000000000000000000000000000000000000000000000000000000000000000000044900000000000044900000000000000000000000000000002007201223072012000000000000000000000000000                              000                           
0335619300063T 06035490010205590        0000000619302261930          20072012000000000006490104003420000000000000000000061930001000018225775864CLAUDIO ROBERTO DOS SANTOS              00102055900000000000000000400000000                      
0335619300064U 060000000000000000000000000000000000000000000000000000000000000000000000064900000000000064900000000000000000000000000000002007201223072012000000000000000000000000000                              000                           
0335619300065T 06035490010205590        0000000619590261959          20072012000000000006490104003420000000000000000000061959001000003412804886ALOISIO DEZIDERIO DA SILVA              00102055900000000000000000400000000                      
0335619300066U 060000000000000000000000000000000000000000000000000000000000000000000000064900000000000064900000000000000000000000000000002007201223072012000000000000000000000000000                              000                           
0335619300067T 06035490010205590        0000000619604261960          20072012000000000006490104003420000000000000000000061960001000026851865572VICENTE JOSE DE OLIVEIRA                00102055900000000000000000400000000                      
0335619300068U 060000000000000000000000000000000000000000000000000000000000000000000000064900000000000064900000000000000000000000000000002007201223072012000000000000000000000000000                              000                           
0335619300069T 06035490010205590        0000000619655261965          20072012000000000005841001035830000000000000000000061965001000025486082800ROBERTO SEGATO JUNIOR                   00102055900000000000000000400000000                      
0335619300070U 060000000000000000000000000000000000000000000000000000000000000000000000058410000000000058410000000000000000000000000000002007201223072012000000000000000000000000000                              000                           
0335619300071T 06035490010205590        0000000619000261900          20072012000000000007490104003420000000000000000000061900001000074479547991ANTONIO AILTON DE FARIAS                00102055900000000000000000400000000                      
0335619300072U 060000000000000000000000000000000000000000000000000000000000000000000000074900000000000074900000000000000000000000000000002007201223072012000000000000000000000000000                              000                           
0335619300073T 06035490010205590        0000000619191261919          20072012000000000007490104003420000000000000000000061919001000038565922880JEFFERSON RODRIGO GOMES                 00102055900000000000000000400000000                      
0335619300074U 060000000000000000000000000000000000000000000000000000000000000000000000074900000000000074900000000000000000000000000000002007201223072012000000000000000000000000000                              000                           
0335619300075T 06035490010205590        0000000616389261638          10072012000000000007990104003420000000000000000000061638001000030793112800REGINALDO LUCAS MOREIRA                 00102055900000000000000000400000000                      
0335619300076U 060000000000001860000000000000000000000000000000000000000000000000000000081760000000000081760000000000000000000000000000002007201223072012000000000000000000000000000                              000                           
0335619300077T 06035490010205590        0000000618110261811          15072012000000000006490399009200000000000000000000061811001000038676359865ALINE DA SILVA MARQUES                  00102055900000000000000000400000000                      
0335619300078U 060000000000001410000000000000000000000000000000000000000000000000000000066310000000000066310000000000000000000000000000002007201223072012000000000000000000000000000                              000                           
0335619300079T 06035490010205590        0000000618284261828          20072012000000000004490104003420000000000000000000061828001000006274111859ANA CELIA DAS NEVES CARDOSO             00102055900000000000000000400000000                      
0335619300080U 060000000000000000000000000000000000000000000000000000000000000000000000044900000000000044900000000000000000000000000000002007201223072012000000000000000000000000000                              000                           
03356195         0000800001500000000000097308200000000000000000000000000000000000000000000000000000000000000000000000000936                                                                                                                     
03356199         000001000084                                                                                                                                                                                                                   
