03300000        1000019738165806035490010205590     001845527           CLAUDIO JOSE LARA             BANCO SANTANDER (BRASIL) S/A            225022013      001082040                                                                          
03354651T01  040 1000019738165806001845527           035490010205590     CLAUDIO JOSE LARA                                                                                             0000108225022013                                         
0335465300001T 06035490010205590        0000000645419264541          20022013000000000007490033379900000000000000000000064541001000015056543861NILCE ELENA DE PAULA FERRAZ             00102055900000000000000000300000000                      
0335465300002U 060000000000001620000000000000000000000000000000000000000000000000000000076520000000000076520000000000000000000000000000002502201326022013000000000000000000000000000                              000                           
0335465300003T 06035490010205590        0000000645850264585          20022013000000000006490033379900000000000000000000064585001000003412804886ALOISIO DEZIDERIO DA SILVA              00102055900000000000000000300000000                      
0335465300004U 060000000000001410000000000000000000000000000000000000000000000000000000066310000000000066310000000000000000000000000000002502201326022013000000000000000000000000000                              000                           
0335465300005T 06035490010205590        0000000645869264586          20022013000000000006490033035490000000000000000000064586001000032205688820MILENE SANTOS CARVALHO                  00102055900000000000000000300000000                      
0335465300006U 060000000000001410000000000000000000000000000000000000000000000000000000066310000000000066310000000000000000000000000000002502201326022013000000000000000000000000000                              000                           
0335465300007T 06035490010205590        0000000643718264371          10022013000000000007490033035490000000000000000000064371001000034288362865TATIANE MACHADO BARBOSA                 00102055900000000000000000300000000                      
0335465300008U 060000000000001870000000000000000000000000000000000000000000000000000000076770000000000076770000000000000000000000000000002502201326022013000000000000000000000000000                              000                           
0335465300009T 06035490010205590        0000000645664264566          20022013000000000007490033035490000000000000000000064566001000037761045895ANDERSON MARTINS                        00102055900000000000000000300000000                      
0335465300010U 060000000000001620000000000000000000000000000000000000000000000000000000076520000000000076520000000000000000000000000000002502201326022013000000000000000000000000000                              000                           
0335465300011T 06035490010205590        0000000644471264447          25022013000000000004490033035490000000000000000000064447001000042630168824NATAN HENRIQUE DE MELLO LOPES           00102055900000000000000000300000000                      
0335465300012U 060000000000000000000000000000000000000000000000000000000000000000000000044900000000000044900000000000000000000000000000002502201326022013000000000000000000000000000                              000                           
0335465300013T 06035490010205590        0000000645613264561          20022013000000000007490104003420000000000000000000064561001000004543060830VIRGINIA LOPES                          00102055900000000000000000400000000                      
0335465300014U 060000000000001620000000000000000000000000000000000000000000000000000000076520000000000076520000000000000000000000000000002502201326022013000000000000000000000000000                              000                           
0335465300015T 06035490010205590        0000000645800264580          20022013000000000007490104003420000000000000000000064580001000028712375810LUCELIA TOSHIO SAEKI DA CRUZ            00102055900000000000000000400000000                      
0335465300016U 060000000000001620000000000000000000000000000000000000000000000000000000076520000000000076520000000000000000000000000000002502201326022013000000000000000000000000000                              000                           
0335465300017T 06035490010205590        0000000644366264436          15022013000000000004490341001640000000000000000000064436001000017018464897NOEMI VANDERLI DA SILVA MANSO           00102055900000000000000000400000000                      
0335465300018U 060000000000001050000000000000000000000000000000000000000000000000000000045950000000000045950000000000000000000000000000002502201326022013000000000000000000000000000                              000                           
0335465300019T 06035490010205590        0000000644781264478          28022013000000000007490237016140000000000000000000064478001000015057717812CARLOS EDUARDO PIRES                    00102055900000000000000000400000000                      
0335465300020U 060000000000001650000000000000000000000000000000000000000000000000000000076550000000000076550000000000000000000000000000002502201326022013000000000000000000000000000                              000                           
0335465300021T 06035490010205590        0000000644218264421          15022013000000000006490104003120000000000000000000064421001000007285133825EDILSON DIAS                            00102055900000000000000000400000000                      
0335465300022U 060000000000001510000000000000000000000000000000000000000000000000000000066410000000000066410000000000000000000000000000002502201326022013000000000000000000000000000                              000                           
0335465300023T 06035490010205590        0000000645524264552          20022013000000000009990104003420000000000000000000064552001000028967164831ARNALDINO CLAYTON BRAGA                 00102055900000000000000000400000000                      
0335465300024U 060000000000002200000000000000000000000000000000000000000000000000000000102100000000000102100000000000000000000000000000002502201326022013000000000000000000000000000                              000                           
0335465300025T 09035490010205590        0000000643718264371          10022013000000000007490033035490000000000000000000064371001000034288362865TATIANE MACHADO BARBOSA                 00102055900000000000002971000000000                      
0335465300026U 090000000000000000000000000000000000000000000000000000000000000000000000000000000000000000000000000000000000000000000000002502201325022013000000000000000000000000000                              000                           
0335465300027T 09035490010205590        0000000645613264561          20022013000000000007490033035490000000000000000000064561001000004543060830VIRGINIA LOPES                          00102055900000000000002971000000000                      
0335465300028U 090000000000000000000000000000000000000000000000000000000000000000000000000000000000000000000000000000000000000000000000002502201325022013000000000000000000000000000                              000                           
0335465300029T 02035490010205590        0000000647306264730          15032013000000000004490033035490000000000000000000064730001000031656223880GILMARA DE OLIVEIRA                     00102055900000000000002350000000000                      
0335465300030U 020000000000000000000000000000000000000000000000000000000000000000000000000000000000000000000000000000000000000000000000002502201325022013000000000000000000000000000                              000                           
0335465300031T 02035490010205590        0000000647543264754          15032013000000000007490033035490000000000000000000064754001000002696019886VALDECI PEREIRA DA SILVA                00102055900000000000002350000000000                      
0335465300032U 020000000000000000000000000000000000000000000000000000000000000000000000000000000000000000000000000000000000000000000000002502201325022013000000000000000000000000000                              000                           
0335465300033T 02035490010205590        0000000647659264765          15032013000000000006490033035490000000000000000000064765001000029011563808MARCO ANTONIO DE JESUS                  00102055900000000000002350000000000                      
0335465300034U 020000000000000000000000000000000000000000000000000000000000000000000000000000000000000000000000000000000000000000000000002502201325022013000000000000000000000000000                              000                           
0335465300035T 02035490010205590        0000000647667264766          15032013000000000006490033035490000000000000000000064766001000034910711864DARLENE RODRIGUES DE OLIVEIRA           00102055900000000000002350000000000                      
0335465300036U 020000000000000000000000000000000000000000000000000000000000000000000000000000000000000000000000000000000000000000000000002502201325022013000000000000000000000000000                              000                           
0335465300037T 02035490010205590        0000000647675264767          15032013000000000006490033035490000000000000000000064767001000034542712826JULIANO COSTA                           00102055900000000000002350000000000                      
0335465300038U 020000000000000000000000000000000000000000000000000000000000000000000000000000000000000000000000000000000000000000000000002502201325022013000000000000000000000000000                              000                           
0335465300039T 02035490010205590        0000000647683264768          15032013000000000007490033035490000000000000000000064768001000032724015800ALINE ESTEVAM MACIEL                    00102055900000000000002350000000000                      
0335465300040U 020000000000000000000000000000000000000000000000000000000000000000000000000000000000000000000000000000000000000000000000002502201325022013000000000000000000000000000                              000                           
0335465300041T 02035490010205590        0000000647748264774          15032013000000000006490033035490000000000000000000064774001000038676359865ALINE DA SILVA MARQUES                  00102055900000000000002350000000000                      
0335465300042U 020000000000000000000000000000000000000000000000000000000000000000000000000000000000000000000000000000000000000000000000002502201325022013000000000000000000000000000                              000                           
0335465300043T 02035490010205590        0000000647357264735          15032013000000000004490033035490000000000000000000064735001000079489877891JOSE ARNALDO FERREIRA DE SOUZA          00102055900000000000002350000000000                      
0335465300044U 020000000000000000000000000000000000000000000000000000000000000000000000000000000000000000000000000000000000000000000000002502201325022013000000000000000000000000000                              000                           
0335465300045T 02035490010205590        0000000647560264756          15032013000000000006490033035490000000000000000000064756001000067617590997IVANILDO RODRIGUES DA SILVA             00102055900000000000002350000000000                      
0335465300046U 020000000000000000000000000000000000000000000000000000000000000000000000000000000000000000000000000000000000000000000000002502201325022013000000000000000000000000000                              000                           
0335465300047T 02035490010205590        0000000647578264757          15032013000000000006490033035490000000000000000000064757001000029015209871SIMONE QUEIROZ DE OLIVEIRA              00102055900000000000002350000000000                      
0335465300048U 020000000000000000000000000000000000000000000000000000000000000000000000000000000000000000000000000000000000000000000000002502201325022013000000000000000000000000000                              000                           
0335465300049T 02035490010205590        0000000647586264758          15032013000000000004490033035490000000000000000000064758001000016004690864VANDERLEI MESSIAS                       00102055900000000000002350000000000                      
0335465300050U 020000000000000000000000000000000000000000000000000000000000000000000000000000000000000000000000000000000000000000000000002502201325022013000000000000000000000000000                              000                           
0335465300051T 02035490010205590        0000000647594264759          15032013000000000006490033035490000000000000000000064759001000011389084876MARIA TEREZINHA DE ALMEIDA FONSECA      00102055900000000000002350000000000                      
0335465300052U 020000000000000000000000000000000000000000000000000000000000000000000000000000000000000000000000000000000000000000000000002502201325022013000000000000000000000000000                              000                           
0335465300053T 02035490010205590        0000000647608264760          15032013000000000007990033035490000000000000000000064760001000016728261877ELVIRA APARECIDA ARANHA                 00102055900000000000002350000000000                      
0335465300054U 020000000000000000000000000000000000000000000000000000000000000000000000000000000000000000000000000000000000000000000000002502201325022013000000000000000000000000000                              000                           
0335465300055T 02035490010205590        0000000647756264775          15032013000000000004490033035490000000000000000000064775001000029319069808MAURICEA MARIA FERREIRA DA SILVA        00102055900000000000002350000000000                      
0335465300056U 020000000000000000000000000000000000000000000000000000000000000000000000000000000000000000000000000000000000000000000000002502201325022013000000000000000000000000000                              000                           
0335465300057T 02035490010205590        0000000647764264776          15032013000000000006490033035490000000000000000000064776001000009930893806EZEQUIEL MIRANDA DA SILVA               00102055900000000000002350000000000                      
0335465300058U 020000000000000000000000000000000000000000000000000000000000000000000000000000000000000000000000000000000000000000000000002502201325022013000000000000000000000000000                              000                           
0335465300059T 02035490010205590        0000000647365264736          15032013000000000004490033035490000000000000000000064736001000038825863896LEANDRO MARCOS BARBOSA                  00102055900000000000002350000000000                      
0335465300060U 020000000000000000000000000000000000000000000000000000000000000000000000000000000000000000000000000000000000000000000000002502201325022013000000000000000000000000000                              000                           
0335465300061T 02035490010205590        0000000647772264777          15032013000000000006490033035490000000000000000000064777001000031649644809CARLOS RAFAEL MARQUES FURLANETI         00102055900000000000002350000000000                      
0335465300062U 020000000000000000000000000000000000000000000000000000000000000000000000000000000000000000000000000000000000000000000000002502201325022013000000000000000000000000000                              000                           
0335465300063T 02035490010205590        0000000647780264778          15032013000000000007490033035490000000000000000000064778001000050176188304MARIA DALVANIR FIRMINO LIMA             00102055900000000000002350000000000                      
0335465300064U 020000000000000000000000000000000000000000000000000000000000000000000000000000000000000000000000000000000000000000000000002502201325022013000000000000000000000000000                              000                           
0335465300065T 02035490010205590        0000000647373264737          15032013000000000004490033035490000000000000000000064737001000032011917875CIBELE SAMPAIO                          00102055900000000000002350000000000                      
0335465300066U 020000000000000000000000000000000000000000000000000000000000000000000000000000000000000000000000000000000000000000000000002502201325022013000000000000000000000000000                              000                           
0335465300067T 02035490010205590        0000000647381264738          15032013000000000004490033035490000000000000000000064738001000027152855404MARILENE BARBOSA DE LIMA                00102055900000000000002350000000000                      
0335465300068U 020000000000000000000000000000000000000000000000000000000000000000000000000000000000000000000000000000000000000000000000002502201325022013000000000000000000000000000                              000                           
0335465300069T 02035490010205590        0000000647390264739          15032013000000000004490033035490000000000000000000064739001000038903988809GIOVANNI CESAR OLIVEIRA DE AZEVEDO      00102055900000000000002350000000000                      
0335465300070U 020000000000000000000000000000000000000000000000000000000000000000000000000000000000000000000000000000000000000000000000002502201325022013000000000000000000000000000                              000                           
0335465300071T 02035490010205590        0000000647403264740          15032013000000000004490033035490000000000000000000064740001000007585341830DONIZETE FERREIRA                       00102055900000000000002350000000000                      
0335465300072U 020000000000000000000000000000000000000000000000000000000000000000000000000000000000000000000000000000000000000000000000002502201325022013000000000000000000000000000                              000                           
0335465300073T 02035490010205590        0000000647799264779          15032013000000000006490033035490000000000000000000064779001000031811259898RITA DE CASSIA DE MELO                  00102055900000000000002350000000000                      
0335465300074U 020000000000000000000000000000000000000000000000000000000000000000000000000000000000000000000000000000000000000000000000002502201325022013000000000000000000000000000                              000                           
0335465300075T 02035490010205590        0000000647802264780          15032013000000000006490033035490000000000000000000064780001000013900569886JOSE ROBERTO RIBEIRO DE SOUSA           00102055900000000000002350000000000                      
0335465300076U 020000000000000000000000000000000000000000000000000000000000000000000000000000000000000000000000000000000000000000000000002502201325022013000000000000000000000000000                              000                           
0335465300077T 02035490010205590        0000000647691264769          15032013000000000007490033035490000000000000000000064769001000025763588886FATIMA DE LOURDES STOCCO DOS SANTOS     00102055900000000000002350000000000                      
0335465300078U 020000000000000000000000000000000000000000000000000000000000000000000000000000000000000000000000000000000000000000000000002502201325022013000000000000000000000000000                              000                           
0335465300079T 02035490010205590        0000000647705264770          15032013000000000004490033035490000000000000000000064770001000016728188851FRANCINALDA DA SILVA VILANOVA OLIVEIRA  00102055900000000000002350000000000                      
0335465300080U 020000000000000000000000000000000000000000000000000000000000000000000000000000000000000000000000000000000000000000000000002502201325022013000000000000000000000000000                              000                           
0335465300081T 02035490010205590        0000000647284264728          15032013000000000006490033035490000000000000000000064728001000007285133825EDILSON DIAS                            00102055900000000000002350000000000                      
0335465300082U 020000000000000000000000000000000000000000000000000000000000000000000000000000000000000000000000000000000000000000000000002502201325022013000000000000000000000000000                              000                           
0335465300083T 02035490010205590        0000000647292264729          15032013000000000006490033035490000000000000000000064729001000034062359804FABIANA PIMENTEL DA SILVA               00102055900000000000002350000000000                      
0335465300084U 020000000000000000000000000000000000000000000000000000000000000000000000000000000000000000000000000000000000000000000000002502201325022013000000000000000000000000000                              000                           
0335465300085T 02035490010205590        0000000647713264771          15032013000000000006490033035490000000000000000000064771001000038739438830ANDERSON DE CARVALHO VAZ PINTO          00102055900000000000002350000000000                      
0335465300086U 020000000000000000000000000000000000000000000000000000000000000000000000000000000000000000000000000000000000000000000000002502201325022013000000000000000000000000000                              000                           
0335465300087T 02035490010205590        0000000647721264772          15032013000000000007490033035490000000000000000000064772001000034505139824MAYRA MAYUMI MORI PAULUCCI              00102055900000000000002350000000000                      
0335465300088U 020000000000000000000000000000000000000000000000000000000000000000000000000000000000000000000000000000000000000000000000002502201325022013000000000000000000000000000                              000                           
0335465300089T 02035490010205590        0000000647730264773          15032013000000000006490033035490000000000000000000064773001000034726818880ROBSON SARAIVA DE SIQUEIRA CAMPOS       00102055900000000000002350000000000                      
0335465300090U 020000000000000000000000000000000000000000000000000000000000000000000000000000000000000000000000000000000000000000000000002502201325022013000000000000000000000000000                              000                           
0335465300091T 02035490010205590        0000000647829264782          15032013000000000007490033035490000000000000000000064782001000012265166880CIBELE APARECIDA ESCOURA SBRISSA        00102055900000000000002350000000000                      
0335465300092U 020000000000000000000000000000000000000000000000000000000000000000000000000000000000000000000000000000000000000000000000002502201325022013000000000000000000000000000                              000                           
0335465300093T 02035490010205590        0000000647837264783          15032013000000000007490033035490000000000000000000064783001000029270975851ALBERTO CARLOS RUFINO                   00102055900000000000002350000000000                      
0335465300094U 020000000000000000000000000000000000000000000000000000000000000000000000000000000000000000000000000000000000000000000000002502201325022013000000000000000000000000000                              000                           
0335465300095T 02035490010205590        0000000647845264784          15032013000000000006490033035490000000000000000000064784001000006925716800MARLENE APARECIDA ALMEIDA ANTIQUEIRA    00102055900000000000002350000000000                      
0335465300096U 020000000000000000000000000000000000000000000000000000000000000000000000000000000000000000000000000000000000000000000000002502201325022013000000000000000000000000000                              000                           
0335465300097T 02035490010205590        0000000647853264785          15032013000000000006490033035490000000000000000000064785001000030363767800ALMIR GOMES DE REZENDE                  00102055900000000000002350000000000                      
0335465300098U 020000000000000000000000000000000000000000000000000000000000000000000000000000000000000000000000000000000000000000000000002502201325022013000000000000000000000000000                              000                           
0335465300099T 02035490010205590        0000000647411264741          15032013000000000007990033035490000000000000000000064741001000040992278805VICTOR BRUNO DE AGUIAR                  00102055900000000000002350000000000                      
0335465300100U 020000000000000000000000000000000000000000000000000000000000000000000000000000000000000000000000000000000000000000000000002502201325022013000000000000000000000000000                              000                           
0335465300101T 02035490010205590        0000000647420264742          15032013000000000004490033035490000000000000000000064742001000004170294890MARIA DA SILVA SANTANA                  00102055900000000000002350000000000                      
0335465300102U 020000000000000000000000000000000000000000000000000000000000000000000000000000000000000000000000000000000000000000000000002502201325022013000000000000000000000000000                              000                           
0335465300103T 02035490010205590        0000000647438264743          15032013000000000009990033035490000000000000000000064743001000033114017860MARCELO BATISTA ALVES                   00102055900000000000002350000000000                      
0335465300104U 020000000000000000000000000000000000000000000000000000000000000000000000000000000000000000000000000000000000000000000000002502201325022013000000000000000000000000000                              000                           
0335465300105T 02035490010205590        0000000647446264744          15032013000000000004490033035490000000000000000000064744001000000300008821JOSE PAULO BARBOSA                      00102055900000000000002350000000000                      
0335465300106U 020000000000000000000000000000000000000000000000000000000000000000000000000000000000000000000000000000000000000000000000002502201325022013000000000000000000000000000                              000                           
0335465300107T 02035490010205590        0000000647454264745          15032013000000000009990033035490000000000000000000064745001000035328349873DIEGO MADISON BURGOS PEDROSA            00102055900000000000002350000000000                      
0335465300108U 020000000000000000000000000000000000000000000000000000000000000000000000000000000000000000000000000000000000000000000000002502201325022013000000000000000000000000000                              000                           
0335465300109T 02035490010205590        0000000647462264746          15032013000000000007490033035490000000000000000000064746001000015057751832REGINALDO TEIXEIRA                      00102055900000000000002350000000000                      
0335465300110U 020000000000000000000000000000000000000000000000000000000000000000000000000000000000000000000000000000000000000000000000002502201325022013000000000000000000000000000                              000                           
0335465300111T 02035490010205590        0000000647470264747          15032013000000000006490033035490000000000000000000064747001000007285020893ADAIR VIEIRA CASTARDELI                 00102055900000000000002350000000000                      
0335465300112U 020000000000000000000000000000000000000000000000000000000000000000000000000000000000000000000000000000000000000000000000002502201325022013000000000000000000000000000                              000                           
0335465300113T 02035490010205590        0000000647489264748          15032013000000000006490033035490000000000000000000064748001000019635796587JOAQUIM JOSE RIBEIRO                    00102055900000000000002350000000000                      
0335465300114U 020000000000000000000000000000000000000000000000000000000000000000000000000000000000000000000000000000000000000000000000002502201325022013000000000000000000000000000                              000                           
0335465300115T 02035490010205590        0000000647497264749          15032013000000000004490033035490000000000000000000064749001000049278584991ENEDINA RAIMUNDA DOS SANTOS             00102055900000000000002350000000000                      
0335465300116U 020000000000000000000000000000000000000000000000000000000000000000000000000000000000000000000000000000000000000000000000002502201325022013000000000000000000000000000                              000                           
0335465300117T 02035490010205590        0000000647500264750          15032013000000000004490033035490000000000000000000064750001000002696457808IVAIL DO CARMO MARTINS                  00102055900000000000002350000000000                      
0335465300118U 020000000000000000000000000000000000000000000000000000000000000000000000000000000000000000000000000000000000000000000000002502201325022013000000000000000000000000000                              000                           
0335465300119T 02035490010205590        0000000647519264751          15032013000000000007490033035490000000000000000000064751001000017277856813VALMIR QUIRINO DE ANDRADE               00102055900000000000002350000000000                      
0335465300120U 020000000000000000000000000000000000000000000000000000000000000000000000000000000000000000000000000000000000000000000000002502201325022013000000000000000000000000000                              000                           
0335465300121T 02035490010205590        0000000647527264752          15032013000000000004490033035490000000000000000000064752001000012300087804BERNADETE LUIZ DOS SANTOS               00102055900000000000002350000000000                      
0335465300122U 020000000000000000000000000000000000000000000000000000000000000000000000000000000000000000000000000000000000000000000000002502201325022013000000000000000000000000000                              000                           
0335465300123T 02035490010205590        0000000647535264753          15032013000000000007490033035490000000000000000000064753001000027698604888MARA CASSIA BATISTA DE SOUZA            00102055900000000000002350000000000                      
0335465300124U 020000000000000000000000000000000000000000000000000000000000000000000000000000000000000000000000000000000000000000000000002502201325022013000000000000000000000000000                              000                           
0335465300125T 02035490010205590        0000000647861264786          15032013000000000004490033035490000000000000000000064786001000026628980898ANTONIA ALVES DO COUTO                  00102055900000000000002350000000000                      
0335465300126U 020000000000000000000000000000000000000000000000000000000000000000000000000000000000000000000000000000000000000000000000002502201325022013000000000000000000000000000                              000                           
0335465300127T 02035490010205590        0000000647870264787          15032013000000000007490033035490000000000000000000064787001000000300978863BENEDITO ANTUNES DOS SANTOS             00102055900000000000002350000000000                      
0335465300128U 020000000000000000000000000000000000000000000000000000000000000000000000000000000000000000000000000000000000000000000000002502201325022013000000000000000000000000000                              000                           
0335465300129T 02035490010205590        0000000647888264788          15032013000000000004490033035490000000000000000000064788001000005151786830AMARILDO APOLINARIO                     00102055900000000000002350000000000                      
0335465300130U 020000000000000000000000000000000000000000000000000000000000000000000000000000000000000000000000000000000000000000000000002502201325022013000000000000000000000000000                              000                           
0335465300131T 02035490010205590        0000000647896264789          15032013000000000004490033035490000000000000000000064789001000035157641869FABIANA RIBEIRO DA SILVA                00102055900000000000002350000000000                      
0335465300132U 020000000000000000000000000000000000000000000000000000000000000000000000000000000000000000000000000000000000000000000000002502201325022013000000000000000000000000000                              000                           
0335465300133T 02035490010205590        0000000647900264790          15032013000000000004490033035490000000000000000000064790001000024818004863FRANCISCO REGINALDO DE AMORIM           00102055900000000000002350000000000                      
0335465300134U 020000000000000000000000000000000000000000000000000000000000000000000000000000000000000000000000000000000000000000000000002502201325022013000000000000000000000000000                              000                           
0335465300135T 02035490010205590        0000000647322264732          15032013000000000004490033035490000000000000000000064732001000017018464897NOEMI VANDERLI DA SILVA MANSO           00102055900000000000002350000000000                      
0335465300136U 020000000000000000000000000000000000000000000000000000000000000000000000000000000000000000000000000000000000000000000000002502201325022013000000000000000000000000000                              000                           
0335465300137T 02035490010205590        0000000647616264761          15032013000000000006490033035490000000000000000000064761001000016612216883CLEUSA CONDIN FERREIRA                  00102055900000000000002350000000000                      
0335465300138U 020000000000000000000000000000000000000000000000000000000000000000000000000000000000000000000000000000000000000000000000002502201325022013000000000000000000000000000                              000                           
0335465300139T 02035490010205590        0000000647624264762          15032013000000000007490033035490000000000000000000064762001000032841556867LUIZ FERNANDO DE OLIVEIRA               00102055900000000000002350000000000                      
0335465300140U 020000000000000000000000000000000000000000000000000000000000000000000000000000000000000000000000000000000000000000000000002502201325022013000000000000000000000000000                              000                           
0335465300141T 02035490010205590        0000000647632264763          15032013000000000006490033035490000000000000000000064763001000024874351867MARIA SILVA DOS SANTOS DE JESUS         00102055900000000000002350000000000                      
0335465300142U 020000000000000000000000000000000000000000000000000000000000000000000000000000000000000000000000000000000000000000000000002502201325022013000000000000000000000000000                              000                           
0335465300143T 02035490010205590        0000000647330264733          15032013000000000004490033035490000000000000000000064733001000004393312856ERONIDES DAMACENO                       00102055900000000000002350000000000                      
0335465300144U 020000000000000000000000000000000000000000000000000000000000000000000000000000000000000000000000000000000000000000000000002502201325022013000000000000000000000000000                              000                           
0335465300145T 02035490010205590        0000000647349264734          15032013000000000009990033035490000000000000000000064734001000026084771866ALEXANDRO DA SILVA MELLO                00102055900000000000002350000000000                      
0335465300146U 020000000000000000000000000000000000000000000000000000000000000000000000000000000000000000000000000000000000000000000000002502201325022013000000000000000000000000000                              000                           
0335465300147T 02035490010205590        0000000647918264791          15032013000000000012690033035490000000000000000000064791001000033801300870WESLEY FABRI DA SILVA                   00102055900000000000002350000000000                      
0335465300148U 020000000000000000000000000000000000000000000000000000000000000000000000000000000000000000000000000000000000000000000000002502201325022013000000000000000000000000000                              000                           
0335465300149T 02035490010205590        0000000647640264764          15032013000000000009990033035490000000000000000000064764001000039560485806FERNANDO HENRIQUE SEGABINASSI HIDALGO   00102055900000000000002350000000000                      
0335465300150U 020000000000000000000000000000000000000000000000000000000000000000000000000000000000000000000000000000000000000000000000002502201325022013000000000000000000000000000                              000                           
0335465300151T 02035490010205590        0000000647551264755          15032013000000000004490033035490000000000000000000064755001000025211530870EVANILDO SAMPAIO ALMEIDA                00102055900000000000002350000000000                      
0335465300152U 020000000000000000000000000000000000000000000000000000000000000000000000000000000000000000000000000000000000000000000000002502201325022013000000000000000000000000000                              000                           
0335465300153T 02035490010205590        0000000647314264731          15032013000000000004490033035490000000000000000000064731001000042630168824NATAN HENRIQUE DE MELLO LOPES           00102055900000000000002350000000000                      
0335465300154U 020000000000000000000000000000000000000000000000000000000000000000000000000000000000000000000000000000000000000000000000002502201325022013000000000000000000000000000                              000                           
0335465300155T 02035490010205590        0000000647810264781          15032013000000000007490033035490000000000000000000064781001000079486169853DANIEL PEREIRA DE LIMA                  00102055900000000000002350000000000                      
0335465300156U 020000000000000000000000000000000000000000000000000000000000000000000000000000000000000000000000000000000000000000000000002502201325022013000000000000000000000000000                              000                           
0335465300157T 14035490010205590        0000000644781264478          28022013000000000007490033035490000000000000000000064478001000015057717812CARLOS EDUARDO PIRES                    00102055900000000000006200000000000                      
0335465300158U 140000000000000000000000000000000000000000000000000000000000000000000000000000000000000000000000000000000000000000000000002502201325022013000000000000000000000000000                              000                           
03354655         0001580002800000000000184921300000000000000000000000000000000000000000000000000000000000000000000000001083                                                                                                                     
03354659         000001000162                                                                                                                                                                                                                   
