000923533200151051171261    MARIA ESTELA SCHROPFER DE AVILA    RUA INDEPENDENCIA                            00444               97970000CENTRO         ROQUE GONZALES                RS005533651218101483                         9D613D4AFB05EF935F43FD4A53994CAD
00002197484117111111        EU, EU MESMO & IRENE               AVENIDA GOI·S                                00001               77410010SETOR CENTRAL  ALMAS                         TO006333115050101492                         C9CB121B621B598EDBF06D6C7008B186
000020646900421075990752    JONESSA FATIMA SANAGIOTO           TRAVESSA RIACHUELO                           00037               98940000CINQUENTENARIO TUPARENDI                     RS005599320847101276                         BB7F0DA64C78602DB7C34D885279EAEF
000726993450914058440886    ROSANE FEIT STRIEDER               LINHA GODÛI CENTRO                           00001               98970000INTEROR        C‚NDIDO GODÛI                 RS000000000000101436                         5732A80E27E3F996E47C6E286EABF4D0
000946387990001069442687    ISMAEL BREMM                       LINHA GUARAGUAT·                             00001               97940000INTERIOR       SALVADOR DAS MISSıES          RS005599495646101464                         18D40E41683A74D04687786E1249CD11
000246334100917010027733    ADEMIR NOGARA                      RUA 14 DE JULHO BREJINHO DE NAZARÈ PREFEITURA00669AP-2           98700000CENTRO         IJUÌ                          RS000000000000101452                         0B15881C4C534D968852573C3621993C
000441620220207033151338    ADELAR SCHAB                       LINHA TAQUARAÁU                              00001               98960000INTERIOR       SANTO CRISTO                  RS005591636179101323                         3249438CA58377AB2E4EFECD6802AFC5
00002566074003ISENTO        ALFREDO ALBERTO KALL               RUA SANTA CRUZ                               00333               98950000CENTRO         ALECRIM                       RS00559957963097855                          CEE756E6EC3BD703DB7FCF3C3F3CF42C
000559029520342053296411    LAURI MINETTO                      RUA DOS IMIGRANTES                           00541               98850000CENTRO         VITÛRIA DAS MISSıES           RS00559994408797763                          7D137F32A31D13F24211ECFA7F6F3487
000025032320601091793842    MARLISE INES GRAFF                 RUA PRESIDENTE COSTA SILVA                   01231               98960000VILA SIRIO     SANTO CRISTO                  RS005599483399101491                         1B1E5CD1B745D04A50B95F0D0B7C3969
00002639287133945270        NATANAEL DE ASSIS SILVA            RUA 39                                       00001PROXIMO X      77415190PARQUE RESIDENCGURUPI                        TO006333120000101345                         8DED239B58DC9C3D901DBE4336155C4B
00002639287133945270        NATANAEL DE ASSIS SILVA            RUA 39                                       00001PROXIMO X      77415190PARQUE RESIDENCGURUPI                        TO006333120000101360                         A4EABDB1783B11758783302557895E35
00002197484117111111        EU, EU MESMO & IRENE               AV.                                          00001               77410000CENTRO         S„O MIGUEL DO ARAGUAIA        GO006333115050101495                         9F9A42211828A57B8CDCE9B6C87ECEC9
