220000002RS00000004317905PROSERVER PROSERVER TELECOMUNICACOES LTDA X       RUA TENENTE JUNGLES                     0000534                              9896000008411698000140116/0019042         (55)3541-1942               NS1                    CENTRO              0055000000000030                                                                                                             
220000002RS00000004317905CHARLES THCHARLES THIELES                         RUA TENENTE JUNGLES1                    0005341                              9896000100942763076                       (55)3541-1162 (55)3541-1572 NN2                    CENTRO2             0055000000000030                                                                                                             
220000002RS00000004317905IVO HENRIQIVO HENRIQUE THIELE                     RUA MARECHAL DEODORO                    0002170                              9896000030893640000                       (55)3541-1161 (55)3541-1942 NN2                    CENTRO              0055000000000030                                                                                                             
220000002RS00000004317905ROBERTO THROBERTO THIELE                          RUA MARECHAL DEODORO                    0002170                              9896000000264960033                       (55)3541-1161 (55)3541-1572 NN2                    CENTRO              0055000000000030                                                                                                             
220000002RS00000004317905MARLENE HAMARLENE HAMMERSCHMITT THIELE            RUA MARECHAL DEODORO                    0002170                              9896000060288906004                       (55)3541-1161 (55)3541-1572 NN2                    CENTRO              0055000000000030                                                                                                             
220000002RS00000004317905FABIO JUNIFABIO JUNIOR DOEBBER                    RUA MINAS GERAIS                        0002489                              9896000001677416084                       (55)3541-2469               NN2                    CENTRO              0055000000000030                                                                                                             
220000002RS00000004310207CLAUDIO JOCLAUDIO JOSE GASS                       RUA BARRAO DO RIO BRANCO                0000542                              9870000094558981015                       (55)3541-1942 91955955      NN2                    CENTRO              0055000000000030                                                                                                             
220000002RS00000004322301ADELAR BERADELAR BERNARDI                         CINQUENTENARIO                          0000S/N                              9894000059923270025                       D             XX            NN2                    INTERIOR            000D000000000030                                                                                                             
220000002RS00000004322301ADELIR ROPADELIR ROPKE                            CINQUENTENARIO                          0000S/N                              9894600055577717000                                                   NN2                    INTERIOR            0000000000000030                                                                                                             
220000002RS00000004322301ATILIO LUNATILIO LUNARDI                          RUA LEONEL IEGER                        0000393                              9894000021707758034                                                   NN2                    CENTRO              0000000000000030                                                                                                             
220000002RS00000004322301CRESOL    CRESOL                                  RUA ELIGIO CAVADAO                      0000613                              9894000006031727000112                                                NN1                    INTERIOR            0000000000000030                                                                                                             
220000002RS00000004322301BERNARDO ZBERNARDO ZALAMENA                       RUA HELMUTH GERLOFF                     0000454                              9894000048943550006                                                   NN2                    INTERIOR            0000000000000030                                                                                                             
220000002RS00000004322301ABRELINO CABRELINO COLDEBELL                      RUA JULHO FABRICIO                      0000163                              9894000019730624020                       (55)3543-1250               NN2                    CENTRO              0055000000000030                                                                                                             
220000002RS00000004322301ARNEDIO CAARNEDIO CANOVA                          RUA REINBOLDO DRESSEL                   0000034                              9894000069913315034                                                   NN2                    CENTRO              0000000000000030                                                                                                             
220000002RS00000004319372AFONSO K. AFONSO K. KUNKEL                        LINHA SANTA TEREZINHA                   0000S/N                              9792000030988667053                                                   NN2                    INTERIOR            0000000000000030                                                                                                             
220000002RS00000004319372ARLINDO ANARLINDO ANDRE HEKLER                    LINHA TAIPAO FRENTE                     0000S/N                              9792000013906844072                                                   NN2                    INTERIOR            0000000000000030                                                                                                             
220000002RS00000004319372ATILIO ROQATILIO ROQUE REISDOERFER                AV. JULHO SCHWENGBER                    0000645                              9720000004385578087                       (55)33691120                NN2                    CENTRO              0055000000000030                                                                                                             
220000002RS00000004319372ARCI GENZ ARCI GENZ BRATZ                         LINHA ESQUINA UNIAO                     0000S/N                              9792000024577499053                                                   NN2                    INTERIOR            0000000000000030                                                                                                             
220000002RS00000004317905ADRIANO JOADRIANO JOSE OST                        RUA D. HERMETO PINHEIRO                 0000447                              9896000053042093034                       (55)35411933                NN2                    CENTRO              0055000000000030                                                                                                             
220000002RS00000004317905ADELAR SCHADELAR SCHAB                            LINHA TAQUARACU                         0000S/N                              9896000044162022020                                                   NN2                    INTERIOR            0000000000000030                                                                                                             
220000002RS00000004317905AGROPECUARAGROPECUARIA SENTINELA DAS COXILHAS S/A RUA TENENTE JUNG                        0000433                              9896000008692509000154                    (55)35411011                NN1                    CENTRO              0055000000000030                                                                                                             
220000002RS00000004317905ADEMIR LUIADEMIR LUIS DE OLIVEIRA                 RUA PRESIDENTE COSTA E SILVA            0001420                              9896000064627390025                                                   NN2                    INTERIOR            0000000000000030                                                                                                             
220000002RS00000004317905ANA GRACIEANA GRACIELA SCHAFFER                   RUA GOIAS                               0000607                              9896000099059894049                                                   NN2                    CENTRO              0000000000000030                                                                                                             
220000002RS00000004303301ANTONIO JOANTONIO JOAO LUNKES                     LINHA SANTO ANGELO                      0000S/N                              9793000010586431004                                                   NN2                    INTERIOR            0000000000000030                                                                                                             
220000002RS00000004305207ARACELI SAARACELI SALLET                          RUA SENADOR PINHEIRO MACHADO            0000563                              9790000051453703004                                                   NN2                    CENTRO              0000000000000030                                                                                                             
220000002RS00000004300307ALFREDO ALALFREDO ALBERTO KALL                    RUA SANTA CRUZ                          0000333                              9895000002566074003                                                   NN2                    CENTRO              0000000000000030                                                                                                             
220000002RS00000004300307ALEXANDRE ALEXANDRE RICARDO KREWER                RUA OSVALDO CRUZ                        0000389                              9895000000347496083                                                   NN2                    CENTRO              0000000000000030                                                                                                             
220000002RS00000004323754AMARAL SOMAMARAL SOMAVILA                         ESQUINA EVANGELICA                      0000S/N                              9885000004323173091                       (55)36144104                NN2                    INTERIOR            0055000000000030                                                                                                             
220000002RS00000004305207ANTONIO THANTONIO THOMAS                          LINHA TREMONIA                          0000S/N                              9790000037523805000                                                   NN2                    INTERIOR            0000000000000030                                                                                                             
220000002RS00000004305207ALBANO ALLALBANO ALLES                            SAO FRANCISCO                           0000S/N                              9790000052370593091                                                   NN2                    INTERIOR            0000000000000030                                                                                                             
220000002RS00000004305207ARMINDO JOARMINDO JOSE BOLZAN                     RUA 7 DE SETEMBRO                       0001438                              9790000017997046020                                                   NN2                    CENTRO              0000000000000030                                                                                                             
220000002RS00000004317509ANTONIO MEANTONIO MENEGHEIN JUNIOR                RUA BORGES DO CANTO                     0000147                              9880000048899410020                                                   NN2                    PIPI                0000000000000030                                                                                                             
220000002RS00000004317202ANGELA DE ANGELA DE FARIA MARASCHIN               RUA JULIO LEOPOLDO RAUBER               0000162                              9890000096289147072                                                   NN2                    CENTRO              0000000000000030                                                                                                             
220000002RS00000004317202ALFREDO JAALFREDO JANSTCH                         RUA GUAIRA                              0000520                              9890000024715034034                                                   NN2                    SAO FRANCISCO       0000000000000030                                                                                                             
220000002RS00000004304309ANTONIO NIANTONIO NIESEIUR NETO                   AV ALVORADA                             0000231                              9897000047251670020                                                   NN2                    CIDADE              0000000000000030                                                                                                             
220000002RS00000004304309ARCADIO ARARCADIO ARNOLD                          RUA PRESIDENTE CASTELO BRANCO           0000360                              9897000033208980000                       (55) 3548-1060              NN2                    CENTRO              0055000000000030                                                                                                             
220000002RS00000004319158ANTONIO DEANTONIO DE PADUA CASTANHO NASCIMENTO    RUA JOAO MIGUEL                         0000061                              9886500027534324068                       (55)33811342                NN2                    CENTRO              0055000000000030                                                                                                             
220000002RS00000004316303ANSELMO FRANSELMO FRANCISCO SARZI                 LINHA PORTAO                            0000S/N                              9797000066120535004                                                   NN2                    INTERIOR            0000000000000030                                                                                                             
220000002RS00000004316303ARTUR VALDARTUR VALDI DA SILVA ISSLER             RUA SENADOR PINHEIRO MACHADO            0000370                              9797000010586954015                       (55)33651266                NN2                    CENTRO              0055000000000030                                                                                                             
220000002RS00000004306932ANTONIO FEANTONIO FELIPIN                         BRAULIO MARIO RIBAS                     0001154                              9885500025554093000                                                   NN2                    CENTRO              0000000000000030                                                                                                             
220000002RS00000004306932ALTIDOR FLALTIDOR FLORES DE OLIVEIRA              ESQUINA GAUCHA                          0000S/N                              9885500015289079068                                                   NN2                    INTERIOR            0000000000000030                                                                                                             
220000002RS00000004306932ADEMIR GUSADEMIR GUSE                             RINCAO DAS CACHOERINHA                  0000S/N                              9885500049452541091                                                   NN2                    INTERIR             0000000000000030                                                                                                             
220000002RS00000004305009ARQUILIO TARQUILIO TREVIZAN                       RINCAO RIETH                            0000S/N                              9877000009380370059                                                   NN2                    INTERIOR            0000000000000030                                                                                                             
220000002RS00000004305009ARI AOSANIARI AOSANI                              DISTRITO SANTA TEREZINHA                0000S/N                              9877000021374651087                       (55)36132122                NN2                    INTERIOR            0055000000000030                                                                                                             
220000002RS00000004305009ANTONIO GIANTONIO GILBERTO FOLHARINI              TRES VENDAS                             0000S/N                              9877000038864169091                       91530678                    NN2                    INTERIOR            9153000000000030                                                                                                             
220000002RS00000004305009ALCINDO PEALCINDO PEDRO BORTOLINI                 VISTA ALEGRE                            0000S/N                              9877000030820421049                                                   NN2                    VISTA ALEGRE        0000000000000030                                                                                                             
220000002RS00000004305009ADEMIR GOMADEMIR GOMES PEREIRA                    RUA JOSE MOTA                           0000125                              9877000044988141004                       (55)33361032                NN2                    CENTRO              0055000000000030                                                                                                             
220000002RS00000004316477AUTO POSTOAUTO POSTO CATARINA LTDA                RUA JOSE RASPARY                        0002033                              9794000002285635000108                    (55)33582010                NN1                    INTERIOR            0055000000000030                                                                                                             
220000002RS00000004317905BOIDEZ DISBOIDEZ DISTRIBUIDORA DE ALIMENTOS LTDA  ROLADOR ALTO                            0000S/N                              9896000009649751000108                    (55)35412125                NN1                    INTERIOR            0055000000000030                                                                                                             
220000002RS00000004317905CLAUDIO ROCLAUDIO ROBERTO OST                     RUA TEODORO RUEDELL                     0000523                              9896000037199382049                                                   NN2                    CENTRO              0000000000000030                                                                                                             
220000002RS00000004317905COM. COMB.COM. COMB. BERRES & KLERING LTDA        RUA DOM PEDRO II                        0001897                              9896000089095368000194                    (55)35411049                NN1                    CENTRO              0055000000000030                                                                                                             
220000002RS00000004317905CESAR LUISCESAR LUIS DILLMANN                     LINHA BELINHA CENTRO                    0000S/N                              9896000080193706091                                                   NN2                    INTERIOR            0000000000000030                                                                                                             
220000002RS00000004317905MUNICIPIO MUNICIPIO DE SANTO CRISTO2              RUA 25 DE JULHO                         0000133                              9896000087612818000143                    9630 2703 DBEL              NN1                    CENTRO              9630000000000030                                                                                                             
220000002RS00000004305009CLEBER BIRCLEBER BIRMANN                          RUA BELMIRA TERRA                       0000045                              9877000099741890044                                                   NN2                    CENTRO              0000000000000030                                                                                                             
220000002RS00000004319372CELSO JOSECELSO JOSE SCHONS                       RUA 25 DE JULLHO                        0001331                              9792000028909860049                       (55)33691202                NN2                    INTERIOR            0055000000000030                                                                                                             
220000002RS00000004319372COOPER BUTCOOPER BUTIA                            AV. DR. EUGENIO  FRANTZ                 0000530                              9792000005120965000131                    (55)33691297                NN1                    CENTRO              0055000000000030                                                                                                             
220000002RS00000004322301CLAUDIO FRCLAUDIO FRANCISCO DALCIN                VILA SAO ROQUE                          0000S/N                              9894000024571660049                                                   NN2                    INTERIOR            0000000000000030                                                                                                             
220000002RS00000004322301CEREALISTACEREALISTA CERRO ALTO LTDA              CERRO ALTO                              0000S/N                              9894000009485696000168                    (55)35126350                NN1                    INTERIOR            0055000000000030                                                                                                             
220000002RS00000004306932CRISTIANO CRISTIANO SIDNEI BRISSOW                RUA CLEMENTINO PIZOLOTO                 0001455                              9885500089787145015                                                   NN2                    CENTRO              0000000000000030                                                                                                             
220000002RS00000004304309CELSO TADECELSO TADEU KUNKEL                      AV. PINDORAMA                           0000553                              9897000044163355049                       35481362                    NN2                    CENTRO              3548000000000030                                                                                                             
220000002RS00000004300307CLAUDIA RACLAUDIA RAMBO                           DOM PEDRO II                            0000293                              9895000094195021049                       (55)35461275                NN2                    CENTRO              0055000000000030                                                                                                             
220000002RS00000004300307CARMEN TERCARMEN TERESINHA HOSS AMES              RUA JACO HANSEN                         0000040                              9895000031454712015                       (55)35461560                NN2                    CENTRO              0055000000000030                                                                                                             
220000002RS00000004300307PREFEITURAPREFEITURA MUNICIPAL DE ALECRIM         RUA NICOLAU JOSE SCHADLER               0000042                              9895000087612784000197                    (55)35461300                NN1                    CENTRO              0055000000000030                                                                                                             
220000002RS00000004319372CPM DO COLCPM DO COLEGIO ESTADUAL PROF. PEDRO JOSERUA 7 DE SETEMBRO                       0000S/N                              9792000088688346000175                    (55)33691140                NN1                    CENTRO              0055000000000030                                                                                                             
220000002RS00000004319372ALOISIO SEALOISIO SEIBERT                         RUA ROQUE GONZALES                      0001540                              9792000035642971034                                                   NN2                    CENTRO              0000000000000030                                                                                                             
220000002RS00000004323754CLAUDIO STCLAUDIO STEINHORST                      ESQ. BARICHELLO                         0000S/N                              9885000070257787020                                                   NN2                    INTERIOR            0000000000000030                                                                                                             
220000002RS00000004323754CAMARA DE CAMARA DE VEREADORES VITORIA DAS MISSOESAV. 7 POVOS                             0000957                              9885000011445453000148                    (55)36144119                NN1                    CENTRO              0055000000000030                                                                                                             
220000002RS00000004305207DIRLAINE IDIRLAINE INES MOMBACH                   AV. CORONEL JORGE FRANTZ                0000245                              9790000098842137049                                                   NN2                    CENTRO              0000000000000030                                                                                                             
220000002RS00000004317509DANIEL CASDANIEL CASARIN                          RUA VICENTE MANUEL DE DEUS              0000031                              9880000039348466020                                                   NN2                    HORTENCIA           0000000000000030                                                                                                             
220000002RS00000004319372DOUGLAS ANDOUGLAS ANKLAM                          RUA CASTELO BRANCO                      0000642                              9792000001168792037                                                   NN2                    CENTRO              0000000000000030                                                                                                             
220000002RS00000004319372DEONISIO TDEONISIO TONIN                          RUA REINALDO JACOBS                     0000839                              9792000045158398020                       (55)33691064                NN2                    CENTRO              0055000000000030                                                                                                             
220000002RS00000004317905DECIO BOKODECIO BOKORNI                           LINHA SALTO                             0000055                              9896000033215391015                                                   NN2                    CENTRO              0000000000000030                                                                                                             
220000002RS00000004317905ABATEDOUROABATEDOURO GALLAS                       RUA DOM PEDRO II                        0001627                              9896000001945082000100                                                NN1                    CENTRO              0000000000000030                                                                                                             
220000002RS00000004317905DONATO HEIDONATO HEINEN                           RUA MINAS GERAIS                        0002462                              9896000025749986004                       (55)35411153                NN2                    CENTRO              0055000000000030                                                                                                             
220000002RS00000004319158DANIEL TEIDANIEL TEIKOWSKI                        RINCAO SANTA BARBARA                    0000S/N                              9886500030927579049                       (55)35057093                NN2                    INTERIOR            0055000000000030                                                                                                             
220000002RS00000004306932DARI SCHULDARI SCHULZ                             RUA FREDERICO BADE                      0000267                              9885500033221383053                       (55)33291390                NN2                    OZORIO              0055000000000030                                                                                                             
220000002RS00000004307831DOUGLAS ANDOUGLAS ANDRE GOERGEN                   ESQ. SANTO ANTONIO                      0000S/N                              9886000001829824082                                                   NN2                    INTERIOR            0000000000000030                                                                                                             
220000002RS00000004307831CESAR ANTOCESAR ANTONIO BAZANA                    RUA VINICIOS KRUEL                      0001074                              9886000088186466053                                                   NN2                    CENTRO              0000000000000030                                                                                                             
220000002RS00000004305009ELIO DAMBRELIO DAMBROS                            RINCAO DOS DAMBROS                      0000S/N                              9877000030822645068                       (55)33057232                NN2                    INTERIOR            0055000000000030                                                                                                             
220000002RS00000004307831ELISIANE DELISIANE DURKS                          RUA SILVERIO DE OLIVEIRA                0002500                              9886000096447745072                                                   NN2                    CENTRO              0000000000000030                                                                                                             
220000002RS00000004316477ELETROTECNELETROTECNICA E REFRIGERACAO CATARINA LTRUA JOSE KASPARY                        0002033                              9794500086894961000102                    (55)33582049                NN1                    CENTRO              0055000000000030                                                                                                             
220000002RS00000004317509ELCIRA DALELCIRA DALMAS MENGHINI                  AV ADAO FELIPE PIPPI                    0000222                              9880700027971139004                                                   NN2                    ROSA                0000000000000030                                                                                                             
220000002RS00000004317905ERALDO RAMERALDO RAMBO                            VILA SIRIO                              0000S/N                              9896000044722320063                       (55)35415048                NN2                    INTERIOR            0055000000000030                                                                                                             
220000002RS00000004317905ELIS REGINELIS REGINA BACKES                      RUA GOIAS                               0000377                              9896000099688948004                       (55)35411845                NN2                    CENTRO              0055000000000030                                                                                                             
220000002RS00000004317905ENIO JOAO ENIO JOAO PEREIRA DA SILVA              RUA DOM PEDRO II                        0002574                              9896000030902584049                       (55)35411368                NN2                    CENTRO              0055000000000030                                                                                                             
220000002RS00000004305207ELEMAR JOSELEMAR JOSE MUMBACH                     RUA MIGUEL DEWES FILHO                  0000987                              9790000077888650015                                                   NN2                    CENTRO              0000000000000030                                                                                                             
220000002RS00000004322301ELAINE MULELAINE MULLER BATAGLION                 CINQUENTENARIO                          0000S/N                              9894600075798492087                                                   NN2                    INTERIOR            0000000000000030                                                                                                             
220000002RS00000004322301ELTON ABITELTON ABITANTE                          CINQUENTENARIO                          0000S/N                              9894000075797879034                                                   NN2                    INTERIOR            0000000000000030                                                                                                             
220000002RS00000004322301EMAR MARINEMAR MARIN                              RUA ANDRE APARISE                       0000140                              9894600013459147091                                                   NN2                    CINQUENTENARIO      0000000000000030                                                                                                             
220000002RS00000004322301EDUARDO FAEDUARDO FACCHINELO                      AV TUCUNDUVA                            0002674                              9894000082562091000                       (55)35951088                NN2                    CENTRO              0055000000000030                                                                                                             
220000002RS00000004319158ESPEDITO VESPEDITO VICENTE CHIAPINOTTO            RINCAO DOS RIBAS                        0000S/N                              9886500044168730000                                                   NN2                    INTERIOR            0000000000000030                                                                                                             
220000002RS00000004316303ELVIO JOAOELVIO JOAO SARZI                        RUA PADRE MANOEL DE NOBREGA             0000470                              9797000033263337068                       (55)33651351                NN2                    CENTRO              0055000000000030                                                                                                             
220000002RS00000004316303EVANIOS GREVANIOS GRUNDEMANN FENNER               ESQUINA FATIMA                          0000S/N                              9797000051520940025                                                   NN2                    INTERIOR            0000000000000030                                                                                                             
220000002RS00000004306932ELOIR ROEHELOIR ROEHRS                            ESQUINA GAUCHA                          0000S/N                              9885500065468287072                                                   NN2                    CENTRO              0000000000000030                                                                                                             
220000002RS00000004303301ELVIO CARLELVIO CARLOTO NORO                      RUA  CRUZ ALTA                          0001969                              9793000088751708000                                                   NN2                    VILA LAGO AZUL      0000000000000030                                                                                                             
220000002RS00000004303301EVANDO HEREVANDO HERTER DA SILVA                  AV. 7 DE SETEMBRO                       0001419                              9793000025002368034                       (55)33551123                NN2                    CENTRO              0055000000000030                                                                                                             
220000002RS00000004323754EDEGAR MINEDEGAR MINETTO                          RUA DOS IMIGRANTES                      0000693                              9885000044594739091                       (55)36144153                NN2                    CENTRO              0055000000000030                                                                                                             
220000002RS00000004323754EDSON KRAEEDSON KRAEMER                           RUA 3 DE OUTUBRO                        0000568                              9885000001819552020                       (55)36144136                NN2                    CENTRO              0055000000000030                                                                                                             
220000002RS00000004317202ELEANDRO AELEANDRO ALEXANDRE KOCHHANN             RUA OSVALDO CRUZ                        0000225                              9890000066423694087                                                   NN2                    CENTRO              0000000000000030                                                                                                             
220000002RS00000004317202ELTON JAIRELTON JAIR MINIKEL                      RUA MINAS GERAIS                        0000320                              9890000069024162068                                                   NN2                    CENTRO              0000000000000030                                                                                                             
220000002RS00000004304309ELEANE SOEELEANE SOELI CONSTANT                   LINHA TIMBAUVA                          0000440                              9898000007524285000109                                                NN1                    CENTRO              0000000000000030                                                                                                             
220000002RS00000004323754FRANCISCO FRANCISCO COLLETO                       LINHA CAMPO NOVO                        0000S/N                              9885000045982112020                       (55)36144336                NN2                    INTERIOR            0055000000000030                                                                                                             
220000002RS00000004316303FELIPE JUSFELIPE JUSTEN                           VILA DONA OTILIA                        0000S/N                              9797300002432004043                       (55)38842037                NN2                    INTERIOR            0055000000000030                                                                                                             
220000002RS00000004305207FERNANDO CFERNANDO CORREA E SILVA                 RUA 20 SETEMBRO                         0000339                              9790000082243638053                                                   NN2                    FLORESTA            0000000000000030                                                                                                             
220000002RS00000004306932FRANCISCO FRANCISCO ALBERTO PRESTES               ESQUINA GAUCHA                          0000S/N                              9885500048549002020                                                   NN2                    INTERIOR            0000000000000030                                                                                                             
220000002RS00000004317509FRANCISCO FRANCISCO VENDRUSCOLO CEOLIN            AV GETULIO VARGAS                       0001010                              9880157051085135004                       (55)99934547                NN2                    SOSSEGO             0055000000000030                                                                                                             
220000002RS00000004322301FELIX CAPPFELIX CAPPELLARI                        RUA PEDRO BALUS                         0000070                              9894000021723710091                                                   NN2                    CENTRO              0000000000000030                                                                                                             
220000002RS00000004315057ELIBIO SARELIBIO SARTORI                          CAMPO ALEGRE                            0000S/N                              9894700020285329049                                                   NN2                    VICINAL DOS COGO    0000000000000030                                                                                                             
220000002RS00000004319372ELOI THOMAELOI THOMAS                             AV. JULIO SCHWENGBER                    0001595                              9792000036147249053                       (55)33691118                NN2                    CENTRO              0055000000000030                                                                                                             
220000002RS00000004319372ELOI BREMMELOI BREMM                              BUTIA INFERIOR                          0000S/N                              9792000045157910010                                                   NN2                    INTERIOR            0000000000000030                                                                                                             
220000002RS00000004307831GIORDANI AGIORDANI ANDRE DEZORDI                  RUA MANOEL FERNANDES                    0000270                              9886000092061010059                                                   NN2                    CENTRO              0000000000000030                                                                                                             
220000002RS00000004317905GILBERTO FGILBERTO FRANCISCO MöLLMANN             BOM PRINCIPIO ALTO                      0000S/N                              9896000041110307004                                                   NN2                    INTERIOR            0000000000000030                                                                                                             
220000002RS00000004317905GEOLAR SCHGEOLAR SCHNEIDER                        RUA MARECHAL DEODORO                    0002371                              9896000099965631034                                                   NN2                    CENTRO              0000000000000030                                                                                                             
220000002RS00000004304309GILBERTO BGILBERTO BERRES                         LINHA DR. CANDIDO GODOI                 0000S/N                              9897000048113859004                                                   NN2                    INTERIOR            0000000000000030                                                                                                             
220000002RS00000004304309FABRICIO AFABRICIO ANTONIO BERVIAN                RUA ALVORADA                            0000051                              9897000091377757072                       (55)3548-1284               NN2                    CENTRO              0055000000000030                                                                                                             
220000002RS00000004303707ASSOC. ASSASSOC. ASS. CUL. HOS. PADRE BENEDITO MEIRUA SANTA MARIA                         0000744                              9875000096419775000175                    (55)35671212                NN1                    CENTRO              0055000000000030                                                                                                             
220000002RS00000004306932HERCULANO HERCULANO CAMARGO DE OLIVEIRA           RUA INTEGRACAO                          0000352                              9885500089641698087                                                   NN2                    CENTRO              0000000000000030                                                                                                             
220000002RS00000004322301HELDER MARHELDER MARIN                            CINQUENTENARIO                          0000S/N                              9894600027387925020                       (55)35951149                NN2                    INTERIOR            0055000000000030                                                                                                             
220000002RS00000004317905HECK CORREHECK CORRETORA DE SEGUROS               RUA MARECHAL DEODORO                    0002000                              9896000002695597000161                    (55)35411144                NN1                    CENTRO              0055000000000030                                                                                                             
220000002RS00000004305207IND. COMERIND. COMERCIO DE CALCADOS FRITZ LTDA    RUA SAO FRANCISCO                       0001323                              97900000086996630001580300039948          (55)33592223                NS1                    ESPLANADA           0055000000000030                                                                                                             
220000002RS00000004322301IVANOR PERIVANOR PERIN                            CINQUENTENARIO                          0000S/N                              9894600055043925000                                                   NN2                    INTERIOR            0000000000000030                                                                                                             
220000002RS00000004322301IVO JOAO RIVO JOAO RIGON                          CINQUENTENARIO                          0000S/N                              9894600038792389015                                                   NN2                    INTERIOR            0000000000000030                                                                                                             
220000002RS00000004322301IRES PERINIRES PERIN JASKOWIAK                    CINQUENTENARIO                          0000S/N                              9894000038795370030                       (55)35951074                NN2                    INTERIOR            0055000000000030                                                                                                             
220000002RS00000004303301ILDO JOAO ILDO JOAO ELY                           LINHA SANTO ANGELO                      0000S/N                              9793000030985528087                                                   NN2                    INTERIOR            0000000000000030                                                                                                             
220000002RS00000004300307IRANI ANA IRANI ANA ROCKEMBACH                    AV. CARLOS ALBERTO SCHAEDLER            0000557                              9895000088455700025                                                   NN2                    CENTRO              0000000000000030                                                                                                             
220000002RS00000004317905IRANI NIRTIRANI NIRTON SCHERER                    RUA MARECHAL DEODORO                    0001564                              9896000058879595091                                                   NN2                    CENTTRO             0000000000000030                                                                                                             
220000002RS00000004317905ILMO ELOI ILMO ELOI DILLMAN                       LINHA DONA BELINHA                      0000S/N                              9896000067118771015                                                   NN2                    INTERIOR            0000000000000030                                                                                                             
220000002RS00000004319372ILDO JOSE ILDO JOSE SCHERER                       BUTIA INFERIOR                          0000S/N                              9792000027572609015                                                   NN2                    INTERIOR            0000000000000030                                                                                                             
220000002RS00000004316303INGOMAR GEINGOMAR GENZ NEUBUSER                   LINHA DONA OTILIA                       0000S/N                              9797000047251808072                       (55)38842027                NN2                    INTERIOR            0055000000000030                                                                                                             
220000002RS00000004316303INACIO LUIINACIO LUIZ KIPPER HASS                 VILA DONA OTILIA                        0000S/N                              9797000033233888015                                                   NN2                    INTERIOR            0000000000000030                                                                                                             
220000002RS00000004319307JOAO ODIL JOAO ODIL HARTMANN LUNKES               RUA INDEPENDENCIA                       0000779                              9798000045057729004                                                   NN2                    CENTRO              0000000000000030                                                                                                             
220000002RS00000004316303JOAO AFONSJOAO AFONSO KOTZ                        ESQUINA FATIMA                          0000S/N                              9797000035729015020                                                   NN2                    INTERIOR            0000000000000030                                                                                                             
220000002RS00000004305009ISMAEL MARISMAEL MARCHESAN                        RUA JOAQUIM RODRIGES                    0001403                              9877000027539229004                       (55)33361596                NN2                    SANTA ROSA          0055000000000030                                                                                                             
220000002RS00000004316477JOAO INACIJOAO INACIO WENZEL                      LINHA CARAGUATA                         0000S/N                              9794000021853452068                                                   NN2                    INTERIOR            0000000000000030                                                                                                             
220000002RS00000004317509JORGE ANTOJORGE ANTONIO DEZEM                     RUA 3 DE OUTUBRO                        0000679                              9880197033622540044                                                   NN2                    CENTRO              0000000000000030                                                                                                             
220000002RS00000004319372JUNIO SCHAJUNIO SCHARDONG                         RUA 25 DE JULHO                         0000S/N                              9792000000049273035                                                   NN2                    INTERIOR            0000000000000030                                                                                                             
220000002RS00000004319372JAIME CONSJAIME CONSTANTINO RITT                  LINHA BOA ESPERANCA                     0000S/N                              9792000005577560063                       (55)33691083                NN2                    INTERIOR            0055000000000030                                                                                                             
220000002RS00000004303707JOAO JORGEJOAO JORGE BORCOWSKI                    VILA SANTA TEREZA                       0000S/N                              9897500033223343091                                                   NN2                    INTERIOR            0000000000000030                                                                                                             
220000002RS00000004317905JAQUELINE JAQUELINE MIETH                         RUA MINAS GERAIS                        0002490                              9896000074919008015                       (55)35412596                NN2                    CENTRO              0055000000000030                                                                                                             
220000002RS00000004317905JOSE EMILIJOSE EMILIO HEINEN E CIA LTDA           AV. DOM PEDRO II                        0001825                              9896000009631791000122                    (55)35411786                NN1                    CENTRO              0055000000000030                                                                                                             
220000002RS00000004317202JAIME SOARJAIME SOARES PINTO                      RUA SAO PEDRO                           0000199                              9890000099458535034                                                   NN2                    PLANALTO            0000000000000030                                                                                                             
220000002RS00000004317905JAIME ZIMMJAIME ZIMMER                            RUA MINAS GERAIS                        0001760                              9896000000345382080                                                   NN2                    VILA OPERARIA       0000000000000030                                                                                                             
220000002RS00000004305207JURACI LUIJURACI LUIS BIRCK                       ESQUINA SANDRI MOSCOU                   0000S/N                              9790000033239207087                                                   NN2                    INTERIOR            0000000000000030                                                                                                             
220000002RS00000004305207JOSE HARRIJOSE HARRI THUM                         LINHA TAQUARACU                         0000S/N                              9790000012628271087                                                   NN2                    INTERIOR            0000000000000030                                                                                                             
220000002RS00000004322301JHONI FACCJHONI FACCHINELLO                       VILA CINQUENTENARIO                     0000S/N                              9894600093791208004                       (55)35951063                NN2                    INTERIOR            0055000000000030                                                                                                             
220000002RS00000004322301JAIR ANTONJAIR ANTONIO BRUM                       VILA CINQUENTENARIO                     0000S/N                              9894600024570869068                       (55)35951020                NN2                    INTERIOR            0055000000000030                                                                                                             
220000002RS00000004322301JULIO CEZAJULIO CEZAR BRUN                        VILA CINQUENTENARIO                     0000S/N                              9894600049322494034                       (55)35951123                NN2                    INTERIOR            0055000000000030                                                                                                             
220000002RS00000004319158JOAO BATISJOAO BATISTA MARGUTTI                   RUA SANTO ANGELO                        0001007                              9886500028361440097                                                   NN2                    CENTRO              0000000000000030                                                                                                             
220000002RS00000004317202JORGE LUIZJORGE LUIZ MEINERTZ                     ESQUINA GUIA LOPES                      0000S/N                              9890000019726996015                       (55)35139001                NN2                    INTERIOR            0055000000000030                                                                                                             
220000002RS00000004317202LUIZ CARLOLUIZ CARLOS BECKER                      RUA SINVAL SALDANHA                     0000405                              9890000027511600000                       (55)35111177                NN2                    PLANALTO            0055000000000030                                                                                                             
220000002RS00000004317905JOAO ROQUEJOAO ROQUE MADERS                       DONA BELINHA                            0000S/N                              9896000060270888004                                                   NN2                    INTERIOR            0000000000000030                                                                                                             
220000002RS00000004317905DANIELE ELDANIELE ELISE MUELLER                   RUA ERMINDO BAMBERG                     0000548                              9896000001734965045                                                   NN2                    KLERING             0000000000000030                                                                                                             
220000002RS00000004304309LEONORA GLLEONORA GLECI GROSMANN                  AV. PINDORAMA                           0000230                              9897000072700106091                                                   NN2                    CENTRO              0000000000000030                                                                                                             
220000002RS00000004316303LINO BERWALINO BERWALDT WOHLFAHRT                 V. DONA OTILIA                          0000S/N                              9797300020133308049                                                   NN2                    INTERIOR            0000000000000030                                                                                                             
220000002RS00000004303301LUIZ EVAR LUIZ EVAR LUBINI                        RINCAO DA CONCEICAO                     0000000                              9793000019014988087                       96314140                    NN2                    INTERIOR            9631000000000030                                                                                                             
220000002RS00000004303301LUIS FRANCLUIS FRANCISCO SCHENEIDER               LINHA PASSO NOVO                        0000S/N                              9793000021255547049                                                   NN2                    INTERIOR            0000000000000030                                                                                                             
220000002RS00000004305207LUIS VANDELUIS VANDERLEI ADAMS                    DR. JOAO SEBASTIANI                     0000500                              9790000036622176000                                                   NN2                    CENTRO              0000000000000030                                                                                                             
220000002RS00000004323754JOSE ANTONJOSE ANTONIO SOMAVILA                   ESQ. RENDIM                             0000S/N                              9885000070259003034                                                   NN2                    INTERIOR            0000000000000030                                                                                                             
220000002RS00000004323754LAURI MINELAURI MINETTO                           RUA DOS IMIGRANTES                      0000541                              9885000055902952034                                                   NN2                    CENTRO              0000000000000030                                                                                                             
220000002RS00000004322301LUIZ CARLOLUIZ CARLOS ZAMIN                       VILA CINQUENTENARIO                     0000S/N                              9894000038793164068                       (55)35951052                NN2                    INTERIOR            0055000000000030                                                                                                             
220000002RS00000004322301LUIZ PIROCLUIZ PIROCCA                            VILA CINQUENTENARIO                     0000S/N                              9894000011658479068                       (55)35951055                NN2                    INTERIOR            0055000000000030                                                                                                             
220000002RS00000004322301LEONARDO DLEONARDO DE CONTI                       VILA CINQUETENARIO                      0000S/N                              9894600093846436020                                                   NN2                    CENTRO              0000000000000030                                                                                                             
220000002RS00000004309001LATICINIOSLATICINIOS BOM GOSTO S.A.               RODOVIA RS 344 KM 66 B MOURA            0000S/N                              98870000946794790007730550038787          (55)33613213                NS1                    INTERIOR            0055000000000030                                                                                                             
220000002RS00000004319372LAURI HECKLAURI HECK                              LINHA TAIPAO FRENTE                     0000S/N                              9792000045766940068                                                   NN2                    INTERIOR            0000000000000030                                                                                                             
220000002RS00000004319372LUCIA HASSLUCIA HASS                              AV. JULHO SCHWENGBER                    0001681                              9792000093617488000181                    (55)33691051                NN1                    CENTRO              0055000000000030                                                                                                             
220000002RS00000004317509MIRIAN DIVMIRIAN DIVA PRETTO                      RUA LEOPOLDINA ANGST                    0001974                              9880323000518925021                                                   NN2                    JOSE A. OLIVIER     0000000000000030                                                                                                             
220000002RS00000004317509MARILENE TMARILENE TONIOLO BORGMANN               AV APOLINARIO DORNELLES DE MORAES       0000534                              9880243536468029015                       (55)33123878                NN2                    DORNELLES           0055000000000030                                                                                                             
220000002RS00000004303301MAURICIO PMAURICIO PIRES DE MORAIS                RUA CAROO                               0001593                              9793000092502180015                                                   NN2                    CENTRO              0000000000000030                                                                                                             
220000002RS00000004303301MILTON BURMILTON BURIN                            RUA SEFRIN                              0001552                              9793000050030647053                       (55)35057006                NN2                    CENTRO              0055000000000030                                                                                                             
220000002RS00000004304309MATHIAS WIMATHIAS WILHELN E CIA LTDA              AV. PINDORAMA                           0000461                              98970000082953460001761830009220          (55)35481245                NS1                    CENTRO              0055000000000030                                                                                                             
220000002RS00000004304309MARIO ADOLMARIO ADOLFO KLEIN                      AV. PINDORAMA                           0000530                              9897000003382702053                                                   NN2                    CENTRO              0000000000000030                                                                                                             
220000002RS00000004317905MARIO DIELMARIO DIEL                              RUA DOM PEDRO II                        0001688                              9896000024726540068                       (55)35411484                NN2                    CENTRO              0055000000000030                                                                                                             
220000002RS00000004317905MILTON BRUMILTON BRUISMAMM                        LINHA DIVISA                            0000S/N                              9896000054855020087                                                   NN2                    INTERIOR            0000000000000030                                                                                                             
220000002RS00000004317905MARLENE WAMARLENE WAGNER                          RUA EMILIO RIFFEL                       0000169                              9896000027450333015                                                   NN2                    ESPERANCA           0000000000000030                                                                                                             
220000002RS00000004317905MARCELO LUMARCELO LUIZ SCHREINER                  RUA DUQUE DE CAXIAS                     0000713                              9896000058879404091                                                   NN2                    CENTRO              0000000000000030                                                                                                             
220000002RS00000004317905MIRIA INESMIRIA INES BECKER DIEL                  LINHA ROLADOR BAIXO                     0000S/N                              9896000089229487015                                                   NN2                    INTERIOR            0000000000000030                                                                                                             
220000002RS00000004313425MARIO REIMMARIO REIMANN                           RUA SANTA ROSA                          0000152                              9895500021113505087                       (55)35441049                NN2                    CENTRO              0055000000000030                                                                                                             
220000002RS00000004317202MUSKOPF MEMUSKOPF METAL WORKS METAL. MEC. LTDA    RODOVIA BR472 KM 07                     0001200                              9890000089895957000157                    (55)99623296                NN1                    CASCATA SANTO CRISTO0055000000000030                                                                                                             
220000002RS00000004317202MILTON CARMILTON CARLOS ABEGG                     RUA JULIO LEOPOLDO RAUBERT              0000162                              9890000027528642053                                                   NN2                    CENTRO NORTE        0000000000000030                                                                                                             
220000002RS00000004305207MAIARA LERMAIARA LERMEN                           RUA DR. OTTO FLACH                      0000826                              9790000001907952047                                                   NN2                    CENTRO              0000000000000030                                                                                                             
220000002RS00000004305207MILTON SCHMILTON SCHEID                           RUA HENRIQUE THOMAS                     0001143                              9790000039038653034                                                   NN2                    ESQUINA GAUCHA      0000000000000030                                                                                                             
220000002RS00000004322301MARLENE DUMARLENE DUNKE SONZA                     AV. MAUA                                0001030                              9894000089829867072                                                   NN2                    CENTRO              0000000000000030                                                                                                             
220000002RS00000004322301MARCELO BIMARCELO BIN                             CINQUENTENARIO                          0000S/N                              9894600092773184068                       (55)35951129                NN2                    INTERIOR            0055000000000030                                                                                                             
220000002RS00000004315057MARCOS ANTMARCOS ANTONIO BERNARDI                 SAO JOSE DO MAUA                        0000S/N                              9894700091111676020                                                   NN2                    INTERIOR            0000000000000030                                                                                                             
220000002RS00000004305009GERSON GILGERSON GILMAR CARMELUTTI                RUA JOAQUIM RODRIGUES                   0000984                              9877000052366693087                                                   NN2                    SANTA ROSA          0000000000000030                                                                                                             
220000002RS00000004305009LUIZ AURI LUIZ AURI VIZIOLI                       RINCAO DOS RIETH                        0000S/N                              9877000004313801049                                                   NN2                    INTERIOR            0000000000000030                                                                                                             
220000002RS00000004316477MARLI JACIMARLI JACINTA SCHMITZ                   RUA PADRE OTILON JAGUER                 0000S/N                              9794000057114110049                                                   NN2                    VILA SANTA CATARINA 0000000000000030                                                                                                             
220000002RS00000004309506NEILA VETTNEILA VETTORAZZI KORNOWSKI              CXP:19                                  0000S/N                              9795000054364655015                                                   NN2                    INTERIOR HARMONIA   0000000000000030                                                                                                             
220000002RS00000004305207NOLAR ALLENOLAR ALLES                             SAO FRANCISCO                           0000S/N                              9790000030884870006                       (55) 3505-7538              NN2                    INTERIOR            0055000000000030                                                                                                             
220000002RS00000004317509NELSON FONNELSON FONSECA DE MELLO                 RUA BENTO GONCALVES                     0000976                              9880170016289544004                                                   NN2                    CENTRO              0000000000000030                                                                                                             
220000002RS00000004319372NEI JOSE LNEI JOSE LOEBET                         RUA ROMILDO SCHNEIDER                   0001545                              9792000065342909015                                                   NN2                    CENTRO              0000000000000030                                                                                                             
220000002RS00000004319372NELSON BOENELSON BOESING                          RUA CASTELO BRANCO                      0000989                              9792000030968127053                       (55)33691153                NN2                    CENTRO              0055000000000030                                                                                                             
220000002RS00000004319372NEDI LEONONEDI LEONORA MAYER MATTES               RUA PEDRO THOMAS                        0000702                              9792000058874992068                       (55) 3369-1116              NN2                    CENTRO              0055000000000030                                                                                                             
220000002RS00000004323754NELSON BARNELSON BARICHELLO                       RUA DOS IMIGRANTES                      0001061                              9885000016473396004                       (55)33551568                NN2                    CENTRO              0055000000000030                                                                                                             
220000002RS00000004303301NERISOM LUNERISOM LUIZ ROHLEDER                   RUA SEFRIN                              0001701                              9793000000345867092                                                   NN2                    CENTRO              0000000000000030                                                                                                             
220000002RS00000004303301NEILA TERENEILA TERESINHA LEAL SCHLOTEFELDT       RUA MONSENHOR                           0001239                              9793000035350636049                                                   NN2                    CENTRO              0000000000000030                                                                                                             
220000002RS00000004317905NEWTON LUINEWTON LUIZ HOSS                        RUA OLAVO BILAC                         0000654                              9896000039563200004                       (55)35411626                NN2                    CENTRO              0055000000000030                                                                                                             
220000002RS00000004317905PAULO CEZAPAULO CEZAR BOGORNI                     LINHA SALTO                             0000S/N                              9896000044169051068                                                   NN2                    INTERIOR            0000000000000030                                                                                                             
220000002RS00000004317905ROMEU ALOIROMEU ALOISIO LOEBENS                   RUA VEREADOR ASSMANN                    0000585                              9896000021696624053                                                   NN2                    CENTRO              0000000000000030                                                                                                             
220000002RS00000004317905VOLNEI JOSVOLNEI JOSE ENGEL                       RUA DOM FELIPE DE NADAL                 0000844                              9896000066140358000                                                   NN2                    OPERARIA            0000000000000030                                                                                                             
220000002RS00000004317905VANDERLISEVANDERLISE INES ANGST                   LINHA ALMA                              0000S/N                              9896000000879661070                                                   NN2                    INTERIOR            0000000000000030                                                                                                             
220000002RS00000004317905VALMIR JOSVALMIR JOSE STEFFENS                    RUA DOM PEDRO II                        0002606                              9896000068566840020                                                   NN2                    CENTRO              0000000000000030                                                                                                             
220000002RS00000004317905KUHN & MARKUHN & MARTMITT  ASSESORIA E CONSULTORIARUA AMANDAU                             0000042                              9896000009198772000154                    3541-2786                   NN1                    CENTRO              3541000000000030                                                                                                             
220000002RS00000004317905WALDIR LUIWALDIR LUIS PETERS                      LINHA DIVISA                            0000S/N                              9896000036488356020                                                   NN2                    INTERIOR            0000000000000030                                                                                                             
220000002RS00000004317905OLIVIA ZIMOLIVIA ZIMMERMANN & CIA LTDA            BOM PRINCIPIO BAIXO                     0000S/N                              9896000002436957000100                    (55)35411887                NN1                    INTERIOR            0055000000000030                                                                                                             
220000002RS00000004317905ROMEU JUNGROMEU JUNG                              LINHA SALTO                             0000S/N                              9896000030917271068                                                   NN2                    INTERIOR            0000000000000030                                                                                                             
220000002RS00000004317905ROQUE BENTROQUE BENTO KNEBEL                      RUA AMANDAU                             0000097                              9896000041100816020                                                   NN2                    CENTRO              0000000000000030                                                                                                             
220000002RS00000004317905VOLNEI GILVOLNEI GILBERTO PINTO                   RUA LEOPLDO OST                         0000062                              9896000047453516072                       (55)35411995                NN2                    CENTRO              0055000000000030                                                                                                             
220000002RS00000004317905VILMAR KUNVILMAR KUNZLER                          RUA OLAVO BILAC                         0000548                              9896000047296640006                       (55)35411285                NN2                    CENTRO              0055000000000030                                                                                                             
220000002RS00000004317905VIDRACARIAVIDRACARIA VITRAL                       RUA DOM PEDRO II                        0001490                              9896000000130103000176                    (55)35411640                NN1                    CENTRO              0055000000000030                                                                                                             
220000002RS00000004313425PAULO CESAPAULO CESAR ZAMIN                       TRAVESSA EDMUNDO STEIN                  0000160                              9895500070541701053                                                   NN2                    CENTRO              0000000000000030                                                                                                             
220000002RS00000004313425WILLI STEIWILLI STEINKE                           RUA SANTA MARA                          0002105                              9895500024694916068                       (55)35441320                NN2                    CENTRO              0055000000000030                                                                                                             
220000002RS00000004319158VALDIR ELOVALDIR ELOI PHILLIPP                    SERRA SAO JOSE                          0000S/N                              9886500047446013087                                                   NN2                    INTERIOR            0000000000000030                                                                                                             
220000002RS00000004317509SILVANA SISILVANA SILVEIRA DOBLER                 AV BRASIL                               0000165                              9880159082867305004                       (55)35057018                NN2                    BOA ESPERANCA       0055000000000030                                                                                                             
220000002RS00000004319158SELVINO JOSELVINO JOAO BUCHNER                    RINCAO DOS CAVALHEIROS                  0000S/N                              9886500031299458068                                                   NN2                    INTERIOR            0000000000000030                                                                                                             
220000002RS00000004319158RODRIGO PERODRIGO PEZZINI                         RINCAO DOS RIBAS                        0000S/N                              9886500002033663019                                                   NN2                    INTERIOR            0000000000000030                                                                                                             
220000002RS00000004319158ONEIDE DUTONEIDE DUTRA SEVERO                     RUA 25 DE ABRIL                         0000246                              9886500045981736020                                                   NN2                    CENTRO              0000000000000030                                                                                                             
220000002RS00000004305009VALMIR FELVALMIR FELIPO ROSSO                     RUA IJUI                                0000082                              9877000022403221015                                                   NN2                    SANTA ROSA          0000000000000030                                                                                                             
220000002RS00000004305009TELMO LUIZTELMO LUIZ SFALCIN                      SANTA TEREZINHA                         0000S/N                              9877000039318729049                       (55)36132190                NN2                    INTERIOR            0055000000000030                                                                                                             
220000002RS00000004316477RODOLFO SCRODOLFO SCHONS                          VILA SANTA CATARINA                     0000S/N                              9794000046083642000                                                   NN2                    INTERIOR            0000000000000030                                                                                                             
220000002RS00000004319372ORLANDO JOORLANDO JOSE ADANS                      ESQUINA UNIAO                           0000S/N                              9792000005999642949                                                   NN2                    INTERIOR            0000000000000030                                                                                                             
220000002RS00000004319372ROQUE ARENROQUE ARENHART                          ROMILDO SCHNEIDER                       0000910                              9792000003585697020                                                   NN2                    CENTRO              0000000000000030                                                                                                             
220000002RS00000004319372RICARDO SPRICARDO SPIES                           LINHA BEIJA FLOR                        0000S/N                              9792000001491333081                                                   NN2                    INTERIOR            0000000000000030                                                                                                             
220000002RS00000004319372RUBEM HACKRUBEM HACKENHAAR                        RUA REINOLDO JACOBS                     0000861                              9792000038591421000                       (55)33691177                NN2                    CENTRO              0055000000000030                                                                                                             
220000002RS00000004319372ROQUE INACROQUE INACIO ANGNES LIMBERGER           LINHA SANTA TERESINHA                   0000S/N                              9792000037245813000                                                   NN2                    INTERIOR            0000000000000030                                                                                                             
220000002RS00000004319372RICARDO LURICARDO LUIS STEFFENS                   VILA BUTIA INFERIOR                     0000S/N                              9792000033234361053                                                   NN2                    INFERIOR            0000000000000030                                                                                                             
220000002RS00000004319372SILVINO WISILVINO WILLCHEN                        RUA 7 DE SETEMBRO                       0001211                              9792000014446421034                                                   NN2                    CENTRO              0000000000000030                                                                                                             
220000002RS00000004319372TEREZINHA TEREZINHA ANA TREVISAN                  AV. JULIO SCHENBERGER                   0000S/N                              9792000025732323015                       (55)33691077                NN2                    CENTRO              0055000000000030                                                                                                             
220000002RS00000004319372VALDIR REIVALDIR REICHERT                         RUA JULIO SCHWENGBER                    0000715                              9792000030991137000                       (55)33691008                NN2                    CENTRO              0055000000000030                                                                                                             
220000002RS00000004319372VILSON GETVILSON GETULIO SOARES GARCIA            RUA  7 DE SETEMBRO                      0001441                              9792000033242950097                       (55)33691289                NN2                    CENTRO              0055000000000030                                                                                                             
220000002RS00000004319372VIRO LIMBEVIRO LIMBERGER                          VILA TIPAO                              0000S/N                              9792000043368484087                                                   NN2                    INTERIOR            0000000000000030                                                                                                             
220000002RS00000004319372VILMAR SANVILMAR SANTONI CIA LTDA                 RUA EUGENIO FRANTZ                      0000455                              9792000005321616000188                    (55)33691200                NN1                    INDUSTRIAL          0055000000000030                                                                                                             
220000002RS00000004319307VICENTE JOVICENTE JOAO KUNZ                       POVOADO IPE                             0000S/N                              9798000024579254015                                                   NN2                    INTERIOR            0000000000000030                                                                                                             
220000002RS00000004316303ROGERIO RAROGERIO RAMOS                           AV. PIRAPO                              0002320                              9797000063841967000                                                   NN2                    CENTRO              0000000000000030                                                                                                             
220000002RS00000004316303SILVESTRE SILVESTRE JOSE SCHER                    RUA INDEPENDENCIA                       0000195                              9797000028824253091                       (55)33651201                NN2                    CENTRO              0055000000000030                                                                                                             
220000002RS00000004306932ZILMAR PREZILMAR PRESTES DO NASCIMENTO            ESQUINA GAUCHA                          0000S/N                              9885500023460164034                                                   NN2                    INTERIOR            0000000000000030                                                                                                             
220000002RS00000004306932TANIA SCHATANIA SCHAURICH                         ESQUINA CARAGUATA                       0000S/N                              9885500065468163004                       (55)99288928                NN2                    INTERIOR            0055000000000030                                                                                                             
220000002RS00000004303301PAULO MARIPAULO MARIO STOFFELS                    RUA 15 DE MAIO                          0001519                              9793000028519264034                       (55)33551254                NN2                    CENTRO              0055000000000030                                                                                                             
220000002RS00000004303301RENATO DA RENATO DA SILVA MACHADO                 RINCAO DA CONCEICAO                     0000S/N                              9793000027569055004                                                   NN2                    INTERIOR            0000000000000030                                                                                                             
220000002RS00000004303301RODRIGO SCRODRIGO SCHNEIDER                       LINHA PASSO NOVO                        0000S/N                              9793000094335214049                                                   NN2                    INTERIOR            0000000000000030                                                                                                             
220000002RS00000004312179RUBIELE KRRUBIELE KROMBAUER                       RUA SAO LEOPOLDO                        0000895                              9793500000591121077                                                   NN2                    CENTRO              0000000000000030                                                                                                             
220000002RS00000004303301ZILMAR SAUZILMAR SAUSEN                           RUA MON SENHOR WOLSK                    0001624                              9793000019016310010                                                   NN2                    CENTRO              0000000000000030                                                                                                             
220000002RS00000004309506SILVESTRE SILVESTRE GURSKI SETSCHUK               RUA SANTO CRISTO                        0001387                              9795000036771953068                                                   NN2                    SANTA TEREZA        0000000000000030                                                                                                             
220000002RS00000004323754NELIO MINENELIO MINETTO                           RUA DOS IMIGRANTES                      0000567                              9885000044987552000                       (55)36144190                NN2                    CENTRO              0055000000000030                                                                                                             
220000002RS00000004323754OLINTO BUROLINTO BURIN                            RUA 20 DE SETEMBRO                      0000S/N                              9885000035795654000                       (55)36144151                NN2                    CENTRO              0055000000000030                                                                                                             
220000002RS00000004323754PAULO ROBEPAULO ROBERTO COLETTO                   RUA DOS IMIGRANTES                      0001373                              9885000042349028020                       (55)36144214                NN2                    CENTRO              0055000000000030                                                                                                             
220000002RS00000004323754SILVIO BONSILVIO BONINI                           ESQUINA SOMAVILA                        0000S/N                              9885000039464415053                       (55)36144109                NN2                    INTERIOR            0055000000000030                                                                                                             
220000002RS00000004317202POSTO DO IPOSTO DO ILDO                           ESQUINA GUIA LOPES BR 472 KM 04         0000S/N                              9890000000706355000109                    (55)35112133  (55)35139061  NN1                    INTERIOR            0055000000000030                                                                                                             
220000002RS00000004317202SERGIO FRASERGIO FRANCISCO CAPPELLARI             GUIA LOPES CXP.:38                      0000S/N                              9890000043842402015                       (55)35139281                NN2                    INTERIOR            0055000000000030                                                                                                             
220000002RS00000004317202VILI NERI VILI NERI MAYER HEMMILA                 RUA URUGUAIANA                          0000046                              9890000019952716087                                                   NN2                    SULINA              0000000000000030                                                                                                             
220000002RS00000004322301VITOR ANTOVITOR ANTONIO CARPENEDO                 VILA SAO ROQUE                          0000772                              9894000055107818072                                                   NN2                    CENTRO              0000000000000030                                                                                                             
220000002RS00000004322301PAROQUIA NPAROQUIA NOSSA SENHORA DA SAUDE         VILA CINQUENTENARIO                     0000S/N                              9894000087697769001837                    (55)35951150                NN1                    INTERIOR            0055000000000030                                                                                                             
220000002RS00000004322301PAULO CAVAPAULO CAVALLI                           VILA CINQUENTENARIO                     0000S/N                              9894600028758374000                                                   NN2                    INTERIOR            0000000000000030                                                                                                             
220000002RS00000004322301OMAR BIN  OMAR BIN                                VILA CINQUENTENARIO                     0000S/N                              9894600013460579072                       (55)35951001                NN2                    INTERIOR            0055000000000030                                                                                                             
220000002RS00000004305207OCTAVIAN GOCTAVIAN GERHARDT                       RUA DR. JOAO SEBASTIANY                 0000457                              9790000003231151015                       (55)33591939                NN2                    CENTRO              0055000000000030                                                                                                             
