02RETORNO01COBRANCA       0130608411698000140                               748BANSICREDI     20120106        0000060                                                                                                                                                                                                                                                                                 1.00000001
1            A002SC     2                      112045441                                                    060501120112045441030706              1012110000000004490         J000000000000000000000000000000000000000000000000000000000000000000000000000000000000000489100000000000000000000000000                          000000000020120105                                                          000002
1            A0021I     2                      112037902                                                    060501120112037902030706              1012110000000005390         J000000000000000000000000000000000000000000000000000000000000000000000000000000000000000586200000000003640000000000108                          000000000020120105                                                          000003
1            A00GOM     2                      112074425                                                    060501120112074425030702              1012110000000002842         J000000000000000000000000000000000000000000000000000000000000000000000000000000000000000308100000000001820000000000057                          000000000020120105                                                          000004
1            A002WZ     2                      112046510                                                    060501120112046510030706              1012110000000004490         J000000000000000000000000000000000000000000000000000000000000000000000000000000000000000489200000000003120000000000090                          000000000020120105                                                          000005
1            A0039J     2                      112049340                                                    060501120112049340030703              1012110000000004490         J000000000000000000000000000000000000000000000000000000000000000000000000000000000000000489100000000003120000000000089                          000000000020120105                                                          000006
1            A00I4T     2                      112061137                                                    060501120112061137030706              1012110000000004490         J000000000000000000000000000000000000000000000000000000000000000000000000000000000000000489200000000003120000000000090                          000000000020120105                                                          000007
1            A005HZ     2                      112074492                                                    060501120112074492030707              1012110000000004040         J000000000000000000000000000000000000000000000000000000000000000000000000000000000000000440700000000002860000000000081                          000000000020120105                                                          000008
1            A0043I     2                      112057466                                                    060501120112057466030721              1012110000000004490         J000000000000000000000000000000000000000000000000000000000000000000000000000000000000000489100000000003120000000000089                          000000000020120105                                                          000009
1            A002UX     2                      112046332                                                    060501120112046332030715              1012110000000004040         J000000000000000000000000000000000000000000000000000000000000000000000000000000000000000440600000000002860000000000080                          000000000020120105                                                          000010
1            C0000000000                       112109164                                                    06050112          030703                    0000000004490                                                              00000000000000000000000000000000000449000000000000000000000000000                          00        20120105                                                          000011
1            C0000000000                       112109164                                                    28050112          030703                    0000000000050                                                              00000000000000000000000000000000000449000000000000000000000000000                          B3        20120105                                                          000012
1            C0000000000                       112126409                                                    06050112          030728                    0000000003092                                                              00000000000000000000000000000000000309200000000000000000000000000                          00        20120105                                                          000013
1            C0000000000                       112126409                                                    28050112          030728                    0000000000050                                                              00000000000000000000000000000000000309200000000000000000000000000                          B3        20120105                                                          000014
1            C0000000000                       112106882                                                    06050112          030704                    0000000004040                                                              00000000000000000000000000000000000404000000000000000000000000000                          00        20120105                                                          000015
1            C0000000000                       112106882                                                    28050112          030704                    0000000000050                                                              00000000000000000000000000000000000404000000000000000000000000000                          B3        20120105                                                          000016
1            C0000000000                       112090560                                                    06050112          030726                    0000000004490                                                              00000000000000000000000000000000000449000000000000000000000000000                          00        20120105                                                          000017
1            C0000000000                       112090560                                                    28050112          030726                    0000000000050                                                              00000000000000000000000000000000000449000000000000000000000000000                          B3        20120105                                                          000018
1            C0000000000                       112117477                                                    06050112          030704                    0000000004490                                                              00000000000000000000000000000000000449000000000000000000000000000                          00        20120105                                                          000019
1            C0000000000                       112117477                                                    28050112          030704                    0000000000050                                                              00000000000000000000000000000000000449000000000000000000000000000                          B3        20120105                                                          000020
1            C0000000000                       112114389                                                    06050112          030703                    0000000004490                                                              00000000000000000000000000000000000449000000000000000000000000000                          00        20120105                                                          000021
1            C0000000000                       112114389                                                    28050112          030703                    0000000000050                                                              00000000000000000000000000000000000449000000000000000000000000000                          B3        20120105                                                          000022
1            C0000000000                       112108737                                                    06050112          030706                    0000000004490                                                              00000000000000000000000000000000000449000000000000000000000000000                          00        20120105                                                          000023
1            C0000000000                       112108737                                                    28050112          030706                    0000000000050                                                              00000000000000000000000000000000000449000000000000000000000000000                          B3        20120105                                                          000024
1            C0000000000                       112092059                                                    06050112          030702                    0000000008900                                                              00000000000000000000000000000000000890000000000000000000000000000                          00        20120105                                                          000025
1            C0000000000                       112092059                                                    28050112          030702                    0000000000050                                                              00000000000000000000000000000000000890000000000000000000000000000                          B3        20120105                                                          000026
1            C0000000000                       112092377                                                    06050112          030717                    0000000004490                                                              00000000000000000000000000000000000449000000000000000000000000000                          00        20120105                                                          000027
1            C0000000000                       112092377                                                    28050112          030717                    0000000000050                                                              00000000000000000000000000000000000449000000000000000000000000000                          B3        20120105                                                          000028
1            C0000000000                       112100353                                                    06050112          030703                    0000000004490                                                              00000000000000000000000000000000000449000000000000000000000000000                          00        20120105                                                          000029
1            C0000000000                       112100353                                                    28050112          030703                    0000000000050                                                              00000000000000000000000000000000000449000000000000000000000000000                          B3        20120105                                                          000030
1            C0000000000                       112118309                                                    06050112          030704                    0000000004490                                                              00000000000000000000000000000000000449000000000000000000000000000                          00        20120105                                                          000031
1            C0000000000                       112118309                                                    28050112          030704                    0000000000050                                                              00000000000000000000000000000000000449000000000000000000000000000                          B3        20120105                                                          000032
1            C0000000000                       112107617                                                    06050112          030707                    0000000004490                                                              00000000000000000000000000000000000449000000000000000000000000000                          00        20120105                                                          000033
1            C0000000000                       112107617                                                    28050112          030707                    0000000000050                                                              00000000000000000000000000000000000449000000000000000000000000000                          B3        20120105                                                          000034
1            C0000000000                       112097999                                                    06050112          030703                    0000000004490                                                              00000000000000000000000000000000000449000000000000000000000000000                          00        20120105                                                          000035
1            C0000000000                       112097999                                                    28050112          030703                    0000000000050                                                              00000000000000000000000000000000000449000000000000000000000000000                          B3        20120105                                                          000036
1            C0000000000                       112125925                                                    06050112          030704                    0000000005538                                                              00000000000000000000000000000000000553800000000000000000000000000                          00        20120105                                                          000037
1            C0000000000                       112125925                                                    28050112          030704                    0000000000050                                                              00000000000000000000000000000000000553800000000000000000000000000                          B3        20120105                                                          000038
1            C0000000000                       112103751                                                    06050112          030703                    0000000004490                                                              00000000000000000000000000000000000449000000000000000000000000000                          00        20120105                                                          000039
1            C0000000000                       112103751                                                    28050112          030703                    0000000000050                                                              00000000000000000000000000000000000449000000000000000000000000000                          B3        20120105                                                          000040
1            C0000000000                       112105584                                                    06050112          036102                    0000000004490                                                              00000000000000000000000000000000000449000000000000000000000000000                          00        20120105                                                          000041
1            C0000000000                       112105584                                                    28050112          036102                    0000000000050                                                              00000000000000000000000000000000000449000000000000000000000000000                          B3        20120105                                                          000042
1            C0000000000                       112114109                                                    06050112          030715                    0000000004490                                                              00000000000000000000000000000000000449000000000000000000000000000                          00        20120105                                                          000043
1            C0000000000                       112114109                                                    28050112          030715                    0000000000050                                                              00000000000000000000000000000000000449000000000000000000000000000                          B3        20120105                                                          000044
1            C0000000000                       112113501                                                    06050112          030704                    0000000004490                                                              00000000000000000000000000000000000449000000000000000000000000000                          00        20120105                                                          000045
1            C0000000000                       112113501                                                    28050112          030704                    0000000000050                                                              00000000000000000000000000000000000449000000000000000000000000000                          B3        20120105                                                          000046
1            C0000000000                       112094710                                                    06050112          030715                    0000000007990                                                              00000000000000000000000000000000000799000000000000000000000000000                          00        20120105                                                          000047
1            C0000000000                       112094710                                                    28050112          030715                    0000000000050                                                              00000000000000000000000000000000000799000000000000000000000000000                          B3        20120105                                                          000048
1            C0000000000                       112104790                                                    06050112          030702                    0000000004490                                                              00000000000000000000000000000000000449000000000000000000000000000                          00        20120105                                                          000049
1            C0000000000                       112104790                                                    28050112          030702                    0000000000050                                                              00000000000000000000000000000000000449000000000000000000000000000                          B3        20120105                                                          000050
1            C0000000000                       112101589                                                    06050112          030737                    0000000004490                                                              00000000000000000000000000000000000449000000000000000000000000000                          00        20120105                                                          000051
1            C0000000000                       112101589                                                    28050112          030737                    0000000000050                                                              00000000000000000000000000000000000449000000000000000000000000000                          B3        20120105                                                          000052
1            C0000000000                       112122802                                                    06050112          030726                    0000000004490                                                              00000000000000000000000000000000000449000000000000000000000000000                          00        20120105                                                          000053
1            C0000000000                       112122802                                                    28050112          030726                    0000000000050                                                              00000000000000000000000000000000000449000000000000000000000000000                          B3        20120105                                                          000054
1            C0000000000                       112108524                                                    06050112          030702                    0000000004490                                                              00000000000000000000000000000000000449000000000000000000000000000                          00        20120105                                                          000055
1            C0000000000                       112108524                                                    28050112          030702                    0000000000050                                                              00000000000000000000000000000000000449000000000000000000000000000                          B3        20120105                                                          000056
1            C0000000000                       112108966                                                    06050112          030738                    0000000004490                                                              00000000000000000000000000000000000449000000000000000000000000000                          00        20120105                                                          000057
1            C0000000000                       112108966                                                    28050112          030738                    0000000000050                                                              00000000000000000000000000000000000449000000000000000000000000000                          B3        20120105                                                          000058
1            C0000000000                       112108559                                                    06050112          030735                    0000000004490                                                              00000000000000000000000000000000000449000000000000000000000000000                          00        20120105                                                          000059
1            C0000000000                       112108559                                                    28050112          030735                    0000000000050                                                              00000000000000000000000000000000000449000000000000000000000000000                          B3        20120105                                                          000060
1            C0000000000                       112098200                                                    06050112          030702                    0000000004040                                                              00000000000000000000000000000000000404000000000000000000000000000                          00        20120105                                                          000061
1            C0000000000                       112098200                                                    28050112          030702                    0000000000050                                                              00000000000000000000000000000000000404000000000000000000000000000                          B3        20120105                                                          000062
1            C0000000000                       112118961                                                    06050112          030737                    0000000008900                                                              00000000000000000000000000000000000890000000000000000000000000000                          00        20120105                                                          000063
1            C0000000000                       112118961                                                    28050112          030737                    0000000000050                                                              00000000000000000000000000000000000890000000000000000000000000000                          B3        20120105                                                          000064
1            C0000000000                       112122284                                                    06050112          030706                    0000000003900                                                              00000000000000000000000000000000000390000000000000000000000000000                          00        20120105                                                          000065
1            C0000000000                       112122284                                                    28050112          030706                    0000000000050                                                              00000000000000000000000000000000000390000000000000000000000000000                          B3        20120105                                                          000066
1            C0000000000                       112121288                                                    06050112          030706                    0000000005990                                                              00000000000000000000000000000000000599000000000000000000000000000                          00        20120105                                                          000067
1            C0000000000                       112121288                                                    28050112          030706                    0000000000050                                                              00000000000000000000000000000000000599000000000000000000000000000                          B3        20120105                                                          000068
1            C0000000000                       112107676                                                    06050112          030706                    0000000004490                                                              00000000000000000000000000000000000449000000000000000000000000000                          00        20120105                                                          000069
1            C0000000000                       112107676                                                    28050112          030706                    0000000000050                                                              00000000000000000000000000000000000449000000000000000000000000000                          B3        20120105                                                          000070
1            C0000000000                       112113790                                                    06050112          030703                    0000000004490                                                              00000000000000000000000000000000000449000000000000000000000000000                          00        20120105                                                          000071
1            C0000000000                       112113790                                                    28050112          030703                    0000000000050                                                              00000000000000000000000000000000000449000000000000000000000000000                          B3        20120105                                                          000072
1            C0000000000                       112124791                                                    06050112          030703                    0000000004490                                                              00000000000000000000000000000000000449000000000000000000000000000                          00        20120105                                                          000073
1            C0000000000                       112124791                                                    28050112          030703                    0000000000050                                                              00000000000000000000000000000000000449000000000000000000000000000                          B3        20120105                                                          000074
1            C0000000000                       112104766                                                    06050112          030726                    0000000004040                                                              00000000000000000000000000000000000404000000000000000000000000000                          00        20120105                                                          000075
1            C0000000000                       112104766                                                    28050112          030726                    0000000000050                                                              00000000000000000000000000000000000404000000000000000000000000000                          B3        20120105                                                          000076
1            C0000000000                       112090234                                                    06050112          030702                    0000000005990                                                              00000000000000000000000000000000000599000000000000000000000000000                          00        20120105                                                          000077
1            C0000000000                       112090234                                                    28050112          030702                    0000000000050                                                              00000000000000000000000000000000000599000000000000000000000000000                          B3        20120105                                                          000078
1            C0000000000                       112099991                                                    06050112          030703                    0000000004490                                                              00000000000000000000000000000000000449000000000000000000000000000                          00        20120105                                                          000079
1            C0000000000                       112099991                                                    28050112          030703                    0000000000050                                                              00000000000000000000000000000000000449000000000000000000000000000                          B3        20120105                                                          000080
1            C0000000000                       112092385                                                    06050112          030717                    0000000004490                                                              00000000000000000000000000000000000449000000000000000000000000000                          00        20120105                                                          000081
1            C0000000000                       112092385                                                    28050112          030717                    0000000000050                                                              00000000000000000000000000000000000449000000000000000000000000000                          B3        20120105                                                          000082
1            C0000000000                       112096216                                                    06050112          030706                    0000000004490                                                              00000000000000000000000000000000000449000000000000000000000000000                          00        20120105                                                          000083
1            C0000000000                       112096216                                                    28050112          030706                    0000000000050                                                              00000000000000000000000000000000000449000000000000000000000000000                          B3        20120105                                                          000084
1            C0000000000                       112105061                                                    06050112          030704                    0000000004040                                                              00000000000000000000000000000000000404000000000000000000000000000                          00        20120105                                                          000085
1            C0000000000                       112105061                                                    28050112          030704                    0000000000050                                                              00000000000000000000000000000000000404000000000000000000000000000                          B3        20120105                                                          000086
1            C0000000000                       112097590                                                    06050112          030727                    0000000004040                                                              00000000000000000000000000000000000404000000000000000000000000000                          00        20120105                                                          000087
1            C0000000000                       112097590                                                    28050112          030727                    0000000000050                                                              00000000000000000000000000000000000404000000000000000000000000000                          B3        20120105                                                          000088
1            C0000000000                       112107544                                                    06050112          030703                    0000000004490                                                              00000000000000000000000000000000000449000000000000000000000000000                          00        20120105                                                          000089
1            C0000000000                       112107544                                                    28050112          030703                    0000000000050                                                              00000000000000000000000000000000000449000000000000000000000000000                          B3        20120105                                                          000090
1            C0000000000                       112090145                                                    06050112          030722                    0000000004040                                                              00000000000000000000000000000000000404000000000000000000000000000                          00        20120105                                                          000091
1            C0000000000                       112090145                                                    28050112          030722                    0000000000050                                                              00000000000000000000000000000000000404000000000000000000000000000                          B3        20120105                                                          000092
1            C0000000000                       112118279                                                    06050112          030725                    0000000004490                                                              00000000000000000000000000000000000449000000000000000000000000000                          00        20120105                                                          000093
1            C0000000000                       112118279                                                    28050112          030725                    0000000000050                                                              00000000000000000000000000000000000449000000000000000000000000000                          B3        20120105                                                          000094
1            C0000000000                       112109920                                                    06050112          030722                    0000000004490                                                              00000000000000000000000000000000000449000000000000000000000000000                          00        20120105                                                          000095
1            C0000000000                       112109920                                                    28050112          030722                    0000000000050                                                              00000000000000000000000000000000000449000000000000000000000000000                          B3        20120105                                                          000096
1            C0000000000                       112110472                                                    06050112          030704                    0000000004490                                                              00000000000000000000000000000000000449000000000000000000000000000                          00        20120105                                                          000097
1            C0000000000                       112110472                                                    28050112          030704                    0000000000050                                                              00000000000000000000000000000000000449000000000000000000000000000                          B3        20120105                                                          000098
1            C0000000000                       112119810                                                    06050112          030706                    0000000004490                                                              00000000000000000000000000000000000449000000000000000000000000000                          00        20120105                                                          000099
1            C0000000000                       112119810                                                    28050112          030706                    0000000000050                                                              00000000000000000000000000000000000449000000000000000000000000000                          B3        20120105                                                          000100
1            C0000000000                       112115440                                                    06050112          030703                    0000000004490                                                              00000000000000000000000000000000000449000000000000000000000000000                          00        20120105                                                          000101
1            C0000000000                       112115440                                                    28050112          030703                    0000000000050                                                              00000000000000000000000000000000000449000000000000000000000000000                          B3        20120105                                                          000102
1            C0000000000                       112091907                                                    06050112          030738                    0000000007990                                                              00000000000000000000000000000000000799000000000000000000000000000                          00        20120105                                                          000103
1            C0000000000                       112091907                                                    28050112          030738                    0000000000050                                                              00000000000000000000000000000000000799000000000000000000000000000                          B3        20120105                                                          000104
1            C0000000000                       112122594                                                    06050112          030729                    0000000004490                                                              00000000000000000000000000000000000449000000000000000000000000000                          00        20120105                                                          000105
1            C0000000000                       112122594                                                    28050112          030729                    0000000000050                                                              00000000000000000000000000000000000449000000000000000000000000000                          B3        20120105                                                          000106
1            C0000000000                       112095643                                                    06050112          030707                    0000000004490                                                              00000000000000000000000000000000000449000000000000000000000000000                          00        20120105                                                          000107
1            C0000000000                       112095643                                                    28050112          030707                    0000000000050                                                              00000000000000000000000000000000000449000000000000000000000000000                          B3        20120105                                                          000108
1            C0000000000                       112111681                                                    06050112          030735                    0000000004490                                                              00000000000000000000000000000000000449000000000000000000000000000                          00        20120105                                                          000109
1            C0000000000                       112111681                                                    28050112          030735                    0000000000050                                                              00000000000000000000000000000000000449000000000000000000000000000                          B3        20120105                                                          000110
1            C0000000000                       112118996                                                    06050112          030706                    0000000004490                                                              00000000000000000000000000000000000449000000000000000000000000000                          00        20120105                                                          000111
1            C0000000000                       112118996                                                    28050112          030706                    0000000000050                                                              00000000000000000000000000000000000449000000000000000000000000000                          B3        20120105                                                          000112
1            C0000000000                       112116586                                                    06050112          030736                    0000000004490                                                              00000000000000000000000000000000000449000000000000000000000000000                          00        20120105                                                          000113
1            C0000000000                       112116586                                                    28050112          030736                    0000000000050                                                              00000000000000000000000000000000000449000000000000000000000000000                          B3        20120105                                                          000114
1            C0000000000                       122113962                                                    06050112          030728                    0000000002245                                                              00000000000000000000000000000000000224500000000000000000000000000                          00        20120105                                                          000115
1            C0000000000                       122113962                                                    28050112          030728                    0000000000050                                                              00000000000000000000000000000000000224500000000000000000000000000                          B3        20120105                                                          000116
1            C0000000000                       112124490                                                    06050112          030725                    0000000004490                                                              00000000000000000000000000000000000449000000000000000000000000000                          00        20120105                                                          000117
1            C0000000000                       112124490                                                    28050112          030725                    0000000000050                                                              00000000000000000000000000000000000449000000000000000000000000000                          B3        20120105                                                          000118
1            C0000000000                       122074266                                                    06050112          030729                    0000000001616                                                              00000000000000000000000000000000000165400000000000080000000000030                          00        20120105                                                          000119
1            C0000000000                       122074266                                                    28050112          030729                    0000000000050                                                              00000000000000000000000000000000000165400000000000080000000000030                          B3        20120105                                                          000120
1            C0000000000                       122074401                                                    06050112          030729                    0000000001934                                                              00000000000000000000000000000000000198000000000000100000000000036                          00        20120105                                                          000121
1            C0000000000                       122074401                                                    28050112          030729                    0000000000050                                                              00000000000000000000000000000000000198000000000000100000000000036                          B3        20120105                                                          000122
1            C0000000000                       112110820                                                    06050112          030704                    0000000004490                                                              00000000000000000000000000000000000449000000000000000000000000000                          00        20120105                                                          000123
1            C0000000000                       112110820                                                    28050112          030704                    0000000000050                                                              00000000000000000000000000000000000449000000000000000000000000000                          B3        20120105                                                          000124
1            C0000000000                       112120680                                                    06050112          030737                    0000000004490                                                              00000000000000000000000000000000000449000000000000000000000000000                          00        20120105                                                          000125
1            C0000000000                       112120680                                                    28050112          030737                    0000000000050                                                              00000000000000000000000000000000000449000000000000000000000000000                          B3        20120105                                                          000126
1            C0000000000                       112099037                                                    06050112          030715                    0000000004040                                                              00000000000000000000000000000000000404000000000000000000000000000                          00        20120105                                                          000127
1            C0000000000                       112099037                                                    28050112          030715                    0000000000050                                                              00000000000000000000000000000000000404000000000000000000000000000                          B3        20120105                                                          000128
1            C0000000000                       112106041                                                    06050112          030703                    0000000004490                                                              00000000000000000000000000000000000449000000000000000000000000000                          00        20120105                                                          000129
1            C0000000000                       112106041                                                    28050112          030703                    0000000000050                                                              00000000000000000000000000000000000449000000000000000000000000000                          B3        20120105                                                          000130
1            C0000000000                       112124660                                                    06050112          030715                    0000000004490                                                              00000000000000000000000000000000000449000000000000000000000000000                          00        20120105                                                          000131
1            C0000000000                       112124660                                                    28050112          030715                    0000000000050                                                              00000000000000000000000000000000000449000000000000000000000000000                          B3        20120105                                                          000132
1            C0000000000                       112125550                                                    06050112          030702                    0000000004490                                                              00000000000000000000000000000000000449000000000000000000000000000                          00        20120105                                                          000133
1            C0000000000                       112125550                                                    28050112          030702                    0000000000050                                                              00000000000000000000000000000000000449000000000000000000000000000                          B3        20120105                                                          000134
1            C0000000000                       112091966                                                    06050112          030725                    0000000004490                                                              00000000000000000000000000000000000449000000000000000000000000000                          00        20120105                                                          000135
1            C0000000000                       112091966                                                    28050112          030725                    0000000000050                                                              00000000000000000000000000000000000449000000000000000000000000000                          B3        20120105                                                          000136
1            C0000000000                       112120656                                                    06050112          030719                    0000000003900                                                              00000000000000000000000000000000000390000000000000000000000000000                          00        20120105                                                          000137
1            C0000000000                       112120656                                                    28050112          030719                    0000000000050                                                              00000000000000000000000000000000000390000000000000000000000000000                          B3        20120105                                                          000138
1            C0000000000                       112113048                                                    06050112          030717                    0000000004490                                                              00000000000000000000000000000000000449000000000000000000000000000                          00        20120105                                                          000139
1            C0000000000                       112113048                                                    28050112          030717                    0000000000050                                                              00000000000000000000000000000000000449000000000000000000000000000                          B3        20120105                                                          000140
1            C0000000000                       112101716                                                    06050112          030721                    0000000004040                                                              00000000000000000000000000000000000404000000000000000000000000000                          00        20120105                                                          000141
1            C0000000000                       112101716                                                    28050112          030721                    0000000000050                                                              00000000000000000000000000000000000404000000000000000000000000000                          B3        20120105                                                          000142
1            C0000000000                       112110065                                                    06050112          030721                    0000000004490                                                              00000000000000000000000000000000000449000000000000000000000000000                          00        20120105                                                          000143
1            C0000000000                       112110065                                                    28050112          030721                    0000000000050                                                              00000000000000000000000000000000000449000000000000000000000000000                          B3        20120105                                                          000144
1            C0000000000                       112099304                                                    06050112          COMPE                     0000000004490                                                              00000000000000000000000000000000000449000000000000000000000000000                          H5        20120105                                                          000145
1            C0000000000                       112099304                                                    28050112          COMPE                     0000000000050                                                              00000000000000000000000000000000000449000000000000000000000000000                          B3        20120105                                                          000146
1            C0000000000                       112117000                                                    06050112          COMPE                     0000000004490                                                              00000000000000000000000000000000000449000000000000000000000000000                          H5        20120105                                                          000147
1            C0000000000                       112117000                                                    28050112          COMPE                     0000000000050                                                              00000000000000000000000000000000000449000000000000000000000000000                          B3        20120105                                                          000148
1            C0000000000                       112122160                                                    06050112          COMPE                     0000000004490                                                              00000000000000000000000000000000000449000000000000000000000000000                          H5        20120105                                                          000149
1            C0000000000                       112122160                                                    28050112          COMPE                     0000000000050                                                              00000000000000000000000000000000000449000000000000000000000000000                          B3        20120105                                                          000150
1            C0000000000                       112099193                                                    06050112          COMPE                     0000000007990                                                              00000000000000000000000000000000000799000000000000000000000000000                          H5        20120105                                                          000151
1            C0000000000                       112099193                                                    28050112          COMPE                     0000000000050                                                              00000000000000000000000000000000000799000000000000000000000000000                          B3        20120105                                                          000152
1            C0000000000                       112112459                                                    06050112          COMPE                     0000000005990                                                              00000000000000000000000000000000000599000000000000000000000000000                          H5        20120105                                                          000153
1            C0000000000                       112112459                                                    28050112          COMPE                     0000000000050                                                              00000000000000000000000000000000000599000000000000000000000000000                          B3        20120105                                                          000154
1            C0000000000                       112115520                                                    06050112          COMPE                     0000000004490                                                              00000000000000000000000000000000000449000000000000000000000000000                          H5        20120105                                                          000155
1            C0000000000                       112115520                                                    28050112          COMPE                     0000000000050                                                              00000000000000000000000000000000000449000000000000000000000000000                          B3        20120105                                                          000156
1            C0000000000                       112116659                                                    06050112          COMPE                     0000000004490                                                              00000000000000000000000000000000000449000000000000000000000000000                          H5        20120105                                                          000157
1            C0000000000                       112116659                                                    28050112          COMPE                     0000000000050                                                              00000000000000000000000000000000000449000000000000000000000000000                          B3        20120105                                                          000158
1            C0000000000                       112125011                                                    06050112          COMPE                     0000000004490                                                              00000000000000000000000000000000000449000000000000000000000000000                          H5        20120105                                                          000159
1            C0000000000                       112125011                                                    28050112          COMPE                     0000000000050                                                              00000000000000000000000000000000000449000000000000000000000000000                          B3        20120105                                                          000160
1            C0000000000                       112111932                                                    06050112          COMPE                     0000000005990                                                              00000000000000000000000000000000000599000000000000000000000000000                          H5        20120105                                                          000161
1            C0000000000                       112111932                                                    28050112          COMPE                     0000000000050                                                              00000000000000000000000000000000000599000000000000000000000000000                          B3        20120105                                                          000162
1            C0000000000                       112091230                                                    06050112          COMPE                     0000000004490                                                              00000000000000000000000000000000000449000000000000000000000000000                          H5        20120105                                                          000163
1            C0000000000                       112091230                                                    28050112          COMPE                     0000000000050                                                              00000000000000000000000000000000000449000000000000000000000000000                          B3        20120105                                                          000164
1            C0000000000                       112100175                                                    06050112          COMPE                     0000000004490                                                              00000000000000000000000000000000000449000000000000000000000000000                          H5        20120105                                                          000165
1            C0000000000                       112100175                                                    28050112          COMPE                     0000000000050                                                              00000000000000000000000000000000000449000000000000000000000000000                          B3        20120105                                                          000166
1            C0000000000                       112107315                                                    06050112          COMPE                     0000000013390                                                              00000000000000000000000000000000001339000000000000000000000000000                          H5        20120105                                                          000167
1            C0000000000                       112107315                                                    28050112          COMPE                     0000000000050                                                              00000000000000000000000000000000001339000000000000000000000000000                          B3        20120105                                                          000168
1            C0000000000                       112123604                                                    06050112          COMPE                     0000000004040                                                              00000000000000000000000000000000000404000000000000000000000000000                          H5        20120105                                                          000169
1            C0000000000                       112123604                                                    28050112          COMPE                     0000000000050                                                              00000000000000000000000000000000000404000000000000000000000000000                          B3        20120105                                                          000170
1            C0000000000                       112116896                                                    06050112          COMPE                     0000000004490                                                              00000000000000000000000000000000000449000000000000000000000000000                          H5        20120105                                                          000171
1            C0000000000                       112116896                                                    28050112          COMPE                     0000000000050                                                              00000000000000000000000000000000000449000000000000000000000000000                          B3        20120105                                                          000172
1            C0000000000                       122114098                                                    06050112          COMPE                     0000000005990                                                              00000000000000000000000000000000000599000000000000000000000000000                          H5        20120105                                                          000173
1            C0000000000                       122114098                                                    28050112          COMPE                     0000000000050                                                              00000000000000000000000000000000000599000000000000000000000000000                          B3        20120105                                                          000174
1            C0000000000                       112098901                                                    06050112          COMPE                     0000000004490                                                              00000000000000000000000000000000000449000000000000000000000000000                          H5        20120105                                                          000175
1            C0000000000                       112098901                                                    28050112          COMPE                     0000000000050                                                              00000000000000000000000000000000000449000000000000000000000000000                          B3        20120105                                                          000176
1            C0000000000                       112098391                                                    06050112          COMPE                     0000000004040                                                              00000000000000000000000000000000000404000000000000000000000000000                          H5        20120105                                                          000177
1            C0000000000                       112098391                                                    28050112          COMPE                     0000000000050                                                              00000000000000000000000000000000000404000000000000000000000000000                          B3        20120105                                                          000178
1            C0000000000                       112109830                                                    06050112          COMPE                     0000000004490                                                              00000000000000000000000000000000000449000000000000000000000000000                          H5        20120105                                                          000179
1            C0000000000                       112109830                                                    28050112          COMPE                     0000000000050                                                              00000000000000000000000000000000000449000000000000000000000000000                          B3        20120105                                                          000180
1            C0000000000                       112112440                                                    06050112          COMPE                     0000000004490                                                              00000000000000000000000000000000000449000000000000000000000000000                          H5        20120105                                                          000181
1            C0000000000                       112112440                                                    28050112          COMPE                     0000000000050                                                              00000000000000000000000000000000000449000000000000000000000000000                          B3        20120105                                                          000182
1            C0000000000                       112121814                                                    06050112          COMPE                     0000000007900                                                              00000000000000000000000000000000000790000000000000000000000000000                          H5        20120105                                                          000183
1            C0000000000                       112121814                                                    28050112          COMPE                     0000000000050                                                              00000000000000000000000000000000000790000000000000000000000000000                          B3        20120105                                                          000184
1            C0000000000                       112110006                                                    06050112          COMPE                     0000000004490                                                              00000000000000000000000000000000000449000000000000000000000000000                          H5        20120105                                                          000185
1            C0000000000                       112110006                                                    28050112          COMPE                     0000000000050                                                              00000000000000000000000000000000000449000000000000000000000000000                          B3        20120105                                                          000186
1            C0000000000                       112110243                                                    06050112          COMPE                     0000000004490                                                              00000000000000000000000000000000000449000000000000000000000000000                          H5        20120105                                                          000187
1            C0000000000                       112110243                                                    28050112          COMPE                     0000000000050                                                              00000000000000000000000000000000000449000000000000000000000000000                          B3        20120105                                                          000188
1            C0000000000                       112098871                                                    06050112          COMPE                     0000000004490                                                              00000000000000000000000000000000000449000000000000000000000000000                          H5        20120105                                                          000189
1            C0000000000                       112098871                                                    28050112          COMPE                     0000000000050                                                              00000000000000000000000000000000000449000000000000000000000000000                          B3        20120105                                                          000190
1            C0000000000                       112105908                                                    06050112          COMPE                     0000000004490                                                              00000000000000000000000000000000000449000000000000000000000000000                          H5        20120105                                                          000191
1            C0000000000                       112105908                                                    28050112          COMPE                     0000000000050                                                              00000000000000000000000000000000000449000000000000000000000000000                          B3        20120105                                                          000192
1            C0000000000                       112100558                                                    06050112          COMPE                     0000000004490                                                              00000000000000000000000000000000000449000000000000000000000000000                          H5        20120105                                                          000193
1            C0000000000                       112100558                                                    28050112          COMPE                     0000000000050                                                              00000000000000000000000000000000000449000000000000000000000000000                          B3        20120105                                                          000194
1            C0000000000                       112125577                                                    06050112          COMPE                     0000000004490                                                              00000000000000000000000000000000000449000000000000000000000000000                          H5        20120105                                                          000195
1            C0000000000                       112125577                                                    28050112          COMPE                     0000000000050                                                              00000000000000000000000000000000000449000000000000000000000000000                          B3        20120105                                                          000196
1            C0000000000                       112113072                                                    06050112          COMPE                     0000000004490                                                              00000000000000000000000000000000000449000000000000000000000000000                          H5        20120105                                                          000197
1            C0000000000                       112113072                                                    28050112          COMPE                     0000000000050                                                              00000000000000000000000000000000000449000000000000000000000000000                          B3        20120105                                                          000198
1            C0000000000                       112111789                                                    06050112          COMPE                     0000000004490                                                              00000000000000000000000000000000000449000000000000000000000000000                          H5        20120105                                                          000199
1            C0000000000                       112111789                                                    28050112          COMPE                     0000000000050                                                              00000000000000000000000000000000000449000000000000000000000000000                          B3        20120105                                                          000200
1            C0000000000                       112116322                                                    06050112          COMPE                     0000000004490                                                              00000000000000000000000000000000000449000000000000000000000000000                          H5        20120105                                                          000201
1            C0000000000                       112116322                                                    28050112          COMPE                     0000000000050                                                              00000000000000000000000000000000000449000000000000000000000000000                          B3        20120105                                                          000202
1            C0000000000                       112117060                                                    06050112          COMPE                     0000000005900                                                              00000000000000000000000000000000000590000000000000000000000000000                          H5        20120105                                                          000203
1            C0000000000                       112117060                                                    28050112          COMPE                     0000000000050                                                              00000000000000000000000000000000000590000000000000000000000000000                          B3        20120105                                                          000204
1            C0000000000                       112119275                                                    06050112          COMPE                     0000000005990                                                              00000000000000000000000000000000000599000000000000000000000000000                          H5        20120105                                                          000205
1            C0000000000                       112119275                                                    28050112          COMPE                     0000000000050                                                              00000000000000000000000000000000000599000000000000000000000000000                          B3        20120105                                                          000206
1            C0000000000                       112125178                                                    06050112          COMPE                     0000000005900                                                              00000000000000000000000000000000000590000000000000000000000000000                          H5        20120105                                                          000207
1            C0000000000                       112125178                                                    28050112          COMPE                     0000000000050                                                              00000000000000000000000000000000000590000000000000000000000000000                          B3        20120105                                                          000208
1            C0000000000                       112113749                                                    06050112          COMPE                     0000000004490                                                              00000000000000000000000000000000000449000000000000000000000000000                          H5        20120105                                                          000209
1            C0000000000                       112113749                                                    28050112          COMPE                     0000000000050                                                              00000000000000000000000000000000000449000000000000000000000000000                          B3        20120105                                                          000210
1            C0000000000                       112108427                                                    06050112          COMPE                     0000000004490                                                              00000000000000000000000000000000000449000000000000000000000000000                          H5        20120105                                                          000211
1            C0000000000                       112108427                                                    28050112          COMPE                     0000000000050                                                              00000000000000000000000000000000000449000000000000000000000000000                          B3        20120105                                                          000212
1            C0000000000                       112090129                                                    06050112          COMPE                     0000000009900                                                              00000000000000000000000000000000000990000000000000000000000000000                          H5        20120105                                                          000213
1            C0000000000                       112090129                                                    28050112          COMPE                     0000000000050                                                              00000000000000000000000000000000000990000000000000000000000000000                          B3        20120105                                                          000214
1            C0000000000                       112110740                                                    06050112          COMPE                     0000000004490                                                              00000000000000000000000000000000000449000000000000000000000000000                          H5        20120105                                                          000215
1            C0000000000                       112110740                                                    28050112          COMPE                     0000000000050                                                              00000000000000000000000000000000000449000000000000000000000000000                          B3        20120105                                                          000216
1            C0000000000                       112107331                                                    06050112          COMPE                     0000000004040                                                              00000000000000000000000000000000000404000000000000000000000000000                          H5        20120105                                                          000217
1            C0000000000                       112107331                                                    28050112          COMPE                     0000000000050                                                              00000000000000000000000000000000000404000000000000000000000000000                          B3        20120105                                                          000218
1            C0000000000                       112100868                                                    06050112          COMPE                     0000000004040                                                              00000000000000000000000000000000000404000000000000000000000000000                          H5        20120105                                                          000219
1            C0000000000                       112100868                                                    28050112          COMPE                     0000000000050                                                              00000000000000000000000000000000000404000000000000000000000000000                          B3        20120105                                                          000220
1            C0000000000                       112124465                                                    06050112          COMPE                     0000000004490                                                              00000000000000000000000000000000000449000000000000000000000000000                          H5        20120105                                                          000221
1            C0000000000                       112124465                                                    28050112          COMPE                     0000000000050                                                              00000000000000000000000000000000000449000000000000000000000000000                          B3        20120105                                                          000222
1            C0000000000                       112111150                                                    06050112          COMPE                     0000000004490                                                              00000000000000000000000000000000000449000000000000000000000000000                          H5        20120105                                                          000223
1            C0000000000                       112111150                                                    28050112          COMPE                     0000000000050                                                              00000000000000000000000000000000000449000000000000000000000000000                          B3        20120105                                                          000224
1            C0000000000                       112120389                                                    06050112          COMPE                     0000000004490                                                              00000000000000000000000000000000000449000000000000000000000000000                          H5        20120105                                                          000225
1            C0000000000                       112120389                                                    28050112          COMPE                     0000000000050                                                              00000000000000000000000000000000000449000000000000000000000000000                          B3        20120105                                                          000226
1            C0000000000                       112098545                                                    06050112          COMPE                     0000000004490                                                              00000000000000000000000000000000000449000000000000000000000000000                          H5        20120105                                                          000227
1            C0000000000                       112098545                                                    28050112          COMPE                     0000000000050                                                              00000000000000000000000000000000000449000000000000000000000000000                          B3        20120105                                                          000228
1            C0000000000                       112115652                                                    06050112          COMPE                     0000000004490                                                              00000000000000000000000000000000000449000000000000000000000000000                          H5        20120105                                                          000229
1            C0000000000                       112115652                                                    28050112          COMPE                     0000000000050                                                              00000000000000000000000000000000000449000000000000000000000000000                          B3        20120105                                                          000230
1            C0000000000                       112095147                                                    06050112          COMPE                     0000000004490                                                              00000000000000000000000000000000000449000000000000000000000000000                          H5        20120105                                                          000231
1            C0000000000                       112095147                                                    28050112          COMPE                     0000000000050                                                              00000000000000000000000000000000000449000000000000000000000000000                          B3        20120105                                                          000232
1            C0000000000                       112102755                                                    06050112          COMPE                     0000000004490                                                              00000000000000000000000000000000000449000000000000000000000000000                          H5        20120105                                                          000233
1            C0000000000                       112102755                                                    28050112          COMPE                     0000000000050                                                              00000000000000000000000000000000000449000000000000000000000000000                          B3        20120105                                                          000234
1            C0000000000                       112096100                                                    06050112          COMPE                     0000000004490                                                              00000000000000000000000000000000000449000000000000000000000000000                          H5        20120105                                                          000235
1            C0000000000                       112096100                                                    28050112          COMPE                     0000000000050                                                              00000000000000000000000000000000000449000000000000000000000000000                          B3        20120105                                                          000236
1            C0000000000                       112097654                                                    06050112          COMPE                     0000000004490                                                              00000000000000000000000000000000000449000000000000000000000000000                          H5        20120105                                                          000237
1            C0000000000                       112097654                                                    28050112          COMPE                     0000000000050                                                              00000000000000000000000000000000000449000000000000000000000000000                          B3        20120105                                                          000238
1            C0000000000                       112109750                                                    06050112          COMPE                     0000000004490                                                              00000000000000000000000000000000000449000000000000000000000000000                          H5        20120105                                                          000239
1            C0000000000                       112109750                                                    28050112          COMPE                     0000000000050                                                              00000000000000000000000000000000000449000000000000000000000000000                          B3        20120105                                                          000240
1            C0000000000                       112106416                                                    06050112          COMPE                     0000000004490                                                              00000000000000000000000000000000000449000000000000000000000000000                          H5        20120105                                                          000241
1            C0000000000                       112106416                                                    28050112          COMPE                     0000000000050                                                              00000000000000000000000000000000000449000000000000000000000000000                          B3        20120105                                                          000242
1            C0000000000                       112097735                                                    06050112          COMPE                     0000000004490                                                              00000000000000000000000000000000000449000000000000000000000000000                          H5        20120105                                                          000243
1            C0000000000                       112097735                                                    28050112          COMPE                     0000000000050                                                              00000000000000000000000000000000000449000000000000000000000000000                          B3        20120105                                                          000244
1            C0000000000                       112104774                                                    06050112          COMPE                     0000000004040                                                              00000000000000000000000000000000000404000000000000000000000000000                          H5        20120105                                                          000245
1            C0000000000                       112104774                                                    28050112          COMPE                     0000000000050                                                              00000000000000000000000000000000000404000000000000000000000000000                          B3        20120105                                                          000246
1            C0000000000                       112115180                                                    06050112          COMPE                     0000000004040                                                              00000000000000000000000000000000000404000000000000000000000000000                          H5        20120105                                                          000247
1            C0000000000                       112115180                                                    28050112          COMPE                     0000000000050                                                              00000000000000000000000000000000000404000000000000000000000000000                          B3        20120105                                                          000248
