02RETORNO01COBRANCA       4640008411698000140                               748BANSICREDI     20111007        0000900                                                                                                                                                                                                                                                                                 1.00000001
1            C0000000000                       112654777                                                    06061011          030703                    0000000004490                                                              00000000000000000000000000000000000449000000000000000000000000000                          00        20111006                                                          000002
1            C0000000000                       112654777                                                    28061011          030703                    0000000000120                                                              00000000000000000000000000000000000449000000000000000000000000000                          B3        20111006                                                          000003
1            C0000000000                       112645603                                                    06061011          030707                    0000000004191                                                              00000000000000000000000000000000000419100000000000000000000000000                          00        20111006                                                          000004
1            C0000000000                       112645603                                                    28061011          030707                    0000000000120                                                              00000000000000000000000000000000000419100000000000000000000000000                          B3        20111006                                                          000005
1            C0000000000                       112637490                                                    06061011          030717                    0000000004490                                                              00000000000000000000000000000000000449000000000000000000000000000                          00        20111006                                                          000006
1            C0000000000                       112637490                                                    28061011          030717                    0000000000120                                                              00000000000000000000000000000000000449000000000000000000000000000                          B3        20111006                                                          000007
1            C0000000000                       112646243                                                    06061011          030706                    0000000005990                                                              00000000000000000000000000000000000599000000000000000000000000000                          00        20111006                                                          000008
1            C0000000000                       112646243                                                    28061011          030706                    0000000000120                                                              00000000000000000000000000000000000599000000000000000000000000000                          B3        20111006                                                          000009
1            C0000000000                       112631785                                                    06061011          030704                    0000000004490                                                              00000000000000000000000000000000000449000000000000000000000000000                          00        20111006                                                          000010
1            C0000000000                       112631785                                                    28061011          030704                    0000000000120                                                              00000000000000000000000000000000000449000000000000000000000000000                          B3        20111006                                                          000011
1            C0000000000                       112641365                                                    06061011          030728                    0000000004040                                                              00000000000000000000000000000000000404000000000000000000000000000                          00        20111006                                                          000012
1            C0000000000                       112641365                                                    28061011          030728                    0000000000120                                                              00000000000000000000000000000000000404000000000000000000000000000                          B3        20111006                                                          000013
1            C0000000000                       112639085                                                    06061011          030703                    0000000004490                                                              00000000000000000000000000000000000449000000000000000000000000000                          00        20111006                                                          000014
1            C0000000000                       112639085                                                    28061011          030703                    0000000000120                                                              00000000000000000000000000000000000449000000000000000000000000000                          B3        20111006                                                          000015
1            C0000000000                       112640105                                                    06061011          030703                    0000000004490                                                              00000000000000000000000000000000000449000000000000000000000000000                          00        20111006                                                          000016
1            C0000000000                       112640105                                                    28061011          030703                    0000000000120                                                              00000000000000000000000000000000000449000000000000000000000000000                          B3        20111006                                                          000017
1            C0000000000                       112657024                                                    06061011          030704                    0000000004490                                                              00000000000000000000000000000000000449000000000000000000000000000                          00        20111006                                                          000018
1            C0000000000                       112657024                                                    28061011          030704                    0000000000120                                                              00000000000000000000000000000000000449000000000000000000000000000                          B3        20111006                                                          000019
1            C0000000000                       112645654                                                    06061011          030703                    0000000004490                                                              00000000000000000000000000000000000449000000000000000000000000000                          00        20111006                                                          000020
1            C0000000000                       112645654                                                    28061011          030703                    0000000000120                                                              00000000000000000000000000000000000449000000000000000000000000000                          B3        20111006                                                          000021
1            C0000000000                       112649714                                                    06061011          030704                    0000000004490                                                              00000000000000000000000000000000000449000000000000000000000000000                          00        20111006                                                          000022
1            C0000000000                       112649714                                                    28061011          030704                    0000000000120                                                              00000000000000000000000000000000000449000000000000000000000000000                          B3        20111006                                                          000023
1            C0000000000                       112657334                                                    06061011          030707                    0000000007190                                                              00000000000000000000000000000000000719000000000000000000000000000                          00        20111006                                                          000024
1            C0000000000                       112657334                                                    28061011          030707                    0000000000120                                                              00000000000000000000000000000000000719000000000000000000000000000                          B3        20111006                                                          000025
1            C0000000000                       112638020                                                    06061011          030706                    0000000004490                                                              00000000000000000000000000000000000449000000000000000000000000000                          00        20111006                                                          000026
1            C0000000000                       112638020                                                    28061011          030706                    0000000000120                                                              00000000000000000000000000000000000449000000000000000000000000000                          B3        20111006                                                          000027
1            C0000000000                       112628865                                                    06061011          030726                    0000000004490                                                              00000000000000000000000000000000000449000000000000000000000000000                          00        20111006                                                          000028
1            C0000000000                       112628865                                                    28061011          030726                    0000000000120                                                              00000000000000000000000000000000000449000000000000000000000000000                          B3        20111006                                                          000029
1            C0000000000                       112632196                                                    06061011          030706                    0000000005990                                                              00000000000000000000000000000000000599000000000000000000000000000                          00        20111006                                                          000030
1            C0000000000                       112632196                                                    28061011          030706                    0000000000120                                                              00000000000000000000000000000000000599000000000000000000000000000                          B3        20111006                                                          000031
1            C0000000000                       112638313                                                    06061011          030703                    0000000004490                                                              00000000000000000000000000000000000449000000000000000000000000000                          00        20111006                                                          000032
1            C0000000000                       112638313                                                    28061011          030703                    0000000000120                                                              00000000000000000000000000000000000449000000000000000000000000000                          B3        20111006                                                          000033
1            C0000000000                       112636574                                                    06061011          030703                    0000000004490                                                              00000000000000000000000000000000000449000000000000000000000000000                          00        20111006                                                          000034
1            C0000000000                       112636574                                                    28061011          030703                    0000000000120                                                              00000000000000000000000000000000000449000000000000000000000000000                          B3        20111006                                                          000035
1            C0000000000                       112651387                                                    06061011          030717                    0000000004490                                                              00000000000000000000000000000000000449000000000000000000000000000                          00        20111006                                                          000036
1            C0000000000                       112651387                                                    28061011          030717                    0000000000120                                                              00000000000000000000000000000000000449000000000000000000000000000                          B3        20111006                                                          000037
1            C0000000000                       112638518                                                    06061011          030703                    0000000004490                                                              00000000000000000000000000000000000449000000000000000000000000000                          00        20111006                                                          000038
1            C0000000000                       112638518                                                    28061011          030703                    0000000000120                                                              00000000000000000000000000000000000449000000000000000000000000000                          B3        20111006                                                          000039
1            C0000000000                       112649277                                                    06061011          030721                    0000000004490                                                              00000000000000000000000000000000000449000000000000000000000000000                          00        20111006                                                          000040
1            C0000000000                       112649277                                                    28061011          030721                    0000000000120                                                              00000000000000000000000000000000000449000000000000000000000000000                          B3        20111006                                                          000041
1            C0000000000                       112633800                                                    06061011          030702                    0000000004490                                                              00000000000000000000000000000000000449000000000000000000000000000                          00        20111006                                                          000042
1            C0000000000                       112633800                                                    28061011          030702                    0000000000120                                                              00000000000000000000000000000000000449000000000000000000000000000                          B3        20111006                                                          000043
1            C0000000000                       112646340                                                    06061011          030703                    0000000004490                                                              00000000000000000000000000000000000449000000000000000000000000000                          00        20111006                                                          000044
1            C0000000000                       112646340                                                    28061011          030703                    0000000000120                                                              00000000000000000000000000000000000449000000000000000000000000000                          B3        20111006                                                          000045
1            C0000000000                       112653991                                                    06061011          030702                    0000000004040                                                              00000000000000000000000000000000000404000000000000000000000000000                          00        20111006                                                          000046
1            C0000000000                       112653991                                                    28061011          030702                    0000000000120                                                              00000000000000000000000000000000000404000000000000000000000000000                          B3        20111006                                                          000047
1            C0000000000                       112661323                                                    06061011          030702                    0000000003900                                                              00000000000000000000000000000000000390000000000000000000000000000                          00        20111006                                                          000048
1            C0000000000                       112661323                                                    28061011          030702                    0000000000120                                                              00000000000000000000000000000000000390000000000000000000000000000                          B3        20111006                                                          000049
1            C0000000000                       112639573                                                    06061011          030702                    0000000005990                                                              00000000000000000000000000000000000599000000000000000000000000000                          00        20111006                                                          000050
1            C0000000000                       112639573                                                    28061011          030702                    0000000000120                                                              00000000000000000000000000000000000599000000000000000000000000000                          B3        20111006                                                          000051
1            C0000000000                       112643457                                                    06061011          030718                    0000000004490                                                              00000000000000000000000000000000000449000000000000000000000000000                          00        20111006                                                          000052
1            C0000000000                       112643457                                                    28061011          030718                    0000000000120                                                              00000000000000000000000000000000000449000000000000000000000000000                          B3        20111006                                                          000053
1            C0000000000                       112663423                                                    06061011          030717                    0000000005649                                                              00000000000000000000000000000000000564900000000000000000000000000                          00        20111006                                                          000054
1            C0000000000                       112663423                                                    28061011          030717                    0000000000120                                                              00000000000000000000000000000000000564900000000000000000000000000                          B3        20111006                                                          000055
1            C0000000000                       112602637                                                    06061011          030703                    0000000004490                                                              00000000000000000000000000000000000449000000000000000000000000000                          00        20111006                                                          000056
1            C0000000000                       112602637                                                    28061011          030703                    0000000000120                                                              00000000000000000000000000000000000449000000000000000000000000000                          B3        20111006                                                          000057
1            C0000000000                       112638925                                                    06061011          030703                    0000000004490                                                              00000000000000000000000000000000000449000000000000000000000000000                          00        20111006                                                          000058
1            C0000000000                       112638925                                                    28061011          030703                    0000000000120                                                              00000000000000000000000000000000000449000000000000000000000000000                          B3        20111006                                                          000059
1            C0000000000                       112642620                                                    06061011          030703                    0000000004490                                                              00000000000000000000000000000000000449000000000000000000000000000                          00        20111006                                                          000060
1            C0000000000                       112642620                                                    28061011          030703                    0000000000120                                                              00000000000000000000000000000000000449000000000000000000000000000                          B3        20111006                                                          000061
1            C0000000000                       112655170                                                    06061011          030703                    0000000004490                                                              00000000000000000000000000000000000449000000000000000000000000000                          00        20111006                                                          000062
1            C0000000000                       112655170                                                    28061011          030703                    0000000000120                                                              00000000000000000000000000000000000449000000000000000000000000000                          B3        20111006                                                          000063
1            C0000000000                       112638453                                                    06061011          030702                    0000000004490                                                              00000000000000000000000000000000000449000000000000000000000000000                          00        20111006                                                          000064
1            C0000000000                       112638453                                                    28061011          030702                    0000000000120                                                              00000000000000000000000000000000000449000000000000000000000000000                          B3        20111006                                                          000065
1            C0000000000                       112638143                                                    06061011          030727                    0000000004490                                                              00000000000000000000000000000000000449000000000000000000000000000                          00        20111006                                                          000066
1            C0000000000                       112638143                                                    28061011          030727                    0000000000120                                                              00000000000000000000000000000000000449000000000000000000000000000                          B3        20111006                                                          000067
1            C0000000000                       112631220                                                    06061011          030705                    0000000004490                                                              00000000000000000000000000000000000449000000000000000000000000000                          00        20111006                                                          000068
1            C0000000000                       112631220                                                    28061011          030705                    0000000000120                                                              00000000000000000000000000000000000449000000000000000000000000000                          B3        20111006                                                          000069
1            C0000000000                       112628520                                                    06061011          030719                    0000000004900                                                              00000000000000000000000000000000000490000000000000000000000000000                          00        20111006                                                          000070
1            C0000000000                       112628520                                                    28061011          030719                    0000000000120                                                              00000000000000000000000000000000000490000000000000000000000000000                          B3        20111006                                                          000071
1            C0000000000                       112657083                                                    06061011          030735                    0000000004040                                                              00000000000000000000000000000000000404000000000000000000000000000                          00        20111006                                                          000072
1            C0000000000                       112657083                                                    28061011          030735                    0000000000120                                                              00000000000000000000000000000000000404000000000000000000000000000                          B3        20111006                                                          000073
1            C0000000000                       112654947                                                    06061011          030702                    0000000004490                                                              00000000000000000000000000000000000449000000000000000000000000000                          00        20111006                                                          000074
1            C0000000000                       112654947                                                    28061011          030702                    0000000000120                                                              00000000000000000000000000000000000449000000000000000000000000000                          B3        20111006                                                          000075
1            C0000000000                       112652847                                                    06061011          030704                    0000000004490                                                              00000000000000000000000000000000000449000000000000000000000000000                          00        20111006                                                          000076
1            C0000000000                       112652847                                                    28061011          030704                    0000000000120                                                              00000000000000000000000000000000000449000000000000000000000000000                          B3        20111006                                                          000077
1            C0000000000                       112593557                                                    06061011          030718                    0000000004490                                                              00000000000000000000000000000000000489200000000003120000000000090                          00        20111006                                                          000078
1            C0000000000                       112593557                                                    28061011          030718                    0000000000120                                                              00000000000000000000000000000000000489200000000003120000000000090                          B3        20111006                                                          000079
1            C0000000000                       112633974                                                    06061011          030738                    0000000004490                                                              00000000000000000000000000000000000449000000000000000000000000000                          00        20111006                                                          000080
1            C0000000000                       112633974                                                    28061011          030738                    0000000000120                                                              00000000000000000000000000000000000449000000000000000000000000000                          B3        20111006                                                          000081
1            C0000000000                       112621933                                                    06061011          030704                    0000000004490                                                              00000000000000000000000000000000000489200000000003120000000000090                          00        20111006                                                          000082
1            C0000000000                       112621933                                                    28061011          030704                    0000000000120                                                              00000000000000000000000000000000000489200000000003120000000000090                          B3        20111006                                                          000083
1            C0000000000                       112597641                                                    06061011          030717                    0000000004490                                                              00000000000000000000000000000000000489200000000003120000000000090                          00        20111006                                                          000084
1            C0000000000                       112597641                                                    28061011          030717                    0000000000120                                                              00000000000000000000000000000000000489200000000003120000000000090                          B3        20111006                                                          000085
1            C0000000000                       112658381                                                    06061011          030706                    0000000005900                                                              00000000000000000000000000000000000590000000000000000000000000000                          00        20111006                                                          000086
1            C0000000000                       112658381                                                    28061011          030706                    0000000000120                                                              00000000000000000000000000000000000590000000000000000000000000000                          B3        20111006                                                          000087
1            C0000000000                       112647630                                                    06061011          030704                    0000000004490                                                              00000000000000000000000000000000000449000000000000000000000000000                          00        20111006                                                          000088
1            C0000000000                       112647630                                                    28061011          030704                    0000000000120                                                              00000000000000000000000000000000000449000000000000000000000000000                          B3        20111006                                                          000089
1            C0000000000                       112635861                                                    06061011          030719                    0000000009900                                                              00000000000000000000000000000000000990000000000000000000000000000                          00        20111006                                                          000090
1            C0000000000                       112635861                                                    28061011          030719                    0000000000120                                                              00000000000000000000000000000000000990000000000000000000000000000                          B3        20111006                                                          000091
1            C0000000000                       112592275                                                    06061011          030738                    0000000004490                                                              00000000000000000000000000000000000489200000000003120000000000090                          00        20111006                                                          000092
1            C0000000000                       112592275                                                    28061011          030738                    0000000000120                                                              00000000000000000000000000000000000489200000000003120000000000090                          B3        20111006                                                          000093
1            C0000000000                       112610036                                                    06061011          030735                    0000000004490                                                              00000000000000000000000000000000000489200000000003120000000000090                          00        20111006                                                          000094
1            C0000000000                       112610036                                                    28061011          030735                    0000000000120                                                              00000000000000000000000000000000000489200000000003120000000000090                          B3        20111006                                                          000095
1            C0000000000                       112617308                                                    06061011          030726                    0000000004490                                                              00000000000000000000000000000000000489200000000003120000000000090                          00        20111006                                                          000096
1            C0000000000                       112617308                                                    28061011          030726                    0000000000120                                                              00000000000000000000000000000000000489200000000003120000000000090                          B3        20111006                                                          000097
1            C0000000000                       112594588                                                    06061011          030737                    0000000004040                                                              00000000000000000000000000000000000440700000000002860000000000081                          00        20111006                                                          000098
1            C0000000000                       112594588                                                    28061011          030737                    0000000000120                                                              00000000000000000000000000000000000440700000000002860000000000081                          B3        20111006                                                          000099
1            C0000000000                       112659213                                                    06061011          030729                    0000000005990                                                              00000000000000000000000000000000000599000000000000000000000000000                          00        20111006                                                          000100
1            C0000000000                       112659213                                                    28061011          030729                    0000000000120                                                              00000000000000000000000000000000000599000000000000000000000000000                          B3        20111006                                                          000101
1            C0000000000                       112632676                                                    06061011          030705                    0000000004040                                                              00000000000000000000000000000000000404000000000000000000000000000                          00        20111006                                                          000102
1            C0000000000                       112632676                                                    28061011          030705                    0000000000120                                                              00000000000000000000000000000000000404000000000000000000000000000                          B3        20111006                                                          000103
1            C0000000000                       112643511                                                    06061011          030706                    0000000004490                                                              00000000000000000000000000000000000449000000000000000000000000000                          00        20111006                                                          000104
1            C0000000000                       112643511                                                    28061011          030706                    0000000000120                                                              00000000000000000000000000000000000449000000000000000000000000000                          B3        20111006                                                          000105
1            C0000000000                       112664306                                                    06061011          030735                    0000000002080                                                              00000000000000000000000000000000000208000000000000000000000000000                          00        20111006                                                          000106
1            C0000000000                       112664306                                                    28061011          030735                    0000000000120                                                              00000000000000000000000000000000000208000000000000000000000000000                          B3        20111006                                                          000107
1            C0000000000                       112612039                                                    06061011          030736                    0000000004490                                                              00000000000000000000000000000000000489200000000003120000000000090                          00        20111006                                                          000108
1            C0000000000                       112612039                                                    28061011          030736                    0000000000120                                                              00000000000000000000000000000000000489200000000003120000000000090                          B3        20111006                                                          000109
1            C0000000000                       112644844                                                    06061011          030738                    0000000004490                                                              00000000000000000000000000000000000449000000000000000000000000000                          00        20111006                                                          000110
1            C0000000000                       112644844                                                    28061011          030738                    0000000000120                                                              00000000000000000000000000000000000449000000000000000000000000000                          B3        20111006                                                          000111
1            C0000000000                       112646065                                                    06061011          030726                    0000000004490                                                              00000000000000000000000000000000000449000000000000000000000000000                          00        20111006                                                          000112
1            C0000000000                       112646065                                                    28061011          030726                    0000000000120                                                              00000000000000000000000000000000000449000000000000000000000000000                          B3        20111006                                                          000113
1            C0000000000                       112596572                                                    06061011          030706                    0000000004490                                                              00000000000000000000000000000000000489200000000003120000000000090                          00        20111006                                                          000114
1            C0000000000                       112596572                                                    28061011          030706                    0000000000120                                                              00000000000000000000000000000000000489200000000003120000000000090                          B3        20111006                                                          000115
1            C0000000000                       112651530                                                    06061011          030723                    0000000004040                                                              00000000000000000000000000000000000404000000000000000000000000000                          00        20111006                                                          000116
1            C0000000000                       112651530                                                    28061011          030723                    0000000000120                                                              00000000000000000000000000000000000404000000000000000000000000000                          B3        20111006                                                          000117
1            C0000000000                       112651026                                                    06061011          030735                    0000000004490                                                              00000000000000000000000000000000000449000000000000000000000000000                          00        20111006                                                          000118
1            C0000000000                       112651026                                                    28061011          030735                    0000000000120                                                              00000000000000000000000000000000000449000000000000000000000000000                          B3        20111006                                                          000119
1            C0000000000                       112645476                                                    06061011          030728                    0000000004040                                                              00000000000000000000000000000000000404000000000000000000000000000                          00        20111006                                                          000120
1            C0000000000                       112645476                                                    28061011          030728                    0000000000120                                                              00000000000000000000000000000000000404000000000000000000000000000                          B3        20111006                                                          000121
1            C0000000000                       112655757                                                    06061011          030736                    0000000005390                                                              00000000000000000000000000000000000539000000000000000000000000000                          00        20111006                                                          000122
1            C0000000000                       112655757                                                    28061011          030736                    0000000000120                                                              00000000000000000000000000000000000539000000000000000000000000000                          B3        20111006                                                          000123
1            C0000000000                       112646499                                                    06061011          030722                    0000000004040                                                              00000000000000000000000000000000000404000000000000000000000000000                          00        20111006                                                          000124
1            C0000000000                       112646499                                                    28061011          030722                    0000000000120                                                              00000000000000000000000000000000000404000000000000000000000000000                          B3        20111006                                                          000125
1            C0000000000                       112660068                                                    06061011          030718                    0000000004490                                                              00000000000000000000000000000000000449000000000000000000000000000                          00        20111006                                                          000126
1            C0000000000                       112660068                                                    28061011          030718                    0000000000120                                                              00000000000000000000000000000000000449000000000000000000000000000                          B3        20111006                                                          000127
1            C0000000000                       112643880                                                    06061011          030719                    0000000004040                                                              00000000000000000000000000000000000404000000000000000000000000000                          00        20111006                                                          000128
1            C0000000000                       112643880                                                    28061011          030719                    0000000000120                                                              00000000000000000000000000000000000404000000000000000000000000000                          B3        20111006                                                          000129
1            C0000000000                       112647550                                                    06061011          030702                    0000000004490                                                              00000000000000000000000000000000000449000000000000000000000000000                          00        20111006                                                          000130
1            C0000000000                       112647550                                                    28061011          030702                    0000000000120                                                              00000000000000000000000000000000000449000000000000000000000000000                          B3        20111006                                                          000131
1            C0000000000                       112633940                                                    06061011          030702                    0000000004490                                                              00000000000000000000000000000000000449000000000000000000000000000                          00        20111006                                                          000132
1            C0000000000                       112633940                                                    28061011          030702                    0000000000120                                                              00000000000000000000000000000000000449000000000000000000000000000                          B3        20111006                                                          000133
1            C0000000000                       112613000                                                    06061011          030725                    0000000004040                                                              00000000000000000000000000000000000404000000000000000000000000000                          00        20111006                                                          000134
1            C0000000000                       112613000                                                    28061011          030725                    0000000000120                                                              00000000000000000000000000000000000404000000000000000000000000000                          B3        20111006                                                          000135
1            C0000000000                       112654874                                                    06061011          030719                    0000000005990                                                              00000000000000000000000000000000000599000000000000000000000000000                          00        20111006                                                          000136
1            C0000000000                       112654874                                                    28061011          030719                    0000000000120                                                              00000000000000000000000000000000000599000000000000000000000000000                          B3        20111006                                                          000137
1            C0000000000                       112636639                                                    06061011          030703                    0000000004490                                                              00000000000000000000000000000000000449000000000000000000000000000                          00        20111006                                                          000138
1            C0000000000                       112636639                                                    28061011          030703                    0000000000120                                                              00000000000000000000000000000000000449000000000000000000000000000                          B3        20111006                                                          000139
1            C0000000000                       112650097                                                    06061011          030703                    0000000004490                                                              00000000000000000000000000000000000449000000000000000000000000000                          00        20111006                                                          000140
1            C0000000000                       112650097                                                    28061011          030703                    0000000000120                                                              00000000000000000000000000000000000449000000000000000000000000000                          B3        20111006                                                          000141
1            C0000000000                       112663954                                                    06061011          030725                    0000000003097                                                              00000000000000000000000000000000000309700000000000000000000000000                          00        20111006                                                          000142
1            C0000000000                       112663954                                                    28061011          030725                    0000000000120                                                              00000000000000000000000000000000000309700000000000000000000000000                          B3        20111006                                                          000143
1            C0000000000                       112636299                                                    06061011          030718                    0000000004490                                                              00000000000000000000000000000000000449000000000000000000000000000                          00        20111006                                                          000144
1            C0000000000                       112636299                                                    28061011          030718                    0000000000120                                                              00000000000000000000000000000000000449000000000000000000000000000                          B3        20111006                                                          000145
1            C0000000000                       112654009                                                    06061011          030718                    0000000004490                                                              00000000000000000000000000000000000449000000000000000000000000000                          00        20111006                                                          000146
1            C0000000000                       112654009                                                    28061011          030718                    0000000000120                                                              00000000000000000000000000000000000449000000000000000000000000000                          B3        20111006                                                          000147
1            C0000000000                       112653150                                                    06061011          030729                    0000000004490                                                              00000000000000000000000000000000000449000000000000000000000000000                          00        20111006                                                          000148
1            C0000000000                       112653150                                                    28061011          030729                    0000000000120                                                              00000000000000000000000000000000000449000000000000000000000000000                          B3        20111006                                                          000149
1            C0000000000                       112663652                                                    06061011          030707                    0000000004635                                                              00000000000000000000000000000000000463500000000000000000000000000                          00        20111006                                                          000150
1            C0000000000                       112663652                                                    28061011          030707                    0000000000120                                                              00000000000000000000000000000000000463500000000000000000000000000                          B3        20111006                                                          000151
1            C0000000000                       112636809                                                    06061011          030702                    0000000004040                                                              00000000000000000000000000000000000404000000000000000000000000000                          00        20111006                                                          000152
1            C0000000000                       112636809                                                    28061011          030702                    0000000000120                                                              00000000000000000000000000000000000404000000000000000000000000000                          B3        20111006                                                          000153
1            C0000000000                       112649552                                                    06061011          030703                    0000000004490                                                              00000000000000000000000000000000000449000000000000000000000000000                          00        20111006                                                          000154
1            C0000000000                       112649552                                                    28061011          030703                    0000000000120                                                              00000000000000000000000000000000000449000000000000000000000000000                          B3        20111006                                                          000155
1            C0000000000                       112653533                                                    06061011          030715                    0000000004490                                                              00000000000000000000000000000000000449000000000000000000000000000                          00        20111006                                                          000156
1            C0000000000                       112653533                                                    28061011          030715                    0000000000120                                                              00000000000000000000000000000000000449000000000000000000000000000                          B3        20111006                                                          000157
1            C0000000000                       112636604                                                    06061011          030703                    0000000004490                                                              00000000000000000000000000000000000449000000000000000000000000000                          00        20111006                                                          000158
1            C0000000000                       112636604                                                    28061011          030703                    0000000000120                                                              00000000000000000000000000000000000449000000000000000000000000000                          B3        20111006                                                          000159
1            C0000000000                       112636540                                                    06061011          030703                    0000000004040                                                              00000000000000000000000000000000000404000000000000000000000000000                          00        20111006                                                          000160
1            C0000000000                       112636540                                                    28061011          030703                    0000000000120                                                              00000000000000000000000000000000000404000000000000000000000000000                          B3        20111006                                                          000161
1            C0000000000                       112654807                                                    06061011          030703                    0000000004490                                                              00000000000000000000000000000000000449000000000000000000000000000                          00        20111006                                                          000162
1            C0000000000                       112654807                                                    28061011          030703                    0000000000120                                                              00000000000000000000000000000000000449000000000000000000000000000                          B3        20111006                                                          000163
1            C0000000000                       112611318                                                    06061011          030704                    0000000004490                                                              00000000000000000000000000000000000449000000000000000000000000000                          00        20111006                                                          000164
1            C0000000000                       112611318                                                    28061011          030704                    0000000000120                                                              00000000000000000000000000000000000449000000000000000000000000000                          B3        20111006                                                          000165
1            C0000000000                       112653312                                                    06061011          030703                    0000000004490                                                              00000000000000000000000000000000000449000000000000000000000000000                          00        20111006                                                          000166
1            C0000000000                       112653312                                                    28061011          030703                    0000000000120                                                              00000000000000000000000000000000000449000000000000000000000000000                          B3        20111006                                                          000167
1            C0000000000                       112635535                                                    06061011          030721                    0000000004490                                                              00000000000000000000000000000000000449000000000000000000000000000                          00        20111006                                                          000168
1            C0000000000                       112635535                                                    28061011          030721                    0000000000120                                                              00000000000000000000000000000000000449000000000000000000000000000                          B3        20111006                                                          000169
1            C0000000000                       112660769                                                    06061011          030707                    0000000004040                                                              00000000000000000000000000000000000404000000000000000000000000000                          00        20111006                                                          000170
1            C0000000000                       112660769                                                    28061011          030707                    0000000000120                                                              00000000000000000000000000000000000404000000000000000000000000000                          B3        20111006                                                          000171
1            C0000000000                       112664250                                                    06061011          030725                    0000000002544                                                              00000000000000000000000000000000000254400000000000000000000000000                          00        20111006                                                          000172
1            C0000000000                       112664250                                                    28061011          030725                    0000000000120                                                              00000000000000000000000000000000000254400000000000000000000000000                          B3        20111006                                                          000173
1            C0000000000                       112622824                                                    06061011          030715                    0000000004373                                                              00000000000000000000000000000000000437300000000000000000000000000                          00        20111006                                                          000174
1            C0000000000                       112622824                                                    28061011          030715                    0000000000120                                                              00000000000000000000000000000000000437300000000000000000000000000                          B3        20111006                                                          000175
1            C0000000000                       112655102                                                    06061011          030729                    0000000005990                                                              00000000000000000000000000000000000599000000000000000000000000000                          00        20111006                                                          000176
1            C0000000000                       112655102                                                    28061011          030729                    0000000000120                                                              00000000000000000000000000000000000599000000000000000000000000000                          B3        20111006                                                          000177
1            C0000000000                       112619688                                                    06061011          030725                    0000000004490                                                              00000000000000000000000000000000000449000000000000000000000000000                          00        20111006                                                          000178
1            C0000000000                       112619688                                                    28061011          030725                    0000000000120                                                              00000000000000000000000000000000000449000000000000000000000000000                          B3        20111006                                                          000179
1            C0000000000                       112658292                                                    06061011          030722                    0000000004490                                                              00000000000000000000000000000000000449000000000000000000000000000                          00        20111006                                                          000180
1            C0000000000                       112658292                                                    28061011          030722                    0000000000120                                                              00000000000000000000000000000000000449000000000000000000000000000                          B3        20111006                                                          000181
1            C0000000000                       112663334                                                    06061011          030725                    0000000005938                                                              00000000000000000000000000000000000593800000000000000000000000000                          00        20111006                                                          000182
1            C0000000000                       112663334                                                    28061011          030725                    0000000000120                                                              00000000000000000000000000000000000593800000000000000000000000000                          B3        20111006                                                          000183
1            C0000000000                       112652871                                                    06061011          030719                    0000000004490                                                              00000000000000000000000000000000000449000000000000000000000000000                          00        20111006                                                          000184
1            C0000000000                       112652871                                                    28061011          030719                    0000000000120                                                              00000000000000000000000000000000000449000000000000000000000000000                          B3        20111006                                                          000185
1            C0000000000                       112654408                                                    06061011          COMPE                     0000000004490                                                              00000000000000000000000000000000000449000000000000000000000000000                          H5        20111006                                                          000186
1            C0000000000                       112654408                                                    28061011          COMPE                     0000000000150                                                              00000000000000000000000000000000000449000000000000000000000000000                          B3        20111006                                                          000187
1            C0000000000                       112657601                                                    06061011          COMPE                     0000000004490                                                              00000000000000000000000000000000000449000000000000000000000000000                          H5        20111006                                                          000188
1            C0000000000                       112657601                                                    28061011          COMPE                     0000000000150                                                              00000000000000000000000000000000000449000000000000000000000000000                          B3        20111006                                                          000189
1            C0000000000                       112636515                                                    06061011          COMPE                     0000000004490                                                              00000000000000000000000000000000000449000000000000000000000000000                          H5        20111006                                                          000190
1            C0000000000                       112636515                                                    28061011          COMPE                     0000000000150                                                              00000000000000000000000000000000000449000000000000000000000000000                          B3        20111006                                                          000191
1            C0000000000                       112641691                                                    06061011          COMPE                     0000000005990                                                              00000000000000000000000000000000000599000000000000000000000000000                          H5        20111006                                                          000192
1            C0000000000                       112641691                                                    28061011          COMPE                     0000000000150                                                              00000000000000000000000000000000000599000000000000000000000000000                          B3        20111006                                                          000193
1            C0000000000                       112654203                                                    06061011          COMPE                     0000000004490                                                              00000000000000000000000000000000000449000000000000000000000000000                          H5        20111006                                                          000194
1            C0000000000                       112654203                                                    28061011          COMPE                     0000000000150                                                              00000000000000000000000000000000000449000000000000000000000000000                          B3        20111006                                                          000195
1            C0000000000                       112652251                                                    06061011          COMPE                     0000000004490                                                              00000000000000000000000000000000000449000000000000000000000000000                          H5        20111006                                                          000196
1            C0000000000                       112652251                                                    28061011          COMPE                     0000000000150                                                              00000000000000000000000000000000000449000000000000000000000000000                          B3        20111006                                                          000197
1            C0000000000                       112660742                                                    06061011          COMPE                     0000000007900                                                              00000000000000000000000000000000000790000000000000000000000000000                          H5        20111006                                                          000198
1            C0000000000                       112660742                                                    28061011          COMPE                     0000000000150                                                              00000000000000000000000000000000000790000000000000000000000000000                          B3        20111006                                                          000199
1            C0000000000                       112653860                                                    06061011          COMPE                     0000000005390                                                              00000000000000000000000000000000000539000000000000000000000000000                          H5        20111006                                                          000200
1            C0000000000                       112653860                                                    28061011          COMPE                     0000000000150                                                              00000000000000000000000000000000000539000000000000000000000000000                          B3        20111006                                                          000201
1            C0000000000                       112633770                                                    06061011          COMPE                     0000000004040                                                              00000000000000000000000000000000000404000000000000000000000000000                          H5        20111006                                                          000202
1            C0000000000                       112633770                                                    28061011          COMPE                     0000000000150                                                              00000000000000000000000000000000000404000000000000000000000000000                          B3        20111006                                                          000203
1            C0000000000                       112656524                                                    06061011          COMPE                     0000000004040                                                              00000000000000000000000000000000000404000000000000000000000000000                          H5        20111006                                                          000204
1            C0000000000                       112656524                                                    28061011          COMPE                     0000000000150                                                              00000000000000000000000000000000000404000000000000000000000000000                          B3        20111006                                                          000205
1            C0000000000                       112658020                                                    06061011          COMPE                     0000000004040                                                              00000000000000000000000000000000000404000000000000000000000000000                          H5        20111006                                                          000206
1            C0000000000                       112658020                                                    28061011          COMPE                     0000000000150                                                              00000000000000000000000000000000000404000000000000000000000000000                          B3        20111006                                                          000207
1            C0000000000                       112603285                                                    06061011          COMPE                     0000000005834                                                              00000000000000000000000000000000000583400000000000000000000000000                          H5        20111006                                                          000208
1            C0000000000                       112603285                                                    28061011          COMPE                     0000000000150                                                              00000000000000000000000000000000000583400000000000000000000000000                          B3        20111006                                                          000209
1            C0000000000                       112628393                                                    06061011          COMPE                     0000000009900                                                              00000000000000000000000000000000000990000000000000000000000000000                          H5        20111006                                                          000210
1            C0000000000                       112628393                                                    28061011          COMPE                     0000000000150                                                              00000000000000000000000000000000000990000000000000000000000000000                          B3        20111006                                                          000211
1            C0000000000                       112639328                                                    06061011          COMPE                     0000000004490                                                              00000000000000000000000000000000000449000000000000000000000000000                          H5        20111006                                                          000212
1            C0000000000                       112639328                                                    28061011          COMPE                     0000000000150                                                              00000000000000000000000000000000000449000000000000000000000000000                          B3        20111006                                                          000213
1            C0000000000                       112635225                                                    06061011          COMPE                     0000000004040                                                              00000000000000000000000000000000000404000000000000000000000000000                          H5        20111006                                                          000214
1            C0000000000                       112635225                                                    28061011          COMPE                     0000000000150                                                              00000000000000000000000000000000000404000000000000000000000000000                          B3        20111006                                                          000215
1            C0000000000                       112644542                                                    06061011          COMPE                     0000000004490                                                              00000000000000000000000000000000000449000000000000000000000000000                          H5        20111006                                                          000216
1            C0000000000                       112644542                                                    28061011          COMPE                     0000000000150                                                              00000000000000000000000000000000000449000000000000000000000000000                          B3        20111006                                                          000217
1            C0000000000                       112645280                                                    06061011          COMPE                     0000000004040                                                              00000000000000000000000000000000000404000000000000000000000000000                          H5        20111006                                                          000218
1            C0000000000                       112645280                                                    28061011          COMPE                     0000000000150                                                              00000000000000000000000000000000000404000000000000000000000000000                          B3        20111006                                                          000219
1            C0000000000                       112647398                                                    06061011          COMPE                     0000000004490                                                              00000000000000000000000000000000000449000000000000000000000000000                          H5        20111006                                                          000220
1            C0000000000                       112647398                                                    28061011          COMPE                     0000000000150                                                              00000000000000000000000000000000000449000000000000000000000000000                          B3        20111006                                                          000221
1            C0000000000                       112652561                                                    06061011          COMPE                     0000000004490                                                              00000000000000000000000000000000000449000000000000000000000000000                          H5        20111006                                                          000222
1            C0000000000                       112652561                                                    28061011          COMPE                     0000000000150                                                              00000000000000000000000000000000000449000000000000000000000000000                          B3        20111006                                                          000223
1            C0000000000                       112647312                                                    06061011          COMPE                     0000000004490                                                              00000000000000000000000000000000000449000000000000000000000000000                          H5        20111006                                                          000224
1            C0000000000                       112647312                                                    28061011          COMPE                     0000000000150                                                              00000000000000000000000000000000000449000000000000000000000000000                          B3        20111006                                                          000225
1            C0000000000                       112645018                                                    06061011          COMPE                     0000000004040                                                              00000000000000000000000000000000000404000000000000000000000000000                          H5        20111006                                                          000226
1            C0000000000                       112645018                                                    28061011          COMPE                     0000000000150                                                              00000000000000000000000000000000000404000000000000000000000000000                          B3        20111006                                                          000227
1            C0000000000                       112647061                                                    06061011          COMPE                     0000000004490                                                              00000000000000000000000000000000000449000000000000000000000000000                          H5        20111006                                                          000228
1            C0000000000                       112647061                                                    28061011          COMPE                     0000000000150                                                              00000000000000000000000000000000000449000000000000000000000000000                          B3        20111006                                                          000229
1            C0000000000                       112659078                                                    06061011          COMPE                     0000000004040                                                              00000000000000000000000000000000000404000000000000000000000000000                          H5        20111006                                                          000230
1            C0000000000                       112659078                                                    28061011          COMPE                     0000000000150                                                              00000000000000000000000000000000000404000000000000000000000000000                          B3        20111006                                                          000231
1            C0000000000                       112663172                                                    06061011          COMPE                     0000000004490                                                              00000000000000000000000000000000000449000000000000000000000000000                          H5        20111006                                                          000232
1            C0000000000                       112663172                                                    28061011          COMPE                     0000000000150                                                              00000000000000000000000000000000000449000000000000000000000000000                          B3        20111006                                                          000233
1            C0000000000                       112640245                                                    06061011          COMPE                     0000000004040                                                              00000000000000000000000000000000000404000000000000000000000000000                          H5        20111006                                                          000234
1            C0000000000                       112640245                                                    28061011          COMPE                     0000000000150                                                              00000000000000000000000000000000000404000000000000000000000000000                          B3        20111006                                                          000235
1            C0000000000                       112633656                                                    06061011          COMPE                     0000000004490                                                              00000000000000000000000000000000000449000000000000000000000000000                          H5        20111006                                                          000236
1            C0000000000                       112633656                                                    28061011          COMPE                     0000000000150                                                              00000000000000000000000000000000000449000000000000000000000000000                          B3        20111006                                                          000237
1            C0000000000                       112662052                                                    06061011          COMPE                     0000000004490                                                              00000000000000000000000000000000000449000000000000000000000000000                          H5        20111006                                                          000238
1            C0000000000                       112662052                                                    28061011          COMPE                     0000000000150                                                              00000000000000000000000000000000000449000000000000000000000000000                          B3        20111006                                                          000239
1            C0000000000                       112655730                                                    06061011          COMPE                     0000000004490                                                              00000000000000000000000000000000000449000000000000000000000000000                          H5        20111006                                                          000240
1            C0000000000                       112655730                                                    28061011          COMPE                     0000000000150                                                              00000000000000000000000000000000000449000000000000000000000000000                          B3        20111006                                                          000241
1            C0000000000                       112663962                                                    06061011          COMPE                     0000000003293                                                              00000000000000000000000000000000000329300000000000000000000000000                          H5        20111006                                                          000242
1            C0000000000                       112663962                                                    28061011          COMPE                     0000000000150                                                              00000000000000000000000000000000000329300000000000000000000000000                          B3        20111006                                                          000243
1            C0000000000                       112646308                                                    06061011          COMPE                     0000000004040                                                              00000000000000000000000000000000000404000000000000000000000000000                          H5        20111006                                                          000244
1            C0000000000                       112646308                                                    28061011          COMPE                     0000000000150                                                              00000000000000000000000000000000000404000000000000000000000000000                          B3        20111006                                                          000245
1            C0000000000                       112662591                                                    06061011          COMPE                     0000000003900                                                              00000000000000000000000000000000000390000000000000000000000000000                          H5        20111006                                                          000246
1            C0000000000                       112662591                                                    28061011          COMPE                     0000000000150                                                              00000000000000000000000000000000000390000000000000000000000000000                          B3        20111006                                                          000247
1            C0000000000                       112655897                                                    06061011          COMPE                     0000000004040                                                              00000000000000000000000000000000000404000000000000000000000000000                          H5        20111006                                                          000248
